{
	"todomain.sol": {
		"TodoMain": {
			"abi": [
				{
					"anonymous": false,
					"inputs": [
						{
							"indexed": false,
							"internalType": "uint256",
							"name": "",
							"type": "uint256"
						},
						{
							"indexed": false,
							"internalType": "string",
							"name": "",
							"type": "string"
						}
					],
					"name": "TaskCreate",
					"type": "event"
				},
				{
					"inputs": [
						{
							"internalType": "uint256",
							"name": "_id",
							"type": "uint256"
						},
						{
							"internalType": "string",
							"name": "_todoName",
							"type": "string"
						}
					],
					"name": "addTodo",
					"outputs": [],
					"stateMutability": "nonpayable",
					"type": "function"
				},
				{
					"inputs": [],
					"name": "showTodo",
					"outputs": [
						{
							"components": [
								{
									"internalType": "uint256",
									"name": "id",
									"type": "uint256"
								},
								{
									"internalType": "string",
									"name": "todoName",
									"type": "string"
								}
							],
							"internalType": "struct TodoMain.TodoObj[]",
							"name": "",
							"type": "tuple[]"
						}
					],
					"stateMutability": "view",
					"type": "function"
				},
				{
					"inputs": [
						{
							"internalType": "uint256",
							"name": "",
							"type": "uint256"
						}
					],
					"name": "todos",
					"outputs": [
						{
							"internalType": "uint256",
							"name": "id",
							"type": "uint256"
						},
						{
							"internalType": "string",
							"name": "todoName",
							"type": "string"
						}
					],
					"stateMutability": "view",
					"type": "function"
				},
				{
					"inputs": [
						{
							"internalType": "uint256",
							"name": "index",
							"type": "uint256"
						}
					],
					"name": "updateTodo",
					"outputs": [
						{
							"internalType": "string",
							"name": "",
							"type": "string"
						}
					],
					"stateMutability": "view",
					"type": "function"
				}
			],
			"devdoc": {
				"kind": "dev",
				"methods": {},
				"version": 1
			},
			"evm": {
				"assembly": "    /* \"todomain.sol\":64:700  contract TodoMain{\r... */\n  mstore(0x40, 0x80)\n  callvalue\n  dup1\n  iszero\n  tag_1\n  jumpi\n  0x00\n  dup1\n  revert\ntag_1:\n  pop\n  dataSize(sub_0)\n  dup1\n  dataOffset(sub_0)\n  0x00\n  codecopy\n  0x00\n  return\nstop\n\nsub_0: assembly {\n        /* \"todomain.sol\":64:700  contract TodoMain{\r... */\n      mstore(0x40, 0x80)\n      callvalue\n      dup1\n      iszero\n      tag_1\n      jumpi\n      0x00\n      dup1\n      revert\n    tag_1:\n      pop\n      jumpi(tag_2, lt(calldatasize, 0x04))\n      shr(0xe0, calldataload(0x00))\n      dup1\n      0x61a41c08\n      eq\n      tag_3\n      jumpi\n      dup1\n      0x82e76b88\n      eq\n      tag_4\n      jumpi\n      dup1\n      0xbc8bc2b4\n      eq\n      tag_5\n      jumpi\n      dup1\n      0xc1da2020\n      eq\n      tag_6\n      jumpi\n    tag_2:\n      0x00\n      dup1\n      revert\n        /* \"todomain.sol\":582:697  function updateTodo(uint index) public view returns(string memory){\r... */\n    tag_3:\n      tag_7\n      0x04\n      dup1\n      calldatasize\n      sub\n      dup2\n      add\n      swap1\n      tag_8\n      swap2\n      swap1\n      tag_9\n      jump\t// in\n    tag_8:\n      tag_10\n      jump\t// in\n    tag_7:\n      mload(0x40)\n      tag_11\n      swap2\n      swap1\n      tag_12\n      jump\t// in\n    tag_11:\n      mload(0x40)\n      dup1\n      swap2\n      sub\n      swap1\n      return\n        /* \"todomain.sol\":472:574  function showTodo() public view returns(TodoObj[] memory){\r... */\n    tag_4:\n      tag_13\n      tag_14\n      jump\t// in\n    tag_13:\n      mload(0x40)\n      tag_15\n      swap2\n      swap1\n      tag_16\n      jump\t// in\n    tag_15:\n      mload(0x40)\n      dup1\n      swap2\n      sub\n      swap1\n      return\n        /* \"todomain.sol\":200:222  TodoObj[] public todos */\n    tag_5:\n      tag_17\n      0x04\n      dup1\n      calldatasize\n      sub\n      dup2\n      add\n      swap1\n      tag_18\n      swap2\n      swap1\n      tag_9\n      jump\t// in\n    tag_18:\n      tag_19\n      jump\t// in\n    tag_17:\n      mload(0x40)\n      tag_20\n      swap3\n      swap2\n      swap1\n      tag_21\n      jump\t// in\n    tag_20:\n      mload(0x40)\n      dup1\n      swap2\n      sub\n      swap1\n      return\n        /* \"todomain.sol\":273:464  function addTodo(uint _id, string memory _todoName) public {\r... */\n    tag_6:\n      tag_22\n      0x04\n      dup1\n      calldatasize\n      sub\n      dup2\n      add\n      swap1\n      tag_23\n      swap2\n      swap1\n      tag_24\n      jump\t// in\n    tag_23:\n      tag_25\n      jump\t// in\n    tag_22:\n      stop\n        /* \"todomain.sol\":582:697  function updateTodo(uint index) public view returns(string memory){\r... */\n    tag_10:\n        /* \"todomain.sol\":634:647  string memory */\n      0x60\n        /* \"todomain.sol\":666:671  todos */\n      0x00\n        /* \"todomain.sol\":672:677  index */\n      dup3\n        /* \"todomain.sol\":666:678  todos[index] */\n      dup2\n      sload\n      dup2\n      lt\n      tag_27\n      jumpi\n      tag_28\n      tag_29\n      jump\t// in\n    tag_28:\n    tag_27:\n      swap1\n      0x00\n      mstore\n      keccak256(0x00, 0x20)\n      swap1\n      0x02\n      mul\n      add\n        /* \"todomain.sol\":666:687  todos[index].todoName */\n      0x01\n      add\n        /* \"todomain.sol\":659:687  return todos[index].todoName */\n      dup1\n      sload\n      tag_31\n      swap1\n      tag_32\n      jump\t// in\n    tag_31:\n      dup1\n      0x1f\n      add\n      0x20\n      dup1\n      swap2\n      div\n      mul\n      0x20\n      add\n      mload(0x40)\n      swap1\n      dup2\n      add\n      0x40\n      mstore\n      dup1\n      swap3\n      swap2\n      swap1\n      dup2\n      dup2\n      mstore\n      0x20\n      add\n      dup3\n      dup1\n      sload\n      tag_33\n      swap1\n      tag_32\n      jump\t// in\n    tag_33:\n      dup1\n      iszero\n      tag_34\n      jumpi\n      dup1\n      0x1f\n      lt\n      tag_35\n      jumpi\n      0x0100\n      dup1\n      dup4\n      sload\n      div\n      mul\n      dup4\n      mstore\n      swap2\n      0x20\n      add\n      swap2\n      jump(tag_34)\n    tag_35:\n      dup3\n      add\n      swap2\n      swap1\n      0x00\n      mstore\n      keccak256(0x00, 0x20)\n      swap1\n    tag_36:\n      dup2\n      sload\n      dup2\n      mstore\n      swap1\n      0x01\n      add\n      swap1\n      0x20\n      add\n      dup1\n      dup4\n      gt\n      tag_36\n      jumpi\n      dup3\n      swap1\n      sub\n      0x1f\n      and\n      dup3\n      add\n      swap2\n    tag_34:\n      pop\n      pop\n      pop\n      pop\n      pop\n      swap1\n      pop\n        /* \"todomain.sol\":582:697  function updateTodo(uint index) public view returns(string memory){\r... */\n      swap2\n      swap1\n      pop\n      jump\t// out\n        /* \"todomain.sol\":472:574  function showTodo() public view returns(TodoObj[] memory){\r... */\n    tag_14:\n        /* \"todomain.sol\":512:528  TodoObj[] memory */\n      0x60\n        /* \"todomain.sol\":547:554  todoMap */\n      0x01\n        /* \"todomain.sol\":547:566  todoMap[msg.sender] */\n      0x00\n        /* \"todomain.sol\":555:565  msg.sender */\n      caller\n        /* \"todomain.sol\":547:566  todoMap[msg.sender] */\n      0xffffffffffffffffffffffffffffffffffffffff\n      and\n      0xffffffffffffffffffffffffffffffffffffffff\n      and\n      dup2\n      mstore\n      0x20\n      add\n      swap1\n      dup2\n      mstore\n      0x20\n      add\n      0x00\n      keccak256\n        /* \"todomain.sol\":540:566  return todoMap[msg.sender] */\n      dup1\n      sload\n      dup1\n      0x20\n      mul\n      0x20\n      add\n      mload(0x40)\n      swap1\n      dup2\n      add\n      0x40\n      mstore\n      dup1\n      swap3\n      swap2\n      swap1\n      dup2\n      dup2\n      mstore\n      0x20\n      add\n      0x00\n      swap1\n    tag_38:\n      dup3\n      dup3\n      lt\n      iszero\n      tag_39\n      jumpi\n      dup4\n      dup3\n      swap1\n      0x00\n      mstore\n      keccak256(0x00, 0x20)\n      swap1\n      0x02\n      mul\n      add\n      mload(0x40)\n      dup1\n      0x40\n      add\n      0x40\n      mstore\n      swap1\n      dup2\n      0x00\n      dup3\n      add\n      sload\n      dup2\n      mstore\n      0x20\n      add\n      0x01\n      dup3\n      add\n      dup1\n      sload\n      tag_41\n      swap1\n      tag_32\n      jump\t// in\n    tag_41:\n      dup1\n      0x1f\n      add\n      0x20\n      dup1\n      swap2\n      div\n      mul\n      0x20\n      add\n      mload(0x40)\n      swap1\n      dup2\n      add\n      0x40\n      mstore\n      dup1\n      swap3\n      swap2\n      swap1\n      dup2\n      dup2\n      mstore\n      0x20\n      add\n      dup3\n      dup1\n      sload\n      tag_42\n      swap1\n      tag_32\n      jump\t// in\n    tag_42:\n      dup1\n      iszero\n      tag_43\n      jumpi\n      dup1\n      0x1f\n      lt\n      tag_44\n      jumpi\n      0x0100\n      dup1\n      dup4\n      sload\n      div\n      mul\n      dup4\n      mstore\n      swap2\n      0x20\n      add\n      swap2\n      jump(tag_43)\n    tag_44:\n      dup3\n      add\n      swap2\n      swap1\n      0x00\n      mstore\n      keccak256(0x00, 0x20)\n      swap1\n    tag_45:\n      dup2\n      sload\n      dup2\n      mstore\n      swap1\n      0x01\n      add\n      swap1\n      0x20\n      add\n      dup1\n      dup4\n      gt\n      tag_45\n      jumpi\n      dup3\n      swap1\n      sub\n      0x1f\n      and\n      dup3\n      add\n      swap2\n    tag_43:\n      pop\n      pop\n      pop\n      pop\n      pop\n      dup2\n      mstore\n      pop\n      pop\n      dup2\n      mstore\n      0x20\n      add\n      swap1\n      0x01\n      add\n      swap1\n      jump(tag_38)\n    tag_39:\n      pop\n      pop\n      pop\n      pop\n      swap1\n      pop\n        /* \"todomain.sol\":472:574  function showTodo() public view returns(TodoObj[] memory){\r... */\n      swap1\n      jump\t// out\n        /* \"todomain.sol\":200:222  TodoObj[] public todos */\n    tag_19:\n      0x00\n      dup2\n      dup2\n      sload\n      dup2\n      lt\n      tag_46\n      jumpi\n      0x00\n      dup1\n      revert\n    tag_46:\n      swap1\n      0x00\n      mstore\n      keccak256(0x00, 0x20)\n      swap1\n      0x02\n      mul\n      add\n      0x00\n      swap2\n      pop\n      swap1\n      pop\n      dup1\n      0x00\n      add\n      sload\n      swap1\n      dup1\n      0x01\n      add\n      dup1\n      sload\n      tag_48\n      swap1\n      tag_32\n      jump\t// in\n    tag_48:\n      dup1\n      0x1f\n      add\n      0x20\n      dup1\n      swap2\n      div\n      mul\n      0x20\n      add\n      mload(0x40)\n      swap1\n      dup2\n      add\n      0x40\n      mstore\n      dup1\n      swap3\n      swap2\n      swap1\n      dup2\n      dup2\n      mstore\n      0x20\n      add\n      dup3\n      dup1\n      sload\n      tag_49\n      swap1\n      tag_32\n      jump\t// in\n    tag_49:\n      dup1\n      iszero\n      tag_50\n      jumpi\n      dup1\n      0x1f\n      lt\n      tag_51\n      jumpi\n      0x0100\n      dup1\n      dup4\n      sload\n      div\n      mul\n      dup4\n      mstore\n      swap2\n      0x20\n      add\n      swap2\n      jump(tag_50)\n    tag_51:\n      dup3\n      add\n      swap2\n      swap1\n      0x00\n      mstore\n      keccak256(0x00, 0x20)\n      swap1\n    tag_52:\n      dup2\n      sload\n      dup2\n      mstore\n      swap1\n      0x01\n      add\n      swap1\n      0x20\n      add\n      dup1\n      dup4\n      gt\n      tag_52\n      jumpi\n      dup3\n      swap1\n      sub\n      0x1f\n      and\n      dup3\n      add\n      swap2\n    tag_50:\n      pop\n      pop\n      pop\n      pop\n      pop\n      swap1\n      pop\n      dup3\n      jump\t// out\n        /* \"todomain.sol\":273:464  function addTodo(uint _id, string memory _todoName) public {\r... */\n    tag_25:\n        /* \"todomain.sol\":343:348  todos */\n      0x00\n        /* \"todomain.sol\":354:376  TodoObj(_id,_todoName) */\n      mload(0x40)\n      dup1\n      0x40\n      add\n      0x40\n      mstore\n      dup1\n        /* \"todomain.sol\":362:365  _id */\n      dup5\n        /* \"todomain.sol\":354:376  TodoObj(_id,_todoName) */\n      dup2\n      mstore\n      0x20\n      add\n        /* \"todomain.sol\":366:375  _todoName */\n      dup4\n        /* \"todomain.sol\":354:376  TodoObj(_id,_todoName) */\n      dup2\n      mstore\n      pop\n        /* \"todomain.sol\":343:377  todos.push(TodoObj(_id,_todoName)) */\n      swap1\n      dup1\n      0x01\n      dup2\n      sload\n      add\n      dup1\n      dup3\n      sstore\n      dup1\n      swap2\n      pop\n      pop\n      0x01\n      swap1\n      sub\n      swap1\n      0x00\n      mstore\n      keccak256(0x00, 0x20)\n      swap1\n      0x02\n      mul\n      add\n      0x00\n      swap1\n      swap2\n      swap1\n      swap2\n      swap1\n      swap2\n      pop\n      0x00\n      dup3\n      add\n      mload\n      dup2\n      0x00\n      add\n      sstore\n      0x20\n      dup3\n      add\n      mload\n      dup2\n      0x01\n      add\n      swap1\n      dup1\n      mload\n      swap1\n      0x20\n      add\n      swap1\n      tag_55\n      swap3\n      swap2\n      swap1\n      tag_56\n      jump\t// in\n    tag_55:\n      pop\n      pop\n      pop\n        /* \"todomain.sol\":410:415  todos */\n      0x00\n        /* \"todomain.sol\":388:395  todoMap */\n      0x01\n        /* \"todomain.sol\":388:407  todoMap[msg.sender] */\n      0x00\n        /* \"todomain.sol\":396:406  msg.sender */\n      caller\n        /* \"todomain.sol\":388:407  todoMap[msg.sender] */\n      0xffffffffffffffffffffffffffffffffffffffff\n      and\n      0xffffffffffffffffffffffffffffffffffffffff\n      and\n      dup2\n      mstore\n      0x20\n      add\n      swap1\n      dup2\n      mstore\n      0x20\n      add\n      0x00\n      keccak256\n        /* \"todomain.sol\":388:415  todoMap[msg.sender] = todos */\n      swap1\n      dup1\n      sload\n      tag_57\n      swap3\n      swap2\n      swap1\n      tag_58\n      jump\t// in\n    tag_57:\n      pop\n        /* \"todomain.sol\":431:456  TaskCreate(_id,_todoName) */\n      0x3c981eaf8f806637941d1237961055d66e8636b71bc453db0c9e245a154760fd\n        /* \"todomain.sol\":442:445  _id */\n      dup3\n        /* \"todomain.sol\":446:455  _todoName */\n      dup3\n        /* \"todomain.sol\":431:456  TaskCreate(_id,_todoName) */\n      mload(0x40)\n      tag_59\n      swap3\n      swap2\n      swap1\n      tag_21\n      jump\t// in\n    tag_59:\n      mload(0x40)\n      dup1\n      swap2\n      sub\n      swap1\n      log1\n        /* \"todomain.sol\":273:464  function addTodo(uint _id, string memory _todoName) public {\r... */\n      pop\n      pop\n      jump\t// out\n    tag_56:\n      dup3\n      dup1\n      sload\n      tag_60\n      swap1\n      tag_32\n      jump\t// in\n    tag_60:\n      swap1\n      0x00\n      mstore\n      keccak256(0x00, 0x20)\n      swap1\n      0x1f\n      add\n      0x20\n      swap1\n      div\n      dup2\n      add\n      swap3\n      dup3\n      tag_62\n      jumpi\n      0x00\n      dup6\n      sstore\n      jump(tag_61)\n    tag_62:\n      dup3\n      0x1f\n      lt\n      tag_63\n      jumpi\n      dup1\n      mload\n      not(0xff)\n      and\n      dup4\n      dup1\n      add\n      or\n      dup6\n      sstore\n      jump(tag_61)\n    tag_63:\n      dup3\n      dup1\n      add\n      0x01\n      add\n      dup6\n      sstore\n      dup3\n      iszero\n      tag_61\n      jumpi\n      swap2\n      dup3\n      add\n    tag_64:\n      dup3\n      dup2\n      gt\n      iszero\n      tag_65\n      jumpi\n      dup3\n      mload\n      dup3\n      sstore\n      swap2\n      0x20\n      add\n      swap2\n      swap1\n      0x01\n      add\n      swap1\n      jump(tag_64)\n    tag_65:\n    tag_61:\n      pop\n      swap1\n      pop\n      tag_66\n      swap2\n      swap1\n      tag_67\n      jump\t// in\n    tag_66:\n      pop\n      swap1\n      jump\t// out\n    tag_58:\n      dup3\n      dup1\n      sload\n      dup3\n      dup3\n      sstore\n      swap1\n      0x00\n      mstore\n      keccak256(0x00, 0x20)\n      swap1\n      0x02\n      mul\n      dup2\n      add\n      swap3\n      dup3\n      iszero\n      tag_68\n      jumpi\n      0x00\n      mstore\n      keccak256(0x00, 0x20)\n      swap2\n      0x02\n      mul\n      dup3\n      add\n    tag_69:\n      dup3\n      dup2\n      gt\n      iszero\n      tag_70\n      jumpi\n      dup3\n      dup3\n      0x00\n      dup3\n      add\n      sload\n      dup2\n      0x00\n      add\n      sstore\n      0x01\n      dup3\n      add\n      dup2\n      0x01\n      add\n      swap1\n      dup1\n      sload\n      tag_71\n      swap1\n      tag_32\n      jump\t// in\n    tag_71:\n      tag_72\n      swap3\n      swap2\n      swap1\n      tag_73\n      jump\t// in\n    tag_72:\n      pop\n      pop\n      pop\n      swap2\n      0x02\n      add\n      swap2\n      swap1\n      0x02\n      add\n      swap1\n      jump(tag_69)\n    tag_70:\n    tag_68:\n      pop\n      swap1\n      pop\n      tag_74\n      swap2\n      swap1\n      tag_75\n      jump\t// in\n    tag_74:\n      pop\n      swap1\n      jump\t// out\n    tag_67:\n    tag_76:\n      dup1\n      dup3\n      gt\n      iszero\n      tag_77\n      jumpi\n      0x00\n      dup2\n      0x00\n      swap1\n      sstore\n      pop\n      0x01\n      add\n      jump(tag_76)\n    tag_77:\n      pop\n      swap1\n      jump\t// out\n    tag_73:\n      dup3\n      dup1\n      sload\n      tag_78\n      swap1\n      tag_32\n      jump\t// in\n    tag_78:\n      swap1\n      0x00\n      mstore\n      keccak256(0x00, 0x20)\n      swap1\n      0x1f\n      add\n      0x20\n      swap1\n      div\n      dup2\n      add\n      swap3\n      dup3\n      tag_80\n      jumpi\n      0x00\n      dup6\n      sstore\n      jump(tag_79)\n    tag_80:\n      dup3\n      0x1f\n      lt\n      tag_81\n      jumpi\n      dup1\n      sload\n      dup6\n      sstore\n      jump(tag_79)\n    tag_81:\n      dup3\n      dup1\n      add\n      0x01\n      add\n      dup6\n      sstore\n      dup3\n      iszero\n      tag_79\n      jumpi\n      0x00\n      mstore\n      keccak256(0x00, 0x20)\n      swap2\n      0x1f\n      add\n      0x20\n      swap1\n      div\n      dup3\n      add\n    tag_82:\n      dup3\n      dup2\n      gt\n      iszero\n      tag_83\n      jumpi\n      dup3\n      sload\n      dup3\n      sstore\n      swap2\n      0x01\n      add\n      swap2\n      swap1\n      0x01\n      add\n      swap1\n      jump(tag_82)\n    tag_83:\n    tag_79:\n      pop\n      swap1\n      pop\n      tag_84\n      swap2\n      swap1\n      tag_67\n      jump\t// in\n    tag_84:\n      pop\n      swap1\n      jump\t// out\n    tag_75:\n    tag_85:\n      dup1\n      dup3\n      gt\n      iszero\n      tag_86\n      jumpi\n      0x00\n      dup1\n      dup3\n      add\n      0x00\n      swap1\n      sstore\n      0x01\n      dup3\n      add\n      0x00\n      tag_87\n      swap2\n      swap1\n      tag_88\n      jump\t// in\n    tag_87:\n      pop\n      0x02\n      add\n      jump(tag_85)\n    tag_86:\n      pop\n      swap1\n      jump\t// out\n    tag_88:\n      pop\n      dup1\n      sload\n      tag_89\n      swap1\n      tag_32\n      jump\t// in\n    tag_89:\n      0x00\n      dup3\n      sstore\n      dup1\n      0x1f\n      lt\n      tag_91\n      jumpi\n      pop\n      jump(tag_90)\n    tag_91:\n      0x1f\n      add\n      0x20\n      swap1\n      div\n      swap1\n      0x00\n      mstore\n      keccak256(0x00, 0x20)\n      swap1\n      dup2\n      add\n      swap1\n      tag_92\n      swap2\n      swap1\n      tag_67\n      jump\t// in\n    tag_92:\n    tag_90:\n      pop\n      jump\t// out\n        /* \"#utility.yul\":7:419   */\n    tag_94:\n        /* \"#utility.yul\":85:90   */\n      0x00\n        /* \"#utility.yul\":110:176   */\n      tag_96\n        /* \"#utility.yul\":126:175   */\n      tag_97\n        /* \"#utility.yul\":168:174   */\n      dup5\n        /* \"#utility.yul\":126:175   */\n      tag_98\n      jump\t// in\n    tag_97:\n        /* \"#utility.yul\":110:176   */\n      tag_99\n      jump\t// in\n    tag_96:\n        /* \"#utility.yul\":101:176   */\n      swap1\n      pop\n        /* \"#utility.yul\":199:205   */\n      dup3\n        /* \"#utility.yul\":192:197   */\n      dup2\n        /* \"#utility.yul\":185:206   */\n      mstore\n        /* \"#utility.yul\":237:241   */\n      0x20\n        /* \"#utility.yul\":230:235   */\n      dup2\n        /* \"#utility.yul\":226:242   */\n      add\n        /* \"#utility.yul\":275:278   */\n      dup5\n        /* \"#utility.yul\":266:272   */\n      dup5\n        /* \"#utility.yul\":261:264   */\n      dup5\n        /* \"#utility.yul\":257:273   */\n      add\n        /* \"#utility.yul\":254:279   */\n      gt\n        /* \"#utility.yul\":251:363   */\n      iszero\n      tag_100\n      jumpi\n        /* \"#utility.yul\":282:361   */\n      tag_101\n      tag_102\n      jump\t// in\n    tag_101:\n        /* \"#utility.yul\":251:363   */\n    tag_100:\n        /* \"#utility.yul\":372:413   */\n      tag_103\n        /* \"#utility.yul\":406:412   */\n      dup5\n        /* \"#utility.yul\":401:404   */\n      dup3\n        /* \"#utility.yul\":396:399   */\n      dup6\n        /* \"#utility.yul\":372:413   */\n      tag_104\n      jump\t// in\n    tag_103:\n        /* \"#utility.yul\":91:419   */\n      pop\n        /* \"#utility.yul\":7:419   */\n      swap4\n      swap3\n      pop\n      pop\n      pop\n      jump\t// out\n        /* \"#utility.yul\":439:779   */\n    tag_105:\n        /* \"#utility.yul\":495:500   */\n      0x00\n        /* \"#utility.yul\":544:547   */\n      dup3\n        /* \"#utility.yul\":537:541   */\n      0x1f\n        /* \"#utility.yul\":529:535   */\n      dup4\n        /* \"#utility.yul\":525:542   */\n      add\n        /* \"#utility.yul\":521:548   */\n      slt\n        /* \"#utility.yul\":511:633   */\n      tag_107\n      jumpi\n        /* \"#utility.yul\":552:631   */\n      tag_108\n      tag_109\n      jump\t// in\n    tag_108:\n        /* \"#utility.yul\":511:633   */\n    tag_107:\n        /* \"#utility.yul\":669:675   */\n      dup2\n        /* \"#utility.yul\":656:676   */\n      calldataload\n        /* \"#utility.yul\":694:773   */\n      tag_110\n        /* \"#utility.yul\":769:772   */\n      dup5\n        /* \"#utility.yul\":761:767   */\n      dup3\n        /* \"#utility.yul\":754:758   */\n      0x20\n        /* \"#utility.yul\":746:752   */\n      dup7\n        /* \"#utility.yul\":742:759   */\n      add\n        /* \"#utility.yul\":694:773   */\n      tag_94\n      jump\t// in\n    tag_110:\n        /* \"#utility.yul\":685:773   */\n      swap2\n      pop\n        /* \"#utility.yul\":501:779   */\n      pop\n        /* \"#utility.yul\":439:779   */\n      swap3\n      swap2\n      pop\n      pop\n      jump\t// out\n        /* \"#utility.yul\":785:924   */\n    tag_111:\n        /* \"#utility.yul\":831:836   */\n      0x00\n        /* \"#utility.yul\":869:875   */\n      dup2\n        /* \"#utility.yul\":856:876   */\n      calldataload\n        /* \"#utility.yul\":847:876   */\n      swap1\n      pop\n        /* \"#utility.yul\":885:918   */\n      tag_113\n        /* \"#utility.yul\":912:917   */\n      dup2\n        /* \"#utility.yul\":885:918   */\n      tag_114\n      jump\t// in\n    tag_113:\n        /* \"#utility.yul\":785:924   */\n      swap3\n      swap2\n      pop\n      pop\n      jump\t// out\n        /* \"#utility.yul\":930:1259   */\n    tag_9:\n        /* \"#utility.yul\":989:995   */\n      0x00\n        /* \"#utility.yul\":1038:1040   */\n      0x20\n        /* \"#utility.yul\":1026:1035   */\n      dup3\n        /* \"#utility.yul\":1017:1024   */\n      dup5\n        /* \"#utility.yul\":1013:1036   */\n      sub\n        /* \"#utility.yul\":1009:1041   */\n      slt\n        /* \"#utility.yul\":1006:1125   */\n      iszero\n      tag_116\n      jumpi\n        /* \"#utility.yul\":1044:1123   */\n      tag_117\n      tag_118\n      jump\t// in\n    tag_117:\n        /* \"#utility.yul\":1006:1125   */\n    tag_116:\n        /* \"#utility.yul\":1164:1165   */\n      0x00\n        /* \"#utility.yul\":1189:1242   */\n      tag_119\n        /* \"#utility.yul\":1234:1241   */\n      dup5\n        /* \"#utility.yul\":1225:1231   */\n      dup3\n        /* \"#utility.yul\":1214:1223   */\n      dup6\n        /* \"#utility.yul\":1210:1232   */\n      add\n        /* \"#utility.yul\":1189:1242   */\n      tag_111\n      jump\t// in\n    tag_119:\n        /* \"#utility.yul\":1179:1242   */\n      swap2\n      pop\n        /* \"#utility.yul\":1135:1252   */\n      pop\n        /* \"#utility.yul\":930:1259   */\n      swap3\n      swap2\n      pop\n      pop\n      jump\t// out\n        /* \"#utility.yul\":1265:1919   */\n    tag_24:\n        /* \"#utility.yul\":1343:1349   */\n      0x00\n        /* \"#utility.yul\":1351:1357   */\n      dup1\n        /* \"#utility.yul\":1400:1402   */\n      0x40\n        /* \"#utility.yul\":1388:1397   */\n      dup4\n        /* \"#utility.yul\":1379:1386   */\n      dup6\n        /* \"#utility.yul\":1375:1398   */\n      sub\n        /* \"#utility.yul\":1371:1403   */\n      slt\n        /* \"#utility.yul\":1368:1487   */\n      iszero\n      tag_121\n      jumpi\n        /* \"#utility.yul\":1406:1485   */\n      tag_122\n      tag_118\n      jump\t// in\n    tag_122:\n        /* \"#utility.yul\":1368:1487   */\n    tag_121:\n        /* \"#utility.yul\":1526:1527   */\n      0x00\n        /* \"#utility.yul\":1551:1604   */\n      tag_123\n        /* \"#utility.yul\":1596:1603   */\n      dup6\n        /* \"#utility.yul\":1587:1593   */\n      dup3\n        /* \"#utility.yul\":1576:1585   */\n      dup7\n        /* \"#utility.yul\":1572:1594   */\n      add\n        /* \"#utility.yul\":1551:1604   */\n      tag_111\n      jump\t// in\n    tag_123:\n        /* \"#utility.yul\":1541:1604   */\n      swap3\n      pop\n        /* \"#utility.yul\":1497:1614   */\n      pop\n        /* \"#utility.yul\":1681:1683   */\n      0x20\n        /* \"#utility.yul\":1670:1679   */\n      dup4\n        /* \"#utility.yul\":1666:1684   */\n      add\n        /* \"#utility.yul\":1653:1685   */\n      calldataload\n        /* \"#utility.yul\":1712:1730   */\n      0xffffffffffffffff\n        /* \"#utility.yul\":1704:1710   */\n      dup2\n        /* \"#utility.yul\":1701:1731   */\n      gt\n        /* \"#utility.yul\":1698:1815   */\n      iszero\n      tag_124\n      jumpi\n        /* \"#utility.yul\":1734:1813   */\n      tag_125\n      tag_126\n      jump\t// in\n    tag_125:\n        /* \"#utility.yul\":1698:1815   */\n    tag_124:\n        /* \"#utility.yul\":1839:1902   */\n      tag_127\n        /* \"#utility.yul\":1894:1901   */\n      dup6\n        /* \"#utility.yul\":1885:1891   */\n      dup3\n        /* \"#utility.yul\":1874:1883   */\n      dup7\n        /* \"#utility.yul\":1870:1892   */\n      add\n        /* \"#utility.yul\":1839:1902   */\n      tag_105\n      jump\t// in\n    tag_127:\n        /* \"#utility.yul\":1829:1902   */\n      swap2\n      pop\n        /* \"#utility.yul\":1624:1912   */\n      pop\n        /* \"#utility.yul\":1265:1919   */\n      swap3\n      pop\n      swap3\n      swap1\n      pop\n      jump\t// out\n        /* \"#utility.yul\":1925:2169   */\n    tag_128:\n        /* \"#utility.yul\":2038:2048   */\n      0x00\n        /* \"#utility.yul\":2073:2163   */\n      tag_130\n        /* \"#utility.yul\":2159:2162   */\n      dup4\n        /* \"#utility.yul\":2151:2157   */\n      dup4\n        /* \"#utility.yul\":2073:2163   */\n      tag_131\n      jump\t// in\n    tag_130:\n        /* \"#utility.yul\":2059:2163   */\n      swap1\n      pop\n        /* \"#utility.yul\":1925:2169   */\n      swap3\n      swap2\n      pop\n      pop\n      jump\t// out\n        /* \"#utility.yul\":2237:3324   */\n    tag_132:\n        /* \"#utility.yul\":2400:2403   */\n      0x00\n        /* \"#utility.yul\":2429:2505   */\n      tag_134\n        /* \"#utility.yul\":2499:2504   */\n      dup3\n        /* \"#utility.yul\":2429:2505   */\n      tag_135\n      jump\t// in\n    tag_134:\n        /* \"#utility.yul\":2521:2629   */\n      tag_136\n        /* \"#utility.yul\":2622:2628   */\n      dup2\n        /* \"#utility.yul\":2617:2620   */\n      dup6\n        /* \"#utility.yul\":2521:2629   */\n      tag_137\n      jump\t// in\n    tag_136:\n        /* \"#utility.yul\":2514:2629   */\n      swap4\n      pop\n        /* \"#utility.yul\":2655:2658   */\n      dup4\n        /* \"#utility.yul\":2700:2704   */\n      0x20\n        /* \"#utility.yul\":2692:2698   */\n      dup3\n        /* \"#utility.yul\":2688:2705   */\n      mul\n        /* \"#utility.yul\":2683:2686   */\n      dup6\n        /* \"#utility.yul\":2679:2706   */\n      add\n        /* \"#utility.yul\":2730:2808   */\n      tag_138\n        /* \"#utility.yul\":2802:2807   */\n      dup6\n        /* \"#utility.yul\":2730:2808   */\n      tag_139\n      jump\t// in\n    tag_138:\n        /* \"#utility.yul\":2831:2838   */\n      dup1\n        /* \"#utility.yul\":2862:2863   */\n      0x00\n        /* \"#utility.yul\":2847:3279   */\n    tag_140:\n        /* \"#utility.yul\":2872:2878   */\n      dup6\n        /* \"#utility.yul\":2869:2870   */\n      dup2\n        /* \"#utility.yul\":2866:2879   */\n      lt\n        /* \"#utility.yul\":2847:3279   */\n      iszero\n      tag_142\n      jumpi\n        /* \"#utility.yul\":2943:2952   */\n      dup5\n        /* \"#utility.yul\":2937:2941   */\n      dup5\n        /* \"#utility.yul\":2933:2953   */\n      sub\n        /* \"#utility.yul\":2928:2931   */\n      dup10\n        /* \"#utility.yul\":2921:2954   */\n      mstore\n        /* \"#utility.yul\":2994:3000   */\n      dup2\n        /* \"#utility.yul\":2988:3001   */\n      mload\n        /* \"#utility.yul\":3022:3130   */\n      tag_143\n        /* \"#utility.yul\":3125:3129   */\n      dup6\n        /* \"#utility.yul\":3110:3123   */\n      dup3\n        /* \"#utility.yul\":3022:3130   */\n      tag_128\n      jump\t// in\n    tag_143:\n        /* \"#utility.yul\":3014:3130   */\n      swap5\n      pop\n        /* \"#utility.yul\":3153:3235   */\n      tag_144\n        /* \"#utility.yul\":3228:3234   */\n      dup4\n        /* \"#utility.yul\":3153:3235   */\n      tag_145\n      jump\t// in\n    tag_144:\n        /* \"#utility.yul\":3143:3235   */\n      swap3\n      pop\n        /* \"#utility.yul\":3264:3268   */\n      0x20\n        /* \"#utility.yul\":3259:3262   */\n      dup11\n        /* \"#utility.yul\":3255:3269   */\n      add\n        /* \"#utility.yul\":3248:3269   */\n      swap10\n      pop\n        /* \"#utility.yul\":2907:3279   */\n      pop\n        /* \"#utility.yul\":2894:2895   */\n      0x01\n        /* \"#utility.yul\":2891:2892   */\n      dup2\n        /* \"#utility.yul\":2887:2896   */\n      add\n        /* \"#utility.yul\":2882:2896   */\n      swap1\n      pop\n        /* \"#utility.yul\":2847:3279   */\n      jump(tag_140)\n    tag_142:\n        /* \"#utility.yul\":2851:2865   */\n      pop\n        /* \"#utility.yul\":3295:3299   */\n      dup3\n        /* \"#utility.yul\":3288:3299   */\n      swap8\n      pop\n        /* \"#utility.yul\":3315:3318   */\n      dup8\n        /* \"#utility.yul\":3308:3318   */\n      swap6\n      pop\n        /* \"#utility.yul\":2405:3324   */\n      pop\n      pop\n      pop\n      pop\n      pop\n        /* \"#utility.yul\":2237:3324   */\n      swap3\n      swap2\n      pop\n      pop\n      jump\t// out\n        /* \"#utility.yul\":3330:3674   */\n    tag_146:\n        /* \"#utility.yul\":3408:3411   */\n      0x00\n        /* \"#utility.yul\":3436:3475   */\n      tag_148\n        /* \"#utility.yul\":3469:3474   */\n      dup3\n        /* \"#utility.yul\":3436:3475   */\n      tag_149\n      jump\t// in\n    tag_148:\n        /* \"#utility.yul\":3491:3552   */\n      tag_150\n        /* \"#utility.yul\":3545:3551   */\n      dup2\n        /* \"#utility.yul\":3540:3543   */\n      dup6\n        /* \"#utility.yul\":3491:3552   */\n      tag_151\n      jump\t// in\n    tag_150:\n        /* \"#utility.yul\":3484:3552   */\n      swap4\n      pop\n        /* \"#utility.yul\":3561:3613   */\n      tag_152\n        /* \"#utility.yul\":3606:3612   */\n      dup2\n        /* \"#utility.yul\":3601:3604   */\n      dup6\n        /* \"#utility.yul\":3594:3598   */\n      0x20\n        /* \"#utility.yul\":3587:3592   */\n      dup7\n        /* \"#utility.yul\":3583:3599   */\n      add\n        /* \"#utility.yul\":3561:3613   */\n      tag_153\n      jump\t// in\n    tag_152:\n        /* \"#utility.yul\":3638:3667   */\n      tag_154\n        /* \"#utility.yul\":3660:3666   */\n      dup2\n        /* \"#utility.yul\":3638:3667   */\n      tag_155\n      jump\t// in\n    tag_154:\n        /* \"#utility.yul\":3633:3636   */\n      dup5\n        /* \"#utility.yul\":3629:3668   */\n      add\n        /* \"#utility.yul\":3622:3668   */\n      swap2\n      pop\n        /* \"#utility.yul\":3412:3674   */\n      pop\n        /* \"#utility.yul\":3330:3674   */\n      swap3\n      swap2\n      pop\n      pop\n      jump\t// out\n        /* \"#utility.yul\":3680:4044   */\n    tag_156:\n        /* \"#utility.yul\":3768:3771   */\n      0x00\n        /* \"#utility.yul\":3796:3835   */\n      tag_158\n        /* \"#utility.yul\":3829:3834   */\n      dup3\n        /* \"#utility.yul\":3796:3835   */\n      tag_149\n      jump\t// in\n    tag_158:\n        /* \"#utility.yul\":3851:3922   */\n      tag_159\n        /* \"#utility.yul\":3915:3921   */\n      dup2\n        /* \"#utility.yul\":3910:3913   */\n      dup6\n        /* \"#utility.yul\":3851:3922   */\n      tag_160\n      jump\t// in\n    tag_159:\n        /* \"#utility.yul\":3844:3922   */\n      swap4\n      pop\n        /* \"#utility.yul\":3931:3983   */\n      tag_161\n        /* \"#utility.yul\":3976:3982   */\n      dup2\n        /* \"#utility.yul\":3971:3974   */\n      dup6\n        /* \"#utility.yul\":3964:3968   */\n      0x20\n        /* \"#utility.yul\":3957:3962   */\n      dup7\n        /* \"#utility.yul\":3953:3969   */\n      add\n        /* \"#utility.yul\":3931:3983   */\n      tag_153\n      jump\t// in\n    tag_161:\n        /* \"#utility.yul\":4008:4037   */\n      tag_162\n        /* \"#utility.yul\":4030:4036   */\n      dup2\n        /* \"#utility.yul\":4008:4037   */\n      tag_155\n      jump\t// in\n    tag_162:\n        /* \"#utility.yul\":4003:4006   */\n      dup5\n        /* \"#utility.yul\":3999:4038   */\n      add\n        /* \"#utility.yul\":3992:4038   */\n      swap2\n      pop\n        /* \"#utility.yul\":3772:4044   */\n      pop\n        /* \"#utility.yul\":3680:4044   */\n      swap3\n      swap2\n      pop\n      pop\n      jump\t// out\n        /* \"#utility.yul\":4108:4700   */\n    tag_131:\n        /* \"#utility.yul\":4211:4214   */\n      0x00\n        /* \"#utility.yul\":4247:4251   */\n      0x40\n        /* \"#utility.yul\":4242:4245   */\n      dup4\n        /* \"#utility.yul\":4238:4252   */\n      add\n        /* \"#utility.yul\":4332:4336   */\n      0x00\n        /* \"#utility.yul\":4325:4330   */\n      dup4\n        /* \"#utility.yul\":4321:4337   */\n      add\n        /* \"#utility.yul\":4315:4338   */\n      mload\n        /* \"#utility.yul\":4351:4414   */\n      tag_164\n        /* \"#utility.yul\":4408:4412   */\n      0x00\n        /* \"#utility.yul\":4403:4406   */\n      dup7\n        /* \"#utility.yul\":4399:4413   */\n      add\n        /* \"#utility.yul\":4385:4397   */\n      dup3\n        /* \"#utility.yul\":4351:4414   */\n      tag_165\n      jump\t// in\n    tag_164:\n        /* \"#utility.yul\":4262:4424   */\n      pop\n        /* \"#utility.yul\":4510:4514   */\n      0x20\n        /* \"#utility.yul\":4503:4508   */\n      dup4\n        /* \"#utility.yul\":4499:4515   */\n      add\n        /* \"#utility.yul\":4493:4516   */\n      mload\n        /* \"#utility.yul\":4563:4566   */\n      dup5\n        /* \"#utility.yul\":4557:4561   */\n      dup3\n        /* \"#utility.yul\":4553:4567   */\n      sub\n        /* \"#utility.yul\":4546:4550   */\n      0x20\n        /* \"#utility.yul\":4541:4544   */\n      dup7\n        /* \"#utility.yul\":4537:4551   */\n      add\n        /* \"#utility.yul\":4530:4568   */\n      mstore\n        /* \"#utility.yul\":4589:4662   */\n      tag_166\n        /* \"#utility.yul\":4657:4661   */\n      dup3\n        /* \"#utility.yul\":4643:4655   */\n      dup3\n        /* \"#utility.yul\":4589:4662   */\n      tag_146\n      jump\t// in\n    tag_166:\n        /* \"#utility.yul\":4581:4662   */\n      swap2\n      pop\n        /* \"#utility.yul\":4434:4673   */\n      pop\n        /* \"#utility.yul\":4690:4694   */\n      dup1\n        /* \"#utility.yul\":4683:4694   */\n      swap2\n      pop\n        /* \"#utility.yul\":4216:4700   */\n      pop\n        /* \"#utility.yul\":4108:4700   */\n      swap3\n      swap2\n      pop\n      pop\n      jump\t// out\n        /* \"#utility.yul\":4706:4814   */\n    tag_165:\n        /* \"#utility.yul\":4783:4807   */\n      tag_168\n        /* \"#utility.yul\":4801:4806   */\n      dup2\n        /* \"#utility.yul\":4783:4807   */\n      tag_169\n      jump\t// in\n    tag_168:\n        /* \"#utility.yul\":4778:4781   */\n      dup3\n        /* \"#utility.yul\":4771:4808   */\n      mstore\n        /* \"#utility.yul\":4706:4814   */\n      pop\n      pop\n      jump\t// out\n        /* \"#utility.yul\":4820:4938   */\n    tag_170:\n        /* \"#utility.yul\":4907:4931   */\n      tag_172\n        /* \"#utility.yul\":4925:4930   */\n      dup2\n        /* \"#utility.yul\":4907:4931   */\n      tag_169\n      jump\t// in\n    tag_172:\n        /* \"#utility.yul\":4902:4905   */\n      dup3\n        /* \"#utility.yul\":4895:4932   */\n      mstore\n        /* \"#utility.yul\":4820:4938   */\n      pop\n      pop\n      jump\t// out\n        /* \"#utility.yul\":4944:5405   */\n    tag_16:\n        /* \"#utility.yul\":5131:5135   */\n      0x00\n        /* \"#utility.yul\":5169:5171   */\n      0x20\n        /* \"#utility.yul\":5158:5167   */\n      dup3\n        /* \"#utility.yul\":5154:5172   */\n      add\n        /* \"#utility.yul\":5146:5172   */\n      swap1\n      pop\n        /* \"#utility.yul\":5218:5227   */\n      dup2\n        /* \"#utility.yul\":5212:5216   */\n      dup2\n        /* \"#utility.yul\":5208:5228   */\n      sub\n        /* \"#utility.yul\":5204:5205   */\n      0x00\n        /* \"#utility.yul\":5193:5202   */\n      dup4\n        /* \"#utility.yul\":5189:5206   */\n      add\n        /* \"#utility.yul\":5182:5229   */\n      mstore\n        /* \"#utility.yul\":5246:5398   */\n      tag_174\n        /* \"#utility.yul\":5393:5397   */\n      dup2\n        /* \"#utility.yul\":5384:5390   */\n      dup5\n        /* \"#utility.yul\":5246:5398   */\n      tag_132\n      jump\t// in\n    tag_174:\n        /* \"#utility.yul\":5238:5398   */\n      swap1\n      pop\n        /* \"#utility.yul\":4944:5405   */\n      swap3\n      swap2\n      pop\n      pop\n      jump\t// out\n        /* \"#utility.yul\":5411:5724   */\n    tag_12:\n        /* \"#utility.yul\":5524:5528   */\n      0x00\n        /* \"#utility.yul\":5562:5564   */\n      0x20\n        /* \"#utility.yul\":5551:5560   */\n      dup3\n        /* \"#utility.yul\":5547:5565   */\n      add\n        /* \"#utility.yul\":5539:5565   */\n      swap1\n      pop\n        /* \"#utility.yul\":5611:5620   */\n      dup2\n        /* \"#utility.yul\":5605:5609   */\n      dup2\n        /* \"#utility.yul\":5601:5621   */\n      sub\n        /* \"#utility.yul\":5597:5598   */\n      0x00\n        /* \"#utility.yul\":5586:5595   */\n      dup4\n        /* \"#utility.yul\":5582:5599   */\n      add\n        /* \"#utility.yul\":5575:5622   */\n      mstore\n        /* \"#utility.yul\":5639:5717   */\n      tag_176\n        /* \"#utility.yul\":5712:5716   */\n      dup2\n        /* \"#utility.yul\":5703:5709   */\n      dup5\n        /* \"#utility.yul\":5639:5717   */\n      tag_156\n      jump\t// in\n    tag_176:\n        /* \"#utility.yul\":5631:5717   */\n      swap1\n      pop\n        /* \"#utility.yul\":5411:5724   */\n      swap3\n      swap2\n      pop\n      pop\n      jump\t// out\n        /* \"#utility.yul\":5730:6153   */\n    tag_21:\n        /* \"#utility.yul\":5871:5875   */\n      0x00\n        /* \"#utility.yul\":5909:5911   */\n      0x40\n        /* \"#utility.yul\":5898:5907   */\n      dup3\n        /* \"#utility.yul\":5894:5912   */\n      add\n        /* \"#utility.yul\":5886:5912   */\n      swap1\n      pop\n        /* \"#utility.yul\":5922:5993   */\n      tag_178\n        /* \"#utility.yul\":5990:5991   */\n      0x00\n        /* \"#utility.yul\":5979:5988   */\n      dup4\n        /* \"#utility.yul\":5975:5992   */\n      add\n        /* \"#utility.yul\":5966:5972   */\n      dup6\n        /* \"#utility.yul\":5922:5993   */\n      tag_170\n      jump\t// in\n    tag_178:\n        /* \"#utility.yul\":6040:6049   */\n      dup2\n        /* \"#utility.yul\":6034:6038   */\n      dup2\n        /* \"#utility.yul\":6030:6050   */\n      sub\n        /* \"#utility.yul\":6025:6027   */\n      0x20\n        /* \"#utility.yul\":6014:6023   */\n      dup4\n        /* \"#utility.yul\":6010:6028   */\n      add\n        /* \"#utility.yul\":6003:6051   */\n      mstore\n        /* \"#utility.yul\":6068:6146   */\n      tag_179\n        /* \"#utility.yul\":6141:6145   */\n      dup2\n        /* \"#utility.yul\":6132:6138   */\n      dup5\n        /* \"#utility.yul\":6068:6146   */\n      tag_156\n      jump\t// in\n    tag_179:\n        /* \"#utility.yul\":6060:6146   */\n      swap1\n      pop\n        /* \"#utility.yul\":5730:6153   */\n      swap4\n      swap3\n      pop\n      pop\n      pop\n      jump\t// out\n        /* \"#utility.yul\":6159:6288   */\n    tag_99:\n        /* \"#utility.yul\":6193:6199   */\n      0x00\n        /* \"#utility.yul\":6220:6240   */\n      tag_181\n      tag_182\n      jump\t// in\n    tag_181:\n        /* \"#utility.yul\":6210:6240   */\n      swap1\n      pop\n        /* \"#utility.yul\":6249:6282   */\n      tag_183\n        /* \"#utility.yul\":6277:6281   */\n      dup3\n        /* \"#utility.yul\":6269:6275   */\n      dup3\n        /* \"#utility.yul\":6249:6282   */\n      tag_184\n      jump\t// in\n    tag_183:\n        /* \"#utility.yul\":6159:6288   */\n      swap2\n      swap1\n      pop\n      jump\t// out\n        /* \"#utility.yul\":6294:6369   */\n    tag_182:\n        /* \"#utility.yul\":6327:6333   */\n      0x00\n        /* \"#utility.yul\":6360:6362   */\n      0x40\n        /* \"#utility.yul\":6354:6363   */\n      mload\n        /* \"#utility.yul\":6344:6363   */\n      swap1\n      pop\n        /* \"#utility.yul\":6294:6369   */\n      swap1\n      jump\t// out\n        /* \"#utility.yul\":6375:6683   */\n    tag_98:\n        /* \"#utility.yul\":6437:6441   */\n      0x00\n        /* \"#utility.yul\":6527:6545   */\n      0xffffffffffffffff\n        /* \"#utility.yul\":6519:6525   */\n      dup3\n        /* \"#utility.yul\":6516:6546   */\n      gt\n        /* \"#utility.yul\":6513:6569   */\n      iszero\n      tag_187\n      jumpi\n        /* \"#utility.yul\":6549:6567   */\n      tag_188\n      tag_189\n      jump\t// in\n    tag_188:\n        /* \"#utility.yul\":6513:6569   */\n    tag_187:\n        /* \"#utility.yul\":6587:6616   */\n      tag_190\n        /* \"#utility.yul\":6609:6615   */\n      dup3\n        /* \"#utility.yul\":6587:6616   */\n      tag_155\n      jump\t// in\n    tag_190:\n        /* \"#utility.yul\":6579:6616   */\n      swap1\n      pop\n        /* \"#utility.yul\":6671:6675   */\n      0x20\n        /* \"#utility.yul\":6665:6669   */\n      dup2\n        /* \"#utility.yul\":6661:6676   */\n      add\n        /* \"#utility.yul\":6653:6676   */\n      swap1\n      pop\n        /* \"#utility.yul\":6375:6683   */\n      swap2\n      swap1\n      pop\n      jump\t// out\n        /* \"#utility.yul\":6689:6843   */\n    tag_139:\n        /* \"#utility.yul\":6778:6782   */\n      0x00\n        /* \"#utility.yul\":6801:6804   */\n      dup2\n        /* \"#utility.yul\":6793:6804   */\n      swap1\n      pop\n        /* \"#utility.yul\":6831:6835   */\n      0x20\n        /* \"#utility.yul\":6826:6829   */\n      dup3\n        /* \"#utility.yul\":6822:6836   */\n      add\n        /* \"#utility.yul\":6814:6836   */\n      swap1\n      pop\n        /* \"#utility.yul\":6689:6843   */\n      swap2\n      swap1\n      pop\n      jump\t// out\n        /* \"#utility.yul\":6849:6985   */\n    tag_135:\n        /* \"#utility.yul\":6938:6944   */\n      0x00\n        /* \"#utility.yul\":6972:6977   */\n      dup2\n        /* \"#utility.yul\":6966:6978   */\n      mload\n        /* \"#utility.yul\":6956:6978   */\n      swap1\n      pop\n        /* \"#utility.yul\":6849:6985   */\n      swap2\n      swap1\n      pop\n      jump\t// out\n        /* \"#utility.yul\":6991:7090   */\n    tag_149:\n        /* \"#utility.yul\":7043:7049   */\n      0x00\n        /* \"#utility.yul\":7077:7082   */\n      dup2\n        /* \"#utility.yul\":7071:7083   */\n      mload\n        /* \"#utility.yul\":7061:7083   */\n      swap1\n      pop\n        /* \"#utility.yul\":6991:7090   */\n      swap2\n      swap1\n      pop\n      jump\t// out\n        /* \"#utility.yul\":7096:7231   */\n    tag_145:\n        /* \"#utility.yul\":7188:7192   */\n      0x00\n        /* \"#utility.yul\":7220:7224   */\n      0x20\n        /* \"#utility.yul\":7215:7218   */\n      dup3\n        /* \"#utility.yul\":7211:7225   */\n      add\n        /* \"#utility.yul\":7203:7225   */\n      swap1\n      pop\n        /* \"#utility.yul\":7096:7231   */\n      swap2\n      swap1\n      pop\n      jump\t// out\n        /* \"#utility.yul\":7237:7443   */\n    tag_137:\n        /* \"#utility.yul\":7358:7369   */\n      0x00\n        /* \"#utility.yul\":7392:7398   */\n      dup3\n        /* \"#utility.yul\":7387:7390   */\n      dup3\n        /* \"#utility.yul\":7380:7399   */\n      mstore\n        /* \"#utility.yul\":7432:7436   */\n      0x20\n        /* \"#utility.yul\":7427:7430   */\n      dup3\n        /* \"#utility.yul\":7423:7437   */\n      add\n        /* \"#utility.yul\":7408:7437   */\n      swap1\n      pop\n        /* \"#utility.yul\":7237:7443   */\n      swap3\n      swap2\n      pop\n      pop\n      jump\t// out\n        /* \"#utility.yul\":7449:7608   */\n    tag_151:\n        /* \"#utility.yul\":7523:7534   */\n      0x00\n        /* \"#utility.yul\":7557:7563   */\n      dup3\n        /* \"#utility.yul\":7552:7555   */\n      dup3\n        /* \"#utility.yul\":7545:7564   */\n      mstore\n        /* \"#utility.yul\":7597:7601   */\n      0x20\n        /* \"#utility.yul\":7592:7595   */\n      dup3\n        /* \"#utility.yul\":7588:7602   */\n      add\n        /* \"#utility.yul\":7573:7602   */\n      swap1\n      pop\n        /* \"#utility.yul\":7449:7608   */\n      swap3\n      swap2\n      pop\n      pop\n      jump\t// out\n        /* \"#utility.yul\":7614:7783   */\n    tag_160:\n        /* \"#utility.yul\":7698:7709   */\n      0x00\n        /* \"#utility.yul\":7732:7738   */\n      dup3\n        /* \"#utility.yul\":7727:7730   */\n      dup3\n        /* \"#utility.yul\":7720:7739   */\n      mstore\n        /* \"#utility.yul\":7772:7776   */\n      0x20\n        /* \"#utility.yul\":7767:7770   */\n      dup3\n        /* \"#utility.yul\":7763:7777   */\n      add\n        /* \"#utility.yul\":7748:7777   */\n      swap1\n      pop\n        /* \"#utility.yul\":7614:7783   */\n      swap3\n      swap2\n      pop\n      pop\n      jump\t// out\n        /* \"#utility.yul\":7789:7866   */\n    tag_169:\n        /* \"#utility.yul\":7826:7833   */\n      0x00\n        /* \"#utility.yul\":7855:7860   */\n      dup2\n        /* \"#utility.yul\":7844:7860   */\n      swap1\n      pop\n        /* \"#utility.yul\":7789:7866   */\n      swap2\n      swap1\n      pop\n      jump\t// out\n        /* \"#utility.yul\":7872:8026   */\n    tag_104:\n        /* \"#utility.yul\":7956:7962   */\n      dup3\n        /* \"#utility.yul\":7951:7954   */\n      dup2\n        /* \"#utility.yul\":7946:7949   */\n      dup4\n        /* \"#utility.yul\":7933:7963   */\n      calldatacopy\n        /* \"#utility.yul\":8018:8019   */\n      0x00\n        /* \"#utility.yul\":8009:8015   */\n      dup4\n        /* \"#utility.yul\":8004:8007   */\n      dup4\n        /* \"#utility.yul\":8000:8016   */\n      add\n        /* \"#utility.yul\":7993:8020   */\n      mstore\n        /* \"#utility.yul\":7872:8026   */\n      pop\n      pop\n      pop\n      jump\t// out\n        /* \"#utility.yul\":8032:8339   */\n    tag_153:\n        /* \"#utility.yul\":8100:8101   */\n      0x00\n        /* \"#utility.yul\":8110:8223   */\n    tag_201:\n        /* \"#utility.yul\":8124:8130   */\n      dup4\n        /* \"#utility.yul\":8121:8122   */\n      dup2\n        /* \"#utility.yul\":8118:8131   */\n      lt\n        /* \"#utility.yul\":8110:8223   */\n      iszero\n      tag_203\n      jumpi\n        /* \"#utility.yul\":8209:8210   */\n      dup1\n        /* \"#utility.yul\":8204:8207   */\n      dup3\n        /* \"#utility.yul\":8200:8211   */\n      add\n        /* \"#utility.yul\":8194:8212   */\n      mload\n        /* \"#utility.yul\":8190:8191   */\n      dup2\n        /* \"#utility.yul\":8185:8188   */\n      dup5\n        /* \"#utility.yul\":8181:8192   */\n      add\n        /* \"#utility.yul\":8174:8213   */\n      mstore\n        /* \"#utility.yul\":8146:8148   */\n      0x20\n        /* \"#utility.yul\":8143:8144   */\n      dup2\n        /* \"#utility.yul\":8139:8149   */\n      add\n        /* \"#utility.yul\":8134:8149   */\n      swap1\n      pop\n        /* \"#utility.yul\":8110:8223   */\n      jump(tag_201)\n    tag_203:\n        /* \"#utility.yul\":8241:8247   */\n      dup4\n        /* \"#utility.yul\":8238:8239   */\n      dup2\n        /* \"#utility.yul\":8235:8248   */\n      gt\n        /* \"#utility.yul\":8232:8333   */\n      iszero\n      tag_204\n      jumpi\n        /* \"#utility.yul\":8321:8322   */\n      0x00\n        /* \"#utility.yul\":8312:8318   */\n      dup5\n        /* \"#utility.yul\":8307:8310   */\n      dup5\n        /* \"#utility.yul\":8303:8319   */\n      add\n        /* \"#utility.yul\":8296:8323   */\n      mstore\n        /* \"#utility.yul\":8232:8333   */\n    tag_204:\n        /* \"#utility.yul\":8081:8339   */\n      pop\n        /* \"#utility.yul\":8032:8339   */\n      pop\n      pop\n      pop\n      jump\t// out\n        /* \"#utility.yul\":8345:8665   */\n    tag_32:\n        /* \"#utility.yul\":8389:8395   */\n      0x00\n        /* \"#utility.yul\":8426:8427   */\n      0x02\n        /* \"#utility.yul\":8420:8424   */\n      dup3\n        /* \"#utility.yul\":8416:8428   */\n      div\n        /* \"#utility.yul\":8406:8428   */\n      swap1\n      pop\n        /* \"#utility.yul\":8473:8474   */\n      0x01\n        /* \"#utility.yul\":8467:8471   */\n      dup3\n        /* \"#utility.yul\":8463:8475   */\n      and\n        /* \"#utility.yul\":8494:8512   */\n      dup1\n        /* \"#utility.yul\":8484:8565   */\n      tag_206\n      jumpi\n        /* \"#utility.yul\":8550:8554   */\n      0x7f\n        /* \"#utility.yul\":8542:8548   */\n      dup3\n        /* \"#utility.yul\":8538:8555   */\n      and\n        /* \"#utility.yul\":8528:8555   */\n      swap2\n      pop\n        /* \"#utility.yul\":8484:8565   */\n    tag_206:\n        /* \"#utility.yul\":8612:8614   */\n      0x20\n        /* \"#utility.yul\":8604:8610   */\n      dup3\n        /* \"#utility.yul\":8601:8615   */\n      lt\n        /* \"#utility.yul\":8581:8599   */\n      dup2\n        /* \"#utility.yul\":8578:8616   */\n      eq\n        /* \"#utility.yul\":8575:8659   */\n      iszero\n      tag_207\n      jumpi\n        /* \"#utility.yul\":8631:8649   */\n      tag_208\n      tag_209\n      jump\t// in\n    tag_208:\n        /* \"#utility.yul\":8575:8659   */\n    tag_207:\n        /* \"#utility.yul\":8396:8665   */\n      pop\n        /* \"#utility.yul\":8345:8665   */\n      swap2\n      swap1\n      pop\n      jump\t// out\n        /* \"#utility.yul\":8671:8952   */\n    tag_184:\n        /* \"#utility.yul\":8754:8781   */\n      tag_211\n        /* \"#utility.yul\":8776:8780   */\n      dup3\n        /* \"#utility.yul\":8754:8781   */\n      tag_155\n      jump\t// in\n    tag_211:\n        /* \"#utility.yul\":8746:8752   */\n      dup2\n        /* \"#utility.yul\":8742:8782   */\n      add\n        /* \"#utility.yul\":8884:8890   */\n      dup2\n        /* \"#utility.yul\":8872:8882   */\n      dup2\n        /* \"#utility.yul\":8869:8891   */\n      lt\n        /* \"#utility.yul\":8848:8866   */\n      0xffffffffffffffff\n        /* \"#utility.yul\":8836:8846   */\n      dup3\n        /* \"#utility.yul\":8833:8867   */\n      gt\n        /* \"#utility.yul\":8830:8892   */\n      or\n        /* \"#utility.yul\":8827:8915   */\n      iszero\n      tag_212\n      jumpi\n        /* \"#utility.yul\":8895:8913   */\n      tag_213\n      tag_189\n      jump\t// in\n    tag_213:\n        /* \"#utility.yul\":8827:8915   */\n    tag_212:\n        /* \"#utility.yul\":8935:8945   */\n      dup1\n        /* \"#utility.yul\":8931:8933   */\n      0x40\n        /* \"#utility.yul\":8924:8946   */\n      mstore\n        /* \"#utility.yul\":8714:8952   */\n      pop\n        /* \"#utility.yul\":8671:8952   */\n      pop\n      pop\n      jump\t// out\n        /* \"#utility.yul\":8958:9138   */\n    tag_209:\n        /* \"#utility.yul\":9006:9083   */\n      0x4e487b7100000000000000000000000000000000000000000000000000000000\n        /* \"#utility.yul\":9003:9004   */\n      0x00\n        /* \"#utility.yul\":8996:9084   */\n      mstore\n        /* \"#utility.yul\":9103:9107   */\n      0x22\n        /* \"#utility.yul\":9100:9101   */\n      0x04\n        /* \"#utility.yul\":9093:9108   */\n      mstore\n        /* \"#utility.yul\":9127:9131   */\n      0x24\n        /* \"#utility.yul\":9124:9125   */\n      0x00\n        /* \"#utility.yul\":9117:9132   */\n      revert\n        /* \"#utility.yul\":9144:9324   */\n    tag_29:\n        /* \"#utility.yul\":9192:9269   */\n      0x4e487b7100000000000000000000000000000000000000000000000000000000\n        /* \"#utility.yul\":9189:9190   */\n      0x00\n        /* \"#utility.yul\":9182:9270   */\n      mstore\n        /* \"#utility.yul\":9289:9293   */\n      0x32\n        /* \"#utility.yul\":9286:9287   */\n      0x04\n        /* \"#utility.yul\":9279:9294   */\n      mstore\n        /* \"#utility.yul\":9313:9317   */\n      0x24\n        /* \"#utility.yul\":9310:9311   */\n      0x00\n        /* \"#utility.yul\":9303:9318   */\n      revert\n        /* \"#utility.yul\":9330:9510   */\n    tag_189:\n        /* \"#utility.yul\":9378:9455   */\n      0x4e487b7100000000000000000000000000000000000000000000000000000000\n        /* \"#utility.yul\":9375:9376   */\n      0x00\n        /* \"#utility.yul\":9368:9456   */\n      mstore\n        /* \"#utility.yul\":9475:9479   */\n      0x41\n        /* \"#utility.yul\":9472:9473   */\n      0x04\n        /* \"#utility.yul\":9465:9480   */\n      mstore\n        /* \"#utility.yul\":9499:9503   */\n      0x24\n        /* \"#utility.yul\":9496:9497   */\n      0x00\n        /* \"#utility.yul\":9489:9504   */\n      revert\n        /* \"#utility.yul\":9516:9633   */\n    tag_109:\n        /* \"#utility.yul\":9625:9626   */\n      0x00\n        /* \"#utility.yul\":9622:9623   */\n      dup1\n        /* \"#utility.yul\":9615:9627   */\n      revert\n        /* \"#utility.yul\":9639:9756   */\n    tag_102:\n        /* \"#utility.yul\":9748:9749   */\n      0x00\n        /* \"#utility.yul\":9745:9746   */\n      dup1\n        /* \"#utility.yul\":9738:9750   */\n      revert\n        /* \"#utility.yul\":9762:9879   */\n    tag_126:\n        /* \"#utility.yul\":9871:9872   */\n      0x00\n        /* \"#utility.yul\":9868:9869   */\n      dup1\n        /* \"#utility.yul\":9861:9873   */\n      revert\n        /* \"#utility.yul\":9885:10002   */\n    tag_118:\n        /* \"#utility.yul\":9994:9995   */\n      0x00\n        /* \"#utility.yul\":9991:9992   */\n      dup1\n        /* \"#utility.yul\":9984:9996   */\n      revert\n        /* \"#utility.yul\":10008:10110   */\n    tag_155:\n        /* \"#utility.yul\":10049:10055   */\n      0x00\n        /* \"#utility.yul\":10100:10102   */\n      0x1f\n        /* \"#utility.yul\":10096:10103   */\n      not\n        /* \"#utility.yul\":10091:10093   */\n      0x1f\n        /* \"#utility.yul\":10084:10089   */\n      dup4\n        /* \"#utility.yul\":10080:10094   */\n      add\n        /* \"#utility.yul\":10076:10104   */\n      and\n        /* \"#utility.yul\":10066:10104   */\n      swap1\n      pop\n        /* \"#utility.yul\":10008:10110   */\n      swap2\n      swap1\n      pop\n      jump\t// out\n        /* \"#utility.yul\":10116:10238   */\n    tag_114:\n        /* \"#utility.yul\":10189:10213   */\n      tag_223\n        /* \"#utility.yul\":10207:10212   */\n      dup2\n        /* \"#utility.yul\":10189:10213   */\n      tag_169\n      jump\t// in\n    tag_223:\n        /* \"#utility.yul\":10182:10187   */\n      dup2\n        /* \"#utility.yul\":10179:10214   */\n      eq\n        /* \"#utility.yul\":10169:10232   */\n      tag_224\n      jumpi\n        /* \"#utility.yul\":10228:10229   */\n      0x00\n        /* \"#utility.yul\":10225:10226   */\n      dup1\n        /* \"#utility.yul\":10218:10230   */\n      revert\n        /* \"#utility.yul\":10169:10232   */\n    tag_224:\n        /* \"#utility.yul\":10116:10238   */\n      pop\n      jump\t// out\n\n    auxdata: 0xa26469706673582212202fd60a6ff205ee15010b4c948c9c5f088b04b4997c205f5e764c0dd3aa4860ab64736f6c63430008070033\n}\n",
				"bytecode": {
					"linkReferences": {},
					"object": "608060405234801561001057600080fd5b50610bf0806100206000396000f3fe608060405234801561001057600080fd5b506004361061004c5760003560e01c806361a41c081461005157806382e76b8814610081578063bc8bc2b41461009f578063c1da2020146100d0575b600080fd5b61006b60048036038101906100669190610733565b6100ec565b6040516100789190610934565b60405180910390f35b6100896101a3565b6040516100969190610912565b60405180910390f35b6100b960048036038101906100b49190610733565b6102db565b6040516100c7929190610956565b60405180910390f35b6100ea60048036038101906100e59190610760565b610397565b005b60606000828154811061010257610101610b20565b5b9060005260206000209060020201600101805461011e90610a8e565b80601f016020809104026020016040519081016040528092919081815260200182805461014a90610a8e565b80156101975780601f1061016c57610100808354040283529160200191610197565b820191906000526020600020905b81548152906001019060200180831161017a57829003601f168201915b50505050509050919050565b6060600160003373ffffffffffffffffffffffffffffffffffffffff1673ffffffffffffffffffffffffffffffffffffffff168152602001908152602001600020805480602002602001604051908101604052809291908181526020016000905b828210156102d257838290600052602060002090600202016040518060400160405290816000820154815260200160018201805461024190610a8e565b80601f016020809104026020016040519081016040528092919081815260200182805461026d90610a8e565b80156102ba5780601f1061028f576101008083540402835291602001916102ba565b820191906000526020600020905b81548152906001019060200180831161029d57829003601f168201915b50505050508152505081526020019060010190610204565b50505050905090565b600081815481106102eb57600080fd5b906000526020600020906002020160009150905080600001549080600101805461031490610a8e565b80601f016020809104026020016040519081016040528092919081815260200182805461034090610a8e565b801561038d5780601f106103625761010080835404028352916020019161038d565b820191906000526020600020905b81548152906001019060200180831161037057829003601f168201915b5050505050905082565b600060405180604001604052808481526020018381525090806001815401808255809150506001900390600052602060002090600202016000909190919091506000820151816000015560208201518160010190805190602001906103fd92919061048d565b5050506000600160003373ffffffffffffffffffffffffffffffffffffffff1673ffffffffffffffffffffffffffffffffffffffff16815260200190815260200160002090805461044f929190610513565b507f3c981eaf8f806637941d1237961055d66e8636b71bc453db0c9e245a154760fd8282604051610481929190610956565b60405180910390a15050565b82805461049990610a8e565b90600052602060002090601f0160209004810192826104bb5760008555610502565b82601f106104d457805160ff1916838001178555610502565b82800160010185558215610502579182015b828111156105015782518255916020019190600101906104e6565b5b50905061050f9190610595565b5090565b8280548282559060005260206000209060020281019282156105845760005260206000209160020282015b8281111561058357828260008201548160000155600182018160010190805461056690610a8e565b6105719291906105b2565b5050509160020191906002019061053e565b5b509050610591919061063f565b5090565b5b808211156105ae576000816000905550600101610596565b5090565b8280546105be90610a8e565b90600052602060002090601f0160209004810192826105e0576000855561062e565b82601f106105f1578054855561062e565b8280016001018555821561062e57600052602060002091601f016020900482015b8281111561062d578254825591600101919060010190610612565b5b50905061063b9190610595565b5090565b5b8082111561066a57600080820160009055600182016000610661919061066e565b50600201610640565b5090565b50805461067a90610a8e565b6000825580601f1061068c57506106ab565b601f0160209004906000526020600020908101906106aa9190610595565b5b50565b60006106c16106bc846109ab565b610986565b9050828152602081018484840111156106dd576106dc610b83565b5b6106e8848285610a4c565b509392505050565b600082601f83011261070557610704610b7e565b5b81356107158482602086016106ae565b91505092915050565b60008135905061072d81610ba3565b92915050565b60006020828403121561074957610748610b8d565b5b60006107578482850161071e565b91505092915050565b6000806040838503121561077757610776610b8d565b5b60006107858582860161071e565b925050602083013567ffffffffffffffff8111156107a6576107a5610b88565b5b6107b2858286016106f0565b9150509250929050565b60006107c883836108b7565b905092915050565b60006107db826109ec565b6107e58185610a0f565b9350836020820285016107f7856109dc565b8060005b85811015610833578484038952815161081485826107bc565b945061081f83610a02565b925060208a019950506001810190506107fb565b50829750879550505050505092915050565b6000610850826109f7565b61085a8185610a20565b935061086a818560208601610a5b565b61087381610b92565b840191505092915050565b6000610889826109f7565b6108938185610a31565b93506108a3818560208601610a5b565b6108ac81610b92565b840191505092915050565b60006040830160008301516108cf60008601826108f4565b50602083015184820360208601526108e78282610845565b9150508091505092915050565b6108fd81610a42565b82525050565b61090c81610a42565b82525050565b6000602082019050818103600083015261092c81846107d0565b905092915050565b6000602082019050818103600083015261094e818461087e565b905092915050565b600060408201905061096b6000830185610903565b818103602083015261097d818461087e565b90509392505050565b60006109906109a1565b905061099c8282610ac0565b919050565b6000604051905090565b600067ffffffffffffffff8211156109c6576109c5610b4f565b5b6109cf82610b92565b9050602081019050919050565b6000819050602082019050919050565b600081519050919050565b600081519050919050565b6000602082019050919050565b600082825260208201905092915050565b600082825260208201905092915050565b600082825260208201905092915050565b6000819050919050565b82818337600083830152505050565b60005b83811015610a79578082015181840152602081019050610a5e565b83811115610a88576000848401525b50505050565b60006002820490506001821680610aa657607f821691505b60208210811415610aba57610ab9610af1565b5b50919050565b610ac982610b92565b810181811067ffffffffffffffff82111715610ae857610ae7610b4f565b5b80604052505050565b7f4e487b7100000000000000000000000000000000000000000000000000000000600052602260045260246000fd5b7f4e487b7100000000000000000000000000000000000000000000000000000000600052603260045260246000fd5b7f4e487b7100000000000000000000000000000000000000000000000000000000600052604160045260246000fd5b600080fd5b600080fd5b600080fd5b600080fd5b6000601f19601f8301169050919050565b610bac81610a42565b8114610bb757600080fd5b5056fea26469706673582212202fd60a6ff205ee15010b4c948c9c5f088b04b4997c205f5e764c0dd3aa4860ab64736f6c63430008070033",
					"opcodes": "PUSH1 0x80 PUSH1 0x40 MSTORE CALLVALUE DUP1 ISZERO PUSH2 0x10 JUMPI PUSH1 0x0 DUP1 REVERT JUMPDEST POP PUSH2 0xBF0 DUP1 PUSH2 0x20 PUSH1 0x0 CODECOPY PUSH1 0x0 RETURN INVALID PUSH1 0x80 PUSH1 0x40 MSTORE CALLVALUE DUP1 ISZERO PUSH2 0x10 JUMPI PUSH1 0x0 DUP1 REVERT JUMPDEST POP PUSH1 0x4 CALLDATASIZE LT PUSH2 0x4C JUMPI PUSH1 0x0 CALLDATALOAD PUSH1 0xE0 SHR DUP1 PUSH4 0x61A41C08 EQ PUSH2 0x51 JUMPI DUP1 PUSH4 0x82E76B88 EQ PUSH2 0x81 JUMPI DUP1 PUSH4 0xBC8BC2B4 EQ PUSH2 0x9F JUMPI DUP1 PUSH4 0xC1DA2020 EQ PUSH2 0xD0 JUMPI JUMPDEST PUSH1 0x0 DUP1 REVERT JUMPDEST PUSH2 0x6B PUSH1 0x4 DUP1 CALLDATASIZE SUB DUP2 ADD SWAP1 PUSH2 0x66 SWAP2 SWAP1 PUSH2 0x733 JUMP JUMPDEST PUSH2 0xEC JUMP JUMPDEST PUSH1 0x40 MLOAD PUSH2 0x78 SWAP2 SWAP1 PUSH2 0x934 JUMP JUMPDEST PUSH1 0x40 MLOAD DUP1 SWAP2 SUB SWAP1 RETURN JUMPDEST PUSH2 0x89 PUSH2 0x1A3 JUMP JUMPDEST PUSH1 0x40 MLOAD PUSH2 0x96 SWAP2 SWAP1 PUSH2 0x912 JUMP JUMPDEST PUSH1 0x40 MLOAD DUP1 SWAP2 SUB SWAP1 RETURN JUMPDEST PUSH2 0xB9 PUSH1 0x4 DUP1 CALLDATASIZE SUB DUP2 ADD SWAP1 PUSH2 0xB4 SWAP2 SWAP1 PUSH2 0x733 JUMP JUMPDEST PUSH2 0x2DB JUMP JUMPDEST PUSH1 0x40 MLOAD PUSH2 0xC7 SWAP3 SWAP2 SWAP1 PUSH2 0x956 JUMP JUMPDEST PUSH1 0x40 MLOAD DUP1 SWAP2 SUB SWAP1 RETURN JUMPDEST PUSH2 0xEA PUSH1 0x4 DUP1 CALLDATASIZE SUB DUP2 ADD SWAP1 PUSH2 0xE5 SWAP2 SWAP1 PUSH2 0x760 JUMP JUMPDEST PUSH2 0x397 JUMP JUMPDEST STOP JUMPDEST PUSH1 0x60 PUSH1 0x0 DUP3 DUP2 SLOAD DUP2 LT PUSH2 0x102 JUMPI PUSH2 0x101 PUSH2 0xB20 JUMP JUMPDEST JUMPDEST SWAP1 PUSH1 0x0 MSTORE PUSH1 0x20 PUSH1 0x0 KECCAK256 SWAP1 PUSH1 0x2 MUL ADD PUSH1 0x1 ADD DUP1 SLOAD PUSH2 0x11E SWAP1 PUSH2 0xA8E JUMP JUMPDEST DUP1 PUSH1 0x1F ADD PUSH1 0x20 DUP1 SWAP2 DIV MUL PUSH1 0x20 ADD PUSH1 0x40 MLOAD SWAP1 DUP2 ADD PUSH1 0x40 MSTORE DUP1 SWAP3 SWAP2 SWAP1 DUP2 DUP2 MSTORE PUSH1 0x20 ADD DUP3 DUP1 SLOAD PUSH2 0x14A SWAP1 PUSH2 0xA8E JUMP JUMPDEST DUP1 ISZERO PUSH2 0x197 JUMPI DUP1 PUSH1 0x1F LT PUSH2 0x16C JUMPI PUSH2 0x100 DUP1 DUP4 SLOAD DIV MUL DUP4 MSTORE SWAP2 PUSH1 0x20 ADD SWAP2 PUSH2 0x197 JUMP JUMPDEST DUP3 ADD SWAP2 SWAP1 PUSH1 0x0 MSTORE PUSH1 0x20 PUSH1 0x0 KECCAK256 SWAP1 JUMPDEST DUP2 SLOAD DUP2 MSTORE SWAP1 PUSH1 0x1 ADD SWAP1 PUSH1 0x20 ADD DUP1 DUP4 GT PUSH2 0x17A JUMPI DUP3 SWAP1 SUB PUSH1 0x1F AND DUP3 ADD SWAP2 JUMPDEST POP POP POP POP POP SWAP1 POP SWAP2 SWAP1 POP JUMP JUMPDEST PUSH1 0x60 PUSH1 0x1 PUSH1 0x0 CALLER PUSH20 0xFFFFFFFFFFFFFFFFFFFFFFFFFFFFFFFFFFFFFFFF AND PUSH20 0xFFFFFFFFFFFFFFFFFFFFFFFFFFFFFFFFFFFFFFFF AND DUP2 MSTORE PUSH1 0x20 ADD SWAP1 DUP2 MSTORE PUSH1 0x20 ADD PUSH1 0x0 KECCAK256 DUP1 SLOAD DUP1 PUSH1 0x20 MUL PUSH1 0x20 ADD PUSH1 0x40 MLOAD SWAP1 DUP2 ADD PUSH1 0x40 MSTORE DUP1 SWAP3 SWAP2 SWAP1 DUP2 DUP2 MSTORE PUSH1 0x20 ADD PUSH1 0x0 SWAP1 JUMPDEST DUP3 DUP3 LT ISZERO PUSH2 0x2D2 JUMPI DUP4 DUP3 SWAP1 PUSH1 0x0 MSTORE PUSH1 0x20 PUSH1 0x0 KECCAK256 SWAP1 PUSH1 0x2 MUL ADD PUSH1 0x40 MLOAD DUP1 PUSH1 0x40 ADD PUSH1 0x40 MSTORE SWAP1 DUP2 PUSH1 0x0 DUP3 ADD SLOAD DUP2 MSTORE PUSH1 0x20 ADD PUSH1 0x1 DUP3 ADD DUP1 SLOAD PUSH2 0x241 SWAP1 PUSH2 0xA8E JUMP JUMPDEST DUP1 PUSH1 0x1F ADD PUSH1 0x20 DUP1 SWAP2 DIV MUL PUSH1 0x20 ADD PUSH1 0x40 MLOAD SWAP1 DUP2 ADD PUSH1 0x40 MSTORE DUP1 SWAP3 SWAP2 SWAP1 DUP2 DUP2 MSTORE PUSH1 0x20 ADD DUP3 DUP1 SLOAD PUSH2 0x26D SWAP1 PUSH2 0xA8E JUMP JUMPDEST DUP1 ISZERO PUSH2 0x2BA JUMPI DUP1 PUSH1 0x1F LT PUSH2 0x28F JUMPI PUSH2 0x100 DUP1 DUP4 SLOAD DIV MUL DUP4 MSTORE SWAP2 PUSH1 0x20 ADD SWAP2 PUSH2 0x2BA JUMP JUMPDEST DUP3 ADD SWAP2 SWAP1 PUSH1 0x0 MSTORE PUSH1 0x20 PUSH1 0x0 KECCAK256 SWAP1 JUMPDEST DUP2 SLOAD DUP2 MSTORE SWAP1 PUSH1 0x1 ADD SWAP1 PUSH1 0x20 ADD DUP1 DUP4 GT PUSH2 0x29D JUMPI DUP3 SWAP1 SUB PUSH1 0x1F AND DUP3 ADD SWAP2 JUMPDEST POP POP POP POP POP DUP2 MSTORE POP POP DUP2 MSTORE PUSH1 0x20 ADD SWAP1 PUSH1 0x1 ADD SWAP1 PUSH2 0x204 JUMP JUMPDEST POP POP POP POP SWAP1 POP SWAP1 JUMP JUMPDEST PUSH1 0x0 DUP2 DUP2 SLOAD DUP2 LT PUSH2 0x2EB JUMPI PUSH1 0x0 DUP1 REVERT JUMPDEST SWAP1 PUSH1 0x0 MSTORE PUSH1 0x20 PUSH1 0x0 KECCAK256 SWAP1 PUSH1 0x2 MUL ADD PUSH1 0x0 SWAP2 POP SWAP1 POP DUP1 PUSH1 0x0 ADD SLOAD SWAP1 DUP1 PUSH1 0x1 ADD DUP1 SLOAD PUSH2 0x314 SWAP1 PUSH2 0xA8E JUMP JUMPDEST DUP1 PUSH1 0x1F ADD PUSH1 0x20 DUP1 SWAP2 DIV MUL PUSH1 0x20 ADD PUSH1 0x40 MLOAD SWAP1 DUP2 ADD PUSH1 0x40 MSTORE DUP1 SWAP3 SWAP2 SWAP1 DUP2 DUP2 MSTORE PUSH1 0x20 ADD DUP3 DUP1 SLOAD PUSH2 0x340 SWAP1 PUSH2 0xA8E JUMP JUMPDEST DUP1 ISZERO PUSH2 0x38D JUMPI DUP1 PUSH1 0x1F LT PUSH2 0x362 JUMPI PUSH2 0x100 DUP1 DUP4 SLOAD DIV MUL DUP4 MSTORE SWAP2 PUSH1 0x20 ADD SWAP2 PUSH2 0x38D JUMP JUMPDEST DUP3 ADD SWAP2 SWAP1 PUSH1 0x0 MSTORE PUSH1 0x20 PUSH1 0x0 KECCAK256 SWAP1 JUMPDEST DUP2 SLOAD DUP2 MSTORE SWAP1 PUSH1 0x1 ADD SWAP1 PUSH1 0x20 ADD DUP1 DUP4 GT PUSH2 0x370 JUMPI DUP3 SWAP1 SUB PUSH1 0x1F AND DUP3 ADD SWAP2 JUMPDEST POP POP POP POP POP SWAP1 POP DUP3 JUMP JUMPDEST PUSH1 0x0 PUSH1 0x40 MLOAD DUP1 PUSH1 0x40 ADD PUSH1 0x40 MSTORE DUP1 DUP5 DUP2 MSTORE PUSH1 0x20 ADD DUP4 DUP2 MSTORE POP SWAP1 DUP1 PUSH1 0x1 DUP2 SLOAD ADD DUP1 DUP3 SSTORE DUP1 SWAP2 POP POP PUSH1 0x1 SWAP1 SUB SWAP1 PUSH1 0x0 MSTORE PUSH1 0x20 PUSH1 0x0 KECCAK256 SWAP1 PUSH1 0x2 MUL ADD PUSH1 0x0 SWAP1 SWAP2 SWAP1 SWAP2 SWAP1 SWAP2 POP PUSH1 0x0 DUP3 ADD MLOAD DUP2 PUSH1 0x0 ADD SSTORE PUSH1 0x20 DUP3 ADD MLOAD DUP2 PUSH1 0x1 ADD SWAP1 DUP1 MLOAD SWAP1 PUSH1 0x20 ADD SWAP1 PUSH2 0x3FD SWAP3 SWAP2 SWAP1 PUSH2 0x48D JUMP JUMPDEST POP POP POP PUSH1 0x0 PUSH1 0x1 PUSH1 0x0 CALLER PUSH20 0xFFFFFFFFFFFFFFFFFFFFFFFFFFFFFFFFFFFFFFFF AND PUSH20 0xFFFFFFFFFFFFFFFFFFFFFFFFFFFFFFFFFFFFFFFF AND DUP2 MSTORE PUSH1 0x20 ADD SWAP1 DUP2 MSTORE PUSH1 0x20 ADD PUSH1 0x0 KECCAK256 SWAP1 DUP1 SLOAD PUSH2 0x44F SWAP3 SWAP2 SWAP1 PUSH2 0x513 JUMP JUMPDEST POP PUSH32 0x3C981EAF8F806637941D1237961055D66E8636B71BC453DB0C9E245A154760FD DUP3 DUP3 PUSH1 0x40 MLOAD PUSH2 0x481 SWAP3 SWAP2 SWAP1 PUSH2 0x956 JUMP JUMPDEST PUSH1 0x40 MLOAD DUP1 SWAP2 SUB SWAP1 LOG1 POP POP JUMP JUMPDEST DUP3 DUP1 SLOAD PUSH2 0x499 SWAP1 PUSH2 0xA8E JUMP JUMPDEST SWAP1 PUSH1 0x0 MSTORE PUSH1 0x20 PUSH1 0x0 KECCAK256 SWAP1 PUSH1 0x1F ADD PUSH1 0x20 SWAP1 DIV DUP2 ADD SWAP3 DUP3 PUSH2 0x4BB JUMPI PUSH1 0x0 DUP6 SSTORE PUSH2 0x502 JUMP JUMPDEST DUP3 PUSH1 0x1F LT PUSH2 0x4D4 JUMPI DUP1 MLOAD PUSH1 0xFF NOT AND DUP4 DUP1 ADD OR DUP6 SSTORE PUSH2 0x502 JUMP JUMPDEST DUP3 DUP1 ADD PUSH1 0x1 ADD DUP6 SSTORE DUP3 ISZERO PUSH2 0x502 JUMPI SWAP2 DUP3 ADD JUMPDEST DUP3 DUP2 GT ISZERO PUSH2 0x501 JUMPI DUP3 MLOAD DUP3 SSTORE SWAP2 PUSH1 0x20 ADD SWAP2 SWAP1 PUSH1 0x1 ADD SWAP1 PUSH2 0x4E6 JUMP JUMPDEST JUMPDEST POP SWAP1 POP PUSH2 0x50F SWAP2 SWAP1 PUSH2 0x595 JUMP JUMPDEST POP SWAP1 JUMP JUMPDEST DUP3 DUP1 SLOAD DUP3 DUP3 SSTORE SWAP1 PUSH1 0x0 MSTORE PUSH1 0x20 PUSH1 0x0 KECCAK256 SWAP1 PUSH1 0x2 MUL DUP2 ADD SWAP3 DUP3 ISZERO PUSH2 0x584 JUMPI PUSH1 0x0 MSTORE PUSH1 0x20 PUSH1 0x0 KECCAK256 SWAP2 PUSH1 0x2 MUL DUP3 ADD JUMPDEST DUP3 DUP2 GT ISZERO PUSH2 0x583 JUMPI DUP3 DUP3 PUSH1 0x0 DUP3 ADD SLOAD DUP2 PUSH1 0x0 ADD SSTORE PUSH1 0x1 DUP3 ADD DUP2 PUSH1 0x1 ADD SWAP1 DUP1 SLOAD PUSH2 0x566 SWAP1 PUSH2 0xA8E JUMP JUMPDEST PUSH2 0x571 SWAP3 SWAP2 SWAP1 PUSH2 0x5B2 JUMP JUMPDEST POP POP POP SWAP2 PUSH1 0x2 ADD SWAP2 SWAP1 PUSH1 0x2 ADD SWAP1 PUSH2 0x53E JUMP JUMPDEST JUMPDEST POP SWAP1 POP PUSH2 0x591 SWAP2 SWAP1 PUSH2 0x63F JUMP JUMPDEST POP SWAP1 JUMP JUMPDEST JUMPDEST DUP1 DUP3 GT ISZERO PUSH2 0x5AE JUMPI PUSH1 0x0 DUP2 PUSH1 0x0 SWAP1 SSTORE POP PUSH1 0x1 ADD PUSH2 0x596 JUMP JUMPDEST POP SWAP1 JUMP JUMPDEST DUP3 DUP1 SLOAD PUSH2 0x5BE SWAP1 PUSH2 0xA8E JUMP JUMPDEST SWAP1 PUSH1 0x0 MSTORE PUSH1 0x20 PUSH1 0x0 KECCAK256 SWAP1 PUSH1 0x1F ADD PUSH1 0x20 SWAP1 DIV DUP2 ADD SWAP3 DUP3 PUSH2 0x5E0 JUMPI PUSH1 0x0 DUP6 SSTORE PUSH2 0x62E JUMP JUMPDEST DUP3 PUSH1 0x1F LT PUSH2 0x5F1 JUMPI DUP1 SLOAD DUP6 SSTORE PUSH2 0x62E JUMP JUMPDEST DUP3 DUP1 ADD PUSH1 0x1 ADD DUP6 SSTORE DUP3 ISZERO PUSH2 0x62E JUMPI PUSH1 0x0 MSTORE PUSH1 0x20 PUSH1 0x0 KECCAK256 SWAP2 PUSH1 0x1F ADD PUSH1 0x20 SWAP1 DIV DUP3 ADD JUMPDEST DUP3 DUP2 GT ISZERO PUSH2 0x62D JUMPI DUP3 SLOAD DUP3 SSTORE SWAP2 PUSH1 0x1 ADD SWAP2 SWAP1 PUSH1 0x1 ADD SWAP1 PUSH2 0x612 JUMP JUMPDEST JUMPDEST POP SWAP1 POP PUSH2 0x63B SWAP2 SWAP1 PUSH2 0x595 JUMP JUMPDEST POP SWAP1 JUMP JUMPDEST JUMPDEST DUP1 DUP3 GT ISZERO PUSH2 0x66A JUMPI PUSH1 0x0 DUP1 DUP3 ADD PUSH1 0x0 SWAP1 SSTORE PUSH1 0x1 DUP3 ADD PUSH1 0x0 PUSH2 0x661 SWAP2 SWAP1 PUSH2 0x66E JUMP JUMPDEST POP PUSH1 0x2 ADD PUSH2 0x640 JUMP JUMPDEST POP SWAP1 JUMP JUMPDEST POP DUP1 SLOAD PUSH2 0x67A SWAP1 PUSH2 0xA8E JUMP JUMPDEST PUSH1 0x0 DUP3 SSTORE DUP1 PUSH1 0x1F LT PUSH2 0x68C JUMPI POP PUSH2 0x6AB JUMP JUMPDEST PUSH1 0x1F ADD PUSH1 0x20 SWAP1 DIV SWAP1 PUSH1 0x0 MSTORE PUSH1 0x20 PUSH1 0x0 KECCAK256 SWAP1 DUP2 ADD SWAP1 PUSH2 0x6AA SWAP2 SWAP1 PUSH2 0x595 JUMP JUMPDEST JUMPDEST POP JUMP JUMPDEST PUSH1 0x0 PUSH2 0x6C1 PUSH2 0x6BC DUP5 PUSH2 0x9AB JUMP JUMPDEST PUSH2 0x986 JUMP JUMPDEST SWAP1 POP DUP3 DUP2 MSTORE PUSH1 0x20 DUP2 ADD DUP5 DUP5 DUP5 ADD GT ISZERO PUSH2 0x6DD JUMPI PUSH2 0x6DC PUSH2 0xB83 JUMP JUMPDEST JUMPDEST PUSH2 0x6E8 DUP5 DUP3 DUP6 PUSH2 0xA4C JUMP JUMPDEST POP SWAP4 SWAP3 POP POP POP JUMP JUMPDEST PUSH1 0x0 DUP3 PUSH1 0x1F DUP4 ADD SLT PUSH2 0x705 JUMPI PUSH2 0x704 PUSH2 0xB7E JUMP JUMPDEST JUMPDEST DUP2 CALLDATALOAD PUSH2 0x715 DUP5 DUP3 PUSH1 0x20 DUP7 ADD PUSH2 0x6AE JUMP JUMPDEST SWAP2 POP POP SWAP3 SWAP2 POP POP JUMP JUMPDEST PUSH1 0x0 DUP2 CALLDATALOAD SWAP1 POP PUSH2 0x72D DUP2 PUSH2 0xBA3 JUMP JUMPDEST SWAP3 SWAP2 POP POP JUMP JUMPDEST PUSH1 0x0 PUSH1 0x20 DUP3 DUP5 SUB SLT ISZERO PUSH2 0x749 JUMPI PUSH2 0x748 PUSH2 0xB8D JUMP JUMPDEST JUMPDEST PUSH1 0x0 PUSH2 0x757 DUP5 DUP3 DUP6 ADD PUSH2 0x71E JUMP JUMPDEST SWAP2 POP POP SWAP3 SWAP2 POP POP JUMP JUMPDEST PUSH1 0x0 DUP1 PUSH1 0x40 DUP4 DUP6 SUB SLT ISZERO PUSH2 0x777 JUMPI PUSH2 0x776 PUSH2 0xB8D JUMP JUMPDEST JUMPDEST PUSH1 0x0 PUSH2 0x785 DUP6 DUP3 DUP7 ADD PUSH2 0x71E JUMP JUMPDEST SWAP3 POP POP PUSH1 0x20 DUP4 ADD CALLDATALOAD PUSH8 0xFFFFFFFFFFFFFFFF DUP2 GT ISZERO PUSH2 0x7A6 JUMPI PUSH2 0x7A5 PUSH2 0xB88 JUMP JUMPDEST JUMPDEST PUSH2 0x7B2 DUP6 DUP3 DUP7 ADD PUSH2 0x6F0 JUMP JUMPDEST SWAP2 POP POP SWAP3 POP SWAP3 SWAP1 POP JUMP JUMPDEST PUSH1 0x0 PUSH2 0x7C8 DUP4 DUP4 PUSH2 0x8B7 JUMP JUMPDEST SWAP1 POP SWAP3 SWAP2 POP POP JUMP JUMPDEST PUSH1 0x0 PUSH2 0x7DB DUP3 PUSH2 0x9EC JUMP JUMPDEST PUSH2 0x7E5 DUP2 DUP6 PUSH2 0xA0F JUMP JUMPDEST SWAP4 POP DUP4 PUSH1 0x20 DUP3 MUL DUP6 ADD PUSH2 0x7F7 DUP6 PUSH2 0x9DC JUMP JUMPDEST DUP1 PUSH1 0x0 JUMPDEST DUP6 DUP2 LT ISZERO PUSH2 0x833 JUMPI DUP5 DUP5 SUB DUP10 MSTORE DUP2 MLOAD PUSH2 0x814 DUP6 DUP3 PUSH2 0x7BC JUMP JUMPDEST SWAP5 POP PUSH2 0x81F DUP4 PUSH2 0xA02 JUMP JUMPDEST SWAP3 POP PUSH1 0x20 DUP11 ADD SWAP10 POP POP PUSH1 0x1 DUP2 ADD SWAP1 POP PUSH2 0x7FB JUMP JUMPDEST POP DUP3 SWAP8 POP DUP8 SWAP6 POP POP POP POP POP POP SWAP3 SWAP2 POP POP JUMP JUMPDEST PUSH1 0x0 PUSH2 0x850 DUP3 PUSH2 0x9F7 JUMP JUMPDEST PUSH2 0x85A DUP2 DUP6 PUSH2 0xA20 JUMP JUMPDEST SWAP4 POP PUSH2 0x86A DUP2 DUP6 PUSH1 0x20 DUP7 ADD PUSH2 0xA5B JUMP JUMPDEST PUSH2 0x873 DUP2 PUSH2 0xB92 JUMP JUMPDEST DUP5 ADD SWAP2 POP POP SWAP3 SWAP2 POP POP JUMP JUMPDEST PUSH1 0x0 PUSH2 0x889 DUP3 PUSH2 0x9F7 JUMP JUMPDEST PUSH2 0x893 DUP2 DUP6 PUSH2 0xA31 JUMP JUMPDEST SWAP4 POP PUSH2 0x8A3 DUP2 DUP6 PUSH1 0x20 DUP7 ADD PUSH2 0xA5B JUMP JUMPDEST PUSH2 0x8AC DUP2 PUSH2 0xB92 JUMP JUMPDEST DUP5 ADD SWAP2 POP POP SWAP3 SWAP2 POP POP JUMP JUMPDEST PUSH1 0x0 PUSH1 0x40 DUP4 ADD PUSH1 0x0 DUP4 ADD MLOAD PUSH2 0x8CF PUSH1 0x0 DUP7 ADD DUP3 PUSH2 0x8F4 JUMP JUMPDEST POP PUSH1 0x20 DUP4 ADD MLOAD DUP5 DUP3 SUB PUSH1 0x20 DUP7 ADD MSTORE PUSH2 0x8E7 DUP3 DUP3 PUSH2 0x845 JUMP JUMPDEST SWAP2 POP POP DUP1 SWAP2 POP POP SWAP3 SWAP2 POP POP JUMP JUMPDEST PUSH2 0x8FD DUP2 PUSH2 0xA42 JUMP JUMPDEST DUP3 MSTORE POP POP JUMP JUMPDEST PUSH2 0x90C DUP2 PUSH2 0xA42 JUMP JUMPDEST DUP3 MSTORE POP POP JUMP JUMPDEST PUSH1 0x0 PUSH1 0x20 DUP3 ADD SWAP1 POP DUP2 DUP2 SUB PUSH1 0x0 DUP4 ADD MSTORE PUSH2 0x92C DUP2 DUP5 PUSH2 0x7D0 JUMP JUMPDEST SWAP1 POP SWAP3 SWAP2 POP POP JUMP JUMPDEST PUSH1 0x0 PUSH1 0x20 DUP3 ADD SWAP1 POP DUP2 DUP2 SUB PUSH1 0x0 DUP4 ADD MSTORE PUSH2 0x94E DUP2 DUP5 PUSH2 0x87E JUMP JUMPDEST SWAP1 POP SWAP3 SWAP2 POP POP JUMP JUMPDEST PUSH1 0x0 PUSH1 0x40 DUP3 ADD SWAP1 POP PUSH2 0x96B PUSH1 0x0 DUP4 ADD DUP6 PUSH2 0x903 JUMP JUMPDEST DUP2 DUP2 SUB PUSH1 0x20 DUP4 ADD MSTORE PUSH2 0x97D DUP2 DUP5 PUSH2 0x87E JUMP JUMPDEST SWAP1 POP SWAP4 SWAP3 POP POP POP JUMP JUMPDEST PUSH1 0x0 PUSH2 0x990 PUSH2 0x9A1 JUMP JUMPDEST SWAP1 POP PUSH2 0x99C DUP3 DUP3 PUSH2 0xAC0 JUMP JUMPDEST SWAP2 SWAP1 POP JUMP JUMPDEST PUSH1 0x0 PUSH1 0x40 MLOAD SWAP1 POP SWAP1 JUMP JUMPDEST PUSH1 0x0 PUSH8 0xFFFFFFFFFFFFFFFF DUP3 GT ISZERO PUSH2 0x9C6 JUMPI PUSH2 0x9C5 PUSH2 0xB4F JUMP JUMPDEST JUMPDEST PUSH2 0x9CF DUP3 PUSH2 0xB92 JUMP JUMPDEST SWAP1 POP PUSH1 0x20 DUP2 ADD SWAP1 POP SWAP2 SWAP1 POP JUMP JUMPDEST PUSH1 0x0 DUP2 SWAP1 POP PUSH1 0x20 DUP3 ADD SWAP1 POP SWAP2 SWAP1 POP JUMP JUMPDEST PUSH1 0x0 DUP2 MLOAD SWAP1 POP SWAP2 SWAP1 POP JUMP JUMPDEST PUSH1 0x0 DUP2 MLOAD SWAP1 POP SWAP2 SWAP1 POP JUMP JUMPDEST PUSH1 0x0 PUSH1 0x20 DUP3 ADD SWAP1 POP SWAP2 SWAP1 POP JUMP JUMPDEST PUSH1 0x0 DUP3 DUP3 MSTORE PUSH1 0x20 DUP3 ADD SWAP1 POP SWAP3 SWAP2 POP POP JUMP JUMPDEST PUSH1 0x0 DUP3 DUP3 MSTORE PUSH1 0x20 DUP3 ADD SWAP1 POP SWAP3 SWAP2 POP POP JUMP JUMPDEST PUSH1 0x0 DUP3 DUP3 MSTORE PUSH1 0x20 DUP3 ADD SWAP1 POP SWAP3 SWAP2 POP POP JUMP JUMPDEST PUSH1 0x0 DUP2 SWAP1 POP SWAP2 SWAP1 POP JUMP JUMPDEST DUP3 DUP2 DUP4 CALLDATACOPY PUSH1 0x0 DUP4 DUP4 ADD MSTORE POP POP POP JUMP JUMPDEST PUSH1 0x0 JUMPDEST DUP4 DUP2 LT ISZERO PUSH2 0xA79 JUMPI DUP1 DUP3 ADD MLOAD DUP2 DUP5 ADD MSTORE PUSH1 0x20 DUP2 ADD SWAP1 POP PUSH2 0xA5E JUMP JUMPDEST DUP4 DUP2 GT ISZERO PUSH2 0xA88 JUMPI PUSH1 0x0 DUP5 DUP5 ADD MSTORE JUMPDEST POP POP POP POP JUMP JUMPDEST PUSH1 0x0 PUSH1 0x2 DUP3 DIV SWAP1 POP PUSH1 0x1 DUP3 AND DUP1 PUSH2 0xAA6 JUMPI PUSH1 0x7F DUP3 AND SWAP2 POP JUMPDEST PUSH1 0x20 DUP3 LT DUP2 EQ ISZERO PUSH2 0xABA JUMPI PUSH2 0xAB9 PUSH2 0xAF1 JUMP JUMPDEST JUMPDEST POP SWAP2 SWAP1 POP JUMP JUMPDEST PUSH2 0xAC9 DUP3 PUSH2 0xB92 JUMP JUMPDEST DUP2 ADD DUP2 DUP2 LT PUSH8 0xFFFFFFFFFFFFFFFF DUP3 GT OR ISZERO PUSH2 0xAE8 JUMPI PUSH2 0xAE7 PUSH2 0xB4F JUMP JUMPDEST JUMPDEST DUP1 PUSH1 0x40 MSTORE POP POP POP JUMP JUMPDEST PUSH32 0x4E487B7100000000000000000000000000000000000000000000000000000000 PUSH1 0x0 MSTORE PUSH1 0x22 PUSH1 0x4 MSTORE PUSH1 0x24 PUSH1 0x0 REVERT JUMPDEST PUSH32 0x4E487B7100000000000000000000000000000000000000000000000000000000 PUSH1 0x0 MSTORE PUSH1 0x32 PUSH1 0x4 MSTORE PUSH1 0x24 PUSH1 0x0 REVERT JUMPDEST PUSH32 0x4E487B7100000000000000000000000000000000000000000000000000000000 PUSH1 0x0 MSTORE PUSH1 0x41 PUSH1 0x4 MSTORE PUSH1 0x24 PUSH1 0x0 REVERT JUMPDEST PUSH1 0x0 DUP1 REVERT JUMPDEST PUSH1 0x0 DUP1 REVERT JUMPDEST PUSH1 0x0 DUP1 REVERT JUMPDEST PUSH1 0x0 DUP1 REVERT JUMPDEST PUSH1 0x0 PUSH1 0x1F NOT PUSH1 0x1F DUP4 ADD AND SWAP1 POP SWAP2 SWAP1 POP JUMP JUMPDEST PUSH2 0xBAC DUP2 PUSH2 0xA42 JUMP JUMPDEST DUP2 EQ PUSH2 0xBB7 JUMPI PUSH1 0x0 DUP1 REVERT JUMPDEST POP JUMP INVALID LOG2 PUSH5 0x6970667358 0x22 SLT KECCAK256 0x2F 0xD6 EXP PUSH16 0xF205EE15010B4C948C9C5F088B04B499 PUSH29 0x205F5E764C0DD3AA4860AB64736F6C6343000807003300000000000000 "
				},
				"gasEstimates": {
					"creation": {
						"codeDepositCost": "611200",
						"executionCost": "645",
						"totalCost": "611845"
					},
					"external": {
						"addTodo(uint256,string)": "infinite",
						"showTodo()": "infinite",
						"todos(uint256)": "infinite",
						"updateTodo(uint256)": "infinite"
					}
				},
				"methodIdentifiers": {
					"addTodo(uint256,string)": "c1da2020",
					"showTodo()": "82e76b88",
					"todos(uint256)": "bc8bc2b4",
					"updateTodo(uint256)": "61a41c08"
				}
			},
			"storageLayout": {
				"storage": [
					{
						"astId": 16,
						"contract": "todomain.sol:TodoMain",
						"label": "todos",
						"offset": 0,
						"slot": "0",
						"type": "t_array(t_struct(TodoObj)6_storage)dyn_storage"
					},
					{
						"astId": 22,
						"contract": "todomain.sol:TodoMain",
						"label": "todoMap",
						"offset": 0,
						"slot": "1",
						"type": "t_mapping(t_address,t_array(t_struct(TodoObj)6_storage)dyn_storage)"
					}
				],
				"types": {
					"t_address": {
						"encoding": "inplace",
						"label": "address",
						"numberOfBytes": "20"
					},
					"t_array(t_struct(TodoObj)6_storage)dyn_storage": {
						"base": "t_struct(TodoObj)6_storage",
						"encoding": "dynamic_array",
						"label": "struct TodoMain.TodoObj[]",
						"numberOfBytes": "32"
					},
					"t_mapping(t_address,t_array(t_struct(TodoObj)6_storage)dyn_storage)": {
						"encoding": "mapping",
						"key": "t_address",
						"label": "mapping(address => struct TodoMain.TodoObj[])",
						"numberOfBytes": "32",
						"value": "t_array(t_struct(TodoObj)6_storage)dyn_storage"
					},
					"t_string_storage": {
						"encoding": "bytes",
						"label": "string",
						"numberOfBytes": "32"
					},
					"t_struct(TodoObj)6_storage": {
						"encoding": "inplace",
						"label": "struct TodoMain.TodoObj",
						"members": [
							{
								"astId": 3,
								"contract": "todomain.sol:TodoMain",
								"label": "id",
								"offset": 0,
								"slot": "0",
								"type": "t_uint256"
							},
							{
								"astId": 5,
								"contract": "todomain.sol:TodoMain",
								"label": "todoName",
								"offset": 0,
								"slot": "1",
								"type": "t_string_storage"
							}
						],
						"numberOfBytes": "64"
					},
					"t_uint256": {
						"encoding": "inplace",
						"label": "uint256",
						"numberOfBytes": "32"
					}
				}
			},
			"userdoc": {
				"kind": "user",
				"methods": {},
				"version": 1
			}
		}
	}
}