{
	"transictions.sol": {
		"Pay": {
			"abi": [
				{
					"inputs": [],
					"name": "getBalance",
					"outputs": [
						{
							"internalType": "uint256",
							"name": "",
							"type": "uint256"
						}
					],
					"stateMutability": "view",
					"type": "function"
				},
				{
					"inputs": [],
					"name": "payEther",
					"outputs": [],
					"stateMutability": "payable",
					"type": "function"
				},
				{
					"inputs": [],
					"name": "transferEther",
					"outputs": [],
					"stateMutability": "nonpayable",
					"type": "function"
				}
			],
			"devdoc": {
				"kind": "dev",
				"methods": {},
				"version": 1
			},
			"evm": {
				"assembly": "    /* \"transictions.sol\":66:397  contract Pay{\r... */\n  mstore(0x40, 0x80)\n    /* \"transictions.sol\":118:160  0x4f11D3f969874b38611ECc207175411cA7Def32A */\n  0x4f11d3f969874b38611ecc207175411ca7def32a\n    /* \"transictions.sol\":87:161  address payable user = payable(0x4f11D3f969874b38611ECc207175411cA7Def32A) */\n  0x00\n  dup1\n  0x0100\n  exp\n  dup2\n  sload\n  dup2\n  0xffffffffffffffffffffffffffffffffffffffff\n  mul\n  not\n  and\n  swap1\n  dup4\n  0xffffffffffffffffffffffffffffffffffffffff\n  and\n  mul\n  or\n  swap1\n  sstore\n  pop\n    /* \"transictions.sol\":66:397  contract Pay{\r... */\n  callvalue\n  dup1\n  iszero\n  tag_1\n  jumpi\n  0x00\n  dup1\n  revert\ntag_1:\n  pop\n  dataSize(sub_0)\n  dup1\n  dataOffset(sub_0)\n  0x00\n  codecopy\n  0x00\n  return\nstop\n\nsub_0: assembly {\n        /* \"transictions.sol\":66:397  contract Pay{\r... */\n      mstore(0x40, 0x80)\n      jumpi(tag_1, lt(calldatasize, 0x04))\n      shr(0xe0, calldataload(0x00))\n      dup1\n      0x12065fe0\n      eq\n      tag_2\n      jumpi\n      dup1\n      0xc9b25f0f\n      eq\n      tag_3\n      jumpi\n      dup1\n      0xf7474d00\n      eq\n      tag_4\n      jumpi\n    tag_1:\n      0x00\n      dup1\n      revert\n        /* \"transictions.sol\":220:314  function getBalance() public view returns(uint){\r... */\n    tag_2:\n      callvalue\n      dup1\n      iszero\n      tag_5\n      jumpi\n      0x00\n      dup1\n      revert\n    tag_5:\n      pop\n      tag_6\n      tag_7\n      jump\t// in\n    tag_6:\n      mload(0x40)\n      tag_8\n      swap2\n      swap1\n      tag_9\n      jump\t// in\n    tag_8:\n      mload(0x40)\n      dup1\n      swap2\n      sub\n      swap1\n      return\n        /* \"transictions.sol\":322:394  function transferEther() public{\r... */\n    tag_3:\n      callvalue\n      dup1\n      iszero\n      tag_10\n      jumpi\n      0x00\n      dup1\n      revert\n    tag_10:\n      pop\n      tag_11\n      tag_12\n      jump\t// in\n    tag_11:\n      stop\n        /* \"transictions.sol\":168:212  function payEther() public payable{\r... */\n    tag_4:\n      tag_13\n      tag_14\n      jump\t// in\n    tag_13:\n      stop\n        /* \"transictions.sol\":220:314  function getBalance() public view returns(uint){\r... */\n    tag_7:\n        /* \"transictions.sol\":262:266  uint */\n      0x00\n        /* \"transictions.sol\":285:306  address(this).balance */\n      selfbalance\n        /* \"transictions.sol\":278:306  return address(this).balance */\n      swap1\n      pop\n        /* \"transictions.sol\":220:314  function getBalance() public view returns(uint){\r... */\n      swap1\n      jump\t// out\n        /* \"transictions.sol\":322:394  function transferEther() public{\r... */\n    tag_12:\n        /* \"transictions.sol\":364:368  user */\n      0x00\n      dup1\n      sload\n      swap1\n      0x0100\n      exp\n      swap1\n      div\n      0xffffffffffffffffffffffffffffffffffffffff\n      and\n        /* \"transictions.sol\":364:377  user.transfer */\n      0xffffffffffffffffffffffffffffffffffffffff\n      and\n        /* \"transictions.sol\":364:386  user.transfer(1 ether) */\n      0x08fc\n        /* \"transictions.sol\":378:385  1 ether */\n      0x0de0b6b3a7640000\n        /* \"transictions.sol\":364:386  user.transfer(1 ether) */\n      swap1\n      dup2\n      iszero\n      mul\n      swap1\n      mload(0x40)\n      0x00\n      mload(0x40)\n      dup1\n      dup4\n      sub\n      dup2\n      dup6\n      dup9\n      dup9\n      call\n      swap4\n      pop\n      pop\n      pop\n      pop\n      iszero\n      dup1\n      iszero\n      tag_18\n      jumpi\n      returndatasize\n      0x00\n      dup1\n      returndatacopy\n      revert(0x00, returndatasize)\n    tag_18:\n      pop\n        /* \"transictions.sol\":322:394  function transferEther() public{\r... */\n      jump\t// out\n        /* \"transictions.sol\":168:212  function payEther() public payable{\r... */\n    tag_14:\n      jump\t// out\n        /* \"#utility.yul\":7:125   */\n    tag_21:\n        /* \"#utility.yul\":94:118   */\n      tag_23\n        /* \"#utility.yul\":112:117   */\n      dup2\n        /* \"#utility.yul\":94:118   */\n      tag_24\n      jump\t// in\n    tag_23:\n        /* \"#utility.yul\":89:92   */\n      dup3\n        /* \"#utility.yul\":82:119   */\n      mstore\n        /* \"#utility.yul\":7:125   */\n      pop\n      pop\n      jump\t// out\n        /* \"#utility.yul\":131:353   */\n    tag_9:\n        /* \"#utility.yul\":224:228   */\n      0x00\n        /* \"#utility.yul\":262:264   */\n      0x20\n        /* \"#utility.yul\":251:260   */\n      dup3\n        /* \"#utility.yul\":247:265   */\n      add\n        /* \"#utility.yul\":239:265   */\n      swap1\n      pop\n        /* \"#utility.yul\":275:346   */\n      tag_26\n        /* \"#utility.yul\":343:344   */\n      0x00\n        /* \"#utility.yul\":332:341   */\n      dup4\n        /* \"#utility.yul\":328:345   */\n      add\n        /* \"#utility.yul\":319:325   */\n      dup5\n        /* \"#utility.yul\":275:346   */\n      tag_21\n      jump\t// in\n    tag_26:\n        /* \"#utility.yul\":131:353   */\n      swap3\n      swap2\n      pop\n      pop\n      jump\t// out\n        /* \"#utility.yul\":359:436   */\n    tag_24:\n        /* \"#utility.yul\":396:403   */\n      0x00\n        /* \"#utility.yul\":425:430   */\n      dup2\n        /* \"#utility.yul\":414:430   */\n      swap1\n      pop\n        /* \"#utility.yul\":359:436   */\n      swap2\n      swap1\n      pop\n      jump\t// out\n\n    auxdata: 0xa2646970667358221220b7330ebb669ce78b24758e249501a94af46449fe9cd0ea015393625726267dc464736f6c63430008070033\n}\n",
				"bytecode": {
					"linkReferences": {},
					"object": "6080604052734f11d3f969874b38611ecc207175411ca7def32a6000806101000a81548173ffffffffffffffffffffffffffffffffffffffff021916908373ffffffffffffffffffffffffffffffffffffffff16021790555034801561006457600080fd5b5061016a806100746000396000f3fe6080604052600436106100345760003560e01c806312065fe014610039578063c9b25f0f14610064578063f7474d001461007b575b600080fd5b34801561004557600080fd5b5061004e610085565b60405161005b919061010f565b60405180910390f35b34801561007057600080fd5b5061007961008d565b005b6100836100fe565b005b600047905090565b60008054906101000a900473ffffffffffffffffffffffffffffffffffffffff1673ffffffffffffffffffffffffffffffffffffffff166108fc670de0b6b3a76400009081150290604051600060405180830381858888f193505050501580156100fb573d6000803e3d6000fd5b50565b565b6101098161012a565b82525050565b60006020820190506101246000830184610100565b92915050565b600081905091905056fea2646970667358221220b7330ebb669ce78b24758e249501a94af46449fe9cd0ea015393625726267dc464736f6c63430008070033",
					"opcodes": "PUSH1 0x80 PUSH1 0x40 MSTORE PUSH20 0x4F11D3F969874B38611ECC207175411CA7DEF32A PUSH1 0x0 DUP1 PUSH2 0x100 EXP DUP2 SLOAD DUP2 PUSH20 0xFFFFFFFFFFFFFFFFFFFFFFFFFFFFFFFFFFFFFFFF MUL NOT AND SWAP1 DUP4 PUSH20 0xFFFFFFFFFFFFFFFFFFFFFFFFFFFFFFFFFFFFFFFF AND MUL OR SWAP1 SSTORE POP CALLVALUE DUP1 ISZERO PUSH2 0x64 JUMPI PUSH1 0x0 DUP1 REVERT JUMPDEST POP PUSH2 0x16A DUP1 PUSH2 0x74 PUSH1 0x0 CODECOPY PUSH1 0x0 RETURN INVALID PUSH1 0x80 PUSH1 0x40 MSTORE PUSH1 0x4 CALLDATASIZE LT PUSH2 0x34 JUMPI PUSH1 0x0 CALLDATALOAD PUSH1 0xE0 SHR DUP1 PUSH4 0x12065FE0 EQ PUSH2 0x39 JUMPI DUP1 PUSH4 0xC9B25F0F EQ PUSH2 0x64 JUMPI DUP1 PUSH4 0xF7474D00 EQ PUSH2 0x7B JUMPI JUMPDEST PUSH1 0x0 DUP1 REVERT JUMPDEST CALLVALUE DUP1 ISZERO PUSH2 0x45 JUMPI PUSH1 0x0 DUP1 REVERT JUMPDEST POP PUSH2 0x4E PUSH2 0x85 JUMP JUMPDEST PUSH1 0x40 MLOAD PUSH2 0x5B SWAP2 SWAP1 PUSH2 0x10F JUMP JUMPDEST PUSH1 0x40 MLOAD DUP1 SWAP2 SUB SWAP1 RETURN JUMPDEST CALLVALUE DUP1 ISZERO PUSH2 0x70 JUMPI PUSH1 0x0 DUP1 REVERT JUMPDEST POP PUSH2 0x79 PUSH2 0x8D JUMP JUMPDEST STOP JUMPDEST PUSH2 0x83 PUSH2 0xFE JUMP JUMPDEST STOP JUMPDEST PUSH1 0x0 SELFBALANCE SWAP1 POP SWAP1 JUMP JUMPDEST PUSH1 0x0 DUP1 SLOAD SWAP1 PUSH2 0x100 EXP SWAP1 DIV PUSH20 0xFFFFFFFFFFFFFFFFFFFFFFFFFFFFFFFFFFFFFFFF AND PUSH20 0xFFFFFFFFFFFFFFFFFFFFFFFFFFFFFFFFFFFFFFFF AND PUSH2 0x8FC PUSH8 0xDE0B6B3A7640000 SWAP1 DUP2 ISZERO MUL SWAP1 PUSH1 0x40 MLOAD PUSH1 0x0 PUSH1 0x40 MLOAD DUP1 DUP4 SUB DUP2 DUP6 DUP9 DUP9 CALL SWAP4 POP POP POP POP ISZERO DUP1 ISZERO PUSH2 0xFB JUMPI RETURNDATASIZE PUSH1 0x0 DUP1 RETURNDATACOPY RETURNDATASIZE PUSH1 0x0 REVERT JUMPDEST POP JUMP JUMPDEST JUMP JUMPDEST PUSH2 0x109 DUP2 PUSH2 0x12A JUMP JUMPDEST DUP3 MSTORE POP POP JUMP JUMPDEST PUSH1 0x0 PUSH1 0x20 DUP3 ADD SWAP1 POP PUSH2 0x124 PUSH1 0x0 DUP4 ADD DUP5 PUSH2 0x100 JUMP JUMPDEST SWAP3 SWAP2 POP POP JUMP JUMPDEST PUSH1 0x0 DUP2 SWAP1 POP SWAP2 SWAP1 POP JUMP INVALID LOG2 PUSH5 0x6970667358 0x22 SLT KECCAK256 0xB7 CALLER 0xE 0xBB PUSH7 0x9CE78B24758E24 SWAP6 ADD 0xA9 0x4A DELEGATECALL PUSH5 0x49FE9CD0EA ADD MSTORE8 SWAP4 PUSH3 0x572626 PUSH30 0xC464736F6C63430008070033000000000000000000000000000000000000 "
				},
				"gasEstimates": {
					"creation": {
						"codeDepositCost": "72400",
						"executionCost": "24390",
						"totalCost": "96790"
					},
					"external": {
						"getBalance()": "317",
						"payEther()": "142",
						"transferEther()": "infinite"
					}
				},
				"methodIdentifiers": {
					"getBalance()": "12065fe0",
					"payEther()": "f7474d00",
					"transferEther()": "c9b25f0f"
				}
			},
			"storageLayout": {
				"storage": [
					{
						"astId": 7,
						"contract": "transictions.sol:Pay",
						"label": "user",
						"offset": 0,
						"slot": "0",
						"type": "t_address_payable"
					}
				],
				"types": {
					"t_address_payable": {
						"encoding": "inplace",
						"label": "address payable",
						"numberOfBytes": "20"
					}
				}
			},
			"userdoc": {
				"kind": "user",
				"methods": {},
				"version": 1
			}
		}
	}
}