{
	"todomain.sol": {
		"TodoMain": {
			"abi": [
				{
					"anonymous": false,
					"inputs": [
						{
							"indexed": false,
							"internalType": "uint256",
							"name": "",
							"type": "uint256"
						},
						{
							"indexed": false,
							"internalType": "string",
							"name": "",
							"type": "string"
						}
					],
					"name": "TaskCreate",
					"type": "event"
				},
				{
					"inputs": [
						{
							"internalType": "uint256",
							"name": "_id",
							"type": "uint256"
						},
						{
							"internalType": "string",
							"name": "_todoName",
							"type": "string"
						}
					],
					"name": "addTodo",
					"outputs": [],
					"stateMutability": "nonpayable",
					"type": "function"
				},
				{
					"inputs": [],
					"name": "showTodo",
					"outputs": [
						{
							"components": [
								{
									"internalType": "uint256",
									"name": "id",
									"type": "uint256"
								},
								{
									"internalType": "string",
									"name": "todoName",
									"type": "string"
								}
							],
							"internalType": "struct TodoMain.TodoObj[]",
							"name": "",
							"type": "tuple[]"
						}
					],
					"stateMutability": "view",
					"type": "function"
				}
			],
			"devdoc": {
				"kind": "dev",
				"methods": {},
				"version": 1
			},
			"evm": {
				"assembly": "    /* \"todomain.sol\":64:572  contract TodoMain{\r... */\n  mstore(0x40, 0x80)\n  callvalue\n  dup1\n  iszero\n  tag_1\n  jumpi\n  0x00\n  dup1\n  revert\ntag_1:\n  pop\n  dataSize(sub_0)\n  dup1\n  dataOffset(sub_0)\n  0x00\n  codecopy\n  0x00\n  return\nstop\n\nsub_0: assembly {\n        /* \"todomain.sol\":64:572  contract TodoMain{\r... */\n      mstore(0x40, 0x80)\n      callvalue\n      dup1\n      iszero\n      tag_1\n      jumpi\n      0x00\n      dup1\n      revert\n    tag_1:\n      pop\n      jumpi(tag_2, lt(calldatasize, 0x04))\n      shr(0xe0, calldataload(0x00))\n      dup1\n      0x82e76b88\n      eq\n      tag_3\n      jumpi\n      dup1\n      0xc1da2020\n      eq\n      tag_4\n      jumpi\n    tag_2:\n      0x00\n      dup1\n      revert\n        /* \"todomain.sol\":465:567  function showTodo() public view returns(TodoObj[] memory){\r... */\n    tag_3:\n      tag_5\n      tag_6\n      jump\t// in\n    tag_5:\n      mload(0x40)\n      tag_7\n      swap2\n      swap1\n      tag_8\n      jump\t// in\n    tag_7:\n      mload(0x40)\n      dup1\n      swap2\n      sub\n      swap1\n      return\n        /* \"todomain.sol\":266:457  function addTodo(uint _id, string memory _todoName) public {\r... */\n    tag_4:\n      tag_9\n      0x04\n      dup1\n      calldatasize\n      sub\n      dup2\n      add\n      swap1\n      tag_10\n      swap2\n      swap1\n      tag_11\n      jump\t// in\n    tag_10:\n      tag_12\n      jump\t// in\n    tag_9:\n      stop\n        /* \"todomain.sol\":465:567  function showTodo() public view returns(TodoObj[] memory){\r... */\n    tag_6:\n        /* \"todomain.sol\":505:521  TodoObj[] memory */\n      0x60\n        /* \"todomain.sol\":540:547  todoMap */\n      0x01\n        /* \"todomain.sol\":540:559  todoMap[msg.sender] */\n      0x00\n        /* \"todomain.sol\":548:558  msg.sender */\n      caller\n        /* \"todomain.sol\":540:559  todoMap[msg.sender] */\n      0xffffffffffffffffffffffffffffffffffffffff\n      and\n      0xffffffffffffffffffffffffffffffffffffffff\n      and\n      dup2\n      mstore\n      0x20\n      add\n      swap1\n      dup2\n      mstore\n      0x20\n      add\n      0x00\n      keccak256\n        /* \"todomain.sol\":533:559  return todoMap[msg.sender] */\n      dup1\n      sload\n      dup1\n      0x20\n      mul\n      0x20\n      add\n      mload(0x40)\n      swap1\n      dup2\n      add\n      0x40\n      mstore\n      dup1\n      swap3\n      swap2\n      swap1\n      dup2\n      dup2\n      mstore\n      0x20\n      add\n      0x00\n      swap1\n    tag_14:\n      dup3\n      dup3\n      lt\n      iszero\n      tag_15\n      jumpi\n      dup4\n      dup3\n      swap1\n      0x00\n      mstore\n      keccak256(0x00, 0x20)\n      swap1\n      0x02\n      mul\n      add\n      mload(0x40)\n      dup1\n      0x40\n      add\n      0x40\n      mstore\n      swap1\n      dup2\n      0x00\n      dup3\n      add\n      sload\n      dup2\n      mstore\n      0x20\n      add\n      0x01\n      dup3\n      add\n      dup1\n      sload\n      tag_17\n      swap1\n      tag_18\n      jump\t// in\n    tag_17:\n      dup1\n      0x1f\n      add\n      0x20\n      dup1\n      swap2\n      div\n      mul\n      0x20\n      add\n      mload(0x40)\n      swap1\n      dup2\n      add\n      0x40\n      mstore\n      dup1\n      swap3\n      swap2\n      swap1\n      dup2\n      dup2\n      mstore\n      0x20\n      add\n      dup3\n      dup1\n      sload\n      tag_19\n      swap1\n      tag_18\n      jump\t// in\n    tag_19:\n      dup1\n      iszero\n      tag_20\n      jumpi\n      dup1\n      0x1f\n      lt\n      tag_21\n      jumpi\n      0x0100\n      dup1\n      dup4\n      sload\n      div\n      mul\n      dup4\n      mstore\n      swap2\n      0x20\n      add\n      swap2\n      jump(tag_20)\n    tag_21:\n      dup3\n      add\n      swap2\n      swap1\n      0x00\n      mstore\n      keccak256(0x00, 0x20)\n      swap1\n    tag_22:\n      dup2\n      sload\n      dup2\n      mstore\n      swap1\n      0x01\n      add\n      swap1\n      0x20\n      add\n      dup1\n      dup4\n      gt\n      tag_22\n      jumpi\n      dup3\n      swap1\n      sub\n      0x1f\n      and\n      dup3\n      add\n      swap2\n    tag_20:\n      pop\n      pop\n      pop\n      pop\n      pop\n      dup2\n      mstore\n      pop\n      pop\n      dup2\n      mstore\n      0x20\n      add\n      swap1\n      0x01\n      add\n      swap1\n      jump(tag_14)\n    tag_15:\n      pop\n      pop\n      pop\n      pop\n      swap1\n      pop\n        /* \"todomain.sol\":465:567  function showTodo() public view returns(TodoObj[] memory){\r... */\n      swap1\n      jump\t// out\n        /* \"todomain.sol\":266:457  function addTodo(uint _id, string memory _todoName) public {\r... */\n    tag_12:\n        /* \"todomain.sol\":336:341  todos */\n      0x00\n        /* \"todomain.sol\":347:369  TodoObj(_id,_todoName) */\n      mload(0x40)\n      dup1\n      0x40\n      add\n      0x40\n      mstore\n      dup1\n        /* \"todomain.sol\":355:358  _id */\n      dup5\n        /* \"todomain.sol\":347:369  TodoObj(_id,_todoName) */\n      dup2\n      mstore\n      0x20\n      add\n        /* \"todomain.sol\":359:368  _todoName */\n      dup4\n        /* \"todomain.sol\":347:369  TodoObj(_id,_todoName) */\n      dup2\n      mstore\n      pop\n        /* \"todomain.sol\":336:370  todos.push(TodoObj(_id,_todoName)) */\n      swap1\n      dup1\n      0x01\n      dup2\n      sload\n      add\n      dup1\n      dup3\n      sstore\n      dup1\n      swap2\n      pop\n      pop\n      0x01\n      swap1\n      sub\n      swap1\n      0x00\n      mstore\n      keccak256(0x00, 0x20)\n      swap1\n      0x02\n      mul\n      add\n      0x00\n      swap1\n      swap2\n      swap1\n      swap2\n      swap1\n      swap2\n      pop\n      0x00\n      dup3\n      add\n      mload\n      dup2\n      0x00\n      add\n      sstore\n      0x20\n      dup3\n      add\n      mload\n      dup2\n      0x01\n      add\n      swap1\n      dup1\n      mload\n      swap1\n      0x20\n      add\n      swap1\n      tag_25\n      swap3\n      swap2\n      swap1\n      tag_26\n      jump\t// in\n    tag_25:\n      pop\n      pop\n      pop\n        /* \"todomain.sol\":403:408  todos */\n      0x00\n        /* \"todomain.sol\":381:388  todoMap */\n      0x01\n        /* \"todomain.sol\":381:400  todoMap[msg.sender] */\n      0x00\n        /* \"todomain.sol\":389:399  msg.sender */\n      caller\n        /* \"todomain.sol\":381:400  todoMap[msg.sender] */\n      0xffffffffffffffffffffffffffffffffffffffff\n      and\n      0xffffffffffffffffffffffffffffffffffffffff\n      and\n      dup2\n      mstore\n      0x20\n      add\n      swap1\n      dup2\n      mstore\n      0x20\n      add\n      0x00\n      keccak256\n        /* \"todomain.sol\":381:408  todoMap[msg.sender] = todos */\n      swap1\n      dup1\n      sload\n      tag_27\n      swap3\n      swap2\n      swap1\n      tag_28\n      jump\t// in\n    tag_27:\n      pop\n        /* \"todomain.sol\":424:449  TaskCreate(_id,_todoName) */\n      0x3c981eaf8f806637941d1237961055d66e8636b71bc453db0c9e245a154760fd\n        /* \"todomain.sol\":435:438  _id */\n      dup3\n        /* \"todomain.sol\":439:448  _todoName */\n      dup3\n        /* \"todomain.sol\":424:449  TaskCreate(_id,_todoName) */\n      mload(0x40)\n      tag_29\n      swap3\n      swap2\n      swap1\n      tag_30\n      jump\t// in\n    tag_29:\n      mload(0x40)\n      dup1\n      swap2\n      sub\n      swap1\n      log1\n        /* \"todomain.sol\":266:457  function addTodo(uint _id, string memory _todoName) public {\r... */\n      pop\n      pop\n      jump\t// out\n    tag_26:\n      dup3\n      dup1\n      sload\n      tag_31\n      swap1\n      tag_18\n      jump\t// in\n    tag_31:\n      swap1\n      0x00\n      mstore\n      keccak256(0x00, 0x20)\n      swap1\n      0x1f\n      add\n      0x20\n      swap1\n      div\n      dup2\n      add\n      swap3\n      dup3\n      tag_33\n      jumpi\n      0x00\n      dup6\n      sstore\n      jump(tag_32)\n    tag_33:\n      dup3\n      0x1f\n      lt\n      tag_34\n      jumpi\n      dup1\n      mload\n      not(0xff)\n      and\n      dup4\n      dup1\n      add\n      or\n      dup6\n      sstore\n      jump(tag_32)\n    tag_34:\n      dup3\n      dup1\n      add\n      0x01\n      add\n      dup6\n      sstore\n      dup3\n      iszero\n      tag_32\n      jumpi\n      swap2\n      dup3\n      add\n    tag_35:\n      dup3\n      dup2\n      gt\n      iszero\n      tag_36\n      jumpi\n      dup3\n      mload\n      dup3\n      sstore\n      swap2\n      0x20\n      add\n      swap2\n      swap1\n      0x01\n      add\n      swap1\n      jump(tag_35)\n    tag_36:\n    tag_32:\n      pop\n      swap1\n      pop\n      tag_37\n      swap2\n      swap1\n      tag_38\n      jump\t// in\n    tag_37:\n      pop\n      swap1\n      jump\t// out\n    tag_28:\n      dup3\n      dup1\n      sload\n      dup3\n      dup3\n      sstore\n      swap1\n      0x00\n      mstore\n      keccak256(0x00, 0x20)\n      swap1\n      0x02\n      mul\n      dup2\n      add\n      swap3\n      dup3\n      iszero\n      tag_39\n      jumpi\n      0x00\n      mstore\n      keccak256(0x00, 0x20)\n      swap2\n      0x02\n      mul\n      dup3\n      add\n    tag_40:\n      dup3\n      dup2\n      gt\n      iszero\n      tag_41\n      jumpi\n      dup3\n      dup3\n      0x00\n      dup3\n      add\n      sload\n      dup2\n      0x00\n      add\n      sstore\n      0x01\n      dup3\n      add\n      dup2\n      0x01\n      add\n      swap1\n      dup1\n      sload\n      tag_42\n      swap1\n      tag_18\n      jump\t// in\n    tag_42:\n      tag_43\n      swap3\n      swap2\n      swap1\n      tag_44\n      jump\t// in\n    tag_43:\n      pop\n      pop\n      pop\n      swap2\n      0x02\n      add\n      swap2\n      swap1\n      0x02\n      add\n      swap1\n      jump(tag_40)\n    tag_41:\n    tag_39:\n      pop\n      swap1\n      pop\n      tag_45\n      swap2\n      swap1\n      tag_46\n      jump\t// in\n    tag_45:\n      pop\n      swap1\n      jump\t// out\n    tag_38:\n    tag_47:\n      dup1\n      dup3\n      gt\n      iszero\n      tag_48\n      jumpi\n      0x00\n      dup2\n      0x00\n      swap1\n      sstore\n      pop\n      0x01\n      add\n      jump(tag_47)\n    tag_48:\n      pop\n      swap1\n      jump\t// out\n    tag_44:\n      dup3\n      dup1\n      sload\n      tag_49\n      swap1\n      tag_18\n      jump\t// in\n    tag_49:\n      swap1\n      0x00\n      mstore\n      keccak256(0x00, 0x20)\n      swap1\n      0x1f\n      add\n      0x20\n      swap1\n      div\n      dup2\n      add\n      swap3\n      dup3\n      tag_51\n      jumpi\n      0x00\n      dup6\n      sstore\n      jump(tag_50)\n    tag_51:\n      dup3\n      0x1f\n      lt\n      tag_52\n      jumpi\n      dup1\n      sload\n      dup6\n      sstore\n      jump(tag_50)\n    tag_52:\n      dup3\n      dup1\n      add\n      0x01\n      add\n      dup6\n      sstore\n      dup3\n      iszero\n      tag_50\n      jumpi\n      0x00\n      mstore\n      keccak256(0x00, 0x20)\n      swap2\n      0x1f\n      add\n      0x20\n      swap1\n      div\n      dup3\n      add\n    tag_53:\n      dup3\n      dup2\n      gt\n      iszero\n      tag_54\n      jumpi\n      dup3\n      sload\n      dup3\n      sstore\n      swap2\n      0x01\n      add\n      swap2\n      swap1\n      0x01\n      add\n      swap1\n      jump(tag_53)\n    tag_54:\n    tag_50:\n      pop\n      swap1\n      pop\n      tag_55\n      swap2\n      swap1\n      tag_38\n      jump\t// in\n    tag_55:\n      pop\n      swap1\n      jump\t// out\n    tag_46:\n    tag_56:\n      dup1\n      dup3\n      gt\n      iszero\n      tag_57\n      jumpi\n      0x00\n      dup1\n      dup3\n      add\n      0x00\n      swap1\n      sstore\n      0x01\n      dup3\n      add\n      0x00\n      tag_58\n      swap2\n      swap1\n      tag_59\n      jump\t// in\n    tag_58:\n      pop\n      0x02\n      add\n      jump(tag_56)\n    tag_57:\n      pop\n      swap1\n      jump\t// out\n    tag_59:\n      pop\n      dup1\n      sload\n      tag_60\n      swap1\n      tag_18\n      jump\t// in\n    tag_60:\n      0x00\n      dup3\n      sstore\n      dup1\n      0x1f\n      lt\n      tag_62\n      jumpi\n      pop\n      jump(tag_61)\n    tag_62:\n      0x1f\n      add\n      0x20\n      swap1\n      div\n      swap1\n      0x00\n      mstore\n      keccak256(0x00, 0x20)\n      swap1\n      dup2\n      add\n      swap1\n      tag_63\n      swap2\n      swap1\n      tag_38\n      jump\t// in\n    tag_63:\n    tag_61:\n      pop\n      jump\t// out\n        /* \"#utility.yul\":7:419   */\n    tag_65:\n        /* \"#utility.yul\":85:90   */\n      0x00\n        /* \"#utility.yul\":110:176   */\n      tag_67\n        /* \"#utility.yul\":126:175   */\n      tag_68\n        /* \"#utility.yul\":168:174   */\n      dup5\n        /* \"#utility.yul\":126:175   */\n      tag_69\n      jump\t// in\n    tag_68:\n        /* \"#utility.yul\":110:176   */\n      tag_70\n      jump\t// in\n    tag_67:\n        /* \"#utility.yul\":101:176   */\n      swap1\n      pop\n        /* \"#utility.yul\":199:205   */\n      dup3\n        /* \"#utility.yul\":192:197   */\n      dup2\n        /* \"#utility.yul\":185:206   */\n      mstore\n        /* \"#utility.yul\":237:241   */\n      0x20\n        /* \"#utility.yul\":230:235   */\n      dup2\n        /* \"#utility.yul\":226:242   */\n      add\n        /* \"#utility.yul\":275:278   */\n      dup5\n        /* \"#utility.yul\":266:272   */\n      dup5\n        /* \"#utility.yul\":261:264   */\n      dup5\n        /* \"#utility.yul\":257:273   */\n      add\n        /* \"#utility.yul\":254:279   */\n      gt\n        /* \"#utility.yul\":251:363   */\n      iszero\n      tag_71\n      jumpi\n        /* \"#utility.yul\":282:361   */\n      tag_72\n      tag_73\n      jump\t// in\n    tag_72:\n        /* \"#utility.yul\":251:363   */\n    tag_71:\n        /* \"#utility.yul\":372:413   */\n      tag_74\n        /* \"#utility.yul\":406:412   */\n      dup5\n        /* \"#utility.yul\":401:404   */\n      dup3\n        /* \"#utility.yul\":396:399   */\n      dup6\n        /* \"#utility.yul\":372:413   */\n      tag_75\n      jump\t// in\n    tag_74:\n        /* \"#utility.yul\":91:419   */\n      pop\n        /* \"#utility.yul\":7:419   */\n      swap4\n      swap3\n      pop\n      pop\n      pop\n      jump\t// out\n        /* \"#utility.yul\":439:779   */\n    tag_76:\n        /* \"#utility.yul\":495:500   */\n      0x00\n        /* \"#utility.yul\":544:547   */\n      dup3\n        /* \"#utility.yul\":537:541   */\n      0x1f\n        /* \"#utility.yul\":529:535   */\n      dup4\n        /* \"#utility.yul\":525:542   */\n      add\n        /* \"#utility.yul\":521:548   */\n      slt\n        /* \"#utility.yul\":511:633   */\n      tag_78\n      jumpi\n        /* \"#utility.yul\":552:631   */\n      tag_79\n      tag_80\n      jump\t// in\n    tag_79:\n        /* \"#utility.yul\":511:633   */\n    tag_78:\n        /* \"#utility.yul\":669:675   */\n      dup2\n        /* \"#utility.yul\":656:676   */\n      calldataload\n        /* \"#utility.yul\":694:773   */\n      tag_81\n        /* \"#utility.yul\":769:772   */\n      dup5\n        /* \"#utility.yul\":761:767   */\n      dup3\n        /* \"#utility.yul\":754:758   */\n      0x20\n        /* \"#utility.yul\":746:752   */\n      dup7\n        /* \"#utility.yul\":742:759   */\n      add\n        /* \"#utility.yul\":694:773   */\n      tag_65\n      jump\t// in\n    tag_81:\n        /* \"#utility.yul\":685:773   */\n      swap2\n      pop\n        /* \"#utility.yul\":501:779   */\n      pop\n        /* \"#utility.yul\":439:779   */\n      swap3\n      swap2\n      pop\n      pop\n      jump\t// out\n        /* \"#utility.yul\":785:924   */\n    tag_82:\n        /* \"#utility.yul\":831:836   */\n      0x00\n        /* \"#utility.yul\":869:875   */\n      dup2\n        /* \"#utility.yul\":856:876   */\n      calldataload\n        /* \"#utility.yul\":847:876   */\n      swap1\n      pop\n        /* \"#utility.yul\":885:918   */\n      tag_84\n        /* \"#utility.yul\":912:917   */\n      dup2\n        /* \"#utility.yul\":885:918   */\n      tag_85\n      jump\t// in\n    tag_84:\n        /* \"#utility.yul\":785:924   */\n      swap3\n      swap2\n      pop\n      pop\n      jump\t// out\n        /* \"#utility.yul\":930:1584   */\n    tag_11:\n        /* \"#utility.yul\":1008:1014   */\n      0x00\n        /* \"#utility.yul\":1016:1022   */\n      dup1\n        /* \"#utility.yul\":1065:1067   */\n      0x40\n        /* \"#utility.yul\":1053:1062   */\n      dup4\n        /* \"#utility.yul\":1044:1051   */\n      dup6\n        /* \"#utility.yul\":1040:1063   */\n      sub\n        /* \"#utility.yul\":1036:1068   */\n      slt\n        /* \"#utility.yul\":1033:1152   */\n      iszero\n      tag_87\n      jumpi\n        /* \"#utility.yul\":1071:1150   */\n      tag_88\n      tag_89\n      jump\t// in\n    tag_88:\n        /* \"#utility.yul\":1033:1152   */\n    tag_87:\n        /* \"#utility.yul\":1191:1192   */\n      0x00\n        /* \"#utility.yul\":1216:1269   */\n      tag_90\n        /* \"#utility.yul\":1261:1268   */\n      dup6\n        /* \"#utility.yul\":1252:1258   */\n      dup3\n        /* \"#utility.yul\":1241:1250   */\n      dup7\n        /* \"#utility.yul\":1237:1259   */\n      add\n        /* \"#utility.yul\":1216:1269   */\n      tag_82\n      jump\t// in\n    tag_90:\n        /* \"#utility.yul\":1206:1269   */\n      swap3\n      pop\n        /* \"#utility.yul\":1162:1279   */\n      pop\n        /* \"#utility.yul\":1346:1348   */\n      0x20\n        /* \"#utility.yul\":1335:1344   */\n      dup4\n        /* \"#utility.yul\":1331:1349   */\n      add\n        /* \"#utility.yul\":1318:1350   */\n      calldataload\n        /* \"#utility.yul\":1377:1395   */\n      0xffffffffffffffff\n        /* \"#utility.yul\":1369:1375   */\n      dup2\n        /* \"#utility.yul\":1366:1396   */\n      gt\n        /* \"#utility.yul\":1363:1480   */\n      iszero\n      tag_91\n      jumpi\n        /* \"#utility.yul\":1399:1478   */\n      tag_92\n      tag_93\n      jump\t// in\n    tag_92:\n        /* \"#utility.yul\":1363:1480   */\n    tag_91:\n        /* \"#utility.yul\":1504:1567   */\n      tag_94\n        /* \"#utility.yul\":1559:1566   */\n      dup6\n        /* \"#utility.yul\":1550:1556   */\n      dup3\n        /* \"#utility.yul\":1539:1548   */\n      dup7\n        /* \"#utility.yul\":1535:1557   */\n      add\n        /* \"#utility.yul\":1504:1567   */\n      tag_76\n      jump\t// in\n    tag_94:\n        /* \"#utility.yul\":1494:1567   */\n      swap2\n      pop\n        /* \"#utility.yul\":1289:1577   */\n      pop\n        /* \"#utility.yul\":930:1584   */\n      swap3\n      pop\n      swap3\n      swap1\n      pop\n      jump\t// out\n        /* \"#utility.yul\":1590:1834   */\n    tag_95:\n        /* \"#utility.yul\":1703:1713   */\n      0x00\n        /* \"#utility.yul\":1738:1828   */\n      tag_97\n        /* \"#utility.yul\":1824:1827   */\n      dup4\n        /* \"#utility.yul\":1816:1822   */\n      dup4\n        /* \"#utility.yul\":1738:1828   */\n      tag_98\n      jump\t// in\n    tag_97:\n        /* \"#utility.yul\":1724:1828   */\n      swap1\n      pop\n        /* \"#utility.yul\":1590:1834   */\n      swap3\n      swap2\n      pop\n      pop\n      jump\t// out\n        /* \"#utility.yul\":1902:2989   */\n    tag_99:\n        /* \"#utility.yul\":2065:2068   */\n      0x00\n        /* \"#utility.yul\":2094:2170   */\n      tag_101\n        /* \"#utility.yul\":2164:2169   */\n      dup3\n        /* \"#utility.yul\":2094:2170   */\n      tag_102\n      jump\t// in\n    tag_101:\n        /* \"#utility.yul\":2186:2294   */\n      tag_103\n        /* \"#utility.yul\":2287:2293   */\n      dup2\n        /* \"#utility.yul\":2282:2285   */\n      dup6\n        /* \"#utility.yul\":2186:2294   */\n      tag_104\n      jump\t// in\n    tag_103:\n        /* \"#utility.yul\":2179:2294   */\n      swap4\n      pop\n        /* \"#utility.yul\":2320:2323   */\n      dup4\n        /* \"#utility.yul\":2365:2369   */\n      0x20\n        /* \"#utility.yul\":2357:2363   */\n      dup3\n        /* \"#utility.yul\":2353:2370   */\n      mul\n        /* \"#utility.yul\":2348:2351   */\n      dup6\n        /* \"#utility.yul\":2344:2371   */\n      add\n        /* \"#utility.yul\":2395:2473   */\n      tag_105\n        /* \"#utility.yul\":2467:2472   */\n      dup6\n        /* \"#utility.yul\":2395:2473   */\n      tag_106\n      jump\t// in\n    tag_105:\n        /* \"#utility.yul\":2496:2503   */\n      dup1\n        /* \"#utility.yul\":2527:2528   */\n      0x00\n        /* \"#utility.yul\":2512:2944   */\n    tag_107:\n        /* \"#utility.yul\":2537:2543   */\n      dup6\n        /* \"#utility.yul\":2534:2535   */\n      dup2\n        /* \"#utility.yul\":2531:2544   */\n      lt\n        /* \"#utility.yul\":2512:2944   */\n      iszero\n      tag_109\n      jumpi\n        /* \"#utility.yul\":2608:2617   */\n      dup5\n        /* \"#utility.yul\":2602:2606   */\n      dup5\n        /* \"#utility.yul\":2598:2618   */\n      sub\n        /* \"#utility.yul\":2593:2596   */\n      dup10\n        /* \"#utility.yul\":2586:2619   */\n      mstore\n        /* \"#utility.yul\":2659:2665   */\n      dup2\n        /* \"#utility.yul\":2653:2666   */\n      mload\n        /* \"#utility.yul\":2687:2795   */\n      tag_110\n        /* \"#utility.yul\":2790:2794   */\n      dup6\n        /* \"#utility.yul\":2775:2788   */\n      dup3\n        /* \"#utility.yul\":2687:2795   */\n      tag_95\n      jump\t// in\n    tag_110:\n        /* \"#utility.yul\":2679:2795   */\n      swap5\n      pop\n        /* \"#utility.yul\":2818:2900   */\n      tag_111\n        /* \"#utility.yul\":2893:2899   */\n      dup4\n        /* \"#utility.yul\":2818:2900   */\n      tag_112\n      jump\t// in\n    tag_111:\n        /* \"#utility.yul\":2808:2900   */\n      swap3\n      pop\n        /* \"#utility.yul\":2929:2933   */\n      0x20\n        /* \"#utility.yul\":2924:2927   */\n      dup11\n        /* \"#utility.yul\":2920:2934   */\n      add\n        /* \"#utility.yul\":2913:2934   */\n      swap10\n      pop\n        /* \"#utility.yul\":2572:2944   */\n      pop\n        /* \"#utility.yul\":2559:2560   */\n      0x01\n        /* \"#utility.yul\":2556:2557   */\n      dup2\n        /* \"#utility.yul\":2552:2561   */\n      add\n        /* \"#utility.yul\":2547:2561   */\n      swap1\n      pop\n        /* \"#utility.yul\":2512:2944   */\n      jump(tag_107)\n    tag_109:\n        /* \"#utility.yul\":2516:2530   */\n      pop\n        /* \"#utility.yul\":2960:2964   */\n      dup3\n        /* \"#utility.yul\":2953:2964   */\n      swap8\n      pop\n        /* \"#utility.yul\":2980:2983   */\n      dup8\n        /* \"#utility.yul\":2973:2983   */\n      swap6\n      pop\n        /* \"#utility.yul\":2070:2989   */\n      pop\n      pop\n      pop\n      pop\n      pop\n        /* \"#utility.yul\":1902:2989   */\n      swap3\n      swap2\n      pop\n      pop\n      jump\t// out\n        /* \"#utility.yul\":2995:3339   */\n    tag_113:\n        /* \"#utility.yul\":3073:3076   */\n      0x00\n        /* \"#utility.yul\":3101:3140   */\n      tag_115\n        /* \"#utility.yul\":3134:3139   */\n      dup3\n        /* \"#utility.yul\":3101:3140   */\n      tag_116\n      jump\t// in\n    tag_115:\n        /* \"#utility.yul\":3156:3217   */\n      tag_117\n        /* \"#utility.yul\":3210:3216   */\n      dup2\n        /* \"#utility.yul\":3205:3208   */\n      dup6\n        /* \"#utility.yul\":3156:3217   */\n      tag_118\n      jump\t// in\n    tag_117:\n        /* \"#utility.yul\":3149:3217   */\n      swap4\n      pop\n        /* \"#utility.yul\":3226:3278   */\n      tag_119\n        /* \"#utility.yul\":3271:3277   */\n      dup2\n        /* \"#utility.yul\":3266:3269   */\n      dup6\n        /* \"#utility.yul\":3259:3263   */\n      0x20\n        /* \"#utility.yul\":3252:3257   */\n      dup7\n        /* \"#utility.yul\":3248:3264   */\n      add\n        /* \"#utility.yul\":3226:3278   */\n      tag_120\n      jump\t// in\n    tag_119:\n        /* \"#utility.yul\":3303:3332   */\n      tag_121\n        /* \"#utility.yul\":3325:3331   */\n      dup2\n        /* \"#utility.yul\":3303:3332   */\n      tag_122\n      jump\t// in\n    tag_121:\n        /* \"#utility.yul\":3298:3301   */\n      dup5\n        /* \"#utility.yul\":3294:3333   */\n      add\n        /* \"#utility.yul\":3287:3333   */\n      swap2\n      pop\n        /* \"#utility.yul\":3077:3339   */\n      pop\n        /* \"#utility.yul\":2995:3339   */\n      swap3\n      swap2\n      pop\n      pop\n      jump\t// out\n        /* \"#utility.yul\":3345:3709   */\n    tag_123:\n        /* \"#utility.yul\":3433:3436   */\n      0x00\n        /* \"#utility.yul\":3461:3500   */\n      tag_125\n        /* \"#utility.yul\":3494:3499   */\n      dup3\n        /* \"#utility.yul\":3461:3500   */\n      tag_116\n      jump\t// in\n    tag_125:\n        /* \"#utility.yul\":3516:3587   */\n      tag_126\n        /* \"#utility.yul\":3580:3586   */\n      dup2\n        /* \"#utility.yul\":3575:3578   */\n      dup6\n        /* \"#utility.yul\":3516:3587   */\n      tag_127\n      jump\t// in\n    tag_126:\n        /* \"#utility.yul\":3509:3587   */\n      swap4\n      pop\n        /* \"#utility.yul\":3596:3648   */\n      tag_128\n        /* \"#utility.yul\":3641:3647   */\n      dup2\n        /* \"#utility.yul\":3636:3639   */\n      dup6\n        /* \"#utility.yul\":3629:3633   */\n      0x20\n        /* \"#utility.yul\":3622:3627   */\n      dup7\n        /* \"#utility.yul\":3618:3634   */\n      add\n        /* \"#utility.yul\":3596:3648   */\n      tag_120\n      jump\t// in\n    tag_128:\n        /* \"#utility.yul\":3673:3702   */\n      tag_129\n        /* \"#utility.yul\":3695:3701   */\n      dup2\n        /* \"#utility.yul\":3673:3702   */\n      tag_122\n      jump\t// in\n    tag_129:\n        /* \"#utility.yul\":3668:3671   */\n      dup5\n        /* \"#utility.yul\":3664:3703   */\n      add\n        /* \"#utility.yul\":3657:3703   */\n      swap2\n      pop\n        /* \"#utility.yul\":3437:3709   */\n      pop\n        /* \"#utility.yul\":3345:3709   */\n      swap3\n      swap2\n      pop\n      pop\n      jump\t// out\n        /* \"#utility.yul\":3773:4365   */\n    tag_98:\n        /* \"#utility.yul\":3876:3879   */\n      0x00\n        /* \"#utility.yul\":3912:3916   */\n      0x40\n        /* \"#utility.yul\":3907:3910   */\n      dup4\n        /* \"#utility.yul\":3903:3917   */\n      add\n        /* \"#utility.yul\":3997:4001   */\n      0x00\n        /* \"#utility.yul\":3990:3995   */\n      dup4\n        /* \"#utility.yul\":3986:4002   */\n      add\n        /* \"#utility.yul\":3980:4003   */\n      mload\n        /* \"#utility.yul\":4016:4079   */\n      tag_131\n        /* \"#utility.yul\":4073:4077   */\n      0x00\n        /* \"#utility.yul\":4068:4071   */\n      dup7\n        /* \"#utility.yul\":4064:4078   */\n      add\n        /* \"#utility.yul\":4050:4062   */\n      dup3\n        /* \"#utility.yul\":4016:4079   */\n      tag_132\n      jump\t// in\n    tag_131:\n        /* \"#utility.yul\":3927:4089   */\n      pop\n        /* \"#utility.yul\":4175:4179   */\n      0x20\n        /* \"#utility.yul\":4168:4173   */\n      dup4\n        /* \"#utility.yul\":4164:4180   */\n      add\n        /* \"#utility.yul\":4158:4181   */\n      mload\n        /* \"#utility.yul\":4228:4231   */\n      dup5\n        /* \"#utility.yul\":4222:4226   */\n      dup3\n        /* \"#utility.yul\":4218:4232   */\n      sub\n        /* \"#utility.yul\":4211:4215   */\n      0x20\n        /* \"#utility.yul\":4206:4209   */\n      dup7\n        /* \"#utility.yul\":4202:4216   */\n      add\n        /* \"#utility.yul\":4195:4233   */\n      mstore\n        /* \"#utility.yul\":4254:4327   */\n      tag_133\n        /* \"#utility.yul\":4322:4326   */\n      dup3\n        /* \"#utility.yul\":4308:4320   */\n      dup3\n        /* \"#utility.yul\":4254:4327   */\n      tag_113\n      jump\t// in\n    tag_133:\n        /* \"#utility.yul\":4246:4327   */\n      swap2\n      pop\n        /* \"#utility.yul\":4099:4338   */\n      pop\n        /* \"#utility.yul\":4355:4359   */\n      dup1\n        /* \"#utility.yul\":4348:4359   */\n      swap2\n      pop\n        /* \"#utility.yul\":3881:4365   */\n      pop\n        /* \"#utility.yul\":3773:4365   */\n      swap3\n      swap2\n      pop\n      pop\n      jump\t// out\n        /* \"#utility.yul\":4371:4479   */\n    tag_132:\n        /* \"#utility.yul\":4448:4472   */\n      tag_135\n        /* \"#utility.yul\":4466:4471   */\n      dup2\n        /* \"#utility.yul\":4448:4472   */\n      tag_136\n      jump\t// in\n    tag_135:\n        /* \"#utility.yul\":4443:4446   */\n      dup3\n        /* \"#utility.yul\":4436:4473   */\n      mstore\n        /* \"#utility.yul\":4371:4479   */\n      pop\n      pop\n      jump\t// out\n        /* \"#utility.yul\":4485:4603   */\n    tag_137:\n        /* \"#utility.yul\":4572:4596   */\n      tag_139\n        /* \"#utility.yul\":4590:4595   */\n      dup2\n        /* \"#utility.yul\":4572:4596   */\n      tag_136\n      jump\t// in\n    tag_139:\n        /* \"#utility.yul\":4567:4570   */\n      dup3\n        /* \"#utility.yul\":4560:4597   */\n      mstore\n        /* \"#utility.yul\":4485:4603   */\n      pop\n      pop\n      jump\t// out\n        /* \"#utility.yul\":4609:5070   */\n    tag_8:\n        /* \"#utility.yul\":4796:4800   */\n      0x00\n        /* \"#utility.yul\":4834:4836   */\n      0x20\n        /* \"#utility.yul\":4823:4832   */\n      dup3\n        /* \"#utility.yul\":4819:4837   */\n      add\n        /* \"#utility.yul\":4811:4837   */\n      swap1\n      pop\n        /* \"#utility.yul\":4883:4892   */\n      dup2\n        /* \"#utility.yul\":4877:4881   */\n      dup2\n        /* \"#utility.yul\":4873:4893   */\n      sub\n        /* \"#utility.yul\":4869:4870   */\n      0x00\n        /* \"#utility.yul\":4858:4867   */\n      dup4\n        /* \"#utility.yul\":4854:4871   */\n      add\n        /* \"#utility.yul\":4847:4894   */\n      mstore\n        /* \"#utility.yul\":4911:5063   */\n      tag_141\n        /* \"#utility.yul\":5058:5062   */\n      dup2\n        /* \"#utility.yul\":5049:5055   */\n      dup5\n        /* \"#utility.yul\":4911:5063   */\n      tag_99\n      jump\t// in\n    tag_141:\n        /* \"#utility.yul\":4903:5063   */\n      swap1\n      pop\n        /* \"#utility.yul\":4609:5070   */\n      swap3\n      swap2\n      pop\n      pop\n      jump\t// out\n        /* \"#utility.yul\":5076:5499   */\n    tag_30:\n        /* \"#utility.yul\":5217:5221   */\n      0x00\n        /* \"#utility.yul\":5255:5257   */\n      0x40\n        /* \"#utility.yul\":5244:5253   */\n      dup3\n        /* \"#utility.yul\":5240:5258   */\n      add\n        /* \"#utility.yul\":5232:5258   */\n      swap1\n      pop\n        /* \"#utility.yul\":5268:5339   */\n      tag_143\n        /* \"#utility.yul\":5336:5337   */\n      0x00\n        /* \"#utility.yul\":5325:5334   */\n      dup4\n        /* \"#utility.yul\":5321:5338   */\n      add\n        /* \"#utility.yul\":5312:5318   */\n      dup6\n        /* \"#utility.yul\":5268:5339   */\n      tag_137\n      jump\t// in\n    tag_143:\n        /* \"#utility.yul\":5386:5395   */\n      dup2\n        /* \"#utility.yul\":5380:5384   */\n      dup2\n        /* \"#utility.yul\":5376:5396   */\n      sub\n        /* \"#utility.yul\":5371:5373   */\n      0x20\n        /* \"#utility.yul\":5360:5369   */\n      dup4\n        /* \"#utility.yul\":5356:5374   */\n      add\n        /* \"#utility.yul\":5349:5397   */\n      mstore\n        /* \"#utility.yul\":5414:5492   */\n      tag_144\n        /* \"#utility.yul\":5487:5491   */\n      dup2\n        /* \"#utility.yul\":5478:5484   */\n      dup5\n        /* \"#utility.yul\":5414:5492   */\n      tag_123\n      jump\t// in\n    tag_144:\n        /* \"#utility.yul\":5406:5492   */\n      swap1\n      pop\n        /* \"#utility.yul\":5076:5499   */\n      swap4\n      swap3\n      pop\n      pop\n      pop\n      jump\t// out\n        /* \"#utility.yul\":5505:5634   */\n    tag_70:\n        /* \"#utility.yul\":5539:5545   */\n      0x00\n        /* \"#utility.yul\":5566:5586   */\n      tag_146\n      tag_147\n      jump\t// in\n    tag_146:\n        /* \"#utility.yul\":5556:5586   */\n      swap1\n      pop\n        /* \"#utility.yul\":5595:5628   */\n      tag_148\n        /* \"#utility.yul\":5623:5627   */\n      dup3\n        /* \"#utility.yul\":5615:5621   */\n      dup3\n        /* \"#utility.yul\":5595:5628   */\n      tag_149\n      jump\t// in\n    tag_148:\n        /* \"#utility.yul\":5505:5634   */\n      swap2\n      swap1\n      pop\n      jump\t// out\n        /* \"#utility.yul\":5640:5715   */\n    tag_147:\n        /* \"#utility.yul\":5673:5679   */\n      0x00\n        /* \"#utility.yul\":5706:5708   */\n      0x40\n        /* \"#utility.yul\":5700:5709   */\n      mload\n        /* \"#utility.yul\":5690:5709   */\n      swap1\n      pop\n        /* \"#utility.yul\":5640:5715   */\n      swap1\n      jump\t// out\n        /* \"#utility.yul\":5721:6029   */\n    tag_69:\n        /* \"#utility.yul\":5783:5787   */\n      0x00\n        /* \"#utility.yul\":5873:5891   */\n      0xffffffffffffffff\n        /* \"#utility.yul\":5865:5871   */\n      dup3\n        /* \"#utility.yul\":5862:5892   */\n      gt\n        /* \"#utility.yul\":5859:5915   */\n      iszero\n      tag_152\n      jumpi\n        /* \"#utility.yul\":5895:5913   */\n      tag_153\n      tag_154\n      jump\t// in\n    tag_153:\n        /* \"#utility.yul\":5859:5915   */\n    tag_152:\n        /* \"#utility.yul\":5933:5962   */\n      tag_155\n        /* \"#utility.yul\":5955:5961   */\n      dup3\n        /* \"#utility.yul\":5933:5962   */\n      tag_122\n      jump\t// in\n    tag_155:\n        /* \"#utility.yul\":5925:5962   */\n      swap1\n      pop\n        /* \"#utility.yul\":6017:6021   */\n      0x20\n        /* \"#utility.yul\":6011:6015   */\n      dup2\n        /* \"#utility.yul\":6007:6022   */\n      add\n        /* \"#utility.yul\":5999:6022   */\n      swap1\n      pop\n        /* \"#utility.yul\":5721:6029   */\n      swap2\n      swap1\n      pop\n      jump\t// out\n        /* \"#utility.yul\":6035:6189   */\n    tag_106:\n        /* \"#utility.yul\":6124:6128   */\n      0x00\n        /* \"#utility.yul\":6147:6150   */\n      dup2\n        /* \"#utility.yul\":6139:6150   */\n      swap1\n      pop\n        /* \"#utility.yul\":6177:6181   */\n      0x20\n        /* \"#utility.yul\":6172:6175   */\n      dup3\n        /* \"#utility.yul\":6168:6182   */\n      add\n        /* \"#utility.yul\":6160:6182   */\n      swap1\n      pop\n        /* \"#utility.yul\":6035:6189   */\n      swap2\n      swap1\n      pop\n      jump\t// out\n        /* \"#utility.yul\":6195:6331   */\n    tag_102:\n        /* \"#utility.yul\":6284:6290   */\n      0x00\n        /* \"#utility.yul\":6318:6323   */\n      dup2\n        /* \"#utility.yul\":6312:6324   */\n      mload\n        /* \"#utility.yul\":6302:6324   */\n      swap1\n      pop\n        /* \"#utility.yul\":6195:6331   */\n      swap2\n      swap1\n      pop\n      jump\t// out\n        /* \"#utility.yul\":6337:6436   */\n    tag_116:\n        /* \"#utility.yul\":6389:6395   */\n      0x00\n        /* \"#utility.yul\":6423:6428   */\n      dup2\n        /* \"#utility.yul\":6417:6429   */\n      mload\n        /* \"#utility.yul\":6407:6429   */\n      swap1\n      pop\n        /* \"#utility.yul\":6337:6436   */\n      swap2\n      swap1\n      pop\n      jump\t// out\n        /* \"#utility.yul\":6442:6577   */\n    tag_112:\n        /* \"#utility.yul\":6534:6538   */\n      0x00\n        /* \"#utility.yul\":6566:6570   */\n      0x20\n        /* \"#utility.yul\":6561:6564   */\n      dup3\n        /* \"#utility.yul\":6557:6571   */\n      add\n        /* \"#utility.yul\":6549:6571   */\n      swap1\n      pop\n        /* \"#utility.yul\":6442:6577   */\n      swap2\n      swap1\n      pop\n      jump\t// out\n        /* \"#utility.yul\":6583:6789   */\n    tag_104:\n        /* \"#utility.yul\":6704:6715   */\n      0x00\n        /* \"#utility.yul\":6738:6744   */\n      dup3\n        /* \"#utility.yul\":6733:6736   */\n      dup3\n        /* \"#utility.yul\":6726:6745   */\n      mstore\n        /* \"#utility.yul\":6778:6782   */\n      0x20\n        /* \"#utility.yul\":6773:6776   */\n      dup3\n        /* \"#utility.yul\":6769:6783   */\n      add\n        /* \"#utility.yul\":6754:6783   */\n      swap1\n      pop\n        /* \"#utility.yul\":6583:6789   */\n      swap3\n      swap2\n      pop\n      pop\n      jump\t// out\n        /* \"#utility.yul\":6795:6954   */\n    tag_118:\n        /* \"#utility.yul\":6869:6880   */\n      0x00\n        /* \"#utility.yul\":6903:6909   */\n      dup3\n        /* \"#utility.yul\":6898:6901   */\n      dup3\n        /* \"#utility.yul\":6891:6910   */\n      mstore\n        /* \"#utility.yul\":6943:6947   */\n      0x20\n        /* \"#utility.yul\":6938:6941   */\n      dup3\n        /* \"#utility.yul\":6934:6948   */\n      add\n        /* \"#utility.yul\":6919:6948   */\n      swap1\n      pop\n        /* \"#utility.yul\":6795:6954   */\n      swap3\n      swap2\n      pop\n      pop\n      jump\t// out\n        /* \"#utility.yul\":6960:7129   */\n    tag_127:\n        /* \"#utility.yul\":7044:7055   */\n      0x00\n        /* \"#utility.yul\":7078:7084   */\n      dup3\n        /* \"#utility.yul\":7073:7076   */\n      dup3\n        /* \"#utility.yul\":7066:7085   */\n      mstore\n        /* \"#utility.yul\":7118:7122   */\n      0x20\n        /* \"#utility.yul\":7113:7116   */\n      dup3\n        /* \"#utility.yul\":7109:7123   */\n      add\n        /* \"#utility.yul\":7094:7123   */\n      swap1\n      pop\n        /* \"#utility.yul\":6960:7129   */\n      swap3\n      swap2\n      pop\n      pop\n      jump\t// out\n        /* \"#utility.yul\":7135:7212   */\n    tag_136:\n        /* \"#utility.yul\":7172:7179   */\n      0x00\n        /* \"#utility.yul\":7201:7206   */\n      dup2\n        /* \"#utility.yul\":7190:7206   */\n      swap1\n      pop\n        /* \"#utility.yul\":7135:7212   */\n      swap2\n      swap1\n      pop\n      jump\t// out\n        /* \"#utility.yul\":7218:7372   */\n    tag_75:\n        /* \"#utility.yul\":7302:7308   */\n      dup3\n        /* \"#utility.yul\":7297:7300   */\n      dup2\n        /* \"#utility.yul\":7292:7295   */\n      dup4\n        /* \"#utility.yul\":7279:7309   */\n      calldatacopy\n        /* \"#utility.yul\":7364:7365   */\n      0x00\n        /* \"#utility.yul\":7355:7361   */\n      dup4\n        /* \"#utility.yul\":7350:7353   */\n      dup4\n        /* \"#utility.yul\":7346:7362   */\n      add\n        /* \"#utility.yul\":7339:7366   */\n      mstore\n        /* \"#utility.yul\":7218:7372   */\n      pop\n      pop\n      pop\n      jump\t// out\n        /* \"#utility.yul\":7378:7685   */\n    tag_120:\n        /* \"#utility.yul\":7446:7447   */\n      0x00\n        /* \"#utility.yul\":7456:7569   */\n    tag_166:\n        /* \"#utility.yul\":7470:7476   */\n      dup4\n        /* \"#utility.yul\":7467:7468   */\n      dup2\n        /* \"#utility.yul\":7464:7477   */\n      lt\n        /* \"#utility.yul\":7456:7569   */\n      iszero\n      tag_168\n      jumpi\n        /* \"#utility.yul\":7555:7556   */\n      dup1\n        /* \"#utility.yul\":7550:7553   */\n      dup3\n        /* \"#utility.yul\":7546:7557   */\n      add\n        /* \"#utility.yul\":7540:7558   */\n      mload\n        /* \"#utility.yul\":7536:7537   */\n      dup2\n        /* \"#utility.yul\":7531:7534   */\n      dup5\n        /* \"#utility.yul\":7527:7538   */\n      add\n        /* \"#utility.yul\":7520:7559   */\n      mstore\n        /* \"#utility.yul\":7492:7494   */\n      0x20\n        /* \"#utility.yul\":7489:7490   */\n      dup2\n        /* \"#utility.yul\":7485:7495   */\n      add\n        /* \"#utility.yul\":7480:7495   */\n      swap1\n      pop\n        /* \"#utility.yul\":7456:7569   */\n      jump(tag_166)\n    tag_168:\n        /* \"#utility.yul\":7587:7593   */\n      dup4\n        /* \"#utility.yul\":7584:7585   */\n      dup2\n        /* \"#utility.yul\":7581:7594   */\n      gt\n        /* \"#utility.yul\":7578:7679   */\n      iszero\n      tag_169\n      jumpi\n        /* \"#utility.yul\":7667:7668   */\n      0x00\n        /* \"#utility.yul\":7658:7664   */\n      dup5\n        /* \"#utility.yul\":7653:7656   */\n      dup5\n        /* \"#utility.yul\":7649:7665   */\n      add\n        /* \"#utility.yul\":7642:7669   */\n      mstore\n        /* \"#utility.yul\":7578:7679   */\n    tag_169:\n        /* \"#utility.yul\":7427:7685   */\n      pop\n        /* \"#utility.yul\":7378:7685   */\n      pop\n      pop\n      pop\n      jump\t// out\n        /* \"#utility.yul\":7691:8011   */\n    tag_18:\n        /* \"#utility.yul\":7735:7741   */\n      0x00\n        /* \"#utility.yul\":7772:7773   */\n      0x02\n        /* \"#utility.yul\":7766:7770   */\n      dup3\n        /* \"#utility.yul\":7762:7774   */\n      div\n        /* \"#utility.yul\":7752:7774   */\n      swap1\n      pop\n        /* \"#utility.yul\":7819:7820   */\n      0x01\n        /* \"#utility.yul\":7813:7817   */\n      dup3\n        /* \"#utility.yul\":7809:7821   */\n      and\n        /* \"#utility.yul\":7840:7858   */\n      dup1\n        /* \"#utility.yul\":7830:7911   */\n      tag_171\n      jumpi\n        /* \"#utility.yul\":7896:7900   */\n      0x7f\n        /* \"#utility.yul\":7888:7894   */\n      dup3\n        /* \"#utility.yul\":7884:7901   */\n      and\n        /* \"#utility.yul\":7874:7901   */\n      swap2\n      pop\n        /* \"#utility.yul\":7830:7911   */\n    tag_171:\n        /* \"#utility.yul\":7958:7960   */\n      0x20\n        /* \"#utility.yul\":7950:7956   */\n      dup3\n        /* \"#utility.yul\":7947:7961   */\n      lt\n        /* \"#utility.yul\":7927:7945   */\n      dup2\n        /* \"#utility.yul\":7924:7962   */\n      eq\n        /* \"#utility.yul\":7921:8005   */\n      iszero\n      tag_172\n      jumpi\n        /* \"#utility.yul\":7977:7995   */\n      tag_173\n      tag_174\n      jump\t// in\n    tag_173:\n        /* \"#utility.yul\":7921:8005   */\n    tag_172:\n        /* \"#utility.yul\":7742:8011   */\n      pop\n        /* \"#utility.yul\":7691:8011   */\n      swap2\n      swap1\n      pop\n      jump\t// out\n        /* \"#utility.yul\":8017:8298   */\n    tag_149:\n        /* \"#utility.yul\":8100:8127   */\n      tag_176\n        /* \"#utility.yul\":8122:8126   */\n      dup3\n        /* \"#utility.yul\":8100:8127   */\n      tag_122\n      jump\t// in\n    tag_176:\n        /* \"#utility.yul\":8092:8098   */\n      dup2\n        /* \"#utility.yul\":8088:8128   */\n      add\n        /* \"#utility.yul\":8230:8236   */\n      dup2\n        /* \"#utility.yul\":8218:8228   */\n      dup2\n        /* \"#utility.yul\":8215:8237   */\n      lt\n        /* \"#utility.yul\":8194:8212   */\n      0xffffffffffffffff\n        /* \"#utility.yul\":8182:8192   */\n      dup3\n        /* \"#utility.yul\":8179:8213   */\n      gt\n        /* \"#utility.yul\":8176:8238   */\n      or\n        /* \"#utility.yul\":8173:8261   */\n      iszero\n      tag_177\n      jumpi\n        /* \"#utility.yul\":8241:8259   */\n      tag_178\n      tag_154\n      jump\t// in\n    tag_178:\n        /* \"#utility.yul\":8173:8261   */\n    tag_177:\n        /* \"#utility.yul\":8281:8291   */\n      dup1\n        /* \"#utility.yul\":8277:8279   */\n      0x40\n        /* \"#utility.yul\":8270:8292   */\n      mstore\n        /* \"#utility.yul\":8060:8298   */\n      pop\n        /* \"#utility.yul\":8017:8298   */\n      pop\n      pop\n      jump\t// out\n        /* \"#utility.yul\":8304:8484   */\n    tag_174:\n        /* \"#utility.yul\":8352:8429   */\n      0x4e487b7100000000000000000000000000000000000000000000000000000000\n        /* \"#utility.yul\":8349:8350   */\n      0x00\n        /* \"#utility.yul\":8342:8430   */\n      mstore\n        /* \"#utility.yul\":8449:8453   */\n      0x22\n        /* \"#utility.yul\":8446:8447   */\n      0x04\n        /* \"#utility.yul\":8439:8454   */\n      mstore\n        /* \"#utility.yul\":8473:8477   */\n      0x24\n        /* \"#utility.yul\":8470:8471   */\n      0x00\n        /* \"#utility.yul\":8463:8478   */\n      revert\n        /* \"#utility.yul\":8490:8670   */\n    tag_154:\n        /* \"#utility.yul\":8538:8615   */\n      0x4e487b7100000000000000000000000000000000000000000000000000000000\n        /* \"#utility.yul\":8535:8536   */\n      0x00\n        /* \"#utility.yul\":8528:8616   */\n      mstore\n        /* \"#utility.yul\":8635:8639   */\n      0x41\n        /* \"#utility.yul\":8632:8633   */\n      0x04\n        /* \"#utility.yul\":8625:8640   */\n      mstore\n        /* \"#utility.yul\":8659:8663   */\n      0x24\n        /* \"#utility.yul\":8656:8657   */\n      0x00\n        /* \"#utility.yul\":8649:8664   */\n      revert\n        /* \"#utility.yul\":8676:8793   */\n    tag_80:\n        /* \"#utility.yul\":8785:8786   */\n      0x00\n        /* \"#utility.yul\":8782:8783   */\n      dup1\n        /* \"#utility.yul\":8775:8787   */\n      revert\n        /* \"#utility.yul\":8799:8916   */\n    tag_73:\n        /* \"#utility.yul\":8908:8909   */\n      0x00\n        /* \"#utility.yul\":8905:8906   */\n      dup1\n        /* \"#utility.yul\":8898:8910   */\n      revert\n        /* \"#utility.yul\":8922:9039   */\n    tag_93:\n        /* \"#utility.yul\":9031:9032   */\n      0x00\n        /* \"#utility.yul\":9028:9029   */\n      dup1\n        /* \"#utility.yul\":9021:9033   */\n      revert\n        /* \"#utility.yul\":9045:9162   */\n    tag_89:\n        /* \"#utility.yul\":9154:9155   */\n      0x00\n        /* \"#utility.yul\":9151:9152   */\n      dup1\n        /* \"#utility.yul\":9144:9156   */\n      revert\n        /* \"#utility.yul\":9168:9270   */\n    tag_122:\n        /* \"#utility.yul\":9209:9215   */\n      0x00\n        /* \"#utility.yul\":9260:9262   */\n      0x1f\n        /* \"#utility.yul\":9256:9263   */\n      not\n        /* \"#utility.yul\":9251:9253   */\n      0x1f\n        /* \"#utility.yul\":9244:9249   */\n      dup4\n        /* \"#utility.yul\":9240:9254   */\n      add\n        /* \"#utility.yul\":9236:9264   */\n      and\n        /* \"#utility.yul\":9226:9264   */\n      swap1\n      pop\n        /* \"#utility.yul\":9168:9270   */\n      swap2\n      swap1\n      pop\n      jump\t// out\n        /* \"#utility.yul\":9276:9398   */\n    tag_85:\n        /* \"#utility.yul\":9349:9373   */\n      tag_187\n        /* \"#utility.yul\":9367:9372   */\n      dup2\n        /* \"#utility.yul\":9349:9373   */\n      tag_136\n      jump\t// in\n    tag_187:\n        /* \"#utility.yul\":9342:9347   */\n      dup2\n        /* \"#utility.yul\":9339:9374   */\n      eq\n        /* \"#utility.yul\":9329:9392   */\n      tag_188\n      jumpi\n        /* \"#utility.yul\":9388:9389   */\n      0x00\n        /* \"#utility.yul\":9385:9386   */\n      dup1\n        /* \"#utility.yul\":9378:9390   */\n      revert\n        /* \"#utility.yul\":9329:9392   */\n    tag_188:\n        /* \"#utility.yul\":9276:9398   */\n      pop\n      jump\t// out\n\n    auxdata: 0xa26469706673582212200bd7ba5977f3fbce56aed5cc0f317d8f07beca8389fbdfbc7c0131e35063ea9d64736f6c63430008070033\n}\n",
				"bytecode": {
					"linkReferences": {},
					"object": "608060405234801561001057600080fd5b50610988806100206000396000f3fe608060405234801561001057600080fd5b50600436106100365760003560e01c806382e76b881461003b578063c1da202014610059575b600080fd5b610043610075565b60405161005091906106fb565b60405180910390f35b610073600480360381019061006e9190610549565b6101ad565b005b6060600160003373ffffffffffffffffffffffffffffffffffffffff1673ffffffffffffffffffffffffffffffffffffffff168152602001908152602001600020805480602002602001604051908101604052809291908181526020016000905b828210156101a457838290600052602060002090600202016040518060400160405290816000820154815260200160018201805461011390610855565b80601f016020809104026020016040519081016040528092919081815260200182805461013f90610855565b801561018c5780601f106101615761010080835404028352916020019161018c565b820191906000526020600020905b81548152906001019060200180831161016f57829003601f168201915b505050505081525050815260200190600101906100d6565b50505050905090565b600060405180604001604052808481526020018381525090806001815401808255809150506001900390600052602060002090600202016000909190919091506000820151816000015560208201518160010190805190602001906102139291906102a3565b5050506000600160003373ffffffffffffffffffffffffffffffffffffffff1673ffffffffffffffffffffffffffffffffffffffff168152602001908152602001600020908054610265929190610329565b507f3c981eaf8f806637941d1237961055d66e8636b71bc453db0c9e245a154760fd828260405161029792919061071d565b60405180910390a15050565b8280546102af90610855565b90600052602060002090601f0160209004810192826102d15760008555610318565b82601f106102ea57805160ff1916838001178555610318565b82800160010185558215610318579182015b828111156103175782518255916020019190600101906102fc565b5b50905061032591906103ab565b5090565b82805482825590600052602060002090600202810192821561039a5760005260206000209160020282015b8281111561039957828260008201548160000155600182018160010190805461037c90610855565b6103879291906103c8565b50505091600201919060020190610354565b5b5090506103a79190610455565b5090565b5b808211156103c45760008160009055506001016103ac565b5090565b8280546103d490610855565b90600052602060002090601f0160209004810192826103f65760008555610444565b82601f106104075780548555610444565b8280016001018555821561044457600052602060002091601f016020900482015b82811115610443578254825591600101919060010190610428565b5b50905061045191906103ab565b5090565b5b80821115610480576000808201600090556001820160006104779190610484565b50600201610456565b5090565b50805461049090610855565b6000825580601f106104a257506104c1565b601f0160209004906000526020600020908101906104c091906103ab565b5b50565b60006104d76104d284610772565b61074d565b9050828152602081018484840111156104f3576104f261091b565b5b6104fe848285610813565b509392505050565b600082601f83011261051b5761051a610916565b5b813561052b8482602086016104c4565b91505092915050565b6000813590506105438161093b565b92915050565b600080604083850312156105605761055f610925565b5b600061056e85828601610534565b925050602083013567ffffffffffffffff81111561058f5761058e610920565b5b61059b85828601610506565b9150509250929050565b60006105b183836106a0565b905092915050565b60006105c4826107b3565b6105ce81856107d6565b9350836020820285016105e0856107a3565b8060005b8581101561061c57848403895281516105fd85826105a5565b9450610608836107c9565b925060208a019950506001810190506105e4565b50829750879550505050505092915050565b6000610639826107be565b61064381856107e7565b9350610653818560208601610822565b61065c8161092a565b840191505092915050565b6000610672826107be565b61067c81856107f8565b935061068c818560208601610822565b6106958161092a565b840191505092915050565b60006040830160008301516106b860008601826106dd565b50602083015184820360208601526106d0828261062e565b9150508091505092915050565b6106e681610809565b82525050565b6106f581610809565b82525050565b6000602082019050818103600083015261071581846105b9565b905092915050565b600060408201905061073260008301856106ec565b81810360208301526107448184610667565b90509392505050565b6000610757610768565b90506107638282610887565b919050565b6000604051905090565b600067ffffffffffffffff82111561078d5761078c6108e7565b5b6107968261092a565b9050602081019050919050565b6000819050602082019050919050565b600081519050919050565b600081519050919050565b6000602082019050919050565b600082825260208201905092915050565b600082825260208201905092915050565b600082825260208201905092915050565b6000819050919050565b82818337600083830152505050565b60005b83811015610840578082015181840152602081019050610825565b8381111561084f576000848401525b50505050565b6000600282049050600182168061086d57607f821691505b60208210811415610881576108806108b8565b5b50919050565b6108908261092a565b810181811067ffffffffffffffff821117156108af576108ae6108e7565b5b80604052505050565b7f4e487b7100000000000000000000000000000000000000000000000000000000600052602260045260246000fd5b7f4e487b7100000000000000000000000000000000000000000000000000000000600052604160045260246000fd5b600080fd5b600080fd5b600080fd5b600080fd5b6000601f19601f8301169050919050565b61094481610809565b811461094f57600080fd5b5056fea26469706673582212200bd7ba5977f3fbce56aed5cc0f317d8f07beca8389fbdfbc7c0131e35063ea9d64736f6c63430008070033",
					"opcodes": "PUSH1 0x80 PUSH1 0x40 MSTORE CALLVALUE DUP1 ISZERO PUSH2 0x10 JUMPI PUSH1 0x0 DUP1 REVERT JUMPDEST POP PUSH2 0x988 DUP1 PUSH2 0x20 PUSH1 0x0 CODECOPY PUSH1 0x0 RETURN INVALID PUSH1 0x80 PUSH1 0x40 MSTORE CALLVALUE DUP1 ISZERO PUSH2 0x10 JUMPI PUSH1 0x0 DUP1 REVERT JUMPDEST POP PUSH1 0x4 CALLDATASIZE LT PUSH2 0x36 JUMPI PUSH1 0x0 CALLDATALOAD PUSH1 0xE0 SHR DUP1 PUSH4 0x82E76B88 EQ PUSH2 0x3B JUMPI DUP1 PUSH4 0xC1DA2020 EQ PUSH2 0x59 JUMPI JUMPDEST PUSH1 0x0 DUP1 REVERT JUMPDEST PUSH2 0x43 PUSH2 0x75 JUMP JUMPDEST PUSH1 0x40 MLOAD PUSH2 0x50 SWAP2 SWAP1 PUSH2 0x6FB JUMP JUMPDEST PUSH1 0x40 MLOAD DUP1 SWAP2 SUB SWAP1 RETURN JUMPDEST PUSH2 0x73 PUSH1 0x4 DUP1 CALLDATASIZE SUB DUP2 ADD SWAP1 PUSH2 0x6E SWAP2 SWAP1 PUSH2 0x549 JUMP JUMPDEST PUSH2 0x1AD JUMP JUMPDEST STOP JUMPDEST PUSH1 0x60 PUSH1 0x1 PUSH1 0x0 CALLER PUSH20 0xFFFFFFFFFFFFFFFFFFFFFFFFFFFFFFFFFFFFFFFF AND PUSH20 0xFFFFFFFFFFFFFFFFFFFFFFFFFFFFFFFFFFFFFFFF AND DUP2 MSTORE PUSH1 0x20 ADD SWAP1 DUP2 MSTORE PUSH1 0x20 ADD PUSH1 0x0 KECCAK256 DUP1 SLOAD DUP1 PUSH1 0x20 MUL PUSH1 0x20 ADD PUSH1 0x40 MLOAD SWAP1 DUP2 ADD PUSH1 0x40 MSTORE DUP1 SWAP3 SWAP2 SWAP1 DUP2 DUP2 MSTORE PUSH1 0x20 ADD PUSH1 0x0 SWAP1 JUMPDEST DUP3 DUP3 LT ISZERO PUSH2 0x1A4 JUMPI DUP4 DUP3 SWAP1 PUSH1 0x0 MSTORE PUSH1 0x20 PUSH1 0x0 KECCAK256 SWAP1 PUSH1 0x2 MUL ADD PUSH1 0x40 MLOAD DUP1 PUSH1 0x40 ADD PUSH1 0x40 MSTORE SWAP1 DUP2 PUSH1 0x0 DUP3 ADD SLOAD DUP2 MSTORE PUSH1 0x20 ADD PUSH1 0x1 DUP3 ADD DUP1 SLOAD PUSH2 0x113 SWAP1 PUSH2 0x855 JUMP JUMPDEST DUP1 PUSH1 0x1F ADD PUSH1 0x20 DUP1 SWAP2 DIV MUL PUSH1 0x20 ADD PUSH1 0x40 MLOAD SWAP1 DUP2 ADD PUSH1 0x40 MSTORE DUP1 SWAP3 SWAP2 SWAP1 DUP2 DUP2 MSTORE PUSH1 0x20 ADD DUP3 DUP1 SLOAD PUSH2 0x13F SWAP1 PUSH2 0x855 JUMP JUMPDEST DUP1 ISZERO PUSH2 0x18C JUMPI DUP1 PUSH1 0x1F LT PUSH2 0x161 JUMPI PUSH2 0x100 DUP1 DUP4 SLOAD DIV MUL DUP4 MSTORE SWAP2 PUSH1 0x20 ADD SWAP2 PUSH2 0x18C JUMP JUMPDEST DUP3 ADD SWAP2 SWAP1 PUSH1 0x0 MSTORE PUSH1 0x20 PUSH1 0x0 KECCAK256 SWAP1 JUMPDEST DUP2 SLOAD DUP2 MSTORE SWAP1 PUSH1 0x1 ADD SWAP1 PUSH1 0x20 ADD DUP1 DUP4 GT PUSH2 0x16F JUMPI DUP3 SWAP1 SUB PUSH1 0x1F AND DUP3 ADD SWAP2 JUMPDEST POP POP POP POP POP DUP2 MSTORE POP POP DUP2 MSTORE PUSH1 0x20 ADD SWAP1 PUSH1 0x1 ADD SWAP1 PUSH2 0xD6 JUMP JUMPDEST POP POP POP POP SWAP1 POP SWAP1 JUMP JUMPDEST PUSH1 0x0 PUSH1 0x40 MLOAD DUP1 PUSH1 0x40 ADD PUSH1 0x40 MSTORE DUP1 DUP5 DUP2 MSTORE PUSH1 0x20 ADD DUP4 DUP2 MSTORE POP SWAP1 DUP1 PUSH1 0x1 DUP2 SLOAD ADD DUP1 DUP3 SSTORE DUP1 SWAP2 POP POP PUSH1 0x1 SWAP1 SUB SWAP1 PUSH1 0x0 MSTORE PUSH1 0x20 PUSH1 0x0 KECCAK256 SWAP1 PUSH1 0x2 MUL ADD PUSH1 0x0 SWAP1 SWAP2 SWAP1 SWAP2 SWAP1 SWAP2 POP PUSH1 0x0 DUP3 ADD MLOAD DUP2 PUSH1 0x0 ADD SSTORE PUSH1 0x20 DUP3 ADD MLOAD DUP2 PUSH1 0x1 ADD SWAP1 DUP1 MLOAD SWAP1 PUSH1 0x20 ADD SWAP1 PUSH2 0x213 SWAP3 SWAP2 SWAP1 PUSH2 0x2A3 JUMP JUMPDEST POP POP POP PUSH1 0x0 PUSH1 0x1 PUSH1 0x0 CALLER PUSH20 0xFFFFFFFFFFFFFFFFFFFFFFFFFFFFFFFFFFFFFFFF AND PUSH20 0xFFFFFFFFFFFFFFFFFFFFFFFFFFFFFFFFFFFFFFFF AND DUP2 MSTORE PUSH1 0x20 ADD SWAP1 DUP2 MSTORE PUSH1 0x20 ADD PUSH1 0x0 KECCAK256 SWAP1 DUP1 SLOAD PUSH2 0x265 SWAP3 SWAP2 SWAP1 PUSH2 0x329 JUMP JUMPDEST POP PUSH32 0x3C981EAF8F806637941D1237961055D66E8636B71BC453DB0C9E245A154760FD DUP3 DUP3 PUSH1 0x40 MLOAD PUSH2 0x297 SWAP3 SWAP2 SWAP1 PUSH2 0x71D JUMP JUMPDEST PUSH1 0x40 MLOAD DUP1 SWAP2 SUB SWAP1 LOG1 POP POP JUMP JUMPDEST DUP3 DUP1 SLOAD PUSH2 0x2AF SWAP1 PUSH2 0x855 JUMP JUMPDEST SWAP1 PUSH1 0x0 MSTORE PUSH1 0x20 PUSH1 0x0 KECCAK256 SWAP1 PUSH1 0x1F ADD PUSH1 0x20 SWAP1 DIV DUP2 ADD SWAP3 DUP3 PUSH2 0x2D1 JUMPI PUSH1 0x0 DUP6 SSTORE PUSH2 0x318 JUMP JUMPDEST DUP3 PUSH1 0x1F LT PUSH2 0x2EA JUMPI DUP1 MLOAD PUSH1 0xFF NOT AND DUP4 DUP1 ADD OR DUP6 SSTORE PUSH2 0x318 JUMP JUMPDEST DUP3 DUP1 ADD PUSH1 0x1 ADD DUP6 SSTORE DUP3 ISZERO PUSH2 0x318 JUMPI SWAP2 DUP3 ADD JUMPDEST DUP3 DUP2 GT ISZERO PUSH2 0x317 JUMPI DUP3 MLOAD DUP3 SSTORE SWAP2 PUSH1 0x20 ADD SWAP2 SWAP1 PUSH1 0x1 ADD SWAP1 PUSH2 0x2FC JUMP JUMPDEST JUMPDEST POP SWAP1 POP PUSH2 0x325 SWAP2 SWAP1 PUSH2 0x3AB JUMP JUMPDEST POP SWAP1 JUMP JUMPDEST DUP3 DUP1 SLOAD DUP3 DUP3 SSTORE SWAP1 PUSH1 0x0 MSTORE PUSH1 0x20 PUSH1 0x0 KECCAK256 SWAP1 PUSH1 0x2 MUL DUP2 ADD SWAP3 DUP3 ISZERO PUSH2 0x39A JUMPI PUSH1 0x0 MSTORE PUSH1 0x20 PUSH1 0x0 KECCAK256 SWAP2 PUSH1 0x2 MUL DUP3 ADD JUMPDEST DUP3 DUP2 GT ISZERO PUSH2 0x399 JUMPI DUP3 DUP3 PUSH1 0x0 DUP3 ADD SLOAD DUP2 PUSH1 0x0 ADD SSTORE PUSH1 0x1 DUP3 ADD DUP2 PUSH1 0x1 ADD SWAP1 DUP1 SLOAD PUSH2 0x37C SWAP1 PUSH2 0x855 JUMP JUMPDEST PUSH2 0x387 SWAP3 SWAP2 SWAP1 PUSH2 0x3C8 JUMP JUMPDEST POP POP POP SWAP2 PUSH1 0x2 ADD SWAP2 SWAP1 PUSH1 0x2 ADD SWAP1 PUSH2 0x354 JUMP JUMPDEST JUMPDEST POP SWAP1 POP PUSH2 0x3A7 SWAP2 SWAP1 PUSH2 0x455 JUMP JUMPDEST POP SWAP1 JUMP JUMPDEST JUMPDEST DUP1 DUP3 GT ISZERO PUSH2 0x3C4 JUMPI PUSH1 0x0 DUP2 PUSH1 0x0 SWAP1 SSTORE POP PUSH1 0x1 ADD PUSH2 0x3AC JUMP JUMPDEST POP SWAP1 JUMP JUMPDEST DUP3 DUP1 SLOAD PUSH2 0x3D4 SWAP1 PUSH2 0x855 JUMP JUMPDEST SWAP1 PUSH1 0x0 MSTORE PUSH1 0x20 PUSH1 0x0 KECCAK256 SWAP1 PUSH1 0x1F ADD PUSH1 0x20 SWAP1 DIV DUP2 ADD SWAP3 DUP3 PUSH2 0x3F6 JUMPI PUSH1 0x0 DUP6 SSTORE PUSH2 0x444 JUMP JUMPDEST DUP3 PUSH1 0x1F LT PUSH2 0x407 JUMPI DUP1 SLOAD DUP6 SSTORE PUSH2 0x444 JUMP JUMPDEST DUP3 DUP1 ADD PUSH1 0x1 ADD DUP6 SSTORE DUP3 ISZERO PUSH2 0x444 JUMPI PUSH1 0x0 MSTORE PUSH1 0x20 PUSH1 0x0 KECCAK256 SWAP2 PUSH1 0x1F ADD PUSH1 0x20 SWAP1 DIV DUP3 ADD JUMPDEST DUP3 DUP2 GT ISZERO PUSH2 0x443 JUMPI DUP3 SLOAD DUP3 SSTORE SWAP2 PUSH1 0x1 ADD SWAP2 SWAP1 PUSH1 0x1 ADD SWAP1 PUSH2 0x428 JUMP JUMPDEST JUMPDEST POP SWAP1 POP PUSH2 0x451 SWAP2 SWAP1 PUSH2 0x3AB JUMP JUMPDEST POP SWAP1 JUMP JUMPDEST JUMPDEST DUP1 DUP3 GT ISZERO PUSH2 0x480 JUMPI PUSH1 0x0 DUP1 DUP3 ADD PUSH1 0x0 SWAP1 SSTORE PUSH1 0x1 DUP3 ADD PUSH1 0x0 PUSH2 0x477 SWAP2 SWAP1 PUSH2 0x484 JUMP JUMPDEST POP PUSH1 0x2 ADD PUSH2 0x456 JUMP JUMPDEST POP SWAP1 JUMP JUMPDEST POP DUP1 SLOAD PUSH2 0x490 SWAP1 PUSH2 0x855 JUMP JUMPDEST PUSH1 0x0 DUP3 SSTORE DUP1 PUSH1 0x1F LT PUSH2 0x4A2 JUMPI POP PUSH2 0x4C1 JUMP JUMPDEST PUSH1 0x1F ADD PUSH1 0x20 SWAP1 DIV SWAP1 PUSH1 0x0 MSTORE PUSH1 0x20 PUSH1 0x0 KECCAK256 SWAP1 DUP2 ADD SWAP1 PUSH2 0x4C0 SWAP2 SWAP1 PUSH2 0x3AB JUMP JUMPDEST JUMPDEST POP JUMP JUMPDEST PUSH1 0x0 PUSH2 0x4D7 PUSH2 0x4D2 DUP5 PUSH2 0x772 JUMP JUMPDEST PUSH2 0x74D JUMP JUMPDEST SWAP1 POP DUP3 DUP2 MSTORE PUSH1 0x20 DUP2 ADD DUP5 DUP5 DUP5 ADD GT ISZERO PUSH2 0x4F3 JUMPI PUSH2 0x4F2 PUSH2 0x91B JUMP JUMPDEST JUMPDEST PUSH2 0x4FE DUP5 DUP3 DUP6 PUSH2 0x813 JUMP JUMPDEST POP SWAP4 SWAP3 POP POP POP JUMP JUMPDEST PUSH1 0x0 DUP3 PUSH1 0x1F DUP4 ADD SLT PUSH2 0x51B JUMPI PUSH2 0x51A PUSH2 0x916 JUMP JUMPDEST JUMPDEST DUP2 CALLDATALOAD PUSH2 0x52B DUP5 DUP3 PUSH1 0x20 DUP7 ADD PUSH2 0x4C4 JUMP JUMPDEST SWAP2 POP POP SWAP3 SWAP2 POP POP JUMP JUMPDEST PUSH1 0x0 DUP2 CALLDATALOAD SWAP1 POP PUSH2 0x543 DUP2 PUSH2 0x93B JUMP JUMPDEST SWAP3 SWAP2 POP POP JUMP JUMPDEST PUSH1 0x0 DUP1 PUSH1 0x40 DUP4 DUP6 SUB SLT ISZERO PUSH2 0x560 JUMPI PUSH2 0x55F PUSH2 0x925 JUMP JUMPDEST JUMPDEST PUSH1 0x0 PUSH2 0x56E DUP6 DUP3 DUP7 ADD PUSH2 0x534 JUMP JUMPDEST SWAP3 POP POP PUSH1 0x20 DUP4 ADD CALLDATALOAD PUSH8 0xFFFFFFFFFFFFFFFF DUP2 GT ISZERO PUSH2 0x58F JUMPI PUSH2 0x58E PUSH2 0x920 JUMP JUMPDEST JUMPDEST PUSH2 0x59B DUP6 DUP3 DUP7 ADD PUSH2 0x506 JUMP JUMPDEST SWAP2 POP POP SWAP3 POP SWAP3 SWAP1 POP JUMP JUMPDEST PUSH1 0x0 PUSH2 0x5B1 DUP4 DUP4 PUSH2 0x6A0 JUMP JUMPDEST SWAP1 POP SWAP3 SWAP2 POP POP JUMP JUMPDEST PUSH1 0x0 PUSH2 0x5C4 DUP3 PUSH2 0x7B3 JUMP JUMPDEST PUSH2 0x5CE DUP2 DUP6 PUSH2 0x7D6 JUMP JUMPDEST SWAP4 POP DUP4 PUSH1 0x20 DUP3 MUL DUP6 ADD PUSH2 0x5E0 DUP6 PUSH2 0x7A3 JUMP JUMPDEST DUP1 PUSH1 0x0 JUMPDEST DUP6 DUP2 LT ISZERO PUSH2 0x61C JUMPI DUP5 DUP5 SUB DUP10 MSTORE DUP2 MLOAD PUSH2 0x5FD DUP6 DUP3 PUSH2 0x5A5 JUMP JUMPDEST SWAP5 POP PUSH2 0x608 DUP4 PUSH2 0x7C9 JUMP JUMPDEST SWAP3 POP PUSH1 0x20 DUP11 ADD SWAP10 POP POP PUSH1 0x1 DUP2 ADD SWAP1 POP PUSH2 0x5E4 JUMP JUMPDEST POP DUP3 SWAP8 POP DUP8 SWAP6 POP POP POP POP POP POP SWAP3 SWAP2 POP POP JUMP JUMPDEST PUSH1 0x0 PUSH2 0x639 DUP3 PUSH2 0x7BE JUMP JUMPDEST PUSH2 0x643 DUP2 DUP6 PUSH2 0x7E7 JUMP JUMPDEST SWAP4 POP PUSH2 0x653 DUP2 DUP6 PUSH1 0x20 DUP7 ADD PUSH2 0x822 JUMP JUMPDEST PUSH2 0x65C DUP2 PUSH2 0x92A JUMP JUMPDEST DUP5 ADD SWAP2 POP POP SWAP3 SWAP2 POP POP JUMP JUMPDEST PUSH1 0x0 PUSH2 0x672 DUP3 PUSH2 0x7BE JUMP JUMPDEST PUSH2 0x67C DUP2 DUP6 PUSH2 0x7F8 JUMP JUMPDEST SWAP4 POP PUSH2 0x68C DUP2 DUP6 PUSH1 0x20 DUP7 ADD PUSH2 0x822 JUMP JUMPDEST PUSH2 0x695 DUP2 PUSH2 0x92A JUMP JUMPDEST DUP5 ADD SWAP2 POP POP SWAP3 SWAP2 POP POP JUMP JUMPDEST PUSH1 0x0 PUSH1 0x40 DUP4 ADD PUSH1 0x0 DUP4 ADD MLOAD PUSH2 0x6B8 PUSH1 0x0 DUP7 ADD DUP3 PUSH2 0x6DD JUMP JUMPDEST POP PUSH1 0x20 DUP4 ADD MLOAD DUP5 DUP3 SUB PUSH1 0x20 DUP7 ADD MSTORE PUSH2 0x6D0 DUP3 DUP3 PUSH2 0x62E JUMP JUMPDEST SWAP2 POP POP DUP1 SWAP2 POP POP SWAP3 SWAP2 POP POP JUMP JUMPDEST PUSH2 0x6E6 DUP2 PUSH2 0x809 JUMP JUMPDEST DUP3 MSTORE POP POP JUMP JUMPDEST PUSH2 0x6F5 DUP2 PUSH2 0x809 JUMP JUMPDEST DUP3 MSTORE POP POP JUMP JUMPDEST PUSH1 0x0 PUSH1 0x20 DUP3 ADD SWAP1 POP DUP2 DUP2 SUB PUSH1 0x0 DUP4 ADD MSTORE PUSH2 0x715 DUP2 DUP5 PUSH2 0x5B9 JUMP JUMPDEST SWAP1 POP SWAP3 SWAP2 POP POP JUMP JUMPDEST PUSH1 0x0 PUSH1 0x40 DUP3 ADD SWAP1 POP PUSH2 0x732 PUSH1 0x0 DUP4 ADD DUP6 PUSH2 0x6EC JUMP JUMPDEST DUP2 DUP2 SUB PUSH1 0x20 DUP4 ADD MSTORE PUSH2 0x744 DUP2 DUP5 PUSH2 0x667 JUMP JUMPDEST SWAP1 POP SWAP4 SWAP3 POP POP POP JUMP JUMPDEST PUSH1 0x0 PUSH2 0x757 PUSH2 0x768 JUMP JUMPDEST SWAP1 POP PUSH2 0x763 DUP3 DUP3 PUSH2 0x887 JUMP JUMPDEST SWAP2 SWAP1 POP JUMP JUMPDEST PUSH1 0x0 PUSH1 0x40 MLOAD SWAP1 POP SWAP1 JUMP JUMPDEST PUSH1 0x0 PUSH8 0xFFFFFFFFFFFFFFFF DUP3 GT ISZERO PUSH2 0x78D JUMPI PUSH2 0x78C PUSH2 0x8E7 JUMP JUMPDEST JUMPDEST PUSH2 0x796 DUP3 PUSH2 0x92A JUMP JUMPDEST SWAP1 POP PUSH1 0x20 DUP2 ADD SWAP1 POP SWAP2 SWAP1 POP JUMP JUMPDEST PUSH1 0x0 DUP2 SWAP1 POP PUSH1 0x20 DUP3 ADD SWAP1 POP SWAP2 SWAP1 POP JUMP JUMPDEST PUSH1 0x0 DUP2 MLOAD SWAP1 POP SWAP2 SWAP1 POP JUMP JUMPDEST PUSH1 0x0 DUP2 MLOAD SWAP1 POP SWAP2 SWAP1 POP JUMP JUMPDEST PUSH1 0x0 PUSH1 0x20 DUP3 ADD SWAP1 POP SWAP2 SWAP1 POP JUMP JUMPDEST PUSH1 0x0 DUP3 DUP3 MSTORE PUSH1 0x20 DUP3 ADD SWAP1 POP SWAP3 SWAP2 POP POP JUMP JUMPDEST PUSH1 0x0 DUP3 DUP3 MSTORE PUSH1 0x20 DUP3 ADD SWAP1 POP SWAP3 SWAP2 POP POP JUMP JUMPDEST PUSH1 0x0 DUP3 DUP3 MSTORE PUSH1 0x20 DUP3 ADD SWAP1 POP SWAP3 SWAP2 POP POP JUMP JUMPDEST PUSH1 0x0 DUP2 SWAP1 POP SWAP2 SWAP1 POP JUMP JUMPDEST DUP3 DUP2 DUP4 CALLDATACOPY PUSH1 0x0 DUP4 DUP4 ADD MSTORE POP POP POP JUMP JUMPDEST PUSH1 0x0 JUMPDEST DUP4 DUP2 LT ISZERO PUSH2 0x840 JUMPI DUP1 DUP3 ADD MLOAD DUP2 DUP5 ADD MSTORE PUSH1 0x20 DUP2 ADD SWAP1 POP PUSH2 0x825 JUMP JUMPDEST DUP4 DUP2 GT ISZERO PUSH2 0x84F JUMPI PUSH1 0x0 DUP5 DUP5 ADD MSTORE JUMPDEST POP POP POP POP JUMP JUMPDEST PUSH1 0x0 PUSH1 0x2 DUP3 DIV SWAP1 POP PUSH1 0x1 DUP3 AND DUP1 PUSH2 0x86D JUMPI PUSH1 0x7F DUP3 AND SWAP2 POP JUMPDEST PUSH1 0x20 DUP3 LT DUP2 EQ ISZERO PUSH2 0x881 JUMPI PUSH2 0x880 PUSH2 0x8B8 JUMP JUMPDEST JUMPDEST POP SWAP2 SWAP1 POP JUMP JUMPDEST PUSH2 0x890 DUP3 PUSH2 0x92A JUMP JUMPDEST DUP2 ADD DUP2 DUP2 LT PUSH8 0xFFFFFFFFFFFFFFFF DUP3 GT OR ISZERO PUSH2 0x8AF JUMPI PUSH2 0x8AE PUSH2 0x8E7 JUMP JUMPDEST JUMPDEST DUP1 PUSH1 0x40 MSTORE POP POP POP JUMP JUMPDEST PUSH32 0x4E487B7100000000000000000000000000000000000000000000000000000000 PUSH1 0x0 MSTORE PUSH1 0x22 PUSH1 0x4 MSTORE PUSH1 0x24 PUSH1 0x0 REVERT JUMPDEST PUSH32 0x4E487B7100000000000000000000000000000000000000000000000000000000 PUSH1 0x0 MSTORE PUSH1 0x41 PUSH1 0x4 MSTORE PUSH1 0x24 PUSH1 0x0 REVERT JUMPDEST PUSH1 0x0 DUP1 REVERT JUMPDEST PUSH1 0x0 DUP1 REVERT JUMPDEST PUSH1 0x0 DUP1 REVERT JUMPDEST PUSH1 0x0 DUP1 REVERT JUMPDEST PUSH1 0x0 PUSH1 0x1F NOT PUSH1 0x1F DUP4 ADD AND SWAP1 POP SWAP2 SWAP1 POP JUMP JUMPDEST PUSH2 0x944 DUP2 PUSH2 0x809 JUMP JUMPDEST DUP2 EQ PUSH2 0x94F JUMPI PUSH1 0x0 DUP1 REVERT JUMPDEST POP JUMP INVALID LOG2 PUSH5 0x6970667358 0x22 SLT KECCAK256 SIGNEXTEND 0xD7 0xBA MSIZE PUSH24 0xF3FBCE56AED5CC0F317D8F07BECA8389FBDFBC7C0131E350 PUSH4 0xEA9D6473 PUSH16 0x6C634300080700330000000000000000 "
				},
				"gasEstimates": {
					"creation": {
						"codeDepositCost": "488000",
						"executionCost": "524",
						"totalCost": "488524"
					},
					"external": {
						"addTodo(uint256,string)": "infinite",
						"showTodo()": "infinite"
					}
				},
				"methodIdentifiers": {
					"addTodo(uint256,string)": "c1da2020",
					"showTodo()": "82e76b88"
				}
			},
			"storageLayout": {
				"storage": [
					{
						"astId": 16,
						"contract": "todomain.sol:TodoMain",
						"label": "todos",
						"offset": 0,
						"slot": "0",
						"type": "t_array(t_struct(TodoObj)6_storage)dyn_storage"
					},
					{
						"astId": 22,
						"contract": "todomain.sol:TodoMain",
						"label": "todoMap",
						"offset": 0,
						"slot": "1",
						"type": "t_mapping(t_address,t_array(t_struct(TodoObj)6_storage)dyn_storage)"
					}
				],
				"types": {
					"t_address": {
						"encoding": "inplace",
						"label": "address",
						"numberOfBytes": "20"
					},
					"t_array(t_struct(TodoObj)6_storage)dyn_storage": {
						"base": "t_struct(TodoObj)6_storage",
						"encoding": "dynamic_array",
						"label": "struct TodoMain.TodoObj[]",
						"numberOfBytes": "32"
					},
					"t_mapping(t_address,t_array(t_struct(TodoObj)6_storage)dyn_storage)": {
						"encoding": "mapping",
						"key": "t_address",
						"label": "mapping(address => struct TodoMain.TodoObj[])",
						"numberOfBytes": "32",
						"value": "t_array(t_struct(TodoObj)6_storage)dyn_storage"
					},
					"t_string_storage": {
						"encoding": "bytes",
						"label": "string",
						"numberOfBytes": "32"
					},
					"t_struct(TodoObj)6_storage": {
						"encoding": "inplace",
						"label": "struct TodoMain.TodoObj",
						"members": [
							{
								"astId": 3,
								"contract": "todomain.sol:TodoMain",
								"label": "id",
								"offset": 0,
								"slot": "0",
								"type": "t_uint256"
							},
							{
								"astId": 5,
								"contract": "todomain.sol:TodoMain",
								"label": "todoName",
								"offset": 0,
								"slot": "1",
								"type": "t_string_storage"
							}
						],
						"numberOfBytes": "64"
					},
					"t_uint256": {
						"encoding": "inplace",
						"label": "uint256",
						"numberOfBytes": "32"
					}
				}
			},
			"userdoc": {
				"kind": "user",
				"methods": {},
				"version": 1
			}
		}
	}
}