{
	"arr.sol": {
		"Arr": {
			"abi": [
				{
					"inputs": [
						{
							"internalType": "uint256",
							"name": "",
							"type": "uint256"
						}
					],
					"name": "arrName",
					"outputs": [
						{
							"internalType": "uint256",
							"name": "",
							"type": "uint256"
						}
					],
					"stateMutability": "view",
					"type": "function"
				},
				{
					"inputs": [],
					"name": "lengthGetter",
					"outputs": [
						{
							"internalType": "uint256",
							"name": "",
							"type": "uint256"
						}
					],
					"stateMutability": "view",
					"type": "function"
				},
				{
					"inputs": [
						{
							"internalType": "uint256",
							"name": "index",
							"type": "uint256"
						},
						{
							"internalType": "uint256",
							"name": "value",
							"type": "uint256"
						}
					],
					"name": "setter",
					"outputs": [],
					"stateMutability": "nonpayable",
					"type": "function"
				}
			],
			"devdoc": {
				"kind": "dev",
				"methods": {},
				"version": 1
			},
			"evm": {
				"assembly": "    /* \"arr.sol\":64:313  contract Arr{\r... */\n  mstore(0x40, 0x80)\n    /* \"arr.sol\":83:117  uint[4] public arrName = [1,2,3,4] */\n  mload(0x40)\n  dup1\n  0x80\n  add\n  0x40\n  mstore\n  dup1\n    /* \"arr.sol\":109:110  1 */\n  0x01\n    /* \"arr.sol\":83:117  uint[4] public arrName = [1,2,3,4] */\n  0xff\n  and\n  dup2\n  mstore\n  0x20\n  add\n    /* \"arr.sol\":111:112  2 */\n  0x02\n    /* \"arr.sol\":83:117  uint[4] public arrName = [1,2,3,4] */\n  0xff\n  and\n  dup2\n  mstore\n  0x20\n  add\n    /* \"arr.sol\":113:114  3 */\n  0x03\n    /* \"arr.sol\":83:117  uint[4] public arrName = [1,2,3,4] */\n  0xff\n  and\n  dup2\n  mstore\n  0x20\n  add\n    /* \"arr.sol\":115:116  4 */\n  0x04\n    /* \"arr.sol\":83:117  uint[4] public arrName = [1,2,3,4] */\n  0xff\n  and\n  dup2\n  mstore\n  pop\n  0x00\n  swap1\n  0x04\n  tag_1\n  swap3\n  swap2\n  swap1\n  tag_2\n  jump\t// in\ntag_1:\n  pop\n    /* \"arr.sol\":64:313  contract Arr{\r... */\n  callvalue\n  dup1\n  iszero\n  tag_3\n  jumpi\n  0x00\n  dup1\n  revert\ntag_3:\n  pop\n  jump(tag_4)\ntag_2:\n  dup3\n  0x04\n  dup2\n  add\n  swap3\n  dup3\n  iszero\n  tag_5\n  jumpi\n  swap2\n  0x20\n  mul\n  dup3\n  add\ntag_6:\n  dup3\n  dup2\n  gt\n  iszero\n  tag_7\n  jumpi\n  dup3\n  mload\n  dup3\n  swap1\n  0xff\n  and\n  swap1\n  sstore\n  swap2\n  0x20\n  add\n  swap2\n  swap1\n  0x01\n  add\n  swap1\n  jump(tag_6)\ntag_7:\ntag_5:\n  pop\n  swap1\n  pop\n  tag_8\n  swap2\n  swap1\n  tag_9\n  jump\t// in\ntag_8:\n  pop\n  swap1\n  jump\t// out\ntag_9:\ntag_10:\n  dup1\n  dup3\n  gt\n  iszero\n  tag_11\n  jumpi\n  0x00\n  dup2\n  0x00\n  swap1\n  sstore\n  pop\n  0x01\n  add\n  jump(tag_10)\ntag_11:\n  pop\n  swap1\n  jump\t// out\ntag_4:\n  dataSize(sub_0)\n  dup1\n  dataOffset(sub_0)\n  0x00\n  codecopy\n  0x00\n  return\nstop\n\nsub_0: assembly {\n        /* \"arr.sol\":64:313  contract Arr{\r... */\n      mstore(0x40, 0x80)\n      callvalue\n      dup1\n      iszero\n      tag_1\n      jumpi\n      0x00\n      dup1\n      revert\n    tag_1:\n      pop\n      jumpi(tag_2, lt(calldatasize, 0x04))\n      shr(0xe0, calldataload(0x00))\n      dup1\n      0x01d31031\n      eq\n      tag_3\n      jumpi\n      dup1\n      0x5298f36d\n      eq\n      tag_4\n      jumpi\n      dup1\n      0x9461b9f8\n      eq\n      tag_5\n      jumpi\n    tag_2:\n      0x00\n      dup1\n      revert\n        /* \"arr.sol\":83:117  uint[4] public arrName = [1,2,3,4] */\n    tag_3:\n      tag_6\n      0x04\n      dup1\n      calldatasize\n      sub\n      dup2\n      add\n      swap1\n      tag_7\n      swap2\n      swap1\n      tag_8\n      jump\t// in\n    tag_7:\n      tag_9\n      jump\t// in\n    tag_6:\n      mload(0x40)\n      tag_10\n      swap2\n      swap1\n      tag_11\n      jump\t// in\n    tag_10:\n      mload(0x40)\n      dup1\n      swap2\n      sub\n      swap1\n      return\n        /* \"arr.sol\":126:213  function setter(uint index, uint value) public{\r... */\n    tag_4:\n      tag_12\n      0x04\n      dup1\n      calldatasize\n      sub\n      dup2\n      add\n      swap1\n      tag_13\n      swap2\n      swap1\n      tag_14\n      jump\t// in\n    tag_13:\n      tag_15\n      jump\t// in\n    tag_12:\n      stop\n        /* \"arr.sol\":221:310  function lengthGetter() public view returns(uint){\r... */\n    tag_5:\n      tag_16\n      tag_17\n      jump\t// in\n    tag_16:\n      mload(0x40)\n      tag_18\n      swap2\n      swap1\n      tag_11\n      jump\t// in\n    tag_18:\n      mload(0x40)\n      dup1\n      swap2\n      sub\n      swap1\n      return\n        /* \"arr.sol\":83:117  uint[4] public arrName = [1,2,3,4] */\n    tag_9:\n      0x00\n      dup2\n      0x04\n      dup2\n      lt\n      tag_19\n      jumpi\n      0x00\n      dup1\n      revert\n    tag_19:\n      add\n      0x00\n      swap2\n      pop\n      swap1\n      pop\n      sload\n      dup2\n      jump\t// out\n        /* \"arr.sol\":126:213  function setter(uint index, uint value) public{\r... */\n    tag_15:\n        /* \"arr.sol\":200:205  value */\n      dup1\n        /* \"arr.sol\":183:190  arrName */\n      0x00\n        /* \"arr.sol\":191:196  index */\n      dup4\n        /* \"arr.sol\":183:197  arrName[index] */\n      0x04\n      dup2\n      lt\n      tag_22\n      jumpi\n      tag_23\n      tag_24\n      jump\t// in\n    tag_23:\n    tag_22:\n      add\n        /* \"arr.sol\":183:205  arrName[index] = value */\n      dup2\n      swap1\n      sstore\n      pop\n        /* \"arr.sol\":126:213  function setter(uint index, uint value) public{\r... */\n      pop\n      pop\n      jump\t// out\n        /* \"arr.sol\":221:310  function lengthGetter() public view returns(uint){\r... */\n    tag_17:\n        /* \"arr.sol\":265:269  uint */\n      0x00\n        /* \"arr.sol\":288:302  arrName.length */\n      0x04\n        /* \"arr.sol\":281:302  return arrName.length */\n      swap1\n      pop\n        /* \"arr.sol\":221:310  function lengthGetter() public view returns(uint){\r... */\n      swap1\n      jump\t// out\n        /* \"#utility.yul\":7:146   */\n    tag_28:\n        /* \"#utility.yul\":53:58   */\n      0x00\n        /* \"#utility.yul\":91:97   */\n      dup2\n        /* \"#utility.yul\":78:98   */\n      calldataload\n        /* \"#utility.yul\":69:98   */\n      swap1\n      pop\n        /* \"#utility.yul\":107:140   */\n      tag_30\n        /* \"#utility.yul\":134:139   */\n      dup2\n        /* \"#utility.yul\":107:140   */\n      tag_31\n      jump\t// in\n    tag_30:\n        /* \"#utility.yul\":7:146   */\n      swap3\n      swap2\n      pop\n      pop\n      jump\t// out\n        /* \"#utility.yul\":152:481   */\n    tag_8:\n        /* \"#utility.yul\":211:217   */\n      0x00\n        /* \"#utility.yul\":260:262   */\n      0x20\n        /* \"#utility.yul\":248:257   */\n      dup3\n        /* \"#utility.yul\":239:246   */\n      dup5\n        /* \"#utility.yul\":235:258   */\n      sub\n        /* \"#utility.yul\":231:263   */\n      slt\n        /* \"#utility.yul\":228:347   */\n      iszero\n      tag_33\n      jumpi\n        /* \"#utility.yul\":266:345   */\n      tag_34\n      tag_35\n      jump\t// in\n    tag_34:\n        /* \"#utility.yul\":228:347   */\n    tag_33:\n        /* \"#utility.yul\":386:387   */\n      0x00\n        /* \"#utility.yul\":411:464   */\n      tag_36\n        /* \"#utility.yul\":456:463   */\n      dup5\n        /* \"#utility.yul\":447:453   */\n      dup3\n        /* \"#utility.yul\":436:445   */\n      dup6\n        /* \"#utility.yul\":432:454   */\n      add\n        /* \"#utility.yul\":411:464   */\n      tag_28\n      jump\t// in\n    tag_36:\n        /* \"#utility.yul\":401:464   */\n      swap2\n      pop\n        /* \"#utility.yul\":357:474   */\n      pop\n        /* \"#utility.yul\":152:481   */\n      swap3\n      swap2\n      pop\n      pop\n      jump\t// out\n        /* \"#utility.yul\":487:961   */\n    tag_14:\n        /* \"#utility.yul\":555:561   */\n      0x00\n        /* \"#utility.yul\":563:569   */\n      dup1\n        /* \"#utility.yul\":612:614   */\n      0x40\n        /* \"#utility.yul\":600:609   */\n      dup4\n        /* \"#utility.yul\":591:598   */\n      dup6\n        /* \"#utility.yul\":587:610   */\n      sub\n        /* \"#utility.yul\":583:615   */\n      slt\n        /* \"#utility.yul\":580:699   */\n      iszero\n      tag_38\n      jumpi\n        /* \"#utility.yul\":618:697   */\n      tag_39\n      tag_35\n      jump\t// in\n    tag_39:\n        /* \"#utility.yul\":580:699   */\n    tag_38:\n        /* \"#utility.yul\":738:739   */\n      0x00\n        /* \"#utility.yul\":763:816   */\n      tag_40\n        /* \"#utility.yul\":808:815   */\n      dup6\n        /* \"#utility.yul\":799:805   */\n      dup3\n        /* \"#utility.yul\":788:797   */\n      dup7\n        /* \"#utility.yul\":784:806   */\n      add\n        /* \"#utility.yul\":763:816   */\n      tag_28\n      jump\t// in\n    tag_40:\n        /* \"#utility.yul\":753:816   */\n      swap3\n      pop\n        /* \"#utility.yul\":709:826   */\n      pop\n        /* \"#utility.yul\":865:867   */\n      0x20\n        /* \"#utility.yul\":891:944   */\n      tag_41\n        /* \"#utility.yul\":936:943   */\n      dup6\n        /* \"#utility.yul\":927:933   */\n      dup3\n        /* \"#utility.yul\":916:925   */\n      dup7\n        /* \"#utility.yul\":912:934   */\n      add\n        /* \"#utility.yul\":891:944   */\n      tag_28\n      jump\t// in\n    tag_41:\n        /* \"#utility.yul\":881:944   */\n      swap2\n      pop\n        /* \"#utility.yul\":836:954   */\n      pop\n        /* \"#utility.yul\":487:961   */\n      swap3\n      pop\n      swap3\n      swap1\n      pop\n      jump\t// out\n        /* \"#utility.yul\":967:1085   */\n    tag_42:\n        /* \"#utility.yul\":1054:1078   */\n      tag_44\n        /* \"#utility.yul\":1072:1077   */\n      dup2\n        /* \"#utility.yul\":1054:1078   */\n      tag_45\n      jump\t// in\n    tag_44:\n        /* \"#utility.yul\":1049:1052   */\n      dup3\n        /* \"#utility.yul\":1042:1079   */\n      mstore\n        /* \"#utility.yul\":967:1085   */\n      pop\n      pop\n      jump\t// out\n        /* \"#utility.yul\":1091:1313   */\n    tag_11:\n        /* \"#utility.yul\":1184:1188   */\n      0x00\n        /* \"#utility.yul\":1222:1224   */\n      0x20\n        /* \"#utility.yul\":1211:1220   */\n      dup3\n        /* \"#utility.yul\":1207:1225   */\n      add\n        /* \"#utility.yul\":1199:1225   */\n      swap1\n      pop\n        /* \"#utility.yul\":1235:1306   */\n      tag_47\n        /* \"#utility.yul\":1303:1304   */\n      0x00\n        /* \"#utility.yul\":1292:1301   */\n      dup4\n        /* \"#utility.yul\":1288:1305   */\n      add\n        /* \"#utility.yul\":1279:1285   */\n      dup5\n        /* \"#utility.yul\":1235:1306   */\n      tag_42\n      jump\t// in\n    tag_47:\n        /* \"#utility.yul\":1091:1313   */\n      swap3\n      swap2\n      pop\n      pop\n      jump\t// out\n        /* \"#utility.yul\":1400:1477   */\n    tag_45:\n        /* \"#utility.yul\":1437:1444   */\n      0x00\n        /* \"#utility.yul\":1466:1471   */\n      dup2\n        /* \"#utility.yul\":1455:1471   */\n      swap1\n      pop\n        /* \"#utility.yul\":1400:1477   */\n      swap2\n      swap1\n      pop\n      jump\t// out\n        /* \"#utility.yul\":1483:1663   */\n    tag_24:\n        /* \"#utility.yul\":1531:1608   */\n      0x4e487b7100000000000000000000000000000000000000000000000000000000\n        /* \"#utility.yul\":1528:1529   */\n      0x00\n        /* \"#utility.yul\":1521:1609   */\n      mstore\n        /* \"#utility.yul\":1628:1632   */\n      0x32\n        /* \"#utility.yul\":1625:1626   */\n      0x04\n        /* \"#utility.yul\":1618:1633   */\n      mstore\n        /* \"#utility.yul\":1652:1656   */\n      0x24\n        /* \"#utility.yul\":1649:1650   */\n      0x00\n        /* \"#utility.yul\":1642:1657   */\n      revert\n        /* \"#utility.yul\":1792:1909   */\n    tag_35:\n        /* \"#utility.yul\":1901:1902   */\n      0x00\n        /* \"#utility.yul\":1898:1899   */\n      dup1\n        /* \"#utility.yul\":1891:1903   */\n      revert\n        /* \"#utility.yul\":1915:2037   */\n    tag_31:\n        /* \"#utility.yul\":1988:2012   */\n      tag_56\n        /* \"#utility.yul\":2006:2011   */\n      dup2\n        /* \"#utility.yul\":1988:2012   */\n      tag_45\n      jump\t// in\n    tag_56:\n        /* \"#utility.yul\":1981:1986   */\n      dup2\n        /* \"#utility.yul\":1978:2013   */\n      eq\n        /* \"#utility.yul\":1968:2031   */\n      tag_57\n      jumpi\n        /* \"#utility.yul\":2027:2028   */\n      0x00\n        /* \"#utility.yul\":2024:2025   */\n      dup1\n        /* \"#utility.yul\":2017:2029   */\n      revert\n        /* \"#utility.yul\":1968:2031   */\n    tag_57:\n        /* \"#utility.yul\":1915:2037   */\n      pop\n      jump\t// out\n\n    auxdata: 0xa2646970667358221220306f621c03f37b76fb098269ea17a5348ef4ba1119c77513ee4c5d3544a7f42f64736f6c63430008070033\n}\n",
				"bytecode": {
					"linkReferences": {},
					"object": "60806040526040518060800160405280600160ff168152602001600260ff168152602001600360ff168152602001600460ff168152506000906004610045929190610058565b5034801561005257600080fd5b506100ba565b826004810192821561008c579160200282015b8281111561008b578251829060ff1690559160200191906001019061006b565b5b509050610099919061009d565b5090565b5b808211156100b657600081600090555060010161009e565b5090565b610229806100c96000396000f3fe608060405234801561001057600080fd5b50600436106100415760003560e01c806301d31031146100465780635298f36d146100765780639461b9f814610092575b600080fd5b610060600480360381019061005b9190610107565b6100b0565b60405161006d9190610183565b60405180910390f35b610090600480360381019061008b9190610134565b6100cb565b005b61009a6100e9565b6040516100a79190610183565b60405180910390f35b600081600481106100c057600080fd5b016000915090505481565b80600083600481106100e0576100df6101a8565b5b01819055505050565b60006004905090565b600081359050610101816101dc565b92915050565b60006020828403121561011d5761011c6101d7565b5b600061012b848285016100f2565b91505092915050565b6000806040838503121561014b5761014a6101d7565b5b6000610159858286016100f2565b925050602061016a858286016100f2565b9150509250929050565b61017d8161019e565b82525050565b60006020820190506101986000830184610174565b92915050565b6000819050919050565b7f4e487b7100000000000000000000000000000000000000000000000000000000600052603260045260246000fd5b600080fd5b6101e58161019e565b81146101f057600080fd5b5056fea2646970667358221220306f621c03f37b76fb098269ea17a5348ef4ba1119c77513ee4c5d3544a7f42f64736f6c63430008070033",
					"opcodes": "PUSH1 0x80 PUSH1 0x40 MSTORE PUSH1 0x40 MLOAD DUP1 PUSH1 0x80 ADD PUSH1 0x40 MSTORE DUP1 PUSH1 0x1 PUSH1 0xFF AND DUP2 MSTORE PUSH1 0x20 ADD PUSH1 0x2 PUSH1 0xFF AND DUP2 MSTORE PUSH1 0x20 ADD PUSH1 0x3 PUSH1 0xFF AND DUP2 MSTORE PUSH1 0x20 ADD PUSH1 0x4 PUSH1 0xFF AND DUP2 MSTORE POP PUSH1 0x0 SWAP1 PUSH1 0x4 PUSH2 0x45 SWAP3 SWAP2 SWAP1 PUSH2 0x58 JUMP JUMPDEST POP CALLVALUE DUP1 ISZERO PUSH2 0x52 JUMPI PUSH1 0x0 DUP1 REVERT JUMPDEST POP PUSH2 0xBA JUMP JUMPDEST DUP3 PUSH1 0x4 DUP2 ADD SWAP3 DUP3 ISZERO PUSH2 0x8C JUMPI SWAP2 PUSH1 0x20 MUL DUP3 ADD JUMPDEST DUP3 DUP2 GT ISZERO PUSH2 0x8B JUMPI DUP3 MLOAD DUP3 SWAP1 PUSH1 0xFF AND SWAP1 SSTORE SWAP2 PUSH1 0x20 ADD SWAP2 SWAP1 PUSH1 0x1 ADD SWAP1 PUSH2 0x6B JUMP JUMPDEST JUMPDEST POP SWAP1 POP PUSH2 0x99 SWAP2 SWAP1 PUSH2 0x9D JUMP JUMPDEST POP SWAP1 JUMP JUMPDEST JUMPDEST DUP1 DUP3 GT ISZERO PUSH2 0xB6 JUMPI PUSH1 0x0 DUP2 PUSH1 0x0 SWAP1 SSTORE POP PUSH1 0x1 ADD PUSH2 0x9E JUMP JUMPDEST POP SWAP1 JUMP JUMPDEST PUSH2 0x229 DUP1 PUSH2 0xC9 PUSH1 0x0 CODECOPY PUSH1 0x0 RETURN INVALID PUSH1 0x80 PUSH1 0x40 MSTORE CALLVALUE DUP1 ISZERO PUSH2 0x10 JUMPI PUSH1 0x0 DUP1 REVERT JUMPDEST POP PUSH1 0x4 CALLDATASIZE LT PUSH2 0x41 JUMPI PUSH1 0x0 CALLDATALOAD PUSH1 0xE0 SHR DUP1 PUSH4 0x1D31031 EQ PUSH2 0x46 JUMPI DUP1 PUSH4 0x5298F36D EQ PUSH2 0x76 JUMPI DUP1 PUSH4 0x9461B9F8 EQ PUSH2 0x92 JUMPI JUMPDEST PUSH1 0x0 DUP1 REVERT JUMPDEST PUSH2 0x60 PUSH1 0x4 DUP1 CALLDATASIZE SUB DUP2 ADD SWAP1 PUSH2 0x5B SWAP2 SWAP1 PUSH2 0x107 JUMP JUMPDEST PUSH2 0xB0 JUMP JUMPDEST PUSH1 0x40 MLOAD PUSH2 0x6D SWAP2 SWAP1 PUSH2 0x183 JUMP JUMPDEST PUSH1 0x40 MLOAD DUP1 SWAP2 SUB SWAP1 RETURN JUMPDEST PUSH2 0x90 PUSH1 0x4 DUP1 CALLDATASIZE SUB DUP2 ADD SWAP1 PUSH2 0x8B SWAP2 SWAP1 PUSH2 0x134 JUMP JUMPDEST PUSH2 0xCB JUMP JUMPDEST STOP JUMPDEST PUSH2 0x9A PUSH2 0xE9 JUMP JUMPDEST PUSH1 0x40 MLOAD PUSH2 0xA7 SWAP2 SWAP1 PUSH2 0x183 JUMP JUMPDEST PUSH1 0x40 MLOAD DUP1 SWAP2 SUB SWAP1 RETURN JUMPDEST PUSH1 0x0 DUP2 PUSH1 0x4 DUP2 LT PUSH2 0xC0 JUMPI PUSH1 0x0 DUP1 REVERT JUMPDEST ADD PUSH1 0x0 SWAP2 POP SWAP1 POP SLOAD DUP2 JUMP JUMPDEST DUP1 PUSH1 0x0 DUP4 PUSH1 0x4 DUP2 LT PUSH2 0xE0 JUMPI PUSH2 0xDF PUSH2 0x1A8 JUMP JUMPDEST JUMPDEST ADD DUP2 SWAP1 SSTORE POP POP POP JUMP JUMPDEST PUSH1 0x0 PUSH1 0x4 SWAP1 POP SWAP1 JUMP JUMPDEST PUSH1 0x0 DUP2 CALLDATALOAD SWAP1 POP PUSH2 0x101 DUP2 PUSH2 0x1DC JUMP JUMPDEST SWAP3 SWAP2 POP POP JUMP JUMPDEST PUSH1 0x0 PUSH1 0x20 DUP3 DUP5 SUB SLT ISZERO PUSH2 0x11D JUMPI PUSH2 0x11C PUSH2 0x1D7 JUMP JUMPDEST JUMPDEST PUSH1 0x0 PUSH2 0x12B DUP5 DUP3 DUP6 ADD PUSH2 0xF2 JUMP JUMPDEST SWAP2 POP POP SWAP3 SWAP2 POP POP JUMP JUMPDEST PUSH1 0x0 DUP1 PUSH1 0x40 DUP4 DUP6 SUB SLT ISZERO PUSH2 0x14B JUMPI PUSH2 0x14A PUSH2 0x1D7 JUMP JUMPDEST JUMPDEST PUSH1 0x0 PUSH2 0x159 DUP6 DUP3 DUP7 ADD PUSH2 0xF2 JUMP JUMPDEST SWAP3 POP POP PUSH1 0x20 PUSH2 0x16A DUP6 DUP3 DUP7 ADD PUSH2 0xF2 JUMP JUMPDEST SWAP2 POP POP SWAP3 POP SWAP3 SWAP1 POP JUMP JUMPDEST PUSH2 0x17D DUP2 PUSH2 0x19E JUMP JUMPDEST DUP3 MSTORE POP POP JUMP JUMPDEST PUSH1 0x0 PUSH1 0x20 DUP3 ADD SWAP1 POP PUSH2 0x198 PUSH1 0x0 DUP4 ADD DUP5 PUSH2 0x174 JUMP JUMPDEST SWAP3 SWAP2 POP POP JUMP JUMPDEST PUSH1 0x0 DUP2 SWAP1 POP SWAP2 SWAP1 POP JUMP JUMPDEST PUSH32 0x4E487B7100000000000000000000000000000000000000000000000000000000 PUSH1 0x0 MSTORE PUSH1 0x32 PUSH1 0x4 MSTORE PUSH1 0x24 PUSH1 0x0 REVERT JUMPDEST PUSH1 0x0 DUP1 REVERT JUMPDEST PUSH2 0x1E5 DUP2 PUSH2 0x19E JUMP JUMPDEST DUP2 EQ PUSH2 0x1F0 JUMPI PUSH1 0x0 DUP1 REVERT JUMPDEST POP JUMP INVALID LOG2 PUSH5 0x6970667358 0x22 SLT KECCAK256 ADDRESS PUSH16 0x621C03F37B76FB098269EA17A5348EF4 0xBA GT NOT 0xC7 PUSH22 0x13EE4C5D3544A7F42F64736F6C634300080700330000 "
				},
				"gasEstimates": {
					"creation": {
						"codeDepositCost": "110600",
						"executionCost": "infinite",
						"totalCost": "infinite"
					},
					"external": {
						"arrName(uint256)": "infinite",
						"lengthGetter()": "359",
						"setter(uint256,uint256)": "infinite"
					}
				},
				"methodIdentifiers": {
					"arrName(uint256)": "01d31031",
					"lengthGetter()": "9461b9f8",
					"setter(uint256,uint256)": "5298f36d"
				}
			},
			"storageLayout": {
				"storage": [
					{
						"astId": 10,
						"contract": "arr.sol:Arr",
						"label": "arrName",
						"offset": 0,
						"slot": "0",
						"type": "t_array(t_uint256)4_storage"
					}
				],
				"types": {
					"t_array(t_uint256)4_storage": {
						"base": "t_uint256",
						"encoding": "inplace",
						"label": "uint256[4]",
						"numberOfBytes": "128"
					},
					"t_uint256": {
						"encoding": "inplace",
						"label": "uint256",
						"numberOfBytes": "32"
					}
				}
			},
			"userdoc": {
				"kind": "user",
				"methods": {},
				"version": 1
			}
		}
	}
}