{
	"Todo.sol": {
		"Todo": {
			"abi": [
				{
					"inputs": [
						{
							"internalType": "uint256",
							"name": "_id",
							"type": "uint256"
						},
						{
							"internalType": "string",
							"name": "todo",
							"type": "string"
						}
					],
					"name": "addTodo",
					"outputs": [],
					"stateMutability": "nonpayable",
					"type": "function"
				},
				{
					"inputs": [],
					"name": "resetAll",
					"outputs": [],
					"stateMutability": "nonpayable",
					"type": "function"
				},
				{
					"inputs": [],
					"name": "showTodos",
					"outputs": [
						{
							"components": [
								{
									"internalType": "uint256",
									"name": "id",
									"type": "uint256"
								},
								{
									"internalType": "string",
									"name": "todoText",
									"type": "string"
								}
							],
							"internalType": "struct Todo.todoObj[]",
							"name": "",
							"type": "tuple[]"
						}
					],
					"stateMutability": "view",
					"type": "function"
				},
				{
					"inputs": [
						{
							"internalType": "uint256",
							"name": "id_",
							"type": "uint256"
						},
						{
							"internalType": "string",
							"name": "new_todoText",
							"type": "string"
						}
					],
					"name": "updateTodos",
					"outputs": [],
					"stateMutability": "nonpayable",
					"type": "function"
				}
			],
			"devdoc": {
				"kind": "dev",
				"methods": {},
				"version": 1
			},
			"evm": {
				"assembly": "    /* \"Todo.sol\":66:793  contract Todo{\r... */\n  mstore(0x40, 0x80)\n  callvalue\n  dup1\n  iszero\n  tag_1\n  jumpi\n  0x00\n  dup1\n  revert\ntag_1:\n  pop\n  dataSize(sub_0)\n  dup1\n  dataOffset(sub_0)\n  0x00\n  codecopy\n  0x00\n  return\nstop\n\nsub_0: assembly {\n        /* \"Todo.sol\":66:793  contract Todo{\r... */\n      mstore(0x40, 0x80)\n      callvalue\n      dup1\n      iszero\n      tag_1\n      jumpi\n      0x00\n      dup1\n      revert\n    tag_1:\n      pop\n      jumpi(tag_2, lt(calldatasize, 0x04))\n      shr(0xe0, calldataload(0x00))\n      dup1\n      0x600060eb\n      eq\n      tag_3\n      jumpi\n      dup1\n      0x67e8b7f7\n      eq\n      tag_4\n      jumpi\n      dup1\n      0xc1da2020\n      eq\n      tag_5\n      jumpi\n      dup1\n      0xe103aef5\n      eq\n      tag_6\n      jumpi\n    tag_2:\n      0x00\n      dup1\n      revert\n        /* \"Todo.sol\":380:484  function showTodos() public view returns(todoObj[] memory){\r... */\n    tag_3:\n      tag_7\n      tag_8\n      jump\t// in\n    tag_7:\n      mload(0x40)\n      tag_9\n      swap2\n      swap1\n      tag_10\n      jump\t// in\n    tag_9:\n      mload(0x40)\n      dup1\n      swap2\n      sub\n      swap1\n      return\n        /* \"Todo.sol\":494:725  function updateTodos(uint id_,string memory new_todoText) public {\r... */\n    tag_4:\n      tag_11\n      0x04\n      dup1\n      calldatasize\n      sub\n      dup2\n      add\n      swap1\n      tag_12\n      swap2\n      swap1\n      tag_13\n      jump\t// in\n    tag_12:\n      tag_14\n      jump\t// in\n    tag_11:\n      stop\n        /* \"Todo.sol\":230:370  function addTodo(uint _id,string memory todo) public {\r... */\n    tag_5:\n      tag_15\n      0x04\n      dup1\n      calldatasize\n      sub\n      dup2\n      add\n      swap1\n      tag_16\n      swap2\n      swap1\n      tag_13\n      jump\t// in\n    tag_16:\n      tag_17\n      jump\t// in\n    tag_15:\n      stop\n        /* \"Todo.sol\":731:788  function resetAll() public{\r... */\n    tag_6:\n      tag_18\n      tag_19\n      jump\t// in\n    tag_18:\n      stop\n        /* \"Todo.sol\":380:484  function showTodos() public view returns(todoObj[] memory){\r... */\n    tag_8:\n        /* \"Todo.sol\":421:437  todoObj[] memory */\n      0x60\n        /* \"Todo.sol\":456:464  todosMap */\n      0x01\n        /* \"Todo.sol\":456:476  todosMap[msg.sender] */\n      0x00\n        /* \"Todo.sol\":465:475  msg.sender */\n      caller\n        /* \"Todo.sol\":456:476  todosMap[msg.sender] */\n      0xffffffffffffffffffffffffffffffffffffffff\n      and\n      0xffffffffffffffffffffffffffffffffffffffff\n      and\n      dup2\n      mstore\n      0x20\n      add\n      swap1\n      dup2\n      mstore\n      0x20\n      add\n      0x00\n      keccak256\n        /* \"Todo.sol\":449:476  return todosMap[msg.sender] */\n      dup1\n      sload\n      dup1\n      0x20\n      mul\n      0x20\n      add\n      mload(0x40)\n      swap1\n      dup2\n      add\n      0x40\n      mstore\n      dup1\n      swap3\n      swap2\n      swap1\n      dup2\n      dup2\n      mstore\n      0x20\n      add\n      0x00\n      swap1\n    tag_21:\n      dup3\n      dup3\n      lt\n      iszero\n      tag_22\n      jumpi\n      dup4\n      dup3\n      swap1\n      0x00\n      mstore\n      keccak256(0x00, 0x20)\n      swap1\n      0x02\n      mul\n      add\n      mload(0x40)\n      dup1\n      0x40\n      add\n      0x40\n      mstore\n      swap1\n      dup2\n      0x00\n      dup3\n      add\n      sload\n      dup2\n      mstore\n      0x20\n      add\n      0x01\n      dup3\n      add\n      dup1\n      sload\n      tag_24\n      swap1\n      tag_25\n      jump\t// in\n    tag_24:\n      dup1\n      0x1f\n      add\n      0x20\n      dup1\n      swap2\n      div\n      mul\n      0x20\n      add\n      mload(0x40)\n      swap1\n      dup2\n      add\n      0x40\n      mstore\n      dup1\n      swap3\n      swap2\n      swap1\n      dup2\n      dup2\n      mstore\n      0x20\n      add\n      dup3\n      dup1\n      sload\n      tag_26\n      swap1\n      tag_25\n      jump\t// in\n    tag_26:\n      dup1\n      iszero\n      tag_27\n      jumpi\n      dup1\n      0x1f\n      lt\n      tag_28\n      jumpi\n      0x0100\n      dup1\n      dup4\n      sload\n      div\n      mul\n      dup4\n      mstore\n      swap2\n      0x20\n      add\n      swap2\n      jump(tag_27)\n    tag_28:\n      dup3\n      add\n      swap2\n      swap1\n      0x00\n      mstore\n      keccak256(0x00, 0x20)\n      swap1\n    tag_29:\n      dup2\n      sload\n      dup2\n      mstore\n      swap1\n      0x01\n      add\n      swap1\n      0x20\n      add\n      dup1\n      dup4\n      gt\n      tag_29\n      jumpi\n      dup3\n      swap1\n      sub\n      0x1f\n      and\n      dup3\n      add\n      swap2\n    tag_27:\n      pop\n      pop\n      pop\n      pop\n      pop\n      dup2\n      mstore\n      pop\n      pop\n      dup2\n      mstore\n      0x20\n      add\n      swap1\n      0x01\n      add\n      swap1\n      jump(tag_21)\n    tag_22:\n      pop\n      pop\n      pop\n      pop\n      swap1\n      pop\n        /* \"Todo.sol\":380:484  function showTodos() public view returns(todoObj[] memory){\r... */\n      swap1\n      jump\t// out\n        /* \"Todo.sol\":494:725  function updateTodos(uint id_,string memory new_todoText) public {\r... */\n    tag_14:\n        /* \"Todo.sol\":574:580  uint i */\n      0x00\n        /* \"Todo.sol\":570:718  for(uint i=0;i<=todos.length;i++){\r... */\n    tag_31:\n        /* \"Todo.sol\":586:591  todos */\n      0x00\n        /* \"Todo.sol\":586:598  todos.length */\n      dup1\n      sload\n      swap1\n      pop\n        /* \"Todo.sol\":583:584  i */\n      dup2\n        /* \"Todo.sol\":583:598  i<=todos.length */\n      gt\n        /* \"Todo.sol\":570:718  for(uint i=0;i<=todos.length;i++){\r... */\n      tag_32\n      jumpi\n        /* \"Todo.sol\":636:639  id_ */\n      dup3\n        /* \"Todo.sol\":621:626  todos */\n      0x00\n        /* \"Todo.sol\":627:628  i */\n      dup3\n        /* \"Todo.sol\":621:629  todos[i] */\n      dup2\n      sload\n      dup2\n      lt\n      tag_34\n      jumpi\n      tag_35\n      tag_36\n      jump\t// in\n    tag_35:\n    tag_34:\n      swap1\n      0x00\n      mstore\n      keccak256(0x00, 0x20)\n      swap1\n      0x02\n      mul\n      add\n        /* \"Todo.sol\":621:632  todos[i].id */\n      0x00\n      add\n      sload\n        /* \"Todo.sol\":621:639  todos[i].id == id_ */\n      eq\n        /* \"Todo.sol\":618:707  if(todos[i].id == id_){\r... */\n      iszero\n      tag_38\n      jumpi\n        /* \"Todo.sol\":679:691  new_todoText */\n      dup2\n        /* \"Todo.sol\":659:664  todos */\n      0x00\n        /* \"Todo.sol\":665:666  i */\n      dup3\n        /* \"Todo.sol\":659:667  todos[i] */\n      dup2\n      sload\n      dup2\n      lt\n      tag_39\n      jumpi\n      tag_40\n      tag_36\n      jump\t// in\n    tag_40:\n    tag_39:\n      swap1\n      0x00\n      mstore\n      keccak256(0x00, 0x20)\n      swap1\n      0x02\n      mul\n      add\n        /* \"Todo.sol\":659:676  todos[i].todoText */\n      0x01\n      add\n        /* \"Todo.sol\":659:691  todos[i].todoText = new_todoText */\n      swap1\n      dup1\n      mload\n      swap1\n      0x20\n      add\n      swap1\n      tag_42\n      swap3\n      swap2\n      swap1\n      tag_43\n      jump\t// in\n    tag_42:\n      pop\n        /* \"Todo.sol\":618:707  if(todos[i].id == id_){\r... */\n    tag_38:\n        /* \"Todo.sol\":599:602  i++ */\n      dup1\n      dup1\n      tag_44\n      swap1\n      tag_45\n      jump\t// in\n    tag_44:\n      swap2\n      pop\n      pop\n        /* \"Todo.sol\":570:718  for(uint i=0;i<=todos.length;i++){\r... */\n      jump(tag_31)\n    tag_32:\n      pop\n        /* \"Todo.sol\":494:725  function updateTodos(uint id_,string memory new_todoText) public {\r... */\n      pop\n      pop\n      jump\t// out\n        /* \"Todo.sol\":230:370  function addTodo(uint _id,string memory todo) public {\r... */\n    tag_17:\n        /* \"Todo.sol\":294:299  todos */\n      0x00\n        /* \"Todo.sol\":305:322  todoObj(_id,todo) */\n      mload(0x40)\n      dup1\n      0x40\n      add\n      0x40\n      mstore\n      dup1\n        /* \"Todo.sol\":313:316  _id */\n      dup5\n        /* \"Todo.sol\":305:322  todoObj(_id,todo) */\n      dup2\n      mstore\n      0x20\n      add\n        /* \"Todo.sol\":317:321  todo */\n      dup4\n        /* \"Todo.sol\":305:322  todoObj(_id,todo) */\n      dup2\n      mstore\n      pop\n        /* \"Todo.sol\":294:323  todos.push(todoObj(_id,todo)) */\n      swap1\n      dup1\n      0x01\n      dup2\n      sload\n      add\n      dup1\n      dup3\n      sstore\n      dup1\n      swap2\n      pop\n      pop\n      0x01\n      swap1\n      sub\n      swap1\n      0x00\n      mstore\n      keccak256(0x00, 0x20)\n      swap1\n      0x02\n      mul\n      add\n      0x00\n      swap1\n      swap2\n      swap1\n      swap2\n      swap1\n      swap2\n      pop\n      0x00\n      dup3\n      add\n      mload\n      dup2\n      0x00\n      add\n      sstore\n      0x20\n      dup3\n      add\n      mload\n      dup2\n      0x01\n      add\n      swap1\n      dup1\n      mload\n      swap1\n      0x20\n      add\n      swap1\n      tag_48\n      swap3\n      swap2\n      swap1\n      tag_43\n      jump\t// in\n    tag_48:\n      pop\n      pop\n      pop\n        /* \"Todo.sol\":357:362  todos */\n      0x00\n        /* \"Todo.sol\":334:342  todosMap */\n      0x01\n        /* \"Todo.sol\":334:354  todosMap[msg.sender] */\n      0x00\n        /* \"Todo.sol\":343:353  msg.sender */\n      caller\n        /* \"Todo.sol\":334:354  todosMap[msg.sender] */\n      0xffffffffffffffffffffffffffffffffffffffff\n      and\n      0xffffffffffffffffffffffffffffffffffffffff\n      and\n      dup2\n      mstore\n      0x20\n      add\n      swap1\n      dup2\n      mstore\n      0x20\n      add\n      0x00\n      keccak256\n        /* \"Todo.sol\":334:362  todosMap[msg.sender] = todos */\n      swap1\n      dup1\n      sload\n      tag_49\n      swap3\n      swap2\n      swap1\n      tag_50\n      jump\t// in\n    tag_49:\n      pop\n        /* \"Todo.sol\":230:370  function addTodo(uint _id,string memory todo) public {\r... */\n      pop\n      pop\n      jump\t// out\n        /* \"Todo.sol\":731:788  function resetAll() public{\r... */\n    tag_19:\n        /* \"Todo.sol\":775:780  todos */\n      0x00\n      dup1\n        /* \"Todo.sol\":768:780  delete todos */\n      tag_52\n      swap2\n      swap1\n      tag_53\n      jump\t// in\n    tag_52:\n        /* \"Todo.sol\":731:788  function resetAll() public{\r... */\n      jump\t// out\n    tag_43:\n      dup3\n      dup1\n      sload\n      tag_54\n      swap1\n      tag_25\n      jump\t// in\n    tag_54:\n      swap1\n      0x00\n      mstore\n      keccak256(0x00, 0x20)\n      swap1\n      0x1f\n      add\n      0x20\n      swap1\n      div\n      dup2\n      add\n      swap3\n      dup3\n      tag_56\n      jumpi\n      0x00\n      dup6\n      sstore\n      jump(tag_55)\n    tag_56:\n      dup3\n      0x1f\n      lt\n      tag_57\n      jumpi\n      dup1\n      mload\n      not(0xff)\n      and\n      dup4\n      dup1\n      add\n      or\n      dup6\n      sstore\n      jump(tag_55)\n    tag_57:\n      dup3\n      dup1\n      add\n      0x01\n      add\n      dup6\n      sstore\n      dup3\n      iszero\n      tag_55\n      jumpi\n      swap2\n      dup3\n      add\n    tag_58:\n      dup3\n      dup2\n      gt\n      iszero\n      tag_59\n      jumpi\n      dup3\n      mload\n      dup3\n      sstore\n      swap2\n      0x20\n      add\n      swap2\n      swap1\n      0x01\n      add\n      swap1\n      jump(tag_58)\n    tag_59:\n    tag_55:\n      pop\n      swap1\n      pop\n      tag_60\n      swap2\n      swap1\n      tag_61\n      jump\t// in\n    tag_60:\n      pop\n      swap1\n      jump\t// out\n    tag_50:\n      dup3\n      dup1\n      sload\n      dup3\n      dup3\n      sstore\n      swap1\n      0x00\n      mstore\n      keccak256(0x00, 0x20)\n      swap1\n      0x02\n      mul\n      dup2\n      add\n      swap3\n      dup3\n      iszero\n      tag_62\n      jumpi\n      0x00\n      mstore\n      keccak256(0x00, 0x20)\n      swap2\n      0x02\n      mul\n      dup3\n      add\n    tag_63:\n      dup3\n      dup2\n      gt\n      iszero\n      tag_64\n      jumpi\n      dup3\n      dup3\n      0x00\n      dup3\n      add\n      sload\n      dup2\n      0x00\n      add\n      sstore\n      0x01\n      dup3\n      add\n      dup2\n      0x01\n      add\n      swap1\n      dup1\n      sload\n      tag_65\n      swap1\n      tag_25\n      jump\t// in\n    tag_65:\n      tag_66\n      swap3\n      swap2\n      swap1\n      tag_67\n      jump\t// in\n    tag_66:\n      pop\n      pop\n      pop\n      swap2\n      0x02\n      add\n      swap2\n      swap1\n      0x02\n      add\n      swap1\n      jump(tag_63)\n    tag_64:\n    tag_62:\n      pop\n      swap1\n      pop\n      tag_68\n      swap2\n      swap1\n      tag_69\n      jump\t// in\n    tag_68:\n      pop\n      swap1\n      jump\t// out\n    tag_53:\n      pop\n      dup1\n      sload\n      0x00\n      dup3\n      sstore\n      0x02\n      mul\n      swap1\n      0x00\n      mstore\n      keccak256(0x00, 0x20)\n      swap1\n      dup2\n      add\n      swap1\n      tag_71\n      swap2\n      swap1\n      tag_69\n      jump\t// in\n    tag_71:\n      pop\n      jump\t// out\n    tag_61:\n    tag_72:\n      dup1\n      dup3\n      gt\n      iszero\n      tag_73\n      jumpi\n      0x00\n      dup2\n      0x00\n      swap1\n      sstore\n      pop\n      0x01\n      add\n      jump(tag_72)\n    tag_73:\n      pop\n      swap1\n      jump\t// out\n    tag_67:\n      dup3\n      dup1\n      sload\n      tag_74\n      swap1\n      tag_25\n      jump\t// in\n    tag_74:\n      swap1\n      0x00\n      mstore\n      keccak256(0x00, 0x20)\n      swap1\n      0x1f\n      add\n      0x20\n      swap1\n      div\n      dup2\n      add\n      swap3\n      dup3\n      tag_76\n      jumpi\n      0x00\n      dup6\n      sstore\n      jump(tag_75)\n    tag_76:\n      dup3\n      0x1f\n      lt\n      tag_77\n      jumpi\n      dup1\n      sload\n      dup6\n      sstore\n      jump(tag_75)\n    tag_77:\n      dup3\n      dup1\n      add\n      0x01\n      add\n      dup6\n      sstore\n      dup3\n      iszero\n      tag_75\n      jumpi\n      0x00\n      mstore\n      keccak256(0x00, 0x20)\n      swap2\n      0x1f\n      add\n      0x20\n      swap1\n      div\n      dup3\n      add\n    tag_78:\n      dup3\n      dup2\n      gt\n      iszero\n      tag_79\n      jumpi\n      dup3\n      sload\n      dup3\n      sstore\n      swap2\n      0x01\n      add\n      swap2\n      swap1\n      0x01\n      add\n      swap1\n      jump(tag_78)\n    tag_79:\n    tag_75:\n      pop\n      swap1\n      pop\n      tag_80\n      swap2\n      swap1\n      tag_61\n      jump\t// in\n    tag_80:\n      pop\n      swap1\n      jump\t// out\n    tag_69:\n    tag_81:\n      dup1\n      dup3\n      gt\n      iszero\n      tag_82\n      jumpi\n      0x00\n      dup1\n      dup3\n      add\n      0x00\n      swap1\n      sstore\n      0x01\n      dup3\n      add\n      0x00\n      tag_83\n      swap2\n      swap1\n      tag_84\n      jump\t// in\n    tag_83:\n      pop\n      0x02\n      add\n      jump(tag_81)\n    tag_82:\n      pop\n      swap1\n      jump\t// out\n    tag_84:\n      pop\n      dup1\n      sload\n      tag_85\n      swap1\n      tag_25\n      jump\t// in\n    tag_85:\n      0x00\n      dup3\n      sstore\n      dup1\n      0x1f\n      lt\n      tag_87\n      jumpi\n      pop\n      jump(tag_86)\n    tag_87:\n      0x1f\n      add\n      0x20\n      swap1\n      div\n      swap1\n      0x00\n      mstore\n      keccak256(0x00, 0x20)\n      swap1\n      dup2\n      add\n      swap1\n      tag_88\n      swap2\n      swap1\n      tag_61\n      jump\t// in\n    tag_88:\n    tag_86:\n      pop\n      jump\t// out\n        /* \"#utility.yul\":7:419   */\n    tag_90:\n        /* \"#utility.yul\":85:90   */\n      0x00\n        /* \"#utility.yul\":110:176   */\n      tag_92\n        /* \"#utility.yul\":126:175   */\n      tag_93\n        /* \"#utility.yul\":168:174   */\n      dup5\n        /* \"#utility.yul\":126:175   */\n      tag_94\n      jump\t// in\n    tag_93:\n        /* \"#utility.yul\":110:176   */\n      tag_95\n      jump\t// in\n    tag_92:\n        /* \"#utility.yul\":101:176   */\n      swap1\n      pop\n        /* \"#utility.yul\":199:205   */\n      dup3\n        /* \"#utility.yul\":192:197   */\n      dup2\n        /* \"#utility.yul\":185:206   */\n      mstore\n        /* \"#utility.yul\":237:241   */\n      0x20\n        /* \"#utility.yul\":230:235   */\n      dup2\n        /* \"#utility.yul\":226:242   */\n      add\n        /* \"#utility.yul\":275:278   */\n      dup5\n        /* \"#utility.yul\":266:272   */\n      dup5\n        /* \"#utility.yul\":261:264   */\n      dup5\n        /* \"#utility.yul\":257:273   */\n      add\n        /* \"#utility.yul\":254:279   */\n      gt\n        /* \"#utility.yul\":251:363   */\n      iszero\n      tag_96\n      jumpi\n        /* \"#utility.yul\":282:361   */\n      tag_97\n      tag_98\n      jump\t// in\n    tag_97:\n        /* \"#utility.yul\":251:363   */\n    tag_96:\n        /* \"#utility.yul\":372:413   */\n      tag_99\n        /* \"#utility.yul\":406:412   */\n      dup5\n        /* \"#utility.yul\":401:404   */\n      dup3\n        /* \"#utility.yul\":396:399   */\n      dup6\n        /* \"#utility.yul\":372:413   */\n      tag_100\n      jump\t// in\n    tag_99:\n        /* \"#utility.yul\":91:419   */\n      pop\n        /* \"#utility.yul\":7:419   */\n      swap4\n      swap3\n      pop\n      pop\n      pop\n      jump\t// out\n        /* \"#utility.yul\":439:779   */\n    tag_101:\n        /* \"#utility.yul\":495:500   */\n      0x00\n        /* \"#utility.yul\":544:547   */\n      dup3\n        /* \"#utility.yul\":537:541   */\n      0x1f\n        /* \"#utility.yul\":529:535   */\n      dup4\n        /* \"#utility.yul\":525:542   */\n      add\n        /* \"#utility.yul\":521:548   */\n      slt\n        /* \"#utility.yul\":511:633   */\n      tag_103\n      jumpi\n        /* \"#utility.yul\":552:631   */\n      tag_104\n      tag_105\n      jump\t// in\n    tag_104:\n        /* \"#utility.yul\":511:633   */\n    tag_103:\n        /* \"#utility.yul\":669:675   */\n      dup2\n        /* \"#utility.yul\":656:676   */\n      calldataload\n        /* \"#utility.yul\":694:773   */\n      tag_106\n        /* \"#utility.yul\":769:772   */\n      dup5\n        /* \"#utility.yul\":761:767   */\n      dup3\n        /* \"#utility.yul\":754:758   */\n      0x20\n        /* \"#utility.yul\":746:752   */\n      dup7\n        /* \"#utility.yul\":742:759   */\n      add\n        /* \"#utility.yul\":694:773   */\n      tag_90\n      jump\t// in\n    tag_106:\n        /* \"#utility.yul\":685:773   */\n      swap2\n      pop\n        /* \"#utility.yul\":501:779   */\n      pop\n        /* \"#utility.yul\":439:779   */\n      swap3\n      swap2\n      pop\n      pop\n      jump\t// out\n        /* \"#utility.yul\":785:924   */\n    tag_107:\n        /* \"#utility.yul\":831:836   */\n      0x00\n        /* \"#utility.yul\":869:875   */\n      dup2\n        /* \"#utility.yul\":856:876   */\n      calldataload\n        /* \"#utility.yul\":847:876   */\n      swap1\n      pop\n        /* \"#utility.yul\":885:918   */\n      tag_109\n        /* \"#utility.yul\":912:917   */\n      dup2\n        /* \"#utility.yul\":885:918   */\n      tag_110\n      jump\t// in\n    tag_109:\n        /* \"#utility.yul\":785:924   */\n      swap3\n      swap2\n      pop\n      pop\n      jump\t// out\n        /* \"#utility.yul\":930:1584   */\n    tag_13:\n        /* \"#utility.yul\":1008:1014   */\n      0x00\n        /* \"#utility.yul\":1016:1022   */\n      dup1\n        /* \"#utility.yul\":1065:1067   */\n      0x40\n        /* \"#utility.yul\":1053:1062   */\n      dup4\n        /* \"#utility.yul\":1044:1051   */\n      dup6\n        /* \"#utility.yul\":1040:1063   */\n      sub\n        /* \"#utility.yul\":1036:1068   */\n      slt\n        /* \"#utility.yul\":1033:1152   */\n      iszero\n      tag_112\n      jumpi\n        /* \"#utility.yul\":1071:1150   */\n      tag_113\n      tag_114\n      jump\t// in\n    tag_113:\n        /* \"#utility.yul\":1033:1152   */\n    tag_112:\n        /* \"#utility.yul\":1191:1192   */\n      0x00\n        /* \"#utility.yul\":1216:1269   */\n      tag_115\n        /* \"#utility.yul\":1261:1268   */\n      dup6\n        /* \"#utility.yul\":1252:1258   */\n      dup3\n        /* \"#utility.yul\":1241:1250   */\n      dup7\n        /* \"#utility.yul\":1237:1259   */\n      add\n        /* \"#utility.yul\":1216:1269   */\n      tag_107\n      jump\t// in\n    tag_115:\n        /* \"#utility.yul\":1206:1269   */\n      swap3\n      pop\n        /* \"#utility.yul\":1162:1279   */\n      pop\n        /* \"#utility.yul\":1346:1348   */\n      0x20\n        /* \"#utility.yul\":1335:1344   */\n      dup4\n        /* \"#utility.yul\":1331:1349   */\n      add\n        /* \"#utility.yul\":1318:1350   */\n      calldataload\n        /* \"#utility.yul\":1377:1395   */\n      0xffffffffffffffff\n        /* \"#utility.yul\":1369:1375   */\n      dup2\n        /* \"#utility.yul\":1366:1396   */\n      gt\n        /* \"#utility.yul\":1363:1480   */\n      iszero\n      tag_116\n      jumpi\n        /* \"#utility.yul\":1399:1478   */\n      tag_117\n      tag_118\n      jump\t// in\n    tag_117:\n        /* \"#utility.yul\":1363:1480   */\n    tag_116:\n        /* \"#utility.yul\":1504:1567   */\n      tag_119\n        /* \"#utility.yul\":1559:1566   */\n      dup6\n        /* \"#utility.yul\":1550:1556   */\n      dup3\n        /* \"#utility.yul\":1539:1548   */\n      dup7\n        /* \"#utility.yul\":1535:1557   */\n      add\n        /* \"#utility.yul\":1504:1567   */\n      tag_101\n      jump\t// in\n    tag_119:\n        /* \"#utility.yul\":1494:1567   */\n      swap2\n      pop\n        /* \"#utility.yul\":1289:1577   */\n      pop\n        /* \"#utility.yul\":930:1584   */\n      swap3\n      pop\n      swap3\n      swap1\n      pop\n      jump\t// out\n        /* \"#utility.yul\":1590:1834   */\n    tag_120:\n        /* \"#utility.yul\":1703:1713   */\n      0x00\n        /* \"#utility.yul\":1738:1828   */\n      tag_122\n        /* \"#utility.yul\":1824:1827   */\n      dup4\n        /* \"#utility.yul\":1816:1822   */\n      dup4\n        /* \"#utility.yul\":1738:1828   */\n      tag_123\n      jump\t// in\n    tag_122:\n        /* \"#utility.yul\":1724:1828   */\n      swap1\n      pop\n        /* \"#utility.yul\":1590:1834   */\n      swap3\n      swap2\n      pop\n      pop\n      jump\t// out\n        /* \"#utility.yul\":1894:2981   */\n    tag_124:\n        /* \"#utility.yul\":2057:2060   */\n      0x00\n        /* \"#utility.yul\":2086:2162   */\n      tag_126\n        /* \"#utility.yul\":2156:2161   */\n      dup3\n        /* \"#utility.yul\":2086:2162   */\n      tag_127\n      jump\t// in\n    tag_126:\n        /* \"#utility.yul\":2178:2286   */\n      tag_128\n        /* \"#utility.yul\":2279:2285   */\n      dup2\n        /* \"#utility.yul\":2274:2277   */\n      dup6\n        /* \"#utility.yul\":2178:2286   */\n      tag_129\n      jump\t// in\n    tag_128:\n        /* \"#utility.yul\":2171:2286   */\n      swap4\n      pop\n        /* \"#utility.yul\":2312:2315   */\n      dup4\n        /* \"#utility.yul\":2357:2361   */\n      0x20\n        /* \"#utility.yul\":2349:2355   */\n      dup3\n        /* \"#utility.yul\":2345:2362   */\n      mul\n        /* \"#utility.yul\":2340:2343   */\n      dup6\n        /* \"#utility.yul\":2336:2363   */\n      add\n        /* \"#utility.yul\":2387:2465   */\n      tag_130\n        /* \"#utility.yul\":2459:2464   */\n      dup6\n        /* \"#utility.yul\":2387:2465   */\n      tag_131\n      jump\t// in\n    tag_130:\n        /* \"#utility.yul\":2488:2495   */\n      dup1\n        /* \"#utility.yul\":2519:2520   */\n      0x00\n        /* \"#utility.yul\":2504:2936   */\n    tag_132:\n        /* \"#utility.yul\":2529:2535   */\n      dup6\n        /* \"#utility.yul\":2526:2527   */\n      dup2\n        /* \"#utility.yul\":2523:2536   */\n      lt\n        /* \"#utility.yul\":2504:2936   */\n      iszero\n      tag_134\n      jumpi\n        /* \"#utility.yul\":2600:2609   */\n      dup5\n        /* \"#utility.yul\":2594:2598   */\n      dup5\n        /* \"#utility.yul\":2590:2610   */\n      sub\n        /* \"#utility.yul\":2585:2588   */\n      dup10\n        /* \"#utility.yul\":2578:2611   */\n      mstore\n        /* \"#utility.yul\":2651:2657   */\n      dup2\n        /* \"#utility.yul\":2645:2658   */\n      mload\n        /* \"#utility.yul\":2679:2787   */\n      tag_135\n        /* \"#utility.yul\":2782:2786   */\n      dup6\n        /* \"#utility.yul\":2767:2780   */\n      dup3\n        /* \"#utility.yul\":2679:2787   */\n      tag_120\n      jump\t// in\n    tag_135:\n        /* \"#utility.yul\":2671:2787   */\n      swap5\n      pop\n        /* \"#utility.yul\":2810:2892   */\n      tag_136\n        /* \"#utility.yul\":2885:2891   */\n      dup4\n        /* \"#utility.yul\":2810:2892   */\n      tag_137\n      jump\t// in\n    tag_136:\n        /* \"#utility.yul\":2800:2892   */\n      swap3\n      pop\n        /* \"#utility.yul\":2921:2925   */\n      0x20\n        /* \"#utility.yul\":2916:2919   */\n      dup11\n        /* \"#utility.yul\":2912:2926   */\n      add\n        /* \"#utility.yul\":2905:2926   */\n      swap10\n      pop\n        /* \"#utility.yul\":2564:2936   */\n      pop\n        /* \"#utility.yul\":2551:2552   */\n      0x01\n        /* \"#utility.yul\":2548:2549   */\n      dup2\n        /* \"#utility.yul\":2544:2553   */\n      add\n        /* \"#utility.yul\":2539:2553   */\n      swap1\n      pop\n        /* \"#utility.yul\":2504:2936   */\n      jump(tag_132)\n    tag_134:\n        /* \"#utility.yul\":2508:2522   */\n      pop\n        /* \"#utility.yul\":2952:2956   */\n      dup3\n        /* \"#utility.yul\":2945:2956   */\n      swap8\n      pop\n        /* \"#utility.yul\":2972:2975   */\n      dup8\n        /* \"#utility.yul\":2965:2975   */\n      swap6\n      pop\n        /* \"#utility.yul\":2062:2981   */\n      pop\n      pop\n      pop\n      pop\n      pop\n        /* \"#utility.yul\":1894:2981   */\n      swap3\n      swap2\n      pop\n      pop\n      jump\t// out\n        /* \"#utility.yul\":2987:3331   */\n    tag_138:\n        /* \"#utility.yul\":3065:3068   */\n      0x00\n        /* \"#utility.yul\":3093:3132   */\n      tag_140\n        /* \"#utility.yul\":3126:3131   */\n      dup3\n        /* \"#utility.yul\":3093:3132   */\n      tag_141\n      jump\t// in\n    tag_140:\n        /* \"#utility.yul\":3148:3209   */\n      tag_142\n        /* \"#utility.yul\":3202:3208   */\n      dup2\n        /* \"#utility.yul\":3197:3200   */\n      dup6\n        /* \"#utility.yul\":3148:3209   */\n      tag_143\n      jump\t// in\n    tag_142:\n        /* \"#utility.yul\":3141:3209   */\n      swap4\n      pop\n        /* \"#utility.yul\":3218:3270   */\n      tag_144\n        /* \"#utility.yul\":3263:3269   */\n      dup2\n        /* \"#utility.yul\":3258:3261   */\n      dup6\n        /* \"#utility.yul\":3251:3255   */\n      0x20\n        /* \"#utility.yul\":3244:3249   */\n      dup7\n        /* \"#utility.yul\":3240:3256   */\n      add\n        /* \"#utility.yul\":3218:3270   */\n      tag_145\n      jump\t// in\n    tag_144:\n        /* \"#utility.yul\":3295:3324   */\n      tag_146\n        /* \"#utility.yul\":3317:3323   */\n      dup2\n        /* \"#utility.yul\":3295:3324   */\n      tag_147\n      jump\t// in\n    tag_146:\n        /* \"#utility.yul\":3290:3293   */\n      dup5\n        /* \"#utility.yul\":3286:3325   */\n      add\n        /* \"#utility.yul\":3279:3325   */\n      swap2\n      pop\n        /* \"#utility.yul\":3069:3331   */\n      pop\n        /* \"#utility.yul\":2987:3331   */\n      swap3\n      swap2\n      pop\n      pop\n      jump\t// out\n        /* \"#utility.yul\":3387:3979   */\n    tag_123:\n        /* \"#utility.yul\":3490:3493   */\n      0x00\n        /* \"#utility.yul\":3526:3530   */\n      0x40\n        /* \"#utility.yul\":3521:3524   */\n      dup4\n        /* \"#utility.yul\":3517:3531   */\n      add\n        /* \"#utility.yul\":3611:3615   */\n      0x00\n        /* \"#utility.yul\":3604:3609   */\n      dup4\n        /* \"#utility.yul\":3600:3616   */\n      add\n        /* \"#utility.yul\":3594:3617   */\n      mload\n        /* \"#utility.yul\":3630:3693   */\n      tag_149\n        /* \"#utility.yul\":3687:3691   */\n      0x00\n        /* \"#utility.yul\":3682:3685   */\n      dup7\n        /* \"#utility.yul\":3678:3692   */\n      add\n        /* \"#utility.yul\":3664:3676   */\n      dup3\n        /* \"#utility.yul\":3630:3693   */\n      tag_150\n      jump\t// in\n    tag_149:\n        /* \"#utility.yul\":3541:3703   */\n      pop\n        /* \"#utility.yul\":3789:3793   */\n      0x20\n        /* \"#utility.yul\":3782:3787   */\n      dup4\n        /* \"#utility.yul\":3778:3794   */\n      add\n        /* \"#utility.yul\":3772:3795   */\n      mload\n        /* \"#utility.yul\":3842:3845   */\n      dup5\n        /* \"#utility.yul\":3836:3840   */\n      dup3\n        /* \"#utility.yul\":3832:3846   */\n      sub\n        /* \"#utility.yul\":3825:3829   */\n      0x20\n        /* \"#utility.yul\":3820:3823   */\n      dup7\n        /* \"#utility.yul\":3816:3830   */\n      add\n        /* \"#utility.yul\":3809:3847   */\n      mstore\n        /* \"#utility.yul\":3868:3941   */\n      tag_151\n        /* \"#utility.yul\":3936:3940   */\n      dup3\n        /* \"#utility.yul\":3922:3934   */\n      dup3\n        /* \"#utility.yul\":3868:3941   */\n      tag_138\n      jump\t// in\n    tag_151:\n        /* \"#utility.yul\":3860:3941   */\n      swap2\n      pop\n        /* \"#utility.yul\":3713:3952   */\n      pop\n        /* \"#utility.yul\":3969:3973   */\n      dup1\n        /* \"#utility.yul\":3962:3973   */\n      swap2\n      pop\n        /* \"#utility.yul\":3495:3979   */\n      pop\n        /* \"#utility.yul\":3387:3979   */\n      swap3\n      swap2\n      pop\n      pop\n      jump\t// out\n        /* \"#utility.yul\":3985:4093   */\n    tag_150:\n        /* \"#utility.yul\":4062:4086   */\n      tag_153\n        /* \"#utility.yul\":4080:4085   */\n      dup2\n        /* \"#utility.yul\":4062:4086   */\n      tag_154\n      jump\t// in\n    tag_153:\n        /* \"#utility.yul\":4057:4060   */\n      dup3\n        /* \"#utility.yul\":4050:4087   */\n      mstore\n        /* \"#utility.yul\":3985:4093   */\n      pop\n      pop\n      jump\t// out\n        /* \"#utility.yul\":4099:4560   */\n    tag_10:\n        /* \"#utility.yul\":4286:4290   */\n      0x00\n        /* \"#utility.yul\":4324:4326   */\n      0x20\n        /* \"#utility.yul\":4313:4322   */\n      dup3\n        /* \"#utility.yul\":4309:4327   */\n      add\n        /* \"#utility.yul\":4301:4327   */\n      swap1\n      pop\n        /* \"#utility.yul\":4373:4382   */\n      dup2\n        /* \"#utility.yul\":4367:4371   */\n      dup2\n        /* \"#utility.yul\":4363:4383   */\n      sub\n        /* \"#utility.yul\":4359:4360   */\n      0x00\n        /* \"#utility.yul\":4348:4357   */\n      dup4\n        /* \"#utility.yul\":4344:4361   */\n      add\n        /* \"#utility.yul\":4337:4384   */\n      mstore\n        /* \"#utility.yul\":4401:4553   */\n      tag_156\n        /* \"#utility.yul\":4548:4552   */\n      dup2\n        /* \"#utility.yul\":4539:4545   */\n      dup5\n        /* \"#utility.yul\":4401:4553   */\n      tag_124\n      jump\t// in\n    tag_156:\n        /* \"#utility.yul\":4393:4553   */\n      swap1\n      pop\n        /* \"#utility.yul\":4099:4560   */\n      swap3\n      swap2\n      pop\n      pop\n      jump\t// out\n        /* \"#utility.yul\":4566:4695   */\n    tag_95:\n        /* \"#utility.yul\":4600:4606   */\n      0x00\n        /* \"#utility.yul\":4627:4647   */\n      tag_158\n      tag_159\n      jump\t// in\n    tag_158:\n        /* \"#utility.yul\":4617:4647   */\n      swap1\n      pop\n        /* \"#utility.yul\":4656:4689   */\n      tag_160\n        /* \"#utility.yul\":4684:4688   */\n      dup3\n        /* \"#utility.yul\":4676:4682   */\n      dup3\n        /* \"#utility.yul\":4656:4689   */\n      tag_161\n      jump\t// in\n    tag_160:\n        /* \"#utility.yul\":4566:4695   */\n      swap2\n      swap1\n      pop\n      jump\t// out\n        /* \"#utility.yul\":4701:4776   */\n    tag_159:\n        /* \"#utility.yul\":4734:4740   */\n      0x00\n        /* \"#utility.yul\":4767:4769   */\n      0x40\n        /* \"#utility.yul\":4761:4770   */\n      mload\n        /* \"#utility.yul\":4751:4770   */\n      swap1\n      pop\n        /* \"#utility.yul\":4701:4776   */\n      swap1\n      jump\t// out\n        /* \"#utility.yul\":4782:5090   */\n    tag_94:\n        /* \"#utility.yul\":4844:4848   */\n      0x00\n        /* \"#utility.yul\":4934:4952   */\n      0xffffffffffffffff\n        /* \"#utility.yul\":4926:4932   */\n      dup3\n        /* \"#utility.yul\":4923:4953   */\n      gt\n        /* \"#utility.yul\":4920:4976   */\n      iszero\n      tag_164\n      jumpi\n        /* \"#utility.yul\":4956:4974   */\n      tag_165\n      tag_166\n      jump\t// in\n    tag_165:\n        /* \"#utility.yul\":4920:4976   */\n    tag_164:\n        /* \"#utility.yul\":4994:5023   */\n      tag_167\n        /* \"#utility.yul\":5016:5022   */\n      dup3\n        /* \"#utility.yul\":4994:5023   */\n      tag_147\n      jump\t// in\n    tag_167:\n        /* \"#utility.yul\":4986:5023   */\n      swap1\n      pop\n        /* \"#utility.yul\":5078:5082   */\n      0x20\n        /* \"#utility.yul\":5072:5076   */\n      dup2\n        /* \"#utility.yul\":5068:5083   */\n      add\n        /* \"#utility.yul\":5060:5083   */\n      swap1\n      pop\n        /* \"#utility.yul\":4782:5090   */\n      swap2\n      swap1\n      pop\n      jump\t// out\n        /* \"#utility.yul\":5096:5250   */\n    tag_131:\n        /* \"#utility.yul\":5185:5189   */\n      0x00\n        /* \"#utility.yul\":5208:5211   */\n      dup2\n        /* \"#utility.yul\":5200:5211   */\n      swap1\n      pop\n        /* \"#utility.yul\":5238:5242   */\n      0x20\n        /* \"#utility.yul\":5233:5236   */\n      dup3\n        /* \"#utility.yul\":5229:5243   */\n      add\n        /* \"#utility.yul\":5221:5243   */\n      swap1\n      pop\n        /* \"#utility.yul\":5096:5250   */\n      swap2\n      swap1\n      pop\n      jump\t// out\n        /* \"#utility.yul\":5256:5392   */\n    tag_127:\n        /* \"#utility.yul\":5345:5351   */\n      0x00\n        /* \"#utility.yul\":5379:5384   */\n      dup2\n        /* \"#utility.yul\":5373:5385   */\n      mload\n        /* \"#utility.yul\":5363:5385   */\n      swap1\n      pop\n        /* \"#utility.yul\":5256:5392   */\n      swap2\n      swap1\n      pop\n      jump\t// out\n        /* \"#utility.yul\":5398:5497   */\n    tag_141:\n        /* \"#utility.yul\":5450:5456   */\n      0x00\n        /* \"#utility.yul\":5484:5489   */\n      dup2\n        /* \"#utility.yul\":5478:5490   */\n      mload\n        /* \"#utility.yul\":5468:5490   */\n      swap1\n      pop\n        /* \"#utility.yul\":5398:5497   */\n      swap2\n      swap1\n      pop\n      jump\t// out\n        /* \"#utility.yul\":5503:5638   */\n    tag_137:\n        /* \"#utility.yul\":5595:5599   */\n      0x00\n        /* \"#utility.yul\":5627:5631   */\n      0x20\n        /* \"#utility.yul\":5622:5625   */\n      dup3\n        /* \"#utility.yul\":5618:5632   */\n      add\n        /* \"#utility.yul\":5610:5632   */\n      swap1\n      pop\n        /* \"#utility.yul\":5503:5638   */\n      swap2\n      swap1\n      pop\n      jump\t// out\n        /* \"#utility.yul\":5644:5850   */\n    tag_129:\n        /* \"#utility.yul\":5765:5776   */\n      0x00\n        /* \"#utility.yul\":5799:5805   */\n      dup3\n        /* \"#utility.yul\":5794:5797   */\n      dup3\n        /* \"#utility.yul\":5787:5806   */\n      mstore\n        /* \"#utility.yul\":5839:5843   */\n      0x20\n        /* \"#utility.yul\":5834:5837   */\n      dup3\n        /* \"#utility.yul\":5830:5844   */\n      add\n        /* \"#utility.yul\":5815:5844   */\n      swap1\n      pop\n        /* \"#utility.yul\":5644:5850   */\n      swap3\n      swap2\n      pop\n      pop\n      jump\t// out\n        /* \"#utility.yul\":5856:6015   */\n    tag_143:\n        /* \"#utility.yul\":5930:5941   */\n      0x00\n        /* \"#utility.yul\":5964:5970   */\n      dup3\n        /* \"#utility.yul\":5959:5962   */\n      dup3\n        /* \"#utility.yul\":5952:5971   */\n      mstore\n        /* \"#utility.yul\":6004:6008   */\n      0x20\n        /* \"#utility.yul\":5999:6002   */\n      dup3\n        /* \"#utility.yul\":5995:6009   */\n      add\n        /* \"#utility.yul\":5980:6009   */\n      swap1\n      pop\n        /* \"#utility.yul\":5856:6015   */\n      swap3\n      swap2\n      pop\n      pop\n      jump\t// out\n        /* \"#utility.yul\":6021:6098   */\n    tag_154:\n        /* \"#utility.yul\":6058:6065   */\n      0x00\n        /* \"#utility.yul\":6087:6092   */\n      dup2\n        /* \"#utility.yul\":6076:6092   */\n      swap1\n      pop\n        /* \"#utility.yul\":6021:6098   */\n      swap2\n      swap1\n      pop\n      jump\t// out\n        /* \"#utility.yul\":6104:6258   */\n    tag_100:\n        /* \"#utility.yul\":6188:6194   */\n      dup3\n        /* \"#utility.yul\":6183:6186   */\n      dup2\n        /* \"#utility.yul\":6178:6181   */\n      dup4\n        /* \"#utility.yul\":6165:6195   */\n      calldatacopy\n        /* \"#utility.yul\":6250:6251   */\n      0x00\n        /* \"#utility.yul\":6241:6247   */\n      dup4\n        /* \"#utility.yul\":6236:6239   */\n      dup4\n        /* \"#utility.yul\":6232:6248   */\n      add\n        /* \"#utility.yul\":6225:6252   */\n      mstore\n        /* \"#utility.yul\":6104:6258   */\n      pop\n      pop\n      pop\n      jump\t// out\n        /* \"#utility.yul\":6264:6571   */\n    tag_145:\n        /* \"#utility.yul\":6332:6333   */\n      0x00\n        /* \"#utility.yul\":6342:6455   */\n    tag_177:\n        /* \"#utility.yul\":6356:6362   */\n      dup4\n        /* \"#utility.yul\":6353:6354   */\n      dup2\n        /* \"#utility.yul\":6350:6363   */\n      lt\n        /* \"#utility.yul\":6342:6455   */\n      iszero\n      tag_179\n      jumpi\n        /* \"#utility.yul\":6441:6442   */\n      dup1\n        /* \"#utility.yul\":6436:6439   */\n      dup3\n        /* \"#utility.yul\":6432:6443   */\n      add\n        /* \"#utility.yul\":6426:6444   */\n      mload\n        /* \"#utility.yul\":6422:6423   */\n      dup2\n        /* \"#utility.yul\":6417:6420   */\n      dup5\n        /* \"#utility.yul\":6413:6424   */\n      add\n        /* \"#utility.yul\":6406:6445   */\n      mstore\n        /* \"#utility.yul\":6378:6380   */\n      0x20\n        /* \"#utility.yul\":6375:6376   */\n      dup2\n        /* \"#utility.yul\":6371:6381   */\n      add\n        /* \"#utility.yul\":6366:6381   */\n      swap1\n      pop\n        /* \"#utility.yul\":6342:6455   */\n      jump(tag_177)\n    tag_179:\n        /* \"#utility.yul\":6473:6479   */\n      dup4\n        /* \"#utility.yul\":6470:6471   */\n      dup2\n        /* \"#utility.yul\":6467:6480   */\n      gt\n        /* \"#utility.yul\":6464:6565   */\n      iszero\n      tag_180\n      jumpi\n        /* \"#utility.yul\":6553:6554   */\n      0x00\n        /* \"#utility.yul\":6544:6550   */\n      dup5\n        /* \"#utility.yul\":6539:6542   */\n      dup5\n        /* \"#utility.yul\":6535:6551   */\n      add\n        /* \"#utility.yul\":6528:6555   */\n      mstore\n        /* \"#utility.yul\":6464:6565   */\n    tag_180:\n        /* \"#utility.yul\":6313:6571   */\n      pop\n        /* \"#utility.yul\":6264:6571   */\n      pop\n      pop\n      pop\n      jump\t// out\n        /* \"#utility.yul\":6577:6897   */\n    tag_25:\n        /* \"#utility.yul\":6621:6627   */\n      0x00\n        /* \"#utility.yul\":6658:6659   */\n      0x02\n        /* \"#utility.yul\":6652:6656   */\n      dup3\n        /* \"#utility.yul\":6648:6660   */\n      div\n        /* \"#utility.yul\":6638:6660   */\n      swap1\n      pop\n        /* \"#utility.yul\":6705:6706   */\n      0x01\n        /* \"#utility.yul\":6699:6703   */\n      dup3\n        /* \"#utility.yul\":6695:6707   */\n      and\n        /* \"#utility.yul\":6726:6744   */\n      dup1\n        /* \"#utility.yul\":6716:6797   */\n      tag_182\n      jumpi\n        /* \"#utility.yul\":6782:6786   */\n      0x7f\n        /* \"#utility.yul\":6774:6780   */\n      dup3\n        /* \"#utility.yul\":6770:6787   */\n      and\n        /* \"#utility.yul\":6760:6787   */\n      swap2\n      pop\n        /* \"#utility.yul\":6716:6797   */\n    tag_182:\n        /* \"#utility.yul\":6844:6846   */\n      0x20\n        /* \"#utility.yul\":6836:6842   */\n      dup3\n        /* \"#utility.yul\":6833:6847   */\n      lt\n        /* \"#utility.yul\":6813:6831   */\n      dup2\n        /* \"#utility.yul\":6810:6848   */\n      eq\n        /* \"#utility.yul\":6807:6891   */\n      iszero\n      tag_183\n      jumpi\n        /* \"#utility.yul\":6863:6881   */\n      tag_184\n      tag_185\n      jump\t// in\n    tag_184:\n        /* \"#utility.yul\":6807:6891   */\n    tag_183:\n        /* \"#utility.yul\":6628:6897   */\n      pop\n        /* \"#utility.yul\":6577:6897   */\n      swap2\n      swap1\n      pop\n      jump\t// out\n        /* \"#utility.yul\":6903:7184   */\n    tag_161:\n        /* \"#utility.yul\":6986:7013   */\n      tag_187\n        /* \"#utility.yul\":7008:7012   */\n      dup3\n        /* \"#utility.yul\":6986:7013   */\n      tag_147\n      jump\t// in\n    tag_187:\n        /* \"#utility.yul\":6978:6984   */\n      dup2\n        /* \"#utility.yul\":6974:7014   */\n      add\n        /* \"#utility.yul\":7116:7122   */\n      dup2\n        /* \"#utility.yul\":7104:7114   */\n      dup2\n        /* \"#utility.yul\":7101:7123   */\n      lt\n        /* \"#utility.yul\":7080:7098   */\n      0xffffffffffffffff\n        /* \"#utility.yul\":7068:7078   */\n      dup3\n        /* \"#utility.yul\":7065:7099   */\n      gt\n        /* \"#utility.yul\":7062:7124   */\n      or\n        /* \"#utility.yul\":7059:7147   */\n      iszero\n      tag_188\n      jumpi\n        /* \"#utility.yul\":7127:7145   */\n      tag_189\n      tag_166\n      jump\t// in\n    tag_189:\n        /* \"#utility.yul\":7059:7147   */\n    tag_188:\n        /* \"#utility.yul\":7167:7177   */\n      dup1\n        /* \"#utility.yul\":7163:7165   */\n      0x40\n        /* \"#utility.yul\":7156:7178   */\n      mstore\n        /* \"#utility.yul\":6946:7184   */\n      pop\n        /* \"#utility.yul\":6903:7184   */\n      pop\n      pop\n      jump\t// out\n        /* \"#utility.yul\":7190:7423   */\n    tag_45:\n        /* \"#utility.yul\":7229:7232   */\n      0x00\n        /* \"#utility.yul\":7252:7276   */\n      tag_191\n        /* \"#utility.yul\":7270:7275   */\n      dup3\n        /* \"#utility.yul\":7252:7276   */\n      tag_154\n      jump\t// in\n    tag_191:\n        /* \"#utility.yul\":7243:7276   */\n      swap2\n      pop\n        /* \"#utility.yul\":7298:7364   */\n      0xffffffffffffffffffffffffffffffffffffffffffffffffffffffffffffffff\n        /* \"#utility.yul\":7291:7296   */\n      dup3\n        /* \"#utility.yul\":7288:7365   */\n      eq\n        /* \"#utility.yul\":7285:7388   */\n      iszero\n      tag_192\n      jumpi\n        /* \"#utility.yul\":7368:7386   */\n      tag_193\n      tag_194\n      jump\t// in\n    tag_193:\n        /* \"#utility.yul\":7285:7388   */\n    tag_192:\n        /* \"#utility.yul\":7415:7416   */\n      0x01\n        /* \"#utility.yul\":7408:7413   */\n      dup3\n        /* \"#utility.yul\":7404:7417   */\n      add\n        /* \"#utility.yul\":7397:7417   */\n      swap1\n      pop\n        /* \"#utility.yul\":7190:7423   */\n      swap2\n      swap1\n      pop\n      jump\t// out\n        /* \"#utility.yul\":7429:7609   */\n    tag_194:\n        /* \"#utility.yul\":7477:7554   */\n      0x4e487b7100000000000000000000000000000000000000000000000000000000\n        /* \"#utility.yul\":7474:7475   */\n      0x00\n        /* \"#utility.yul\":7467:7555   */\n      mstore\n        /* \"#utility.yul\":7574:7578   */\n      0x11\n        /* \"#utility.yul\":7571:7572   */\n      0x04\n        /* \"#utility.yul\":7564:7579   */\n      mstore\n        /* \"#utility.yul\":7598:7602   */\n      0x24\n        /* \"#utility.yul\":7595:7596   */\n      0x00\n        /* \"#utility.yul\":7588:7603   */\n      revert\n        /* \"#utility.yul\":7615:7795   */\n    tag_185:\n        /* \"#utility.yul\":7663:7740   */\n      0x4e487b7100000000000000000000000000000000000000000000000000000000\n        /* \"#utility.yul\":7660:7661   */\n      0x00\n        /* \"#utility.yul\":7653:7741   */\n      mstore\n        /* \"#utility.yul\":7760:7764   */\n      0x22\n        /* \"#utility.yul\":7757:7758   */\n      0x04\n        /* \"#utility.yul\":7750:7765   */\n      mstore\n        /* \"#utility.yul\":7784:7788   */\n      0x24\n        /* \"#utility.yul\":7781:7782   */\n      0x00\n        /* \"#utility.yul\":7774:7789   */\n      revert\n        /* \"#utility.yul\":7801:7981   */\n    tag_36:\n        /* \"#utility.yul\":7849:7926   */\n      0x4e487b7100000000000000000000000000000000000000000000000000000000\n        /* \"#utility.yul\":7846:7847   */\n      0x00\n        /* \"#utility.yul\":7839:7927   */\n      mstore\n        /* \"#utility.yul\":7946:7950   */\n      0x32\n        /* \"#utility.yul\":7943:7944   */\n      0x04\n        /* \"#utility.yul\":7936:7951   */\n      mstore\n        /* \"#utility.yul\":7970:7974   */\n      0x24\n        /* \"#utility.yul\":7967:7968   */\n      0x00\n        /* \"#utility.yul\":7960:7975   */\n      revert\n        /* \"#utility.yul\":7987:8167   */\n    tag_166:\n        /* \"#utility.yul\":8035:8112   */\n      0x4e487b7100000000000000000000000000000000000000000000000000000000\n        /* \"#utility.yul\":8032:8033   */\n      0x00\n        /* \"#utility.yul\":8025:8113   */\n      mstore\n        /* \"#utility.yul\":8132:8136   */\n      0x41\n        /* \"#utility.yul\":8129:8130   */\n      0x04\n        /* \"#utility.yul\":8122:8137   */\n      mstore\n        /* \"#utility.yul\":8156:8160   */\n      0x24\n        /* \"#utility.yul\":8153:8154   */\n      0x00\n        /* \"#utility.yul\":8146:8161   */\n      revert\n        /* \"#utility.yul\":8173:8290   */\n    tag_105:\n        /* \"#utility.yul\":8282:8283   */\n      0x00\n        /* \"#utility.yul\":8279:8280   */\n      dup1\n        /* \"#utility.yul\":8272:8284   */\n      revert\n        /* \"#utility.yul\":8296:8413   */\n    tag_98:\n        /* \"#utility.yul\":8405:8406   */\n      0x00\n        /* \"#utility.yul\":8402:8403   */\n      dup1\n        /* \"#utility.yul\":8395:8407   */\n      revert\n        /* \"#utility.yul\":8419:8536   */\n    tag_118:\n        /* \"#utility.yul\":8528:8529   */\n      0x00\n        /* \"#utility.yul\":8525:8526   */\n      dup1\n        /* \"#utility.yul\":8518:8530   */\n      revert\n        /* \"#utility.yul\":8542:8659   */\n    tag_114:\n        /* \"#utility.yul\":8651:8652   */\n      0x00\n        /* \"#utility.yul\":8648:8649   */\n      dup1\n        /* \"#utility.yul\":8641:8653   */\n      revert\n        /* \"#utility.yul\":8665:8767   */\n    tag_147:\n        /* \"#utility.yul\":8706:8712   */\n      0x00\n        /* \"#utility.yul\":8757:8759   */\n      0x1f\n        /* \"#utility.yul\":8753:8760   */\n      not\n        /* \"#utility.yul\":8748:8750   */\n      0x1f\n        /* \"#utility.yul\":8741:8746   */\n      dup4\n        /* \"#utility.yul\":8737:8751   */\n      add\n        /* \"#utility.yul\":8733:8761   */\n      and\n        /* \"#utility.yul\":8723:8761   */\n      swap1\n      pop\n        /* \"#utility.yul\":8665:8767   */\n      swap2\n      swap1\n      pop\n      jump\t// out\n        /* \"#utility.yul\":8773:8895   */\n    tag_110:\n        /* \"#utility.yul\":8846:8870   */\n      tag_205\n        /* \"#utility.yul\":8864:8869   */\n      dup2\n        /* \"#utility.yul\":8846:8870   */\n      tag_154\n      jump\t// in\n    tag_205:\n        /* \"#utility.yul\":8839:8844   */\n      dup2\n        /* \"#utility.yul\":8836:8871   */\n      eq\n        /* \"#utility.yul\":8826:8889   */\n      tag_206\n      jumpi\n        /* \"#utility.yul\":8885:8886   */\n      0x00\n        /* \"#utility.yul\":8882:8883   */\n      dup1\n        /* \"#utility.yul\":8875:8887   */\n      revert\n        /* \"#utility.yul\":8826:8889   */\n    tag_206:\n        /* \"#utility.yul\":8773:8895   */\n      pop\n      jump\t// out\n\n    auxdata: 0xa26469706673582212205d450809d43578f6a1941d1e05de3ec08c3f66cdfb8271694e1440d10bbbb46664736f6c63430008070033\n}\n",
				"bytecode": {
					"linkReferences": {},
					"object": "608060405234801561001057600080fd5b50610a6b806100206000396000f3fe608060405234801561001057600080fd5b506004361061004c5760003560e01c8063600060eb1461005157806367e8b7f71461006f578063c1da20201461008b578063e103aef5146100a7575b600080fd5b6100596100b1565b6040516100669190610778565b60405180910390f35b6100896004803603810190610084919061060e565b6101e9565b005b6100a560048036038101906100a0919061060e565b610278565b005b6100af610335565b005b6060600160003373ffffffffffffffffffffffffffffffffffffffff1673ffffffffffffffffffffffffffffffffffffffff168152602001908152602001600020805480602002602001604051908101604052809291908181526020016000905b828210156101e057838290600052602060002090600202016040518060400160405290816000820154815260200160018201805461014f90610891565b80601f016020809104026020016040519081016040528092919081815260200182805461017b90610891565b80156101c85780601f1061019d576101008083540402835291602001916101c8565b820191906000526020600020905b8154815290600101906020018083116101ab57829003601f168201915b50505050508152505081526020019060010190610112565b50505050905090565b60005b600080549050811161027357826000828154811061020d5761020c61099b565b5b906000526020600020906002020160000154141561026057816000828154811061023a5761023961099b565b5b9060005260206000209060020201600101908051906020019061025e929190610344565b505b808061026b906108f4565b9150506101ec565b505050565b600060405180604001604052808481526020018381525090806001815401808255809150506001900390600052602060002090600202016000909190919091506000820151816000015560208201518160010190805190602001906102de929190610344565b5050506000600160003373ffffffffffffffffffffffffffffffffffffffff1673ffffffffffffffffffffffffffffffffffffffff1681526020019081526020016000209080546103309291906103ca565b505050565b600080610342919061044c565b565b82805461035090610891565b90600052602060002090601f01602090048101928261037257600085556103b9565b82601f1061038b57805160ff19168380011785556103b9565b828001600101855582156103b9579182015b828111156103b857825182559160200191906001019061039d565b5b5090506103c69190610470565b5090565b82805482825590600052602060002090600202810192821561043b5760005260206000209160020282015b8281111561043a57828260008201548160000155600182018160010190805461041d90610891565b61042892919061048d565b505050916002019190600201906103f5565b5b509050610448919061051a565b5090565b508054600082556002029060005260206000209081019061046d919061051a565b50565b5b80821115610489576000816000905550600101610471565b5090565b82805461049990610891565b90600052602060002090601f0160209004810192826104bb5760008555610509565b82601f106104cc5780548555610509565b8280016001018555821561050957600052602060002091601f016020900482015b828111156105085782548255916001019190600101906104ed565b5b5090506105169190610470565b5090565b5b808211156105455760008082016000905560018201600061053c9190610549565b5060020161051b565b5090565b50805461055590610891565b6000825580601f106105675750610586565b601f0160209004906000526020600020908101906105859190610470565b5b50565b600061059c610597846107bf565b61079a565b9050828152602081018484840111156105b8576105b76109fe565b5b6105c384828561084f565b509392505050565b600082601f8301126105e0576105df6109f9565b5b81356105f0848260208601610589565b91505092915050565b60008135905061060881610a1e565b92915050565b6000806040838503121561062557610624610a08565b5b6000610633858286016105f9565b925050602083013567ffffffffffffffff81111561065457610653610a03565b5b610660858286016105cb565b9150509250929050565b6000610676838361072c565b905092915050565b600061068982610800565b6106938185610823565b9350836020820285016106a5856107f0565b8060005b858110156106e157848403895281516106c2858261066a565b94506106cd83610816565b925060208a019950506001810190506106a9565b50829750879550505050505092915050565b60006106fe8261080b565b6107088185610834565b935061071881856020860161085e565b61072181610a0d565b840191505092915050565b60006040830160008301516107446000860182610769565b506020830151848203602086015261075c82826106f3565b9150508091505092915050565b61077281610845565b82525050565b60006020820190508181036000830152610792818461067e565b905092915050565b60006107a46107b5565b90506107b082826108c3565b919050565b6000604051905090565b600067ffffffffffffffff8211156107da576107d96109ca565b5b6107e382610a0d565b9050602081019050919050565b6000819050602082019050919050565b600081519050919050565b600081519050919050565b6000602082019050919050565b600082825260208201905092915050565b600082825260208201905092915050565b6000819050919050565b82818337600083830152505050565b60005b8381101561087c578082015181840152602081019050610861565b8381111561088b576000848401525b50505050565b600060028204905060018216806108a957607f821691505b602082108114156108bd576108bc61096c565b5b50919050565b6108cc82610a0d565b810181811067ffffffffffffffff821117156108eb576108ea6109ca565b5b80604052505050565b60006108ff82610845565b91507fffffffffffffffffffffffffffffffffffffffffffffffffffffffffffffffff8214156109325761093161093d565b5b600182019050919050565b7f4e487b7100000000000000000000000000000000000000000000000000000000600052601160045260246000fd5b7f4e487b7100000000000000000000000000000000000000000000000000000000600052602260045260246000fd5b7f4e487b7100000000000000000000000000000000000000000000000000000000600052603260045260246000fd5b7f4e487b7100000000000000000000000000000000000000000000000000000000600052604160045260246000fd5b600080fd5b600080fd5b600080fd5b600080fd5b6000601f19601f8301169050919050565b610a2781610845565b8114610a3257600080fd5b5056fea26469706673582212205d450809d43578f6a1941d1e05de3ec08c3f66cdfb8271694e1440d10bbbb46664736f6c63430008070033",
					"opcodes": "PUSH1 0x80 PUSH1 0x40 MSTORE CALLVALUE DUP1 ISZERO PUSH2 0x10 JUMPI PUSH1 0x0 DUP1 REVERT JUMPDEST POP PUSH2 0xA6B DUP1 PUSH2 0x20 PUSH1 0x0 CODECOPY PUSH1 0x0 RETURN INVALID PUSH1 0x80 PUSH1 0x40 MSTORE CALLVALUE DUP1 ISZERO PUSH2 0x10 JUMPI PUSH1 0x0 DUP1 REVERT JUMPDEST POP PUSH1 0x4 CALLDATASIZE LT PUSH2 0x4C JUMPI PUSH1 0x0 CALLDATALOAD PUSH1 0xE0 SHR DUP1 PUSH4 0x600060EB EQ PUSH2 0x51 JUMPI DUP1 PUSH4 0x67E8B7F7 EQ PUSH2 0x6F JUMPI DUP1 PUSH4 0xC1DA2020 EQ PUSH2 0x8B JUMPI DUP1 PUSH4 0xE103AEF5 EQ PUSH2 0xA7 JUMPI JUMPDEST PUSH1 0x0 DUP1 REVERT JUMPDEST PUSH2 0x59 PUSH2 0xB1 JUMP JUMPDEST PUSH1 0x40 MLOAD PUSH2 0x66 SWAP2 SWAP1 PUSH2 0x778 JUMP JUMPDEST PUSH1 0x40 MLOAD DUP1 SWAP2 SUB SWAP1 RETURN JUMPDEST PUSH2 0x89 PUSH1 0x4 DUP1 CALLDATASIZE SUB DUP2 ADD SWAP1 PUSH2 0x84 SWAP2 SWAP1 PUSH2 0x60E JUMP JUMPDEST PUSH2 0x1E9 JUMP JUMPDEST STOP JUMPDEST PUSH2 0xA5 PUSH1 0x4 DUP1 CALLDATASIZE SUB DUP2 ADD SWAP1 PUSH2 0xA0 SWAP2 SWAP1 PUSH2 0x60E JUMP JUMPDEST PUSH2 0x278 JUMP JUMPDEST STOP JUMPDEST PUSH2 0xAF PUSH2 0x335 JUMP JUMPDEST STOP JUMPDEST PUSH1 0x60 PUSH1 0x1 PUSH1 0x0 CALLER PUSH20 0xFFFFFFFFFFFFFFFFFFFFFFFFFFFFFFFFFFFFFFFF AND PUSH20 0xFFFFFFFFFFFFFFFFFFFFFFFFFFFFFFFFFFFFFFFF AND DUP2 MSTORE PUSH1 0x20 ADD SWAP1 DUP2 MSTORE PUSH1 0x20 ADD PUSH1 0x0 KECCAK256 DUP1 SLOAD DUP1 PUSH1 0x20 MUL PUSH1 0x20 ADD PUSH1 0x40 MLOAD SWAP1 DUP2 ADD PUSH1 0x40 MSTORE DUP1 SWAP3 SWAP2 SWAP1 DUP2 DUP2 MSTORE PUSH1 0x20 ADD PUSH1 0x0 SWAP1 JUMPDEST DUP3 DUP3 LT ISZERO PUSH2 0x1E0 JUMPI DUP4 DUP3 SWAP1 PUSH1 0x0 MSTORE PUSH1 0x20 PUSH1 0x0 KECCAK256 SWAP1 PUSH1 0x2 MUL ADD PUSH1 0x40 MLOAD DUP1 PUSH1 0x40 ADD PUSH1 0x40 MSTORE SWAP1 DUP2 PUSH1 0x0 DUP3 ADD SLOAD DUP2 MSTORE PUSH1 0x20 ADD PUSH1 0x1 DUP3 ADD DUP1 SLOAD PUSH2 0x14F SWAP1 PUSH2 0x891 JUMP JUMPDEST DUP1 PUSH1 0x1F ADD PUSH1 0x20 DUP1 SWAP2 DIV MUL PUSH1 0x20 ADD PUSH1 0x40 MLOAD SWAP1 DUP2 ADD PUSH1 0x40 MSTORE DUP1 SWAP3 SWAP2 SWAP1 DUP2 DUP2 MSTORE PUSH1 0x20 ADD DUP3 DUP1 SLOAD PUSH2 0x17B SWAP1 PUSH2 0x891 JUMP JUMPDEST DUP1 ISZERO PUSH2 0x1C8 JUMPI DUP1 PUSH1 0x1F LT PUSH2 0x19D JUMPI PUSH2 0x100 DUP1 DUP4 SLOAD DIV MUL DUP4 MSTORE SWAP2 PUSH1 0x20 ADD SWAP2 PUSH2 0x1C8 JUMP JUMPDEST DUP3 ADD SWAP2 SWAP1 PUSH1 0x0 MSTORE PUSH1 0x20 PUSH1 0x0 KECCAK256 SWAP1 JUMPDEST DUP2 SLOAD DUP2 MSTORE SWAP1 PUSH1 0x1 ADD SWAP1 PUSH1 0x20 ADD DUP1 DUP4 GT PUSH2 0x1AB JUMPI DUP3 SWAP1 SUB PUSH1 0x1F AND DUP3 ADD SWAP2 JUMPDEST POP POP POP POP POP DUP2 MSTORE POP POP DUP2 MSTORE PUSH1 0x20 ADD SWAP1 PUSH1 0x1 ADD SWAP1 PUSH2 0x112 JUMP JUMPDEST POP POP POP POP SWAP1 POP SWAP1 JUMP JUMPDEST PUSH1 0x0 JUMPDEST PUSH1 0x0 DUP1 SLOAD SWAP1 POP DUP2 GT PUSH2 0x273 JUMPI DUP3 PUSH1 0x0 DUP3 DUP2 SLOAD DUP2 LT PUSH2 0x20D JUMPI PUSH2 0x20C PUSH2 0x99B JUMP JUMPDEST JUMPDEST SWAP1 PUSH1 0x0 MSTORE PUSH1 0x20 PUSH1 0x0 KECCAK256 SWAP1 PUSH1 0x2 MUL ADD PUSH1 0x0 ADD SLOAD EQ ISZERO PUSH2 0x260 JUMPI DUP2 PUSH1 0x0 DUP3 DUP2 SLOAD DUP2 LT PUSH2 0x23A JUMPI PUSH2 0x239 PUSH2 0x99B JUMP JUMPDEST JUMPDEST SWAP1 PUSH1 0x0 MSTORE PUSH1 0x20 PUSH1 0x0 KECCAK256 SWAP1 PUSH1 0x2 MUL ADD PUSH1 0x1 ADD SWAP1 DUP1 MLOAD SWAP1 PUSH1 0x20 ADD SWAP1 PUSH2 0x25E SWAP3 SWAP2 SWAP1 PUSH2 0x344 JUMP JUMPDEST POP JUMPDEST DUP1 DUP1 PUSH2 0x26B SWAP1 PUSH2 0x8F4 JUMP JUMPDEST SWAP2 POP POP PUSH2 0x1EC JUMP JUMPDEST POP POP POP JUMP JUMPDEST PUSH1 0x0 PUSH1 0x40 MLOAD DUP1 PUSH1 0x40 ADD PUSH1 0x40 MSTORE DUP1 DUP5 DUP2 MSTORE PUSH1 0x20 ADD DUP4 DUP2 MSTORE POP SWAP1 DUP1 PUSH1 0x1 DUP2 SLOAD ADD DUP1 DUP3 SSTORE DUP1 SWAP2 POP POP PUSH1 0x1 SWAP1 SUB SWAP1 PUSH1 0x0 MSTORE PUSH1 0x20 PUSH1 0x0 KECCAK256 SWAP1 PUSH1 0x2 MUL ADD PUSH1 0x0 SWAP1 SWAP2 SWAP1 SWAP2 SWAP1 SWAP2 POP PUSH1 0x0 DUP3 ADD MLOAD DUP2 PUSH1 0x0 ADD SSTORE PUSH1 0x20 DUP3 ADD MLOAD DUP2 PUSH1 0x1 ADD SWAP1 DUP1 MLOAD SWAP1 PUSH1 0x20 ADD SWAP1 PUSH2 0x2DE SWAP3 SWAP2 SWAP1 PUSH2 0x344 JUMP JUMPDEST POP POP POP PUSH1 0x0 PUSH1 0x1 PUSH1 0x0 CALLER PUSH20 0xFFFFFFFFFFFFFFFFFFFFFFFFFFFFFFFFFFFFFFFF AND PUSH20 0xFFFFFFFFFFFFFFFFFFFFFFFFFFFFFFFFFFFFFFFF AND DUP2 MSTORE PUSH1 0x20 ADD SWAP1 DUP2 MSTORE PUSH1 0x20 ADD PUSH1 0x0 KECCAK256 SWAP1 DUP1 SLOAD PUSH2 0x330 SWAP3 SWAP2 SWAP1 PUSH2 0x3CA JUMP JUMPDEST POP POP POP JUMP JUMPDEST PUSH1 0x0 DUP1 PUSH2 0x342 SWAP2 SWAP1 PUSH2 0x44C JUMP JUMPDEST JUMP JUMPDEST DUP3 DUP1 SLOAD PUSH2 0x350 SWAP1 PUSH2 0x891 JUMP JUMPDEST SWAP1 PUSH1 0x0 MSTORE PUSH1 0x20 PUSH1 0x0 KECCAK256 SWAP1 PUSH1 0x1F ADD PUSH1 0x20 SWAP1 DIV DUP2 ADD SWAP3 DUP3 PUSH2 0x372 JUMPI PUSH1 0x0 DUP6 SSTORE PUSH2 0x3B9 JUMP JUMPDEST DUP3 PUSH1 0x1F LT PUSH2 0x38B JUMPI DUP1 MLOAD PUSH1 0xFF NOT AND DUP4 DUP1 ADD OR DUP6 SSTORE PUSH2 0x3B9 JUMP JUMPDEST DUP3 DUP1 ADD PUSH1 0x1 ADD DUP6 SSTORE DUP3 ISZERO PUSH2 0x3B9 JUMPI SWAP2 DUP3 ADD JUMPDEST DUP3 DUP2 GT ISZERO PUSH2 0x3B8 JUMPI DUP3 MLOAD DUP3 SSTORE SWAP2 PUSH1 0x20 ADD SWAP2 SWAP1 PUSH1 0x1 ADD SWAP1 PUSH2 0x39D JUMP JUMPDEST JUMPDEST POP SWAP1 POP PUSH2 0x3C6 SWAP2 SWAP1 PUSH2 0x470 JUMP JUMPDEST POP SWAP1 JUMP JUMPDEST DUP3 DUP1 SLOAD DUP3 DUP3 SSTORE SWAP1 PUSH1 0x0 MSTORE PUSH1 0x20 PUSH1 0x0 KECCAK256 SWAP1 PUSH1 0x2 MUL DUP2 ADD SWAP3 DUP3 ISZERO PUSH2 0x43B JUMPI PUSH1 0x0 MSTORE PUSH1 0x20 PUSH1 0x0 KECCAK256 SWAP2 PUSH1 0x2 MUL DUP3 ADD JUMPDEST DUP3 DUP2 GT ISZERO PUSH2 0x43A JUMPI DUP3 DUP3 PUSH1 0x0 DUP3 ADD SLOAD DUP2 PUSH1 0x0 ADD SSTORE PUSH1 0x1 DUP3 ADD DUP2 PUSH1 0x1 ADD SWAP1 DUP1 SLOAD PUSH2 0x41D SWAP1 PUSH2 0x891 JUMP JUMPDEST PUSH2 0x428 SWAP3 SWAP2 SWAP1 PUSH2 0x48D JUMP JUMPDEST POP POP POP SWAP2 PUSH1 0x2 ADD SWAP2 SWAP1 PUSH1 0x2 ADD SWAP1 PUSH2 0x3F5 JUMP JUMPDEST JUMPDEST POP SWAP1 POP PUSH2 0x448 SWAP2 SWAP1 PUSH2 0x51A JUMP JUMPDEST POP SWAP1 JUMP JUMPDEST POP DUP1 SLOAD PUSH1 0x0 DUP3 SSTORE PUSH1 0x2 MUL SWAP1 PUSH1 0x0 MSTORE PUSH1 0x20 PUSH1 0x0 KECCAK256 SWAP1 DUP2 ADD SWAP1 PUSH2 0x46D SWAP2 SWAP1 PUSH2 0x51A JUMP JUMPDEST POP JUMP JUMPDEST JUMPDEST DUP1 DUP3 GT ISZERO PUSH2 0x489 JUMPI PUSH1 0x0 DUP2 PUSH1 0x0 SWAP1 SSTORE POP PUSH1 0x1 ADD PUSH2 0x471 JUMP JUMPDEST POP SWAP1 JUMP JUMPDEST DUP3 DUP1 SLOAD PUSH2 0x499 SWAP1 PUSH2 0x891 JUMP JUMPDEST SWAP1 PUSH1 0x0 MSTORE PUSH1 0x20 PUSH1 0x0 KECCAK256 SWAP1 PUSH1 0x1F ADD PUSH1 0x20 SWAP1 DIV DUP2 ADD SWAP3 DUP3 PUSH2 0x4BB JUMPI PUSH1 0x0 DUP6 SSTORE PUSH2 0x509 JUMP JUMPDEST DUP3 PUSH1 0x1F LT PUSH2 0x4CC JUMPI DUP1 SLOAD DUP6 SSTORE PUSH2 0x509 JUMP JUMPDEST DUP3 DUP1 ADD PUSH1 0x1 ADD DUP6 SSTORE DUP3 ISZERO PUSH2 0x509 JUMPI PUSH1 0x0 MSTORE PUSH1 0x20 PUSH1 0x0 KECCAK256 SWAP2 PUSH1 0x1F ADD PUSH1 0x20 SWAP1 DIV DUP3 ADD JUMPDEST DUP3 DUP2 GT ISZERO PUSH2 0x508 JUMPI DUP3 SLOAD DUP3 SSTORE SWAP2 PUSH1 0x1 ADD SWAP2 SWAP1 PUSH1 0x1 ADD SWAP1 PUSH2 0x4ED JUMP JUMPDEST JUMPDEST POP SWAP1 POP PUSH2 0x516 SWAP2 SWAP1 PUSH2 0x470 JUMP JUMPDEST POP SWAP1 JUMP JUMPDEST JUMPDEST DUP1 DUP3 GT ISZERO PUSH2 0x545 JUMPI PUSH1 0x0 DUP1 DUP3 ADD PUSH1 0x0 SWAP1 SSTORE PUSH1 0x1 DUP3 ADD PUSH1 0x0 PUSH2 0x53C SWAP2 SWAP1 PUSH2 0x549 JUMP JUMPDEST POP PUSH1 0x2 ADD PUSH2 0x51B JUMP JUMPDEST POP SWAP1 JUMP JUMPDEST POP DUP1 SLOAD PUSH2 0x555 SWAP1 PUSH2 0x891 JUMP JUMPDEST PUSH1 0x0 DUP3 SSTORE DUP1 PUSH1 0x1F LT PUSH2 0x567 JUMPI POP PUSH2 0x586 JUMP JUMPDEST PUSH1 0x1F ADD PUSH1 0x20 SWAP1 DIV SWAP1 PUSH1 0x0 MSTORE PUSH1 0x20 PUSH1 0x0 KECCAK256 SWAP1 DUP2 ADD SWAP1 PUSH2 0x585 SWAP2 SWAP1 PUSH2 0x470 JUMP JUMPDEST JUMPDEST POP JUMP JUMPDEST PUSH1 0x0 PUSH2 0x59C PUSH2 0x597 DUP5 PUSH2 0x7BF JUMP JUMPDEST PUSH2 0x79A JUMP JUMPDEST SWAP1 POP DUP3 DUP2 MSTORE PUSH1 0x20 DUP2 ADD DUP5 DUP5 DUP5 ADD GT ISZERO PUSH2 0x5B8 JUMPI PUSH2 0x5B7 PUSH2 0x9FE JUMP JUMPDEST JUMPDEST PUSH2 0x5C3 DUP5 DUP3 DUP6 PUSH2 0x84F JUMP JUMPDEST POP SWAP4 SWAP3 POP POP POP JUMP JUMPDEST PUSH1 0x0 DUP3 PUSH1 0x1F DUP4 ADD SLT PUSH2 0x5E0 JUMPI PUSH2 0x5DF PUSH2 0x9F9 JUMP JUMPDEST JUMPDEST DUP2 CALLDATALOAD PUSH2 0x5F0 DUP5 DUP3 PUSH1 0x20 DUP7 ADD PUSH2 0x589 JUMP JUMPDEST SWAP2 POP POP SWAP3 SWAP2 POP POP JUMP JUMPDEST PUSH1 0x0 DUP2 CALLDATALOAD SWAP1 POP PUSH2 0x608 DUP2 PUSH2 0xA1E JUMP JUMPDEST SWAP3 SWAP2 POP POP JUMP JUMPDEST PUSH1 0x0 DUP1 PUSH1 0x40 DUP4 DUP6 SUB SLT ISZERO PUSH2 0x625 JUMPI PUSH2 0x624 PUSH2 0xA08 JUMP JUMPDEST JUMPDEST PUSH1 0x0 PUSH2 0x633 DUP6 DUP3 DUP7 ADD PUSH2 0x5F9 JUMP JUMPDEST SWAP3 POP POP PUSH1 0x20 DUP4 ADD CALLDATALOAD PUSH8 0xFFFFFFFFFFFFFFFF DUP2 GT ISZERO PUSH2 0x654 JUMPI PUSH2 0x653 PUSH2 0xA03 JUMP JUMPDEST JUMPDEST PUSH2 0x660 DUP6 DUP3 DUP7 ADD PUSH2 0x5CB JUMP JUMPDEST SWAP2 POP POP SWAP3 POP SWAP3 SWAP1 POP JUMP JUMPDEST PUSH1 0x0 PUSH2 0x676 DUP4 DUP4 PUSH2 0x72C JUMP JUMPDEST SWAP1 POP SWAP3 SWAP2 POP POP JUMP JUMPDEST PUSH1 0x0 PUSH2 0x689 DUP3 PUSH2 0x800 JUMP JUMPDEST PUSH2 0x693 DUP2 DUP6 PUSH2 0x823 JUMP JUMPDEST SWAP4 POP DUP4 PUSH1 0x20 DUP3 MUL DUP6 ADD PUSH2 0x6A5 DUP6 PUSH2 0x7F0 JUMP JUMPDEST DUP1 PUSH1 0x0 JUMPDEST DUP6 DUP2 LT ISZERO PUSH2 0x6E1 JUMPI DUP5 DUP5 SUB DUP10 MSTORE DUP2 MLOAD PUSH2 0x6C2 DUP6 DUP3 PUSH2 0x66A JUMP JUMPDEST SWAP5 POP PUSH2 0x6CD DUP4 PUSH2 0x816 JUMP JUMPDEST SWAP3 POP PUSH1 0x20 DUP11 ADD SWAP10 POP POP PUSH1 0x1 DUP2 ADD SWAP1 POP PUSH2 0x6A9 JUMP JUMPDEST POP DUP3 SWAP8 POP DUP8 SWAP6 POP POP POP POP POP POP SWAP3 SWAP2 POP POP JUMP JUMPDEST PUSH1 0x0 PUSH2 0x6FE DUP3 PUSH2 0x80B JUMP JUMPDEST PUSH2 0x708 DUP2 DUP6 PUSH2 0x834 JUMP JUMPDEST SWAP4 POP PUSH2 0x718 DUP2 DUP6 PUSH1 0x20 DUP7 ADD PUSH2 0x85E JUMP JUMPDEST PUSH2 0x721 DUP2 PUSH2 0xA0D JUMP JUMPDEST DUP5 ADD SWAP2 POP POP SWAP3 SWAP2 POP POP JUMP JUMPDEST PUSH1 0x0 PUSH1 0x40 DUP4 ADD PUSH1 0x0 DUP4 ADD MLOAD PUSH2 0x744 PUSH1 0x0 DUP7 ADD DUP3 PUSH2 0x769 JUMP JUMPDEST POP PUSH1 0x20 DUP4 ADD MLOAD DUP5 DUP3 SUB PUSH1 0x20 DUP7 ADD MSTORE PUSH2 0x75C DUP3 DUP3 PUSH2 0x6F3 JUMP JUMPDEST SWAP2 POP POP DUP1 SWAP2 POP POP SWAP3 SWAP2 POP POP JUMP JUMPDEST PUSH2 0x772 DUP2 PUSH2 0x845 JUMP JUMPDEST DUP3 MSTORE POP POP JUMP JUMPDEST PUSH1 0x0 PUSH1 0x20 DUP3 ADD SWAP1 POP DUP2 DUP2 SUB PUSH1 0x0 DUP4 ADD MSTORE PUSH2 0x792 DUP2 DUP5 PUSH2 0x67E JUMP JUMPDEST SWAP1 POP SWAP3 SWAP2 POP POP JUMP JUMPDEST PUSH1 0x0 PUSH2 0x7A4 PUSH2 0x7B5 JUMP JUMPDEST SWAP1 POP PUSH2 0x7B0 DUP3 DUP3 PUSH2 0x8C3 JUMP JUMPDEST SWAP2 SWAP1 POP JUMP JUMPDEST PUSH1 0x0 PUSH1 0x40 MLOAD SWAP1 POP SWAP1 JUMP JUMPDEST PUSH1 0x0 PUSH8 0xFFFFFFFFFFFFFFFF DUP3 GT ISZERO PUSH2 0x7DA JUMPI PUSH2 0x7D9 PUSH2 0x9CA JUMP JUMPDEST JUMPDEST PUSH2 0x7E3 DUP3 PUSH2 0xA0D JUMP JUMPDEST SWAP1 POP PUSH1 0x20 DUP2 ADD SWAP1 POP SWAP2 SWAP1 POP JUMP JUMPDEST PUSH1 0x0 DUP2 SWAP1 POP PUSH1 0x20 DUP3 ADD SWAP1 POP SWAP2 SWAP1 POP JUMP JUMPDEST PUSH1 0x0 DUP2 MLOAD SWAP1 POP SWAP2 SWAP1 POP JUMP JUMPDEST PUSH1 0x0 DUP2 MLOAD SWAP1 POP SWAP2 SWAP1 POP JUMP JUMPDEST PUSH1 0x0 PUSH1 0x20 DUP3 ADD SWAP1 POP SWAP2 SWAP1 POP JUMP JUMPDEST PUSH1 0x0 DUP3 DUP3 MSTORE PUSH1 0x20 DUP3 ADD SWAP1 POP SWAP3 SWAP2 POP POP JUMP JUMPDEST PUSH1 0x0 DUP3 DUP3 MSTORE PUSH1 0x20 DUP3 ADD SWAP1 POP SWAP3 SWAP2 POP POP JUMP JUMPDEST PUSH1 0x0 DUP2 SWAP1 POP SWAP2 SWAP1 POP JUMP JUMPDEST DUP3 DUP2 DUP4 CALLDATACOPY PUSH1 0x0 DUP4 DUP4 ADD MSTORE POP POP POP JUMP JUMPDEST PUSH1 0x0 JUMPDEST DUP4 DUP2 LT ISZERO PUSH2 0x87C JUMPI DUP1 DUP3 ADD MLOAD DUP2 DUP5 ADD MSTORE PUSH1 0x20 DUP2 ADD SWAP1 POP PUSH2 0x861 JUMP JUMPDEST DUP4 DUP2 GT ISZERO PUSH2 0x88B JUMPI PUSH1 0x0 DUP5 DUP5 ADD MSTORE JUMPDEST POP POP POP POP JUMP JUMPDEST PUSH1 0x0 PUSH1 0x2 DUP3 DIV SWAP1 POP PUSH1 0x1 DUP3 AND DUP1 PUSH2 0x8A9 JUMPI PUSH1 0x7F DUP3 AND SWAP2 POP JUMPDEST PUSH1 0x20 DUP3 LT DUP2 EQ ISZERO PUSH2 0x8BD JUMPI PUSH2 0x8BC PUSH2 0x96C JUMP JUMPDEST JUMPDEST POP SWAP2 SWAP1 POP JUMP JUMPDEST PUSH2 0x8CC DUP3 PUSH2 0xA0D JUMP JUMPDEST DUP2 ADD DUP2 DUP2 LT PUSH8 0xFFFFFFFFFFFFFFFF DUP3 GT OR ISZERO PUSH2 0x8EB JUMPI PUSH2 0x8EA PUSH2 0x9CA JUMP JUMPDEST JUMPDEST DUP1 PUSH1 0x40 MSTORE POP POP POP JUMP JUMPDEST PUSH1 0x0 PUSH2 0x8FF DUP3 PUSH2 0x845 JUMP JUMPDEST SWAP2 POP PUSH32 0xFFFFFFFFFFFFFFFFFFFFFFFFFFFFFFFFFFFFFFFFFFFFFFFFFFFFFFFFFFFFFFFF DUP3 EQ ISZERO PUSH2 0x932 JUMPI PUSH2 0x931 PUSH2 0x93D JUMP JUMPDEST JUMPDEST PUSH1 0x1 DUP3 ADD SWAP1 POP SWAP2 SWAP1 POP JUMP JUMPDEST PUSH32 0x4E487B7100000000000000000000000000000000000000000000000000000000 PUSH1 0x0 MSTORE PUSH1 0x11 PUSH1 0x4 MSTORE PUSH1 0x24 PUSH1 0x0 REVERT JUMPDEST PUSH32 0x4E487B7100000000000000000000000000000000000000000000000000000000 PUSH1 0x0 MSTORE PUSH1 0x22 PUSH1 0x4 MSTORE PUSH1 0x24 PUSH1 0x0 REVERT JUMPDEST PUSH32 0x4E487B7100000000000000000000000000000000000000000000000000000000 PUSH1 0x0 MSTORE PUSH1 0x32 PUSH1 0x4 MSTORE PUSH1 0x24 PUSH1 0x0 REVERT JUMPDEST PUSH32 0x4E487B7100000000000000000000000000000000000000000000000000000000 PUSH1 0x0 MSTORE PUSH1 0x41 PUSH1 0x4 MSTORE PUSH1 0x24 PUSH1 0x0 REVERT JUMPDEST PUSH1 0x0 DUP1 REVERT JUMPDEST PUSH1 0x0 DUP1 REVERT JUMPDEST PUSH1 0x0 DUP1 REVERT JUMPDEST PUSH1 0x0 DUP1 REVERT JUMPDEST PUSH1 0x0 PUSH1 0x1F NOT PUSH1 0x1F DUP4 ADD AND SWAP1 POP SWAP2 SWAP1 POP JUMP JUMPDEST PUSH2 0xA27 DUP2 PUSH2 0x845 JUMP JUMPDEST DUP2 EQ PUSH2 0xA32 JUMPI PUSH1 0x0 DUP1 REVERT JUMPDEST POP JUMP INVALID LOG2 PUSH5 0x6970667358 0x22 SLT KECCAK256 0x5D GASLIMIT ADDMOD MULMOD 0xD4 CALLDATALOAD PUSH25 0xF6A1941D1E05DE3EC08C3F66CDFB8271694E1440D10BBBB466 PUSH5 0x736F6C6343 STOP ADDMOD SMOD STOP CALLER "
				},
				"gasEstimates": {
					"creation": {
						"codeDepositCost": "533400",
						"executionCost": "568",
						"totalCost": "533968"
					},
					"external": {
						"addTodo(uint256,string)": "infinite",
						"resetAll()": "infinite",
						"showTodos()": "infinite",
						"updateTodos(uint256,string)": "infinite"
					}
				},
				"methodIdentifiers": {
					"addTodo(uint256,string)": "c1da2020",
					"resetAll()": "e103aef5",
					"showTodos()": "600060eb",
					"updateTodos(uint256,string)": "67e8b7f7"
				}
			},
			"storageLayout": {
				"storage": [
					{
						"astId": 10,
						"contract": "Todo.sol:Todo",
						"label": "todos",
						"offset": 0,
						"slot": "0",
						"type": "t_array(t_struct(todoObj)6_storage)dyn_storage"
					},
					{
						"astId": 16,
						"contract": "Todo.sol:Todo",
						"label": "todosMap",
						"offset": 0,
						"slot": "1",
						"type": "t_mapping(t_address,t_array(t_struct(todoObj)6_storage)dyn_storage)"
					}
				],
				"types": {
					"t_address": {
						"encoding": "inplace",
						"label": "address",
						"numberOfBytes": "20"
					},
					"t_array(t_struct(todoObj)6_storage)dyn_storage": {
						"base": "t_struct(todoObj)6_storage",
						"encoding": "dynamic_array",
						"label": "struct Todo.todoObj[]",
						"numberOfBytes": "32"
					},
					"t_mapping(t_address,t_array(t_struct(todoObj)6_storage)dyn_storage)": {
						"encoding": "mapping",
						"key": "t_address",
						"label": "mapping(address => struct Todo.todoObj[])",
						"numberOfBytes": "32",
						"value": "t_array(t_struct(todoObj)6_storage)dyn_storage"
					},
					"t_string_storage": {
						"encoding": "bytes",
						"label": "string",
						"numberOfBytes": "32"
					},
					"t_struct(todoObj)6_storage": {
						"encoding": "inplace",
						"label": "struct Todo.todoObj",
						"members": [
							{
								"astId": 3,
								"contract": "Todo.sol:Todo",
								"label": "id",
								"offset": 0,
								"slot": "0",
								"type": "t_uint256"
							},
							{
								"astId": 5,
								"contract": "Todo.sol:Todo",
								"label": "todoText",
								"offset": 0,
								"slot": "1",
								"type": "t_string_storage"
							}
						],
						"numberOfBytes": "64"
					},
					"t_uint256": {
						"encoding": "inplace",
						"label": "uint256",
						"numberOfBytes": "32"
					}
				}
			},
			"userdoc": {
				"kind": "user",
				"methods": {},
				"version": 1
			}
		}
	}
}