{
	"todomain.sol": {
		"TodoMain": {
			"abi": [
				{
					"anonymous": false,
					"inputs": [
						{
							"indexed": false,
							"internalType": "uint256",
							"name": "",
							"type": "uint256"
						},
						{
							"indexed": false,
							"internalType": "string",
							"name": "",
							"type": "string"
						}
					],
					"name": "TaskCreate",
					"type": "event"
				},
				{
					"inputs": [
						{
							"internalType": "uint256",
							"name": "_id",
							"type": "uint256"
						},
						{
							"internalType": "string",
							"name": "_todoName",
							"type": "string"
						},
						{
							"internalType": "string",
							"name": "_todoes",
							"type": "string"
						}
					],
					"name": "addTodo",
					"outputs": [],
					"stateMutability": "nonpayable",
					"type": "function"
				},
				{
					"inputs": [],
					"name": "showTodo",
					"outputs": [
						{
							"components": [
								{
									"internalType": "uint256",
									"name": "id",
									"type": "uint256"
								},
								{
									"internalType": "string",
									"name": "todoName",
									"type": "string"
								},
								{
									"internalType": "string",
									"name": "todos",
									"type": "string"
								}
							],
							"internalType": "struct TodoMain.TodoObj[]",
							"name": "",
							"type": "tuple[]"
						}
					],
					"stateMutability": "view",
					"type": "function"
				},
				{
					"inputs": [
						{
							"internalType": "uint256",
							"name": "",
							"type": "uint256"
						}
					],
					"name": "todos",
					"outputs": [
						{
							"internalType": "uint256",
							"name": "id",
							"type": "uint256"
						},
						{
							"internalType": "string",
							"name": "todoName",
							"type": "string"
						},
						{
							"internalType": "string",
							"name": "todos",
							"type": "string"
						}
					],
					"stateMutability": "view",
					"type": "function"
				}
			],
			"devdoc": {
				"kind": "dev",
				"methods": {},
				"version": 1
			},
			"evm": {
				"assembly": "    /* \"todomain.sol\":64:633  contract TodoMain{\r... */\n  mstore(0x40, 0x80)\n  callvalue\n  dup1\n  iszero\n  tag_1\n  jumpi\n  0x00\n  dup1\n  revert\ntag_1:\n  pop\n  dataSize(sub_0)\n  dup1\n  dataOffset(sub_0)\n  0x00\n  codecopy\n  0x00\n  return\nstop\n\nsub_0: assembly {\n        /* \"todomain.sol\":64:633  contract TodoMain{\r... */\n      mstore(0x40, 0x80)\n      callvalue\n      dup1\n      iszero\n      tag_1\n      jumpi\n      0x00\n      dup1\n      revert\n    tag_1:\n      pop\n      jumpi(tag_2, lt(calldatasize, 0x04))\n      shr(0xe0, calldataload(0x00))\n      dup1\n      0x82e76b88\n      eq\n      tag_3\n      jumpi\n      dup1\n      0xbc8bc2b4\n      eq\n      tag_4\n      jumpi\n      dup1\n      0xe83ebd32\n      eq\n      tag_5\n      jumpi\n    tag_2:\n      0x00\n      dup1\n      revert\n        /* \"todomain.sol\":526:628  function showTodo() public view returns(TodoObj[] memory){\r... */\n    tag_3:\n      tag_6\n      tag_7\n      jump\t// in\n    tag_6:\n      mload(0x40)\n      tag_8\n      swap2\n      swap1\n      tag_9\n      jump\t// in\n    tag_8:\n      mload(0x40)\n      dup1\n      swap2\n      sub\n      swap1\n      return\n        /* \"todomain.sol\":223:245  TodoObj[] public todos */\n    tag_4:\n      tag_10\n      0x04\n      dup1\n      calldatasize\n      sub\n      dup2\n      add\n      swap1\n      tag_11\n      swap2\n      swap1\n      tag_12\n      jump\t// in\n    tag_11:\n      tag_13\n      jump\t// in\n    tag_10:\n      mload(0x40)\n      tag_14\n      swap4\n      swap3\n      swap2\n      swap1\n      tag_15\n      jump\t// in\n    tag_14:\n      mload(0x40)\n      dup1\n      swap2\n      sub\n      swap1\n      return\n        /* \"todomain.sol\":296:518  function addTodo(uint _id, string memory _todoName, string memory _todoes) public {\r... */\n    tag_5:\n      tag_16\n      0x04\n      dup1\n      calldatasize\n      sub\n      dup2\n      add\n      swap1\n      tag_17\n      swap2\n      swap1\n      tag_18\n      jump\t// in\n    tag_17:\n      tag_19\n      jump\t// in\n    tag_16:\n      stop\n        /* \"todomain.sol\":526:628  function showTodo() public view returns(TodoObj[] memory){\r... */\n    tag_7:\n        /* \"todomain.sol\":566:582  TodoObj[] memory */\n      0x60\n        /* \"todomain.sol\":601:608  todoMap */\n      0x01\n        /* \"todomain.sol\":601:620  todoMap[msg.sender] */\n      0x00\n        /* \"todomain.sol\":609:619  msg.sender */\n      caller\n        /* \"todomain.sol\":601:620  todoMap[msg.sender] */\n      0xffffffffffffffffffffffffffffffffffffffff\n      and\n      0xffffffffffffffffffffffffffffffffffffffff\n      and\n      dup2\n      mstore\n      0x20\n      add\n      swap1\n      dup2\n      mstore\n      0x20\n      add\n      0x00\n      keccak256\n        /* \"todomain.sol\":594:620  return todoMap[msg.sender] */\n      dup1\n      sload\n      dup1\n      0x20\n      mul\n      0x20\n      add\n      mload(0x40)\n      swap1\n      dup2\n      add\n      0x40\n      mstore\n      dup1\n      swap3\n      swap2\n      swap1\n      dup2\n      dup2\n      mstore\n      0x20\n      add\n      0x00\n      swap1\n    tag_21:\n      dup3\n      dup3\n      lt\n      iszero\n      tag_22\n      jumpi\n      dup4\n      dup3\n      swap1\n      0x00\n      mstore\n      keccak256(0x00, 0x20)\n      swap1\n      0x03\n      mul\n      add\n      mload(0x40)\n      dup1\n      0x60\n      add\n      0x40\n      mstore\n      swap1\n      dup2\n      0x00\n      dup3\n      add\n      sload\n      dup2\n      mstore\n      0x20\n      add\n      0x01\n      dup3\n      add\n      dup1\n      sload\n      tag_24\n      swap1\n      tag_25\n      jump\t// in\n    tag_24:\n      dup1\n      0x1f\n      add\n      0x20\n      dup1\n      swap2\n      div\n      mul\n      0x20\n      add\n      mload(0x40)\n      swap1\n      dup2\n      add\n      0x40\n      mstore\n      dup1\n      swap3\n      swap2\n      swap1\n      dup2\n      dup2\n      mstore\n      0x20\n      add\n      dup3\n      dup1\n      sload\n      tag_26\n      swap1\n      tag_25\n      jump\t// in\n    tag_26:\n      dup1\n      iszero\n      tag_27\n      jumpi\n      dup1\n      0x1f\n      lt\n      tag_28\n      jumpi\n      0x0100\n      dup1\n      dup4\n      sload\n      div\n      mul\n      dup4\n      mstore\n      swap2\n      0x20\n      add\n      swap2\n      jump(tag_27)\n    tag_28:\n      dup3\n      add\n      swap2\n      swap1\n      0x00\n      mstore\n      keccak256(0x00, 0x20)\n      swap1\n    tag_29:\n      dup2\n      sload\n      dup2\n      mstore\n      swap1\n      0x01\n      add\n      swap1\n      0x20\n      add\n      dup1\n      dup4\n      gt\n      tag_29\n      jumpi\n      dup3\n      swap1\n      sub\n      0x1f\n      and\n      dup3\n      add\n      swap2\n    tag_27:\n      pop\n      pop\n      pop\n      pop\n      pop\n      dup2\n      mstore\n      0x20\n      add\n      0x02\n      dup3\n      add\n      dup1\n      sload\n      tag_30\n      swap1\n      tag_25\n      jump\t// in\n    tag_30:\n      dup1\n      0x1f\n      add\n      0x20\n      dup1\n      swap2\n      div\n      mul\n      0x20\n      add\n      mload(0x40)\n      swap1\n      dup2\n      add\n      0x40\n      mstore\n      dup1\n      swap3\n      swap2\n      swap1\n      dup2\n      dup2\n      mstore\n      0x20\n      add\n      dup3\n      dup1\n      sload\n      tag_31\n      swap1\n      tag_25\n      jump\t// in\n    tag_31:\n      dup1\n      iszero\n      tag_32\n      jumpi\n      dup1\n      0x1f\n      lt\n      tag_33\n      jumpi\n      0x0100\n      dup1\n      dup4\n      sload\n      div\n      mul\n      dup4\n      mstore\n      swap2\n      0x20\n      add\n      swap2\n      jump(tag_32)\n    tag_33:\n      dup3\n      add\n      swap2\n      swap1\n      0x00\n      mstore\n      keccak256(0x00, 0x20)\n      swap1\n    tag_34:\n      dup2\n      sload\n      dup2\n      mstore\n      swap1\n      0x01\n      add\n      swap1\n      0x20\n      add\n      dup1\n      dup4\n      gt\n      tag_34\n      jumpi\n      dup3\n      swap1\n      sub\n      0x1f\n      and\n      dup3\n      add\n      swap2\n    tag_32:\n      pop\n      pop\n      pop\n      pop\n      pop\n      dup2\n      mstore\n      pop\n      pop\n      dup2\n      mstore\n      0x20\n      add\n      swap1\n      0x01\n      add\n      swap1\n      jump(tag_21)\n    tag_22:\n      pop\n      pop\n      pop\n      pop\n      swap1\n      pop\n        /* \"todomain.sol\":526:628  function showTodo() public view returns(TodoObj[] memory){\r... */\n      swap1\n      jump\t// out\n        /* \"todomain.sol\":223:245  TodoObj[] public todos */\n    tag_13:\n      0x00\n      dup2\n      dup2\n      sload\n      dup2\n      lt\n      tag_35\n      jumpi\n      0x00\n      dup1\n      revert\n    tag_35:\n      swap1\n      0x00\n      mstore\n      keccak256(0x00, 0x20)\n      swap1\n      0x03\n      mul\n      add\n      0x00\n      swap2\n      pop\n      swap1\n      pop\n      dup1\n      0x00\n      add\n      sload\n      swap1\n      dup1\n      0x01\n      add\n      dup1\n      sload\n      tag_37\n      swap1\n      tag_25\n      jump\t// in\n    tag_37:\n      dup1\n      0x1f\n      add\n      0x20\n      dup1\n      swap2\n      div\n      mul\n      0x20\n      add\n      mload(0x40)\n      swap1\n      dup2\n      add\n      0x40\n      mstore\n      dup1\n      swap3\n      swap2\n      swap1\n      dup2\n      dup2\n      mstore\n      0x20\n      add\n      dup3\n      dup1\n      sload\n      tag_38\n      swap1\n      tag_25\n      jump\t// in\n    tag_38:\n      dup1\n      iszero\n      tag_39\n      jumpi\n      dup1\n      0x1f\n      lt\n      tag_40\n      jumpi\n      0x0100\n      dup1\n      dup4\n      sload\n      div\n      mul\n      dup4\n      mstore\n      swap2\n      0x20\n      add\n      swap2\n      jump(tag_39)\n    tag_40:\n      dup3\n      add\n      swap2\n      swap1\n      0x00\n      mstore\n      keccak256(0x00, 0x20)\n      swap1\n    tag_41:\n      dup2\n      sload\n      dup2\n      mstore\n      swap1\n      0x01\n      add\n      swap1\n      0x20\n      add\n      dup1\n      dup4\n      gt\n      tag_41\n      jumpi\n      dup3\n      swap1\n      sub\n      0x1f\n      and\n      dup3\n      add\n      swap2\n    tag_39:\n      pop\n      pop\n      pop\n      pop\n      pop\n      swap1\n      dup1\n      0x02\n      add\n      dup1\n      sload\n      tag_42\n      swap1\n      tag_25\n      jump\t// in\n    tag_42:\n      dup1\n      0x1f\n      add\n      0x20\n      dup1\n      swap2\n      div\n      mul\n      0x20\n      add\n      mload(0x40)\n      swap1\n      dup2\n      add\n      0x40\n      mstore\n      dup1\n      swap3\n      swap2\n      swap1\n      dup2\n      dup2\n      mstore\n      0x20\n      add\n      dup3\n      dup1\n      sload\n      tag_43\n      swap1\n      tag_25\n      jump\t// in\n    tag_43:\n      dup1\n      iszero\n      tag_44\n      jumpi\n      dup1\n      0x1f\n      lt\n      tag_45\n      jumpi\n      0x0100\n      dup1\n      dup4\n      sload\n      div\n      mul\n      dup4\n      mstore\n      swap2\n      0x20\n      add\n      swap2\n      jump(tag_44)\n    tag_45:\n      dup3\n      add\n      swap2\n      swap1\n      0x00\n      mstore\n      keccak256(0x00, 0x20)\n      swap1\n    tag_46:\n      dup2\n      sload\n      dup2\n      mstore\n      swap1\n      0x01\n      add\n      swap1\n      0x20\n      add\n      dup1\n      dup4\n      gt\n      tag_46\n      jumpi\n      dup3\n      swap1\n      sub\n      0x1f\n      and\n      dup3\n      add\n      swap2\n    tag_44:\n      pop\n      pop\n      pop\n      pop\n      pop\n      swap1\n      pop\n      dup4\n      jump\t// out\n        /* \"todomain.sol\":296:518  function addTodo(uint _id, string memory _todoName, string memory _todoes) public {\r... */\n    tag_19:\n        /* \"todomain.sol\":389:394  todos */\n      0x00\n        /* \"todomain.sol\":400:430  TodoObj(_id,_todoName,_todoes) */\n      mload(0x40)\n      dup1\n      0x60\n      add\n      0x40\n      mstore\n      dup1\n        /* \"todomain.sol\":408:411  _id */\n      dup6\n        /* \"todomain.sol\":400:430  TodoObj(_id,_todoName,_todoes) */\n      dup2\n      mstore\n      0x20\n      add\n        /* \"todomain.sol\":412:421  _todoName */\n      dup5\n        /* \"todomain.sol\":400:430  TodoObj(_id,_todoName,_todoes) */\n      dup2\n      mstore\n      0x20\n      add\n        /* \"todomain.sol\":422:429  _todoes */\n      dup4\n        /* \"todomain.sol\":400:430  TodoObj(_id,_todoName,_todoes) */\n      dup2\n      mstore\n      pop\n        /* \"todomain.sol\":389:431  todos.push(TodoObj(_id,_todoName,_todoes)) */\n      swap1\n      dup1\n      0x01\n      dup2\n      sload\n      add\n      dup1\n      dup3\n      sstore\n      dup1\n      swap2\n      pop\n      pop\n      0x01\n      swap1\n      sub\n      swap1\n      0x00\n      mstore\n      keccak256(0x00, 0x20)\n      swap1\n      0x03\n      mul\n      add\n      0x00\n      swap1\n      swap2\n      swap1\n      swap2\n      swap1\n      swap2\n      pop\n      0x00\n      dup3\n      add\n      mload\n      dup2\n      0x00\n      add\n      sstore\n      0x20\n      dup3\n      add\n      mload\n      dup2\n      0x01\n      add\n      swap1\n      dup1\n      mload\n      swap1\n      0x20\n      add\n      swap1\n      tag_49\n      swap3\n      swap2\n      swap1\n      tag_50\n      jump\t// in\n    tag_49:\n      pop\n      0x40\n      dup3\n      add\n      mload\n      dup2\n      0x02\n      add\n      swap1\n      dup1\n      mload\n      swap1\n      0x20\n      add\n      swap1\n      tag_51\n      swap3\n      swap2\n      swap1\n      tag_50\n      jump\t// in\n    tag_51:\n      pop\n      pop\n      pop\n        /* \"todomain.sol\":464:469  todos */\n      0x00\n        /* \"todomain.sol\":442:449  todoMap */\n      0x01\n        /* \"todomain.sol\":442:461  todoMap[msg.sender] */\n      0x00\n        /* \"todomain.sol\":450:460  msg.sender */\n      caller\n        /* \"todomain.sol\":442:461  todoMap[msg.sender] */\n      0xffffffffffffffffffffffffffffffffffffffff\n      and\n      0xffffffffffffffffffffffffffffffffffffffff\n      and\n      dup2\n      mstore\n      0x20\n      add\n      swap1\n      dup2\n      mstore\n      0x20\n      add\n      0x00\n      keccak256\n        /* \"todomain.sol\":442:469  todoMap[msg.sender] = todos */\n      swap1\n      dup1\n      sload\n      tag_52\n      swap3\n      swap2\n      swap1\n      tag_53\n      jump\t// in\n    tag_52:\n      pop\n        /* \"todomain.sol\":485:510  TaskCreate(_id,_todoName) */\n      0x3c981eaf8f806637941d1237961055d66e8636b71bc453db0c9e245a154760fd\n        /* \"todomain.sol\":496:499  _id */\n      dup4\n        /* \"todomain.sol\":500:509  _todoName */\n      dup4\n        /* \"todomain.sol\":485:510  TaskCreate(_id,_todoName) */\n      mload(0x40)\n      tag_54\n      swap3\n      swap2\n      swap1\n      tag_55\n      jump\t// in\n    tag_54:\n      mload(0x40)\n      dup1\n      swap2\n      sub\n      swap1\n      log1\n        /* \"todomain.sol\":296:518  function addTodo(uint _id, string memory _todoName, string memory _todoes) public {\r... */\n      pop\n      pop\n      pop\n      jump\t// out\n    tag_50:\n      dup3\n      dup1\n      sload\n      tag_56\n      swap1\n      tag_25\n      jump\t// in\n    tag_56:\n      swap1\n      0x00\n      mstore\n      keccak256(0x00, 0x20)\n      swap1\n      0x1f\n      add\n      0x20\n      swap1\n      div\n      dup2\n      add\n      swap3\n      dup3\n      tag_58\n      jumpi\n      0x00\n      dup6\n      sstore\n      jump(tag_57)\n    tag_58:\n      dup3\n      0x1f\n      lt\n      tag_59\n      jumpi\n      dup1\n      mload\n      not(0xff)\n      and\n      dup4\n      dup1\n      add\n      or\n      dup6\n      sstore\n      jump(tag_57)\n    tag_59:\n      dup3\n      dup1\n      add\n      0x01\n      add\n      dup6\n      sstore\n      dup3\n      iszero\n      tag_57\n      jumpi\n      swap2\n      dup3\n      add\n    tag_60:\n      dup3\n      dup2\n      gt\n      iszero\n      tag_61\n      jumpi\n      dup3\n      mload\n      dup3\n      sstore\n      swap2\n      0x20\n      add\n      swap2\n      swap1\n      0x01\n      add\n      swap1\n      jump(tag_60)\n    tag_61:\n    tag_57:\n      pop\n      swap1\n      pop\n      tag_62\n      swap2\n      swap1\n      tag_63\n      jump\t// in\n    tag_62:\n      pop\n      swap1\n      jump\t// out\n    tag_53:\n      dup3\n      dup1\n      sload\n      dup3\n      dup3\n      sstore\n      swap1\n      0x00\n      mstore\n      keccak256(0x00, 0x20)\n      swap1\n      0x03\n      mul\n      dup2\n      add\n      swap3\n      dup3\n      iszero\n      tag_64\n      jumpi\n      0x00\n      mstore\n      keccak256(0x00, 0x20)\n      swap2\n      0x03\n      mul\n      dup3\n      add\n    tag_65:\n      dup3\n      dup2\n      gt\n      iszero\n      tag_66\n      jumpi\n      dup3\n      dup3\n      0x00\n      dup3\n      add\n      sload\n      dup2\n      0x00\n      add\n      sstore\n      0x01\n      dup3\n      add\n      dup2\n      0x01\n      add\n      swap1\n      dup1\n      sload\n      tag_67\n      swap1\n      tag_25\n      jump\t// in\n    tag_67:\n      tag_68\n      swap3\n      swap2\n      swap1\n      tag_69\n      jump\t// in\n    tag_68:\n      pop\n      0x02\n      dup3\n      add\n      dup2\n      0x02\n      add\n      swap1\n      dup1\n      sload\n      tag_70\n      swap1\n      tag_25\n      jump\t// in\n    tag_70:\n      tag_71\n      swap3\n      swap2\n      swap1\n      tag_69\n      jump\t// in\n    tag_71:\n      pop\n      pop\n      pop\n      swap2\n      0x03\n      add\n      swap2\n      swap1\n      0x03\n      add\n      swap1\n      jump(tag_65)\n    tag_66:\n    tag_64:\n      pop\n      swap1\n      pop\n      tag_72\n      swap2\n      swap1\n      tag_73\n      jump\t// in\n    tag_72:\n      pop\n      swap1\n      jump\t// out\n    tag_63:\n    tag_74:\n      dup1\n      dup3\n      gt\n      iszero\n      tag_75\n      jumpi\n      0x00\n      dup2\n      0x00\n      swap1\n      sstore\n      pop\n      0x01\n      add\n      jump(tag_74)\n    tag_75:\n      pop\n      swap1\n      jump\t// out\n    tag_69:\n      dup3\n      dup1\n      sload\n      tag_76\n      swap1\n      tag_25\n      jump\t// in\n    tag_76:\n      swap1\n      0x00\n      mstore\n      keccak256(0x00, 0x20)\n      swap1\n      0x1f\n      add\n      0x20\n      swap1\n      div\n      dup2\n      add\n      swap3\n      dup3\n      tag_78\n      jumpi\n      0x00\n      dup6\n      sstore\n      jump(tag_77)\n    tag_78:\n      dup3\n      0x1f\n      lt\n      tag_79\n      jumpi\n      dup1\n      sload\n      dup6\n      sstore\n      jump(tag_77)\n    tag_79:\n      dup3\n      dup1\n      add\n      0x01\n      add\n      dup6\n      sstore\n      dup3\n      iszero\n      tag_77\n      jumpi\n      0x00\n      mstore\n      keccak256(0x00, 0x20)\n      swap2\n      0x1f\n      add\n      0x20\n      swap1\n      div\n      dup3\n      add\n    tag_80:\n      dup3\n      dup2\n      gt\n      iszero\n      tag_81\n      jumpi\n      dup3\n      sload\n      dup3\n      sstore\n      swap2\n      0x01\n      add\n      swap2\n      swap1\n      0x01\n      add\n      swap1\n      jump(tag_80)\n    tag_81:\n    tag_77:\n      pop\n      swap1\n      pop\n      tag_82\n      swap2\n      swap1\n      tag_63\n      jump\t// in\n    tag_82:\n      pop\n      swap1\n      jump\t// out\n    tag_73:\n    tag_83:\n      dup1\n      dup3\n      gt\n      iszero\n      tag_84\n      jumpi\n      0x00\n      dup1\n      dup3\n      add\n      0x00\n      swap1\n      sstore\n      0x01\n      dup3\n      add\n      0x00\n      tag_85\n      swap2\n      swap1\n      tag_86\n      jump\t// in\n    tag_85:\n      0x02\n      dup3\n      add\n      0x00\n      tag_87\n      swap2\n      swap1\n      tag_86\n      jump\t// in\n    tag_87:\n      pop\n      0x03\n      add\n      jump(tag_83)\n    tag_84:\n      pop\n      swap1\n      jump\t// out\n    tag_86:\n      pop\n      dup1\n      sload\n      tag_88\n      swap1\n      tag_25\n      jump\t// in\n    tag_88:\n      0x00\n      dup3\n      sstore\n      dup1\n      0x1f\n      lt\n      tag_90\n      jumpi\n      pop\n      jump(tag_89)\n    tag_90:\n      0x1f\n      add\n      0x20\n      swap1\n      div\n      swap1\n      0x00\n      mstore\n      keccak256(0x00, 0x20)\n      swap1\n      dup2\n      add\n      swap1\n      tag_91\n      swap2\n      swap1\n      tag_63\n      jump\t// in\n    tag_91:\n    tag_89:\n      pop\n      jump\t// out\n        /* \"#utility.yul\":7:419   */\n    tag_93:\n        /* \"#utility.yul\":85:90   */\n      0x00\n        /* \"#utility.yul\":110:176   */\n      tag_95\n        /* \"#utility.yul\":126:175   */\n      tag_96\n        /* \"#utility.yul\":168:174   */\n      dup5\n        /* \"#utility.yul\":126:175   */\n      tag_97\n      jump\t// in\n    tag_96:\n        /* \"#utility.yul\":110:176   */\n      tag_98\n      jump\t// in\n    tag_95:\n        /* \"#utility.yul\":101:176   */\n      swap1\n      pop\n        /* \"#utility.yul\":199:205   */\n      dup3\n        /* \"#utility.yul\":192:197   */\n      dup2\n        /* \"#utility.yul\":185:206   */\n      mstore\n        /* \"#utility.yul\":237:241   */\n      0x20\n        /* \"#utility.yul\":230:235   */\n      dup2\n        /* \"#utility.yul\":226:242   */\n      add\n        /* \"#utility.yul\":275:278   */\n      dup5\n        /* \"#utility.yul\":266:272   */\n      dup5\n        /* \"#utility.yul\":261:264   */\n      dup5\n        /* \"#utility.yul\":257:273   */\n      add\n        /* \"#utility.yul\":254:279   */\n      gt\n        /* \"#utility.yul\":251:363   */\n      iszero\n      tag_99\n      jumpi\n        /* \"#utility.yul\":282:361   */\n      tag_100\n      tag_101\n      jump\t// in\n    tag_100:\n        /* \"#utility.yul\":251:363   */\n    tag_99:\n        /* \"#utility.yul\":372:413   */\n      tag_102\n        /* \"#utility.yul\":406:412   */\n      dup5\n        /* \"#utility.yul\":401:404   */\n      dup3\n        /* \"#utility.yul\":396:399   */\n      dup6\n        /* \"#utility.yul\":372:413   */\n      tag_103\n      jump\t// in\n    tag_102:\n        /* \"#utility.yul\":91:419   */\n      pop\n        /* \"#utility.yul\":7:419   */\n      swap4\n      swap3\n      pop\n      pop\n      pop\n      jump\t// out\n        /* \"#utility.yul\":439:779   */\n    tag_104:\n        /* \"#utility.yul\":495:500   */\n      0x00\n        /* \"#utility.yul\":544:547   */\n      dup3\n        /* \"#utility.yul\":537:541   */\n      0x1f\n        /* \"#utility.yul\":529:535   */\n      dup4\n        /* \"#utility.yul\":525:542   */\n      add\n        /* \"#utility.yul\":521:548   */\n      slt\n        /* \"#utility.yul\":511:633   */\n      tag_106\n      jumpi\n        /* \"#utility.yul\":552:631   */\n      tag_107\n      tag_108\n      jump\t// in\n    tag_107:\n        /* \"#utility.yul\":511:633   */\n    tag_106:\n        /* \"#utility.yul\":669:675   */\n      dup2\n        /* \"#utility.yul\":656:676   */\n      calldataload\n        /* \"#utility.yul\":694:773   */\n      tag_109\n        /* \"#utility.yul\":769:772   */\n      dup5\n        /* \"#utility.yul\":761:767   */\n      dup3\n        /* \"#utility.yul\":754:758   */\n      0x20\n        /* \"#utility.yul\":746:752   */\n      dup7\n        /* \"#utility.yul\":742:759   */\n      add\n        /* \"#utility.yul\":694:773   */\n      tag_93\n      jump\t// in\n    tag_109:\n        /* \"#utility.yul\":685:773   */\n      swap2\n      pop\n        /* \"#utility.yul\":501:779   */\n      pop\n        /* \"#utility.yul\":439:779   */\n      swap3\n      swap2\n      pop\n      pop\n      jump\t// out\n        /* \"#utility.yul\":785:924   */\n    tag_110:\n        /* \"#utility.yul\":831:836   */\n      0x00\n        /* \"#utility.yul\":869:875   */\n      dup2\n        /* \"#utility.yul\":856:876   */\n      calldataload\n        /* \"#utility.yul\":847:876   */\n      swap1\n      pop\n        /* \"#utility.yul\":885:918   */\n      tag_112\n        /* \"#utility.yul\":912:917   */\n      dup2\n        /* \"#utility.yul\":885:918   */\n      tag_113\n      jump\t// in\n    tag_112:\n        /* \"#utility.yul\":785:924   */\n      swap3\n      swap2\n      pop\n      pop\n      jump\t// out\n        /* \"#utility.yul\":930:1259   */\n    tag_12:\n        /* \"#utility.yul\":989:995   */\n      0x00\n        /* \"#utility.yul\":1038:1040   */\n      0x20\n        /* \"#utility.yul\":1026:1035   */\n      dup3\n        /* \"#utility.yul\":1017:1024   */\n      dup5\n        /* \"#utility.yul\":1013:1036   */\n      sub\n        /* \"#utility.yul\":1009:1041   */\n      slt\n        /* \"#utility.yul\":1006:1125   */\n      iszero\n      tag_115\n      jumpi\n        /* \"#utility.yul\":1044:1123   */\n      tag_116\n      tag_117\n      jump\t// in\n    tag_116:\n        /* \"#utility.yul\":1006:1125   */\n    tag_115:\n        /* \"#utility.yul\":1164:1165   */\n      0x00\n        /* \"#utility.yul\":1189:1242   */\n      tag_118\n        /* \"#utility.yul\":1234:1241   */\n      dup5\n        /* \"#utility.yul\":1225:1231   */\n      dup3\n        /* \"#utility.yul\":1214:1223   */\n      dup6\n        /* \"#utility.yul\":1210:1232   */\n      add\n        /* \"#utility.yul\":1189:1242   */\n      tag_110\n      jump\t// in\n    tag_118:\n        /* \"#utility.yul\":1179:1242   */\n      swap2\n      pop\n        /* \"#utility.yul\":1135:1252   */\n      pop\n        /* \"#utility.yul\":930:1259   */\n      swap3\n      swap2\n      pop\n      pop\n      jump\t// out\n        /* \"#utility.yul\":1265:2244   */\n    tag_18:\n        /* \"#utility.yul\":1362:1368   */\n      0x00\n        /* \"#utility.yul\":1370:1376   */\n      dup1\n        /* \"#utility.yul\":1378:1384   */\n      0x00\n        /* \"#utility.yul\":1427:1429   */\n      0x60\n        /* \"#utility.yul\":1415:1424   */\n      dup5\n        /* \"#utility.yul\":1406:1413   */\n      dup7\n        /* \"#utility.yul\":1402:1425   */\n      sub\n        /* \"#utility.yul\":1398:1430   */\n      slt\n        /* \"#utility.yul\":1395:1514   */\n      iszero\n      tag_120\n      jumpi\n        /* \"#utility.yul\":1433:1512   */\n      tag_121\n      tag_117\n      jump\t// in\n    tag_121:\n        /* \"#utility.yul\":1395:1514   */\n    tag_120:\n        /* \"#utility.yul\":1553:1554   */\n      0x00\n        /* \"#utility.yul\":1578:1631   */\n      tag_122\n        /* \"#utility.yul\":1623:1630   */\n      dup7\n        /* \"#utility.yul\":1614:1620   */\n      dup3\n        /* \"#utility.yul\":1603:1612   */\n      dup8\n        /* \"#utility.yul\":1599:1621   */\n      add\n        /* \"#utility.yul\":1578:1631   */\n      tag_110\n      jump\t// in\n    tag_122:\n        /* \"#utility.yul\":1568:1631   */\n      swap4\n      pop\n        /* \"#utility.yul\":1524:1641   */\n      pop\n        /* \"#utility.yul\":1708:1710   */\n      0x20\n        /* \"#utility.yul\":1697:1706   */\n      dup5\n        /* \"#utility.yul\":1693:1711   */\n      add\n        /* \"#utility.yul\":1680:1712   */\n      calldataload\n        /* \"#utility.yul\":1739:1757   */\n      0xffffffffffffffff\n        /* \"#utility.yul\":1731:1737   */\n      dup2\n        /* \"#utility.yul\":1728:1758   */\n      gt\n        /* \"#utility.yul\":1725:1842   */\n      iszero\n      tag_123\n      jumpi\n        /* \"#utility.yul\":1761:1840   */\n      tag_124\n      tag_125\n      jump\t// in\n    tag_124:\n        /* \"#utility.yul\":1725:1842   */\n    tag_123:\n        /* \"#utility.yul\":1866:1929   */\n      tag_126\n        /* \"#utility.yul\":1921:1928   */\n      dup7\n        /* \"#utility.yul\":1912:1918   */\n      dup3\n        /* \"#utility.yul\":1901:1910   */\n      dup8\n        /* \"#utility.yul\":1897:1919   */\n      add\n        /* \"#utility.yul\":1866:1929   */\n      tag_104\n      jump\t// in\n    tag_126:\n        /* \"#utility.yul\":1856:1929   */\n      swap3\n      pop\n        /* \"#utility.yul\":1651:1939   */\n      pop\n        /* \"#utility.yul\":2006:2008   */\n      0x40\n        /* \"#utility.yul\":1995:2004   */\n      dup5\n        /* \"#utility.yul\":1991:2009   */\n      add\n        /* \"#utility.yul\":1978:2010   */\n      calldataload\n        /* \"#utility.yul\":2037:2055   */\n      0xffffffffffffffff\n        /* \"#utility.yul\":2029:2035   */\n      dup2\n        /* \"#utility.yul\":2026:2056   */\n      gt\n        /* \"#utility.yul\":2023:2140   */\n      iszero\n      tag_127\n      jumpi\n        /* \"#utility.yul\":2059:2138   */\n      tag_128\n      tag_125\n      jump\t// in\n    tag_128:\n        /* \"#utility.yul\":2023:2140   */\n    tag_127:\n        /* \"#utility.yul\":2164:2227   */\n      tag_129\n        /* \"#utility.yul\":2219:2226   */\n      dup7\n        /* \"#utility.yul\":2210:2216   */\n      dup3\n        /* \"#utility.yul\":2199:2208   */\n      dup8\n        /* \"#utility.yul\":2195:2217   */\n      add\n        /* \"#utility.yul\":2164:2227   */\n      tag_104\n      jump\t// in\n    tag_129:\n        /* \"#utility.yul\":2154:2227   */\n      swap2\n      pop\n        /* \"#utility.yul\":1949:2237   */\n      pop\n        /* \"#utility.yul\":1265:2244   */\n      swap3\n      pop\n      swap3\n      pop\n      swap3\n      jump\t// out\n        /* \"#utility.yul\":2250:2494   */\n    tag_130:\n        /* \"#utility.yul\":2363:2373   */\n      0x00\n        /* \"#utility.yul\":2398:2488   */\n      tag_132\n        /* \"#utility.yul\":2484:2487   */\n      dup4\n        /* \"#utility.yul\":2476:2482   */\n      dup4\n        /* \"#utility.yul\":2398:2488   */\n      tag_133\n      jump\t// in\n    tag_132:\n        /* \"#utility.yul\":2384:2488   */\n      swap1\n      pop\n        /* \"#utility.yul\":2250:2494   */\n      swap3\n      swap2\n      pop\n      pop\n      jump\t// out\n        /* \"#utility.yul\":2562:3649   */\n    tag_134:\n        /* \"#utility.yul\":2725:2728   */\n      0x00\n        /* \"#utility.yul\":2754:2830   */\n      tag_136\n        /* \"#utility.yul\":2824:2829   */\n      dup3\n        /* \"#utility.yul\":2754:2830   */\n      tag_137\n      jump\t// in\n    tag_136:\n        /* \"#utility.yul\":2846:2954   */\n      tag_138\n        /* \"#utility.yul\":2947:2953   */\n      dup2\n        /* \"#utility.yul\":2942:2945   */\n      dup6\n        /* \"#utility.yul\":2846:2954   */\n      tag_139\n      jump\t// in\n    tag_138:\n        /* \"#utility.yul\":2839:2954   */\n      swap4\n      pop\n        /* \"#utility.yul\":2980:2983   */\n      dup4\n        /* \"#utility.yul\":3025:3029   */\n      0x20\n        /* \"#utility.yul\":3017:3023   */\n      dup3\n        /* \"#utility.yul\":3013:3030   */\n      mul\n        /* \"#utility.yul\":3008:3011   */\n      dup6\n        /* \"#utility.yul\":3004:3031   */\n      add\n        /* \"#utility.yul\":3055:3133   */\n      tag_140\n        /* \"#utility.yul\":3127:3132   */\n      dup6\n        /* \"#utility.yul\":3055:3133   */\n      tag_141\n      jump\t// in\n    tag_140:\n        /* \"#utility.yul\":3156:3163   */\n      dup1\n        /* \"#utility.yul\":3187:3188   */\n      0x00\n        /* \"#utility.yul\":3172:3604   */\n    tag_142:\n        /* \"#utility.yul\":3197:3203   */\n      dup6\n        /* \"#utility.yul\":3194:3195   */\n      dup2\n        /* \"#utility.yul\":3191:3204   */\n      lt\n        /* \"#utility.yul\":3172:3604   */\n      iszero\n      tag_144\n      jumpi\n        /* \"#utility.yul\":3268:3277   */\n      dup5\n        /* \"#utility.yul\":3262:3266   */\n      dup5\n        /* \"#utility.yul\":3258:3278   */\n      sub\n        /* \"#utility.yul\":3253:3256   */\n      dup10\n        /* \"#utility.yul\":3246:3279   */\n      mstore\n        /* \"#utility.yul\":3319:3325   */\n      dup2\n        /* \"#utility.yul\":3313:3326   */\n      mload\n        /* \"#utility.yul\":3347:3455   */\n      tag_145\n        /* \"#utility.yul\":3450:3454   */\n      dup6\n        /* \"#utility.yul\":3435:3448   */\n      dup3\n        /* \"#utility.yul\":3347:3455   */\n      tag_130\n      jump\t// in\n    tag_145:\n        /* \"#utility.yul\":3339:3455   */\n      swap5\n      pop\n        /* \"#utility.yul\":3478:3560   */\n      tag_146\n        /* \"#utility.yul\":3553:3559   */\n      dup4\n        /* \"#utility.yul\":3478:3560   */\n      tag_147\n      jump\t// in\n    tag_146:\n        /* \"#utility.yul\":3468:3560   */\n      swap3\n      pop\n        /* \"#utility.yul\":3589:3593   */\n      0x20\n        /* \"#utility.yul\":3584:3587   */\n      dup11\n        /* \"#utility.yul\":3580:3594   */\n      add\n        /* \"#utility.yul\":3573:3594   */\n      swap10\n      pop\n        /* \"#utility.yul\":3232:3604   */\n      pop\n        /* \"#utility.yul\":3219:3220   */\n      0x01\n        /* \"#utility.yul\":3216:3217   */\n      dup2\n        /* \"#utility.yul\":3212:3221   */\n      add\n        /* \"#utility.yul\":3207:3221   */\n      swap1\n      pop\n        /* \"#utility.yul\":3172:3604   */\n      jump(tag_142)\n    tag_144:\n        /* \"#utility.yul\":3176:3190   */\n      pop\n        /* \"#utility.yul\":3620:3624   */\n      dup3\n        /* \"#utility.yul\":3613:3624   */\n      swap8\n      pop\n        /* \"#utility.yul\":3640:3643   */\n      dup8\n        /* \"#utility.yul\":3633:3643   */\n      swap6\n      pop\n        /* \"#utility.yul\":2730:3649   */\n      pop\n      pop\n      pop\n      pop\n      pop\n        /* \"#utility.yul\":2562:3649   */\n      swap3\n      swap2\n      pop\n      pop\n      jump\t// out\n        /* \"#utility.yul\":3655:3999   */\n    tag_148:\n        /* \"#utility.yul\":3733:3736   */\n      0x00\n        /* \"#utility.yul\":3761:3800   */\n      tag_150\n        /* \"#utility.yul\":3794:3799   */\n      dup3\n        /* \"#utility.yul\":3761:3800   */\n      tag_151\n      jump\t// in\n    tag_150:\n        /* \"#utility.yul\":3816:3877   */\n      tag_152\n        /* \"#utility.yul\":3870:3876   */\n      dup2\n        /* \"#utility.yul\":3865:3868   */\n      dup6\n        /* \"#utility.yul\":3816:3877   */\n      tag_153\n      jump\t// in\n    tag_152:\n        /* \"#utility.yul\":3809:3877   */\n      swap4\n      pop\n        /* \"#utility.yul\":3886:3938   */\n      tag_154\n        /* \"#utility.yul\":3931:3937   */\n      dup2\n        /* \"#utility.yul\":3926:3929   */\n      dup6\n        /* \"#utility.yul\":3919:3923   */\n      0x20\n        /* \"#utility.yul\":3912:3917   */\n      dup7\n        /* \"#utility.yul\":3908:3924   */\n      add\n        /* \"#utility.yul\":3886:3938   */\n      tag_155\n      jump\t// in\n    tag_154:\n        /* \"#utility.yul\":3963:3992   */\n      tag_156\n        /* \"#utility.yul\":3985:3991   */\n      dup2\n        /* \"#utility.yul\":3963:3992   */\n      tag_157\n      jump\t// in\n    tag_156:\n        /* \"#utility.yul\":3958:3961   */\n      dup5\n        /* \"#utility.yul\":3954:3993   */\n      add\n        /* \"#utility.yul\":3947:3993   */\n      swap2\n      pop\n        /* \"#utility.yul\":3737:3999   */\n      pop\n        /* \"#utility.yul\":3655:3999   */\n      swap3\n      swap2\n      pop\n      pop\n      jump\t// out\n        /* \"#utility.yul\":4005:4369   */\n    tag_158:\n        /* \"#utility.yul\":4093:4096   */\n      0x00\n        /* \"#utility.yul\":4121:4160   */\n      tag_160\n        /* \"#utility.yul\":4154:4159   */\n      dup3\n        /* \"#utility.yul\":4121:4160   */\n      tag_151\n      jump\t// in\n    tag_160:\n        /* \"#utility.yul\":4176:4247   */\n      tag_161\n        /* \"#utility.yul\":4240:4246   */\n      dup2\n        /* \"#utility.yul\":4235:4238   */\n      dup6\n        /* \"#utility.yul\":4176:4247   */\n      tag_162\n      jump\t// in\n    tag_161:\n        /* \"#utility.yul\":4169:4247   */\n      swap4\n      pop\n        /* \"#utility.yul\":4256:4308   */\n      tag_163\n        /* \"#utility.yul\":4301:4307   */\n      dup2\n        /* \"#utility.yul\":4296:4299   */\n      dup6\n        /* \"#utility.yul\":4289:4293   */\n      0x20\n        /* \"#utility.yul\":4282:4287   */\n      dup7\n        /* \"#utility.yul\":4278:4294   */\n      add\n        /* \"#utility.yul\":4256:4308   */\n      tag_155\n      jump\t// in\n    tag_163:\n        /* \"#utility.yul\":4333:4362   */\n      tag_164\n        /* \"#utility.yul\":4355:4361   */\n      dup2\n        /* \"#utility.yul\":4333:4362   */\n      tag_157\n      jump\t// in\n    tag_164:\n        /* \"#utility.yul\":4328:4331   */\n      dup5\n        /* \"#utility.yul\":4324:4363   */\n      add\n        /* \"#utility.yul\":4317:4363   */\n      swap2\n      pop\n        /* \"#utility.yul\":4097:4369   */\n      pop\n        /* \"#utility.yul\":4005:4369   */\n      swap3\n      swap2\n      pop\n      pop\n      jump\t// out\n        /* \"#utility.yul\":4433:5271   */\n    tag_133:\n        /* \"#utility.yul\":4536:4539   */\n      0x00\n        /* \"#utility.yul\":4572:4576   */\n      0x60\n        /* \"#utility.yul\":4567:4570   */\n      dup4\n        /* \"#utility.yul\":4563:4577   */\n      add\n        /* \"#utility.yul\":4657:4661   */\n      0x00\n        /* \"#utility.yul\":4650:4655   */\n      dup4\n        /* \"#utility.yul\":4646:4662   */\n      add\n        /* \"#utility.yul\":4640:4663   */\n      mload\n        /* \"#utility.yul\":4676:4739   */\n      tag_166\n        /* \"#utility.yul\":4733:4737   */\n      0x00\n        /* \"#utility.yul\":4728:4731   */\n      dup7\n        /* \"#utility.yul\":4724:4738   */\n      add\n        /* \"#utility.yul\":4710:4722   */\n      dup3\n        /* \"#utility.yul\":4676:4739   */\n      tag_167\n      jump\t// in\n    tag_166:\n        /* \"#utility.yul\":4587:4749   */\n      pop\n        /* \"#utility.yul\":4835:4839   */\n      0x20\n        /* \"#utility.yul\":4828:4833   */\n      dup4\n        /* \"#utility.yul\":4824:4840   */\n      add\n        /* \"#utility.yul\":4818:4841   */\n      mload\n        /* \"#utility.yul\":4888:4891   */\n      dup5\n        /* \"#utility.yul\":4882:4886   */\n      dup3\n        /* \"#utility.yul\":4878:4892   */\n      sub\n        /* \"#utility.yul\":4871:4875   */\n      0x20\n        /* \"#utility.yul\":4866:4869   */\n      dup7\n        /* \"#utility.yul\":4862:4876   */\n      add\n        /* \"#utility.yul\":4855:4893   */\n      mstore\n        /* \"#utility.yul\":4914:4987   */\n      tag_168\n        /* \"#utility.yul\":4982:4986   */\n      dup3\n        /* \"#utility.yul\":4968:4980   */\n      dup3\n        /* \"#utility.yul\":4914:4987   */\n      tag_148\n      jump\t// in\n    tag_168:\n        /* \"#utility.yul\":4906:4987   */\n      swap2\n      pop\n        /* \"#utility.yul\":4759:4998   */\n      pop\n        /* \"#utility.yul\":5081:5085   */\n      0x40\n        /* \"#utility.yul\":5074:5079   */\n      dup4\n        /* \"#utility.yul\":5070:5086   */\n      add\n        /* \"#utility.yul\":5064:5087   */\n      mload\n        /* \"#utility.yul\":5134:5137   */\n      dup5\n        /* \"#utility.yul\":5128:5132   */\n      dup3\n        /* \"#utility.yul\":5124:5138   */\n      sub\n        /* \"#utility.yul\":5117:5121   */\n      0x40\n        /* \"#utility.yul\":5112:5115   */\n      dup7\n        /* \"#utility.yul\":5108:5122   */\n      add\n        /* \"#utility.yul\":5101:5139   */\n      mstore\n        /* \"#utility.yul\":5160:5233   */\n      tag_169\n        /* \"#utility.yul\":5228:5232   */\n      dup3\n        /* \"#utility.yul\":5214:5226   */\n      dup3\n        /* \"#utility.yul\":5160:5233   */\n      tag_148\n      jump\t// in\n    tag_169:\n        /* \"#utility.yul\":5152:5233   */\n      swap2\n      pop\n        /* \"#utility.yul\":5008:5244   */\n      pop\n        /* \"#utility.yul\":5261:5265   */\n      dup1\n        /* \"#utility.yul\":5254:5265   */\n      swap2\n      pop\n        /* \"#utility.yul\":4541:5271   */\n      pop\n        /* \"#utility.yul\":4433:5271   */\n      swap3\n      swap2\n      pop\n      pop\n      jump\t// out\n        /* \"#utility.yul\":5277:5385   */\n    tag_167:\n        /* \"#utility.yul\":5354:5378   */\n      tag_171\n        /* \"#utility.yul\":5372:5377   */\n      dup2\n        /* \"#utility.yul\":5354:5378   */\n      tag_172\n      jump\t// in\n    tag_171:\n        /* \"#utility.yul\":5349:5352   */\n      dup3\n        /* \"#utility.yul\":5342:5379   */\n      mstore\n        /* \"#utility.yul\":5277:5385   */\n      pop\n      pop\n      jump\t// out\n        /* \"#utility.yul\":5391:5509   */\n    tag_173:\n        /* \"#utility.yul\":5478:5502   */\n      tag_175\n        /* \"#utility.yul\":5496:5501   */\n      dup2\n        /* \"#utility.yul\":5478:5502   */\n      tag_172\n      jump\t// in\n    tag_175:\n        /* \"#utility.yul\":5473:5476   */\n      dup3\n        /* \"#utility.yul\":5466:5503   */\n      mstore\n        /* \"#utility.yul\":5391:5509   */\n      pop\n      pop\n      jump\t// out\n        /* \"#utility.yul\":5515:5976   */\n    tag_9:\n        /* \"#utility.yul\":5702:5706   */\n      0x00\n        /* \"#utility.yul\":5740:5742   */\n      0x20\n        /* \"#utility.yul\":5729:5738   */\n      dup3\n        /* \"#utility.yul\":5725:5743   */\n      add\n        /* \"#utility.yul\":5717:5743   */\n      swap1\n      pop\n        /* \"#utility.yul\":5789:5798   */\n      dup2\n        /* \"#utility.yul\":5783:5787   */\n      dup2\n        /* \"#utility.yul\":5779:5799   */\n      sub\n        /* \"#utility.yul\":5775:5776   */\n      0x00\n        /* \"#utility.yul\":5764:5773   */\n      dup4\n        /* \"#utility.yul\":5760:5777   */\n      add\n        /* \"#utility.yul\":5753:5800   */\n      mstore\n        /* \"#utility.yul\":5817:5969   */\n      tag_177\n        /* \"#utility.yul\":5964:5968   */\n      dup2\n        /* \"#utility.yul\":5955:5961   */\n      dup5\n        /* \"#utility.yul\":5817:5969   */\n      tag_134\n      jump\t// in\n    tag_177:\n        /* \"#utility.yul\":5809:5969   */\n      swap1\n      pop\n        /* \"#utility.yul\":5515:5976   */\n      swap3\n      swap2\n      pop\n      pop\n      jump\t// out\n        /* \"#utility.yul\":5982:6405   */\n    tag_55:\n        /* \"#utility.yul\":6123:6127   */\n      0x00\n        /* \"#utility.yul\":6161:6163   */\n      0x40\n        /* \"#utility.yul\":6150:6159   */\n      dup3\n        /* \"#utility.yul\":6146:6164   */\n      add\n        /* \"#utility.yul\":6138:6164   */\n      swap1\n      pop\n        /* \"#utility.yul\":6174:6245   */\n      tag_179\n        /* \"#utility.yul\":6242:6243   */\n      0x00\n        /* \"#utility.yul\":6231:6240   */\n      dup4\n        /* \"#utility.yul\":6227:6244   */\n      add\n        /* \"#utility.yul\":6218:6224   */\n      dup6\n        /* \"#utility.yul\":6174:6245   */\n      tag_173\n      jump\t// in\n    tag_179:\n        /* \"#utility.yul\":6292:6301   */\n      dup2\n        /* \"#utility.yul\":6286:6290   */\n      dup2\n        /* \"#utility.yul\":6282:6302   */\n      sub\n        /* \"#utility.yul\":6277:6279   */\n      0x20\n        /* \"#utility.yul\":6266:6275   */\n      dup4\n        /* \"#utility.yul\":6262:6280   */\n      add\n        /* \"#utility.yul\":6255:6303   */\n      mstore\n        /* \"#utility.yul\":6320:6398   */\n      tag_180\n        /* \"#utility.yul\":6393:6397   */\n      dup2\n        /* \"#utility.yul\":6384:6390   */\n      dup5\n        /* \"#utility.yul\":6320:6398   */\n      tag_158\n      jump\t// in\n    tag_180:\n        /* \"#utility.yul\":6312:6398   */\n      swap1\n      pop\n        /* \"#utility.yul\":5982:6405   */\n      swap4\n      swap3\n      pop\n      pop\n      pop\n      jump\t// out\n        /* \"#utility.yul\":6411:7035   */\n    tag_15:\n        /* \"#utility.yul\":6600:6604   */\n      0x00\n        /* \"#utility.yul\":6638:6640   */\n      0x60\n        /* \"#utility.yul\":6627:6636   */\n      dup3\n        /* \"#utility.yul\":6623:6641   */\n      add\n        /* \"#utility.yul\":6615:6641   */\n      swap1\n      pop\n        /* \"#utility.yul\":6651:6722   */\n      tag_182\n        /* \"#utility.yul\":6719:6720   */\n      0x00\n        /* \"#utility.yul\":6708:6717   */\n      dup4\n        /* \"#utility.yul\":6704:6721   */\n      add\n        /* \"#utility.yul\":6695:6701   */\n      dup7\n        /* \"#utility.yul\":6651:6722   */\n      tag_173\n      jump\t// in\n    tag_182:\n        /* \"#utility.yul\":6769:6778   */\n      dup2\n        /* \"#utility.yul\":6763:6767   */\n      dup2\n        /* \"#utility.yul\":6759:6779   */\n      sub\n        /* \"#utility.yul\":6754:6756   */\n      0x20\n        /* \"#utility.yul\":6743:6752   */\n      dup4\n        /* \"#utility.yul\":6739:6757   */\n      add\n        /* \"#utility.yul\":6732:6780   */\n      mstore\n        /* \"#utility.yul\":6797:6875   */\n      tag_183\n        /* \"#utility.yul\":6870:6874   */\n      dup2\n        /* \"#utility.yul\":6861:6867   */\n      dup6\n        /* \"#utility.yul\":6797:6875   */\n      tag_158\n      jump\t// in\n    tag_183:\n        /* \"#utility.yul\":6789:6875   */\n      swap1\n      pop\n        /* \"#utility.yul\":6922:6931   */\n      dup2\n        /* \"#utility.yul\":6916:6920   */\n      dup2\n        /* \"#utility.yul\":6912:6932   */\n      sub\n        /* \"#utility.yul\":6907:6909   */\n      0x40\n        /* \"#utility.yul\":6896:6905   */\n      dup4\n        /* \"#utility.yul\":6892:6910   */\n      add\n        /* \"#utility.yul\":6885:6933   */\n      mstore\n        /* \"#utility.yul\":6950:7028   */\n      tag_184\n        /* \"#utility.yul\":7023:7027   */\n      dup2\n        /* \"#utility.yul\":7014:7020   */\n      dup5\n        /* \"#utility.yul\":6950:7028   */\n      tag_158\n      jump\t// in\n    tag_184:\n        /* \"#utility.yul\":6942:7028   */\n      swap1\n      pop\n        /* \"#utility.yul\":6411:7035   */\n      swap5\n      swap4\n      pop\n      pop\n      pop\n      pop\n      jump\t// out\n        /* \"#utility.yul\":7041:7170   */\n    tag_98:\n        /* \"#utility.yul\":7075:7081   */\n      0x00\n        /* \"#utility.yul\":7102:7122   */\n      tag_186\n      tag_187\n      jump\t// in\n    tag_186:\n        /* \"#utility.yul\":7092:7122   */\n      swap1\n      pop\n        /* \"#utility.yul\":7131:7164   */\n      tag_188\n        /* \"#utility.yul\":7159:7163   */\n      dup3\n        /* \"#utility.yul\":7151:7157   */\n      dup3\n        /* \"#utility.yul\":7131:7164   */\n      tag_189\n      jump\t// in\n    tag_188:\n        /* \"#utility.yul\":7041:7170   */\n      swap2\n      swap1\n      pop\n      jump\t// out\n        /* \"#utility.yul\":7176:7251   */\n    tag_187:\n        /* \"#utility.yul\":7209:7215   */\n      0x00\n        /* \"#utility.yul\":7242:7244   */\n      0x40\n        /* \"#utility.yul\":7236:7245   */\n      mload\n        /* \"#utility.yul\":7226:7245   */\n      swap1\n      pop\n        /* \"#utility.yul\":7176:7251   */\n      swap1\n      jump\t// out\n        /* \"#utility.yul\":7257:7565   */\n    tag_97:\n        /* \"#utility.yul\":7319:7323   */\n      0x00\n        /* \"#utility.yul\":7409:7427   */\n      0xffffffffffffffff\n        /* \"#utility.yul\":7401:7407   */\n      dup3\n        /* \"#utility.yul\":7398:7428   */\n      gt\n        /* \"#utility.yul\":7395:7451   */\n      iszero\n      tag_192\n      jumpi\n        /* \"#utility.yul\":7431:7449   */\n      tag_193\n      tag_194\n      jump\t// in\n    tag_193:\n        /* \"#utility.yul\":7395:7451   */\n    tag_192:\n        /* \"#utility.yul\":7469:7498   */\n      tag_195\n        /* \"#utility.yul\":7491:7497   */\n      dup3\n        /* \"#utility.yul\":7469:7498   */\n      tag_157\n      jump\t// in\n    tag_195:\n        /* \"#utility.yul\":7461:7498   */\n      swap1\n      pop\n        /* \"#utility.yul\":7553:7557   */\n      0x20\n        /* \"#utility.yul\":7547:7551   */\n      dup2\n        /* \"#utility.yul\":7543:7558   */\n      add\n        /* \"#utility.yul\":7535:7558   */\n      swap1\n      pop\n        /* \"#utility.yul\":7257:7565   */\n      swap2\n      swap1\n      pop\n      jump\t// out\n        /* \"#utility.yul\":7571:7725   */\n    tag_141:\n        /* \"#utility.yul\":7660:7664   */\n      0x00\n        /* \"#utility.yul\":7683:7686   */\n      dup2\n        /* \"#utility.yul\":7675:7686   */\n      swap1\n      pop\n        /* \"#utility.yul\":7713:7717   */\n      0x20\n        /* \"#utility.yul\":7708:7711   */\n      dup3\n        /* \"#utility.yul\":7704:7718   */\n      add\n        /* \"#utility.yul\":7696:7718   */\n      swap1\n      pop\n        /* \"#utility.yul\":7571:7725   */\n      swap2\n      swap1\n      pop\n      jump\t// out\n        /* \"#utility.yul\":7731:7867   */\n    tag_137:\n        /* \"#utility.yul\":7820:7826   */\n      0x00\n        /* \"#utility.yul\":7854:7859   */\n      dup2\n        /* \"#utility.yul\":7848:7860   */\n      mload\n        /* \"#utility.yul\":7838:7860   */\n      swap1\n      pop\n        /* \"#utility.yul\":7731:7867   */\n      swap2\n      swap1\n      pop\n      jump\t// out\n        /* \"#utility.yul\":7873:7972   */\n    tag_151:\n        /* \"#utility.yul\":7925:7931   */\n      0x00\n        /* \"#utility.yul\":7959:7964   */\n      dup2\n        /* \"#utility.yul\":7953:7965   */\n      mload\n        /* \"#utility.yul\":7943:7965   */\n      swap1\n      pop\n        /* \"#utility.yul\":7873:7972   */\n      swap2\n      swap1\n      pop\n      jump\t// out\n        /* \"#utility.yul\":7978:8113   */\n    tag_147:\n        /* \"#utility.yul\":8070:8074   */\n      0x00\n        /* \"#utility.yul\":8102:8106   */\n      0x20\n        /* \"#utility.yul\":8097:8100   */\n      dup3\n        /* \"#utility.yul\":8093:8107   */\n      add\n        /* \"#utility.yul\":8085:8107   */\n      swap1\n      pop\n        /* \"#utility.yul\":7978:8113   */\n      swap2\n      swap1\n      pop\n      jump\t// out\n        /* \"#utility.yul\":8119:8325   */\n    tag_139:\n        /* \"#utility.yul\":8240:8251   */\n      0x00\n        /* \"#utility.yul\":8274:8280   */\n      dup3\n        /* \"#utility.yul\":8269:8272   */\n      dup3\n        /* \"#utility.yul\":8262:8281   */\n      mstore\n        /* \"#utility.yul\":8314:8318   */\n      0x20\n        /* \"#utility.yul\":8309:8312   */\n      dup3\n        /* \"#utility.yul\":8305:8319   */\n      add\n        /* \"#utility.yul\":8290:8319   */\n      swap1\n      pop\n        /* \"#utility.yul\":8119:8325   */\n      swap3\n      swap2\n      pop\n      pop\n      jump\t// out\n        /* \"#utility.yul\":8331:8490   */\n    tag_153:\n        /* \"#utility.yul\":8405:8416   */\n      0x00\n        /* \"#utility.yul\":8439:8445   */\n      dup3\n        /* \"#utility.yul\":8434:8437   */\n      dup3\n        /* \"#utility.yul\":8427:8446   */\n      mstore\n        /* \"#utility.yul\":8479:8483   */\n      0x20\n        /* \"#utility.yul\":8474:8477   */\n      dup3\n        /* \"#utility.yul\":8470:8484   */\n      add\n        /* \"#utility.yul\":8455:8484   */\n      swap1\n      pop\n        /* \"#utility.yul\":8331:8490   */\n      swap3\n      swap2\n      pop\n      pop\n      jump\t// out\n        /* \"#utility.yul\":8496:8665   */\n    tag_162:\n        /* \"#utility.yul\":8580:8591   */\n      0x00\n        /* \"#utility.yul\":8614:8620   */\n      dup3\n        /* \"#utility.yul\":8609:8612   */\n      dup3\n        /* \"#utility.yul\":8602:8621   */\n      mstore\n        /* \"#utility.yul\":8654:8658   */\n      0x20\n        /* \"#utility.yul\":8649:8652   */\n      dup3\n        /* \"#utility.yul\":8645:8659   */\n      add\n        /* \"#utility.yul\":8630:8659   */\n      swap1\n      pop\n        /* \"#utility.yul\":8496:8665   */\n      swap3\n      swap2\n      pop\n      pop\n      jump\t// out\n        /* \"#utility.yul\":8671:8748   */\n    tag_172:\n        /* \"#utility.yul\":8708:8715   */\n      0x00\n        /* \"#utility.yul\":8737:8742   */\n      dup2\n        /* \"#utility.yul\":8726:8742   */\n      swap1\n      pop\n        /* \"#utility.yul\":8671:8748   */\n      swap2\n      swap1\n      pop\n      jump\t// out\n        /* \"#utility.yul\":8754:8908   */\n    tag_103:\n        /* \"#utility.yul\":8838:8844   */\n      dup3\n        /* \"#utility.yul\":8833:8836   */\n      dup2\n        /* \"#utility.yul\":8828:8831   */\n      dup4\n        /* \"#utility.yul\":8815:8845   */\n      calldatacopy\n        /* \"#utility.yul\":8900:8901   */\n      0x00\n        /* \"#utility.yul\":8891:8897   */\n      dup4\n        /* \"#utility.yul\":8886:8889   */\n      dup4\n        /* \"#utility.yul\":8882:8898   */\n      add\n        /* \"#utility.yul\":8875:8902   */\n      mstore\n        /* \"#utility.yul\":8754:8908   */\n      pop\n      pop\n      pop\n      jump\t// out\n        /* \"#utility.yul\":8914:9221   */\n    tag_155:\n        /* \"#utility.yul\":8982:8983   */\n      0x00\n        /* \"#utility.yul\":8992:9105   */\n    tag_206:\n        /* \"#utility.yul\":9006:9012   */\n      dup4\n        /* \"#utility.yul\":9003:9004   */\n      dup2\n        /* \"#utility.yul\":9000:9013   */\n      lt\n        /* \"#utility.yul\":8992:9105   */\n      iszero\n      tag_208\n      jumpi\n        /* \"#utility.yul\":9091:9092   */\n      dup1\n        /* \"#utility.yul\":9086:9089   */\n      dup3\n        /* \"#utility.yul\":9082:9093   */\n      add\n        /* \"#utility.yul\":9076:9094   */\n      mload\n        /* \"#utility.yul\":9072:9073   */\n      dup2\n        /* \"#utility.yul\":9067:9070   */\n      dup5\n        /* \"#utility.yul\":9063:9074   */\n      add\n        /* \"#utility.yul\":9056:9095   */\n      mstore\n        /* \"#utility.yul\":9028:9030   */\n      0x20\n        /* \"#utility.yul\":9025:9026   */\n      dup2\n        /* \"#utility.yul\":9021:9031   */\n      add\n        /* \"#utility.yul\":9016:9031   */\n      swap1\n      pop\n        /* \"#utility.yul\":8992:9105   */\n      jump(tag_206)\n    tag_208:\n        /* \"#utility.yul\":9123:9129   */\n      dup4\n        /* \"#utility.yul\":9120:9121   */\n      dup2\n        /* \"#utility.yul\":9117:9130   */\n      gt\n        /* \"#utility.yul\":9114:9215   */\n      iszero\n      tag_209\n      jumpi\n        /* \"#utility.yul\":9203:9204   */\n      0x00\n        /* \"#utility.yul\":9194:9200   */\n      dup5\n        /* \"#utility.yul\":9189:9192   */\n      dup5\n        /* \"#utility.yul\":9185:9201   */\n      add\n        /* \"#utility.yul\":9178:9205   */\n      mstore\n        /* \"#utility.yul\":9114:9215   */\n    tag_209:\n        /* \"#utility.yul\":8963:9221   */\n      pop\n        /* \"#utility.yul\":8914:9221   */\n      pop\n      pop\n      pop\n      jump\t// out\n        /* \"#utility.yul\":9227:9547   */\n    tag_25:\n        /* \"#utility.yul\":9271:9277   */\n      0x00\n        /* \"#utility.yul\":9308:9309   */\n      0x02\n        /* \"#utility.yul\":9302:9306   */\n      dup3\n        /* \"#utility.yul\":9298:9310   */\n      div\n        /* \"#utility.yul\":9288:9310   */\n      swap1\n      pop\n        /* \"#utility.yul\":9355:9356   */\n      0x01\n        /* \"#utility.yul\":9349:9353   */\n      dup3\n        /* \"#utility.yul\":9345:9357   */\n      and\n        /* \"#utility.yul\":9376:9394   */\n      dup1\n        /* \"#utility.yul\":9366:9447   */\n      tag_211\n      jumpi\n        /* \"#utility.yul\":9432:9436   */\n      0x7f\n        /* \"#utility.yul\":9424:9430   */\n      dup3\n        /* \"#utility.yul\":9420:9437   */\n      and\n        /* \"#utility.yul\":9410:9437   */\n      swap2\n      pop\n        /* \"#utility.yul\":9366:9447   */\n    tag_211:\n        /* \"#utility.yul\":9494:9496   */\n      0x20\n        /* \"#utility.yul\":9486:9492   */\n      dup3\n        /* \"#utility.yul\":9483:9497   */\n      lt\n        /* \"#utility.yul\":9463:9481   */\n      dup2\n        /* \"#utility.yul\":9460:9498   */\n      eq\n        /* \"#utility.yul\":9457:9541   */\n      iszero\n      tag_212\n      jumpi\n        /* \"#utility.yul\":9513:9531   */\n      tag_213\n      tag_214\n      jump\t// in\n    tag_213:\n        /* \"#utility.yul\":9457:9541   */\n    tag_212:\n        /* \"#utility.yul\":9278:9547   */\n      pop\n        /* \"#utility.yul\":9227:9547   */\n      swap2\n      swap1\n      pop\n      jump\t// out\n        /* \"#utility.yul\":9553:9834   */\n    tag_189:\n        /* \"#utility.yul\":9636:9663   */\n      tag_216\n        /* \"#utility.yul\":9658:9662   */\n      dup3\n        /* \"#utility.yul\":9636:9663   */\n      tag_157\n      jump\t// in\n    tag_216:\n        /* \"#utility.yul\":9628:9634   */\n      dup2\n        /* \"#utility.yul\":9624:9664   */\n      add\n        /* \"#utility.yul\":9766:9772   */\n      dup2\n        /* \"#utility.yul\":9754:9764   */\n      dup2\n        /* \"#utility.yul\":9751:9773   */\n      lt\n        /* \"#utility.yul\":9730:9748   */\n      0xffffffffffffffff\n        /* \"#utility.yul\":9718:9728   */\n      dup3\n        /* \"#utility.yul\":9715:9749   */\n      gt\n        /* \"#utility.yul\":9712:9774   */\n      or\n        /* \"#utility.yul\":9709:9797   */\n      iszero\n      tag_217\n      jumpi\n        /* \"#utility.yul\":9777:9795   */\n      tag_218\n      tag_194\n      jump\t// in\n    tag_218:\n        /* \"#utility.yul\":9709:9797   */\n    tag_217:\n        /* \"#utility.yul\":9817:9827   */\n      dup1\n        /* \"#utility.yul\":9813:9815   */\n      0x40\n        /* \"#utility.yul\":9806:9828   */\n      mstore\n        /* \"#utility.yul\":9596:9834   */\n      pop\n        /* \"#utility.yul\":9553:9834   */\n      pop\n      pop\n      jump\t// out\n        /* \"#utility.yul\":9840:10020   */\n    tag_214:\n        /* \"#utility.yul\":9888:9965   */\n      0x4e487b7100000000000000000000000000000000000000000000000000000000\n        /* \"#utility.yul\":9885:9886   */\n      0x00\n        /* \"#utility.yul\":9878:9966   */\n      mstore\n        /* \"#utility.yul\":9985:9989   */\n      0x22\n        /* \"#utility.yul\":9982:9983   */\n      0x04\n        /* \"#utility.yul\":9975:9990   */\n      mstore\n        /* \"#utility.yul\":10009:10013   */\n      0x24\n        /* \"#utility.yul\":10006:10007   */\n      0x00\n        /* \"#utility.yul\":9999:10014   */\n      revert\n        /* \"#utility.yul\":10026:10206   */\n    tag_194:\n        /* \"#utility.yul\":10074:10151   */\n      0x4e487b7100000000000000000000000000000000000000000000000000000000\n        /* \"#utility.yul\":10071:10072   */\n      0x00\n        /* \"#utility.yul\":10064:10152   */\n      mstore\n        /* \"#utility.yul\":10171:10175   */\n      0x41\n        /* \"#utility.yul\":10168:10169   */\n      0x04\n        /* \"#utility.yul\":10161:10176   */\n      mstore\n        /* \"#utility.yul\":10195:10199   */\n      0x24\n        /* \"#utility.yul\":10192:10193   */\n      0x00\n        /* \"#utility.yul\":10185:10200   */\n      revert\n        /* \"#utility.yul\":10212:10329   */\n    tag_108:\n        /* \"#utility.yul\":10321:10322   */\n      0x00\n        /* \"#utility.yul\":10318:10319   */\n      dup1\n        /* \"#utility.yul\":10311:10323   */\n      revert\n        /* \"#utility.yul\":10335:10452   */\n    tag_101:\n        /* \"#utility.yul\":10444:10445   */\n      0x00\n        /* \"#utility.yul\":10441:10442   */\n      dup1\n        /* \"#utility.yul\":10434:10446   */\n      revert\n        /* \"#utility.yul\":10458:10575   */\n    tag_125:\n        /* \"#utility.yul\":10567:10568   */\n      0x00\n        /* \"#utility.yul\":10564:10565   */\n      dup1\n        /* \"#utility.yul\":10557:10569   */\n      revert\n        /* \"#utility.yul\":10581:10698   */\n    tag_117:\n        /* \"#utility.yul\":10690:10691   */\n      0x00\n        /* \"#utility.yul\":10687:10688   */\n      dup1\n        /* \"#utility.yul\":10680:10692   */\n      revert\n        /* \"#utility.yul\":10704:10806   */\n    tag_157:\n        /* \"#utility.yul\":10745:10751   */\n      0x00\n        /* \"#utility.yul\":10796:10798   */\n      0x1f\n        /* \"#utility.yul\":10792:10799   */\n      not\n        /* \"#utility.yul\":10787:10789   */\n      0x1f\n        /* \"#utility.yul\":10780:10785   */\n      dup4\n        /* \"#utility.yul\":10776:10790   */\n      add\n        /* \"#utility.yul\":10772:10800   */\n      and\n        /* \"#utility.yul\":10762:10800   */\n      swap1\n      pop\n        /* \"#utility.yul\":10704:10806   */\n      swap2\n      swap1\n      pop\n      jump\t// out\n        /* \"#utility.yul\":10812:10934   */\n    tag_113:\n        /* \"#utility.yul\":10885:10909   */\n      tag_227\n        /* \"#utility.yul\":10903:10908   */\n      dup2\n        /* \"#utility.yul\":10885:10909   */\n      tag_172\n      jump\t// in\n    tag_227:\n        /* \"#utility.yul\":10878:10883   */\n      dup2\n        /* \"#utility.yul\":10875:10910   */\n      eq\n        /* \"#utility.yul\":10865:10928   */\n      tag_228\n      jumpi\n        /* \"#utility.yul\":10924:10925   */\n      0x00\n        /* \"#utility.yul\":10921:10922   */\n      dup1\n        /* \"#utility.yul\":10914:10926   */\n      revert\n        /* \"#utility.yul\":10865:10928   */\n    tag_228:\n        /* \"#utility.yul\":10812:10934   */\n      pop\n      jump\t// out\n\n    auxdata: 0xa2646970667358221220784c05bd82f9dd2ce1fe05b92ae514d20e2fcf57d7b32bd06d08e0c865766b1864736f6c63430008070033\n}\n",
				"bytecode": {
					"linkReferences": {},
					"object": "608060405234801561001057600080fd5b50610cb0806100206000396000f3fe608060405234801561001057600080fd5b50600436106100415760003560e01c806382e76b8814610046578063bc8bc2b414610064578063e83ebd3214610096575b600080fd5b61004e6100b2565b60405161005b91906109de565b60405180910390f35b61007e600480360381019061007991906107b6565b61027c565b60405161008d93929190610a30565b60405180910390f35b6100b060048036038101906100ab91906107e3565b6103c6565b005b6060600160003373ffffffffffffffffffffffffffffffffffffffff1673ffffffffffffffffffffffffffffffffffffffff168152602001908152602001600020805480602002602001604051908101604052809291908181526020016000905b8282101561027357838290600052602060002090600302016040518060600160405290816000820154815260200160018201805461015090610b7d565b80601f016020809104026020016040519081016040528092919081815260200182805461017c90610b7d565b80156101c95780601f1061019e576101008083540402835291602001916101c9565b820191906000526020600020905b8154815290600101906020018083116101ac57829003601f168201915b505050505081526020016002820180546101e290610b7d565b80601f016020809104026020016040519081016040528092919081815260200182805461020e90610b7d565b801561025b5780601f106102305761010080835404028352916020019161025b565b820191906000526020600020905b81548152906001019060200180831161023e57829003601f168201915b50505050508152505081526020019060010190610113565b50505050905090565b6000818154811061028c57600080fd5b90600052602060002090600302016000915090508060000154908060010180546102b590610b7d565b80601f01602080910402602001604051908101604052809291908181526020018280546102e190610b7d565b801561032e5780601f106103035761010080835404028352916020019161032e565b820191906000526020600020905b81548152906001019060200180831161031157829003601f168201915b50505050509080600201805461034390610b7d565b80601f016020809104026020016040519081016040528092919081815260200182805461036f90610b7d565b80156103bc5780601f10610391576101008083540402835291602001916103bc565b820191906000526020600020905b81548152906001019060200180831161039f57829003601f168201915b5050505050905083565b600060405180606001604052808581526020018481526020018381525090806001815401808255809150506001900390600052602060002090600302016000909190919091506000820151816000015560208201518160010190805190602001906104329291906104e0565b50604082015181600201908051906020019061044f9291906104e0565b5050506000600160003373ffffffffffffffffffffffffffffffffffffffff1673ffffffffffffffffffffffffffffffffffffffff1681526020019081526020016000209080546104a1929190610566565b507f3c981eaf8f806637941d1237961055d66e8636b71bc453db0c9e245a154760fd83836040516104d3929190610a00565b60405180910390a1505050565b8280546104ec90610b7d565b90600052602060002090601f01602090048101928261050e5760008555610555565b82601f1061052757805160ff1916838001178555610555565b82800160010185558215610555579182015b82811115610554578251825591602001919060010190610539565b5b5090506105629190610608565b5090565b8280548282559060005260206000209060030281019282156105f75760005260206000209160030282015b828111156105f65782826000820154816000015560018201816001019080546105b990610b7d565b6105c4929190610625565b5060028201816002019080546105d990610b7d565b6105e4929190610625565b50505091600301919060030190610591565b5b50905061060491906106b2565b5090565b5b80821115610621576000816000905550600101610609565b5090565b82805461063190610b7d565b90600052602060002090601f01602090048101928261065357600085556106a1565b82601f1061066457805485556106a1565b828001600101855582156106a157600052602060002091601f016020900482015b828111156106a0578254825591600101919060010190610685565b5b5090506106ae9190610608565b5090565b5b808211156106ed576000808201600090556001820160006106d491906106f1565b6002820160006106e491906106f1565b506003016106b3565b5090565b5080546106fd90610b7d565b6000825580601f1061070f575061072e565b601f01602090049060005260206000209081019061072d9190610608565b5b50565b600061074461073f84610a9a565b610a75565b9050828152602081018484840111156107605761075f610c43565b5b61076b848285610b3b565b509392505050565b600082601f83011261078857610787610c3e565b5b8135610798848260208601610731565b91505092915050565b6000813590506107b081610c63565b92915050565b6000602082840312156107cc576107cb610c4d565b5b60006107da848285016107a1565b91505092915050565b6000806000606084860312156107fc576107fb610c4d565b5b600061080a868287016107a1565b935050602084013567ffffffffffffffff81111561082b5761082a610c48565b5b61083786828701610773565b925050604084013567ffffffffffffffff81111561085857610857610c48565b5b61086486828701610773565b9150509250925092565b600061087a8383610969565b905092915050565b600061088d82610adb565b6108978185610afe565b9350836020820285016108a985610acb565b8060005b858110156108e557848403895281516108c6858261086e565b94506108d183610af1565b925060208a019950506001810190506108ad565b50829750879550505050505092915050565b600061090282610ae6565b61090c8185610b0f565b935061091c818560208601610b4a565b61092581610c52565b840191505092915050565b600061093b82610ae6565b6109458185610b20565b9350610955818560208601610b4a565b61095e81610c52565b840191505092915050565b600060608301600083015161098160008601826109c0565b506020830151848203602086015261099982826108f7565b915050604083015184820360408601526109b382826108f7565b9150508091505092915050565b6109c981610b31565b82525050565b6109d881610b31565b82525050565b600060208201905081810360008301526109f88184610882565b905092915050565b6000604082019050610a1560008301856109cf565b8181036020830152610a278184610930565b90509392505050565b6000606082019050610a4560008301866109cf565b8181036020830152610a578185610930565b90508181036040830152610a6b8184610930565b9050949350505050565b6000610a7f610a90565b9050610a8b8282610baf565b919050565b6000604051905090565b600067ffffffffffffffff821115610ab557610ab4610c0f565b5b610abe82610c52565b9050602081019050919050565b6000819050602082019050919050565b600081519050919050565b600081519050919050565b6000602082019050919050565b600082825260208201905092915050565b600082825260208201905092915050565b600082825260208201905092915050565b6000819050919050565b82818337600083830152505050565b60005b83811015610b68578082015181840152602081019050610b4d565b83811115610b77576000848401525b50505050565b60006002820490506001821680610b9557607f821691505b60208210811415610ba957610ba8610be0565b5b50919050565b610bb882610c52565b810181811067ffffffffffffffff82111715610bd757610bd6610c0f565b5b80604052505050565b7f4e487b7100000000000000000000000000000000000000000000000000000000600052602260045260246000fd5b7f4e487b7100000000000000000000000000000000000000000000000000000000600052604160045260246000fd5b600080fd5b600080fd5b600080fd5b600080fd5b6000601f19601f8301169050919050565b610c6c81610b31565b8114610c7757600080fd5b5056fea2646970667358221220784c05bd82f9dd2ce1fe05b92ae514d20e2fcf57d7b32bd06d08e0c865766b1864736f6c63430008070033",
					"opcodes": "PUSH1 0x80 PUSH1 0x40 MSTORE CALLVALUE DUP1 ISZERO PUSH2 0x10 JUMPI PUSH1 0x0 DUP1 REVERT JUMPDEST POP PUSH2 0xCB0 DUP1 PUSH2 0x20 PUSH1 0x0 CODECOPY PUSH1 0x0 RETURN INVALID PUSH1 0x80 PUSH1 0x40 MSTORE CALLVALUE DUP1 ISZERO PUSH2 0x10 JUMPI PUSH1 0x0 DUP1 REVERT JUMPDEST POP PUSH1 0x4 CALLDATASIZE LT PUSH2 0x41 JUMPI PUSH1 0x0 CALLDATALOAD PUSH1 0xE0 SHR DUP1 PUSH4 0x82E76B88 EQ PUSH2 0x46 JUMPI DUP1 PUSH4 0xBC8BC2B4 EQ PUSH2 0x64 JUMPI DUP1 PUSH4 0xE83EBD32 EQ PUSH2 0x96 JUMPI JUMPDEST PUSH1 0x0 DUP1 REVERT JUMPDEST PUSH2 0x4E PUSH2 0xB2 JUMP JUMPDEST PUSH1 0x40 MLOAD PUSH2 0x5B SWAP2 SWAP1 PUSH2 0x9DE JUMP JUMPDEST PUSH1 0x40 MLOAD DUP1 SWAP2 SUB SWAP1 RETURN JUMPDEST PUSH2 0x7E PUSH1 0x4 DUP1 CALLDATASIZE SUB DUP2 ADD SWAP1 PUSH2 0x79 SWAP2 SWAP1 PUSH2 0x7B6 JUMP JUMPDEST PUSH2 0x27C JUMP JUMPDEST PUSH1 0x40 MLOAD PUSH2 0x8D SWAP4 SWAP3 SWAP2 SWAP1 PUSH2 0xA30 JUMP JUMPDEST PUSH1 0x40 MLOAD DUP1 SWAP2 SUB SWAP1 RETURN JUMPDEST PUSH2 0xB0 PUSH1 0x4 DUP1 CALLDATASIZE SUB DUP2 ADD SWAP1 PUSH2 0xAB SWAP2 SWAP1 PUSH2 0x7E3 JUMP JUMPDEST PUSH2 0x3C6 JUMP JUMPDEST STOP JUMPDEST PUSH1 0x60 PUSH1 0x1 PUSH1 0x0 CALLER PUSH20 0xFFFFFFFFFFFFFFFFFFFFFFFFFFFFFFFFFFFFFFFF AND PUSH20 0xFFFFFFFFFFFFFFFFFFFFFFFFFFFFFFFFFFFFFFFF AND DUP2 MSTORE PUSH1 0x20 ADD SWAP1 DUP2 MSTORE PUSH1 0x20 ADD PUSH1 0x0 KECCAK256 DUP1 SLOAD DUP1 PUSH1 0x20 MUL PUSH1 0x20 ADD PUSH1 0x40 MLOAD SWAP1 DUP2 ADD PUSH1 0x40 MSTORE DUP1 SWAP3 SWAP2 SWAP1 DUP2 DUP2 MSTORE PUSH1 0x20 ADD PUSH1 0x0 SWAP1 JUMPDEST DUP3 DUP3 LT ISZERO PUSH2 0x273 JUMPI DUP4 DUP3 SWAP1 PUSH1 0x0 MSTORE PUSH1 0x20 PUSH1 0x0 KECCAK256 SWAP1 PUSH1 0x3 MUL ADD PUSH1 0x40 MLOAD DUP1 PUSH1 0x60 ADD PUSH1 0x40 MSTORE SWAP1 DUP2 PUSH1 0x0 DUP3 ADD SLOAD DUP2 MSTORE PUSH1 0x20 ADD PUSH1 0x1 DUP3 ADD DUP1 SLOAD PUSH2 0x150 SWAP1 PUSH2 0xB7D JUMP JUMPDEST DUP1 PUSH1 0x1F ADD PUSH1 0x20 DUP1 SWAP2 DIV MUL PUSH1 0x20 ADD PUSH1 0x40 MLOAD SWAP1 DUP2 ADD PUSH1 0x40 MSTORE DUP1 SWAP3 SWAP2 SWAP1 DUP2 DUP2 MSTORE PUSH1 0x20 ADD DUP3 DUP1 SLOAD PUSH2 0x17C SWAP1 PUSH2 0xB7D JUMP JUMPDEST DUP1 ISZERO PUSH2 0x1C9 JUMPI DUP1 PUSH1 0x1F LT PUSH2 0x19E JUMPI PUSH2 0x100 DUP1 DUP4 SLOAD DIV MUL DUP4 MSTORE SWAP2 PUSH1 0x20 ADD SWAP2 PUSH2 0x1C9 JUMP JUMPDEST DUP3 ADD SWAP2 SWAP1 PUSH1 0x0 MSTORE PUSH1 0x20 PUSH1 0x0 KECCAK256 SWAP1 JUMPDEST DUP2 SLOAD DUP2 MSTORE SWAP1 PUSH1 0x1 ADD SWAP1 PUSH1 0x20 ADD DUP1 DUP4 GT PUSH2 0x1AC JUMPI DUP3 SWAP1 SUB PUSH1 0x1F AND DUP3 ADD SWAP2 JUMPDEST POP POP POP POP POP DUP2 MSTORE PUSH1 0x20 ADD PUSH1 0x2 DUP3 ADD DUP1 SLOAD PUSH2 0x1E2 SWAP1 PUSH2 0xB7D JUMP JUMPDEST DUP1 PUSH1 0x1F ADD PUSH1 0x20 DUP1 SWAP2 DIV MUL PUSH1 0x20 ADD PUSH1 0x40 MLOAD SWAP1 DUP2 ADD PUSH1 0x40 MSTORE DUP1 SWAP3 SWAP2 SWAP1 DUP2 DUP2 MSTORE PUSH1 0x20 ADD DUP3 DUP1 SLOAD PUSH2 0x20E SWAP1 PUSH2 0xB7D JUMP JUMPDEST DUP1 ISZERO PUSH2 0x25B JUMPI DUP1 PUSH1 0x1F LT PUSH2 0x230 JUMPI PUSH2 0x100 DUP1 DUP4 SLOAD DIV MUL DUP4 MSTORE SWAP2 PUSH1 0x20 ADD SWAP2 PUSH2 0x25B JUMP JUMPDEST DUP3 ADD SWAP2 SWAP1 PUSH1 0x0 MSTORE PUSH1 0x20 PUSH1 0x0 KECCAK256 SWAP1 JUMPDEST DUP2 SLOAD DUP2 MSTORE SWAP1 PUSH1 0x1 ADD SWAP1 PUSH1 0x20 ADD DUP1 DUP4 GT PUSH2 0x23E JUMPI DUP3 SWAP1 SUB PUSH1 0x1F AND DUP3 ADD SWAP2 JUMPDEST POP POP POP POP POP DUP2 MSTORE POP POP DUP2 MSTORE PUSH1 0x20 ADD SWAP1 PUSH1 0x1 ADD SWAP1 PUSH2 0x113 JUMP JUMPDEST POP POP POP POP SWAP1 POP SWAP1 JUMP JUMPDEST PUSH1 0x0 DUP2 DUP2 SLOAD DUP2 LT PUSH2 0x28C JUMPI PUSH1 0x0 DUP1 REVERT JUMPDEST SWAP1 PUSH1 0x0 MSTORE PUSH1 0x20 PUSH1 0x0 KECCAK256 SWAP1 PUSH1 0x3 MUL ADD PUSH1 0x0 SWAP2 POP SWAP1 POP DUP1 PUSH1 0x0 ADD SLOAD SWAP1 DUP1 PUSH1 0x1 ADD DUP1 SLOAD PUSH2 0x2B5 SWAP1 PUSH2 0xB7D JUMP JUMPDEST DUP1 PUSH1 0x1F ADD PUSH1 0x20 DUP1 SWAP2 DIV MUL PUSH1 0x20 ADD PUSH1 0x40 MLOAD SWAP1 DUP2 ADD PUSH1 0x40 MSTORE DUP1 SWAP3 SWAP2 SWAP1 DUP2 DUP2 MSTORE PUSH1 0x20 ADD DUP3 DUP1 SLOAD PUSH2 0x2E1 SWAP1 PUSH2 0xB7D JUMP JUMPDEST DUP1 ISZERO PUSH2 0x32E JUMPI DUP1 PUSH1 0x1F LT PUSH2 0x303 JUMPI PUSH2 0x100 DUP1 DUP4 SLOAD DIV MUL DUP4 MSTORE SWAP2 PUSH1 0x20 ADD SWAP2 PUSH2 0x32E JUMP JUMPDEST DUP3 ADD SWAP2 SWAP1 PUSH1 0x0 MSTORE PUSH1 0x20 PUSH1 0x0 KECCAK256 SWAP1 JUMPDEST DUP2 SLOAD DUP2 MSTORE SWAP1 PUSH1 0x1 ADD SWAP1 PUSH1 0x20 ADD DUP1 DUP4 GT PUSH2 0x311 JUMPI DUP3 SWAP1 SUB PUSH1 0x1F AND DUP3 ADD SWAP2 JUMPDEST POP POP POP POP POP SWAP1 DUP1 PUSH1 0x2 ADD DUP1 SLOAD PUSH2 0x343 SWAP1 PUSH2 0xB7D JUMP JUMPDEST DUP1 PUSH1 0x1F ADD PUSH1 0x20 DUP1 SWAP2 DIV MUL PUSH1 0x20 ADD PUSH1 0x40 MLOAD SWAP1 DUP2 ADD PUSH1 0x40 MSTORE DUP1 SWAP3 SWAP2 SWAP1 DUP2 DUP2 MSTORE PUSH1 0x20 ADD DUP3 DUP1 SLOAD PUSH2 0x36F SWAP1 PUSH2 0xB7D JUMP JUMPDEST DUP1 ISZERO PUSH2 0x3BC JUMPI DUP1 PUSH1 0x1F LT PUSH2 0x391 JUMPI PUSH2 0x100 DUP1 DUP4 SLOAD DIV MUL DUP4 MSTORE SWAP2 PUSH1 0x20 ADD SWAP2 PUSH2 0x3BC JUMP JUMPDEST DUP3 ADD SWAP2 SWAP1 PUSH1 0x0 MSTORE PUSH1 0x20 PUSH1 0x0 KECCAK256 SWAP1 JUMPDEST DUP2 SLOAD DUP2 MSTORE SWAP1 PUSH1 0x1 ADD SWAP1 PUSH1 0x20 ADD DUP1 DUP4 GT PUSH2 0x39F JUMPI DUP3 SWAP1 SUB PUSH1 0x1F AND DUP3 ADD SWAP2 JUMPDEST POP POP POP POP POP SWAP1 POP DUP4 JUMP JUMPDEST PUSH1 0x0 PUSH1 0x40 MLOAD DUP1 PUSH1 0x60 ADD PUSH1 0x40 MSTORE DUP1 DUP6 DUP2 MSTORE PUSH1 0x20 ADD DUP5 DUP2 MSTORE PUSH1 0x20 ADD DUP4 DUP2 MSTORE POP SWAP1 DUP1 PUSH1 0x1 DUP2 SLOAD ADD DUP1 DUP3 SSTORE DUP1 SWAP2 POP POP PUSH1 0x1 SWAP1 SUB SWAP1 PUSH1 0x0 MSTORE PUSH1 0x20 PUSH1 0x0 KECCAK256 SWAP1 PUSH1 0x3 MUL ADD PUSH1 0x0 SWAP1 SWAP2 SWAP1 SWAP2 SWAP1 SWAP2 POP PUSH1 0x0 DUP3 ADD MLOAD DUP2 PUSH1 0x0 ADD SSTORE PUSH1 0x20 DUP3 ADD MLOAD DUP2 PUSH1 0x1 ADD SWAP1 DUP1 MLOAD SWAP1 PUSH1 0x20 ADD SWAP1 PUSH2 0x432 SWAP3 SWAP2 SWAP1 PUSH2 0x4E0 JUMP JUMPDEST POP PUSH1 0x40 DUP3 ADD MLOAD DUP2 PUSH1 0x2 ADD SWAP1 DUP1 MLOAD SWAP1 PUSH1 0x20 ADD SWAP1 PUSH2 0x44F SWAP3 SWAP2 SWAP1 PUSH2 0x4E0 JUMP JUMPDEST POP POP POP PUSH1 0x0 PUSH1 0x1 PUSH1 0x0 CALLER PUSH20 0xFFFFFFFFFFFFFFFFFFFFFFFFFFFFFFFFFFFFFFFF AND PUSH20 0xFFFFFFFFFFFFFFFFFFFFFFFFFFFFFFFFFFFFFFFF AND DUP2 MSTORE PUSH1 0x20 ADD SWAP1 DUP2 MSTORE PUSH1 0x20 ADD PUSH1 0x0 KECCAK256 SWAP1 DUP1 SLOAD PUSH2 0x4A1 SWAP3 SWAP2 SWAP1 PUSH2 0x566 JUMP JUMPDEST POP PUSH32 0x3C981EAF8F806637941D1237961055D66E8636B71BC453DB0C9E245A154760FD DUP4 DUP4 PUSH1 0x40 MLOAD PUSH2 0x4D3 SWAP3 SWAP2 SWAP1 PUSH2 0xA00 JUMP JUMPDEST PUSH1 0x40 MLOAD DUP1 SWAP2 SUB SWAP1 LOG1 POP POP POP JUMP JUMPDEST DUP3 DUP1 SLOAD PUSH2 0x4EC SWAP1 PUSH2 0xB7D JUMP JUMPDEST SWAP1 PUSH1 0x0 MSTORE PUSH1 0x20 PUSH1 0x0 KECCAK256 SWAP1 PUSH1 0x1F ADD PUSH1 0x20 SWAP1 DIV DUP2 ADD SWAP3 DUP3 PUSH2 0x50E JUMPI PUSH1 0x0 DUP6 SSTORE PUSH2 0x555 JUMP JUMPDEST DUP3 PUSH1 0x1F LT PUSH2 0x527 JUMPI DUP1 MLOAD PUSH1 0xFF NOT AND DUP4 DUP1 ADD OR DUP6 SSTORE PUSH2 0x555 JUMP JUMPDEST DUP3 DUP1 ADD PUSH1 0x1 ADD DUP6 SSTORE DUP3 ISZERO PUSH2 0x555 JUMPI SWAP2 DUP3 ADD JUMPDEST DUP3 DUP2 GT ISZERO PUSH2 0x554 JUMPI DUP3 MLOAD DUP3 SSTORE SWAP2 PUSH1 0x20 ADD SWAP2 SWAP1 PUSH1 0x1 ADD SWAP1 PUSH2 0x539 JUMP JUMPDEST JUMPDEST POP SWAP1 POP PUSH2 0x562 SWAP2 SWAP1 PUSH2 0x608 JUMP JUMPDEST POP SWAP1 JUMP JUMPDEST DUP3 DUP1 SLOAD DUP3 DUP3 SSTORE SWAP1 PUSH1 0x0 MSTORE PUSH1 0x20 PUSH1 0x0 KECCAK256 SWAP1 PUSH1 0x3 MUL DUP2 ADD SWAP3 DUP3 ISZERO PUSH2 0x5F7 JUMPI PUSH1 0x0 MSTORE PUSH1 0x20 PUSH1 0x0 KECCAK256 SWAP2 PUSH1 0x3 MUL DUP3 ADD JUMPDEST DUP3 DUP2 GT ISZERO PUSH2 0x5F6 JUMPI DUP3 DUP3 PUSH1 0x0 DUP3 ADD SLOAD DUP2 PUSH1 0x0 ADD SSTORE PUSH1 0x1 DUP3 ADD DUP2 PUSH1 0x1 ADD SWAP1 DUP1 SLOAD PUSH2 0x5B9 SWAP1 PUSH2 0xB7D JUMP JUMPDEST PUSH2 0x5C4 SWAP3 SWAP2 SWAP1 PUSH2 0x625 JUMP JUMPDEST POP PUSH1 0x2 DUP3 ADD DUP2 PUSH1 0x2 ADD SWAP1 DUP1 SLOAD PUSH2 0x5D9 SWAP1 PUSH2 0xB7D JUMP JUMPDEST PUSH2 0x5E4 SWAP3 SWAP2 SWAP1 PUSH2 0x625 JUMP JUMPDEST POP POP POP SWAP2 PUSH1 0x3 ADD SWAP2 SWAP1 PUSH1 0x3 ADD SWAP1 PUSH2 0x591 JUMP JUMPDEST JUMPDEST POP SWAP1 POP PUSH2 0x604 SWAP2 SWAP1 PUSH2 0x6B2 JUMP JUMPDEST POP SWAP1 JUMP JUMPDEST JUMPDEST DUP1 DUP3 GT ISZERO PUSH2 0x621 JUMPI PUSH1 0x0 DUP2 PUSH1 0x0 SWAP1 SSTORE POP PUSH1 0x1 ADD PUSH2 0x609 JUMP JUMPDEST POP SWAP1 JUMP JUMPDEST DUP3 DUP1 SLOAD PUSH2 0x631 SWAP1 PUSH2 0xB7D JUMP JUMPDEST SWAP1 PUSH1 0x0 MSTORE PUSH1 0x20 PUSH1 0x0 KECCAK256 SWAP1 PUSH1 0x1F ADD PUSH1 0x20 SWAP1 DIV DUP2 ADD SWAP3 DUP3 PUSH2 0x653 JUMPI PUSH1 0x0 DUP6 SSTORE PUSH2 0x6A1 JUMP JUMPDEST DUP3 PUSH1 0x1F LT PUSH2 0x664 JUMPI DUP1 SLOAD DUP6 SSTORE PUSH2 0x6A1 JUMP JUMPDEST DUP3 DUP1 ADD PUSH1 0x1 ADD DUP6 SSTORE DUP3 ISZERO PUSH2 0x6A1 JUMPI PUSH1 0x0 MSTORE PUSH1 0x20 PUSH1 0x0 KECCAK256 SWAP2 PUSH1 0x1F ADD PUSH1 0x20 SWAP1 DIV DUP3 ADD JUMPDEST DUP3 DUP2 GT ISZERO PUSH2 0x6A0 JUMPI DUP3 SLOAD DUP3 SSTORE SWAP2 PUSH1 0x1 ADD SWAP2 SWAP1 PUSH1 0x1 ADD SWAP1 PUSH2 0x685 JUMP JUMPDEST JUMPDEST POP SWAP1 POP PUSH2 0x6AE SWAP2 SWAP1 PUSH2 0x608 JUMP JUMPDEST POP SWAP1 JUMP JUMPDEST JUMPDEST DUP1 DUP3 GT ISZERO PUSH2 0x6ED JUMPI PUSH1 0x0 DUP1 DUP3 ADD PUSH1 0x0 SWAP1 SSTORE PUSH1 0x1 DUP3 ADD PUSH1 0x0 PUSH2 0x6D4 SWAP2 SWAP1 PUSH2 0x6F1 JUMP JUMPDEST PUSH1 0x2 DUP3 ADD PUSH1 0x0 PUSH2 0x6E4 SWAP2 SWAP1 PUSH2 0x6F1 JUMP JUMPDEST POP PUSH1 0x3 ADD PUSH2 0x6B3 JUMP JUMPDEST POP SWAP1 JUMP JUMPDEST POP DUP1 SLOAD PUSH2 0x6FD SWAP1 PUSH2 0xB7D JUMP JUMPDEST PUSH1 0x0 DUP3 SSTORE DUP1 PUSH1 0x1F LT PUSH2 0x70F JUMPI POP PUSH2 0x72E JUMP JUMPDEST PUSH1 0x1F ADD PUSH1 0x20 SWAP1 DIV SWAP1 PUSH1 0x0 MSTORE PUSH1 0x20 PUSH1 0x0 KECCAK256 SWAP1 DUP2 ADD SWAP1 PUSH2 0x72D SWAP2 SWAP1 PUSH2 0x608 JUMP JUMPDEST JUMPDEST POP JUMP JUMPDEST PUSH1 0x0 PUSH2 0x744 PUSH2 0x73F DUP5 PUSH2 0xA9A JUMP JUMPDEST PUSH2 0xA75 JUMP JUMPDEST SWAP1 POP DUP3 DUP2 MSTORE PUSH1 0x20 DUP2 ADD DUP5 DUP5 DUP5 ADD GT ISZERO PUSH2 0x760 JUMPI PUSH2 0x75F PUSH2 0xC43 JUMP JUMPDEST JUMPDEST PUSH2 0x76B DUP5 DUP3 DUP6 PUSH2 0xB3B JUMP JUMPDEST POP SWAP4 SWAP3 POP POP POP JUMP JUMPDEST PUSH1 0x0 DUP3 PUSH1 0x1F DUP4 ADD SLT PUSH2 0x788 JUMPI PUSH2 0x787 PUSH2 0xC3E JUMP JUMPDEST JUMPDEST DUP2 CALLDATALOAD PUSH2 0x798 DUP5 DUP3 PUSH1 0x20 DUP7 ADD PUSH2 0x731 JUMP JUMPDEST SWAP2 POP POP SWAP3 SWAP2 POP POP JUMP JUMPDEST PUSH1 0x0 DUP2 CALLDATALOAD SWAP1 POP PUSH2 0x7B0 DUP2 PUSH2 0xC63 JUMP JUMPDEST SWAP3 SWAP2 POP POP JUMP JUMPDEST PUSH1 0x0 PUSH1 0x20 DUP3 DUP5 SUB SLT ISZERO PUSH2 0x7CC JUMPI PUSH2 0x7CB PUSH2 0xC4D JUMP JUMPDEST JUMPDEST PUSH1 0x0 PUSH2 0x7DA DUP5 DUP3 DUP6 ADD PUSH2 0x7A1 JUMP JUMPDEST SWAP2 POP POP SWAP3 SWAP2 POP POP JUMP JUMPDEST PUSH1 0x0 DUP1 PUSH1 0x0 PUSH1 0x60 DUP5 DUP7 SUB SLT ISZERO PUSH2 0x7FC JUMPI PUSH2 0x7FB PUSH2 0xC4D JUMP JUMPDEST JUMPDEST PUSH1 0x0 PUSH2 0x80A DUP7 DUP3 DUP8 ADD PUSH2 0x7A1 JUMP JUMPDEST SWAP4 POP POP PUSH1 0x20 DUP5 ADD CALLDATALOAD PUSH8 0xFFFFFFFFFFFFFFFF DUP2 GT ISZERO PUSH2 0x82B JUMPI PUSH2 0x82A PUSH2 0xC48 JUMP JUMPDEST JUMPDEST PUSH2 0x837 DUP7 DUP3 DUP8 ADD PUSH2 0x773 JUMP JUMPDEST SWAP3 POP POP PUSH1 0x40 DUP5 ADD CALLDATALOAD PUSH8 0xFFFFFFFFFFFFFFFF DUP2 GT ISZERO PUSH2 0x858 JUMPI PUSH2 0x857 PUSH2 0xC48 JUMP JUMPDEST JUMPDEST PUSH2 0x864 DUP7 DUP3 DUP8 ADD PUSH2 0x773 JUMP JUMPDEST SWAP2 POP POP SWAP3 POP SWAP3 POP SWAP3 JUMP JUMPDEST PUSH1 0x0 PUSH2 0x87A DUP4 DUP4 PUSH2 0x969 JUMP JUMPDEST SWAP1 POP SWAP3 SWAP2 POP POP JUMP JUMPDEST PUSH1 0x0 PUSH2 0x88D DUP3 PUSH2 0xADB JUMP JUMPDEST PUSH2 0x897 DUP2 DUP6 PUSH2 0xAFE JUMP JUMPDEST SWAP4 POP DUP4 PUSH1 0x20 DUP3 MUL DUP6 ADD PUSH2 0x8A9 DUP6 PUSH2 0xACB JUMP JUMPDEST DUP1 PUSH1 0x0 JUMPDEST DUP6 DUP2 LT ISZERO PUSH2 0x8E5 JUMPI DUP5 DUP5 SUB DUP10 MSTORE DUP2 MLOAD PUSH2 0x8C6 DUP6 DUP3 PUSH2 0x86E JUMP JUMPDEST SWAP5 POP PUSH2 0x8D1 DUP4 PUSH2 0xAF1 JUMP JUMPDEST SWAP3 POP PUSH1 0x20 DUP11 ADD SWAP10 POP POP PUSH1 0x1 DUP2 ADD SWAP1 POP PUSH2 0x8AD JUMP JUMPDEST POP DUP3 SWAP8 POP DUP8 SWAP6 POP POP POP POP POP POP SWAP3 SWAP2 POP POP JUMP JUMPDEST PUSH1 0x0 PUSH2 0x902 DUP3 PUSH2 0xAE6 JUMP JUMPDEST PUSH2 0x90C DUP2 DUP6 PUSH2 0xB0F JUMP JUMPDEST SWAP4 POP PUSH2 0x91C DUP2 DUP6 PUSH1 0x20 DUP7 ADD PUSH2 0xB4A JUMP JUMPDEST PUSH2 0x925 DUP2 PUSH2 0xC52 JUMP JUMPDEST DUP5 ADD SWAP2 POP POP SWAP3 SWAP2 POP POP JUMP JUMPDEST PUSH1 0x0 PUSH2 0x93B DUP3 PUSH2 0xAE6 JUMP JUMPDEST PUSH2 0x945 DUP2 DUP6 PUSH2 0xB20 JUMP JUMPDEST SWAP4 POP PUSH2 0x955 DUP2 DUP6 PUSH1 0x20 DUP7 ADD PUSH2 0xB4A JUMP JUMPDEST PUSH2 0x95E DUP2 PUSH2 0xC52 JUMP JUMPDEST DUP5 ADD SWAP2 POP POP SWAP3 SWAP2 POP POP JUMP JUMPDEST PUSH1 0x0 PUSH1 0x60 DUP4 ADD PUSH1 0x0 DUP4 ADD MLOAD PUSH2 0x981 PUSH1 0x0 DUP7 ADD DUP3 PUSH2 0x9C0 JUMP JUMPDEST POP PUSH1 0x20 DUP4 ADD MLOAD DUP5 DUP3 SUB PUSH1 0x20 DUP7 ADD MSTORE PUSH2 0x999 DUP3 DUP3 PUSH2 0x8F7 JUMP JUMPDEST SWAP2 POP POP PUSH1 0x40 DUP4 ADD MLOAD DUP5 DUP3 SUB PUSH1 0x40 DUP7 ADD MSTORE PUSH2 0x9B3 DUP3 DUP3 PUSH2 0x8F7 JUMP JUMPDEST SWAP2 POP POP DUP1 SWAP2 POP POP SWAP3 SWAP2 POP POP JUMP JUMPDEST PUSH2 0x9C9 DUP2 PUSH2 0xB31 JUMP JUMPDEST DUP3 MSTORE POP POP JUMP JUMPDEST PUSH2 0x9D8 DUP2 PUSH2 0xB31 JUMP JUMPDEST DUP3 MSTORE POP POP JUMP JUMPDEST PUSH1 0x0 PUSH1 0x20 DUP3 ADD SWAP1 POP DUP2 DUP2 SUB PUSH1 0x0 DUP4 ADD MSTORE PUSH2 0x9F8 DUP2 DUP5 PUSH2 0x882 JUMP JUMPDEST SWAP1 POP SWAP3 SWAP2 POP POP JUMP JUMPDEST PUSH1 0x0 PUSH1 0x40 DUP3 ADD SWAP1 POP PUSH2 0xA15 PUSH1 0x0 DUP4 ADD DUP6 PUSH2 0x9CF JUMP JUMPDEST DUP2 DUP2 SUB PUSH1 0x20 DUP4 ADD MSTORE PUSH2 0xA27 DUP2 DUP5 PUSH2 0x930 JUMP JUMPDEST SWAP1 POP SWAP4 SWAP3 POP POP POP JUMP JUMPDEST PUSH1 0x0 PUSH1 0x60 DUP3 ADD SWAP1 POP PUSH2 0xA45 PUSH1 0x0 DUP4 ADD DUP7 PUSH2 0x9CF JUMP JUMPDEST DUP2 DUP2 SUB PUSH1 0x20 DUP4 ADD MSTORE PUSH2 0xA57 DUP2 DUP6 PUSH2 0x930 JUMP JUMPDEST SWAP1 POP DUP2 DUP2 SUB PUSH1 0x40 DUP4 ADD MSTORE PUSH2 0xA6B DUP2 DUP5 PUSH2 0x930 JUMP JUMPDEST SWAP1 POP SWAP5 SWAP4 POP POP POP POP JUMP JUMPDEST PUSH1 0x0 PUSH2 0xA7F PUSH2 0xA90 JUMP JUMPDEST SWAP1 POP PUSH2 0xA8B DUP3 DUP3 PUSH2 0xBAF JUMP JUMPDEST SWAP2 SWAP1 POP JUMP JUMPDEST PUSH1 0x0 PUSH1 0x40 MLOAD SWAP1 POP SWAP1 JUMP JUMPDEST PUSH1 0x0 PUSH8 0xFFFFFFFFFFFFFFFF DUP3 GT ISZERO PUSH2 0xAB5 JUMPI PUSH2 0xAB4 PUSH2 0xC0F JUMP JUMPDEST JUMPDEST PUSH2 0xABE DUP3 PUSH2 0xC52 JUMP JUMPDEST SWAP1 POP PUSH1 0x20 DUP2 ADD SWAP1 POP SWAP2 SWAP1 POP JUMP JUMPDEST PUSH1 0x0 DUP2 SWAP1 POP PUSH1 0x20 DUP3 ADD SWAP1 POP SWAP2 SWAP1 POP JUMP JUMPDEST PUSH1 0x0 DUP2 MLOAD SWAP1 POP SWAP2 SWAP1 POP JUMP JUMPDEST PUSH1 0x0 DUP2 MLOAD SWAP1 POP SWAP2 SWAP1 POP JUMP JUMPDEST PUSH1 0x0 PUSH1 0x20 DUP3 ADD SWAP1 POP SWAP2 SWAP1 POP JUMP JUMPDEST PUSH1 0x0 DUP3 DUP3 MSTORE PUSH1 0x20 DUP3 ADD SWAP1 POP SWAP3 SWAP2 POP POP JUMP JUMPDEST PUSH1 0x0 DUP3 DUP3 MSTORE PUSH1 0x20 DUP3 ADD SWAP1 POP SWAP3 SWAP2 POP POP JUMP JUMPDEST PUSH1 0x0 DUP3 DUP3 MSTORE PUSH1 0x20 DUP3 ADD SWAP1 POP SWAP3 SWAP2 POP POP JUMP JUMPDEST PUSH1 0x0 DUP2 SWAP1 POP SWAP2 SWAP1 POP JUMP JUMPDEST DUP3 DUP2 DUP4 CALLDATACOPY PUSH1 0x0 DUP4 DUP4 ADD MSTORE POP POP POP JUMP JUMPDEST PUSH1 0x0 JUMPDEST DUP4 DUP2 LT ISZERO PUSH2 0xB68 JUMPI DUP1 DUP3 ADD MLOAD DUP2 DUP5 ADD MSTORE PUSH1 0x20 DUP2 ADD SWAP1 POP PUSH2 0xB4D JUMP JUMPDEST DUP4 DUP2 GT ISZERO PUSH2 0xB77 JUMPI PUSH1 0x0 DUP5 DUP5 ADD MSTORE JUMPDEST POP POP POP POP JUMP JUMPDEST PUSH1 0x0 PUSH1 0x2 DUP3 DIV SWAP1 POP PUSH1 0x1 DUP3 AND DUP1 PUSH2 0xB95 JUMPI PUSH1 0x7F DUP3 AND SWAP2 POP JUMPDEST PUSH1 0x20 DUP3 LT DUP2 EQ ISZERO PUSH2 0xBA9 JUMPI PUSH2 0xBA8 PUSH2 0xBE0 JUMP JUMPDEST JUMPDEST POP SWAP2 SWAP1 POP JUMP JUMPDEST PUSH2 0xBB8 DUP3 PUSH2 0xC52 JUMP JUMPDEST DUP2 ADD DUP2 DUP2 LT PUSH8 0xFFFFFFFFFFFFFFFF DUP3 GT OR ISZERO PUSH2 0xBD7 JUMPI PUSH2 0xBD6 PUSH2 0xC0F JUMP JUMPDEST JUMPDEST DUP1 PUSH1 0x40 MSTORE POP POP POP JUMP JUMPDEST PUSH32 0x4E487B7100000000000000000000000000000000000000000000000000000000 PUSH1 0x0 MSTORE PUSH1 0x22 PUSH1 0x4 MSTORE PUSH1 0x24 PUSH1 0x0 REVERT JUMPDEST PUSH32 0x4E487B7100000000000000000000000000000000000000000000000000000000 PUSH1 0x0 MSTORE PUSH1 0x41 PUSH1 0x4 MSTORE PUSH1 0x24 PUSH1 0x0 REVERT JUMPDEST PUSH1 0x0 DUP1 REVERT JUMPDEST PUSH1 0x0 DUP1 REVERT JUMPDEST PUSH1 0x0 DUP1 REVERT JUMPDEST PUSH1 0x0 DUP1 REVERT JUMPDEST PUSH1 0x0 PUSH1 0x1F NOT PUSH1 0x1F DUP4 ADD AND SWAP1 POP SWAP2 SWAP1 POP JUMP JUMPDEST PUSH2 0xC6C DUP2 PUSH2 0xB31 JUMP JUMPDEST DUP2 EQ PUSH2 0xC77 JUMPI PUSH1 0x0 DUP1 REVERT JUMPDEST POP JUMP INVALID LOG2 PUSH5 0x6970667358 0x22 SLT KECCAK256 PUSH25 0x4C05BD82F9DD2CE1FE05B92AE514D20E2FCF57D7B32BD06D08 0xE0 0xC8 PUSH6 0x766B1864736F PUSH13 0x63430008070033000000000000 "
				},
				"gasEstimates": {
					"creation": {
						"codeDepositCost": "649600",
						"executionCost": "683",
						"totalCost": "650283"
					},
					"external": {
						"addTodo(uint256,string,string)": "infinite",
						"showTodo()": "infinite",
						"todos(uint256)": "infinite"
					}
				},
				"methodIdentifiers": {
					"addTodo(uint256,string,string)": "e83ebd32",
					"showTodo()": "82e76b88",
					"todos(uint256)": "bc8bc2b4"
				}
			},
			"storageLayout": {
				"storage": [
					{
						"astId": 18,
						"contract": "todomain.sol:TodoMain",
						"label": "todos",
						"offset": 0,
						"slot": "0",
						"type": "t_array(t_struct(TodoObj)8_storage)dyn_storage"
					},
					{
						"astId": 24,
						"contract": "todomain.sol:TodoMain",
						"label": "todoMap",
						"offset": 0,
						"slot": "1",
						"type": "t_mapping(t_address,t_array(t_struct(TodoObj)8_storage)dyn_storage)"
					}
				],
				"types": {
					"t_address": {
						"encoding": "inplace",
						"label": "address",
						"numberOfBytes": "20"
					},
					"t_array(t_struct(TodoObj)8_storage)dyn_storage": {
						"base": "t_struct(TodoObj)8_storage",
						"encoding": "dynamic_array",
						"label": "struct TodoMain.TodoObj[]",
						"numberOfBytes": "32"
					},
					"t_mapping(t_address,t_array(t_struct(TodoObj)8_storage)dyn_storage)": {
						"encoding": "mapping",
						"key": "t_address",
						"label": "mapping(address => struct TodoMain.TodoObj[])",
						"numberOfBytes": "32",
						"value": "t_array(t_struct(TodoObj)8_storage)dyn_storage"
					},
					"t_string_storage": {
						"encoding": "bytes",
						"label": "string",
						"numberOfBytes": "32"
					},
					"t_struct(TodoObj)8_storage": {
						"encoding": "inplace",
						"label": "struct TodoMain.TodoObj",
						"members": [
							{
								"astId": 3,
								"contract": "todomain.sol:TodoMain",
								"label": "id",
								"offset": 0,
								"slot": "0",
								"type": "t_uint256"
							},
							{
								"astId": 5,
								"contract": "todomain.sol:TodoMain",
								"label": "todoName",
								"offset": 0,
								"slot": "1",
								"type": "t_string_storage"
							},
							{
								"astId": 7,
								"contract": "todomain.sol:TodoMain",
								"label": "todos",
								"offset": 0,
								"slot": "2",
								"type": "t_string_storage"
							}
						],
						"numberOfBytes": "96"
					},
					"t_uint256": {
						"encoding": "inplace",
						"label": "uint256",
						"numberOfBytes": "32"
					}
				}
			},
			"userdoc": {
				"kind": "user",
				"methods": {},
				"version": 1
			}
		}
	}
}