{
	"todomain.sol": {
		"TodoMain": {
			"abi": [
				{
					"anonymous": false,
					"inputs": [
						{
							"indexed": false,
							"internalType": "uint256",
							"name": "",
							"type": "uint256"
						},
						{
							"indexed": false,
							"internalType": "string",
							"name": "",
							"type": "string"
						}
					],
					"name": "TaskCreate",
					"type": "event"
				},
				{
					"inputs": [
						{
							"internalType": "uint256",
							"name": "_id",
							"type": "uint256"
						},
						{
							"internalType": "string",
							"name": "_todoName",
							"type": "string"
						},
						{
							"internalType": "string",
							"name": "_todoes",
							"type": "string"
						}
					],
					"name": "addTodo",
					"outputs": [],
					"stateMutability": "nonpayable",
					"type": "function"
				},
				{
					"inputs": [
						{
							"internalType": "address",
							"name": "_address",
							"type": "address"
						}
					],
					"name": "showTodo",
					"outputs": [
						{
							"components": [
								{
									"internalType": "uint256",
									"name": "id",
									"type": "uint256"
								},
								{
									"internalType": "string",
									"name": "todoName",
									"type": "string"
								},
								{
									"internalType": "string",
									"name": "todos",
									"type": "string"
								}
							],
							"internalType": "struct TodoMain.TodoObj[]",
							"name": "",
							"type": "tuple[]"
						}
					],
					"stateMutability": "view",
					"type": "function"
				},
				{
					"inputs": [
						{
							"internalType": "uint256",
							"name": "",
							"type": "uint256"
						}
					],
					"name": "todos",
					"outputs": [
						{
							"internalType": "uint256",
							"name": "id",
							"type": "uint256"
						},
						{
							"internalType": "string",
							"name": "todoName",
							"type": "string"
						},
						{
							"internalType": "string",
							"name": "todos",
							"type": "string"
						}
					],
					"stateMutability": "view",
					"type": "function"
				}
			],
			"devdoc": {
				"kind": "dev",
				"methods": {},
				"version": 1
			},
			"evm": {
				"assembly": "    /* \"todomain.sol\":64:647  contract TodoMain{\r... */\n  mstore(0x40, 0x80)\n  callvalue\n  dup1\n  iszero\n  tag_1\n  jumpi\n  0x00\n  dup1\n  revert\ntag_1:\n  pop\n  dataSize(sub_0)\n  dup1\n  dataOffset(sub_0)\n  0x00\n  codecopy\n  0x00\n  return\nstop\n\nsub_0: assembly {\n        /* \"todomain.sol\":64:647  contract TodoMain{\r... */\n      mstore(0x40, 0x80)\n      callvalue\n      dup1\n      iszero\n      tag_1\n      jumpi\n      0x00\n      dup1\n      revert\n    tag_1:\n      pop\n      jumpi(tag_2, lt(calldatasize, 0x04))\n      shr(0xe0, calldataload(0x00))\n      dup1\n      0xbc8bc2b4\n      eq\n      tag_3\n      jumpi\n      dup1\n      0xe83ebd32\n      eq\n      tag_4\n      jumpi\n      dup1\n      0xf9324d3c\n      eq\n      tag_5\n      jumpi\n    tag_2:\n      0x00\n      dup1\n      revert\n        /* \"todomain.sol\":223:245  TodoObj[] public todos */\n    tag_3:\n      tag_6\n      0x04\n      dup1\n      calldatasize\n      sub\n      dup2\n      add\n      swap1\n      tag_7\n      swap2\n      swap1\n      tag_8\n      jump\t// in\n    tag_7:\n      tag_9\n      jump\t// in\n    tag_6:\n      mload(0x40)\n      tag_10\n      swap4\n      swap3\n      swap2\n      swap1\n      tag_11\n      jump\t// in\n    tag_10:\n      mload(0x40)\n      dup1\n      swap2\n      sub\n      swap1\n      return\n        /* \"todomain.sol\":296:518  function addTodo(uint _id, string memory _todoName, string memory _todoes) public {\r... */\n    tag_4:\n      tag_12\n      0x04\n      dup1\n      calldatasize\n      sub\n      dup2\n      add\n      swap1\n      tag_13\n      swap2\n      swap1\n      tag_14\n      jump\t// in\n    tag_13:\n      tag_15\n      jump\t// in\n    tag_12:\n      stop\n        /* \"todomain.sol\":526:642  function showTodo(address _address) public view returns(TodoObj[] memory){\r... */\n    tag_5:\n      tag_16\n      0x04\n      dup1\n      calldatasize\n      sub\n      dup2\n      add\n      swap1\n      tag_17\n      swap2\n      swap1\n      tag_18\n      jump\t// in\n    tag_17:\n      tag_19\n      jump\t// in\n    tag_16:\n      mload(0x40)\n      tag_20\n      swap2\n      swap1\n      tag_21\n      jump\t// in\n    tag_20:\n      mload(0x40)\n      dup1\n      swap2\n      sub\n      swap1\n      return\n        /* \"todomain.sol\":223:245  TodoObj[] public todos */\n    tag_9:\n      0x00\n      dup2\n      dup2\n      sload\n      dup2\n      lt\n      tag_22\n      jumpi\n      0x00\n      dup1\n      revert\n    tag_22:\n      swap1\n      0x00\n      mstore\n      keccak256(0x00, 0x20)\n      swap1\n      0x03\n      mul\n      add\n      0x00\n      swap2\n      pop\n      swap1\n      pop\n      dup1\n      0x00\n      add\n      sload\n      swap1\n      dup1\n      0x01\n      add\n      dup1\n      sload\n      tag_24\n      swap1\n      tag_25\n      jump\t// in\n    tag_24:\n      dup1\n      0x1f\n      add\n      0x20\n      dup1\n      swap2\n      div\n      mul\n      0x20\n      add\n      mload(0x40)\n      swap1\n      dup2\n      add\n      0x40\n      mstore\n      dup1\n      swap3\n      swap2\n      swap1\n      dup2\n      dup2\n      mstore\n      0x20\n      add\n      dup3\n      dup1\n      sload\n      tag_26\n      swap1\n      tag_25\n      jump\t// in\n    tag_26:\n      dup1\n      iszero\n      tag_27\n      jumpi\n      dup1\n      0x1f\n      lt\n      tag_28\n      jumpi\n      0x0100\n      dup1\n      dup4\n      sload\n      div\n      mul\n      dup4\n      mstore\n      swap2\n      0x20\n      add\n      swap2\n      jump(tag_27)\n    tag_28:\n      dup3\n      add\n      swap2\n      swap1\n      0x00\n      mstore\n      keccak256(0x00, 0x20)\n      swap1\n    tag_29:\n      dup2\n      sload\n      dup2\n      mstore\n      swap1\n      0x01\n      add\n      swap1\n      0x20\n      add\n      dup1\n      dup4\n      gt\n      tag_29\n      jumpi\n      dup3\n      swap1\n      sub\n      0x1f\n      and\n      dup3\n      add\n      swap2\n    tag_27:\n      pop\n      pop\n      pop\n      pop\n      pop\n      swap1\n      dup1\n      0x02\n      add\n      dup1\n      sload\n      tag_30\n      swap1\n      tag_25\n      jump\t// in\n    tag_30:\n      dup1\n      0x1f\n      add\n      0x20\n      dup1\n      swap2\n      div\n      mul\n      0x20\n      add\n      mload(0x40)\n      swap1\n      dup2\n      add\n      0x40\n      mstore\n      dup1\n      swap3\n      swap2\n      swap1\n      dup2\n      dup2\n      mstore\n      0x20\n      add\n      dup3\n      dup1\n      sload\n      tag_31\n      swap1\n      tag_25\n      jump\t// in\n    tag_31:\n      dup1\n      iszero\n      tag_32\n      jumpi\n      dup1\n      0x1f\n      lt\n      tag_33\n      jumpi\n      0x0100\n      dup1\n      dup4\n      sload\n      div\n      mul\n      dup4\n      mstore\n      swap2\n      0x20\n      add\n      swap2\n      jump(tag_32)\n    tag_33:\n      dup3\n      add\n      swap2\n      swap1\n      0x00\n      mstore\n      keccak256(0x00, 0x20)\n      swap1\n    tag_34:\n      dup2\n      sload\n      dup2\n      mstore\n      swap1\n      0x01\n      add\n      swap1\n      0x20\n      add\n      dup1\n      dup4\n      gt\n      tag_34\n      jumpi\n      dup3\n      swap1\n      sub\n      0x1f\n      and\n      dup3\n      add\n      swap2\n    tag_32:\n      pop\n      pop\n      pop\n      pop\n      pop\n      swap1\n      pop\n      dup4\n      jump\t// out\n        /* \"todomain.sol\":296:518  function addTodo(uint _id, string memory _todoName, string memory _todoes) public {\r... */\n    tag_15:\n        /* \"todomain.sol\":389:394  todos */\n      0x00\n        /* \"todomain.sol\":400:430  TodoObj(_id,_todoName,_todoes) */\n      mload(0x40)\n      dup1\n      0x60\n      add\n      0x40\n      mstore\n      dup1\n        /* \"todomain.sol\":408:411  _id */\n      dup6\n        /* \"todomain.sol\":400:430  TodoObj(_id,_todoName,_todoes) */\n      dup2\n      mstore\n      0x20\n      add\n        /* \"todomain.sol\":412:421  _todoName */\n      dup5\n        /* \"todomain.sol\":400:430  TodoObj(_id,_todoName,_todoes) */\n      dup2\n      mstore\n      0x20\n      add\n        /* \"todomain.sol\":422:429  _todoes */\n      dup4\n        /* \"todomain.sol\":400:430  TodoObj(_id,_todoName,_todoes) */\n      dup2\n      mstore\n      pop\n        /* \"todomain.sol\":389:431  todos.push(TodoObj(_id,_todoName,_todoes)) */\n      swap1\n      dup1\n      0x01\n      dup2\n      sload\n      add\n      dup1\n      dup3\n      sstore\n      dup1\n      swap2\n      pop\n      pop\n      0x01\n      swap1\n      sub\n      swap1\n      0x00\n      mstore\n      keccak256(0x00, 0x20)\n      swap1\n      0x03\n      mul\n      add\n      0x00\n      swap1\n      swap2\n      swap1\n      swap2\n      swap1\n      swap2\n      pop\n      0x00\n      dup3\n      add\n      mload\n      dup2\n      0x00\n      add\n      sstore\n      0x20\n      dup3\n      add\n      mload\n      dup2\n      0x01\n      add\n      swap1\n      dup1\n      mload\n      swap1\n      0x20\n      add\n      swap1\n      tag_37\n      swap3\n      swap2\n      swap1\n      tag_38\n      jump\t// in\n    tag_37:\n      pop\n      0x40\n      dup3\n      add\n      mload\n      dup2\n      0x02\n      add\n      swap1\n      dup1\n      mload\n      swap1\n      0x20\n      add\n      swap1\n      tag_39\n      swap3\n      swap2\n      swap1\n      tag_38\n      jump\t// in\n    tag_39:\n      pop\n      pop\n      pop\n        /* \"todomain.sol\":464:469  todos */\n      0x00\n        /* \"todomain.sol\":442:449  todoMap */\n      0x01\n        /* \"todomain.sol\":442:461  todoMap[msg.sender] */\n      0x00\n        /* \"todomain.sol\":450:460  msg.sender */\n      caller\n        /* \"todomain.sol\":442:461  todoMap[msg.sender] */\n      0xffffffffffffffffffffffffffffffffffffffff\n      and\n      0xffffffffffffffffffffffffffffffffffffffff\n      and\n      dup2\n      mstore\n      0x20\n      add\n      swap1\n      dup2\n      mstore\n      0x20\n      add\n      0x00\n      keccak256\n        /* \"todomain.sol\":442:469  todoMap[msg.sender] = todos */\n      swap1\n      dup1\n      sload\n      tag_40\n      swap3\n      swap2\n      swap1\n      tag_41\n      jump\t// in\n    tag_40:\n      pop\n        /* \"todomain.sol\":485:510  TaskCreate(_id,_todoName) */\n      0x3c981eaf8f806637941d1237961055d66e8636b71bc453db0c9e245a154760fd\n        /* \"todomain.sol\":496:499  _id */\n      dup4\n        /* \"todomain.sol\":500:509  _todoName */\n      dup4\n        /* \"todomain.sol\":485:510  TaskCreate(_id,_todoName) */\n      mload(0x40)\n      tag_42\n      swap3\n      swap2\n      swap1\n      tag_43\n      jump\t// in\n    tag_42:\n      mload(0x40)\n      dup1\n      swap2\n      sub\n      swap1\n      log1\n        /* \"todomain.sol\":296:518  function addTodo(uint _id, string memory _todoName, string memory _todoes) public {\r... */\n      pop\n      pop\n      pop\n      jump\t// out\n        /* \"todomain.sol\":526:642  function showTodo(address _address) public view returns(TodoObj[] memory){\r... */\n    tag_19:\n        /* \"todomain.sol\":582:598  TodoObj[] memory */\n      0x60\n        /* \"todomain.sol\":617:624  todoMap */\n      0x01\n        /* \"todomain.sol\":617:634  todoMap[_address] */\n      0x00\n        /* \"todomain.sol\":625:633  _address */\n      dup4\n        /* \"todomain.sol\":617:634  todoMap[_address] */\n      0xffffffffffffffffffffffffffffffffffffffff\n      and\n      0xffffffffffffffffffffffffffffffffffffffff\n      and\n      dup2\n      mstore\n      0x20\n      add\n      swap1\n      dup2\n      mstore\n      0x20\n      add\n      0x00\n      keccak256\n        /* \"todomain.sol\":610:634  return todoMap[_address] */\n      dup1\n      sload\n      dup1\n      0x20\n      mul\n      0x20\n      add\n      mload(0x40)\n      swap1\n      dup2\n      add\n      0x40\n      mstore\n      dup1\n      swap3\n      swap2\n      swap1\n      dup2\n      dup2\n      mstore\n      0x20\n      add\n      0x00\n      swap1\n    tag_45:\n      dup3\n      dup3\n      lt\n      iszero\n      tag_46\n      jumpi\n      dup4\n      dup3\n      swap1\n      0x00\n      mstore\n      keccak256(0x00, 0x20)\n      swap1\n      0x03\n      mul\n      add\n      mload(0x40)\n      dup1\n      0x60\n      add\n      0x40\n      mstore\n      swap1\n      dup2\n      0x00\n      dup3\n      add\n      sload\n      dup2\n      mstore\n      0x20\n      add\n      0x01\n      dup3\n      add\n      dup1\n      sload\n      tag_48\n      swap1\n      tag_25\n      jump\t// in\n    tag_48:\n      dup1\n      0x1f\n      add\n      0x20\n      dup1\n      swap2\n      div\n      mul\n      0x20\n      add\n      mload(0x40)\n      swap1\n      dup2\n      add\n      0x40\n      mstore\n      dup1\n      swap3\n      swap2\n      swap1\n      dup2\n      dup2\n      mstore\n      0x20\n      add\n      dup3\n      dup1\n      sload\n      tag_49\n      swap1\n      tag_25\n      jump\t// in\n    tag_49:\n      dup1\n      iszero\n      tag_50\n      jumpi\n      dup1\n      0x1f\n      lt\n      tag_51\n      jumpi\n      0x0100\n      dup1\n      dup4\n      sload\n      div\n      mul\n      dup4\n      mstore\n      swap2\n      0x20\n      add\n      swap2\n      jump(tag_50)\n    tag_51:\n      dup3\n      add\n      swap2\n      swap1\n      0x00\n      mstore\n      keccak256(0x00, 0x20)\n      swap1\n    tag_52:\n      dup2\n      sload\n      dup2\n      mstore\n      swap1\n      0x01\n      add\n      swap1\n      0x20\n      add\n      dup1\n      dup4\n      gt\n      tag_52\n      jumpi\n      dup3\n      swap1\n      sub\n      0x1f\n      and\n      dup3\n      add\n      swap2\n    tag_50:\n      pop\n      pop\n      pop\n      pop\n      pop\n      dup2\n      mstore\n      0x20\n      add\n      0x02\n      dup3\n      add\n      dup1\n      sload\n      tag_53\n      swap1\n      tag_25\n      jump\t// in\n    tag_53:\n      dup1\n      0x1f\n      add\n      0x20\n      dup1\n      swap2\n      div\n      mul\n      0x20\n      add\n      mload(0x40)\n      swap1\n      dup2\n      add\n      0x40\n      mstore\n      dup1\n      swap3\n      swap2\n      swap1\n      dup2\n      dup2\n      mstore\n      0x20\n      add\n      dup3\n      dup1\n      sload\n      tag_54\n      swap1\n      tag_25\n      jump\t// in\n    tag_54:\n      dup1\n      iszero\n      tag_55\n      jumpi\n      dup1\n      0x1f\n      lt\n      tag_56\n      jumpi\n      0x0100\n      dup1\n      dup4\n      sload\n      div\n      mul\n      dup4\n      mstore\n      swap2\n      0x20\n      add\n      swap2\n      jump(tag_55)\n    tag_56:\n      dup3\n      add\n      swap2\n      swap1\n      0x00\n      mstore\n      keccak256(0x00, 0x20)\n      swap1\n    tag_57:\n      dup2\n      sload\n      dup2\n      mstore\n      swap1\n      0x01\n      add\n      swap1\n      0x20\n      add\n      dup1\n      dup4\n      gt\n      tag_57\n      jumpi\n      dup3\n      swap1\n      sub\n      0x1f\n      and\n      dup3\n      add\n      swap2\n    tag_55:\n      pop\n      pop\n      pop\n      pop\n      pop\n      dup2\n      mstore\n      pop\n      pop\n      dup2\n      mstore\n      0x20\n      add\n      swap1\n      0x01\n      add\n      swap1\n      jump(tag_45)\n    tag_46:\n      pop\n      pop\n      pop\n      pop\n      swap1\n      pop\n        /* \"todomain.sol\":526:642  function showTodo(address _address) public view returns(TodoObj[] memory){\r... */\n      swap2\n      swap1\n      pop\n      jump\t// out\n    tag_38:\n      dup3\n      dup1\n      sload\n      tag_58\n      swap1\n      tag_25\n      jump\t// in\n    tag_58:\n      swap1\n      0x00\n      mstore\n      keccak256(0x00, 0x20)\n      swap1\n      0x1f\n      add\n      0x20\n      swap1\n      div\n      dup2\n      add\n      swap3\n      dup3\n      tag_60\n      jumpi\n      0x00\n      dup6\n      sstore\n      jump(tag_59)\n    tag_60:\n      dup3\n      0x1f\n      lt\n      tag_61\n      jumpi\n      dup1\n      mload\n      not(0xff)\n      and\n      dup4\n      dup1\n      add\n      or\n      dup6\n      sstore\n      jump(tag_59)\n    tag_61:\n      dup3\n      dup1\n      add\n      0x01\n      add\n      dup6\n      sstore\n      dup3\n      iszero\n      tag_59\n      jumpi\n      swap2\n      dup3\n      add\n    tag_62:\n      dup3\n      dup2\n      gt\n      iszero\n      tag_63\n      jumpi\n      dup3\n      mload\n      dup3\n      sstore\n      swap2\n      0x20\n      add\n      swap2\n      swap1\n      0x01\n      add\n      swap1\n      jump(tag_62)\n    tag_63:\n    tag_59:\n      pop\n      swap1\n      pop\n      tag_64\n      swap2\n      swap1\n      tag_65\n      jump\t// in\n    tag_64:\n      pop\n      swap1\n      jump\t// out\n    tag_41:\n      dup3\n      dup1\n      sload\n      dup3\n      dup3\n      sstore\n      swap1\n      0x00\n      mstore\n      keccak256(0x00, 0x20)\n      swap1\n      0x03\n      mul\n      dup2\n      add\n      swap3\n      dup3\n      iszero\n      tag_66\n      jumpi\n      0x00\n      mstore\n      keccak256(0x00, 0x20)\n      swap2\n      0x03\n      mul\n      dup3\n      add\n    tag_67:\n      dup3\n      dup2\n      gt\n      iszero\n      tag_68\n      jumpi\n      dup3\n      dup3\n      0x00\n      dup3\n      add\n      sload\n      dup2\n      0x00\n      add\n      sstore\n      0x01\n      dup3\n      add\n      dup2\n      0x01\n      add\n      swap1\n      dup1\n      sload\n      tag_69\n      swap1\n      tag_25\n      jump\t// in\n    tag_69:\n      tag_70\n      swap3\n      swap2\n      swap1\n      tag_71\n      jump\t// in\n    tag_70:\n      pop\n      0x02\n      dup3\n      add\n      dup2\n      0x02\n      add\n      swap1\n      dup1\n      sload\n      tag_72\n      swap1\n      tag_25\n      jump\t// in\n    tag_72:\n      tag_73\n      swap3\n      swap2\n      swap1\n      tag_71\n      jump\t// in\n    tag_73:\n      pop\n      pop\n      pop\n      swap2\n      0x03\n      add\n      swap2\n      swap1\n      0x03\n      add\n      swap1\n      jump(tag_67)\n    tag_68:\n    tag_66:\n      pop\n      swap1\n      pop\n      tag_74\n      swap2\n      swap1\n      tag_75\n      jump\t// in\n    tag_74:\n      pop\n      swap1\n      jump\t// out\n    tag_65:\n    tag_76:\n      dup1\n      dup3\n      gt\n      iszero\n      tag_77\n      jumpi\n      0x00\n      dup2\n      0x00\n      swap1\n      sstore\n      pop\n      0x01\n      add\n      jump(tag_76)\n    tag_77:\n      pop\n      swap1\n      jump\t// out\n    tag_71:\n      dup3\n      dup1\n      sload\n      tag_78\n      swap1\n      tag_25\n      jump\t// in\n    tag_78:\n      swap1\n      0x00\n      mstore\n      keccak256(0x00, 0x20)\n      swap1\n      0x1f\n      add\n      0x20\n      swap1\n      div\n      dup2\n      add\n      swap3\n      dup3\n      tag_80\n      jumpi\n      0x00\n      dup6\n      sstore\n      jump(tag_79)\n    tag_80:\n      dup3\n      0x1f\n      lt\n      tag_81\n      jumpi\n      dup1\n      sload\n      dup6\n      sstore\n      jump(tag_79)\n    tag_81:\n      dup3\n      dup1\n      add\n      0x01\n      add\n      dup6\n      sstore\n      dup3\n      iszero\n      tag_79\n      jumpi\n      0x00\n      mstore\n      keccak256(0x00, 0x20)\n      swap2\n      0x1f\n      add\n      0x20\n      swap1\n      div\n      dup3\n      add\n    tag_82:\n      dup3\n      dup2\n      gt\n      iszero\n      tag_83\n      jumpi\n      dup3\n      sload\n      dup3\n      sstore\n      swap2\n      0x01\n      add\n      swap2\n      swap1\n      0x01\n      add\n      swap1\n      jump(tag_82)\n    tag_83:\n    tag_79:\n      pop\n      swap1\n      pop\n      tag_84\n      swap2\n      swap1\n      tag_65\n      jump\t// in\n    tag_84:\n      pop\n      swap1\n      jump\t// out\n    tag_75:\n    tag_85:\n      dup1\n      dup3\n      gt\n      iszero\n      tag_86\n      jumpi\n      0x00\n      dup1\n      dup3\n      add\n      0x00\n      swap1\n      sstore\n      0x01\n      dup3\n      add\n      0x00\n      tag_87\n      swap2\n      swap1\n      tag_88\n      jump\t// in\n    tag_87:\n      0x02\n      dup3\n      add\n      0x00\n      tag_89\n      swap2\n      swap1\n      tag_88\n      jump\t// in\n    tag_89:\n      pop\n      0x03\n      add\n      jump(tag_85)\n    tag_86:\n      pop\n      swap1\n      jump\t// out\n    tag_88:\n      pop\n      dup1\n      sload\n      tag_90\n      swap1\n      tag_25\n      jump\t// in\n    tag_90:\n      0x00\n      dup3\n      sstore\n      dup1\n      0x1f\n      lt\n      tag_92\n      jumpi\n      pop\n      jump(tag_91)\n    tag_92:\n      0x1f\n      add\n      0x20\n      swap1\n      div\n      swap1\n      0x00\n      mstore\n      keccak256(0x00, 0x20)\n      swap1\n      dup2\n      add\n      swap1\n      tag_93\n      swap2\n      swap1\n      tag_65\n      jump\t// in\n    tag_93:\n    tag_91:\n      pop\n      jump\t// out\n        /* \"#utility.yul\":7:419   */\n    tag_95:\n        /* \"#utility.yul\":85:90   */\n      0x00\n        /* \"#utility.yul\":110:176   */\n      tag_97\n        /* \"#utility.yul\":126:175   */\n      tag_98\n        /* \"#utility.yul\":168:174   */\n      dup5\n        /* \"#utility.yul\":126:175   */\n      tag_99\n      jump\t// in\n    tag_98:\n        /* \"#utility.yul\":110:176   */\n      tag_100\n      jump\t// in\n    tag_97:\n        /* \"#utility.yul\":101:176   */\n      swap1\n      pop\n        /* \"#utility.yul\":199:205   */\n      dup3\n        /* \"#utility.yul\":192:197   */\n      dup2\n        /* \"#utility.yul\":185:206   */\n      mstore\n        /* \"#utility.yul\":237:241   */\n      0x20\n        /* \"#utility.yul\":230:235   */\n      dup2\n        /* \"#utility.yul\":226:242   */\n      add\n        /* \"#utility.yul\":275:278   */\n      dup5\n        /* \"#utility.yul\":266:272   */\n      dup5\n        /* \"#utility.yul\":261:264   */\n      dup5\n        /* \"#utility.yul\":257:273   */\n      add\n        /* \"#utility.yul\":254:279   */\n      gt\n        /* \"#utility.yul\":251:363   */\n      iszero\n      tag_101\n      jumpi\n        /* \"#utility.yul\":282:361   */\n      tag_102\n      tag_103\n      jump\t// in\n    tag_102:\n        /* \"#utility.yul\":251:363   */\n    tag_101:\n        /* \"#utility.yul\":372:413   */\n      tag_104\n        /* \"#utility.yul\":406:412   */\n      dup5\n        /* \"#utility.yul\":401:404   */\n      dup3\n        /* \"#utility.yul\":396:399   */\n      dup6\n        /* \"#utility.yul\":372:413   */\n      tag_105\n      jump\t// in\n    tag_104:\n        /* \"#utility.yul\":91:419   */\n      pop\n        /* \"#utility.yul\":7:419   */\n      swap4\n      swap3\n      pop\n      pop\n      pop\n      jump\t// out\n        /* \"#utility.yul\":425:564   */\n    tag_106:\n        /* \"#utility.yul\":471:476   */\n      0x00\n        /* \"#utility.yul\":509:515   */\n      dup2\n        /* \"#utility.yul\":496:516   */\n      calldataload\n        /* \"#utility.yul\":487:516   */\n      swap1\n      pop\n        /* \"#utility.yul\":525:558   */\n      tag_108\n        /* \"#utility.yul\":552:557   */\n      dup2\n        /* \"#utility.yul\":525:558   */\n      tag_109\n      jump\t// in\n    tag_108:\n        /* \"#utility.yul\":425:564   */\n      swap3\n      swap2\n      pop\n      pop\n      jump\t// out\n        /* \"#utility.yul\":584:924   */\n    tag_110:\n        /* \"#utility.yul\":640:645   */\n      0x00\n        /* \"#utility.yul\":689:692   */\n      dup3\n        /* \"#utility.yul\":682:686   */\n      0x1f\n        /* \"#utility.yul\":674:680   */\n      dup4\n        /* \"#utility.yul\":670:687   */\n      add\n        /* \"#utility.yul\":666:693   */\n      slt\n        /* \"#utility.yul\":656:778   */\n      tag_112\n      jumpi\n        /* \"#utility.yul\":697:776   */\n      tag_113\n      tag_114\n      jump\t// in\n    tag_113:\n        /* \"#utility.yul\":656:778   */\n    tag_112:\n        /* \"#utility.yul\":814:820   */\n      dup2\n        /* \"#utility.yul\":801:821   */\n      calldataload\n        /* \"#utility.yul\":839:918   */\n      tag_115\n        /* \"#utility.yul\":914:917   */\n      dup5\n        /* \"#utility.yul\":906:912   */\n      dup3\n        /* \"#utility.yul\":899:903   */\n      0x20\n        /* \"#utility.yul\":891:897   */\n      dup7\n        /* \"#utility.yul\":887:904   */\n      add\n        /* \"#utility.yul\":839:918   */\n      tag_95\n      jump\t// in\n    tag_115:\n        /* \"#utility.yul\":830:918   */\n      swap2\n      pop\n        /* \"#utility.yul\":646:924   */\n      pop\n        /* \"#utility.yul\":584:924   */\n      swap3\n      swap2\n      pop\n      pop\n      jump\t// out\n        /* \"#utility.yul\":930:1069   */\n    tag_116:\n        /* \"#utility.yul\":976:981   */\n      0x00\n        /* \"#utility.yul\":1014:1020   */\n      dup2\n        /* \"#utility.yul\":1001:1021   */\n      calldataload\n        /* \"#utility.yul\":992:1021   */\n      swap1\n      pop\n        /* \"#utility.yul\":1030:1063   */\n      tag_118\n        /* \"#utility.yul\":1057:1062   */\n      dup2\n        /* \"#utility.yul\":1030:1063   */\n      tag_119\n      jump\t// in\n    tag_118:\n        /* \"#utility.yul\":930:1069   */\n      swap3\n      swap2\n      pop\n      pop\n      jump\t// out\n        /* \"#utility.yul\":1075:1404   */\n    tag_18:\n        /* \"#utility.yul\":1134:1140   */\n      0x00\n        /* \"#utility.yul\":1183:1185   */\n      0x20\n        /* \"#utility.yul\":1171:1180   */\n      dup3\n        /* \"#utility.yul\":1162:1169   */\n      dup5\n        /* \"#utility.yul\":1158:1181   */\n      sub\n        /* \"#utility.yul\":1154:1186   */\n      slt\n        /* \"#utility.yul\":1151:1270   */\n      iszero\n      tag_121\n      jumpi\n        /* \"#utility.yul\":1189:1268   */\n      tag_122\n      tag_123\n      jump\t// in\n    tag_122:\n        /* \"#utility.yul\":1151:1270   */\n    tag_121:\n        /* \"#utility.yul\":1309:1310   */\n      0x00\n        /* \"#utility.yul\":1334:1387   */\n      tag_124\n        /* \"#utility.yul\":1379:1386   */\n      dup5\n        /* \"#utility.yul\":1370:1376   */\n      dup3\n        /* \"#utility.yul\":1359:1368   */\n      dup6\n        /* \"#utility.yul\":1355:1377   */\n      add\n        /* \"#utility.yul\":1334:1387   */\n      tag_106\n      jump\t// in\n    tag_124:\n        /* \"#utility.yul\":1324:1387   */\n      swap2\n      pop\n        /* \"#utility.yul\":1280:1397   */\n      pop\n        /* \"#utility.yul\":1075:1404   */\n      swap3\n      swap2\n      pop\n      pop\n      jump\t// out\n        /* \"#utility.yul\":1410:1739   */\n    tag_8:\n        /* \"#utility.yul\":1469:1475   */\n      0x00\n        /* \"#utility.yul\":1518:1520   */\n      0x20\n        /* \"#utility.yul\":1506:1515   */\n      dup3\n        /* \"#utility.yul\":1497:1504   */\n      dup5\n        /* \"#utility.yul\":1493:1516   */\n      sub\n        /* \"#utility.yul\":1489:1521   */\n      slt\n        /* \"#utility.yul\":1486:1605   */\n      iszero\n      tag_126\n      jumpi\n        /* \"#utility.yul\":1524:1603   */\n      tag_127\n      tag_123\n      jump\t// in\n    tag_127:\n        /* \"#utility.yul\":1486:1605   */\n    tag_126:\n        /* \"#utility.yul\":1644:1645   */\n      0x00\n        /* \"#utility.yul\":1669:1722   */\n      tag_128\n        /* \"#utility.yul\":1714:1721   */\n      dup5\n        /* \"#utility.yul\":1705:1711   */\n      dup3\n        /* \"#utility.yul\":1694:1703   */\n      dup6\n        /* \"#utility.yul\":1690:1712   */\n      add\n        /* \"#utility.yul\":1669:1722   */\n      tag_116\n      jump\t// in\n    tag_128:\n        /* \"#utility.yul\":1659:1722   */\n      swap2\n      pop\n        /* \"#utility.yul\":1615:1732   */\n      pop\n        /* \"#utility.yul\":1410:1739   */\n      swap3\n      swap2\n      pop\n      pop\n      jump\t// out\n        /* \"#utility.yul\":1745:2724   */\n    tag_14:\n        /* \"#utility.yul\":1842:1848   */\n      0x00\n        /* \"#utility.yul\":1850:1856   */\n      dup1\n        /* \"#utility.yul\":1858:1864   */\n      0x00\n        /* \"#utility.yul\":1907:1909   */\n      0x60\n        /* \"#utility.yul\":1895:1904   */\n      dup5\n        /* \"#utility.yul\":1886:1893   */\n      dup7\n        /* \"#utility.yul\":1882:1905   */\n      sub\n        /* \"#utility.yul\":1878:1910   */\n      slt\n        /* \"#utility.yul\":1875:1994   */\n      iszero\n      tag_130\n      jumpi\n        /* \"#utility.yul\":1913:1992   */\n      tag_131\n      tag_123\n      jump\t// in\n    tag_131:\n        /* \"#utility.yul\":1875:1994   */\n    tag_130:\n        /* \"#utility.yul\":2033:2034   */\n      0x00\n        /* \"#utility.yul\":2058:2111   */\n      tag_132\n        /* \"#utility.yul\":2103:2110   */\n      dup7\n        /* \"#utility.yul\":2094:2100   */\n      dup3\n        /* \"#utility.yul\":2083:2092   */\n      dup8\n        /* \"#utility.yul\":2079:2101   */\n      add\n        /* \"#utility.yul\":2058:2111   */\n      tag_116\n      jump\t// in\n    tag_132:\n        /* \"#utility.yul\":2048:2111   */\n      swap4\n      pop\n        /* \"#utility.yul\":2004:2121   */\n      pop\n        /* \"#utility.yul\":2188:2190   */\n      0x20\n        /* \"#utility.yul\":2177:2186   */\n      dup5\n        /* \"#utility.yul\":2173:2191   */\n      add\n        /* \"#utility.yul\":2160:2192   */\n      calldataload\n        /* \"#utility.yul\":2219:2237   */\n      0xffffffffffffffff\n        /* \"#utility.yul\":2211:2217   */\n      dup2\n        /* \"#utility.yul\":2208:2238   */\n      gt\n        /* \"#utility.yul\":2205:2322   */\n      iszero\n      tag_133\n      jumpi\n        /* \"#utility.yul\":2241:2320   */\n      tag_134\n      tag_135\n      jump\t// in\n    tag_134:\n        /* \"#utility.yul\":2205:2322   */\n    tag_133:\n        /* \"#utility.yul\":2346:2409   */\n      tag_136\n        /* \"#utility.yul\":2401:2408   */\n      dup7\n        /* \"#utility.yul\":2392:2398   */\n      dup3\n        /* \"#utility.yul\":2381:2390   */\n      dup8\n        /* \"#utility.yul\":2377:2399   */\n      add\n        /* \"#utility.yul\":2346:2409   */\n      tag_110\n      jump\t// in\n    tag_136:\n        /* \"#utility.yul\":2336:2409   */\n      swap3\n      pop\n        /* \"#utility.yul\":2131:2419   */\n      pop\n        /* \"#utility.yul\":2486:2488   */\n      0x40\n        /* \"#utility.yul\":2475:2484   */\n      dup5\n        /* \"#utility.yul\":2471:2489   */\n      add\n        /* \"#utility.yul\":2458:2490   */\n      calldataload\n        /* \"#utility.yul\":2517:2535   */\n      0xffffffffffffffff\n        /* \"#utility.yul\":2509:2515   */\n      dup2\n        /* \"#utility.yul\":2506:2536   */\n      gt\n        /* \"#utility.yul\":2503:2620   */\n      iszero\n      tag_137\n      jumpi\n        /* \"#utility.yul\":2539:2618   */\n      tag_138\n      tag_135\n      jump\t// in\n    tag_138:\n        /* \"#utility.yul\":2503:2620   */\n    tag_137:\n        /* \"#utility.yul\":2644:2707   */\n      tag_139\n        /* \"#utility.yul\":2699:2706   */\n      dup7\n        /* \"#utility.yul\":2690:2696   */\n      dup3\n        /* \"#utility.yul\":2679:2688   */\n      dup8\n        /* \"#utility.yul\":2675:2697   */\n      add\n        /* \"#utility.yul\":2644:2707   */\n      tag_110\n      jump\t// in\n    tag_139:\n        /* \"#utility.yul\":2634:2707   */\n      swap2\n      pop\n        /* \"#utility.yul\":2429:2717   */\n      pop\n        /* \"#utility.yul\":1745:2724   */\n      swap3\n      pop\n      swap3\n      pop\n      swap3\n      jump\t// out\n        /* \"#utility.yul\":2730:2974   */\n    tag_140:\n        /* \"#utility.yul\":2843:2853   */\n      0x00\n        /* \"#utility.yul\":2878:2968   */\n      tag_142\n        /* \"#utility.yul\":2964:2967   */\n      dup4\n        /* \"#utility.yul\":2956:2962   */\n      dup4\n        /* \"#utility.yul\":2878:2968   */\n      tag_143\n      jump\t// in\n    tag_142:\n        /* \"#utility.yul\":2864:2968   */\n      swap1\n      pop\n        /* \"#utility.yul\":2730:2974   */\n      swap3\n      swap2\n      pop\n      pop\n      jump\t// out\n        /* \"#utility.yul\":3042:4129   */\n    tag_144:\n        /* \"#utility.yul\":3205:3208   */\n      0x00\n        /* \"#utility.yul\":3234:3310   */\n      tag_146\n        /* \"#utility.yul\":3304:3309   */\n      dup3\n        /* \"#utility.yul\":3234:3310   */\n      tag_147\n      jump\t// in\n    tag_146:\n        /* \"#utility.yul\":3326:3434   */\n      tag_148\n        /* \"#utility.yul\":3427:3433   */\n      dup2\n        /* \"#utility.yul\":3422:3425   */\n      dup6\n        /* \"#utility.yul\":3326:3434   */\n      tag_149\n      jump\t// in\n    tag_148:\n        /* \"#utility.yul\":3319:3434   */\n      swap4\n      pop\n        /* \"#utility.yul\":3460:3463   */\n      dup4\n        /* \"#utility.yul\":3505:3509   */\n      0x20\n        /* \"#utility.yul\":3497:3503   */\n      dup3\n        /* \"#utility.yul\":3493:3510   */\n      mul\n        /* \"#utility.yul\":3488:3491   */\n      dup6\n        /* \"#utility.yul\":3484:3511   */\n      add\n        /* \"#utility.yul\":3535:3613   */\n      tag_150\n        /* \"#utility.yul\":3607:3612   */\n      dup6\n        /* \"#utility.yul\":3535:3613   */\n      tag_151\n      jump\t// in\n    tag_150:\n        /* \"#utility.yul\":3636:3643   */\n      dup1\n        /* \"#utility.yul\":3667:3668   */\n      0x00\n        /* \"#utility.yul\":3652:4084   */\n    tag_152:\n        /* \"#utility.yul\":3677:3683   */\n      dup6\n        /* \"#utility.yul\":3674:3675   */\n      dup2\n        /* \"#utility.yul\":3671:3684   */\n      lt\n        /* \"#utility.yul\":3652:4084   */\n      iszero\n      tag_154\n      jumpi\n        /* \"#utility.yul\":3748:3757   */\n      dup5\n        /* \"#utility.yul\":3742:3746   */\n      dup5\n        /* \"#utility.yul\":3738:3758   */\n      sub\n        /* \"#utility.yul\":3733:3736   */\n      dup10\n        /* \"#utility.yul\":3726:3759   */\n      mstore\n        /* \"#utility.yul\":3799:3805   */\n      dup2\n        /* \"#utility.yul\":3793:3806   */\n      mload\n        /* \"#utility.yul\":3827:3935   */\n      tag_155\n        /* \"#utility.yul\":3930:3934   */\n      dup6\n        /* \"#utility.yul\":3915:3928   */\n      dup3\n        /* \"#utility.yul\":3827:3935   */\n      tag_140\n      jump\t// in\n    tag_155:\n        /* \"#utility.yul\":3819:3935   */\n      swap5\n      pop\n        /* \"#utility.yul\":3958:4040   */\n      tag_156\n        /* \"#utility.yul\":4033:4039   */\n      dup4\n        /* \"#utility.yul\":3958:4040   */\n      tag_157\n      jump\t// in\n    tag_156:\n        /* \"#utility.yul\":3948:4040   */\n      swap3\n      pop\n        /* \"#utility.yul\":4069:4073   */\n      0x20\n        /* \"#utility.yul\":4064:4067   */\n      dup11\n        /* \"#utility.yul\":4060:4074   */\n      add\n        /* \"#utility.yul\":4053:4074   */\n      swap10\n      pop\n        /* \"#utility.yul\":3712:4084   */\n      pop\n        /* \"#utility.yul\":3699:3700   */\n      0x01\n        /* \"#utility.yul\":3696:3697   */\n      dup2\n        /* \"#utility.yul\":3692:3701   */\n      add\n        /* \"#utility.yul\":3687:3701   */\n      swap1\n      pop\n        /* \"#utility.yul\":3652:4084   */\n      jump(tag_152)\n    tag_154:\n        /* \"#utility.yul\":3656:3670   */\n      pop\n        /* \"#utility.yul\":4100:4104   */\n      dup3\n        /* \"#utility.yul\":4093:4104   */\n      swap8\n      pop\n        /* \"#utility.yul\":4120:4123   */\n      dup8\n        /* \"#utility.yul\":4113:4123   */\n      swap6\n      pop\n        /* \"#utility.yul\":3210:4129   */\n      pop\n      pop\n      pop\n      pop\n      pop\n        /* \"#utility.yul\":3042:4129   */\n      swap3\n      swap2\n      pop\n      pop\n      jump\t// out\n        /* \"#utility.yul\":4135:4479   */\n    tag_158:\n        /* \"#utility.yul\":4213:4216   */\n      0x00\n        /* \"#utility.yul\":4241:4280   */\n      tag_160\n        /* \"#utility.yul\":4274:4279   */\n      dup3\n        /* \"#utility.yul\":4241:4280   */\n      tag_161\n      jump\t// in\n    tag_160:\n        /* \"#utility.yul\":4296:4357   */\n      tag_162\n        /* \"#utility.yul\":4350:4356   */\n      dup2\n        /* \"#utility.yul\":4345:4348   */\n      dup6\n        /* \"#utility.yul\":4296:4357   */\n      tag_163\n      jump\t// in\n    tag_162:\n        /* \"#utility.yul\":4289:4357   */\n      swap4\n      pop\n        /* \"#utility.yul\":4366:4418   */\n      tag_164\n        /* \"#utility.yul\":4411:4417   */\n      dup2\n        /* \"#utility.yul\":4406:4409   */\n      dup6\n        /* \"#utility.yul\":4399:4403   */\n      0x20\n        /* \"#utility.yul\":4392:4397   */\n      dup7\n        /* \"#utility.yul\":4388:4404   */\n      add\n        /* \"#utility.yul\":4366:4418   */\n      tag_165\n      jump\t// in\n    tag_164:\n        /* \"#utility.yul\":4443:4472   */\n      tag_166\n        /* \"#utility.yul\":4465:4471   */\n      dup2\n        /* \"#utility.yul\":4443:4472   */\n      tag_167\n      jump\t// in\n    tag_166:\n        /* \"#utility.yul\":4438:4441   */\n      dup5\n        /* \"#utility.yul\":4434:4473   */\n      add\n        /* \"#utility.yul\":4427:4473   */\n      swap2\n      pop\n        /* \"#utility.yul\":4217:4479   */\n      pop\n        /* \"#utility.yul\":4135:4479   */\n      swap3\n      swap2\n      pop\n      pop\n      jump\t// out\n        /* \"#utility.yul\":4485:4849   */\n    tag_168:\n        /* \"#utility.yul\":4573:4576   */\n      0x00\n        /* \"#utility.yul\":4601:4640   */\n      tag_170\n        /* \"#utility.yul\":4634:4639   */\n      dup3\n        /* \"#utility.yul\":4601:4640   */\n      tag_161\n      jump\t// in\n    tag_170:\n        /* \"#utility.yul\":4656:4727   */\n      tag_171\n        /* \"#utility.yul\":4720:4726   */\n      dup2\n        /* \"#utility.yul\":4715:4718   */\n      dup6\n        /* \"#utility.yul\":4656:4727   */\n      tag_172\n      jump\t// in\n    tag_171:\n        /* \"#utility.yul\":4649:4727   */\n      swap4\n      pop\n        /* \"#utility.yul\":4736:4788   */\n      tag_173\n        /* \"#utility.yul\":4781:4787   */\n      dup2\n        /* \"#utility.yul\":4776:4779   */\n      dup6\n        /* \"#utility.yul\":4769:4773   */\n      0x20\n        /* \"#utility.yul\":4762:4767   */\n      dup7\n        /* \"#utility.yul\":4758:4774   */\n      add\n        /* \"#utility.yul\":4736:4788   */\n      tag_165\n      jump\t// in\n    tag_173:\n        /* \"#utility.yul\":4813:4842   */\n      tag_174\n        /* \"#utility.yul\":4835:4841   */\n      dup2\n        /* \"#utility.yul\":4813:4842   */\n      tag_167\n      jump\t// in\n    tag_174:\n        /* \"#utility.yul\":4808:4811   */\n      dup5\n        /* \"#utility.yul\":4804:4843   */\n      add\n        /* \"#utility.yul\":4797:4843   */\n      swap2\n      pop\n        /* \"#utility.yul\":4577:4849   */\n      pop\n        /* \"#utility.yul\":4485:4849   */\n      swap3\n      swap2\n      pop\n      pop\n      jump\t// out\n        /* \"#utility.yul\":4913:5751   */\n    tag_143:\n        /* \"#utility.yul\":5016:5019   */\n      0x00\n        /* \"#utility.yul\":5052:5056   */\n      0x60\n        /* \"#utility.yul\":5047:5050   */\n      dup4\n        /* \"#utility.yul\":5043:5057   */\n      add\n        /* \"#utility.yul\":5137:5141   */\n      0x00\n        /* \"#utility.yul\":5130:5135   */\n      dup4\n        /* \"#utility.yul\":5126:5142   */\n      add\n        /* \"#utility.yul\":5120:5143   */\n      mload\n        /* \"#utility.yul\":5156:5219   */\n      tag_176\n        /* \"#utility.yul\":5213:5217   */\n      0x00\n        /* \"#utility.yul\":5208:5211   */\n      dup7\n        /* \"#utility.yul\":5204:5218   */\n      add\n        /* \"#utility.yul\":5190:5202   */\n      dup3\n        /* \"#utility.yul\":5156:5219   */\n      tag_177\n      jump\t// in\n    tag_176:\n        /* \"#utility.yul\":5067:5229   */\n      pop\n        /* \"#utility.yul\":5315:5319   */\n      0x20\n        /* \"#utility.yul\":5308:5313   */\n      dup4\n        /* \"#utility.yul\":5304:5320   */\n      add\n        /* \"#utility.yul\":5298:5321   */\n      mload\n        /* \"#utility.yul\":5368:5371   */\n      dup5\n        /* \"#utility.yul\":5362:5366   */\n      dup3\n        /* \"#utility.yul\":5358:5372   */\n      sub\n        /* \"#utility.yul\":5351:5355   */\n      0x20\n        /* \"#utility.yul\":5346:5349   */\n      dup7\n        /* \"#utility.yul\":5342:5356   */\n      add\n        /* \"#utility.yul\":5335:5373   */\n      mstore\n        /* \"#utility.yul\":5394:5467   */\n      tag_178\n        /* \"#utility.yul\":5462:5466   */\n      dup3\n        /* \"#utility.yul\":5448:5460   */\n      dup3\n        /* \"#utility.yul\":5394:5467   */\n      tag_158\n      jump\t// in\n    tag_178:\n        /* \"#utility.yul\":5386:5467   */\n      swap2\n      pop\n        /* \"#utility.yul\":5239:5478   */\n      pop\n        /* \"#utility.yul\":5561:5565   */\n      0x40\n        /* \"#utility.yul\":5554:5559   */\n      dup4\n        /* \"#utility.yul\":5550:5566   */\n      add\n        /* \"#utility.yul\":5544:5567   */\n      mload\n        /* \"#utility.yul\":5614:5617   */\n      dup5\n        /* \"#utility.yul\":5608:5612   */\n      dup3\n        /* \"#utility.yul\":5604:5618   */\n      sub\n        /* \"#utility.yul\":5597:5601   */\n      0x40\n        /* \"#utility.yul\":5592:5595   */\n      dup7\n        /* \"#utility.yul\":5588:5602   */\n      add\n        /* \"#utility.yul\":5581:5619   */\n      mstore\n        /* \"#utility.yul\":5640:5713   */\n      tag_179\n        /* \"#utility.yul\":5708:5712   */\n      dup3\n        /* \"#utility.yul\":5694:5706   */\n      dup3\n        /* \"#utility.yul\":5640:5713   */\n      tag_158\n      jump\t// in\n    tag_179:\n        /* \"#utility.yul\":5632:5713   */\n      swap2\n      pop\n        /* \"#utility.yul\":5488:5724   */\n      pop\n        /* \"#utility.yul\":5741:5745   */\n      dup1\n        /* \"#utility.yul\":5734:5745   */\n      swap2\n      pop\n        /* \"#utility.yul\":5021:5751   */\n      pop\n        /* \"#utility.yul\":4913:5751   */\n      swap3\n      swap2\n      pop\n      pop\n      jump\t// out\n        /* \"#utility.yul\":5757:5865   */\n    tag_177:\n        /* \"#utility.yul\":5834:5858   */\n      tag_181\n        /* \"#utility.yul\":5852:5857   */\n      dup2\n        /* \"#utility.yul\":5834:5858   */\n      tag_182\n      jump\t// in\n    tag_181:\n        /* \"#utility.yul\":5829:5832   */\n      dup3\n        /* \"#utility.yul\":5822:5859   */\n      mstore\n        /* \"#utility.yul\":5757:5865   */\n      pop\n      pop\n      jump\t// out\n        /* \"#utility.yul\":5871:5989   */\n    tag_183:\n        /* \"#utility.yul\":5958:5982   */\n      tag_185\n        /* \"#utility.yul\":5976:5981   */\n      dup2\n        /* \"#utility.yul\":5958:5982   */\n      tag_182\n      jump\t// in\n    tag_185:\n        /* \"#utility.yul\":5953:5956   */\n      dup3\n        /* \"#utility.yul\":5946:5983   */\n      mstore\n        /* \"#utility.yul\":5871:5989   */\n      pop\n      pop\n      jump\t// out\n        /* \"#utility.yul\":5995:6456   */\n    tag_21:\n        /* \"#utility.yul\":6182:6186   */\n      0x00\n        /* \"#utility.yul\":6220:6222   */\n      0x20\n        /* \"#utility.yul\":6209:6218   */\n      dup3\n        /* \"#utility.yul\":6205:6223   */\n      add\n        /* \"#utility.yul\":6197:6223   */\n      swap1\n      pop\n        /* \"#utility.yul\":6269:6278   */\n      dup2\n        /* \"#utility.yul\":6263:6267   */\n      dup2\n        /* \"#utility.yul\":6259:6279   */\n      sub\n        /* \"#utility.yul\":6255:6256   */\n      0x00\n        /* \"#utility.yul\":6244:6253   */\n      dup4\n        /* \"#utility.yul\":6240:6257   */\n      add\n        /* \"#utility.yul\":6233:6280   */\n      mstore\n        /* \"#utility.yul\":6297:6449   */\n      tag_187\n        /* \"#utility.yul\":6444:6448   */\n      dup2\n        /* \"#utility.yul\":6435:6441   */\n      dup5\n        /* \"#utility.yul\":6297:6449   */\n      tag_144\n      jump\t// in\n    tag_187:\n        /* \"#utility.yul\":6289:6449   */\n      swap1\n      pop\n        /* \"#utility.yul\":5995:6456   */\n      swap3\n      swap2\n      pop\n      pop\n      jump\t// out\n        /* \"#utility.yul\":6462:6885   */\n    tag_43:\n        /* \"#utility.yul\":6603:6607   */\n      0x00\n        /* \"#utility.yul\":6641:6643   */\n      0x40\n        /* \"#utility.yul\":6630:6639   */\n      dup3\n        /* \"#utility.yul\":6626:6644   */\n      add\n        /* \"#utility.yul\":6618:6644   */\n      swap1\n      pop\n        /* \"#utility.yul\":6654:6725   */\n      tag_189\n        /* \"#utility.yul\":6722:6723   */\n      0x00\n        /* \"#utility.yul\":6711:6720   */\n      dup4\n        /* \"#utility.yul\":6707:6724   */\n      add\n        /* \"#utility.yul\":6698:6704   */\n      dup6\n        /* \"#utility.yul\":6654:6725   */\n      tag_183\n      jump\t// in\n    tag_189:\n        /* \"#utility.yul\":6772:6781   */\n      dup2\n        /* \"#utility.yul\":6766:6770   */\n      dup2\n        /* \"#utility.yul\":6762:6782   */\n      sub\n        /* \"#utility.yul\":6757:6759   */\n      0x20\n        /* \"#utility.yul\":6746:6755   */\n      dup4\n        /* \"#utility.yul\":6742:6760   */\n      add\n        /* \"#utility.yul\":6735:6783   */\n      mstore\n        /* \"#utility.yul\":6800:6878   */\n      tag_190\n        /* \"#utility.yul\":6873:6877   */\n      dup2\n        /* \"#utility.yul\":6864:6870   */\n      dup5\n        /* \"#utility.yul\":6800:6878   */\n      tag_168\n      jump\t// in\n    tag_190:\n        /* \"#utility.yul\":6792:6878   */\n      swap1\n      pop\n        /* \"#utility.yul\":6462:6885   */\n      swap4\n      swap3\n      pop\n      pop\n      pop\n      jump\t// out\n        /* \"#utility.yul\":6891:7515   */\n    tag_11:\n        /* \"#utility.yul\":7080:7084   */\n      0x00\n        /* \"#utility.yul\":7118:7120   */\n      0x60\n        /* \"#utility.yul\":7107:7116   */\n      dup3\n        /* \"#utility.yul\":7103:7121   */\n      add\n        /* \"#utility.yul\":7095:7121   */\n      swap1\n      pop\n        /* \"#utility.yul\":7131:7202   */\n      tag_192\n        /* \"#utility.yul\":7199:7200   */\n      0x00\n        /* \"#utility.yul\":7188:7197   */\n      dup4\n        /* \"#utility.yul\":7184:7201   */\n      add\n        /* \"#utility.yul\":7175:7181   */\n      dup7\n        /* \"#utility.yul\":7131:7202   */\n      tag_183\n      jump\t// in\n    tag_192:\n        /* \"#utility.yul\":7249:7258   */\n      dup2\n        /* \"#utility.yul\":7243:7247   */\n      dup2\n        /* \"#utility.yul\":7239:7259   */\n      sub\n        /* \"#utility.yul\":7234:7236   */\n      0x20\n        /* \"#utility.yul\":7223:7232   */\n      dup4\n        /* \"#utility.yul\":7219:7237   */\n      add\n        /* \"#utility.yul\":7212:7260   */\n      mstore\n        /* \"#utility.yul\":7277:7355   */\n      tag_193\n        /* \"#utility.yul\":7350:7354   */\n      dup2\n        /* \"#utility.yul\":7341:7347   */\n      dup6\n        /* \"#utility.yul\":7277:7355   */\n      tag_168\n      jump\t// in\n    tag_193:\n        /* \"#utility.yul\":7269:7355   */\n      swap1\n      pop\n        /* \"#utility.yul\":7402:7411   */\n      dup2\n        /* \"#utility.yul\":7396:7400   */\n      dup2\n        /* \"#utility.yul\":7392:7412   */\n      sub\n        /* \"#utility.yul\":7387:7389   */\n      0x40\n        /* \"#utility.yul\":7376:7385   */\n      dup4\n        /* \"#utility.yul\":7372:7390   */\n      add\n        /* \"#utility.yul\":7365:7413   */\n      mstore\n        /* \"#utility.yul\":7430:7508   */\n      tag_194\n        /* \"#utility.yul\":7503:7507   */\n      dup2\n        /* \"#utility.yul\":7494:7500   */\n      dup5\n        /* \"#utility.yul\":7430:7508   */\n      tag_168\n      jump\t// in\n    tag_194:\n        /* \"#utility.yul\":7422:7508   */\n      swap1\n      pop\n        /* \"#utility.yul\":6891:7515   */\n      swap5\n      swap4\n      pop\n      pop\n      pop\n      pop\n      jump\t// out\n        /* \"#utility.yul\":7521:7650   */\n    tag_100:\n        /* \"#utility.yul\":7555:7561   */\n      0x00\n        /* \"#utility.yul\":7582:7602   */\n      tag_196\n      tag_197\n      jump\t// in\n    tag_196:\n        /* \"#utility.yul\":7572:7602   */\n      swap1\n      pop\n        /* \"#utility.yul\":7611:7644   */\n      tag_198\n        /* \"#utility.yul\":7639:7643   */\n      dup3\n        /* \"#utility.yul\":7631:7637   */\n      dup3\n        /* \"#utility.yul\":7611:7644   */\n      tag_199\n      jump\t// in\n    tag_198:\n        /* \"#utility.yul\":7521:7650   */\n      swap2\n      swap1\n      pop\n      jump\t// out\n        /* \"#utility.yul\":7656:7731   */\n    tag_197:\n        /* \"#utility.yul\":7689:7695   */\n      0x00\n        /* \"#utility.yul\":7722:7724   */\n      0x40\n        /* \"#utility.yul\":7716:7725   */\n      mload\n        /* \"#utility.yul\":7706:7725   */\n      swap1\n      pop\n        /* \"#utility.yul\":7656:7731   */\n      swap1\n      jump\t// out\n        /* \"#utility.yul\":7737:8045   */\n    tag_99:\n        /* \"#utility.yul\":7799:7803   */\n      0x00\n        /* \"#utility.yul\":7889:7907   */\n      0xffffffffffffffff\n        /* \"#utility.yul\":7881:7887   */\n      dup3\n        /* \"#utility.yul\":7878:7908   */\n      gt\n        /* \"#utility.yul\":7875:7931   */\n      iszero\n      tag_202\n      jumpi\n        /* \"#utility.yul\":7911:7929   */\n      tag_203\n      tag_204\n      jump\t// in\n    tag_203:\n        /* \"#utility.yul\":7875:7931   */\n    tag_202:\n        /* \"#utility.yul\":7949:7978   */\n      tag_205\n        /* \"#utility.yul\":7971:7977   */\n      dup3\n        /* \"#utility.yul\":7949:7978   */\n      tag_167\n      jump\t// in\n    tag_205:\n        /* \"#utility.yul\":7941:7978   */\n      swap1\n      pop\n        /* \"#utility.yul\":8033:8037   */\n      0x20\n        /* \"#utility.yul\":8027:8031   */\n      dup2\n        /* \"#utility.yul\":8023:8038   */\n      add\n        /* \"#utility.yul\":8015:8038   */\n      swap1\n      pop\n        /* \"#utility.yul\":7737:8045   */\n      swap2\n      swap1\n      pop\n      jump\t// out\n        /* \"#utility.yul\":8051:8205   */\n    tag_151:\n        /* \"#utility.yul\":8140:8144   */\n      0x00\n        /* \"#utility.yul\":8163:8166   */\n      dup2\n        /* \"#utility.yul\":8155:8166   */\n      swap1\n      pop\n        /* \"#utility.yul\":8193:8197   */\n      0x20\n        /* \"#utility.yul\":8188:8191   */\n      dup3\n        /* \"#utility.yul\":8184:8198   */\n      add\n        /* \"#utility.yul\":8176:8198   */\n      swap1\n      pop\n        /* \"#utility.yul\":8051:8205   */\n      swap2\n      swap1\n      pop\n      jump\t// out\n        /* \"#utility.yul\":8211:8347   */\n    tag_147:\n        /* \"#utility.yul\":8300:8306   */\n      0x00\n        /* \"#utility.yul\":8334:8339   */\n      dup2\n        /* \"#utility.yul\":8328:8340   */\n      mload\n        /* \"#utility.yul\":8318:8340   */\n      swap1\n      pop\n        /* \"#utility.yul\":8211:8347   */\n      swap2\n      swap1\n      pop\n      jump\t// out\n        /* \"#utility.yul\":8353:8452   */\n    tag_161:\n        /* \"#utility.yul\":8405:8411   */\n      0x00\n        /* \"#utility.yul\":8439:8444   */\n      dup2\n        /* \"#utility.yul\":8433:8445   */\n      mload\n        /* \"#utility.yul\":8423:8445   */\n      swap1\n      pop\n        /* \"#utility.yul\":8353:8452   */\n      swap2\n      swap1\n      pop\n      jump\t// out\n        /* \"#utility.yul\":8458:8593   */\n    tag_157:\n        /* \"#utility.yul\":8550:8554   */\n      0x00\n        /* \"#utility.yul\":8582:8586   */\n      0x20\n        /* \"#utility.yul\":8577:8580   */\n      dup3\n        /* \"#utility.yul\":8573:8587   */\n      add\n        /* \"#utility.yul\":8565:8587   */\n      swap1\n      pop\n        /* \"#utility.yul\":8458:8593   */\n      swap2\n      swap1\n      pop\n      jump\t// out\n        /* \"#utility.yul\":8599:8805   */\n    tag_149:\n        /* \"#utility.yul\":8720:8731   */\n      0x00\n        /* \"#utility.yul\":8754:8760   */\n      dup3\n        /* \"#utility.yul\":8749:8752   */\n      dup3\n        /* \"#utility.yul\":8742:8761   */\n      mstore\n        /* \"#utility.yul\":8794:8798   */\n      0x20\n        /* \"#utility.yul\":8789:8792   */\n      dup3\n        /* \"#utility.yul\":8785:8799   */\n      add\n        /* \"#utility.yul\":8770:8799   */\n      swap1\n      pop\n        /* \"#utility.yul\":8599:8805   */\n      swap3\n      swap2\n      pop\n      pop\n      jump\t// out\n        /* \"#utility.yul\":8811:8970   */\n    tag_163:\n        /* \"#utility.yul\":8885:8896   */\n      0x00\n        /* \"#utility.yul\":8919:8925   */\n      dup3\n        /* \"#utility.yul\":8914:8917   */\n      dup3\n        /* \"#utility.yul\":8907:8926   */\n      mstore\n        /* \"#utility.yul\":8959:8963   */\n      0x20\n        /* \"#utility.yul\":8954:8957   */\n      dup3\n        /* \"#utility.yul\":8950:8964   */\n      add\n        /* \"#utility.yul\":8935:8964   */\n      swap1\n      pop\n        /* \"#utility.yul\":8811:8970   */\n      swap3\n      swap2\n      pop\n      pop\n      jump\t// out\n        /* \"#utility.yul\":8976:9145   */\n    tag_172:\n        /* \"#utility.yul\":9060:9071   */\n      0x00\n        /* \"#utility.yul\":9094:9100   */\n      dup3\n        /* \"#utility.yul\":9089:9092   */\n      dup3\n        /* \"#utility.yul\":9082:9101   */\n      mstore\n        /* \"#utility.yul\":9134:9138   */\n      0x20\n        /* \"#utility.yul\":9129:9132   */\n      dup3\n        /* \"#utility.yul\":9125:9139   */\n      add\n        /* \"#utility.yul\":9110:9139   */\n      swap1\n      pop\n        /* \"#utility.yul\":8976:9145   */\n      swap3\n      swap2\n      pop\n      pop\n      jump\t// out\n        /* \"#utility.yul\":9151:9247   */\n    tag_213:\n        /* \"#utility.yul\":9188:9195   */\n      0x00\n        /* \"#utility.yul\":9217:9241   */\n      tag_215\n        /* \"#utility.yul\":9235:9240   */\n      dup3\n        /* \"#utility.yul\":9217:9241   */\n      tag_216\n      jump\t// in\n    tag_215:\n        /* \"#utility.yul\":9206:9241   */\n      swap1\n      pop\n        /* \"#utility.yul\":9151:9247   */\n      swap2\n      swap1\n      pop\n      jump\t// out\n        /* \"#utility.yul\":9253:9379   */\n    tag_216:\n        /* \"#utility.yul\":9290:9297   */\n      0x00\n        /* \"#utility.yul\":9330:9372   */\n      0xffffffffffffffffffffffffffffffffffffffff\n        /* \"#utility.yul\":9323:9328   */\n      dup3\n        /* \"#utility.yul\":9319:9373   */\n      and\n        /* \"#utility.yul\":9308:9373   */\n      swap1\n      pop\n        /* \"#utility.yul\":9253:9379   */\n      swap2\n      swap1\n      pop\n      jump\t// out\n        /* \"#utility.yul\":9385:9462   */\n    tag_182:\n        /* \"#utility.yul\":9422:9429   */\n      0x00\n        /* \"#utility.yul\":9451:9456   */\n      dup2\n        /* \"#utility.yul\":9440:9456   */\n      swap1\n      pop\n        /* \"#utility.yul\":9385:9462   */\n      swap2\n      swap1\n      pop\n      jump\t// out\n        /* \"#utility.yul\":9468:9622   */\n    tag_105:\n        /* \"#utility.yul\":9552:9558   */\n      dup3\n        /* \"#utility.yul\":9547:9550   */\n      dup2\n        /* \"#utility.yul\":9542:9545   */\n      dup4\n        /* \"#utility.yul\":9529:9559   */\n      calldatacopy\n        /* \"#utility.yul\":9614:9615   */\n      0x00\n        /* \"#utility.yul\":9605:9611   */\n      dup4\n        /* \"#utility.yul\":9600:9603   */\n      dup4\n        /* \"#utility.yul\":9596:9612   */\n      add\n        /* \"#utility.yul\":9589:9616   */\n      mstore\n        /* \"#utility.yul\":9468:9622   */\n      pop\n      pop\n      pop\n      jump\t// out\n        /* \"#utility.yul\":9628:9935   */\n    tag_165:\n        /* \"#utility.yul\":9696:9697   */\n      0x00\n        /* \"#utility.yul\":9706:9819   */\n    tag_221:\n        /* \"#utility.yul\":9720:9726   */\n      dup4\n        /* \"#utility.yul\":9717:9718   */\n      dup2\n        /* \"#utility.yul\":9714:9727   */\n      lt\n        /* \"#utility.yul\":9706:9819   */\n      iszero\n      tag_223\n      jumpi\n        /* \"#utility.yul\":9805:9806   */\n      dup1\n        /* \"#utility.yul\":9800:9803   */\n      dup3\n        /* \"#utility.yul\":9796:9807   */\n      add\n        /* \"#utility.yul\":9790:9808   */\n      mload\n        /* \"#utility.yul\":9786:9787   */\n      dup2\n        /* \"#utility.yul\":9781:9784   */\n      dup5\n        /* \"#utility.yul\":9777:9788   */\n      add\n        /* \"#utility.yul\":9770:9809   */\n      mstore\n        /* \"#utility.yul\":9742:9744   */\n      0x20\n        /* \"#utility.yul\":9739:9740   */\n      dup2\n        /* \"#utility.yul\":9735:9745   */\n      add\n        /* \"#utility.yul\":9730:9745   */\n      swap1\n      pop\n        /* \"#utility.yul\":9706:9819   */\n      jump(tag_221)\n    tag_223:\n        /* \"#utility.yul\":9837:9843   */\n      dup4\n        /* \"#utility.yul\":9834:9835   */\n      dup2\n        /* \"#utility.yul\":9831:9844   */\n      gt\n        /* \"#utility.yul\":9828:9929   */\n      iszero\n      tag_224\n      jumpi\n        /* \"#utility.yul\":9917:9918   */\n      0x00\n        /* \"#utility.yul\":9908:9914   */\n      dup5\n        /* \"#utility.yul\":9903:9906   */\n      dup5\n        /* \"#utility.yul\":9899:9915   */\n      add\n        /* \"#utility.yul\":9892:9919   */\n      mstore\n        /* \"#utility.yul\":9828:9929   */\n    tag_224:\n        /* \"#utility.yul\":9677:9935   */\n      pop\n        /* \"#utility.yul\":9628:9935   */\n      pop\n      pop\n      pop\n      jump\t// out\n        /* \"#utility.yul\":9941:10261   */\n    tag_25:\n        /* \"#utility.yul\":9985:9991   */\n      0x00\n        /* \"#utility.yul\":10022:10023   */\n      0x02\n        /* \"#utility.yul\":10016:10020   */\n      dup3\n        /* \"#utility.yul\":10012:10024   */\n      div\n        /* \"#utility.yul\":10002:10024   */\n      swap1\n      pop\n        /* \"#utility.yul\":10069:10070   */\n      0x01\n        /* \"#utility.yul\":10063:10067   */\n      dup3\n        /* \"#utility.yul\":10059:10071   */\n      and\n        /* \"#utility.yul\":10090:10108   */\n      dup1\n        /* \"#utility.yul\":10080:10161   */\n      tag_226\n      jumpi\n        /* \"#utility.yul\":10146:10150   */\n      0x7f\n        /* \"#utility.yul\":10138:10144   */\n      dup3\n        /* \"#utility.yul\":10134:10151   */\n      and\n        /* \"#utility.yul\":10124:10151   */\n      swap2\n      pop\n        /* \"#utility.yul\":10080:10161   */\n    tag_226:\n        /* \"#utility.yul\":10208:10210   */\n      0x20\n        /* \"#utility.yul\":10200:10206   */\n      dup3\n        /* \"#utility.yul\":10197:10211   */\n      lt\n        /* \"#utility.yul\":10177:10195   */\n      dup2\n        /* \"#utility.yul\":10174:10212   */\n      eq\n        /* \"#utility.yul\":10171:10255   */\n      iszero\n      tag_227\n      jumpi\n        /* \"#utility.yul\":10227:10245   */\n      tag_228\n      tag_229\n      jump\t// in\n    tag_228:\n        /* \"#utility.yul\":10171:10255   */\n    tag_227:\n        /* \"#utility.yul\":9992:10261   */\n      pop\n        /* \"#utility.yul\":9941:10261   */\n      swap2\n      swap1\n      pop\n      jump\t// out\n        /* \"#utility.yul\":10267:10548   */\n    tag_199:\n        /* \"#utility.yul\":10350:10377   */\n      tag_231\n        /* \"#utility.yul\":10372:10376   */\n      dup3\n        /* \"#utility.yul\":10350:10377   */\n      tag_167\n      jump\t// in\n    tag_231:\n        /* \"#utility.yul\":10342:10348   */\n      dup2\n        /* \"#utility.yul\":10338:10378   */\n      add\n        /* \"#utility.yul\":10480:10486   */\n      dup2\n        /* \"#utility.yul\":10468:10478   */\n      dup2\n        /* \"#utility.yul\":10465:10487   */\n      lt\n        /* \"#utility.yul\":10444:10462   */\n      0xffffffffffffffff\n        /* \"#utility.yul\":10432:10442   */\n      dup3\n        /* \"#utility.yul\":10429:10463   */\n      gt\n        /* \"#utility.yul\":10426:10488   */\n      or\n        /* \"#utility.yul\":10423:10511   */\n      iszero\n      tag_232\n      jumpi\n        /* \"#utility.yul\":10491:10509   */\n      tag_233\n      tag_204\n      jump\t// in\n    tag_233:\n        /* \"#utility.yul\":10423:10511   */\n    tag_232:\n        /* \"#utility.yul\":10531:10541   */\n      dup1\n        /* \"#utility.yul\":10527:10529   */\n      0x40\n        /* \"#utility.yul\":10520:10542   */\n      mstore\n        /* \"#utility.yul\":10310:10548   */\n      pop\n        /* \"#utility.yul\":10267:10548   */\n      pop\n      pop\n      jump\t// out\n        /* \"#utility.yul\":10554:10734   */\n    tag_229:\n        /* \"#utility.yul\":10602:10679   */\n      0x4e487b7100000000000000000000000000000000000000000000000000000000\n        /* \"#utility.yul\":10599:10600   */\n      0x00\n        /* \"#utility.yul\":10592:10680   */\n      mstore\n        /* \"#utility.yul\":10699:10703   */\n      0x22\n        /* \"#utility.yul\":10696:10697   */\n      0x04\n        /* \"#utility.yul\":10689:10704   */\n      mstore\n        /* \"#utility.yul\":10723:10727   */\n      0x24\n        /* \"#utility.yul\":10720:10721   */\n      0x00\n        /* \"#utility.yul\":10713:10728   */\n      revert\n        /* \"#utility.yul\":10740:10920   */\n    tag_204:\n        /* \"#utility.yul\":10788:10865   */\n      0x4e487b7100000000000000000000000000000000000000000000000000000000\n        /* \"#utility.yul\":10785:10786   */\n      0x00\n        /* \"#utility.yul\":10778:10866   */\n      mstore\n        /* \"#utility.yul\":10885:10889   */\n      0x41\n        /* \"#utility.yul\":10882:10883   */\n      0x04\n        /* \"#utility.yul\":10875:10890   */\n      mstore\n        /* \"#utility.yul\":10909:10913   */\n      0x24\n        /* \"#utility.yul\":10906:10907   */\n      0x00\n        /* \"#utility.yul\":10899:10914   */\n      revert\n        /* \"#utility.yul\":10926:11043   */\n    tag_114:\n        /* \"#utility.yul\":11035:11036   */\n      0x00\n        /* \"#utility.yul\":11032:11033   */\n      dup1\n        /* \"#utility.yul\":11025:11037   */\n      revert\n        /* \"#utility.yul\":11049:11166   */\n    tag_103:\n        /* \"#utility.yul\":11158:11159   */\n      0x00\n        /* \"#utility.yul\":11155:11156   */\n      dup1\n        /* \"#utility.yul\":11148:11160   */\n      revert\n        /* \"#utility.yul\":11172:11289   */\n    tag_135:\n        /* \"#utility.yul\":11281:11282   */\n      0x00\n        /* \"#utility.yul\":11278:11279   */\n      dup1\n        /* \"#utility.yul\":11271:11283   */\n      revert\n        /* \"#utility.yul\":11295:11412   */\n    tag_123:\n        /* \"#utility.yul\":11404:11405   */\n      0x00\n        /* \"#utility.yul\":11401:11402   */\n      dup1\n        /* \"#utility.yul\":11394:11406   */\n      revert\n        /* \"#utility.yul\":11418:11520   */\n    tag_167:\n        /* \"#utility.yul\":11459:11465   */\n      0x00\n        /* \"#utility.yul\":11510:11512   */\n      0x1f\n        /* \"#utility.yul\":11506:11513   */\n      not\n        /* \"#utility.yul\":11501:11503   */\n      0x1f\n        /* \"#utility.yul\":11494:11499   */\n      dup4\n        /* \"#utility.yul\":11490:11504   */\n      add\n        /* \"#utility.yul\":11486:11514   */\n      and\n        /* \"#utility.yul\":11476:11514   */\n      swap1\n      pop\n        /* \"#utility.yul\":11418:11520   */\n      swap2\n      swap1\n      pop\n      jump\t// out\n        /* \"#utility.yul\":11526:11648   */\n    tag_109:\n        /* \"#utility.yul\":11599:11623   */\n      tag_242\n        /* \"#utility.yul\":11617:11622   */\n      dup2\n        /* \"#utility.yul\":11599:11623   */\n      tag_213\n      jump\t// in\n    tag_242:\n        /* \"#utility.yul\":11592:11597   */\n      dup2\n        /* \"#utility.yul\":11589:11624   */\n      eq\n        /* \"#utility.yul\":11579:11642   */\n      tag_243\n      jumpi\n        /* \"#utility.yul\":11638:11639   */\n      0x00\n        /* \"#utility.yul\":11635:11636   */\n      dup1\n        /* \"#utility.yul\":11628:11640   */\n      revert\n        /* \"#utility.yul\":11579:11642   */\n    tag_243:\n        /* \"#utility.yul\":11526:11648   */\n      pop\n      jump\t// out\n        /* \"#utility.yul\":11654:11776   */\n    tag_119:\n        /* \"#utility.yul\":11727:11751   */\n      tag_245\n        /* \"#utility.yul\":11745:11750   */\n      dup2\n        /* \"#utility.yul\":11727:11751   */\n      tag_182\n      jump\t// in\n    tag_245:\n        /* \"#utility.yul\":11720:11725   */\n      dup2\n        /* \"#utility.yul\":11717:11752   */\n      eq\n        /* \"#utility.yul\":11707:11770   */\n      tag_246\n      jumpi\n        /* \"#utility.yul\":11766:11767   */\n      0x00\n        /* \"#utility.yul\":11763:11764   */\n      dup1\n        /* \"#utility.yul\":11756:11768   */\n      revert\n        /* \"#utility.yul\":11707:11770   */\n    tag_246:\n        /* \"#utility.yul\":11654:11776   */\n      pop\n      jump\t// out\n\n    auxdata: 0xa2646970667358221220f2a864ae46b4bea1b0bd811a0b52e57d2f2c4d7d76696949af26821e11b7492864736f6c63430008070033\n}\n",
				"bytecode": {
					"linkReferences": {},
					"object": "608060405234801561001057600080fd5b50610d4f806100206000396000f3fe608060405234801561001057600080fd5b50600436106100415760003560e01c8063bc8bc2b414610046578063e83ebd3214610078578063f9324d3c14610094575b600080fd5b610060600480360381019061005b919061080c565b6100c4565b60405161006f93929190610a86565b60405180910390f35b610092600480360381019061008d9190610839565b61020e565b005b6100ae60048036038101906100a991906107df565b610328565b6040516100bb9190610a34565b60405180910390f35b600081815481106100d457600080fd5b90600052602060002090600302016000915090508060000154908060010180546100fd90610c05565b80601f016020809104026020016040519081016040528092919081815260200182805461012990610c05565b80156101765780601f1061014b57610100808354040283529160200191610176565b820191906000526020600020905b81548152906001019060200180831161015957829003601f168201915b50505050509080600201805461018b90610c05565b80601f01602080910402602001604051908101604052809291908181526020018280546101b790610c05565b80156102045780601f106101d957610100808354040283529160200191610204565b820191906000526020600020905b8154815290600101906020018083116101e757829003601f168201915b5050505050905083565b6000604051806060016040528085815260200184815260200183815250908060018154018082558091505060019003906000526020600020906003020160009091909190915060008201518160000155602082015181600101908051906020019061027a9291906104f4565b5060408201518160020190805190602001906102979291906104f4565b5050506000600160003373ffffffffffffffffffffffffffffffffffffffff1673ffffffffffffffffffffffffffffffffffffffff1681526020019081526020016000209080546102e992919061057a565b507f3c981eaf8f806637941d1237961055d66e8636b71bc453db0c9e245a154760fd838360405161031b929190610a56565b60405180910390a1505050565b6060600160008373ffffffffffffffffffffffffffffffffffffffff1673ffffffffffffffffffffffffffffffffffffffff168152602001908152602001600020805480602002602001604051908101604052809291908181526020016000905b828210156104e95783829060005260206000209060030201604051806060016040529081600082015481526020016001820180546103c690610c05565b80601f01602080910402602001604051908101604052809291908181526020018280546103f290610c05565b801561043f5780601f106104145761010080835404028352916020019161043f565b820191906000526020600020905b81548152906001019060200180831161042257829003601f168201915b5050505050815260200160028201805461045890610c05565b80601f016020809104026020016040519081016040528092919081815260200182805461048490610c05565b80156104d15780601f106104a6576101008083540402835291602001916104d1565b820191906000526020600020905b8154815290600101906020018083116104b457829003601f168201915b50505050508152505081526020019060010190610389565b505050509050919050565b82805461050090610c05565b90600052602060002090601f0160209004810192826105225760008555610569565b82601f1061053b57805160ff1916838001178555610569565b82800160010185558215610569579182015b8281111561056857825182559160200191906001019061054d565b5b509050610576919061061c565b5090565b82805482825590600052602060002090600302810192821561060b5760005260206000209160030282015b8281111561060a5782826000820154816000015560018201816001019080546105cd90610c05565b6105d8929190610639565b5060028201816002019080546105ed90610c05565b6105f8929190610639565b505050916003019190600301906105a5565b5b50905061061891906106c6565b5090565b5b8082111561063557600081600090555060010161061d565b5090565b82805461064590610c05565b90600052602060002090601f01602090048101928261066757600085556106b5565b82601f1061067857805485556106b5565b828001600101855582156106b557600052602060002091601f016020900482015b828111156106b4578254825591600101919060010190610699565b5b5090506106c2919061061c565b5090565b5b80821115610701576000808201600090556001820160006106e89190610705565b6002820160006106f89190610705565b506003016106c7565b5090565b50805461071190610c05565b6000825580601f106107235750610742565b601f016020900490600052602060002090810190610741919061061c565b5b50565b600061075861075384610af0565b610acb565b90508281526020810184848401111561077457610773610ccb565b5b61077f848285610bc3565b509392505050565b60008135905061079681610ceb565b92915050565b600082601f8301126107b1576107b0610cc6565b5b81356107c1848260208601610745565b91505092915050565b6000813590506107d981610d02565b92915050565b6000602082840312156107f5576107f4610cd5565b5b600061080384828501610787565b91505092915050565b60006020828403121561082257610821610cd5565b5b6000610830848285016107ca565b91505092915050565b60008060006060848603121561085257610851610cd5565b5b6000610860868287016107ca565b935050602084013567ffffffffffffffff81111561088157610880610cd0565b5b61088d8682870161079c565b925050604084013567ffffffffffffffff8111156108ae576108ad610cd0565b5b6108ba8682870161079c565b9150509250925092565b60006108d083836109bf565b905092915050565b60006108e382610b31565b6108ed8185610b54565b9350836020820285016108ff85610b21565b8060005b8581101561093b578484038952815161091c85826108c4565b945061092783610b47565b925060208a01995050600181019050610903565b50829750879550505050505092915050565b600061095882610b3c565b6109628185610b65565b9350610972818560208601610bd2565b61097b81610cda565b840191505092915050565b600061099182610b3c565b61099b8185610b76565b93506109ab818560208601610bd2565b6109b481610cda565b840191505092915050565b60006060830160008301516109d76000860182610a16565b50602083015184820360208601526109ef828261094d565b91505060408301518482036040860152610a09828261094d565b9150508091505092915050565b610a1f81610bb9565b82525050565b610a2e81610bb9565b82525050565b60006020820190508181036000830152610a4e81846108d8565b905092915050565b6000604082019050610a6b6000830185610a25565b8181036020830152610a7d8184610986565b90509392505050565b6000606082019050610a9b6000830186610a25565b8181036020830152610aad8185610986565b90508181036040830152610ac18184610986565b9050949350505050565b6000610ad5610ae6565b9050610ae18282610c37565b919050565b6000604051905090565b600067ffffffffffffffff821115610b0b57610b0a610c97565b5b610b1482610cda565b9050602081019050919050565b6000819050602082019050919050565b600081519050919050565b600081519050919050565b6000602082019050919050565b600082825260208201905092915050565b600082825260208201905092915050565b600082825260208201905092915050565b6000610b9282610b99565b9050919050565b600073ffffffffffffffffffffffffffffffffffffffff82169050919050565b6000819050919050565b82818337600083830152505050565b60005b83811015610bf0578082015181840152602081019050610bd5565b83811115610bff576000848401525b50505050565b60006002820490506001821680610c1d57607f821691505b60208210811415610c3157610c30610c68565b5b50919050565b610c4082610cda565b810181811067ffffffffffffffff82111715610c5f57610c5e610c97565b5b80604052505050565b7f4e487b7100000000000000000000000000000000000000000000000000000000600052602260045260246000fd5b7f4e487b7100000000000000000000000000000000000000000000000000000000600052604160045260246000fd5b600080fd5b600080fd5b600080fd5b600080fd5b6000601f19601f8301169050919050565b610cf481610b87565b8114610cff57600080fd5b50565b610d0b81610bb9565b8114610d1657600080fd5b5056fea2646970667358221220f2a864ae46b4bea1b0bd811a0b52e57d2f2c4d7d76696949af26821e11b7492864736f6c63430008070033",
					"opcodes": "PUSH1 0x80 PUSH1 0x40 MSTORE CALLVALUE DUP1 ISZERO PUSH2 0x10 JUMPI PUSH1 0x0 DUP1 REVERT JUMPDEST POP PUSH2 0xD4F DUP1 PUSH2 0x20 PUSH1 0x0 CODECOPY PUSH1 0x0 RETURN INVALID PUSH1 0x80 PUSH1 0x40 MSTORE CALLVALUE DUP1 ISZERO PUSH2 0x10 JUMPI PUSH1 0x0 DUP1 REVERT JUMPDEST POP PUSH1 0x4 CALLDATASIZE LT PUSH2 0x41 JUMPI PUSH1 0x0 CALLDATALOAD PUSH1 0xE0 SHR DUP1 PUSH4 0xBC8BC2B4 EQ PUSH2 0x46 JUMPI DUP1 PUSH4 0xE83EBD32 EQ PUSH2 0x78 JUMPI DUP1 PUSH4 0xF9324D3C EQ PUSH2 0x94 JUMPI JUMPDEST PUSH1 0x0 DUP1 REVERT JUMPDEST PUSH2 0x60 PUSH1 0x4 DUP1 CALLDATASIZE SUB DUP2 ADD SWAP1 PUSH2 0x5B SWAP2 SWAP1 PUSH2 0x80C JUMP JUMPDEST PUSH2 0xC4 JUMP JUMPDEST PUSH1 0x40 MLOAD PUSH2 0x6F SWAP4 SWAP3 SWAP2 SWAP1 PUSH2 0xA86 JUMP JUMPDEST PUSH1 0x40 MLOAD DUP1 SWAP2 SUB SWAP1 RETURN JUMPDEST PUSH2 0x92 PUSH1 0x4 DUP1 CALLDATASIZE SUB DUP2 ADD SWAP1 PUSH2 0x8D SWAP2 SWAP1 PUSH2 0x839 JUMP JUMPDEST PUSH2 0x20E JUMP JUMPDEST STOP JUMPDEST PUSH2 0xAE PUSH1 0x4 DUP1 CALLDATASIZE SUB DUP2 ADD SWAP1 PUSH2 0xA9 SWAP2 SWAP1 PUSH2 0x7DF JUMP JUMPDEST PUSH2 0x328 JUMP JUMPDEST PUSH1 0x40 MLOAD PUSH2 0xBB SWAP2 SWAP1 PUSH2 0xA34 JUMP JUMPDEST PUSH1 0x40 MLOAD DUP1 SWAP2 SUB SWAP1 RETURN JUMPDEST PUSH1 0x0 DUP2 DUP2 SLOAD DUP2 LT PUSH2 0xD4 JUMPI PUSH1 0x0 DUP1 REVERT JUMPDEST SWAP1 PUSH1 0x0 MSTORE PUSH1 0x20 PUSH1 0x0 KECCAK256 SWAP1 PUSH1 0x3 MUL ADD PUSH1 0x0 SWAP2 POP SWAP1 POP DUP1 PUSH1 0x0 ADD SLOAD SWAP1 DUP1 PUSH1 0x1 ADD DUP1 SLOAD PUSH2 0xFD SWAP1 PUSH2 0xC05 JUMP JUMPDEST DUP1 PUSH1 0x1F ADD PUSH1 0x20 DUP1 SWAP2 DIV MUL PUSH1 0x20 ADD PUSH1 0x40 MLOAD SWAP1 DUP2 ADD PUSH1 0x40 MSTORE DUP1 SWAP3 SWAP2 SWAP1 DUP2 DUP2 MSTORE PUSH1 0x20 ADD DUP3 DUP1 SLOAD PUSH2 0x129 SWAP1 PUSH2 0xC05 JUMP JUMPDEST DUP1 ISZERO PUSH2 0x176 JUMPI DUP1 PUSH1 0x1F LT PUSH2 0x14B JUMPI PUSH2 0x100 DUP1 DUP4 SLOAD DIV MUL DUP4 MSTORE SWAP2 PUSH1 0x20 ADD SWAP2 PUSH2 0x176 JUMP JUMPDEST DUP3 ADD SWAP2 SWAP1 PUSH1 0x0 MSTORE PUSH1 0x20 PUSH1 0x0 KECCAK256 SWAP1 JUMPDEST DUP2 SLOAD DUP2 MSTORE SWAP1 PUSH1 0x1 ADD SWAP1 PUSH1 0x20 ADD DUP1 DUP4 GT PUSH2 0x159 JUMPI DUP3 SWAP1 SUB PUSH1 0x1F AND DUP3 ADD SWAP2 JUMPDEST POP POP POP POP POP SWAP1 DUP1 PUSH1 0x2 ADD DUP1 SLOAD PUSH2 0x18B SWAP1 PUSH2 0xC05 JUMP JUMPDEST DUP1 PUSH1 0x1F ADD PUSH1 0x20 DUP1 SWAP2 DIV MUL PUSH1 0x20 ADD PUSH1 0x40 MLOAD SWAP1 DUP2 ADD PUSH1 0x40 MSTORE DUP1 SWAP3 SWAP2 SWAP1 DUP2 DUP2 MSTORE PUSH1 0x20 ADD DUP3 DUP1 SLOAD PUSH2 0x1B7 SWAP1 PUSH2 0xC05 JUMP JUMPDEST DUP1 ISZERO PUSH2 0x204 JUMPI DUP1 PUSH1 0x1F LT PUSH2 0x1D9 JUMPI PUSH2 0x100 DUP1 DUP4 SLOAD DIV MUL DUP4 MSTORE SWAP2 PUSH1 0x20 ADD SWAP2 PUSH2 0x204 JUMP JUMPDEST DUP3 ADD SWAP2 SWAP1 PUSH1 0x0 MSTORE PUSH1 0x20 PUSH1 0x0 KECCAK256 SWAP1 JUMPDEST DUP2 SLOAD DUP2 MSTORE SWAP1 PUSH1 0x1 ADD SWAP1 PUSH1 0x20 ADD DUP1 DUP4 GT PUSH2 0x1E7 JUMPI DUP3 SWAP1 SUB PUSH1 0x1F AND DUP3 ADD SWAP2 JUMPDEST POP POP POP POP POP SWAP1 POP DUP4 JUMP JUMPDEST PUSH1 0x0 PUSH1 0x40 MLOAD DUP1 PUSH1 0x60 ADD PUSH1 0x40 MSTORE DUP1 DUP6 DUP2 MSTORE PUSH1 0x20 ADD DUP5 DUP2 MSTORE PUSH1 0x20 ADD DUP4 DUP2 MSTORE POP SWAP1 DUP1 PUSH1 0x1 DUP2 SLOAD ADD DUP1 DUP3 SSTORE DUP1 SWAP2 POP POP PUSH1 0x1 SWAP1 SUB SWAP1 PUSH1 0x0 MSTORE PUSH1 0x20 PUSH1 0x0 KECCAK256 SWAP1 PUSH1 0x3 MUL ADD PUSH1 0x0 SWAP1 SWAP2 SWAP1 SWAP2 SWAP1 SWAP2 POP PUSH1 0x0 DUP3 ADD MLOAD DUP2 PUSH1 0x0 ADD SSTORE PUSH1 0x20 DUP3 ADD MLOAD DUP2 PUSH1 0x1 ADD SWAP1 DUP1 MLOAD SWAP1 PUSH1 0x20 ADD SWAP1 PUSH2 0x27A SWAP3 SWAP2 SWAP1 PUSH2 0x4F4 JUMP JUMPDEST POP PUSH1 0x40 DUP3 ADD MLOAD DUP2 PUSH1 0x2 ADD SWAP1 DUP1 MLOAD SWAP1 PUSH1 0x20 ADD SWAP1 PUSH2 0x297 SWAP3 SWAP2 SWAP1 PUSH2 0x4F4 JUMP JUMPDEST POP POP POP PUSH1 0x0 PUSH1 0x1 PUSH1 0x0 CALLER PUSH20 0xFFFFFFFFFFFFFFFFFFFFFFFFFFFFFFFFFFFFFFFF AND PUSH20 0xFFFFFFFFFFFFFFFFFFFFFFFFFFFFFFFFFFFFFFFF AND DUP2 MSTORE PUSH1 0x20 ADD SWAP1 DUP2 MSTORE PUSH1 0x20 ADD PUSH1 0x0 KECCAK256 SWAP1 DUP1 SLOAD PUSH2 0x2E9 SWAP3 SWAP2 SWAP1 PUSH2 0x57A JUMP JUMPDEST POP PUSH32 0x3C981EAF8F806637941D1237961055D66E8636B71BC453DB0C9E245A154760FD DUP4 DUP4 PUSH1 0x40 MLOAD PUSH2 0x31B SWAP3 SWAP2 SWAP1 PUSH2 0xA56 JUMP JUMPDEST PUSH1 0x40 MLOAD DUP1 SWAP2 SUB SWAP1 LOG1 POP POP POP JUMP JUMPDEST PUSH1 0x60 PUSH1 0x1 PUSH1 0x0 DUP4 PUSH20 0xFFFFFFFFFFFFFFFFFFFFFFFFFFFFFFFFFFFFFFFF AND PUSH20 0xFFFFFFFFFFFFFFFFFFFFFFFFFFFFFFFFFFFFFFFF AND DUP2 MSTORE PUSH1 0x20 ADD SWAP1 DUP2 MSTORE PUSH1 0x20 ADD PUSH1 0x0 KECCAK256 DUP1 SLOAD DUP1 PUSH1 0x20 MUL PUSH1 0x20 ADD PUSH1 0x40 MLOAD SWAP1 DUP2 ADD PUSH1 0x40 MSTORE DUP1 SWAP3 SWAP2 SWAP1 DUP2 DUP2 MSTORE PUSH1 0x20 ADD PUSH1 0x0 SWAP1 JUMPDEST DUP3 DUP3 LT ISZERO PUSH2 0x4E9 JUMPI DUP4 DUP3 SWAP1 PUSH1 0x0 MSTORE PUSH1 0x20 PUSH1 0x0 KECCAK256 SWAP1 PUSH1 0x3 MUL ADD PUSH1 0x40 MLOAD DUP1 PUSH1 0x60 ADD PUSH1 0x40 MSTORE SWAP1 DUP2 PUSH1 0x0 DUP3 ADD SLOAD DUP2 MSTORE PUSH1 0x20 ADD PUSH1 0x1 DUP3 ADD DUP1 SLOAD PUSH2 0x3C6 SWAP1 PUSH2 0xC05 JUMP JUMPDEST DUP1 PUSH1 0x1F ADD PUSH1 0x20 DUP1 SWAP2 DIV MUL PUSH1 0x20 ADD PUSH1 0x40 MLOAD SWAP1 DUP2 ADD PUSH1 0x40 MSTORE DUP1 SWAP3 SWAP2 SWAP1 DUP2 DUP2 MSTORE PUSH1 0x20 ADD DUP3 DUP1 SLOAD PUSH2 0x3F2 SWAP1 PUSH2 0xC05 JUMP JUMPDEST DUP1 ISZERO PUSH2 0x43F JUMPI DUP1 PUSH1 0x1F LT PUSH2 0x414 JUMPI PUSH2 0x100 DUP1 DUP4 SLOAD DIV MUL DUP4 MSTORE SWAP2 PUSH1 0x20 ADD SWAP2 PUSH2 0x43F JUMP JUMPDEST DUP3 ADD SWAP2 SWAP1 PUSH1 0x0 MSTORE PUSH1 0x20 PUSH1 0x0 KECCAK256 SWAP1 JUMPDEST DUP2 SLOAD DUP2 MSTORE SWAP1 PUSH1 0x1 ADD SWAP1 PUSH1 0x20 ADD DUP1 DUP4 GT PUSH2 0x422 JUMPI DUP3 SWAP1 SUB PUSH1 0x1F AND DUP3 ADD SWAP2 JUMPDEST POP POP POP POP POP DUP2 MSTORE PUSH1 0x20 ADD PUSH1 0x2 DUP3 ADD DUP1 SLOAD PUSH2 0x458 SWAP1 PUSH2 0xC05 JUMP JUMPDEST DUP1 PUSH1 0x1F ADD PUSH1 0x20 DUP1 SWAP2 DIV MUL PUSH1 0x20 ADD PUSH1 0x40 MLOAD SWAP1 DUP2 ADD PUSH1 0x40 MSTORE DUP1 SWAP3 SWAP2 SWAP1 DUP2 DUP2 MSTORE PUSH1 0x20 ADD DUP3 DUP1 SLOAD PUSH2 0x484 SWAP1 PUSH2 0xC05 JUMP JUMPDEST DUP1 ISZERO PUSH2 0x4D1 JUMPI DUP1 PUSH1 0x1F LT PUSH2 0x4A6 JUMPI PUSH2 0x100 DUP1 DUP4 SLOAD DIV MUL DUP4 MSTORE SWAP2 PUSH1 0x20 ADD SWAP2 PUSH2 0x4D1 JUMP JUMPDEST DUP3 ADD SWAP2 SWAP1 PUSH1 0x0 MSTORE PUSH1 0x20 PUSH1 0x0 KECCAK256 SWAP1 JUMPDEST DUP2 SLOAD DUP2 MSTORE SWAP1 PUSH1 0x1 ADD SWAP1 PUSH1 0x20 ADD DUP1 DUP4 GT PUSH2 0x4B4 JUMPI DUP3 SWAP1 SUB PUSH1 0x1F AND DUP3 ADD SWAP2 JUMPDEST POP POP POP POP POP DUP2 MSTORE POP POP DUP2 MSTORE PUSH1 0x20 ADD SWAP1 PUSH1 0x1 ADD SWAP1 PUSH2 0x389 JUMP JUMPDEST POP POP POP POP SWAP1 POP SWAP2 SWAP1 POP JUMP JUMPDEST DUP3 DUP1 SLOAD PUSH2 0x500 SWAP1 PUSH2 0xC05 JUMP JUMPDEST SWAP1 PUSH1 0x0 MSTORE PUSH1 0x20 PUSH1 0x0 KECCAK256 SWAP1 PUSH1 0x1F ADD PUSH1 0x20 SWAP1 DIV DUP2 ADD SWAP3 DUP3 PUSH2 0x522 JUMPI PUSH1 0x0 DUP6 SSTORE PUSH2 0x569 JUMP JUMPDEST DUP3 PUSH1 0x1F LT PUSH2 0x53B JUMPI DUP1 MLOAD PUSH1 0xFF NOT AND DUP4 DUP1 ADD OR DUP6 SSTORE PUSH2 0x569 JUMP JUMPDEST DUP3 DUP1 ADD PUSH1 0x1 ADD DUP6 SSTORE DUP3 ISZERO PUSH2 0x569 JUMPI SWAP2 DUP3 ADD JUMPDEST DUP3 DUP2 GT ISZERO PUSH2 0x568 JUMPI DUP3 MLOAD DUP3 SSTORE SWAP2 PUSH1 0x20 ADD SWAP2 SWAP1 PUSH1 0x1 ADD SWAP1 PUSH2 0x54D JUMP JUMPDEST JUMPDEST POP SWAP1 POP PUSH2 0x576 SWAP2 SWAP1 PUSH2 0x61C JUMP JUMPDEST POP SWAP1 JUMP JUMPDEST DUP3 DUP1 SLOAD DUP3 DUP3 SSTORE SWAP1 PUSH1 0x0 MSTORE PUSH1 0x20 PUSH1 0x0 KECCAK256 SWAP1 PUSH1 0x3 MUL DUP2 ADD SWAP3 DUP3 ISZERO PUSH2 0x60B JUMPI PUSH1 0x0 MSTORE PUSH1 0x20 PUSH1 0x0 KECCAK256 SWAP2 PUSH1 0x3 MUL DUP3 ADD JUMPDEST DUP3 DUP2 GT ISZERO PUSH2 0x60A JUMPI DUP3 DUP3 PUSH1 0x0 DUP3 ADD SLOAD DUP2 PUSH1 0x0 ADD SSTORE PUSH1 0x1 DUP3 ADD DUP2 PUSH1 0x1 ADD SWAP1 DUP1 SLOAD PUSH2 0x5CD SWAP1 PUSH2 0xC05 JUMP JUMPDEST PUSH2 0x5D8 SWAP3 SWAP2 SWAP1 PUSH2 0x639 JUMP JUMPDEST POP PUSH1 0x2 DUP3 ADD DUP2 PUSH1 0x2 ADD SWAP1 DUP1 SLOAD PUSH2 0x5ED SWAP1 PUSH2 0xC05 JUMP JUMPDEST PUSH2 0x5F8 SWAP3 SWAP2 SWAP1 PUSH2 0x639 JUMP JUMPDEST POP POP POP SWAP2 PUSH1 0x3 ADD SWAP2 SWAP1 PUSH1 0x3 ADD SWAP1 PUSH2 0x5A5 JUMP JUMPDEST JUMPDEST POP SWAP1 POP PUSH2 0x618 SWAP2 SWAP1 PUSH2 0x6C6 JUMP JUMPDEST POP SWAP1 JUMP JUMPDEST JUMPDEST DUP1 DUP3 GT ISZERO PUSH2 0x635 JUMPI PUSH1 0x0 DUP2 PUSH1 0x0 SWAP1 SSTORE POP PUSH1 0x1 ADD PUSH2 0x61D JUMP JUMPDEST POP SWAP1 JUMP JUMPDEST DUP3 DUP1 SLOAD PUSH2 0x645 SWAP1 PUSH2 0xC05 JUMP JUMPDEST SWAP1 PUSH1 0x0 MSTORE PUSH1 0x20 PUSH1 0x0 KECCAK256 SWAP1 PUSH1 0x1F ADD PUSH1 0x20 SWAP1 DIV DUP2 ADD SWAP3 DUP3 PUSH2 0x667 JUMPI PUSH1 0x0 DUP6 SSTORE PUSH2 0x6B5 JUMP JUMPDEST DUP3 PUSH1 0x1F LT PUSH2 0x678 JUMPI DUP1 SLOAD DUP6 SSTORE PUSH2 0x6B5 JUMP JUMPDEST DUP3 DUP1 ADD PUSH1 0x1 ADD DUP6 SSTORE DUP3 ISZERO PUSH2 0x6B5 JUMPI PUSH1 0x0 MSTORE PUSH1 0x20 PUSH1 0x0 KECCAK256 SWAP2 PUSH1 0x1F ADD PUSH1 0x20 SWAP1 DIV DUP3 ADD JUMPDEST DUP3 DUP2 GT ISZERO PUSH2 0x6B4 JUMPI DUP3 SLOAD DUP3 SSTORE SWAP2 PUSH1 0x1 ADD SWAP2 SWAP1 PUSH1 0x1 ADD SWAP1 PUSH2 0x699 JUMP JUMPDEST JUMPDEST POP SWAP1 POP PUSH2 0x6C2 SWAP2 SWAP1 PUSH2 0x61C JUMP JUMPDEST POP SWAP1 JUMP JUMPDEST JUMPDEST DUP1 DUP3 GT ISZERO PUSH2 0x701 JUMPI PUSH1 0x0 DUP1 DUP3 ADD PUSH1 0x0 SWAP1 SSTORE PUSH1 0x1 DUP3 ADD PUSH1 0x0 PUSH2 0x6E8 SWAP2 SWAP1 PUSH2 0x705 JUMP JUMPDEST PUSH1 0x2 DUP3 ADD PUSH1 0x0 PUSH2 0x6F8 SWAP2 SWAP1 PUSH2 0x705 JUMP JUMPDEST POP PUSH1 0x3 ADD PUSH2 0x6C7 JUMP JUMPDEST POP SWAP1 JUMP JUMPDEST POP DUP1 SLOAD PUSH2 0x711 SWAP1 PUSH2 0xC05 JUMP JUMPDEST PUSH1 0x0 DUP3 SSTORE DUP1 PUSH1 0x1F LT PUSH2 0x723 JUMPI POP PUSH2 0x742 JUMP JUMPDEST PUSH1 0x1F ADD PUSH1 0x20 SWAP1 DIV SWAP1 PUSH1 0x0 MSTORE PUSH1 0x20 PUSH1 0x0 KECCAK256 SWAP1 DUP2 ADD SWAP1 PUSH2 0x741 SWAP2 SWAP1 PUSH2 0x61C JUMP JUMPDEST JUMPDEST POP JUMP JUMPDEST PUSH1 0x0 PUSH2 0x758 PUSH2 0x753 DUP5 PUSH2 0xAF0 JUMP JUMPDEST PUSH2 0xACB JUMP JUMPDEST SWAP1 POP DUP3 DUP2 MSTORE PUSH1 0x20 DUP2 ADD DUP5 DUP5 DUP5 ADD GT ISZERO PUSH2 0x774 JUMPI PUSH2 0x773 PUSH2 0xCCB JUMP JUMPDEST JUMPDEST PUSH2 0x77F DUP5 DUP3 DUP6 PUSH2 0xBC3 JUMP JUMPDEST POP SWAP4 SWAP3 POP POP POP JUMP JUMPDEST PUSH1 0x0 DUP2 CALLDATALOAD SWAP1 POP PUSH2 0x796 DUP2 PUSH2 0xCEB JUMP JUMPDEST SWAP3 SWAP2 POP POP JUMP JUMPDEST PUSH1 0x0 DUP3 PUSH1 0x1F DUP4 ADD SLT PUSH2 0x7B1 JUMPI PUSH2 0x7B0 PUSH2 0xCC6 JUMP JUMPDEST JUMPDEST DUP2 CALLDATALOAD PUSH2 0x7C1 DUP5 DUP3 PUSH1 0x20 DUP7 ADD PUSH2 0x745 JUMP JUMPDEST SWAP2 POP POP SWAP3 SWAP2 POP POP JUMP JUMPDEST PUSH1 0x0 DUP2 CALLDATALOAD SWAP1 POP PUSH2 0x7D9 DUP2 PUSH2 0xD02 JUMP JUMPDEST SWAP3 SWAP2 POP POP JUMP JUMPDEST PUSH1 0x0 PUSH1 0x20 DUP3 DUP5 SUB SLT ISZERO PUSH2 0x7F5 JUMPI PUSH2 0x7F4 PUSH2 0xCD5 JUMP JUMPDEST JUMPDEST PUSH1 0x0 PUSH2 0x803 DUP5 DUP3 DUP6 ADD PUSH2 0x787 JUMP JUMPDEST SWAP2 POP POP SWAP3 SWAP2 POP POP JUMP JUMPDEST PUSH1 0x0 PUSH1 0x20 DUP3 DUP5 SUB SLT ISZERO PUSH2 0x822 JUMPI PUSH2 0x821 PUSH2 0xCD5 JUMP JUMPDEST JUMPDEST PUSH1 0x0 PUSH2 0x830 DUP5 DUP3 DUP6 ADD PUSH2 0x7CA JUMP JUMPDEST SWAP2 POP POP SWAP3 SWAP2 POP POP JUMP JUMPDEST PUSH1 0x0 DUP1 PUSH1 0x0 PUSH1 0x60 DUP5 DUP7 SUB SLT ISZERO PUSH2 0x852 JUMPI PUSH2 0x851 PUSH2 0xCD5 JUMP JUMPDEST JUMPDEST PUSH1 0x0 PUSH2 0x860 DUP7 DUP3 DUP8 ADD PUSH2 0x7CA JUMP JUMPDEST SWAP4 POP POP PUSH1 0x20 DUP5 ADD CALLDATALOAD PUSH8 0xFFFFFFFFFFFFFFFF DUP2 GT ISZERO PUSH2 0x881 JUMPI PUSH2 0x880 PUSH2 0xCD0 JUMP JUMPDEST JUMPDEST PUSH2 0x88D DUP7 DUP3 DUP8 ADD PUSH2 0x79C JUMP JUMPDEST SWAP3 POP POP PUSH1 0x40 DUP5 ADD CALLDATALOAD PUSH8 0xFFFFFFFFFFFFFFFF DUP2 GT ISZERO PUSH2 0x8AE JUMPI PUSH2 0x8AD PUSH2 0xCD0 JUMP JUMPDEST JUMPDEST PUSH2 0x8BA DUP7 DUP3 DUP8 ADD PUSH2 0x79C JUMP JUMPDEST SWAP2 POP POP SWAP3 POP SWAP3 POP SWAP3 JUMP JUMPDEST PUSH1 0x0 PUSH2 0x8D0 DUP4 DUP4 PUSH2 0x9BF JUMP JUMPDEST SWAP1 POP SWAP3 SWAP2 POP POP JUMP JUMPDEST PUSH1 0x0 PUSH2 0x8E3 DUP3 PUSH2 0xB31 JUMP JUMPDEST PUSH2 0x8ED DUP2 DUP6 PUSH2 0xB54 JUMP JUMPDEST SWAP4 POP DUP4 PUSH1 0x20 DUP3 MUL DUP6 ADD PUSH2 0x8FF DUP6 PUSH2 0xB21 JUMP JUMPDEST DUP1 PUSH1 0x0 JUMPDEST DUP6 DUP2 LT ISZERO PUSH2 0x93B JUMPI DUP5 DUP5 SUB DUP10 MSTORE DUP2 MLOAD PUSH2 0x91C DUP6 DUP3 PUSH2 0x8C4 JUMP JUMPDEST SWAP5 POP PUSH2 0x927 DUP4 PUSH2 0xB47 JUMP JUMPDEST SWAP3 POP PUSH1 0x20 DUP11 ADD SWAP10 POP POP PUSH1 0x1 DUP2 ADD SWAP1 POP PUSH2 0x903 JUMP JUMPDEST POP DUP3 SWAP8 POP DUP8 SWAP6 POP POP POP POP POP POP SWAP3 SWAP2 POP POP JUMP JUMPDEST PUSH1 0x0 PUSH2 0x958 DUP3 PUSH2 0xB3C JUMP JUMPDEST PUSH2 0x962 DUP2 DUP6 PUSH2 0xB65 JUMP JUMPDEST SWAP4 POP PUSH2 0x972 DUP2 DUP6 PUSH1 0x20 DUP7 ADD PUSH2 0xBD2 JUMP JUMPDEST PUSH2 0x97B DUP2 PUSH2 0xCDA JUMP JUMPDEST DUP5 ADD SWAP2 POP POP SWAP3 SWAP2 POP POP JUMP JUMPDEST PUSH1 0x0 PUSH2 0x991 DUP3 PUSH2 0xB3C JUMP JUMPDEST PUSH2 0x99B DUP2 DUP6 PUSH2 0xB76 JUMP JUMPDEST SWAP4 POP PUSH2 0x9AB DUP2 DUP6 PUSH1 0x20 DUP7 ADD PUSH2 0xBD2 JUMP JUMPDEST PUSH2 0x9B4 DUP2 PUSH2 0xCDA JUMP JUMPDEST DUP5 ADD SWAP2 POP POP SWAP3 SWAP2 POP POP JUMP JUMPDEST PUSH1 0x0 PUSH1 0x60 DUP4 ADD PUSH1 0x0 DUP4 ADD MLOAD PUSH2 0x9D7 PUSH1 0x0 DUP7 ADD DUP3 PUSH2 0xA16 JUMP JUMPDEST POP PUSH1 0x20 DUP4 ADD MLOAD DUP5 DUP3 SUB PUSH1 0x20 DUP7 ADD MSTORE PUSH2 0x9EF DUP3 DUP3 PUSH2 0x94D JUMP JUMPDEST SWAP2 POP POP PUSH1 0x40 DUP4 ADD MLOAD DUP5 DUP3 SUB PUSH1 0x40 DUP7 ADD MSTORE PUSH2 0xA09 DUP3 DUP3 PUSH2 0x94D JUMP JUMPDEST SWAP2 POP POP DUP1 SWAP2 POP POP SWAP3 SWAP2 POP POP JUMP JUMPDEST PUSH2 0xA1F DUP2 PUSH2 0xBB9 JUMP JUMPDEST DUP3 MSTORE POP POP JUMP JUMPDEST PUSH2 0xA2E DUP2 PUSH2 0xBB9 JUMP JUMPDEST DUP3 MSTORE POP POP JUMP JUMPDEST PUSH1 0x0 PUSH1 0x20 DUP3 ADD SWAP1 POP DUP2 DUP2 SUB PUSH1 0x0 DUP4 ADD MSTORE PUSH2 0xA4E DUP2 DUP5 PUSH2 0x8D8 JUMP JUMPDEST SWAP1 POP SWAP3 SWAP2 POP POP JUMP JUMPDEST PUSH1 0x0 PUSH1 0x40 DUP3 ADD SWAP1 POP PUSH2 0xA6B PUSH1 0x0 DUP4 ADD DUP6 PUSH2 0xA25 JUMP JUMPDEST DUP2 DUP2 SUB PUSH1 0x20 DUP4 ADD MSTORE PUSH2 0xA7D DUP2 DUP5 PUSH2 0x986 JUMP JUMPDEST SWAP1 POP SWAP4 SWAP3 POP POP POP JUMP JUMPDEST PUSH1 0x0 PUSH1 0x60 DUP3 ADD SWAP1 POP PUSH2 0xA9B PUSH1 0x0 DUP4 ADD DUP7 PUSH2 0xA25 JUMP JUMPDEST DUP2 DUP2 SUB PUSH1 0x20 DUP4 ADD MSTORE PUSH2 0xAAD DUP2 DUP6 PUSH2 0x986 JUMP JUMPDEST SWAP1 POP DUP2 DUP2 SUB PUSH1 0x40 DUP4 ADD MSTORE PUSH2 0xAC1 DUP2 DUP5 PUSH2 0x986 JUMP JUMPDEST SWAP1 POP SWAP5 SWAP4 POP POP POP POP JUMP JUMPDEST PUSH1 0x0 PUSH2 0xAD5 PUSH2 0xAE6 JUMP JUMPDEST SWAP1 POP PUSH2 0xAE1 DUP3 DUP3 PUSH2 0xC37 JUMP JUMPDEST SWAP2 SWAP1 POP JUMP JUMPDEST PUSH1 0x0 PUSH1 0x40 MLOAD SWAP1 POP SWAP1 JUMP JUMPDEST PUSH1 0x0 PUSH8 0xFFFFFFFFFFFFFFFF DUP3 GT ISZERO PUSH2 0xB0B JUMPI PUSH2 0xB0A PUSH2 0xC97 JUMP JUMPDEST JUMPDEST PUSH2 0xB14 DUP3 PUSH2 0xCDA JUMP JUMPDEST SWAP1 POP PUSH1 0x20 DUP2 ADD SWAP1 POP SWAP2 SWAP1 POP JUMP JUMPDEST PUSH1 0x0 DUP2 SWAP1 POP PUSH1 0x20 DUP3 ADD SWAP1 POP SWAP2 SWAP1 POP JUMP JUMPDEST PUSH1 0x0 DUP2 MLOAD SWAP1 POP SWAP2 SWAP1 POP JUMP JUMPDEST PUSH1 0x0 DUP2 MLOAD SWAP1 POP SWAP2 SWAP1 POP JUMP JUMPDEST PUSH1 0x0 PUSH1 0x20 DUP3 ADD SWAP1 POP SWAP2 SWAP1 POP JUMP JUMPDEST PUSH1 0x0 DUP3 DUP3 MSTORE PUSH1 0x20 DUP3 ADD SWAP1 POP SWAP3 SWAP2 POP POP JUMP JUMPDEST PUSH1 0x0 DUP3 DUP3 MSTORE PUSH1 0x20 DUP3 ADD SWAP1 POP SWAP3 SWAP2 POP POP JUMP JUMPDEST PUSH1 0x0 DUP3 DUP3 MSTORE PUSH1 0x20 DUP3 ADD SWAP1 POP SWAP3 SWAP2 POP POP JUMP JUMPDEST PUSH1 0x0 PUSH2 0xB92 DUP3 PUSH2 0xB99 JUMP JUMPDEST SWAP1 POP SWAP2 SWAP1 POP JUMP JUMPDEST PUSH1 0x0 PUSH20 0xFFFFFFFFFFFFFFFFFFFFFFFFFFFFFFFFFFFFFFFF DUP3 AND SWAP1 POP SWAP2 SWAP1 POP JUMP JUMPDEST PUSH1 0x0 DUP2 SWAP1 POP SWAP2 SWAP1 POP JUMP JUMPDEST DUP3 DUP2 DUP4 CALLDATACOPY PUSH1 0x0 DUP4 DUP4 ADD MSTORE POP POP POP JUMP JUMPDEST PUSH1 0x0 JUMPDEST DUP4 DUP2 LT ISZERO PUSH2 0xBF0 JUMPI DUP1 DUP3 ADD MLOAD DUP2 DUP5 ADD MSTORE PUSH1 0x20 DUP2 ADD SWAP1 POP PUSH2 0xBD5 JUMP JUMPDEST DUP4 DUP2 GT ISZERO PUSH2 0xBFF JUMPI PUSH1 0x0 DUP5 DUP5 ADD MSTORE JUMPDEST POP POP POP POP JUMP JUMPDEST PUSH1 0x0 PUSH1 0x2 DUP3 DIV SWAP1 POP PUSH1 0x1 DUP3 AND DUP1 PUSH2 0xC1D JUMPI PUSH1 0x7F DUP3 AND SWAP2 POP JUMPDEST PUSH1 0x20 DUP3 LT DUP2 EQ ISZERO PUSH2 0xC31 JUMPI PUSH2 0xC30 PUSH2 0xC68 JUMP JUMPDEST JUMPDEST POP SWAP2 SWAP1 POP JUMP JUMPDEST PUSH2 0xC40 DUP3 PUSH2 0xCDA JUMP JUMPDEST DUP2 ADD DUP2 DUP2 LT PUSH8 0xFFFFFFFFFFFFFFFF DUP3 GT OR ISZERO PUSH2 0xC5F JUMPI PUSH2 0xC5E PUSH2 0xC97 JUMP JUMPDEST JUMPDEST DUP1 PUSH1 0x40 MSTORE POP POP POP JUMP JUMPDEST PUSH32 0x4E487B7100000000000000000000000000000000000000000000000000000000 PUSH1 0x0 MSTORE PUSH1 0x22 PUSH1 0x4 MSTORE PUSH1 0x24 PUSH1 0x0 REVERT JUMPDEST PUSH32 0x4E487B7100000000000000000000000000000000000000000000000000000000 PUSH1 0x0 MSTORE PUSH1 0x41 PUSH1 0x4 MSTORE PUSH1 0x24 PUSH1 0x0 REVERT JUMPDEST PUSH1 0x0 DUP1 REVERT JUMPDEST PUSH1 0x0 DUP1 REVERT JUMPDEST PUSH1 0x0 DUP1 REVERT JUMPDEST PUSH1 0x0 DUP1 REVERT JUMPDEST PUSH1 0x0 PUSH1 0x1F NOT PUSH1 0x1F DUP4 ADD AND SWAP1 POP SWAP2 SWAP1 POP JUMP JUMPDEST PUSH2 0xCF4 DUP2 PUSH2 0xB87 JUMP JUMPDEST DUP2 EQ PUSH2 0xCFF JUMPI PUSH1 0x0 DUP1 REVERT JUMPDEST POP JUMP JUMPDEST PUSH2 0xD0B DUP2 PUSH2 0xBB9 JUMP JUMPDEST DUP2 EQ PUSH2 0xD16 JUMPI PUSH1 0x0 DUP1 REVERT JUMPDEST POP JUMP INVALID LOG2 PUSH5 0x6970667358 0x22 SLT KECCAK256 CALLCODE 0xA8 PUSH5 0xAE46B4BEA1 0xB0 0xBD DUP2 BYTE SIGNEXTEND MSTORE 0xE5 PUSH30 0x2F2C4D7D76696949AF26821E11B7492864736F6C63430008070033000000 "
				},
				"gasEstimates": {
					"creation": {
						"codeDepositCost": "681400",
						"executionCost": "715",
						"totalCost": "682115"
					},
					"external": {
						"addTodo(uint256,string,string)": "infinite",
						"showTodo(address)": "infinite",
						"todos(uint256)": "infinite"
					}
				},
				"methodIdentifiers": {
					"addTodo(uint256,string,string)": "e83ebd32",
					"showTodo(address)": "f9324d3c",
					"todos(uint256)": "bc8bc2b4"
				}
			},
			"storageLayout": {
				"storage": [
					{
						"astId": 18,
						"contract": "todomain.sol:TodoMain",
						"label": "todos",
						"offset": 0,
						"slot": "0",
						"type": "t_array(t_struct(TodoObj)8_storage)dyn_storage"
					},
					{
						"astId": 24,
						"contract": "todomain.sol:TodoMain",
						"label": "todoMap",
						"offset": 0,
						"slot": "1",
						"type": "t_mapping(t_address,t_array(t_struct(TodoObj)8_storage)dyn_storage)"
					}
				],
				"types": {
					"t_address": {
						"encoding": "inplace",
						"label": "address",
						"numberOfBytes": "20"
					},
					"t_array(t_struct(TodoObj)8_storage)dyn_storage": {
						"base": "t_struct(TodoObj)8_storage",
						"encoding": "dynamic_array",
						"label": "struct TodoMain.TodoObj[]",
						"numberOfBytes": "32"
					},
					"t_mapping(t_address,t_array(t_struct(TodoObj)8_storage)dyn_storage)": {
						"encoding": "mapping",
						"key": "t_address",
						"label": "mapping(address => struct TodoMain.TodoObj[])",
						"numberOfBytes": "32",
						"value": "t_array(t_struct(TodoObj)8_storage)dyn_storage"
					},
					"t_string_storage": {
						"encoding": "bytes",
						"label": "string",
						"numberOfBytes": "32"
					},
					"t_struct(TodoObj)8_storage": {
						"encoding": "inplace",
						"label": "struct TodoMain.TodoObj",
						"members": [
							{
								"astId": 3,
								"contract": "todomain.sol:TodoMain",
								"label": "id",
								"offset": 0,
								"slot": "0",
								"type": "t_uint256"
							},
							{
								"astId": 5,
								"contract": "todomain.sol:TodoMain",
								"label": "todoName",
								"offset": 0,
								"slot": "1",
								"type": "t_string_storage"
							},
							{
								"astId": 7,
								"contract": "todomain.sol:TodoMain",
								"label": "todos",
								"offset": 0,
								"slot": "2",
								"type": "t_string_storage"
							}
						],
						"numberOfBytes": "96"
					},
					"t_uint256": {
						"encoding": "inplace",
						"label": "uint256",
						"numberOfBytes": "32"
					}
				}
			},
			"userdoc": {
				"kind": "user",
				"methods": {},
				"version": 1
			}
		}
	}
}