{
	"Todo.sol": {
		"Todo": {
			"abi": [
				{
					"inputs": [
						{
							"internalType": "uint256",
							"name": "_id",
							"type": "uint256"
						},
						{
							"internalType": "string",
							"name": "todo",
							"type": "string"
						}
					],
					"name": "addTodo",
					"outputs": [],
					"stateMutability": "nonpayable",
					"type": "function"
				},
				{
					"inputs": [
						{
							"internalType": "uint256",
							"name": "_id_",
							"type": "uint256"
						}
					],
					"name": "dltTodo",
					"outputs": [],
					"stateMutability": "nonpayable",
					"type": "function"
				},
				{
					"inputs": [],
					"name": "resetAll",
					"outputs": [],
					"stateMutability": "nonpayable",
					"type": "function"
				},
				{
					"inputs": [],
					"name": "showTodos",
					"outputs": [
						{
							"components": [
								{
									"internalType": "uint256",
									"name": "id",
									"type": "uint256"
								},
								{
									"internalType": "string",
									"name": "todoText",
									"type": "string"
								}
							],
							"internalType": "struct Todo.todoObj[]",
							"name": "",
							"type": "tuple[]"
						}
					],
					"stateMutability": "view",
					"type": "function"
				},
				{
					"inputs": [
						{
							"internalType": "uint256",
							"name": "id_",
							"type": "uint256"
						},
						{
							"internalType": "string",
							"name": "new_todoText",
							"type": "string"
						}
					],
					"name": "updateTodos",
					"outputs": [],
					"stateMutability": "nonpayable",
					"type": "function"
				}
			],
			"devdoc": {
				"kind": "dev",
				"methods": {},
				"version": 1
			},
			"evm": {
				"assembly": "    /* \"Todo.sol\":66:994  contract Todo{\r... */\n  mstore(0x40, 0x80)\n  callvalue\n  dup1\n  iszero\n  tag_1\n  jumpi\n  0x00\n  dup1\n  revert\ntag_1:\n  pop\n  dataSize(sub_0)\n  dup1\n  dataOffset(sub_0)\n  0x00\n  codecopy\n  0x00\n  return\nstop\n\nsub_0: assembly {\n        /* \"Todo.sol\":66:994  contract Todo{\r... */\n      mstore(0x40, 0x80)\n      callvalue\n      dup1\n      iszero\n      tag_1\n      jumpi\n      0x00\n      dup1\n      revert\n    tag_1:\n      pop\n      jumpi(tag_2, lt(calldatasize, 0x04))\n      shr(0xe0, calldataload(0x00))\n      dup1\n      0x600060eb\n      eq\n      tag_3\n      jumpi\n      dup1\n      0x67e8b7f7\n      eq\n      tag_4\n      jumpi\n      dup1\n      0xa3dad43e\n      eq\n      tag_5\n      jumpi\n      dup1\n      0xc1da2020\n      eq\n      tag_6\n      jumpi\n      dup1\n      0xe103aef5\n      eq\n      tag_7\n      jumpi\n    tag_2:\n      0x00\n      dup1\n      revert\n        /* \"Todo.sol\":596:685  function showTodos() public view returns(todoObj[] memory){\r... */\n    tag_3:\n      tag_8\n      tag_9\n      jump\t// in\n    tag_8:\n      mload(0x40)\n      tag_10\n      swap2\n      swap1\n      tag_11\n      jump\t// in\n    tag_10:\n      mload(0x40)\n      dup1\n      swap2\n      sub\n      swap1\n      return\n        /* \"Todo.sol\":695:926  function updateTodos(uint id_,string memory new_todoText) public {\r... */\n    tag_4:\n      tag_12\n      0x04\n      dup1\n      calldatasize\n      sub\n      dup2\n      add\n      swap1\n      tag_13\n      swap2\n      swap1\n      tag_14\n      jump\t// in\n    tag_13:\n      tag_15\n      jump\t// in\n    tag_12:\n      stop\n        /* \"Todo.sol\":403:586  function dltTodo(uint _id_) public{\r... */\n    tag_5:\n      tag_16\n      0x04\n      dup1\n      calldatasize\n      sub\n      dup2\n      add\n      swap1\n      tag_17\n      swap2\n      swap1\n      tag_18\n      jump\t// in\n    tag_17:\n      tag_19\n      jump\t// in\n    tag_16:\n      stop\n        /* \"Todo.sol\":187:395  function addTodo(uint _id,string memory todo) public {\r... */\n    tag_6:\n      tag_20\n      0x04\n      dup1\n      calldatasize\n      sub\n      dup2\n      add\n      swap1\n      tag_21\n      swap2\n      swap1\n      tag_14\n      jump\t// in\n    tag_21:\n      tag_22\n      jump\t// in\n    tag_20:\n      stop\n        /* \"Todo.sol\":932:989  function resetAll() public{\r... */\n    tag_7:\n      tag_23\n      tag_24\n      jump\t// in\n    tag_23:\n      stop\n        /* \"Todo.sol\":596:685  function showTodos() public view returns(todoObj[] memory){\r... */\n    tag_9:\n        /* \"Todo.sol\":637:653  todoObj[] memory */\n      0x60\n        /* \"Todo.sol\":672:677  todos */\n      0x00\n        /* \"Todo.sol\":665:677  return todos */\n      dup1\n      sload\n      dup1\n      0x20\n      mul\n      0x20\n      add\n      mload(0x40)\n      swap1\n      dup2\n      add\n      0x40\n      mstore\n      dup1\n      swap3\n      swap2\n      swap1\n      dup2\n      dup2\n      mstore\n      0x20\n      add\n      0x00\n      swap1\n    tag_26:\n      dup3\n      dup3\n      lt\n      iszero\n      tag_27\n      jumpi\n      dup4\n      dup3\n      swap1\n      0x00\n      mstore\n      keccak256(0x00, 0x20)\n      swap1\n      0x02\n      mul\n      add\n      mload(0x40)\n      dup1\n      0x40\n      add\n      0x40\n      mstore\n      swap1\n      dup2\n      0x00\n      dup3\n      add\n      sload\n      dup2\n      mstore\n      0x20\n      add\n      0x01\n      dup3\n      add\n      dup1\n      sload\n      tag_29\n      swap1\n      tag_30\n      jump\t// in\n    tag_29:\n      dup1\n      0x1f\n      add\n      0x20\n      dup1\n      swap2\n      div\n      mul\n      0x20\n      add\n      mload(0x40)\n      swap1\n      dup2\n      add\n      0x40\n      mstore\n      dup1\n      swap3\n      swap2\n      swap1\n      dup2\n      dup2\n      mstore\n      0x20\n      add\n      dup3\n      dup1\n      sload\n      tag_31\n      swap1\n      tag_30\n      jump\t// in\n    tag_31:\n      dup1\n      iszero\n      tag_32\n      jumpi\n      dup1\n      0x1f\n      lt\n      tag_33\n      jumpi\n      0x0100\n      dup1\n      dup4\n      sload\n      div\n      mul\n      dup4\n      mstore\n      swap2\n      0x20\n      add\n      swap2\n      jump(tag_32)\n    tag_33:\n      dup3\n      add\n      swap2\n      swap1\n      0x00\n      mstore\n      keccak256(0x00, 0x20)\n      swap1\n    tag_34:\n      dup2\n      sload\n      dup2\n      mstore\n      swap1\n      0x01\n      add\n      swap1\n      0x20\n      add\n      dup1\n      dup4\n      gt\n      tag_34\n      jumpi\n      dup3\n      swap1\n      sub\n      0x1f\n      and\n      dup3\n      add\n      swap2\n    tag_32:\n      pop\n      pop\n      pop\n      pop\n      pop\n      dup2\n      mstore\n      pop\n      pop\n      dup2\n      mstore\n      0x20\n      add\n      swap1\n      0x01\n      add\n      swap1\n      jump(tag_26)\n    tag_27:\n      pop\n      pop\n      pop\n      pop\n      swap1\n      pop\n        /* \"Todo.sol\":596:685  function showTodos() public view returns(todoObj[] memory){\r... */\n      swap1\n      jump\t// out\n        /* \"Todo.sol\":695:926  function updateTodos(uint id_,string memory new_todoText) public {\r... */\n    tag_15:\n        /* \"Todo.sol\":775:781  uint i */\n      0x00\n        /* \"Todo.sol\":771:919  for(uint i =0;i<todos.length;i++){\r... */\n    tag_36:\n        /* \"Todo.sol\":787:792  todos */\n      0x00\n        /* \"Todo.sol\":787:799  todos.length */\n      dup1\n      sload\n      swap1\n      pop\n        /* \"Todo.sol\":785:786  i */\n      dup2\n        /* \"Todo.sol\":785:799  i<todos.length */\n      lt\n        /* \"Todo.sol\":771:919  for(uint i =0;i<todos.length;i++){\r... */\n      iszero\n      tag_37\n      jumpi\n        /* \"Todo.sol\":837:840  id_ */\n      dup3\n        /* \"Todo.sol\":822:827  todos */\n      0x00\n        /* \"Todo.sol\":828:829  i */\n      dup3\n        /* \"Todo.sol\":822:830  todos[i] */\n      dup2\n      sload\n      dup2\n      lt\n      tag_39\n      jumpi\n      tag_40\n      tag_41\n      jump\t// in\n    tag_40:\n    tag_39:\n      swap1\n      0x00\n      mstore\n      keccak256(0x00, 0x20)\n      swap1\n      0x02\n      mul\n      add\n        /* \"Todo.sol\":822:833  todos[i].id */\n      0x00\n      add\n      sload\n        /* \"Todo.sol\":822:840  todos[i].id == id_ */\n      eq\n        /* \"Todo.sol\":819:908  if(todos[i].id == id_){\r... */\n      iszero\n      tag_43\n      jumpi\n        /* \"Todo.sol\":880:892  new_todoText */\n      dup2\n        /* \"Todo.sol\":860:865  todos */\n      0x00\n        /* \"Todo.sol\":866:867  i */\n      dup3\n        /* \"Todo.sol\":860:868  todos[i] */\n      dup2\n      sload\n      dup2\n      lt\n      tag_44\n      jumpi\n      tag_45\n      tag_41\n      jump\t// in\n    tag_45:\n    tag_44:\n      swap1\n      0x00\n      mstore\n      keccak256(0x00, 0x20)\n      swap1\n      0x02\n      mul\n      add\n        /* \"Todo.sol\":860:877  todos[i].todoText */\n      0x01\n      add\n        /* \"Todo.sol\":860:892  todos[i].todoText = new_todoText */\n      swap1\n      dup1\n      mload\n      swap1\n      0x20\n      add\n      swap1\n      tag_47\n      swap3\n      swap2\n      swap1\n      tag_48\n      jump\t// in\n    tag_47:\n      pop\n        /* \"Todo.sol\":819:908  if(todos[i].id == id_){\r... */\n    tag_43:\n        /* \"Todo.sol\":800:803  i++ */\n      dup1\n      dup1\n      tag_49\n      swap1\n      tag_50\n      jump\t// in\n    tag_49:\n      swap2\n      pop\n      pop\n        /* \"Todo.sol\":771:919  for(uint i =0;i<todos.length;i++){\r... */\n      jump(tag_36)\n    tag_37:\n      pop\n        /* \"Todo.sol\":695:926  function updateTodos(uint id_,string memory new_todoText) public {\r... */\n      pop\n      pop\n      jump\t// out\n        /* \"Todo.sol\":403:586  function dltTodo(uint _id_) public{\r... */\n    tag_19:\n        /* \"Todo.sol\":452:458  uint i */\n      0x00\n        /* \"Todo.sol\":448:579  for(uint i=0;i<todos.length;i++){\r... */\n    tag_52:\n        /* \"Todo.sol\":463:468  todos */\n      0x00\n        /* \"Todo.sol\":463:475  todos.length */\n      dup1\n      sload\n      swap1\n      pop\n        /* \"Todo.sol\":461:462  i */\n      dup2\n        /* \"Todo.sol\":461:475  i<todos.length */\n      lt\n        /* \"Todo.sol\":448:579  for(uint i=0;i<todos.length;i++){\r... */\n      iszero\n      tag_53\n      jumpi\n        /* \"Todo.sol\":513:517  _id_ */\n      dup2\n        /* \"Todo.sol\":498:503  todos */\n      0x00\n        /* \"Todo.sol\":504:505  i */\n      dup3\n        /* \"Todo.sol\":498:506  todos[i] */\n      dup2\n      sload\n      dup2\n      lt\n      tag_55\n      jumpi\n      tag_56\n      tag_41\n      jump\t// in\n    tag_56:\n    tag_55:\n      swap1\n      0x00\n      mstore\n      keccak256(0x00, 0x20)\n      swap1\n      0x02\n      mul\n      add\n        /* \"Todo.sol\":498:509  todos[i].id */\n      0x00\n      add\n      sload\n        /* \"Todo.sol\":498:517  todos[i].id == _id_ */\n      eq\n        /* \"Todo.sol\":495:568  if(todos[i].id == _id_){\r... */\n      iszero\n      tag_58\n      jumpi\n        /* \"Todo.sol\":544:549  todos */\n      0x00\n        /* \"Todo.sol\":550:551  i */\n      dup2\n        /* \"Todo.sol\":544:552  todos[i] */\n      dup2\n      sload\n      dup2\n      lt\n      tag_59\n      jumpi\n      tag_60\n      tag_41\n      jump\t// in\n    tag_60:\n    tag_59:\n      swap1\n      0x00\n      mstore\n      keccak256(0x00, 0x20)\n      swap1\n      0x02\n      mul\n      add\n      0x00\n        /* \"Todo.sol\":537:552  delete todos[i] */\n      dup1\n      dup3\n      add\n      0x00\n      swap1\n      sstore\n      0x01\n      dup3\n      add\n      0x00\n      tag_62\n      swap2\n      swap1\n      tag_63\n      jump\t// in\n    tag_62:\n      pop\n      pop\n        /* \"Todo.sol\":495:568  if(todos[i].id == _id_){\r... */\n    tag_58:\n        /* \"Todo.sol\":476:479  i++ */\n      dup1\n      dup1\n      tag_64\n      swap1\n      tag_50\n      jump\t// in\n    tag_64:\n      swap2\n      pop\n      pop\n        /* \"Todo.sol\":448:579  for(uint i=0;i<todos.length;i++){\r... */\n      jump(tag_52)\n    tag_53:\n      pop\n        /* \"Todo.sol\":403:586  function dltTodo(uint _id_) public{\r... */\n      pop\n      jump\t// out\n        /* \"Todo.sol\":187:395  function addTodo(uint _id,string memory todo) public {\r... */\n    tag_22:\n        /* \"Todo.sol\":255:261  uint i */\n      0x00\n        /* \"Todo.sol\":251:388  for(uint i =0;i<todos.length;i++){\r... */\n    tag_66:\n        /* \"Todo.sol\":267:272  todos */\n      0x00\n        /* \"Todo.sol\":267:279  todos.length */\n      dup1\n      sload\n      swap1\n      pop\n        /* \"Todo.sol\":265:266  i */\n      dup2\n        /* \"Todo.sol\":265:279  i<todos.length */\n      lt\n        /* \"Todo.sol\":251:388  for(uint i =0;i<todos.length;i++){\r... */\n      iszero\n      tag_67\n      jumpi\n        /* \"Todo.sol\":320:323  _id */\n      dup3\n        /* \"Todo.sol\":307:312  todos */\n      0x00\n        /* \"Todo.sol\":313:314  i */\n      dup3\n        /* \"Todo.sol\":307:315  todos[i] */\n      dup2\n      sload\n      dup2\n      lt\n      tag_69\n      jumpi\n      tag_70\n      tag_41\n      jump\t// in\n    tag_70:\n    tag_69:\n      swap1\n      0x00\n      mstore\n      keccak256(0x00, 0x20)\n      swap1\n      0x02\n      mul\n      add\n        /* \"Todo.sol\":307:318  todos[i].id */\n      0x00\n      add\n      sload\n        /* \"Todo.sol\":307:323  todos[i].id!=_id */\n      eq\n      iszero\n        /* \"Todo.sol\":299:332  require(todos[i].id!=_id,\"Error\") */\n      tag_72\n      jumpi\n      mload(0x40)\n      0x08c379a000000000000000000000000000000000000000000000000000000000\n      dup2\n      mstore\n      0x04\n      add\n      tag_73\n      swap1\n      tag_74\n      jump\t// in\n    tag_73:\n      mload(0x40)\n      dup1\n      swap2\n      sub\n      swap1\n      revert\n    tag_72:\n        /* \"Todo.sol\":347:352  todos */\n      0x00\n        /* \"Todo.sol\":358:375  todoObj(_id,todo) */\n      mload(0x40)\n      dup1\n      0x40\n      add\n      0x40\n      mstore\n      dup1\n        /* \"Todo.sol\":366:369  _id */\n      dup6\n        /* \"Todo.sol\":358:375  todoObj(_id,todo) */\n      dup2\n      mstore\n      0x20\n      add\n        /* \"Todo.sol\":370:374  todo */\n      dup5\n        /* \"Todo.sol\":358:375  todoObj(_id,todo) */\n      dup2\n      mstore\n      pop\n        /* \"Todo.sol\":347:376  todos.push(todoObj(_id,todo)) */\n      swap1\n      dup1\n      0x01\n      dup2\n      sload\n      add\n      dup1\n      dup3\n      sstore\n      dup1\n      swap2\n      pop\n      pop\n      0x01\n      swap1\n      sub\n      swap1\n      0x00\n      mstore\n      keccak256(0x00, 0x20)\n      swap1\n      0x02\n      mul\n      add\n      0x00\n      swap1\n      swap2\n      swap1\n      swap2\n      swap1\n      swap2\n      pop\n      0x00\n      dup3\n      add\n      mload\n      dup2\n      0x00\n      add\n      sstore\n      0x20\n      dup3\n      add\n      mload\n      dup2\n      0x01\n      add\n      swap1\n      dup1\n      mload\n      swap1\n      0x20\n      add\n      swap1\n      tag_76\n      swap3\n      swap2\n      swap1\n      tag_48\n      jump\t// in\n    tag_76:\n      pop\n      pop\n      pop\n        /* \"Todo.sol\":280:283  i++ */\n      dup1\n      dup1\n      tag_77\n      swap1\n      tag_50\n      jump\t// in\n    tag_77:\n      swap2\n      pop\n      pop\n        /* \"Todo.sol\":251:388  for(uint i =0;i<todos.length;i++){\r... */\n      jump(tag_66)\n    tag_67:\n      pop\n        /* \"Todo.sol\":187:395  function addTodo(uint _id,string memory todo) public {\r... */\n      pop\n      pop\n      jump\t// out\n        /* \"Todo.sol\":932:989  function resetAll() public{\r... */\n    tag_24:\n        /* \"Todo.sol\":976:981  todos */\n      0x00\n      dup1\n        /* \"Todo.sol\":969:981  delete todos */\n      tag_79\n      swap2\n      swap1\n      tag_80\n      jump\t// in\n    tag_79:\n        /* \"Todo.sol\":932:989  function resetAll() public{\r... */\n      jump\t// out\n    tag_48:\n      dup3\n      dup1\n      sload\n      tag_81\n      swap1\n      tag_30\n      jump\t// in\n    tag_81:\n      swap1\n      0x00\n      mstore\n      keccak256(0x00, 0x20)\n      swap1\n      0x1f\n      add\n      0x20\n      swap1\n      div\n      dup2\n      add\n      swap3\n      dup3\n      tag_83\n      jumpi\n      0x00\n      dup6\n      sstore\n      jump(tag_82)\n    tag_83:\n      dup3\n      0x1f\n      lt\n      tag_84\n      jumpi\n      dup1\n      mload\n      not(0xff)\n      and\n      dup4\n      dup1\n      add\n      or\n      dup6\n      sstore\n      jump(tag_82)\n    tag_84:\n      dup3\n      dup1\n      add\n      0x01\n      add\n      dup6\n      sstore\n      dup3\n      iszero\n      tag_82\n      jumpi\n      swap2\n      dup3\n      add\n    tag_85:\n      dup3\n      dup2\n      gt\n      iszero\n      tag_86\n      jumpi\n      dup3\n      mload\n      dup3\n      sstore\n      swap2\n      0x20\n      add\n      swap2\n      swap1\n      0x01\n      add\n      swap1\n      jump(tag_85)\n    tag_86:\n    tag_82:\n      pop\n      swap1\n      pop\n      tag_87\n      swap2\n      swap1\n      tag_88\n      jump\t// in\n    tag_87:\n      pop\n      swap1\n      jump\t// out\n    tag_63:\n      pop\n      dup1\n      sload\n      tag_89\n      swap1\n      tag_30\n      jump\t// in\n    tag_89:\n      0x00\n      dup3\n      sstore\n      dup1\n      0x1f\n      lt\n      tag_91\n      jumpi\n      pop\n      jump(tag_90)\n    tag_91:\n      0x1f\n      add\n      0x20\n      swap1\n      div\n      swap1\n      0x00\n      mstore\n      keccak256(0x00, 0x20)\n      swap1\n      dup2\n      add\n      swap1\n      tag_92\n      swap2\n      swap1\n      tag_88\n      jump\t// in\n    tag_92:\n    tag_90:\n      pop\n      jump\t// out\n    tag_80:\n      pop\n      dup1\n      sload\n      0x00\n      dup3\n      sstore\n      0x02\n      mul\n      swap1\n      0x00\n      mstore\n      keccak256(0x00, 0x20)\n      swap1\n      dup2\n      add\n      swap1\n      tag_94\n      swap2\n      swap1\n      tag_95\n      jump\t// in\n    tag_94:\n      pop\n      jump\t// out\n    tag_88:\n    tag_96:\n      dup1\n      dup3\n      gt\n      iszero\n      tag_97\n      jumpi\n      0x00\n      dup2\n      0x00\n      swap1\n      sstore\n      pop\n      0x01\n      add\n      jump(tag_96)\n    tag_97:\n      pop\n      swap1\n      jump\t// out\n    tag_95:\n    tag_98:\n      dup1\n      dup3\n      gt\n      iszero\n      tag_99\n      jumpi\n      0x00\n      dup1\n      dup3\n      add\n      0x00\n      swap1\n      sstore\n      0x01\n      dup3\n      add\n      0x00\n      tag_100\n      swap2\n      swap1\n      tag_63\n      jump\t// in\n    tag_100:\n      pop\n      0x02\n      add\n      jump(tag_98)\n    tag_99:\n      pop\n      swap1\n      jump\t// out\n        /* \"#utility.yul\":7:419   */\n    tag_102:\n        /* \"#utility.yul\":85:90   */\n      0x00\n        /* \"#utility.yul\":110:176   */\n      tag_104\n        /* \"#utility.yul\":126:175   */\n      tag_105\n        /* \"#utility.yul\":168:174   */\n      dup5\n        /* \"#utility.yul\":126:175   */\n      tag_106\n      jump\t// in\n    tag_105:\n        /* \"#utility.yul\":110:176   */\n      tag_107\n      jump\t// in\n    tag_104:\n        /* \"#utility.yul\":101:176   */\n      swap1\n      pop\n        /* \"#utility.yul\":199:205   */\n      dup3\n        /* \"#utility.yul\":192:197   */\n      dup2\n        /* \"#utility.yul\":185:206   */\n      mstore\n        /* \"#utility.yul\":237:241   */\n      0x20\n        /* \"#utility.yul\":230:235   */\n      dup2\n        /* \"#utility.yul\":226:242   */\n      add\n        /* \"#utility.yul\":275:278   */\n      dup5\n        /* \"#utility.yul\":266:272   */\n      dup5\n        /* \"#utility.yul\":261:264   */\n      dup5\n        /* \"#utility.yul\":257:273   */\n      add\n        /* \"#utility.yul\":254:279   */\n      gt\n        /* \"#utility.yul\":251:363   */\n      iszero\n      tag_108\n      jumpi\n        /* \"#utility.yul\":282:361   */\n      tag_109\n      tag_110\n      jump\t// in\n    tag_109:\n        /* \"#utility.yul\":251:363   */\n    tag_108:\n        /* \"#utility.yul\":372:413   */\n      tag_111\n        /* \"#utility.yul\":406:412   */\n      dup5\n        /* \"#utility.yul\":401:404   */\n      dup3\n        /* \"#utility.yul\":396:399   */\n      dup6\n        /* \"#utility.yul\":372:413   */\n      tag_112\n      jump\t// in\n    tag_111:\n        /* \"#utility.yul\":91:419   */\n      pop\n        /* \"#utility.yul\":7:419   */\n      swap4\n      swap3\n      pop\n      pop\n      pop\n      jump\t// out\n        /* \"#utility.yul\":439:779   */\n    tag_113:\n        /* \"#utility.yul\":495:500   */\n      0x00\n        /* \"#utility.yul\":544:547   */\n      dup3\n        /* \"#utility.yul\":537:541   */\n      0x1f\n        /* \"#utility.yul\":529:535   */\n      dup4\n        /* \"#utility.yul\":525:542   */\n      add\n        /* \"#utility.yul\":521:548   */\n      slt\n        /* \"#utility.yul\":511:633   */\n      tag_115\n      jumpi\n        /* \"#utility.yul\":552:631   */\n      tag_116\n      tag_117\n      jump\t// in\n    tag_116:\n        /* \"#utility.yul\":511:633   */\n    tag_115:\n        /* \"#utility.yul\":669:675   */\n      dup2\n        /* \"#utility.yul\":656:676   */\n      calldataload\n        /* \"#utility.yul\":694:773   */\n      tag_118\n        /* \"#utility.yul\":769:772   */\n      dup5\n        /* \"#utility.yul\":761:767   */\n      dup3\n        /* \"#utility.yul\":754:758   */\n      0x20\n        /* \"#utility.yul\":746:752   */\n      dup7\n        /* \"#utility.yul\":742:759   */\n      add\n        /* \"#utility.yul\":694:773   */\n      tag_102\n      jump\t// in\n    tag_118:\n        /* \"#utility.yul\":685:773   */\n      swap2\n      pop\n        /* \"#utility.yul\":501:779   */\n      pop\n        /* \"#utility.yul\":439:779   */\n      swap3\n      swap2\n      pop\n      pop\n      jump\t// out\n        /* \"#utility.yul\":785:924   */\n    tag_119:\n        /* \"#utility.yul\":831:836   */\n      0x00\n        /* \"#utility.yul\":869:875   */\n      dup2\n        /* \"#utility.yul\":856:876   */\n      calldataload\n        /* \"#utility.yul\":847:876   */\n      swap1\n      pop\n        /* \"#utility.yul\":885:918   */\n      tag_121\n        /* \"#utility.yul\":912:917   */\n      dup2\n        /* \"#utility.yul\":885:918   */\n      tag_122\n      jump\t// in\n    tag_121:\n        /* \"#utility.yul\":785:924   */\n      swap3\n      swap2\n      pop\n      pop\n      jump\t// out\n        /* \"#utility.yul\":930:1259   */\n    tag_18:\n        /* \"#utility.yul\":989:995   */\n      0x00\n        /* \"#utility.yul\":1038:1040   */\n      0x20\n        /* \"#utility.yul\":1026:1035   */\n      dup3\n        /* \"#utility.yul\":1017:1024   */\n      dup5\n        /* \"#utility.yul\":1013:1036   */\n      sub\n        /* \"#utility.yul\":1009:1041   */\n      slt\n        /* \"#utility.yul\":1006:1125   */\n      iszero\n      tag_124\n      jumpi\n        /* \"#utility.yul\":1044:1123   */\n      tag_125\n      tag_126\n      jump\t// in\n    tag_125:\n        /* \"#utility.yul\":1006:1125   */\n    tag_124:\n        /* \"#utility.yul\":1164:1165   */\n      0x00\n        /* \"#utility.yul\":1189:1242   */\n      tag_127\n        /* \"#utility.yul\":1234:1241   */\n      dup5\n        /* \"#utility.yul\":1225:1231   */\n      dup3\n        /* \"#utility.yul\":1214:1223   */\n      dup6\n        /* \"#utility.yul\":1210:1232   */\n      add\n        /* \"#utility.yul\":1189:1242   */\n      tag_119\n      jump\t// in\n    tag_127:\n        /* \"#utility.yul\":1179:1242   */\n      swap2\n      pop\n        /* \"#utility.yul\":1135:1252   */\n      pop\n        /* \"#utility.yul\":930:1259   */\n      swap3\n      swap2\n      pop\n      pop\n      jump\t// out\n        /* \"#utility.yul\":1265:1919   */\n    tag_14:\n        /* \"#utility.yul\":1343:1349   */\n      0x00\n        /* \"#utility.yul\":1351:1357   */\n      dup1\n        /* \"#utility.yul\":1400:1402   */\n      0x40\n        /* \"#utility.yul\":1388:1397   */\n      dup4\n        /* \"#utility.yul\":1379:1386   */\n      dup6\n        /* \"#utility.yul\":1375:1398   */\n      sub\n        /* \"#utility.yul\":1371:1403   */\n      slt\n        /* \"#utility.yul\":1368:1487   */\n      iszero\n      tag_129\n      jumpi\n        /* \"#utility.yul\":1406:1485   */\n      tag_130\n      tag_126\n      jump\t// in\n    tag_130:\n        /* \"#utility.yul\":1368:1487   */\n    tag_129:\n        /* \"#utility.yul\":1526:1527   */\n      0x00\n        /* \"#utility.yul\":1551:1604   */\n      tag_131\n        /* \"#utility.yul\":1596:1603   */\n      dup6\n        /* \"#utility.yul\":1587:1593   */\n      dup3\n        /* \"#utility.yul\":1576:1585   */\n      dup7\n        /* \"#utility.yul\":1572:1594   */\n      add\n        /* \"#utility.yul\":1551:1604   */\n      tag_119\n      jump\t// in\n    tag_131:\n        /* \"#utility.yul\":1541:1604   */\n      swap3\n      pop\n        /* \"#utility.yul\":1497:1614   */\n      pop\n        /* \"#utility.yul\":1681:1683   */\n      0x20\n        /* \"#utility.yul\":1670:1679   */\n      dup4\n        /* \"#utility.yul\":1666:1684   */\n      add\n        /* \"#utility.yul\":1653:1685   */\n      calldataload\n        /* \"#utility.yul\":1712:1730   */\n      0xffffffffffffffff\n        /* \"#utility.yul\":1704:1710   */\n      dup2\n        /* \"#utility.yul\":1701:1731   */\n      gt\n        /* \"#utility.yul\":1698:1815   */\n      iszero\n      tag_132\n      jumpi\n        /* \"#utility.yul\":1734:1813   */\n      tag_133\n      tag_134\n      jump\t// in\n    tag_133:\n        /* \"#utility.yul\":1698:1815   */\n    tag_132:\n        /* \"#utility.yul\":1839:1902   */\n      tag_135\n        /* \"#utility.yul\":1894:1901   */\n      dup6\n        /* \"#utility.yul\":1885:1891   */\n      dup3\n        /* \"#utility.yul\":1874:1883   */\n      dup7\n        /* \"#utility.yul\":1870:1892   */\n      add\n        /* \"#utility.yul\":1839:1902   */\n      tag_113\n      jump\t// in\n    tag_135:\n        /* \"#utility.yul\":1829:1902   */\n      swap2\n      pop\n        /* \"#utility.yul\":1624:1912   */\n      pop\n        /* \"#utility.yul\":1265:1919   */\n      swap3\n      pop\n      swap3\n      swap1\n      pop\n      jump\t// out\n        /* \"#utility.yul\":1925:2169   */\n    tag_136:\n        /* \"#utility.yul\":2038:2048   */\n      0x00\n        /* \"#utility.yul\":2073:2163   */\n      tag_138\n        /* \"#utility.yul\":2159:2162   */\n      dup4\n        /* \"#utility.yul\":2151:2157   */\n      dup4\n        /* \"#utility.yul\":2073:2163   */\n      tag_139\n      jump\t// in\n    tag_138:\n        /* \"#utility.yul\":2059:2163   */\n      swap1\n      pop\n        /* \"#utility.yul\":1925:2169   */\n      swap3\n      swap2\n      pop\n      pop\n      jump\t// out\n        /* \"#utility.yul\":2229:3316   */\n    tag_140:\n        /* \"#utility.yul\":2392:2395   */\n      0x00\n        /* \"#utility.yul\":2421:2497   */\n      tag_142\n        /* \"#utility.yul\":2491:2496   */\n      dup3\n        /* \"#utility.yul\":2421:2497   */\n      tag_143\n      jump\t// in\n    tag_142:\n        /* \"#utility.yul\":2513:2621   */\n      tag_144\n        /* \"#utility.yul\":2614:2620   */\n      dup2\n        /* \"#utility.yul\":2609:2612   */\n      dup6\n        /* \"#utility.yul\":2513:2621   */\n      tag_145\n      jump\t// in\n    tag_144:\n        /* \"#utility.yul\":2506:2621   */\n      swap4\n      pop\n        /* \"#utility.yul\":2647:2650   */\n      dup4\n        /* \"#utility.yul\":2692:2696   */\n      0x20\n        /* \"#utility.yul\":2684:2690   */\n      dup3\n        /* \"#utility.yul\":2680:2697   */\n      mul\n        /* \"#utility.yul\":2675:2678   */\n      dup6\n        /* \"#utility.yul\":2671:2698   */\n      add\n        /* \"#utility.yul\":2722:2800   */\n      tag_146\n        /* \"#utility.yul\":2794:2799   */\n      dup6\n        /* \"#utility.yul\":2722:2800   */\n      tag_147\n      jump\t// in\n    tag_146:\n        /* \"#utility.yul\":2823:2830   */\n      dup1\n        /* \"#utility.yul\":2854:2855   */\n      0x00\n        /* \"#utility.yul\":2839:3271   */\n    tag_148:\n        /* \"#utility.yul\":2864:2870   */\n      dup6\n        /* \"#utility.yul\":2861:2862   */\n      dup2\n        /* \"#utility.yul\":2858:2871   */\n      lt\n        /* \"#utility.yul\":2839:3271   */\n      iszero\n      tag_150\n      jumpi\n        /* \"#utility.yul\":2935:2944   */\n      dup5\n        /* \"#utility.yul\":2929:2933   */\n      dup5\n        /* \"#utility.yul\":2925:2945   */\n      sub\n        /* \"#utility.yul\":2920:2923   */\n      dup10\n        /* \"#utility.yul\":2913:2946   */\n      mstore\n        /* \"#utility.yul\":2986:2992   */\n      dup2\n        /* \"#utility.yul\":2980:2993   */\n      mload\n        /* \"#utility.yul\":3014:3122   */\n      tag_151\n        /* \"#utility.yul\":3117:3121   */\n      dup6\n        /* \"#utility.yul\":3102:3115   */\n      dup3\n        /* \"#utility.yul\":3014:3122   */\n      tag_136\n      jump\t// in\n    tag_151:\n        /* \"#utility.yul\":3006:3122   */\n      swap5\n      pop\n        /* \"#utility.yul\":3145:3227   */\n      tag_152\n        /* \"#utility.yul\":3220:3226   */\n      dup4\n        /* \"#utility.yul\":3145:3227   */\n      tag_153\n      jump\t// in\n    tag_152:\n        /* \"#utility.yul\":3135:3227   */\n      swap3\n      pop\n        /* \"#utility.yul\":3256:3260   */\n      0x20\n        /* \"#utility.yul\":3251:3254   */\n      dup11\n        /* \"#utility.yul\":3247:3261   */\n      add\n        /* \"#utility.yul\":3240:3261   */\n      swap10\n      pop\n        /* \"#utility.yul\":2899:3271   */\n      pop\n        /* \"#utility.yul\":2886:2887   */\n      0x01\n        /* \"#utility.yul\":2883:2884   */\n      dup2\n        /* \"#utility.yul\":2879:2888   */\n      add\n        /* \"#utility.yul\":2874:2888   */\n      swap1\n      pop\n        /* \"#utility.yul\":2839:3271   */\n      jump(tag_148)\n    tag_150:\n        /* \"#utility.yul\":2843:2857   */\n      pop\n        /* \"#utility.yul\":3287:3291   */\n      dup3\n        /* \"#utility.yul\":3280:3291   */\n      swap8\n      pop\n        /* \"#utility.yul\":3307:3310   */\n      dup8\n        /* \"#utility.yul\":3300:3310   */\n      swap6\n      pop\n        /* \"#utility.yul\":2397:3316   */\n      pop\n      pop\n      pop\n      pop\n      pop\n        /* \"#utility.yul\":2229:3316   */\n      swap3\n      swap2\n      pop\n      pop\n      jump\t// out\n        /* \"#utility.yul\":3322:3666   */\n    tag_154:\n        /* \"#utility.yul\":3400:3403   */\n      0x00\n        /* \"#utility.yul\":3428:3467   */\n      tag_156\n        /* \"#utility.yul\":3461:3466   */\n      dup3\n        /* \"#utility.yul\":3428:3467   */\n      tag_157\n      jump\t// in\n    tag_156:\n        /* \"#utility.yul\":3483:3544   */\n      tag_158\n        /* \"#utility.yul\":3537:3543   */\n      dup2\n        /* \"#utility.yul\":3532:3535   */\n      dup6\n        /* \"#utility.yul\":3483:3544   */\n      tag_159\n      jump\t// in\n    tag_158:\n        /* \"#utility.yul\":3476:3544   */\n      swap4\n      pop\n        /* \"#utility.yul\":3553:3605   */\n      tag_160\n        /* \"#utility.yul\":3598:3604   */\n      dup2\n        /* \"#utility.yul\":3593:3596   */\n      dup6\n        /* \"#utility.yul\":3586:3590   */\n      0x20\n        /* \"#utility.yul\":3579:3584   */\n      dup7\n        /* \"#utility.yul\":3575:3591   */\n      add\n        /* \"#utility.yul\":3553:3605   */\n      tag_161\n      jump\t// in\n    tag_160:\n        /* \"#utility.yul\":3630:3659   */\n      tag_162\n        /* \"#utility.yul\":3652:3658   */\n      dup2\n        /* \"#utility.yul\":3630:3659   */\n      tag_163\n      jump\t// in\n    tag_162:\n        /* \"#utility.yul\":3625:3628   */\n      dup5\n        /* \"#utility.yul\":3621:3660   */\n      add\n        /* \"#utility.yul\":3614:3660   */\n      swap2\n      pop\n        /* \"#utility.yul\":3404:3666   */\n      pop\n        /* \"#utility.yul\":3322:3666   */\n      swap3\n      swap2\n      pop\n      pop\n      jump\t// out\n        /* \"#utility.yul\":3672:4037   */\n    tag_164:\n        /* \"#utility.yul\":3814:3817   */\n      0x00\n        /* \"#utility.yul\":3835:3901   */\n      tag_166\n        /* \"#utility.yul\":3899:3900   */\n      0x05\n        /* \"#utility.yul\":3894:3897   */\n      dup4\n        /* \"#utility.yul\":3835:3901   */\n      tag_167\n      jump\t// in\n    tag_166:\n        /* \"#utility.yul\":3828:3901   */\n      swap2\n      pop\n        /* \"#utility.yul\":3910:4003   */\n      tag_168\n        /* \"#utility.yul\":3999:4002   */\n      dup3\n        /* \"#utility.yul\":3910:4003   */\n      tag_169\n      jump\t// in\n    tag_168:\n        /* \"#utility.yul\":4028:4030   */\n      0x20\n        /* \"#utility.yul\":4023:4026   */\n      dup3\n        /* \"#utility.yul\":4019:4031   */\n      add\n        /* \"#utility.yul\":4012:4031   */\n      swap1\n      pop\n        /* \"#utility.yul\":3672:4037   */\n      swap2\n      swap1\n      pop\n      jump\t// out\n        /* \"#utility.yul\":4093:4685   */\n    tag_139:\n        /* \"#utility.yul\":4196:4199   */\n      0x00\n        /* \"#utility.yul\":4232:4236   */\n      0x40\n        /* \"#utility.yul\":4227:4230   */\n      dup4\n        /* \"#utility.yul\":4223:4237   */\n      add\n        /* \"#utility.yul\":4317:4321   */\n      0x00\n        /* \"#utility.yul\":4310:4315   */\n      dup4\n        /* \"#utility.yul\":4306:4322   */\n      add\n        /* \"#utility.yul\":4300:4323   */\n      mload\n        /* \"#utility.yul\":4336:4399   */\n      tag_171\n        /* \"#utility.yul\":4393:4397   */\n      0x00\n        /* \"#utility.yul\":4388:4391   */\n      dup7\n        /* \"#utility.yul\":4384:4398   */\n      add\n        /* \"#utility.yul\":4370:4382   */\n      dup3\n        /* \"#utility.yul\":4336:4399   */\n      tag_172\n      jump\t// in\n    tag_171:\n        /* \"#utility.yul\":4247:4409   */\n      pop\n        /* \"#utility.yul\":4495:4499   */\n      0x20\n        /* \"#utility.yul\":4488:4493   */\n      dup4\n        /* \"#utility.yul\":4484:4500   */\n      add\n        /* \"#utility.yul\":4478:4501   */\n      mload\n        /* \"#utility.yul\":4548:4551   */\n      dup5\n        /* \"#utility.yul\":4542:4546   */\n      dup3\n        /* \"#utility.yul\":4538:4552   */\n      sub\n        /* \"#utility.yul\":4531:4535   */\n      0x20\n        /* \"#utility.yul\":4526:4529   */\n      dup7\n        /* \"#utility.yul\":4522:4536   */\n      add\n        /* \"#utility.yul\":4515:4553   */\n      mstore\n        /* \"#utility.yul\":4574:4647   */\n      tag_173\n        /* \"#utility.yul\":4642:4646   */\n      dup3\n        /* \"#utility.yul\":4628:4640   */\n      dup3\n        /* \"#utility.yul\":4574:4647   */\n      tag_154\n      jump\t// in\n    tag_173:\n        /* \"#utility.yul\":4566:4647   */\n      swap2\n      pop\n        /* \"#utility.yul\":4419:4658   */\n      pop\n        /* \"#utility.yul\":4675:4679   */\n      dup1\n        /* \"#utility.yul\":4668:4679   */\n      swap2\n      pop\n        /* \"#utility.yul\":4201:4685   */\n      pop\n        /* \"#utility.yul\":4093:4685   */\n      swap3\n      swap2\n      pop\n      pop\n      jump\t// out\n        /* \"#utility.yul\":4691:4799   */\n    tag_172:\n        /* \"#utility.yul\":4768:4792   */\n      tag_175\n        /* \"#utility.yul\":4786:4791   */\n      dup2\n        /* \"#utility.yul\":4768:4792   */\n      tag_176\n      jump\t// in\n    tag_175:\n        /* \"#utility.yul\":4763:4766   */\n      dup3\n        /* \"#utility.yul\":4756:4793   */\n      mstore\n        /* \"#utility.yul\":4691:4799   */\n      pop\n      pop\n      jump\t// out\n        /* \"#utility.yul\":4805:5266   */\n    tag_11:\n        /* \"#utility.yul\":4992:4996   */\n      0x00\n        /* \"#utility.yul\":5030:5032   */\n      0x20\n        /* \"#utility.yul\":5019:5028   */\n      dup3\n        /* \"#utility.yul\":5015:5033   */\n      add\n        /* \"#utility.yul\":5007:5033   */\n      swap1\n      pop\n        /* \"#utility.yul\":5079:5088   */\n      dup2\n        /* \"#utility.yul\":5073:5077   */\n      dup2\n        /* \"#utility.yul\":5069:5089   */\n      sub\n        /* \"#utility.yul\":5065:5066   */\n      0x00\n        /* \"#utility.yul\":5054:5063   */\n      dup4\n        /* \"#utility.yul\":5050:5067   */\n      add\n        /* \"#utility.yul\":5043:5090   */\n      mstore\n        /* \"#utility.yul\":5107:5259   */\n      tag_178\n        /* \"#utility.yul\":5254:5258   */\n      dup2\n        /* \"#utility.yul\":5245:5251   */\n      dup5\n        /* \"#utility.yul\":5107:5259   */\n      tag_140\n      jump\t// in\n    tag_178:\n        /* \"#utility.yul\":5099:5259   */\n      swap1\n      pop\n        /* \"#utility.yul\":4805:5266   */\n      swap3\n      swap2\n      pop\n      pop\n      jump\t// out\n        /* \"#utility.yul\":5272:5691   */\n    tag_74:\n        /* \"#utility.yul\":5438:5442   */\n      0x00\n        /* \"#utility.yul\":5476:5478   */\n      0x20\n        /* \"#utility.yul\":5465:5474   */\n      dup3\n        /* \"#utility.yul\":5461:5479   */\n      add\n        /* \"#utility.yul\":5453:5479   */\n      swap1\n      pop\n        /* \"#utility.yul\":5525:5534   */\n      dup2\n        /* \"#utility.yul\":5519:5523   */\n      dup2\n        /* \"#utility.yul\":5515:5535   */\n      sub\n        /* \"#utility.yul\":5511:5512   */\n      0x00\n        /* \"#utility.yul\":5500:5509   */\n      dup4\n        /* \"#utility.yul\":5496:5513   */\n      add\n        /* \"#utility.yul\":5489:5536   */\n      mstore\n        /* \"#utility.yul\":5553:5684   */\n      tag_180\n        /* \"#utility.yul\":5679:5683   */\n      dup2\n        /* \"#utility.yul\":5553:5684   */\n      tag_164\n      jump\t// in\n    tag_180:\n        /* \"#utility.yul\":5545:5684   */\n      swap1\n      pop\n        /* \"#utility.yul\":5272:5691   */\n      swap2\n      swap1\n      pop\n      jump\t// out\n        /* \"#utility.yul\":5697:5826   */\n    tag_107:\n        /* \"#utility.yul\":5731:5737   */\n      0x00\n        /* \"#utility.yul\":5758:5778   */\n      tag_182\n      tag_183\n      jump\t// in\n    tag_182:\n        /* \"#utility.yul\":5748:5778   */\n      swap1\n      pop\n        /* \"#utility.yul\":5787:5820   */\n      tag_184\n        /* \"#utility.yul\":5815:5819   */\n      dup3\n        /* \"#utility.yul\":5807:5813   */\n      dup3\n        /* \"#utility.yul\":5787:5820   */\n      tag_185\n      jump\t// in\n    tag_184:\n        /* \"#utility.yul\":5697:5826   */\n      swap2\n      swap1\n      pop\n      jump\t// out\n        /* \"#utility.yul\":5832:5907   */\n    tag_183:\n        /* \"#utility.yul\":5865:5871   */\n      0x00\n        /* \"#utility.yul\":5898:5900   */\n      0x40\n        /* \"#utility.yul\":5892:5901   */\n      mload\n        /* \"#utility.yul\":5882:5901   */\n      swap1\n      pop\n        /* \"#utility.yul\":5832:5907   */\n      swap1\n      jump\t// out\n        /* \"#utility.yul\":5913:6221   */\n    tag_106:\n        /* \"#utility.yul\":5975:5979   */\n      0x00\n        /* \"#utility.yul\":6065:6083   */\n      0xffffffffffffffff\n        /* \"#utility.yul\":6057:6063   */\n      dup3\n        /* \"#utility.yul\":6054:6084   */\n      gt\n        /* \"#utility.yul\":6051:6107   */\n      iszero\n      tag_188\n      jumpi\n        /* \"#utility.yul\":6087:6105   */\n      tag_189\n      tag_190\n      jump\t// in\n    tag_189:\n        /* \"#utility.yul\":6051:6107   */\n    tag_188:\n        /* \"#utility.yul\":6125:6154   */\n      tag_191\n        /* \"#utility.yul\":6147:6153   */\n      dup3\n        /* \"#utility.yul\":6125:6154   */\n      tag_163\n      jump\t// in\n    tag_191:\n        /* \"#utility.yul\":6117:6154   */\n      swap1\n      pop\n        /* \"#utility.yul\":6209:6213   */\n      0x20\n        /* \"#utility.yul\":6203:6207   */\n      dup2\n        /* \"#utility.yul\":6199:6214   */\n      add\n        /* \"#utility.yul\":6191:6214   */\n      swap1\n      pop\n        /* \"#utility.yul\":5913:6221   */\n      swap2\n      swap1\n      pop\n      jump\t// out\n        /* \"#utility.yul\":6227:6381   */\n    tag_147:\n        /* \"#utility.yul\":6316:6320   */\n      0x00\n        /* \"#utility.yul\":6339:6342   */\n      dup2\n        /* \"#utility.yul\":6331:6342   */\n      swap1\n      pop\n        /* \"#utility.yul\":6369:6373   */\n      0x20\n        /* \"#utility.yul\":6364:6367   */\n      dup3\n        /* \"#utility.yul\":6360:6374   */\n      add\n        /* \"#utility.yul\":6352:6374   */\n      swap1\n      pop\n        /* \"#utility.yul\":6227:6381   */\n      swap2\n      swap1\n      pop\n      jump\t// out\n        /* \"#utility.yul\":6387:6523   */\n    tag_143:\n        /* \"#utility.yul\":6476:6482   */\n      0x00\n        /* \"#utility.yul\":6510:6515   */\n      dup2\n        /* \"#utility.yul\":6504:6516   */\n      mload\n        /* \"#utility.yul\":6494:6516   */\n      swap1\n      pop\n        /* \"#utility.yul\":6387:6523   */\n      swap2\n      swap1\n      pop\n      jump\t// out\n        /* \"#utility.yul\":6529:6628   */\n    tag_157:\n        /* \"#utility.yul\":6581:6587   */\n      0x00\n        /* \"#utility.yul\":6615:6620   */\n      dup2\n        /* \"#utility.yul\":6609:6621   */\n      mload\n        /* \"#utility.yul\":6599:6621   */\n      swap1\n      pop\n        /* \"#utility.yul\":6529:6628   */\n      swap2\n      swap1\n      pop\n      jump\t// out\n        /* \"#utility.yul\":6634:6769   */\n    tag_153:\n        /* \"#utility.yul\":6726:6730   */\n      0x00\n        /* \"#utility.yul\":6758:6762   */\n      0x20\n        /* \"#utility.yul\":6753:6756   */\n      dup3\n        /* \"#utility.yul\":6749:6763   */\n      add\n        /* \"#utility.yul\":6741:6763   */\n      swap1\n      pop\n        /* \"#utility.yul\":6634:6769   */\n      swap2\n      swap1\n      pop\n      jump\t// out\n        /* \"#utility.yul\":6775:6981   */\n    tag_145:\n        /* \"#utility.yul\":6896:6907   */\n      0x00\n        /* \"#utility.yul\":6930:6936   */\n      dup3\n        /* \"#utility.yul\":6925:6928   */\n      dup3\n        /* \"#utility.yul\":6918:6937   */\n      mstore\n        /* \"#utility.yul\":6970:6974   */\n      0x20\n        /* \"#utility.yul\":6965:6968   */\n      dup3\n        /* \"#utility.yul\":6961:6975   */\n      add\n        /* \"#utility.yul\":6946:6975   */\n      swap1\n      pop\n        /* \"#utility.yul\":6775:6981   */\n      swap3\n      swap2\n      pop\n      pop\n      jump\t// out\n        /* \"#utility.yul\":6987:7146   */\n    tag_159:\n        /* \"#utility.yul\":7061:7072   */\n      0x00\n        /* \"#utility.yul\":7095:7101   */\n      dup3\n        /* \"#utility.yul\":7090:7093   */\n      dup3\n        /* \"#utility.yul\":7083:7102   */\n      mstore\n        /* \"#utility.yul\":7135:7139   */\n      0x20\n        /* \"#utility.yul\":7130:7133   */\n      dup3\n        /* \"#utility.yul\":7126:7140   */\n      add\n        /* \"#utility.yul\":7111:7140   */\n      swap1\n      pop\n        /* \"#utility.yul\":6987:7146   */\n      swap3\n      swap2\n      pop\n      pop\n      jump\t// out\n        /* \"#utility.yul\":7152:7321   */\n    tag_167:\n        /* \"#utility.yul\":7236:7247   */\n      0x00\n        /* \"#utility.yul\":7270:7276   */\n      dup3\n        /* \"#utility.yul\":7265:7268   */\n      dup3\n        /* \"#utility.yul\":7258:7277   */\n      mstore\n        /* \"#utility.yul\":7310:7314   */\n      0x20\n        /* \"#utility.yul\":7305:7308   */\n      dup3\n        /* \"#utility.yul\":7301:7315   */\n      add\n        /* \"#utility.yul\":7286:7315   */\n      swap1\n      pop\n        /* \"#utility.yul\":7152:7321   */\n      swap3\n      swap2\n      pop\n      pop\n      jump\t// out\n        /* \"#utility.yul\":7327:7404   */\n    tag_176:\n        /* \"#utility.yul\":7364:7371   */\n      0x00\n        /* \"#utility.yul\":7393:7398   */\n      dup2\n        /* \"#utility.yul\":7382:7398   */\n      swap1\n      pop\n        /* \"#utility.yul\":7327:7404   */\n      swap2\n      swap1\n      pop\n      jump\t// out\n        /* \"#utility.yul\":7410:7564   */\n    tag_112:\n        /* \"#utility.yul\":7494:7500   */\n      dup3\n        /* \"#utility.yul\":7489:7492   */\n      dup2\n        /* \"#utility.yul\":7484:7487   */\n      dup4\n        /* \"#utility.yul\":7471:7501   */\n      calldatacopy\n        /* \"#utility.yul\":7556:7557   */\n      0x00\n        /* \"#utility.yul\":7547:7553   */\n      dup4\n        /* \"#utility.yul\":7542:7545   */\n      dup4\n        /* \"#utility.yul\":7538:7554   */\n      add\n        /* \"#utility.yul\":7531:7558   */\n      mstore\n        /* \"#utility.yul\":7410:7564   */\n      pop\n      pop\n      pop\n      jump\t// out\n        /* \"#utility.yul\":7570:7877   */\n    tag_161:\n        /* \"#utility.yul\":7638:7639   */\n      0x00\n        /* \"#utility.yul\":7648:7761   */\n    tag_202:\n        /* \"#utility.yul\":7662:7668   */\n      dup4\n        /* \"#utility.yul\":7659:7660   */\n      dup2\n        /* \"#utility.yul\":7656:7669   */\n      lt\n        /* \"#utility.yul\":7648:7761   */\n      iszero\n      tag_204\n      jumpi\n        /* \"#utility.yul\":7747:7748   */\n      dup1\n        /* \"#utility.yul\":7742:7745   */\n      dup3\n        /* \"#utility.yul\":7738:7749   */\n      add\n        /* \"#utility.yul\":7732:7750   */\n      mload\n        /* \"#utility.yul\":7728:7729   */\n      dup2\n        /* \"#utility.yul\":7723:7726   */\n      dup5\n        /* \"#utility.yul\":7719:7730   */\n      add\n        /* \"#utility.yul\":7712:7751   */\n      mstore\n        /* \"#utility.yul\":7684:7686   */\n      0x20\n        /* \"#utility.yul\":7681:7682   */\n      dup2\n        /* \"#utility.yul\":7677:7687   */\n      add\n        /* \"#utility.yul\":7672:7687   */\n      swap1\n      pop\n        /* \"#utility.yul\":7648:7761   */\n      jump(tag_202)\n    tag_204:\n        /* \"#utility.yul\":7779:7785   */\n      dup4\n        /* \"#utility.yul\":7776:7777   */\n      dup2\n        /* \"#utility.yul\":7773:7786   */\n      gt\n        /* \"#utility.yul\":7770:7871   */\n      iszero\n      tag_205\n      jumpi\n        /* \"#utility.yul\":7859:7860   */\n      0x00\n        /* \"#utility.yul\":7850:7856   */\n      dup5\n        /* \"#utility.yul\":7845:7848   */\n      dup5\n        /* \"#utility.yul\":7841:7857   */\n      add\n        /* \"#utility.yul\":7834:7861   */\n      mstore\n        /* \"#utility.yul\":7770:7871   */\n    tag_205:\n        /* \"#utility.yul\":7619:7877   */\n      pop\n        /* \"#utility.yul\":7570:7877   */\n      pop\n      pop\n      pop\n      jump\t// out\n        /* \"#utility.yul\":7883:8203   */\n    tag_30:\n        /* \"#utility.yul\":7927:7933   */\n      0x00\n        /* \"#utility.yul\":7964:7965   */\n      0x02\n        /* \"#utility.yul\":7958:7962   */\n      dup3\n        /* \"#utility.yul\":7954:7966   */\n      div\n        /* \"#utility.yul\":7944:7966   */\n      swap1\n      pop\n        /* \"#utility.yul\":8011:8012   */\n      0x01\n        /* \"#utility.yul\":8005:8009   */\n      dup3\n        /* \"#utility.yul\":8001:8013   */\n      and\n        /* \"#utility.yul\":8032:8050   */\n      dup1\n        /* \"#utility.yul\":8022:8103   */\n      tag_207\n      jumpi\n        /* \"#utility.yul\":8088:8092   */\n      0x7f\n        /* \"#utility.yul\":8080:8086   */\n      dup3\n        /* \"#utility.yul\":8076:8093   */\n      and\n        /* \"#utility.yul\":8066:8093   */\n      swap2\n      pop\n        /* \"#utility.yul\":8022:8103   */\n    tag_207:\n        /* \"#utility.yul\":8150:8152   */\n      0x20\n        /* \"#utility.yul\":8142:8148   */\n      dup3\n        /* \"#utility.yul\":8139:8153   */\n      lt\n        /* \"#utility.yul\":8119:8137   */\n      dup2\n        /* \"#utility.yul\":8116:8154   */\n      eq\n        /* \"#utility.yul\":8113:8197   */\n      iszero\n      tag_208\n      jumpi\n        /* \"#utility.yul\":8169:8187   */\n      tag_209\n      tag_210\n      jump\t// in\n    tag_209:\n        /* \"#utility.yul\":8113:8197   */\n    tag_208:\n        /* \"#utility.yul\":7934:8203   */\n      pop\n        /* \"#utility.yul\":7883:8203   */\n      swap2\n      swap1\n      pop\n      jump\t// out\n        /* \"#utility.yul\":8209:8490   */\n    tag_185:\n        /* \"#utility.yul\":8292:8319   */\n      tag_212\n        /* \"#utility.yul\":8314:8318   */\n      dup3\n        /* \"#utility.yul\":8292:8319   */\n      tag_163\n      jump\t// in\n    tag_212:\n        /* \"#utility.yul\":8284:8290   */\n      dup2\n        /* \"#utility.yul\":8280:8320   */\n      add\n        /* \"#utility.yul\":8422:8428   */\n      dup2\n        /* \"#utility.yul\":8410:8420   */\n      dup2\n        /* \"#utility.yul\":8407:8429   */\n      lt\n        /* \"#utility.yul\":8386:8404   */\n      0xffffffffffffffff\n        /* \"#utility.yul\":8374:8384   */\n      dup3\n        /* \"#utility.yul\":8371:8405   */\n      gt\n        /* \"#utility.yul\":8368:8430   */\n      or\n        /* \"#utility.yul\":8365:8453   */\n      iszero\n      tag_213\n      jumpi\n        /* \"#utility.yul\":8433:8451   */\n      tag_214\n      tag_190\n      jump\t// in\n    tag_214:\n        /* \"#utility.yul\":8365:8453   */\n    tag_213:\n        /* \"#utility.yul\":8473:8483   */\n      dup1\n        /* \"#utility.yul\":8469:8471   */\n      0x40\n        /* \"#utility.yul\":8462:8484   */\n      mstore\n        /* \"#utility.yul\":8252:8490   */\n      pop\n        /* \"#utility.yul\":8209:8490   */\n      pop\n      pop\n      jump\t// out\n        /* \"#utility.yul\":8496:8729   */\n    tag_50:\n        /* \"#utility.yul\":8535:8538   */\n      0x00\n        /* \"#utility.yul\":8558:8582   */\n      tag_216\n        /* \"#utility.yul\":8576:8581   */\n      dup3\n        /* \"#utility.yul\":8558:8582   */\n      tag_176\n      jump\t// in\n    tag_216:\n        /* \"#utility.yul\":8549:8582   */\n      swap2\n      pop\n        /* \"#utility.yul\":8604:8670   */\n      0xffffffffffffffffffffffffffffffffffffffffffffffffffffffffffffffff\n        /* \"#utility.yul\":8597:8602   */\n      dup3\n        /* \"#utility.yul\":8594:8671   */\n      eq\n        /* \"#utility.yul\":8591:8694   */\n      iszero\n      tag_217\n      jumpi\n        /* \"#utility.yul\":8674:8692   */\n      tag_218\n      tag_219\n      jump\t// in\n    tag_218:\n        /* \"#utility.yul\":8591:8694   */\n    tag_217:\n        /* \"#utility.yul\":8721:8722   */\n      0x01\n        /* \"#utility.yul\":8714:8719   */\n      dup3\n        /* \"#utility.yul\":8710:8723   */\n      add\n        /* \"#utility.yul\":8703:8723   */\n      swap1\n      pop\n        /* \"#utility.yul\":8496:8729   */\n      swap2\n      swap1\n      pop\n      jump\t// out\n        /* \"#utility.yul\":8735:8915   */\n    tag_219:\n        /* \"#utility.yul\":8783:8860   */\n      0x4e487b7100000000000000000000000000000000000000000000000000000000\n        /* \"#utility.yul\":8780:8781   */\n      0x00\n        /* \"#utility.yul\":8773:8861   */\n      mstore\n        /* \"#utility.yul\":8880:8884   */\n      0x11\n        /* \"#utility.yul\":8877:8878   */\n      0x04\n        /* \"#utility.yul\":8870:8885   */\n      mstore\n        /* \"#utility.yul\":8904:8908   */\n      0x24\n        /* \"#utility.yul\":8901:8902   */\n      0x00\n        /* \"#utility.yul\":8894:8909   */\n      revert\n        /* \"#utility.yul\":8921:9101   */\n    tag_210:\n        /* \"#utility.yul\":8969:9046   */\n      0x4e487b7100000000000000000000000000000000000000000000000000000000\n        /* \"#utility.yul\":8966:8967   */\n      0x00\n        /* \"#utility.yul\":8959:9047   */\n      mstore\n        /* \"#utility.yul\":9066:9070   */\n      0x22\n        /* \"#utility.yul\":9063:9064   */\n      0x04\n        /* \"#utility.yul\":9056:9071   */\n      mstore\n        /* \"#utility.yul\":9090:9094   */\n      0x24\n        /* \"#utility.yul\":9087:9088   */\n      0x00\n        /* \"#utility.yul\":9080:9095   */\n      revert\n        /* \"#utility.yul\":9107:9287   */\n    tag_41:\n        /* \"#utility.yul\":9155:9232   */\n      0x4e487b7100000000000000000000000000000000000000000000000000000000\n        /* \"#utility.yul\":9152:9153   */\n      0x00\n        /* \"#utility.yul\":9145:9233   */\n      mstore\n        /* \"#utility.yul\":9252:9256   */\n      0x32\n        /* \"#utility.yul\":9249:9250   */\n      0x04\n        /* \"#utility.yul\":9242:9257   */\n      mstore\n        /* \"#utility.yul\":9276:9280   */\n      0x24\n        /* \"#utility.yul\":9273:9274   */\n      0x00\n        /* \"#utility.yul\":9266:9281   */\n      revert\n        /* \"#utility.yul\":9293:9473   */\n    tag_190:\n        /* \"#utility.yul\":9341:9418   */\n      0x4e487b7100000000000000000000000000000000000000000000000000000000\n        /* \"#utility.yul\":9338:9339   */\n      0x00\n        /* \"#utility.yul\":9331:9419   */\n      mstore\n        /* \"#utility.yul\":9438:9442   */\n      0x41\n        /* \"#utility.yul\":9435:9436   */\n      0x04\n        /* \"#utility.yul\":9428:9443   */\n      mstore\n        /* \"#utility.yul\":9462:9466   */\n      0x24\n        /* \"#utility.yul\":9459:9460   */\n      0x00\n        /* \"#utility.yul\":9452:9467   */\n      revert\n        /* \"#utility.yul\":9479:9596   */\n    tag_117:\n        /* \"#utility.yul\":9588:9589   */\n      0x00\n        /* \"#utility.yul\":9585:9586   */\n      dup1\n        /* \"#utility.yul\":9578:9590   */\n      revert\n        /* \"#utility.yul\":9602:9719   */\n    tag_110:\n        /* \"#utility.yul\":9711:9712   */\n      0x00\n        /* \"#utility.yul\":9708:9709   */\n      dup1\n        /* \"#utility.yul\":9701:9713   */\n      revert\n        /* \"#utility.yul\":9725:9842   */\n    tag_134:\n        /* \"#utility.yul\":9834:9835   */\n      0x00\n        /* \"#utility.yul\":9831:9832   */\n      dup1\n        /* \"#utility.yul\":9824:9836   */\n      revert\n        /* \"#utility.yul\":9848:9965   */\n    tag_126:\n        /* \"#utility.yul\":9957:9958   */\n      0x00\n        /* \"#utility.yul\":9954:9955   */\n      dup1\n        /* \"#utility.yul\":9947:9959   */\n      revert\n        /* \"#utility.yul\":9971:10073   */\n    tag_163:\n        /* \"#utility.yul\":10012:10018   */\n      0x00\n        /* \"#utility.yul\":10063:10065   */\n      0x1f\n        /* \"#utility.yul\":10059:10066   */\n      not\n        /* \"#utility.yul\":10054:10056   */\n      0x1f\n        /* \"#utility.yul\":10047:10052   */\n      dup4\n        /* \"#utility.yul\":10043:10057   */\n      add\n        /* \"#utility.yul\":10039:10067   */\n      and\n        /* \"#utility.yul\":10029:10067   */\n      swap1\n      pop\n        /* \"#utility.yul\":9971:10073   */\n      swap2\n      swap1\n      pop\n      jump\t// out\n        /* \"#utility.yul\":10079:10234   */\n    tag_169:\n        /* \"#utility.yul\":10219:10226   */\n      0x4572726f72000000000000000000000000000000000000000000000000000000\n        /* \"#utility.yul\":10215:10216   */\n      0x00\n        /* \"#utility.yul\":10207:10213   */\n      dup3\n        /* \"#utility.yul\":10203:10217   */\n      add\n        /* \"#utility.yul\":10196:10227   */\n      mstore\n        /* \"#utility.yul\":10079:10234   */\n      pop\n      jump\t// out\n        /* \"#utility.yul\":10240:10362   */\n    tag_122:\n        /* \"#utility.yul\":10313:10337   */\n      tag_231\n        /* \"#utility.yul\":10331:10336   */\n      dup2\n        /* \"#utility.yul\":10313:10337   */\n      tag_176\n      jump\t// in\n    tag_231:\n        /* \"#utility.yul\":10306:10311   */\n      dup2\n        /* \"#utility.yul\":10303:10338   */\n      eq\n        /* \"#utility.yul\":10293:10356   */\n      tag_232\n      jumpi\n        /* \"#utility.yul\":10352:10353   */\n      0x00\n        /* \"#utility.yul\":10349:10350   */\n      dup1\n        /* \"#utility.yul\":10342:10354   */\n      revert\n        /* \"#utility.yul\":10293:10356   */\n    tag_232:\n        /* \"#utility.yul\":10240:10362   */\n      pop\n      jump\t// out\n\n    auxdata: 0xa26469706673582212208ba64a2597be480a4af889059493cec281fa9fb44302b098f7bdd1c3ec7cda6e64736f6c63430008070033\n}\n",
				"bytecode": {
					"linkReferences": {},
					"object": "608060405234801561001057600080fd5b50610abf806100206000396000f3fe608060405234801561001057600080fd5b50600436106100575760003560e01c8063600060eb1461005c57806367e8b7f71461007a578063a3dad43e14610096578063c1da2020146100b2578063e103aef5146100ce575b600080fd5b6100646100d8565b6040516100719190610772565b60405180910390f35b610094600480360381019061008f91906105e5565b6101d3565b005b6100b060048036038101906100ab91906105b8565b610263565b005b6100cc60048036038101906100c791906105e5565b6102f5565b005b6100d66103ee565b005b60606000805480602002602001604051908101604052809291908181526020016000905b828210156101ca578382906000526020600020906002020160405180604001604052908160008201548152602001600182018054610139906108bc565b80601f0160208091040260200160405190810160405280929190818152602001828054610165906108bc565b80156101b25780601f10610187576101008083540402835291602001916101b2565b820191906000526020600020905b81548152906001019060200180831161019557829003601f168201915b505050505081525050815260200190600101906100fc565b50505050905090565b60005b60008054905081101561025e5782600082815481106101f8576101f76109c6565b5b906000526020600020906002020160000154141561024b578160008281548110610225576102246109c6565b5b906000526020600020906002020160010190805190602001906102499291906103fd565b505b80806102569061091f565b9150506101d6565b505050565b60005b6000805490508110156102f1578160008281548110610288576102876109c6565b5b90600052602060002090600202016000015414156102de57600081815481106102b4576102b36109c6565b5b90600052602060002090600202016000808201600090556001820160006102db9190610483565b50505b80806102e99061091f565b915050610266565b5050565b60005b6000805490508110156103e957826000828154811061031a576103196109c6565b5b906000526020600020906002020160000154141561036d576040517f08c379a000000000000000000000000000000000000000000000000000000000815260040161036490610794565b60405180910390fd5b600060405180604001604052808581526020018481525090806001815401808255809150506001900390600052602060002090600202016000909190919091506000820151816000015560208201518160010190805190602001906103d39291906103fd565b50505080806103e19061091f565b9150506102f8565b505050565b6000806103fb91906104c3565b565b828054610409906108bc565b90600052602060002090601f01602090048101928261042b5760008555610472565b82601f1061044457805160ff1916838001178555610472565b82800160010185558215610472579182015b82811115610471578251825591602001919060010190610456565b5b50905061047f91906104e7565b5090565b50805461048f906108bc565b6000825580601f106104a157506104c0565b601f0160209004906000526020600020908101906104bf91906104e7565b5b50565b50805460008255600202906000526020600020908101906104e49190610504565b50565b5b808211156105005760008160009055506001016104e8565b5090565b5b8082111561052f576000808201600090556001820160006105269190610483565b50600201610505565b5090565b6000610546610541846107d9565b6107b4565b90508281526020810184848401111561056257610561610a29565b5b61056d84828561087a565b509392505050565b600082601f83011261058a57610589610a24565b5b813561059a848260208601610533565b91505092915050565b6000813590506105b281610a72565b92915050565b6000602082840312156105ce576105cd610a33565b5b60006105dc848285016105a3565b91505092915050565b600080604083850312156105fc576105fb610a33565b5b600061060a858286016105a3565b925050602083013567ffffffffffffffff81111561062b5761062a610a2e565b5b61063785828601610575565b9150509250929050565b600061064d8383610726565b905092915050565b60006106608261081a565b61066a818561083d565b93508360208202850161067c8561080a565b8060005b858110156106b857848403895281516106998582610641565b94506106a483610830565b925060208a01995050600181019050610680565b50829750879550505050505092915050565b60006106d582610825565b6106df818561084e565b93506106ef818560208601610889565b6106f881610a38565b840191505092915050565b600061071060058361085f565b915061071b82610a49565b602082019050919050565b600060408301600083015161073e6000860182610763565b506020830151848203602086015261075682826106ca565b9150508091505092915050565b61076c81610870565b82525050565b6000602082019050818103600083015261078c8184610655565b905092915050565b600060208201905081810360008301526107ad81610703565b9050919050565b60006107be6107cf565b90506107ca82826108ee565b919050565b6000604051905090565b600067ffffffffffffffff8211156107f4576107f36109f5565b5b6107fd82610a38565b9050602081019050919050565b6000819050602082019050919050565b600081519050919050565b600081519050919050565b6000602082019050919050565b600082825260208201905092915050565b600082825260208201905092915050565b600082825260208201905092915050565b6000819050919050565b82818337600083830152505050565b60005b838110156108a757808201518184015260208101905061088c565b838111156108b6576000848401525b50505050565b600060028204905060018216806108d457607f821691505b602082108114156108e8576108e7610997565b5b50919050565b6108f782610a38565b810181811067ffffffffffffffff82111715610916576109156109f5565b5b80604052505050565b600061092a82610870565b91507fffffffffffffffffffffffffffffffffffffffffffffffffffffffffffffffff82141561095d5761095c610968565b5b600182019050919050565b7f4e487b7100000000000000000000000000000000000000000000000000000000600052601160045260246000fd5b7f4e487b7100000000000000000000000000000000000000000000000000000000600052602260045260246000fd5b7f4e487b7100000000000000000000000000000000000000000000000000000000600052603260045260246000fd5b7f4e487b7100000000000000000000000000000000000000000000000000000000600052604160045260246000fd5b600080fd5b600080fd5b600080fd5b600080fd5b6000601f19601f8301169050919050565b7f4572726f72000000000000000000000000000000000000000000000000000000600082015250565b610a7b81610870565b8114610a8657600080fd5b5056fea26469706673582212208ba64a2597be480a4af889059493cec281fa9fb44302b098f7bdd1c3ec7cda6e64736f6c63430008070033",
					"opcodes": "PUSH1 0x80 PUSH1 0x40 MSTORE CALLVALUE DUP1 ISZERO PUSH2 0x10 JUMPI PUSH1 0x0 DUP1 REVERT JUMPDEST POP PUSH2 0xABF DUP1 PUSH2 0x20 PUSH1 0x0 CODECOPY PUSH1 0x0 RETURN INVALID PUSH1 0x80 PUSH1 0x40 MSTORE CALLVALUE DUP1 ISZERO PUSH2 0x10 JUMPI PUSH1 0x0 DUP1 REVERT JUMPDEST POP PUSH1 0x4 CALLDATASIZE LT PUSH2 0x57 JUMPI PUSH1 0x0 CALLDATALOAD PUSH1 0xE0 SHR DUP1 PUSH4 0x600060EB EQ PUSH2 0x5C JUMPI DUP1 PUSH4 0x67E8B7F7 EQ PUSH2 0x7A JUMPI DUP1 PUSH4 0xA3DAD43E EQ PUSH2 0x96 JUMPI DUP1 PUSH4 0xC1DA2020 EQ PUSH2 0xB2 JUMPI DUP1 PUSH4 0xE103AEF5 EQ PUSH2 0xCE JUMPI JUMPDEST PUSH1 0x0 DUP1 REVERT JUMPDEST PUSH2 0x64 PUSH2 0xD8 JUMP JUMPDEST PUSH1 0x40 MLOAD PUSH2 0x71 SWAP2 SWAP1 PUSH2 0x772 JUMP JUMPDEST PUSH1 0x40 MLOAD DUP1 SWAP2 SUB SWAP1 RETURN JUMPDEST PUSH2 0x94 PUSH1 0x4 DUP1 CALLDATASIZE SUB DUP2 ADD SWAP1 PUSH2 0x8F SWAP2 SWAP1 PUSH2 0x5E5 JUMP JUMPDEST PUSH2 0x1D3 JUMP JUMPDEST STOP JUMPDEST PUSH2 0xB0 PUSH1 0x4 DUP1 CALLDATASIZE SUB DUP2 ADD SWAP1 PUSH2 0xAB SWAP2 SWAP1 PUSH2 0x5B8 JUMP JUMPDEST PUSH2 0x263 JUMP JUMPDEST STOP JUMPDEST PUSH2 0xCC PUSH1 0x4 DUP1 CALLDATASIZE SUB DUP2 ADD SWAP1 PUSH2 0xC7 SWAP2 SWAP1 PUSH2 0x5E5 JUMP JUMPDEST PUSH2 0x2F5 JUMP JUMPDEST STOP JUMPDEST PUSH2 0xD6 PUSH2 0x3EE JUMP JUMPDEST STOP JUMPDEST PUSH1 0x60 PUSH1 0x0 DUP1 SLOAD DUP1 PUSH1 0x20 MUL PUSH1 0x20 ADD PUSH1 0x40 MLOAD SWAP1 DUP2 ADD PUSH1 0x40 MSTORE DUP1 SWAP3 SWAP2 SWAP1 DUP2 DUP2 MSTORE PUSH1 0x20 ADD PUSH1 0x0 SWAP1 JUMPDEST DUP3 DUP3 LT ISZERO PUSH2 0x1CA JUMPI DUP4 DUP3 SWAP1 PUSH1 0x0 MSTORE PUSH1 0x20 PUSH1 0x0 KECCAK256 SWAP1 PUSH1 0x2 MUL ADD PUSH1 0x40 MLOAD DUP1 PUSH1 0x40 ADD PUSH1 0x40 MSTORE SWAP1 DUP2 PUSH1 0x0 DUP3 ADD SLOAD DUP2 MSTORE PUSH1 0x20 ADD PUSH1 0x1 DUP3 ADD DUP1 SLOAD PUSH2 0x139 SWAP1 PUSH2 0x8BC JUMP JUMPDEST DUP1 PUSH1 0x1F ADD PUSH1 0x20 DUP1 SWAP2 DIV MUL PUSH1 0x20 ADD PUSH1 0x40 MLOAD SWAP1 DUP2 ADD PUSH1 0x40 MSTORE DUP1 SWAP3 SWAP2 SWAP1 DUP2 DUP2 MSTORE PUSH1 0x20 ADD DUP3 DUP1 SLOAD PUSH2 0x165 SWAP1 PUSH2 0x8BC JUMP JUMPDEST DUP1 ISZERO PUSH2 0x1B2 JUMPI DUP1 PUSH1 0x1F LT PUSH2 0x187 JUMPI PUSH2 0x100 DUP1 DUP4 SLOAD DIV MUL DUP4 MSTORE SWAP2 PUSH1 0x20 ADD SWAP2 PUSH2 0x1B2 JUMP JUMPDEST DUP3 ADD SWAP2 SWAP1 PUSH1 0x0 MSTORE PUSH1 0x20 PUSH1 0x0 KECCAK256 SWAP1 JUMPDEST DUP2 SLOAD DUP2 MSTORE SWAP1 PUSH1 0x1 ADD SWAP1 PUSH1 0x20 ADD DUP1 DUP4 GT PUSH2 0x195 JUMPI DUP3 SWAP1 SUB PUSH1 0x1F AND DUP3 ADD SWAP2 JUMPDEST POP POP POP POP POP DUP2 MSTORE POP POP DUP2 MSTORE PUSH1 0x20 ADD SWAP1 PUSH1 0x1 ADD SWAP1 PUSH2 0xFC JUMP JUMPDEST POP POP POP POP SWAP1 POP SWAP1 JUMP JUMPDEST PUSH1 0x0 JUMPDEST PUSH1 0x0 DUP1 SLOAD SWAP1 POP DUP2 LT ISZERO PUSH2 0x25E JUMPI DUP3 PUSH1 0x0 DUP3 DUP2 SLOAD DUP2 LT PUSH2 0x1F8 JUMPI PUSH2 0x1F7 PUSH2 0x9C6 JUMP JUMPDEST JUMPDEST SWAP1 PUSH1 0x0 MSTORE PUSH1 0x20 PUSH1 0x0 KECCAK256 SWAP1 PUSH1 0x2 MUL ADD PUSH1 0x0 ADD SLOAD EQ ISZERO PUSH2 0x24B JUMPI DUP2 PUSH1 0x0 DUP3 DUP2 SLOAD DUP2 LT PUSH2 0x225 JUMPI PUSH2 0x224 PUSH2 0x9C6 JUMP JUMPDEST JUMPDEST SWAP1 PUSH1 0x0 MSTORE PUSH1 0x20 PUSH1 0x0 KECCAK256 SWAP1 PUSH1 0x2 MUL ADD PUSH1 0x1 ADD SWAP1 DUP1 MLOAD SWAP1 PUSH1 0x20 ADD SWAP1 PUSH2 0x249 SWAP3 SWAP2 SWAP1 PUSH2 0x3FD JUMP JUMPDEST POP JUMPDEST DUP1 DUP1 PUSH2 0x256 SWAP1 PUSH2 0x91F JUMP JUMPDEST SWAP2 POP POP PUSH2 0x1D6 JUMP JUMPDEST POP POP POP JUMP JUMPDEST PUSH1 0x0 JUMPDEST PUSH1 0x0 DUP1 SLOAD SWAP1 POP DUP2 LT ISZERO PUSH2 0x2F1 JUMPI DUP2 PUSH1 0x0 DUP3 DUP2 SLOAD DUP2 LT PUSH2 0x288 JUMPI PUSH2 0x287 PUSH2 0x9C6 JUMP JUMPDEST JUMPDEST SWAP1 PUSH1 0x0 MSTORE PUSH1 0x20 PUSH1 0x0 KECCAK256 SWAP1 PUSH1 0x2 MUL ADD PUSH1 0x0 ADD SLOAD EQ ISZERO PUSH2 0x2DE JUMPI PUSH1 0x0 DUP2 DUP2 SLOAD DUP2 LT PUSH2 0x2B4 JUMPI PUSH2 0x2B3 PUSH2 0x9C6 JUMP JUMPDEST JUMPDEST SWAP1 PUSH1 0x0 MSTORE PUSH1 0x20 PUSH1 0x0 KECCAK256 SWAP1 PUSH1 0x2 MUL ADD PUSH1 0x0 DUP1 DUP3 ADD PUSH1 0x0 SWAP1 SSTORE PUSH1 0x1 DUP3 ADD PUSH1 0x0 PUSH2 0x2DB SWAP2 SWAP1 PUSH2 0x483 JUMP JUMPDEST POP POP JUMPDEST DUP1 DUP1 PUSH2 0x2E9 SWAP1 PUSH2 0x91F JUMP JUMPDEST SWAP2 POP POP PUSH2 0x266 JUMP JUMPDEST POP POP JUMP JUMPDEST PUSH1 0x0 JUMPDEST PUSH1 0x0 DUP1 SLOAD SWAP1 POP DUP2 LT ISZERO PUSH2 0x3E9 JUMPI DUP3 PUSH1 0x0 DUP3 DUP2 SLOAD DUP2 LT PUSH2 0x31A JUMPI PUSH2 0x319 PUSH2 0x9C6 JUMP JUMPDEST JUMPDEST SWAP1 PUSH1 0x0 MSTORE PUSH1 0x20 PUSH1 0x0 KECCAK256 SWAP1 PUSH1 0x2 MUL ADD PUSH1 0x0 ADD SLOAD EQ ISZERO PUSH2 0x36D JUMPI PUSH1 0x40 MLOAD PUSH32 0x8C379A000000000000000000000000000000000000000000000000000000000 DUP2 MSTORE PUSH1 0x4 ADD PUSH2 0x364 SWAP1 PUSH2 0x794 JUMP JUMPDEST PUSH1 0x40 MLOAD DUP1 SWAP2 SUB SWAP1 REVERT JUMPDEST PUSH1 0x0 PUSH1 0x40 MLOAD DUP1 PUSH1 0x40 ADD PUSH1 0x40 MSTORE DUP1 DUP6 DUP2 MSTORE PUSH1 0x20 ADD DUP5 DUP2 MSTORE POP SWAP1 DUP1 PUSH1 0x1 DUP2 SLOAD ADD DUP1 DUP3 SSTORE DUP1 SWAP2 POP POP PUSH1 0x1 SWAP1 SUB SWAP1 PUSH1 0x0 MSTORE PUSH1 0x20 PUSH1 0x0 KECCAK256 SWAP1 PUSH1 0x2 MUL ADD PUSH1 0x0 SWAP1 SWAP2 SWAP1 SWAP2 SWAP1 SWAP2 POP PUSH1 0x0 DUP3 ADD MLOAD DUP2 PUSH1 0x0 ADD SSTORE PUSH1 0x20 DUP3 ADD MLOAD DUP2 PUSH1 0x1 ADD SWAP1 DUP1 MLOAD SWAP1 PUSH1 0x20 ADD SWAP1 PUSH2 0x3D3 SWAP3 SWAP2 SWAP1 PUSH2 0x3FD JUMP JUMPDEST POP POP POP DUP1 DUP1 PUSH2 0x3E1 SWAP1 PUSH2 0x91F JUMP JUMPDEST SWAP2 POP POP PUSH2 0x2F8 JUMP JUMPDEST POP POP POP JUMP JUMPDEST PUSH1 0x0 DUP1 PUSH2 0x3FB SWAP2 SWAP1 PUSH2 0x4C3 JUMP JUMPDEST JUMP JUMPDEST DUP3 DUP1 SLOAD PUSH2 0x409 SWAP1 PUSH2 0x8BC JUMP JUMPDEST SWAP1 PUSH1 0x0 MSTORE PUSH1 0x20 PUSH1 0x0 KECCAK256 SWAP1 PUSH1 0x1F ADD PUSH1 0x20 SWAP1 DIV DUP2 ADD SWAP3 DUP3 PUSH2 0x42B JUMPI PUSH1 0x0 DUP6 SSTORE PUSH2 0x472 JUMP JUMPDEST DUP3 PUSH1 0x1F LT PUSH2 0x444 JUMPI DUP1 MLOAD PUSH1 0xFF NOT AND DUP4 DUP1 ADD OR DUP6 SSTORE PUSH2 0x472 JUMP JUMPDEST DUP3 DUP1 ADD PUSH1 0x1 ADD DUP6 SSTORE DUP3 ISZERO PUSH2 0x472 JUMPI SWAP2 DUP3 ADD JUMPDEST DUP3 DUP2 GT ISZERO PUSH2 0x471 JUMPI DUP3 MLOAD DUP3 SSTORE SWAP2 PUSH1 0x20 ADD SWAP2 SWAP1 PUSH1 0x1 ADD SWAP1 PUSH2 0x456 JUMP JUMPDEST JUMPDEST POP SWAP1 POP PUSH2 0x47F SWAP2 SWAP1 PUSH2 0x4E7 JUMP JUMPDEST POP SWAP1 JUMP JUMPDEST POP DUP1 SLOAD PUSH2 0x48F SWAP1 PUSH2 0x8BC JUMP JUMPDEST PUSH1 0x0 DUP3 SSTORE DUP1 PUSH1 0x1F LT PUSH2 0x4A1 JUMPI POP PUSH2 0x4C0 JUMP JUMPDEST PUSH1 0x1F ADD PUSH1 0x20 SWAP1 DIV SWAP1 PUSH1 0x0 MSTORE PUSH1 0x20 PUSH1 0x0 KECCAK256 SWAP1 DUP2 ADD SWAP1 PUSH2 0x4BF SWAP2 SWAP1 PUSH2 0x4E7 JUMP JUMPDEST JUMPDEST POP JUMP JUMPDEST POP DUP1 SLOAD PUSH1 0x0 DUP3 SSTORE PUSH1 0x2 MUL SWAP1 PUSH1 0x0 MSTORE PUSH1 0x20 PUSH1 0x0 KECCAK256 SWAP1 DUP2 ADD SWAP1 PUSH2 0x4E4 SWAP2 SWAP1 PUSH2 0x504 JUMP JUMPDEST POP JUMP JUMPDEST JUMPDEST DUP1 DUP3 GT ISZERO PUSH2 0x500 JUMPI PUSH1 0x0 DUP2 PUSH1 0x0 SWAP1 SSTORE POP PUSH1 0x1 ADD PUSH2 0x4E8 JUMP JUMPDEST POP SWAP1 JUMP JUMPDEST JUMPDEST DUP1 DUP3 GT ISZERO PUSH2 0x52F JUMPI PUSH1 0x0 DUP1 DUP3 ADD PUSH1 0x0 SWAP1 SSTORE PUSH1 0x1 DUP3 ADD PUSH1 0x0 PUSH2 0x526 SWAP2 SWAP1 PUSH2 0x483 JUMP JUMPDEST POP PUSH1 0x2 ADD PUSH2 0x505 JUMP JUMPDEST POP SWAP1 JUMP JUMPDEST PUSH1 0x0 PUSH2 0x546 PUSH2 0x541 DUP5 PUSH2 0x7D9 JUMP JUMPDEST PUSH2 0x7B4 JUMP JUMPDEST SWAP1 POP DUP3 DUP2 MSTORE PUSH1 0x20 DUP2 ADD DUP5 DUP5 DUP5 ADD GT ISZERO PUSH2 0x562 JUMPI PUSH2 0x561 PUSH2 0xA29 JUMP JUMPDEST JUMPDEST PUSH2 0x56D DUP5 DUP3 DUP6 PUSH2 0x87A JUMP JUMPDEST POP SWAP4 SWAP3 POP POP POP JUMP JUMPDEST PUSH1 0x0 DUP3 PUSH1 0x1F DUP4 ADD SLT PUSH2 0x58A JUMPI PUSH2 0x589 PUSH2 0xA24 JUMP JUMPDEST JUMPDEST DUP2 CALLDATALOAD PUSH2 0x59A DUP5 DUP3 PUSH1 0x20 DUP7 ADD PUSH2 0x533 JUMP JUMPDEST SWAP2 POP POP SWAP3 SWAP2 POP POP JUMP JUMPDEST PUSH1 0x0 DUP2 CALLDATALOAD SWAP1 POP PUSH2 0x5B2 DUP2 PUSH2 0xA72 JUMP JUMPDEST SWAP3 SWAP2 POP POP JUMP JUMPDEST PUSH1 0x0 PUSH1 0x20 DUP3 DUP5 SUB SLT ISZERO PUSH2 0x5CE JUMPI PUSH2 0x5CD PUSH2 0xA33 JUMP JUMPDEST JUMPDEST PUSH1 0x0 PUSH2 0x5DC DUP5 DUP3 DUP6 ADD PUSH2 0x5A3 JUMP JUMPDEST SWAP2 POP POP SWAP3 SWAP2 POP POP JUMP JUMPDEST PUSH1 0x0 DUP1 PUSH1 0x40 DUP4 DUP6 SUB SLT ISZERO PUSH2 0x5FC JUMPI PUSH2 0x5FB PUSH2 0xA33 JUMP JUMPDEST JUMPDEST PUSH1 0x0 PUSH2 0x60A DUP6 DUP3 DUP7 ADD PUSH2 0x5A3 JUMP JUMPDEST SWAP3 POP POP PUSH1 0x20 DUP4 ADD CALLDATALOAD PUSH8 0xFFFFFFFFFFFFFFFF DUP2 GT ISZERO PUSH2 0x62B JUMPI PUSH2 0x62A PUSH2 0xA2E JUMP JUMPDEST JUMPDEST PUSH2 0x637 DUP6 DUP3 DUP7 ADD PUSH2 0x575 JUMP JUMPDEST SWAP2 POP POP SWAP3 POP SWAP3 SWAP1 POP JUMP JUMPDEST PUSH1 0x0 PUSH2 0x64D DUP4 DUP4 PUSH2 0x726 JUMP JUMPDEST SWAP1 POP SWAP3 SWAP2 POP POP JUMP JUMPDEST PUSH1 0x0 PUSH2 0x660 DUP3 PUSH2 0x81A JUMP JUMPDEST PUSH2 0x66A DUP2 DUP6 PUSH2 0x83D JUMP JUMPDEST SWAP4 POP DUP4 PUSH1 0x20 DUP3 MUL DUP6 ADD PUSH2 0x67C DUP6 PUSH2 0x80A JUMP JUMPDEST DUP1 PUSH1 0x0 JUMPDEST DUP6 DUP2 LT ISZERO PUSH2 0x6B8 JUMPI DUP5 DUP5 SUB DUP10 MSTORE DUP2 MLOAD PUSH2 0x699 DUP6 DUP3 PUSH2 0x641 JUMP JUMPDEST SWAP5 POP PUSH2 0x6A4 DUP4 PUSH2 0x830 JUMP JUMPDEST SWAP3 POP PUSH1 0x20 DUP11 ADD SWAP10 POP POP PUSH1 0x1 DUP2 ADD SWAP1 POP PUSH2 0x680 JUMP JUMPDEST POP DUP3 SWAP8 POP DUP8 SWAP6 POP POP POP POP POP POP SWAP3 SWAP2 POP POP JUMP JUMPDEST PUSH1 0x0 PUSH2 0x6D5 DUP3 PUSH2 0x825 JUMP JUMPDEST PUSH2 0x6DF DUP2 DUP6 PUSH2 0x84E JUMP JUMPDEST SWAP4 POP PUSH2 0x6EF DUP2 DUP6 PUSH1 0x20 DUP7 ADD PUSH2 0x889 JUMP JUMPDEST PUSH2 0x6F8 DUP2 PUSH2 0xA38 JUMP JUMPDEST DUP5 ADD SWAP2 POP POP SWAP3 SWAP2 POP POP JUMP JUMPDEST PUSH1 0x0 PUSH2 0x710 PUSH1 0x5 DUP4 PUSH2 0x85F JUMP JUMPDEST SWAP2 POP PUSH2 0x71B DUP3 PUSH2 0xA49 JUMP JUMPDEST PUSH1 0x20 DUP3 ADD SWAP1 POP SWAP2 SWAP1 POP JUMP JUMPDEST PUSH1 0x0 PUSH1 0x40 DUP4 ADD PUSH1 0x0 DUP4 ADD MLOAD PUSH2 0x73E PUSH1 0x0 DUP7 ADD DUP3 PUSH2 0x763 JUMP JUMPDEST POP PUSH1 0x20 DUP4 ADD MLOAD DUP5 DUP3 SUB PUSH1 0x20 DUP7 ADD MSTORE PUSH2 0x756 DUP3 DUP3 PUSH2 0x6CA JUMP JUMPDEST SWAP2 POP POP DUP1 SWAP2 POP POP SWAP3 SWAP2 POP POP JUMP JUMPDEST PUSH2 0x76C DUP2 PUSH2 0x870 JUMP JUMPDEST DUP3 MSTORE POP POP JUMP JUMPDEST PUSH1 0x0 PUSH1 0x20 DUP3 ADD SWAP1 POP DUP2 DUP2 SUB PUSH1 0x0 DUP4 ADD MSTORE PUSH2 0x78C DUP2 DUP5 PUSH2 0x655 JUMP JUMPDEST SWAP1 POP SWAP3 SWAP2 POP POP JUMP JUMPDEST PUSH1 0x0 PUSH1 0x20 DUP3 ADD SWAP1 POP DUP2 DUP2 SUB PUSH1 0x0 DUP4 ADD MSTORE PUSH2 0x7AD DUP2 PUSH2 0x703 JUMP JUMPDEST SWAP1 POP SWAP2 SWAP1 POP JUMP JUMPDEST PUSH1 0x0 PUSH2 0x7BE PUSH2 0x7CF JUMP JUMPDEST SWAP1 POP PUSH2 0x7CA DUP3 DUP3 PUSH2 0x8EE JUMP JUMPDEST SWAP2 SWAP1 POP JUMP JUMPDEST PUSH1 0x0 PUSH1 0x40 MLOAD SWAP1 POP SWAP1 JUMP JUMPDEST PUSH1 0x0 PUSH8 0xFFFFFFFFFFFFFFFF DUP3 GT ISZERO PUSH2 0x7F4 JUMPI PUSH2 0x7F3 PUSH2 0x9F5 JUMP JUMPDEST JUMPDEST PUSH2 0x7FD DUP3 PUSH2 0xA38 JUMP JUMPDEST SWAP1 POP PUSH1 0x20 DUP2 ADD SWAP1 POP SWAP2 SWAP1 POP JUMP JUMPDEST PUSH1 0x0 DUP2 SWAP1 POP PUSH1 0x20 DUP3 ADD SWAP1 POP SWAP2 SWAP1 POP JUMP JUMPDEST PUSH1 0x0 DUP2 MLOAD SWAP1 POP SWAP2 SWAP1 POP JUMP JUMPDEST PUSH1 0x0 DUP2 MLOAD SWAP1 POP SWAP2 SWAP1 POP JUMP JUMPDEST PUSH1 0x0 PUSH1 0x20 DUP3 ADD SWAP1 POP SWAP2 SWAP1 POP JUMP JUMPDEST PUSH1 0x0 DUP3 DUP3 MSTORE PUSH1 0x20 DUP3 ADD SWAP1 POP SWAP3 SWAP2 POP POP JUMP JUMPDEST PUSH1 0x0 DUP3 DUP3 MSTORE PUSH1 0x20 DUP3 ADD SWAP1 POP SWAP3 SWAP2 POP POP JUMP JUMPDEST PUSH1 0x0 DUP3 DUP3 MSTORE PUSH1 0x20 DUP3 ADD SWAP1 POP SWAP3 SWAP2 POP POP JUMP JUMPDEST PUSH1 0x0 DUP2 SWAP1 POP SWAP2 SWAP1 POP JUMP JUMPDEST DUP3 DUP2 DUP4 CALLDATACOPY PUSH1 0x0 DUP4 DUP4 ADD MSTORE POP POP POP JUMP JUMPDEST PUSH1 0x0 JUMPDEST DUP4 DUP2 LT ISZERO PUSH2 0x8A7 JUMPI DUP1 DUP3 ADD MLOAD DUP2 DUP5 ADD MSTORE PUSH1 0x20 DUP2 ADD SWAP1 POP PUSH2 0x88C JUMP JUMPDEST DUP4 DUP2 GT ISZERO PUSH2 0x8B6 JUMPI PUSH1 0x0 DUP5 DUP5 ADD MSTORE JUMPDEST POP POP POP POP JUMP JUMPDEST PUSH1 0x0 PUSH1 0x2 DUP3 DIV SWAP1 POP PUSH1 0x1 DUP3 AND DUP1 PUSH2 0x8D4 JUMPI PUSH1 0x7F DUP3 AND SWAP2 POP JUMPDEST PUSH1 0x20 DUP3 LT DUP2 EQ ISZERO PUSH2 0x8E8 JUMPI PUSH2 0x8E7 PUSH2 0x997 JUMP JUMPDEST JUMPDEST POP SWAP2 SWAP1 POP JUMP JUMPDEST PUSH2 0x8F7 DUP3 PUSH2 0xA38 JUMP JUMPDEST DUP2 ADD DUP2 DUP2 LT PUSH8 0xFFFFFFFFFFFFFFFF DUP3 GT OR ISZERO PUSH2 0x916 JUMPI PUSH2 0x915 PUSH2 0x9F5 JUMP JUMPDEST JUMPDEST DUP1 PUSH1 0x40 MSTORE POP POP POP JUMP JUMPDEST PUSH1 0x0 PUSH2 0x92A DUP3 PUSH2 0x870 JUMP JUMPDEST SWAP2 POP PUSH32 0xFFFFFFFFFFFFFFFFFFFFFFFFFFFFFFFFFFFFFFFFFFFFFFFFFFFFFFFFFFFFFFFF DUP3 EQ ISZERO PUSH2 0x95D JUMPI PUSH2 0x95C PUSH2 0x968 JUMP JUMPDEST JUMPDEST PUSH1 0x1 DUP3 ADD SWAP1 POP SWAP2 SWAP1 POP JUMP JUMPDEST PUSH32 0x4E487B7100000000000000000000000000000000000000000000000000000000 PUSH1 0x0 MSTORE PUSH1 0x11 PUSH1 0x4 MSTORE PUSH1 0x24 PUSH1 0x0 REVERT JUMPDEST PUSH32 0x4E487B7100000000000000000000000000000000000000000000000000000000 PUSH1 0x0 MSTORE PUSH1 0x22 PUSH1 0x4 MSTORE PUSH1 0x24 PUSH1 0x0 REVERT JUMPDEST PUSH32 0x4E487B7100000000000000000000000000000000000000000000000000000000 PUSH1 0x0 MSTORE PUSH1 0x32 PUSH1 0x4 MSTORE PUSH1 0x24 PUSH1 0x0 REVERT JUMPDEST PUSH32 0x4E487B7100000000000000000000000000000000000000000000000000000000 PUSH1 0x0 MSTORE PUSH1 0x41 PUSH1 0x4 MSTORE PUSH1 0x24 PUSH1 0x0 REVERT JUMPDEST PUSH1 0x0 DUP1 REVERT JUMPDEST PUSH1 0x0 DUP1 REVERT JUMPDEST PUSH1 0x0 DUP1 REVERT JUMPDEST PUSH1 0x0 DUP1 REVERT JUMPDEST PUSH1 0x0 PUSH1 0x1F NOT PUSH1 0x1F DUP4 ADD AND SWAP1 POP SWAP2 SWAP1 POP JUMP JUMPDEST PUSH32 0x4572726F72000000000000000000000000000000000000000000000000000000 PUSH1 0x0 DUP3 ADD MSTORE POP JUMP JUMPDEST PUSH2 0xA7B DUP2 PUSH2 0x870 JUMP JUMPDEST DUP2 EQ PUSH2 0xA86 JUMPI PUSH1 0x0 DUP1 REVERT JUMPDEST POP JUMP INVALID LOG2 PUSH5 0x6970667358 0x22 SLT KECCAK256 DUP12 0xA6 0x4A 0x25 SWAP8 0xBE BASEFEE EXP 0x4A 0xF8 DUP10 SDIV SWAP5 SWAP4 0xCE 0xC2 DUP2 STATICCALL SWAP16 0xB4 NUMBER MUL 0xB0 SWAP9 0xF7 0xBD 0xD1 0xC3 0xEC PUSH29 0xDA6E64736F6C6343000807003300000000000000000000000000000000 "
				},
				"gasEstimates": {
					"creation": {
						"codeDepositCost": "550200",
						"executionCost": "581",
						"totalCost": "550781"
					},
					"external": {
						"addTodo(uint256,string)": "infinite",
						"dltTodo(uint256)": "infinite",
						"resetAll()": "infinite",
						"showTodos()": "infinite",
						"updateTodos(uint256,string)": "infinite"
					}
				},
				"methodIdentifiers": {
					"addTodo(uint256,string)": "c1da2020",
					"dltTodo(uint256)": "a3dad43e",
					"resetAll()": "e103aef5",
					"showTodos()": "600060eb",
					"updateTodos(uint256,string)": "67e8b7f7"
				}
			},
			"storageLayout": {
				"storage": [
					{
						"astId": 10,
						"contract": "Todo.sol:Todo",
						"label": "todos",
						"offset": 0,
						"slot": "0",
						"type": "t_array(t_struct(todoObj)6_storage)dyn_storage"
					}
				],
				"types": {
					"t_array(t_struct(todoObj)6_storage)dyn_storage": {
						"base": "t_struct(todoObj)6_storage",
						"encoding": "dynamic_array",
						"label": "struct Todo.todoObj[]",
						"numberOfBytes": "32"
					},
					"t_string_storage": {
						"encoding": "bytes",
						"label": "string",
						"numberOfBytes": "32"
					},
					"t_struct(todoObj)6_storage": {
						"encoding": "inplace",
						"label": "struct Todo.todoObj",
						"members": [
							{
								"astId": 3,
								"contract": "Todo.sol:Todo",
								"label": "id",
								"offset": 0,
								"slot": "0",
								"type": "t_uint256"
							},
							{
								"astId": 5,
								"contract": "Todo.sol:Todo",
								"label": "todoText",
								"offset": 0,
								"slot": "1",
								"type": "t_string_storage"
							}
						],
						"numberOfBytes": "64"
					},
					"t_uint256": {
						"encoding": "inplace",
						"label": "uint256",
						"numberOfBytes": "32"
					}
				}
			},
			"userdoc": {
				"kind": "user",
				"methods": {},
				"version": 1
			}
		}
	}
}