{
	"Todo.sol": {
		"Todo": {
			"abi": [
				{
					"inputs": [
						{
							"internalType": "uint256",
							"name": "_id",
							"type": "uint256"
						},
						{
							"internalType": "string",
							"name": "todo",
							"type": "string"
						}
					],
					"name": "addTodo",
					"outputs": [],
					"stateMutability": "nonpayable",
					"type": "function"
				},
				{
					"inputs": [],
					"name": "resetAll",
					"outputs": [],
					"stateMutability": "nonpayable",
					"type": "function"
				},
				{
					"inputs": [],
					"name": "showTodos",
					"outputs": [
						{
							"components": [
								{
									"internalType": "uint256",
									"name": "id",
									"type": "uint256"
								},
								{
									"internalType": "string",
									"name": "todoText",
									"type": "string"
								}
							],
							"internalType": "struct Todo.todoObj[]",
							"name": "",
							"type": "tuple[]"
						}
					],
					"stateMutability": "view",
					"type": "function"
				},
				{
					"inputs": [
						{
							"internalType": "uint256",
							"name": "id_",
							"type": "uint256"
						},
						{
							"internalType": "string",
							"name": "new_todoText",
							"type": "string"
						}
					],
					"name": "updateTodos",
					"outputs": [],
					"stateMutability": "nonpayable",
					"type": "function"
				}
			],
			"devdoc": {
				"kind": "dev",
				"methods": {},
				"version": 1
			},
			"evm": {
				"assembly": "    /* \"Todo.sol\":66:782  contract Todo{\r... */\n  mstore(0x40, 0x80)\n  callvalue\n  dup1\n  iszero\n  tag_1\n  jumpi\n  0x00\n  dup1\n  revert\ntag_1:\n  pop\n  dataSize(sub_0)\n  dup1\n  dataOffset(sub_0)\n  0x00\n  codecopy\n  0x00\n  return\nstop\n\nsub_0: assembly {\n        /* \"Todo.sol\":66:782  contract Todo{\r... */\n      mstore(0x40, 0x80)\n      callvalue\n      dup1\n      iszero\n      tag_1\n      jumpi\n      0x00\n      dup1\n      revert\n    tag_1:\n      pop\n      jumpi(tag_2, lt(calldatasize, 0x04))\n      shr(0xe0, calldataload(0x00))\n      dup1\n      0x600060eb\n      eq\n      tag_3\n      jumpi\n      dup1\n      0x67e8b7f7\n      eq\n      tag_4\n      jumpi\n      dup1\n      0xc1da2020\n      eq\n      tag_5\n      jumpi\n      dup1\n      0xe103aef5\n      eq\n      tag_6\n      jumpi\n    tag_2:\n      0x00\n      dup1\n      revert\n        /* \"Todo.sol\":380:469  function showTodos() public view returns(todoObj[] memory){\r... */\n    tag_3:\n      tag_7\n      tag_8\n      jump\t// in\n    tag_7:\n      mload(0x40)\n      tag_9\n      swap2\n      swap1\n      tag_10\n      jump\t// in\n    tag_9:\n      mload(0x40)\n      dup1\n      swap2\n      sub\n      swap1\n      return\n        /* \"Todo.sol\":479:714  function updateTodos(uint id_,string memory new_todoText) public {\r... */\n    tag_4:\n      tag_11\n      0x04\n      dup1\n      calldatasize\n      sub\n      dup2\n      add\n      swap1\n      tag_12\n      swap2\n      swap1\n      tag_13\n      jump\t// in\n    tag_12:\n      tag_14\n      jump\t// in\n    tag_11:\n      stop\n        /* \"Todo.sol\":230:370  function addTodo(uint _id,string memory todo) public {\r... */\n    tag_5:\n      tag_15\n      0x04\n      dup1\n      calldatasize\n      sub\n      dup2\n      add\n      swap1\n      tag_16\n      swap2\n      swap1\n      tag_13\n      jump\t// in\n    tag_16:\n      tag_17\n      jump\t// in\n    tag_15:\n      stop\n        /* \"Todo.sol\":720:777  function resetAll() public{\r... */\n    tag_6:\n      tag_18\n      tag_19\n      jump\t// in\n    tag_18:\n      stop\n        /* \"Todo.sol\":380:469  function showTodos() public view returns(todoObj[] memory){\r... */\n    tag_8:\n        /* \"Todo.sol\":421:437  todoObj[] memory */\n      0x60\n        /* \"Todo.sol\":456:461  todos */\n      0x00\n        /* \"Todo.sol\":449:461  return todos */\n      dup1\n      sload\n      dup1\n      0x20\n      mul\n      0x20\n      add\n      mload(0x40)\n      swap1\n      dup2\n      add\n      0x40\n      mstore\n      dup1\n      swap3\n      swap2\n      swap1\n      dup2\n      dup2\n      mstore\n      0x20\n      add\n      0x00\n      swap1\n    tag_21:\n      dup3\n      dup3\n      lt\n      iszero\n      tag_22\n      jumpi\n      dup4\n      dup3\n      swap1\n      0x00\n      mstore\n      keccak256(0x00, 0x20)\n      swap1\n      0x02\n      mul\n      add\n      mload(0x40)\n      dup1\n      0x40\n      add\n      0x40\n      mstore\n      swap1\n      dup2\n      0x00\n      dup3\n      add\n      sload\n      dup2\n      mstore\n      0x20\n      add\n      0x01\n      dup3\n      add\n      dup1\n      sload\n      tag_24\n      swap1\n      tag_25\n      jump\t// in\n    tag_24:\n      dup1\n      0x1f\n      add\n      0x20\n      dup1\n      swap2\n      div\n      mul\n      0x20\n      add\n      mload(0x40)\n      swap1\n      dup2\n      add\n      0x40\n      mstore\n      dup1\n      swap3\n      swap2\n      swap1\n      dup2\n      dup2\n      mstore\n      0x20\n      add\n      dup3\n      dup1\n      sload\n      tag_26\n      swap1\n      tag_25\n      jump\t// in\n    tag_26:\n      dup1\n      iszero\n      tag_27\n      jumpi\n      dup1\n      0x1f\n      lt\n      tag_28\n      jumpi\n      0x0100\n      dup1\n      dup4\n      sload\n      div\n      mul\n      dup4\n      mstore\n      swap2\n      0x20\n      add\n      swap2\n      jump(tag_27)\n    tag_28:\n      dup3\n      add\n      swap2\n      swap1\n      0x00\n      mstore\n      keccak256(0x00, 0x20)\n      swap1\n    tag_29:\n      dup2\n      sload\n      dup2\n      mstore\n      swap1\n      0x01\n      add\n      swap1\n      0x20\n      add\n      dup1\n      dup4\n      gt\n      tag_29\n      jumpi\n      dup3\n      swap1\n      sub\n      0x1f\n      and\n      dup3\n      add\n      swap2\n    tag_27:\n      pop\n      pop\n      pop\n      pop\n      pop\n      dup2\n      mstore\n      pop\n      pop\n      dup2\n      mstore\n      0x20\n      add\n      swap1\n      0x01\n      add\n      swap1\n      jump(tag_21)\n    tag_22:\n      pop\n      pop\n      pop\n      pop\n      swap1\n      pop\n        /* \"Todo.sol\":380:469  function showTodos() public view returns(todoObj[] memory){\r... */\n      swap1\n      jump\t// out\n        /* \"Todo.sol\":479:714  function updateTodos(uint id_,string memory new_todoText) public {\r... */\n    tag_14:\n        /* \"Todo.sol\":559:565  uint i */\n      0x00\n        /* \"Todo.sol\":555:707  for(uint i =0;i<todos.length - 1;i++){\r... */\n    tag_31:\n        /* \"Todo.sol\":586:587  1 */\n      0x01\n        /* \"Todo.sol\":571:576  todos */\n      0x00\n        /* \"Todo.sol\":571:583  todos.length */\n      dup1\n      sload\n      swap1\n      pop\n        /* \"Todo.sol\":571:587  todos.length - 1 */\n      tag_34\n      swap2\n      swap1\n      tag_35\n      jump\t// in\n    tag_34:\n        /* \"Todo.sol\":569:570  i */\n      dup2\n        /* \"Todo.sol\":569:587  i<todos.length - 1 */\n      lt\n        /* \"Todo.sol\":555:707  for(uint i =0;i<todos.length - 1;i++){\r... */\n      iszero\n      tag_32\n      jumpi\n        /* \"Todo.sol\":625:628  id_ */\n      dup3\n        /* \"Todo.sol\":610:615  todos */\n      0x00\n        /* \"Todo.sol\":616:617  i */\n      dup3\n        /* \"Todo.sol\":610:618  todos[i] */\n      dup2\n      sload\n      dup2\n      lt\n      tag_36\n      jumpi\n      tag_37\n      tag_38\n      jump\t// in\n    tag_37:\n    tag_36:\n      swap1\n      0x00\n      mstore\n      keccak256(0x00, 0x20)\n      swap1\n      0x02\n      mul\n      add\n        /* \"Todo.sol\":610:621  todos[i].id */\n      0x00\n      add\n      sload\n        /* \"Todo.sol\":610:628  todos[i].id == id_ */\n      eq\n        /* \"Todo.sol\":607:696  if(todos[i].id == id_){\r... */\n      iszero\n      tag_40\n      jumpi\n        /* \"Todo.sol\":668:680  new_todoText */\n      dup2\n        /* \"Todo.sol\":648:653  todos */\n      0x00\n        /* \"Todo.sol\":654:655  i */\n      dup3\n        /* \"Todo.sol\":648:656  todos[i] */\n      dup2\n      sload\n      dup2\n      lt\n      tag_41\n      jumpi\n      tag_42\n      tag_38\n      jump\t// in\n    tag_42:\n    tag_41:\n      swap1\n      0x00\n      mstore\n      keccak256(0x00, 0x20)\n      swap1\n      0x02\n      mul\n      add\n        /* \"Todo.sol\":648:665  todos[i].todoText */\n      0x01\n      add\n        /* \"Todo.sol\":648:680  todos[i].todoText = new_todoText */\n      swap1\n      dup1\n      mload\n      swap1\n      0x20\n      add\n      swap1\n      tag_44\n      swap3\n      swap2\n      swap1\n      tag_45\n      jump\t// in\n    tag_44:\n      pop\n        /* \"Todo.sol\":607:696  if(todos[i].id == id_){\r... */\n    tag_40:\n        /* \"Todo.sol\":588:591  i++ */\n      dup1\n      dup1\n      tag_46\n      swap1\n      tag_47\n      jump\t// in\n    tag_46:\n      swap2\n      pop\n      pop\n        /* \"Todo.sol\":555:707  for(uint i =0;i<todos.length - 1;i++){\r... */\n      jump(tag_31)\n    tag_32:\n      pop\n        /* \"Todo.sol\":479:714  function updateTodos(uint id_,string memory new_todoText) public {\r... */\n      pop\n      pop\n      jump\t// out\n        /* \"Todo.sol\":230:370  function addTodo(uint _id,string memory todo) public {\r... */\n    tag_17:\n        /* \"Todo.sol\":294:299  todos */\n      0x00\n        /* \"Todo.sol\":305:322  todoObj(_id,todo) */\n      mload(0x40)\n      dup1\n      0x40\n      add\n      0x40\n      mstore\n      dup1\n        /* \"Todo.sol\":313:316  _id */\n      dup5\n        /* \"Todo.sol\":305:322  todoObj(_id,todo) */\n      dup2\n      mstore\n      0x20\n      add\n        /* \"Todo.sol\":317:321  todo */\n      dup4\n        /* \"Todo.sol\":305:322  todoObj(_id,todo) */\n      dup2\n      mstore\n      pop\n        /* \"Todo.sol\":294:323  todos.push(todoObj(_id,todo)) */\n      swap1\n      dup1\n      0x01\n      dup2\n      sload\n      add\n      dup1\n      dup3\n      sstore\n      dup1\n      swap2\n      pop\n      pop\n      0x01\n      swap1\n      sub\n      swap1\n      0x00\n      mstore\n      keccak256(0x00, 0x20)\n      swap1\n      0x02\n      mul\n      add\n      0x00\n      swap1\n      swap2\n      swap1\n      swap2\n      swap1\n      swap2\n      pop\n      0x00\n      dup3\n      add\n      mload\n      dup2\n      0x00\n      add\n      sstore\n      0x20\n      dup3\n      add\n      mload\n      dup2\n      0x01\n      add\n      swap1\n      dup1\n      mload\n      swap1\n      0x20\n      add\n      swap1\n      tag_50\n      swap3\n      swap2\n      swap1\n      tag_45\n      jump\t// in\n    tag_50:\n      pop\n      pop\n      pop\n        /* \"Todo.sol\":357:362  todos */\n      0x00\n        /* \"Todo.sol\":334:342  todosMap */\n      0x01\n        /* \"Todo.sol\":334:354  todosMap[msg.sender] */\n      0x00\n        /* \"Todo.sol\":343:353  msg.sender */\n      caller\n        /* \"Todo.sol\":334:354  todosMap[msg.sender] */\n      0xffffffffffffffffffffffffffffffffffffffff\n      and\n      0xffffffffffffffffffffffffffffffffffffffff\n      and\n      dup2\n      mstore\n      0x20\n      add\n      swap1\n      dup2\n      mstore\n      0x20\n      add\n      0x00\n      keccak256\n        /* \"Todo.sol\":334:362  todosMap[msg.sender] = todos */\n      swap1\n      dup1\n      sload\n      tag_51\n      swap3\n      swap2\n      swap1\n      tag_52\n      jump\t// in\n    tag_51:\n      pop\n        /* \"Todo.sol\":230:370  function addTodo(uint _id,string memory todo) public {\r... */\n      pop\n      pop\n      jump\t// out\n        /* \"Todo.sol\":720:777  function resetAll() public{\r... */\n    tag_19:\n        /* \"Todo.sol\":764:769  todos */\n      0x00\n      dup1\n        /* \"Todo.sol\":757:769  delete todos */\n      tag_54\n      swap2\n      swap1\n      tag_55\n      jump\t// in\n    tag_54:\n        /* \"Todo.sol\":720:777  function resetAll() public{\r... */\n      jump\t// out\n    tag_45:\n      dup3\n      dup1\n      sload\n      tag_56\n      swap1\n      tag_25\n      jump\t// in\n    tag_56:\n      swap1\n      0x00\n      mstore\n      keccak256(0x00, 0x20)\n      swap1\n      0x1f\n      add\n      0x20\n      swap1\n      div\n      dup2\n      add\n      swap3\n      dup3\n      tag_58\n      jumpi\n      0x00\n      dup6\n      sstore\n      jump(tag_57)\n    tag_58:\n      dup3\n      0x1f\n      lt\n      tag_59\n      jumpi\n      dup1\n      mload\n      not(0xff)\n      and\n      dup4\n      dup1\n      add\n      or\n      dup6\n      sstore\n      jump(tag_57)\n    tag_59:\n      dup3\n      dup1\n      add\n      0x01\n      add\n      dup6\n      sstore\n      dup3\n      iszero\n      tag_57\n      jumpi\n      swap2\n      dup3\n      add\n    tag_60:\n      dup3\n      dup2\n      gt\n      iszero\n      tag_61\n      jumpi\n      dup3\n      mload\n      dup3\n      sstore\n      swap2\n      0x20\n      add\n      swap2\n      swap1\n      0x01\n      add\n      swap1\n      jump(tag_60)\n    tag_61:\n    tag_57:\n      pop\n      swap1\n      pop\n      tag_62\n      swap2\n      swap1\n      tag_63\n      jump\t// in\n    tag_62:\n      pop\n      swap1\n      jump\t// out\n    tag_52:\n      dup3\n      dup1\n      sload\n      dup3\n      dup3\n      sstore\n      swap1\n      0x00\n      mstore\n      keccak256(0x00, 0x20)\n      swap1\n      0x02\n      mul\n      dup2\n      add\n      swap3\n      dup3\n      iszero\n      tag_64\n      jumpi\n      0x00\n      mstore\n      keccak256(0x00, 0x20)\n      swap2\n      0x02\n      mul\n      dup3\n      add\n    tag_65:\n      dup3\n      dup2\n      gt\n      iszero\n      tag_66\n      jumpi\n      dup3\n      dup3\n      0x00\n      dup3\n      add\n      sload\n      dup2\n      0x00\n      add\n      sstore\n      0x01\n      dup3\n      add\n      dup2\n      0x01\n      add\n      swap1\n      dup1\n      sload\n      tag_67\n      swap1\n      tag_25\n      jump\t// in\n    tag_67:\n      tag_68\n      swap3\n      swap2\n      swap1\n      tag_69\n      jump\t// in\n    tag_68:\n      pop\n      pop\n      pop\n      swap2\n      0x02\n      add\n      swap2\n      swap1\n      0x02\n      add\n      swap1\n      jump(tag_65)\n    tag_66:\n    tag_64:\n      pop\n      swap1\n      pop\n      tag_70\n      swap2\n      swap1\n      tag_71\n      jump\t// in\n    tag_70:\n      pop\n      swap1\n      jump\t// out\n    tag_55:\n      pop\n      dup1\n      sload\n      0x00\n      dup3\n      sstore\n      0x02\n      mul\n      swap1\n      0x00\n      mstore\n      keccak256(0x00, 0x20)\n      swap1\n      dup2\n      add\n      swap1\n      tag_73\n      swap2\n      swap1\n      tag_71\n      jump\t// in\n    tag_73:\n      pop\n      jump\t// out\n    tag_63:\n    tag_74:\n      dup1\n      dup3\n      gt\n      iszero\n      tag_75\n      jumpi\n      0x00\n      dup2\n      0x00\n      swap1\n      sstore\n      pop\n      0x01\n      add\n      jump(tag_74)\n    tag_75:\n      pop\n      swap1\n      jump\t// out\n    tag_69:\n      dup3\n      dup1\n      sload\n      tag_76\n      swap1\n      tag_25\n      jump\t// in\n    tag_76:\n      swap1\n      0x00\n      mstore\n      keccak256(0x00, 0x20)\n      swap1\n      0x1f\n      add\n      0x20\n      swap1\n      div\n      dup2\n      add\n      swap3\n      dup3\n      tag_78\n      jumpi\n      0x00\n      dup6\n      sstore\n      jump(tag_77)\n    tag_78:\n      dup3\n      0x1f\n      lt\n      tag_79\n      jumpi\n      dup1\n      sload\n      dup6\n      sstore\n      jump(tag_77)\n    tag_79:\n      dup3\n      dup1\n      add\n      0x01\n      add\n      dup6\n      sstore\n      dup3\n      iszero\n      tag_77\n      jumpi\n      0x00\n      mstore\n      keccak256(0x00, 0x20)\n      swap2\n      0x1f\n      add\n      0x20\n      swap1\n      div\n      dup3\n      add\n    tag_80:\n      dup3\n      dup2\n      gt\n      iszero\n      tag_81\n      jumpi\n      dup3\n      sload\n      dup3\n      sstore\n      swap2\n      0x01\n      add\n      swap2\n      swap1\n      0x01\n      add\n      swap1\n      jump(tag_80)\n    tag_81:\n    tag_77:\n      pop\n      swap1\n      pop\n      tag_82\n      swap2\n      swap1\n      tag_63\n      jump\t// in\n    tag_82:\n      pop\n      swap1\n      jump\t// out\n    tag_71:\n    tag_83:\n      dup1\n      dup3\n      gt\n      iszero\n      tag_84\n      jumpi\n      0x00\n      dup1\n      dup3\n      add\n      0x00\n      swap1\n      sstore\n      0x01\n      dup3\n      add\n      0x00\n      tag_85\n      swap2\n      swap1\n      tag_86\n      jump\t// in\n    tag_85:\n      pop\n      0x02\n      add\n      jump(tag_83)\n    tag_84:\n      pop\n      swap1\n      jump\t// out\n    tag_86:\n      pop\n      dup1\n      sload\n      tag_87\n      swap1\n      tag_25\n      jump\t// in\n    tag_87:\n      0x00\n      dup3\n      sstore\n      dup1\n      0x1f\n      lt\n      tag_89\n      jumpi\n      pop\n      jump(tag_88)\n    tag_89:\n      0x1f\n      add\n      0x20\n      swap1\n      div\n      swap1\n      0x00\n      mstore\n      keccak256(0x00, 0x20)\n      swap1\n      dup2\n      add\n      swap1\n      tag_90\n      swap2\n      swap1\n      tag_63\n      jump\t// in\n    tag_90:\n    tag_88:\n      pop\n      jump\t// out\n        /* \"#utility.yul\":7:419   */\n    tag_92:\n        /* \"#utility.yul\":85:90   */\n      0x00\n        /* \"#utility.yul\":110:176   */\n      tag_94\n        /* \"#utility.yul\":126:175   */\n      tag_95\n        /* \"#utility.yul\":168:174   */\n      dup5\n        /* \"#utility.yul\":126:175   */\n      tag_96\n      jump\t// in\n    tag_95:\n        /* \"#utility.yul\":110:176   */\n      tag_97\n      jump\t// in\n    tag_94:\n        /* \"#utility.yul\":101:176   */\n      swap1\n      pop\n        /* \"#utility.yul\":199:205   */\n      dup3\n        /* \"#utility.yul\":192:197   */\n      dup2\n        /* \"#utility.yul\":185:206   */\n      mstore\n        /* \"#utility.yul\":237:241   */\n      0x20\n        /* \"#utility.yul\":230:235   */\n      dup2\n        /* \"#utility.yul\":226:242   */\n      add\n        /* \"#utility.yul\":275:278   */\n      dup5\n        /* \"#utility.yul\":266:272   */\n      dup5\n        /* \"#utility.yul\":261:264   */\n      dup5\n        /* \"#utility.yul\":257:273   */\n      add\n        /* \"#utility.yul\":254:279   */\n      gt\n        /* \"#utility.yul\":251:363   */\n      iszero\n      tag_98\n      jumpi\n        /* \"#utility.yul\":282:361   */\n      tag_99\n      tag_100\n      jump\t// in\n    tag_99:\n        /* \"#utility.yul\":251:363   */\n    tag_98:\n        /* \"#utility.yul\":372:413   */\n      tag_101\n        /* \"#utility.yul\":406:412   */\n      dup5\n        /* \"#utility.yul\":401:404   */\n      dup3\n        /* \"#utility.yul\":396:399   */\n      dup6\n        /* \"#utility.yul\":372:413   */\n      tag_102\n      jump\t// in\n    tag_101:\n        /* \"#utility.yul\":91:419   */\n      pop\n        /* \"#utility.yul\":7:419   */\n      swap4\n      swap3\n      pop\n      pop\n      pop\n      jump\t// out\n        /* \"#utility.yul\":439:779   */\n    tag_103:\n        /* \"#utility.yul\":495:500   */\n      0x00\n        /* \"#utility.yul\":544:547   */\n      dup3\n        /* \"#utility.yul\":537:541   */\n      0x1f\n        /* \"#utility.yul\":529:535   */\n      dup4\n        /* \"#utility.yul\":525:542   */\n      add\n        /* \"#utility.yul\":521:548   */\n      slt\n        /* \"#utility.yul\":511:633   */\n      tag_105\n      jumpi\n        /* \"#utility.yul\":552:631   */\n      tag_106\n      tag_107\n      jump\t// in\n    tag_106:\n        /* \"#utility.yul\":511:633   */\n    tag_105:\n        /* \"#utility.yul\":669:675   */\n      dup2\n        /* \"#utility.yul\":656:676   */\n      calldataload\n        /* \"#utility.yul\":694:773   */\n      tag_108\n        /* \"#utility.yul\":769:772   */\n      dup5\n        /* \"#utility.yul\":761:767   */\n      dup3\n        /* \"#utility.yul\":754:758   */\n      0x20\n        /* \"#utility.yul\":746:752   */\n      dup7\n        /* \"#utility.yul\":742:759   */\n      add\n        /* \"#utility.yul\":694:773   */\n      tag_92\n      jump\t// in\n    tag_108:\n        /* \"#utility.yul\":685:773   */\n      swap2\n      pop\n        /* \"#utility.yul\":501:779   */\n      pop\n        /* \"#utility.yul\":439:779   */\n      swap3\n      swap2\n      pop\n      pop\n      jump\t// out\n        /* \"#utility.yul\":785:924   */\n    tag_109:\n        /* \"#utility.yul\":831:836   */\n      0x00\n        /* \"#utility.yul\":869:875   */\n      dup2\n        /* \"#utility.yul\":856:876   */\n      calldataload\n        /* \"#utility.yul\":847:876   */\n      swap1\n      pop\n        /* \"#utility.yul\":885:918   */\n      tag_111\n        /* \"#utility.yul\":912:917   */\n      dup2\n        /* \"#utility.yul\":885:918   */\n      tag_112\n      jump\t// in\n    tag_111:\n        /* \"#utility.yul\":785:924   */\n      swap3\n      swap2\n      pop\n      pop\n      jump\t// out\n        /* \"#utility.yul\":930:1584   */\n    tag_13:\n        /* \"#utility.yul\":1008:1014   */\n      0x00\n        /* \"#utility.yul\":1016:1022   */\n      dup1\n        /* \"#utility.yul\":1065:1067   */\n      0x40\n        /* \"#utility.yul\":1053:1062   */\n      dup4\n        /* \"#utility.yul\":1044:1051   */\n      dup6\n        /* \"#utility.yul\":1040:1063   */\n      sub\n        /* \"#utility.yul\":1036:1068   */\n      slt\n        /* \"#utility.yul\":1033:1152   */\n      iszero\n      tag_114\n      jumpi\n        /* \"#utility.yul\":1071:1150   */\n      tag_115\n      tag_116\n      jump\t// in\n    tag_115:\n        /* \"#utility.yul\":1033:1152   */\n    tag_114:\n        /* \"#utility.yul\":1191:1192   */\n      0x00\n        /* \"#utility.yul\":1216:1269   */\n      tag_117\n        /* \"#utility.yul\":1261:1268   */\n      dup6\n        /* \"#utility.yul\":1252:1258   */\n      dup3\n        /* \"#utility.yul\":1241:1250   */\n      dup7\n        /* \"#utility.yul\":1237:1259   */\n      add\n        /* \"#utility.yul\":1216:1269   */\n      tag_109\n      jump\t// in\n    tag_117:\n        /* \"#utility.yul\":1206:1269   */\n      swap3\n      pop\n        /* \"#utility.yul\":1162:1279   */\n      pop\n        /* \"#utility.yul\":1346:1348   */\n      0x20\n        /* \"#utility.yul\":1335:1344   */\n      dup4\n        /* \"#utility.yul\":1331:1349   */\n      add\n        /* \"#utility.yul\":1318:1350   */\n      calldataload\n        /* \"#utility.yul\":1377:1395   */\n      0xffffffffffffffff\n        /* \"#utility.yul\":1369:1375   */\n      dup2\n        /* \"#utility.yul\":1366:1396   */\n      gt\n        /* \"#utility.yul\":1363:1480   */\n      iszero\n      tag_118\n      jumpi\n        /* \"#utility.yul\":1399:1478   */\n      tag_119\n      tag_120\n      jump\t// in\n    tag_119:\n        /* \"#utility.yul\":1363:1480   */\n    tag_118:\n        /* \"#utility.yul\":1504:1567   */\n      tag_121\n        /* \"#utility.yul\":1559:1566   */\n      dup6\n        /* \"#utility.yul\":1550:1556   */\n      dup3\n        /* \"#utility.yul\":1539:1548   */\n      dup7\n        /* \"#utility.yul\":1535:1557   */\n      add\n        /* \"#utility.yul\":1504:1567   */\n      tag_103\n      jump\t// in\n    tag_121:\n        /* \"#utility.yul\":1494:1567   */\n      swap2\n      pop\n        /* \"#utility.yul\":1289:1577   */\n      pop\n        /* \"#utility.yul\":930:1584   */\n      swap3\n      pop\n      swap3\n      swap1\n      pop\n      jump\t// out\n        /* \"#utility.yul\":1590:1834   */\n    tag_122:\n        /* \"#utility.yul\":1703:1713   */\n      0x00\n        /* \"#utility.yul\":1738:1828   */\n      tag_124\n        /* \"#utility.yul\":1824:1827   */\n      dup4\n        /* \"#utility.yul\":1816:1822   */\n      dup4\n        /* \"#utility.yul\":1738:1828   */\n      tag_125\n      jump\t// in\n    tag_124:\n        /* \"#utility.yul\":1724:1828   */\n      swap1\n      pop\n        /* \"#utility.yul\":1590:1834   */\n      swap3\n      swap2\n      pop\n      pop\n      jump\t// out\n        /* \"#utility.yul\":1894:2981   */\n    tag_126:\n        /* \"#utility.yul\":2057:2060   */\n      0x00\n        /* \"#utility.yul\":2086:2162   */\n      tag_128\n        /* \"#utility.yul\":2156:2161   */\n      dup3\n        /* \"#utility.yul\":2086:2162   */\n      tag_129\n      jump\t// in\n    tag_128:\n        /* \"#utility.yul\":2178:2286   */\n      tag_130\n        /* \"#utility.yul\":2279:2285   */\n      dup2\n        /* \"#utility.yul\":2274:2277   */\n      dup6\n        /* \"#utility.yul\":2178:2286   */\n      tag_131\n      jump\t// in\n    tag_130:\n        /* \"#utility.yul\":2171:2286   */\n      swap4\n      pop\n        /* \"#utility.yul\":2312:2315   */\n      dup4\n        /* \"#utility.yul\":2357:2361   */\n      0x20\n        /* \"#utility.yul\":2349:2355   */\n      dup3\n        /* \"#utility.yul\":2345:2362   */\n      mul\n        /* \"#utility.yul\":2340:2343   */\n      dup6\n        /* \"#utility.yul\":2336:2363   */\n      add\n        /* \"#utility.yul\":2387:2465   */\n      tag_132\n        /* \"#utility.yul\":2459:2464   */\n      dup6\n        /* \"#utility.yul\":2387:2465   */\n      tag_133\n      jump\t// in\n    tag_132:\n        /* \"#utility.yul\":2488:2495   */\n      dup1\n        /* \"#utility.yul\":2519:2520   */\n      0x00\n        /* \"#utility.yul\":2504:2936   */\n    tag_134:\n        /* \"#utility.yul\":2529:2535   */\n      dup6\n        /* \"#utility.yul\":2526:2527   */\n      dup2\n        /* \"#utility.yul\":2523:2536   */\n      lt\n        /* \"#utility.yul\":2504:2936   */\n      iszero\n      tag_136\n      jumpi\n        /* \"#utility.yul\":2600:2609   */\n      dup5\n        /* \"#utility.yul\":2594:2598   */\n      dup5\n        /* \"#utility.yul\":2590:2610   */\n      sub\n        /* \"#utility.yul\":2585:2588   */\n      dup10\n        /* \"#utility.yul\":2578:2611   */\n      mstore\n        /* \"#utility.yul\":2651:2657   */\n      dup2\n        /* \"#utility.yul\":2645:2658   */\n      mload\n        /* \"#utility.yul\":2679:2787   */\n      tag_137\n        /* \"#utility.yul\":2782:2786   */\n      dup6\n        /* \"#utility.yul\":2767:2780   */\n      dup3\n        /* \"#utility.yul\":2679:2787   */\n      tag_122\n      jump\t// in\n    tag_137:\n        /* \"#utility.yul\":2671:2787   */\n      swap5\n      pop\n        /* \"#utility.yul\":2810:2892   */\n      tag_138\n        /* \"#utility.yul\":2885:2891   */\n      dup4\n        /* \"#utility.yul\":2810:2892   */\n      tag_139\n      jump\t// in\n    tag_138:\n        /* \"#utility.yul\":2800:2892   */\n      swap3\n      pop\n        /* \"#utility.yul\":2921:2925   */\n      0x20\n        /* \"#utility.yul\":2916:2919   */\n      dup11\n        /* \"#utility.yul\":2912:2926   */\n      add\n        /* \"#utility.yul\":2905:2926   */\n      swap10\n      pop\n        /* \"#utility.yul\":2564:2936   */\n      pop\n        /* \"#utility.yul\":2551:2552   */\n      0x01\n        /* \"#utility.yul\":2548:2549   */\n      dup2\n        /* \"#utility.yul\":2544:2553   */\n      add\n        /* \"#utility.yul\":2539:2553   */\n      swap1\n      pop\n        /* \"#utility.yul\":2504:2936   */\n      jump(tag_134)\n    tag_136:\n        /* \"#utility.yul\":2508:2522   */\n      pop\n        /* \"#utility.yul\":2952:2956   */\n      dup3\n        /* \"#utility.yul\":2945:2956   */\n      swap8\n      pop\n        /* \"#utility.yul\":2972:2975   */\n      dup8\n        /* \"#utility.yul\":2965:2975   */\n      swap6\n      pop\n        /* \"#utility.yul\":2062:2981   */\n      pop\n      pop\n      pop\n      pop\n      pop\n        /* \"#utility.yul\":1894:2981   */\n      swap3\n      swap2\n      pop\n      pop\n      jump\t// out\n        /* \"#utility.yul\":2987:3331   */\n    tag_140:\n        /* \"#utility.yul\":3065:3068   */\n      0x00\n        /* \"#utility.yul\":3093:3132   */\n      tag_142\n        /* \"#utility.yul\":3126:3131   */\n      dup3\n        /* \"#utility.yul\":3093:3132   */\n      tag_143\n      jump\t// in\n    tag_142:\n        /* \"#utility.yul\":3148:3209   */\n      tag_144\n        /* \"#utility.yul\":3202:3208   */\n      dup2\n        /* \"#utility.yul\":3197:3200   */\n      dup6\n        /* \"#utility.yul\":3148:3209   */\n      tag_145\n      jump\t// in\n    tag_144:\n        /* \"#utility.yul\":3141:3209   */\n      swap4\n      pop\n        /* \"#utility.yul\":3218:3270   */\n      tag_146\n        /* \"#utility.yul\":3263:3269   */\n      dup2\n        /* \"#utility.yul\":3258:3261   */\n      dup6\n        /* \"#utility.yul\":3251:3255   */\n      0x20\n        /* \"#utility.yul\":3244:3249   */\n      dup7\n        /* \"#utility.yul\":3240:3256   */\n      add\n        /* \"#utility.yul\":3218:3270   */\n      tag_147\n      jump\t// in\n    tag_146:\n        /* \"#utility.yul\":3295:3324   */\n      tag_148\n        /* \"#utility.yul\":3317:3323   */\n      dup2\n        /* \"#utility.yul\":3295:3324   */\n      tag_149\n      jump\t// in\n    tag_148:\n        /* \"#utility.yul\":3290:3293   */\n      dup5\n        /* \"#utility.yul\":3286:3325   */\n      add\n        /* \"#utility.yul\":3279:3325   */\n      swap2\n      pop\n        /* \"#utility.yul\":3069:3331   */\n      pop\n        /* \"#utility.yul\":2987:3331   */\n      swap3\n      swap2\n      pop\n      pop\n      jump\t// out\n        /* \"#utility.yul\":3387:3979   */\n    tag_125:\n        /* \"#utility.yul\":3490:3493   */\n      0x00\n        /* \"#utility.yul\":3526:3530   */\n      0x40\n        /* \"#utility.yul\":3521:3524   */\n      dup4\n        /* \"#utility.yul\":3517:3531   */\n      add\n        /* \"#utility.yul\":3611:3615   */\n      0x00\n        /* \"#utility.yul\":3604:3609   */\n      dup4\n        /* \"#utility.yul\":3600:3616   */\n      add\n        /* \"#utility.yul\":3594:3617   */\n      mload\n        /* \"#utility.yul\":3630:3693   */\n      tag_151\n        /* \"#utility.yul\":3687:3691   */\n      0x00\n        /* \"#utility.yul\":3682:3685   */\n      dup7\n        /* \"#utility.yul\":3678:3692   */\n      add\n        /* \"#utility.yul\":3664:3676   */\n      dup3\n        /* \"#utility.yul\":3630:3693   */\n      tag_152\n      jump\t// in\n    tag_151:\n        /* \"#utility.yul\":3541:3703   */\n      pop\n        /* \"#utility.yul\":3789:3793   */\n      0x20\n        /* \"#utility.yul\":3782:3787   */\n      dup4\n        /* \"#utility.yul\":3778:3794   */\n      add\n        /* \"#utility.yul\":3772:3795   */\n      mload\n        /* \"#utility.yul\":3842:3845   */\n      dup5\n        /* \"#utility.yul\":3836:3840   */\n      dup3\n        /* \"#utility.yul\":3832:3846   */\n      sub\n        /* \"#utility.yul\":3825:3829   */\n      0x20\n        /* \"#utility.yul\":3820:3823   */\n      dup7\n        /* \"#utility.yul\":3816:3830   */\n      add\n        /* \"#utility.yul\":3809:3847   */\n      mstore\n        /* \"#utility.yul\":3868:3941   */\n      tag_153\n        /* \"#utility.yul\":3936:3940   */\n      dup3\n        /* \"#utility.yul\":3922:3934   */\n      dup3\n        /* \"#utility.yul\":3868:3941   */\n      tag_140\n      jump\t// in\n    tag_153:\n        /* \"#utility.yul\":3860:3941   */\n      swap2\n      pop\n        /* \"#utility.yul\":3713:3952   */\n      pop\n        /* \"#utility.yul\":3969:3973   */\n      dup1\n        /* \"#utility.yul\":3962:3973   */\n      swap2\n      pop\n        /* \"#utility.yul\":3495:3979   */\n      pop\n        /* \"#utility.yul\":3387:3979   */\n      swap3\n      swap2\n      pop\n      pop\n      jump\t// out\n        /* \"#utility.yul\":3985:4093   */\n    tag_152:\n        /* \"#utility.yul\":4062:4086   */\n      tag_155\n        /* \"#utility.yul\":4080:4085   */\n      dup2\n        /* \"#utility.yul\":4062:4086   */\n      tag_156\n      jump\t// in\n    tag_155:\n        /* \"#utility.yul\":4057:4060   */\n      dup3\n        /* \"#utility.yul\":4050:4087   */\n      mstore\n        /* \"#utility.yul\":3985:4093   */\n      pop\n      pop\n      jump\t// out\n        /* \"#utility.yul\":4099:4560   */\n    tag_10:\n        /* \"#utility.yul\":4286:4290   */\n      0x00\n        /* \"#utility.yul\":4324:4326   */\n      0x20\n        /* \"#utility.yul\":4313:4322   */\n      dup3\n        /* \"#utility.yul\":4309:4327   */\n      add\n        /* \"#utility.yul\":4301:4327   */\n      swap1\n      pop\n        /* \"#utility.yul\":4373:4382   */\n      dup2\n        /* \"#utility.yul\":4367:4371   */\n      dup2\n        /* \"#utility.yul\":4363:4383   */\n      sub\n        /* \"#utility.yul\":4359:4360   */\n      0x00\n        /* \"#utility.yul\":4348:4357   */\n      dup4\n        /* \"#utility.yul\":4344:4361   */\n      add\n        /* \"#utility.yul\":4337:4384   */\n      mstore\n        /* \"#utility.yul\":4401:4553   */\n      tag_158\n        /* \"#utility.yul\":4548:4552   */\n      dup2\n        /* \"#utility.yul\":4539:4545   */\n      dup5\n        /* \"#utility.yul\":4401:4553   */\n      tag_126\n      jump\t// in\n    tag_158:\n        /* \"#utility.yul\":4393:4553   */\n      swap1\n      pop\n        /* \"#utility.yul\":4099:4560   */\n      swap3\n      swap2\n      pop\n      pop\n      jump\t// out\n        /* \"#utility.yul\":4566:4695   */\n    tag_97:\n        /* \"#utility.yul\":4600:4606   */\n      0x00\n        /* \"#utility.yul\":4627:4647   */\n      tag_160\n      tag_161\n      jump\t// in\n    tag_160:\n        /* \"#utility.yul\":4617:4647   */\n      swap1\n      pop\n        /* \"#utility.yul\":4656:4689   */\n      tag_162\n        /* \"#utility.yul\":4684:4688   */\n      dup3\n        /* \"#utility.yul\":4676:4682   */\n      dup3\n        /* \"#utility.yul\":4656:4689   */\n      tag_163\n      jump\t// in\n    tag_162:\n        /* \"#utility.yul\":4566:4695   */\n      swap2\n      swap1\n      pop\n      jump\t// out\n        /* \"#utility.yul\":4701:4776   */\n    tag_161:\n        /* \"#utility.yul\":4734:4740   */\n      0x00\n        /* \"#utility.yul\":4767:4769   */\n      0x40\n        /* \"#utility.yul\":4761:4770   */\n      mload\n        /* \"#utility.yul\":4751:4770   */\n      swap1\n      pop\n        /* \"#utility.yul\":4701:4776   */\n      swap1\n      jump\t// out\n        /* \"#utility.yul\":4782:5090   */\n    tag_96:\n        /* \"#utility.yul\":4844:4848   */\n      0x00\n        /* \"#utility.yul\":4934:4952   */\n      0xffffffffffffffff\n        /* \"#utility.yul\":4926:4932   */\n      dup3\n        /* \"#utility.yul\":4923:4953   */\n      gt\n        /* \"#utility.yul\":4920:4976   */\n      iszero\n      tag_166\n      jumpi\n        /* \"#utility.yul\":4956:4974   */\n      tag_167\n      tag_168\n      jump\t// in\n    tag_167:\n        /* \"#utility.yul\":4920:4976   */\n    tag_166:\n        /* \"#utility.yul\":4994:5023   */\n      tag_169\n        /* \"#utility.yul\":5016:5022   */\n      dup3\n        /* \"#utility.yul\":4994:5023   */\n      tag_149\n      jump\t// in\n    tag_169:\n        /* \"#utility.yul\":4986:5023   */\n      swap1\n      pop\n        /* \"#utility.yul\":5078:5082   */\n      0x20\n        /* \"#utility.yul\":5072:5076   */\n      dup2\n        /* \"#utility.yul\":5068:5083   */\n      add\n        /* \"#utility.yul\":5060:5083   */\n      swap1\n      pop\n        /* \"#utility.yul\":4782:5090   */\n      swap2\n      swap1\n      pop\n      jump\t// out\n        /* \"#utility.yul\":5096:5250   */\n    tag_133:\n        /* \"#utility.yul\":5185:5189   */\n      0x00\n        /* \"#utility.yul\":5208:5211   */\n      dup2\n        /* \"#utility.yul\":5200:5211   */\n      swap1\n      pop\n        /* \"#utility.yul\":5238:5242   */\n      0x20\n        /* \"#utility.yul\":5233:5236   */\n      dup3\n        /* \"#utility.yul\":5229:5243   */\n      add\n        /* \"#utility.yul\":5221:5243   */\n      swap1\n      pop\n        /* \"#utility.yul\":5096:5250   */\n      swap2\n      swap1\n      pop\n      jump\t// out\n        /* \"#utility.yul\":5256:5392   */\n    tag_129:\n        /* \"#utility.yul\":5345:5351   */\n      0x00\n        /* \"#utility.yul\":5379:5384   */\n      dup2\n        /* \"#utility.yul\":5373:5385   */\n      mload\n        /* \"#utility.yul\":5363:5385   */\n      swap1\n      pop\n        /* \"#utility.yul\":5256:5392   */\n      swap2\n      swap1\n      pop\n      jump\t// out\n        /* \"#utility.yul\":5398:5497   */\n    tag_143:\n        /* \"#utility.yul\":5450:5456   */\n      0x00\n        /* \"#utility.yul\":5484:5489   */\n      dup2\n        /* \"#utility.yul\":5478:5490   */\n      mload\n        /* \"#utility.yul\":5468:5490   */\n      swap1\n      pop\n        /* \"#utility.yul\":5398:5497   */\n      swap2\n      swap1\n      pop\n      jump\t// out\n        /* \"#utility.yul\":5503:5638   */\n    tag_139:\n        /* \"#utility.yul\":5595:5599   */\n      0x00\n        /* \"#utility.yul\":5627:5631   */\n      0x20\n        /* \"#utility.yul\":5622:5625   */\n      dup3\n        /* \"#utility.yul\":5618:5632   */\n      add\n        /* \"#utility.yul\":5610:5632   */\n      swap1\n      pop\n        /* \"#utility.yul\":5503:5638   */\n      swap2\n      swap1\n      pop\n      jump\t// out\n        /* \"#utility.yul\":5644:5850   */\n    tag_131:\n        /* \"#utility.yul\":5765:5776   */\n      0x00\n        /* \"#utility.yul\":5799:5805   */\n      dup3\n        /* \"#utility.yul\":5794:5797   */\n      dup3\n        /* \"#utility.yul\":5787:5806   */\n      mstore\n        /* \"#utility.yul\":5839:5843   */\n      0x20\n        /* \"#utility.yul\":5834:5837   */\n      dup3\n        /* \"#utility.yul\":5830:5844   */\n      add\n        /* \"#utility.yul\":5815:5844   */\n      swap1\n      pop\n        /* \"#utility.yul\":5644:5850   */\n      swap3\n      swap2\n      pop\n      pop\n      jump\t// out\n        /* \"#utility.yul\":5856:6015   */\n    tag_145:\n        /* \"#utility.yul\":5930:5941   */\n      0x00\n        /* \"#utility.yul\":5964:5970   */\n      dup3\n        /* \"#utility.yul\":5959:5962   */\n      dup3\n        /* \"#utility.yul\":5952:5971   */\n      mstore\n        /* \"#utility.yul\":6004:6008   */\n      0x20\n        /* \"#utility.yul\":5999:6002   */\n      dup3\n        /* \"#utility.yul\":5995:6009   */\n      add\n        /* \"#utility.yul\":5980:6009   */\n      swap1\n      pop\n        /* \"#utility.yul\":5856:6015   */\n      swap3\n      swap2\n      pop\n      pop\n      jump\t// out\n        /* \"#utility.yul\":6021:6212   */\n    tag_35:\n        /* \"#utility.yul\":6061:6065   */\n      0x00\n        /* \"#utility.yul\":6081:6101   */\n      tag_177\n        /* \"#utility.yul\":6099:6100   */\n      dup3\n        /* \"#utility.yul\":6081:6101   */\n      tag_156\n      jump\t// in\n    tag_177:\n        /* \"#utility.yul\":6076:6101   */\n      swap2\n      pop\n        /* \"#utility.yul\":6115:6135   */\n      tag_178\n        /* \"#utility.yul\":6133:6134   */\n      dup4\n        /* \"#utility.yul\":6115:6135   */\n      tag_156\n      jump\t// in\n    tag_178:\n        /* \"#utility.yul\":6110:6135   */\n      swap3\n      pop\n        /* \"#utility.yul\":6154:6155   */\n      dup3\n        /* \"#utility.yul\":6151:6152   */\n      dup3\n        /* \"#utility.yul\":6148:6156   */\n      lt\n        /* \"#utility.yul\":6145:6179   */\n      iszero\n      tag_179\n      jumpi\n        /* \"#utility.yul\":6159:6177   */\n      tag_180\n      tag_181\n      jump\t// in\n    tag_180:\n        /* \"#utility.yul\":6145:6179   */\n    tag_179:\n        /* \"#utility.yul\":6204:6205   */\n      dup3\n        /* \"#utility.yul\":6201:6202   */\n      dup3\n        /* \"#utility.yul\":6197:6206   */\n      sub\n        /* \"#utility.yul\":6189:6206   */\n      swap1\n      pop\n        /* \"#utility.yul\":6021:6212   */\n      swap3\n      swap2\n      pop\n      pop\n      jump\t// out\n        /* \"#utility.yul\":6218:6295   */\n    tag_156:\n        /* \"#utility.yul\":6255:6262   */\n      0x00\n        /* \"#utility.yul\":6284:6289   */\n      dup2\n        /* \"#utility.yul\":6273:6289   */\n      swap1\n      pop\n        /* \"#utility.yul\":6218:6295   */\n      swap2\n      swap1\n      pop\n      jump\t// out\n        /* \"#utility.yul\":6301:6455   */\n    tag_102:\n        /* \"#utility.yul\":6385:6391   */\n      dup3\n        /* \"#utility.yul\":6380:6383   */\n      dup2\n        /* \"#utility.yul\":6375:6378   */\n      dup4\n        /* \"#utility.yul\":6362:6392   */\n      calldatacopy\n        /* \"#utility.yul\":6447:6448   */\n      0x00\n        /* \"#utility.yul\":6438:6444   */\n      dup4\n        /* \"#utility.yul\":6433:6436   */\n      dup4\n        /* \"#utility.yul\":6429:6445   */\n      add\n        /* \"#utility.yul\":6422:6449   */\n      mstore\n        /* \"#utility.yul\":6301:6455   */\n      pop\n      pop\n      pop\n      jump\t// out\n        /* \"#utility.yul\":6461:6768   */\n    tag_147:\n        /* \"#utility.yul\":6529:6530   */\n      0x00\n        /* \"#utility.yul\":6539:6652   */\n    tag_185:\n        /* \"#utility.yul\":6553:6559   */\n      dup4\n        /* \"#utility.yul\":6550:6551   */\n      dup2\n        /* \"#utility.yul\":6547:6560   */\n      lt\n        /* \"#utility.yul\":6539:6652   */\n      iszero\n      tag_187\n      jumpi\n        /* \"#utility.yul\":6638:6639   */\n      dup1\n        /* \"#utility.yul\":6633:6636   */\n      dup3\n        /* \"#utility.yul\":6629:6640   */\n      add\n        /* \"#utility.yul\":6623:6641   */\n      mload\n        /* \"#utility.yul\":6619:6620   */\n      dup2\n        /* \"#utility.yul\":6614:6617   */\n      dup5\n        /* \"#utility.yul\":6610:6621   */\n      add\n        /* \"#utility.yul\":6603:6642   */\n      mstore\n        /* \"#utility.yul\":6575:6577   */\n      0x20\n        /* \"#utility.yul\":6572:6573   */\n      dup2\n        /* \"#utility.yul\":6568:6578   */\n      add\n        /* \"#utility.yul\":6563:6578   */\n      swap1\n      pop\n        /* \"#utility.yul\":6539:6652   */\n      jump(tag_185)\n    tag_187:\n        /* \"#utility.yul\":6670:6676   */\n      dup4\n        /* \"#utility.yul\":6667:6668   */\n      dup2\n        /* \"#utility.yul\":6664:6677   */\n      gt\n        /* \"#utility.yul\":6661:6762   */\n      iszero\n      tag_188\n      jumpi\n        /* \"#utility.yul\":6750:6751   */\n      0x00\n        /* \"#utility.yul\":6741:6747   */\n      dup5\n        /* \"#utility.yul\":6736:6739   */\n      dup5\n        /* \"#utility.yul\":6732:6748   */\n      add\n        /* \"#utility.yul\":6725:6752   */\n      mstore\n        /* \"#utility.yul\":6661:6762   */\n    tag_188:\n        /* \"#utility.yul\":6510:6768   */\n      pop\n        /* \"#utility.yul\":6461:6768   */\n      pop\n      pop\n      pop\n      jump\t// out\n        /* \"#utility.yul\":6774:7094   */\n    tag_25:\n        /* \"#utility.yul\":6818:6824   */\n      0x00\n        /* \"#utility.yul\":6855:6856   */\n      0x02\n        /* \"#utility.yul\":6849:6853   */\n      dup3\n        /* \"#utility.yul\":6845:6857   */\n      div\n        /* \"#utility.yul\":6835:6857   */\n      swap1\n      pop\n        /* \"#utility.yul\":6902:6903   */\n      0x01\n        /* \"#utility.yul\":6896:6900   */\n      dup3\n        /* \"#utility.yul\":6892:6904   */\n      and\n        /* \"#utility.yul\":6923:6941   */\n      dup1\n        /* \"#utility.yul\":6913:6994   */\n      tag_190\n      jumpi\n        /* \"#utility.yul\":6979:6983   */\n      0x7f\n        /* \"#utility.yul\":6971:6977   */\n      dup3\n        /* \"#utility.yul\":6967:6984   */\n      and\n        /* \"#utility.yul\":6957:6984   */\n      swap2\n      pop\n        /* \"#utility.yul\":6913:6994   */\n    tag_190:\n        /* \"#utility.yul\":7041:7043   */\n      0x20\n        /* \"#utility.yul\":7033:7039   */\n      dup3\n        /* \"#utility.yul\":7030:7044   */\n      lt\n        /* \"#utility.yul\":7010:7028   */\n      dup2\n        /* \"#utility.yul\":7007:7045   */\n      eq\n        /* \"#utility.yul\":7004:7088   */\n      iszero\n      tag_191\n      jumpi\n        /* \"#utility.yul\":7060:7078   */\n      tag_192\n      tag_193\n      jump\t// in\n    tag_192:\n        /* \"#utility.yul\":7004:7088   */\n    tag_191:\n        /* \"#utility.yul\":6825:7094   */\n      pop\n        /* \"#utility.yul\":6774:7094   */\n      swap2\n      swap1\n      pop\n      jump\t// out\n        /* \"#utility.yul\":7100:7381   */\n    tag_163:\n        /* \"#utility.yul\":7183:7210   */\n      tag_195\n        /* \"#utility.yul\":7205:7209   */\n      dup3\n        /* \"#utility.yul\":7183:7210   */\n      tag_149\n      jump\t// in\n    tag_195:\n        /* \"#utility.yul\":7175:7181   */\n      dup2\n        /* \"#utility.yul\":7171:7211   */\n      add\n        /* \"#utility.yul\":7313:7319   */\n      dup2\n        /* \"#utility.yul\":7301:7311   */\n      dup2\n        /* \"#utility.yul\":7298:7320   */\n      lt\n        /* \"#utility.yul\":7277:7295   */\n      0xffffffffffffffff\n        /* \"#utility.yul\":7265:7275   */\n      dup3\n        /* \"#utility.yul\":7262:7296   */\n      gt\n        /* \"#utility.yul\":7259:7321   */\n      or\n        /* \"#utility.yul\":7256:7344   */\n      iszero\n      tag_196\n      jumpi\n        /* \"#utility.yul\":7324:7342   */\n      tag_197\n      tag_168\n      jump\t// in\n    tag_197:\n        /* \"#utility.yul\":7256:7344   */\n    tag_196:\n        /* \"#utility.yul\":7364:7374   */\n      dup1\n        /* \"#utility.yul\":7360:7362   */\n      0x40\n        /* \"#utility.yul\":7353:7375   */\n      mstore\n        /* \"#utility.yul\":7143:7381   */\n      pop\n        /* \"#utility.yul\":7100:7381   */\n      pop\n      pop\n      jump\t// out\n        /* \"#utility.yul\":7387:7620   */\n    tag_47:\n        /* \"#utility.yul\":7426:7429   */\n      0x00\n        /* \"#utility.yul\":7449:7473   */\n      tag_199\n        /* \"#utility.yul\":7467:7472   */\n      dup3\n        /* \"#utility.yul\":7449:7473   */\n      tag_156\n      jump\t// in\n    tag_199:\n        /* \"#utility.yul\":7440:7473   */\n      swap2\n      pop\n        /* \"#utility.yul\":7495:7561   */\n      0xffffffffffffffffffffffffffffffffffffffffffffffffffffffffffffffff\n        /* \"#utility.yul\":7488:7493   */\n      dup3\n        /* \"#utility.yul\":7485:7562   */\n      eq\n        /* \"#utility.yul\":7482:7585   */\n      iszero\n      tag_200\n      jumpi\n        /* \"#utility.yul\":7565:7583   */\n      tag_201\n      tag_181\n      jump\t// in\n    tag_201:\n        /* \"#utility.yul\":7482:7585   */\n    tag_200:\n        /* \"#utility.yul\":7612:7613   */\n      0x01\n        /* \"#utility.yul\":7605:7610   */\n      dup3\n        /* \"#utility.yul\":7601:7614   */\n      add\n        /* \"#utility.yul\":7594:7614   */\n      swap1\n      pop\n        /* \"#utility.yul\":7387:7620   */\n      swap2\n      swap1\n      pop\n      jump\t// out\n        /* \"#utility.yul\":7626:7806   */\n    tag_181:\n        /* \"#utility.yul\":7674:7751   */\n      0x4e487b7100000000000000000000000000000000000000000000000000000000\n        /* \"#utility.yul\":7671:7672   */\n      0x00\n        /* \"#utility.yul\":7664:7752   */\n      mstore\n        /* \"#utility.yul\":7771:7775   */\n      0x11\n        /* \"#utility.yul\":7768:7769   */\n      0x04\n        /* \"#utility.yul\":7761:7776   */\n      mstore\n        /* \"#utility.yul\":7795:7799   */\n      0x24\n        /* \"#utility.yul\":7792:7793   */\n      0x00\n        /* \"#utility.yul\":7785:7800   */\n      revert\n        /* \"#utility.yul\":7812:7992   */\n    tag_193:\n        /* \"#utility.yul\":7860:7937   */\n      0x4e487b7100000000000000000000000000000000000000000000000000000000\n        /* \"#utility.yul\":7857:7858   */\n      0x00\n        /* \"#utility.yul\":7850:7938   */\n      mstore\n        /* \"#utility.yul\":7957:7961   */\n      0x22\n        /* \"#utility.yul\":7954:7955   */\n      0x04\n        /* \"#utility.yul\":7947:7962   */\n      mstore\n        /* \"#utility.yul\":7981:7985   */\n      0x24\n        /* \"#utility.yul\":7978:7979   */\n      0x00\n        /* \"#utility.yul\":7971:7986   */\n      revert\n        /* \"#utility.yul\":7998:8178   */\n    tag_38:\n        /* \"#utility.yul\":8046:8123   */\n      0x4e487b7100000000000000000000000000000000000000000000000000000000\n        /* \"#utility.yul\":8043:8044   */\n      0x00\n        /* \"#utility.yul\":8036:8124   */\n      mstore\n        /* \"#utility.yul\":8143:8147   */\n      0x32\n        /* \"#utility.yul\":8140:8141   */\n      0x04\n        /* \"#utility.yul\":8133:8148   */\n      mstore\n        /* \"#utility.yul\":8167:8171   */\n      0x24\n        /* \"#utility.yul\":8164:8165   */\n      0x00\n        /* \"#utility.yul\":8157:8172   */\n      revert\n        /* \"#utility.yul\":8184:8364   */\n    tag_168:\n        /* \"#utility.yul\":8232:8309   */\n      0x4e487b7100000000000000000000000000000000000000000000000000000000\n        /* \"#utility.yul\":8229:8230   */\n      0x00\n        /* \"#utility.yul\":8222:8310   */\n      mstore\n        /* \"#utility.yul\":8329:8333   */\n      0x41\n        /* \"#utility.yul\":8326:8327   */\n      0x04\n        /* \"#utility.yul\":8319:8334   */\n      mstore\n        /* \"#utility.yul\":8353:8357   */\n      0x24\n        /* \"#utility.yul\":8350:8351   */\n      0x00\n        /* \"#utility.yul\":8343:8358   */\n      revert\n        /* \"#utility.yul\":8370:8487   */\n    tag_107:\n        /* \"#utility.yul\":8479:8480   */\n      0x00\n        /* \"#utility.yul\":8476:8477   */\n      dup1\n        /* \"#utility.yul\":8469:8481   */\n      revert\n        /* \"#utility.yul\":8493:8610   */\n    tag_100:\n        /* \"#utility.yul\":8602:8603   */\n      0x00\n        /* \"#utility.yul\":8599:8600   */\n      dup1\n        /* \"#utility.yul\":8592:8604   */\n      revert\n        /* \"#utility.yul\":8616:8733   */\n    tag_120:\n        /* \"#utility.yul\":8725:8726   */\n      0x00\n        /* \"#utility.yul\":8722:8723   */\n      dup1\n        /* \"#utility.yul\":8715:8727   */\n      revert\n        /* \"#utility.yul\":8739:8856   */\n    tag_116:\n        /* \"#utility.yul\":8848:8849   */\n      0x00\n        /* \"#utility.yul\":8845:8846   */\n      dup1\n        /* \"#utility.yul\":8838:8850   */\n      revert\n        /* \"#utility.yul\":8862:8964   */\n    tag_149:\n        /* \"#utility.yul\":8903:8909   */\n      0x00\n        /* \"#utility.yul\":8954:8956   */\n      0x1f\n        /* \"#utility.yul\":8950:8957   */\n      not\n        /* \"#utility.yul\":8945:8947   */\n      0x1f\n        /* \"#utility.yul\":8938:8943   */\n      dup4\n        /* \"#utility.yul\":8934:8948   */\n      add\n        /* \"#utility.yul\":8930:8958   */\n      and\n        /* \"#utility.yul\":8920:8958   */\n      swap1\n      pop\n        /* \"#utility.yul\":8862:8964   */\n      swap2\n      swap1\n      pop\n      jump\t// out\n        /* \"#utility.yul\":8970:9092   */\n    tag_112:\n        /* \"#utility.yul\":9043:9067   */\n      tag_212\n        /* \"#utility.yul\":9061:9066   */\n      dup2\n        /* \"#utility.yul\":9043:9067   */\n      tag_156\n      jump\t// in\n    tag_212:\n        /* \"#utility.yul\":9036:9041   */\n      dup2\n        /* \"#utility.yul\":9033:9068   */\n      eq\n        /* \"#utility.yul\":9023:9086   */\n      tag_213\n      jumpi\n        /* \"#utility.yul\":9082:9083   */\n      0x00\n        /* \"#utility.yul\":9079:9080   */\n      dup1\n        /* \"#utility.yul\":9072:9084   */\n      revert\n        /* \"#utility.yul\":9023:9086   */\n    tag_213:\n        /* \"#utility.yul\":8970:9092   */\n      pop\n      jump\t// out\n\n    auxdata: 0xa2646970667358221220d55f06a04f01d7a602a78e84d9174d9b29404b6aa1cbcb0d434cef62bfe5a9df64736f6c63430008070033\n}\n",
				"bytecode": {
					"linkReferences": {},
					"object": "608060405234801561001057600080fd5b50610a6f806100206000396000f3fe608060405234801561001057600080fd5b506004361061004c5760003560e01c8063600060eb1461005157806367e8b7f71461006f578063c1da20201461008b578063e103aef5146100a7575b600080fd5b6100596100b1565b6040516100669190610748565b60405180910390f35b610089600480360381019061008491906105de565b6101ac565b005b6100a560048036038101906100a091906105de565b610248565b005b6100af610305565b005b60606000805480602002602001604051908101604052809291908181526020016000905b828210156101a357838290600052602060002090600202016040518060400160405290816000820154815260200160018201805461011290610895565b80601f016020809104026020016040519081016040528092919081815260200182805461013e90610895565b801561018b5780601f106101605761010080835404028352916020019161018b565b820191906000526020600020905b81548152906001019060200180831161016e57829003601f168201915b505050505081525050815260200190600101906100d5565b50505050905090565b60005b60016000805490506101c19190610815565b8110156102435782600082815481106101dd576101dc61099f565b5b906000526020600020906002020160000154141561023057816000828154811061020a5761020961099f565b5b9060005260206000209060020201600101908051906020019061022e929190610314565b505b808061023b906108f8565b9150506101af565b505050565b600060405180604001604052808481526020018381525090806001815401808255809150506001900390600052602060002090600202016000909190919091506000820151816000015560208201518160010190805190602001906102ae929190610314565b5050506000600160003373ffffffffffffffffffffffffffffffffffffffff1673ffffffffffffffffffffffffffffffffffffffff16815260200190815260200160002090805461030092919061039a565b505050565b600080610312919061041c565b565b82805461032090610895565b90600052602060002090601f0160209004810192826103425760008555610389565b82601f1061035b57805160ff1916838001178555610389565b82800160010185558215610389579182015b8281111561038857825182559160200191906001019061036d565b5b5090506103969190610440565b5090565b82805482825590600052602060002090600202810192821561040b5760005260206000209160020282015b8281111561040a5782826000820154816000015560018201816001019080546103ed90610895565b6103f892919061045d565b505050916002019190600201906103c5565b5b50905061041891906104ea565b5090565b508054600082556002029060005260206000209081019061043d91906104ea565b50565b5b80821115610459576000816000905550600101610441565b5090565b82805461046990610895565b90600052602060002090601f01602090048101928261048b57600085556104d9565b82601f1061049c57805485556104d9565b828001600101855582156104d957600052602060002091601f016020900482015b828111156104d85782548255916001019190600101906104bd565b5b5090506104e69190610440565b5090565b5b808211156105155760008082016000905560018201600061050c9190610519565b506002016104eb565b5090565b50805461052590610895565b6000825580601f106105375750610556565b601f0160209004906000526020600020908101906105559190610440565b5b50565b600061056c6105678461078f565b61076a565b90508281526020810184848401111561058857610587610a02565b5b610593848285610853565b509392505050565b600082601f8301126105b0576105af6109fd565b5b81356105c0848260208601610559565b91505092915050565b6000813590506105d881610a22565b92915050565b600080604083850312156105f5576105f4610a0c565b5b6000610603858286016105c9565b925050602083013567ffffffffffffffff81111561062457610623610a07565b5b6106308582860161059b565b9150509250929050565b600061064683836106fc565b905092915050565b6000610659826107d0565b61066381856107f3565b935083602082028501610675856107c0565b8060005b858110156106b15784840389528151610692858261063a565b945061069d836107e6565b925060208a01995050600181019050610679565b50829750879550505050505092915050565b60006106ce826107db565b6106d88185610804565b93506106e8818560208601610862565b6106f181610a11565b840191505092915050565b60006040830160008301516107146000860182610739565b506020830151848203602086015261072c82826106c3565b9150508091505092915050565b61074281610849565b82525050565b60006020820190508181036000830152610762818461064e565b905092915050565b6000610774610785565b905061078082826108c7565b919050565b6000604051905090565b600067ffffffffffffffff8211156107aa576107a96109ce565b5b6107b382610a11565b9050602081019050919050565b6000819050602082019050919050565b600081519050919050565b600081519050919050565b6000602082019050919050565b600082825260208201905092915050565b600082825260208201905092915050565b600061082082610849565b915061082b83610849565b92508282101561083e5761083d610941565b5b828203905092915050565b6000819050919050565b82818337600083830152505050565b60005b83811015610880578082015181840152602081019050610865565b8381111561088f576000848401525b50505050565b600060028204905060018216806108ad57607f821691505b602082108114156108c1576108c0610970565b5b50919050565b6108d082610a11565b810181811067ffffffffffffffff821117156108ef576108ee6109ce565b5b80604052505050565b600061090382610849565b91507fffffffffffffffffffffffffffffffffffffffffffffffffffffffffffffffff82141561093657610935610941565b5b600182019050919050565b7f4e487b7100000000000000000000000000000000000000000000000000000000600052601160045260246000fd5b7f4e487b7100000000000000000000000000000000000000000000000000000000600052602260045260246000fd5b7f4e487b7100000000000000000000000000000000000000000000000000000000600052603260045260246000fd5b7f4e487b7100000000000000000000000000000000000000000000000000000000600052604160045260246000fd5b600080fd5b600080fd5b600080fd5b600080fd5b6000601f19601f8301169050919050565b610a2b81610849565b8114610a3657600080fd5b5056fea2646970667358221220d55f06a04f01d7a602a78e84d9174d9b29404b6aa1cbcb0d434cef62bfe5a9df64736f6c63430008070033",
					"opcodes": "PUSH1 0x80 PUSH1 0x40 MSTORE CALLVALUE DUP1 ISZERO PUSH2 0x10 JUMPI PUSH1 0x0 DUP1 REVERT JUMPDEST POP PUSH2 0xA6F DUP1 PUSH2 0x20 PUSH1 0x0 CODECOPY PUSH1 0x0 RETURN INVALID PUSH1 0x80 PUSH1 0x40 MSTORE CALLVALUE DUP1 ISZERO PUSH2 0x10 JUMPI PUSH1 0x0 DUP1 REVERT JUMPDEST POP PUSH1 0x4 CALLDATASIZE LT PUSH2 0x4C JUMPI PUSH1 0x0 CALLDATALOAD PUSH1 0xE0 SHR DUP1 PUSH4 0x600060EB EQ PUSH2 0x51 JUMPI DUP1 PUSH4 0x67E8B7F7 EQ PUSH2 0x6F JUMPI DUP1 PUSH4 0xC1DA2020 EQ PUSH2 0x8B JUMPI DUP1 PUSH4 0xE103AEF5 EQ PUSH2 0xA7 JUMPI JUMPDEST PUSH1 0x0 DUP1 REVERT JUMPDEST PUSH2 0x59 PUSH2 0xB1 JUMP JUMPDEST PUSH1 0x40 MLOAD PUSH2 0x66 SWAP2 SWAP1 PUSH2 0x748 JUMP JUMPDEST PUSH1 0x40 MLOAD DUP1 SWAP2 SUB SWAP1 RETURN JUMPDEST PUSH2 0x89 PUSH1 0x4 DUP1 CALLDATASIZE SUB DUP2 ADD SWAP1 PUSH2 0x84 SWAP2 SWAP1 PUSH2 0x5DE JUMP JUMPDEST PUSH2 0x1AC JUMP JUMPDEST STOP JUMPDEST PUSH2 0xA5 PUSH1 0x4 DUP1 CALLDATASIZE SUB DUP2 ADD SWAP1 PUSH2 0xA0 SWAP2 SWAP1 PUSH2 0x5DE JUMP JUMPDEST PUSH2 0x248 JUMP JUMPDEST STOP JUMPDEST PUSH2 0xAF PUSH2 0x305 JUMP JUMPDEST STOP JUMPDEST PUSH1 0x60 PUSH1 0x0 DUP1 SLOAD DUP1 PUSH1 0x20 MUL PUSH1 0x20 ADD PUSH1 0x40 MLOAD SWAP1 DUP2 ADD PUSH1 0x40 MSTORE DUP1 SWAP3 SWAP2 SWAP1 DUP2 DUP2 MSTORE PUSH1 0x20 ADD PUSH1 0x0 SWAP1 JUMPDEST DUP3 DUP3 LT ISZERO PUSH2 0x1A3 JUMPI DUP4 DUP3 SWAP1 PUSH1 0x0 MSTORE PUSH1 0x20 PUSH1 0x0 KECCAK256 SWAP1 PUSH1 0x2 MUL ADD PUSH1 0x40 MLOAD DUP1 PUSH1 0x40 ADD PUSH1 0x40 MSTORE SWAP1 DUP2 PUSH1 0x0 DUP3 ADD SLOAD DUP2 MSTORE PUSH1 0x20 ADD PUSH1 0x1 DUP3 ADD DUP1 SLOAD PUSH2 0x112 SWAP1 PUSH2 0x895 JUMP JUMPDEST DUP1 PUSH1 0x1F ADD PUSH1 0x20 DUP1 SWAP2 DIV MUL PUSH1 0x20 ADD PUSH1 0x40 MLOAD SWAP1 DUP2 ADD PUSH1 0x40 MSTORE DUP1 SWAP3 SWAP2 SWAP1 DUP2 DUP2 MSTORE PUSH1 0x20 ADD DUP3 DUP1 SLOAD PUSH2 0x13E SWAP1 PUSH2 0x895 JUMP JUMPDEST DUP1 ISZERO PUSH2 0x18B JUMPI DUP1 PUSH1 0x1F LT PUSH2 0x160 JUMPI PUSH2 0x100 DUP1 DUP4 SLOAD DIV MUL DUP4 MSTORE SWAP2 PUSH1 0x20 ADD SWAP2 PUSH2 0x18B JUMP JUMPDEST DUP3 ADD SWAP2 SWAP1 PUSH1 0x0 MSTORE PUSH1 0x20 PUSH1 0x0 KECCAK256 SWAP1 JUMPDEST DUP2 SLOAD DUP2 MSTORE SWAP1 PUSH1 0x1 ADD SWAP1 PUSH1 0x20 ADD DUP1 DUP4 GT PUSH2 0x16E JUMPI DUP3 SWAP1 SUB PUSH1 0x1F AND DUP3 ADD SWAP2 JUMPDEST POP POP POP POP POP DUP2 MSTORE POP POP DUP2 MSTORE PUSH1 0x20 ADD SWAP1 PUSH1 0x1 ADD SWAP1 PUSH2 0xD5 JUMP JUMPDEST POP POP POP POP SWAP1 POP SWAP1 JUMP JUMPDEST PUSH1 0x0 JUMPDEST PUSH1 0x1 PUSH1 0x0 DUP1 SLOAD SWAP1 POP PUSH2 0x1C1 SWAP2 SWAP1 PUSH2 0x815 JUMP JUMPDEST DUP2 LT ISZERO PUSH2 0x243 JUMPI DUP3 PUSH1 0x0 DUP3 DUP2 SLOAD DUP2 LT PUSH2 0x1DD JUMPI PUSH2 0x1DC PUSH2 0x99F JUMP JUMPDEST JUMPDEST SWAP1 PUSH1 0x0 MSTORE PUSH1 0x20 PUSH1 0x0 KECCAK256 SWAP1 PUSH1 0x2 MUL ADD PUSH1 0x0 ADD SLOAD EQ ISZERO PUSH2 0x230 JUMPI DUP2 PUSH1 0x0 DUP3 DUP2 SLOAD DUP2 LT PUSH2 0x20A JUMPI PUSH2 0x209 PUSH2 0x99F JUMP JUMPDEST JUMPDEST SWAP1 PUSH1 0x0 MSTORE PUSH1 0x20 PUSH1 0x0 KECCAK256 SWAP1 PUSH1 0x2 MUL ADD PUSH1 0x1 ADD SWAP1 DUP1 MLOAD SWAP1 PUSH1 0x20 ADD SWAP1 PUSH2 0x22E SWAP3 SWAP2 SWAP1 PUSH2 0x314 JUMP JUMPDEST POP JUMPDEST DUP1 DUP1 PUSH2 0x23B SWAP1 PUSH2 0x8F8 JUMP JUMPDEST SWAP2 POP POP PUSH2 0x1AF JUMP JUMPDEST POP POP POP JUMP JUMPDEST PUSH1 0x0 PUSH1 0x40 MLOAD DUP1 PUSH1 0x40 ADD PUSH1 0x40 MSTORE DUP1 DUP5 DUP2 MSTORE PUSH1 0x20 ADD DUP4 DUP2 MSTORE POP SWAP1 DUP1 PUSH1 0x1 DUP2 SLOAD ADD DUP1 DUP3 SSTORE DUP1 SWAP2 POP POP PUSH1 0x1 SWAP1 SUB SWAP1 PUSH1 0x0 MSTORE PUSH1 0x20 PUSH1 0x0 KECCAK256 SWAP1 PUSH1 0x2 MUL ADD PUSH1 0x0 SWAP1 SWAP2 SWAP1 SWAP2 SWAP1 SWAP2 POP PUSH1 0x0 DUP3 ADD MLOAD DUP2 PUSH1 0x0 ADD SSTORE PUSH1 0x20 DUP3 ADD MLOAD DUP2 PUSH1 0x1 ADD SWAP1 DUP1 MLOAD SWAP1 PUSH1 0x20 ADD SWAP1 PUSH2 0x2AE SWAP3 SWAP2 SWAP1 PUSH2 0x314 JUMP JUMPDEST POP POP POP PUSH1 0x0 PUSH1 0x1 PUSH1 0x0 CALLER PUSH20 0xFFFFFFFFFFFFFFFFFFFFFFFFFFFFFFFFFFFFFFFF AND PUSH20 0xFFFFFFFFFFFFFFFFFFFFFFFFFFFFFFFFFFFFFFFF AND DUP2 MSTORE PUSH1 0x20 ADD SWAP1 DUP2 MSTORE PUSH1 0x20 ADD PUSH1 0x0 KECCAK256 SWAP1 DUP1 SLOAD PUSH2 0x300 SWAP3 SWAP2 SWAP1 PUSH2 0x39A JUMP JUMPDEST POP POP POP JUMP JUMPDEST PUSH1 0x0 DUP1 PUSH2 0x312 SWAP2 SWAP1 PUSH2 0x41C JUMP JUMPDEST JUMP JUMPDEST DUP3 DUP1 SLOAD PUSH2 0x320 SWAP1 PUSH2 0x895 JUMP JUMPDEST SWAP1 PUSH1 0x0 MSTORE PUSH1 0x20 PUSH1 0x0 KECCAK256 SWAP1 PUSH1 0x1F ADD PUSH1 0x20 SWAP1 DIV DUP2 ADD SWAP3 DUP3 PUSH2 0x342 JUMPI PUSH1 0x0 DUP6 SSTORE PUSH2 0x389 JUMP JUMPDEST DUP3 PUSH1 0x1F LT PUSH2 0x35B JUMPI DUP1 MLOAD PUSH1 0xFF NOT AND DUP4 DUP1 ADD OR DUP6 SSTORE PUSH2 0x389 JUMP JUMPDEST DUP3 DUP1 ADD PUSH1 0x1 ADD DUP6 SSTORE DUP3 ISZERO PUSH2 0x389 JUMPI SWAP2 DUP3 ADD JUMPDEST DUP3 DUP2 GT ISZERO PUSH2 0x388 JUMPI DUP3 MLOAD DUP3 SSTORE SWAP2 PUSH1 0x20 ADD SWAP2 SWAP1 PUSH1 0x1 ADD SWAP1 PUSH2 0x36D JUMP JUMPDEST JUMPDEST POP SWAP1 POP PUSH2 0x396 SWAP2 SWAP1 PUSH2 0x440 JUMP JUMPDEST POP SWAP1 JUMP JUMPDEST DUP3 DUP1 SLOAD DUP3 DUP3 SSTORE SWAP1 PUSH1 0x0 MSTORE PUSH1 0x20 PUSH1 0x0 KECCAK256 SWAP1 PUSH1 0x2 MUL DUP2 ADD SWAP3 DUP3 ISZERO PUSH2 0x40B JUMPI PUSH1 0x0 MSTORE PUSH1 0x20 PUSH1 0x0 KECCAK256 SWAP2 PUSH1 0x2 MUL DUP3 ADD JUMPDEST DUP3 DUP2 GT ISZERO PUSH2 0x40A JUMPI DUP3 DUP3 PUSH1 0x0 DUP3 ADD SLOAD DUP2 PUSH1 0x0 ADD SSTORE PUSH1 0x1 DUP3 ADD DUP2 PUSH1 0x1 ADD SWAP1 DUP1 SLOAD PUSH2 0x3ED SWAP1 PUSH2 0x895 JUMP JUMPDEST PUSH2 0x3F8 SWAP3 SWAP2 SWAP1 PUSH2 0x45D JUMP JUMPDEST POP POP POP SWAP2 PUSH1 0x2 ADD SWAP2 SWAP1 PUSH1 0x2 ADD SWAP1 PUSH2 0x3C5 JUMP JUMPDEST JUMPDEST POP SWAP1 POP PUSH2 0x418 SWAP2 SWAP1 PUSH2 0x4EA JUMP JUMPDEST POP SWAP1 JUMP JUMPDEST POP DUP1 SLOAD PUSH1 0x0 DUP3 SSTORE PUSH1 0x2 MUL SWAP1 PUSH1 0x0 MSTORE PUSH1 0x20 PUSH1 0x0 KECCAK256 SWAP1 DUP2 ADD SWAP1 PUSH2 0x43D SWAP2 SWAP1 PUSH2 0x4EA JUMP JUMPDEST POP JUMP JUMPDEST JUMPDEST DUP1 DUP3 GT ISZERO PUSH2 0x459 JUMPI PUSH1 0x0 DUP2 PUSH1 0x0 SWAP1 SSTORE POP PUSH1 0x1 ADD PUSH2 0x441 JUMP JUMPDEST POP SWAP1 JUMP JUMPDEST DUP3 DUP1 SLOAD PUSH2 0x469 SWAP1 PUSH2 0x895 JUMP JUMPDEST SWAP1 PUSH1 0x0 MSTORE PUSH1 0x20 PUSH1 0x0 KECCAK256 SWAP1 PUSH1 0x1F ADD PUSH1 0x20 SWAP1 DIV DUP2 ADD SWAP3 DUP3 PUSH2 0x48B JUMPI PUSH1 0x0 DUP6 SSTORE PUSH2 0x4D9 JUMP JUMPDEST DUP3 PUSH1 0x1F LT PUSH2 0x49C JUMPI DUP1 SLOAD DUP6 SSTORE PUSH2 0x4D9 JUMP JUMPDEST DUP3 DUP1 ADD PUSH1 0x1 ADD DUP6 SSTORE DUP3 ISZERO PUSH2 0x4D9 JUMPI PUSH1 0x0 MSTORE PUSH1 0x20 PUSH1 0x0 KECCAK256 SWAP2 PUSH1 0x1F ADD PUSH1 0x20 SWAP1 DIV DUP3 ADD JUMPDEST DUP3 DUP2 GT ISZERO PUSH2 0x4D8 JUMPI DUP3 SLOAD DUP3 SSTORE SWAP2 PUSH1 0x1 ADD SWAP2 SWAP1 PUSH1 0x1 ADD SWAP1 PUSH2 0x4BD JUMP JUMPDEST JUMPDEST POP SWAP1 POP PUSH2 0x4E6 SWAP2 SWAP1 PUSH2 0x440 JUMP JUMPDEST POP SWAP1 JUMP JUMPDEST JUMPDEST DUP1 DUP3 GT ISZERO PUSH2 0x515 JUMPI PUSH1 0x0 DUP1 DUP3 ADD PUSH1 0x0 SWAP1 SSTORE PUSH1 0x1 DUP3 ADD PUSH1 0x0 PUSH2 0x50C SWAP2 SWAP1 PUSH2 0x519 JUMP JUMPDEST POP PUSH1 0x2 ADD PUSH2 0x4EB JUMP JUMPDEST POP SWAP1 JUMP JUMPDEST POP DUP1 SLOAD PUSH2 0x525 SWAP1 PUSH2 0x895 JUMP JUMPDEST PUSH1 0x0 DUP3 SSTORE DUP1 PUSH1 0x1F LT PUSH2 0x537 JUMPI POP PUSH2 0x556 JUMP JUMPDEST PUSH1 0x1F ADD PUSH1 0x20 SWAP1 DIV SWAP1 PUSH1 0x0 MSTORE PUSH1 0x20 PUSH1 0x0 KECCAK256 SWAP1 DUP2 ADD SWAP1 PUSH2 0x555 SWAP2 SWAP1 PUSH2 0x440 JUMP JUMPDEST JUMPDEST POP JUMP JUMPDEST PUSH1 0x0 PUSH2 0x56C PUSH2 0x567 DUP5 PUSH2 0x78F JUMP JUMPDEST PUSH2 0x76A JUMP JUMPDEST SWAP1 POP DUP3 DUP2 MSTORE PUSH1 0x20 DUP2 ADD DUP5 DUP5 DUP5 ADD GT ISZERO PUSH2 0x588 JUMPI PUSH2 0x587 PUSH2 0xA02 JUMP JUMPDEST JUMPDEST PUSH2 0x593 DUP5 DUP3 DUP6 PUSH2 0x853 JUMP JUMPDEST POP SWAP4 SWAP3 POP POP POP JUMP JUMPDEST PUSH1 0x0 DUP3 PUSH1 0x1F DUP4 ADD SLT PUSH2 0x5B0 JUMPI PUSH2 0x5AF PUSH2 0x9FD JUMP JUMPDEST JUMPDEST DUP2 CALLDATALOAD PUSH2 0x5C0 DUP5 DUP3 PUSH1 0x20 DUP7 ADD PUSH2 0x559 JUMP JUMPDEST SWAP2 POP POP SWAP3 SWAP2 POP POP JUMP JUMPDEST PUSH1 0x0 DUP2 CALLDATALOAD SWAP1 POP PUSH2 0x5D8 DUP2 PUSH2 0xA22 JUMP JUMPDEST SWAP3 SWAP2 POP POP JUMP JUMPDEST PUSH1 0x0 DUP1 PUSH1 0x40 DUP4 DUP6 SUB SLT ISZERO PUSH2 0x5F5 JUMPI PUSH2 0x5F4 PUSH2 0xA0C JUMP JUMPDEST JUMPDEST PUSH1 0x0 PUSH2 0x603 DUP6 DUP3 DUP7 ADD PUSH2 0x5C9 JUMP JUMPDEST SWAP3 POP POP PUSH1 0x20 DUP4 ADD CALLDATALOAD PUSH8 0xFFFFFFFFFFFFFFFF DUP2 GT ISZERO PUSH2 0x624 JUMPI PUSH2 0x623 PUSH2 0xA07 JUMP JUMPDEST JUMPDEST PUSH2 0x630 DUP6 DUP3 DUP7 ADD PUSH2 0x59B JUMP JUMPDEST SWAP2 POP POP SWAP3 POP SWAP3 SWAP1 POP JUMP JUMPDEST PUSH1 0x0 PUSH2 0x646 DUP4 DUP4 PUSH2 0x6FC JUMP JUMPDEST SWAP1 POP SWAP3 SWAP2 POP POP JUMP JUMPDEST PUSH1 0x0 PUSH2 0x659 DUP3 PUSH2 0x7D0 JUMP JUMPDEST PUSH2 0x663 DUP2 DUP6 PUSH2 0x7F3 JUMP JUMPDEST SWAP4 POP DUP4 PUSH1 0x20 DUP3 MUL DUP6 ADD PUSH2 0x675 DUP6 PUSH2 0x7C0 JUMP JUMPDEST DUP1 PUSH1 0x0 JUMPDEST DUP6 DUP2 LT ISZERO PUSH2 0x6B1 JUMPI DUP5 DUP5 SUB DUP10 MSTORE DUP2 MLOAD PUSH2 0x692 DUP6 DUP3 PUSH2 0x63A JUMP JUMPDEST SWAP5 POP PUSH2 0x69D DUP4 PUSH2 0x7E6 JUMP JUMPDEST SWAP3 POP PUSH1 0x20 DUP11 ADD SWAP10 POP POP PUSH1 0x1 DUP2 ADD SWAP1 POP PUSH2 0x679 JUMP JUMPDEST POP DUP3 SWAP8 POP DUP8 SWAP6 POP POP POP POP POP POP SWAP3 SWAP2 POP POP JUMP JUMPDEST PUSH1 0x0 PUSH2 0x6CE DUP3 PUSH2 0x7DB JUMP JUMPDEST PUSH2 0x6D8 DUP2 DUP6 PUSH2 0x804 JUMP JUMPDEST SWAP4 POP PUSH2 0x6E8 DUP2 DUP6 PUSH1 0x20 DUP7 ADD PUSH2 0x862 JUMP JUMPDEST PUSH2 0x6F1 DUP2 PUSH2 0xA11 JUMP JUMPDEST DUP5 ADD SWAP2 POP POP SWAP3 SWAP2 POP POP JUMP JUMPDEST PUSH1 0x0 PUSH1 0x40 DUP4 ADD PUSH1 0x0 DUP4 ADD MLOAD PUSH2 0x714 PUSH1 0x0 DUP7 ADD DUP3 PUSH2 0x739 JUMP JUMPDEST POP PUSH1 0x20 DUP4 ADD MLOAD DUP5 DUP3 SUB PUSH1 0x20 DUP7 ADD MSTORE PUSH2 0x72C DUP3 DUP3 PUSH2 0x6C3 JUMP JUMPDEST SWAP2 POP POP DUP1 SWAP2 POP POP SWAP3 SWAP2 POP POP JUMP JUMPDEST PUSH2 0x742 DUP2 PUSH2 0x849 JUMP JUMPDEST DUP3 MSTORE POP POP JUMP JUMPDEST PUSH1 0x0 PUSH1 0x20 DUP3 ADD SWAP1 POP DUP2 DUP2 SUB PUSH1 0x0 DUP4 ADD MSTORE PUSH2 0x762 DUP2 DUP5 PUSH2 0x64E JUMP JUMPDEST SWAP1 POP SWAP3 SWAP2 POP POP JUMP JUMPDEST PUSH1 0x0 PUSH2 0x774 PUSH2 0x785 JUMP JUMPDEST SWAP1 POP PUSH2 0x780 DUP3 DUP3 PUSH2 0x8C7 JUMP JUMPDEST SWAP2 SWAP1 POP JUMP JUMPDEST PUSH1 0x0 PUSH1 0x40 MLOAD SWAP1 POP SWAP1 JUMP JUMPDEST PUSH1 0x0 PUSH8 0xFFFFFFFFFFFFFFFF DUP3 GT ISZERO PUSH2 0x7AA JUMPI PUSH2 0x7A9 PUSH2 0x9CE JUMP JUMPDEST JUMPDEST PUSH2 0x7B3 DUP3 PUSH2 0xA11 JUMP JUMPDEST SWAP1 POP PUSH1 0x20 DUP2 ADD SWAP1 POP SWAP2 SWAP1 POP JUMP JUMPDEST PUSH1 0x0 DUP2 SWAP1 POP PUSH1 0x20 DUP3 ADD SWAP1 POP SWAP2 SWAP1 POP JUMP JUMPDEST PUSH1 0x0 DUP2 MLOAD SWAP1 POP SWAP2 SWAP1 POP JUMP JUMPDEST PUSH1 0x0 DUP2 MLOAD SWAP1 POP SWAP2 SWAP1 POP JUMP JUMPDEST PUSH1 0x0 PUSH1 0x20 DUP3 ADD SWAP1 POP SWAP2 SWAP1 POP JUMP JUMPDEST PUSH1 0x0 DUP3 DUP3 MSTORE PUSH1 0x20 DUP3 ADD SWAP1 POP SWAP3 SWAP2 POP POP JUMP JUMPDEST PUSH1 0x0 DUP3 DUP3 MSTORE PUSH1 0x20 DUP3 ADD SWAP1 POP SWAP3 SWAP2 POP POP JUMP JUMPDEST PUSH1 0x0 PUSH2 0x820 DUP3 PUSH2 0x849 JUMP JUMPDEST SWAP2 POP PUSH2 0x82B DUP4 PUSH2 0x849 JUMP JUMPDEST SWAP3 POP DUP3 DUP3 LT ISZERO PUSH2 0x83E JUMPI PUSH2 0x83D PUSH2 0x941 JUMP JUMPDEST JUMPDEST DUP3 DUP3 SUB SWAP1 POP SWAP3 SWAP2 POP POP JUMP JUMPDEST PUSH1 0x0 DUP2 SWAP1 POP SWAP2 SWAP1 POP JUMP JUMPDEST DUP3 DUP2 DUP4 CALLDATACOPY PUSH1 0x0 DUP4 DUP4 ADD MSTORE POP POP POP JUMP JUMPDEST PUSH1 0x0 JUMPDEST DUP4 DUP2 LT ISZERO PUSH2 0x880 JUMPI DUP1 DUP3 ADD MLOAD DUP2 DUP5 ADD MSTORE PUSH1 0x20 DUP2 ADD SWAP1 POP PUSH2 0x865 JUMP JUMPDEST DUP4 DUP2 GT ISZERO PUSH2 0x88F JUMPI PUSH1 0x0 DUP5 DUP5 ADD MSTORE JUMPDEST POP POP POP POP JUMP JUMPDEST PUSH1 0x0 PUSH1 0x2 DUP3 DIV SWAP1 POP PUSH1 0x1 DUP3 AND DUP1 PUSH2 0x8AD JUMPI PUSH1 0x7F DUP3 AND SWAP2 POP JUMPDEST PUSH1 0x20 DUP3 LT DUP2 EQ ISZERO PUSH2 0x8C1 JUMPI PUSH2 0x8C0 PUSH2 0x970 JUMP JUMPDEST JUMPDEST POP SWAP2 SWAP1 POP JUMP JUMPDEST PUSH2 0x8D0 DUP3 PUSH2 0xA11 JUMP JUMPDEST DUP2 ADD DUP2 DUP2 LT PUSH8 0xFFFFFFFFFFFFFFFF DUP3 GT OR ISZERO PUSH2 0x8EF JUMPI PUSH2 0x8EE PUSH2 0x9CE JUMP JUMPDEST JUMPDEST DUP1 PUSH1 0x40 MSTORE POP POP POP JUMP JUMPDEST PUSH1 0x0 PUSH2 0x903 DUP3 PUSH2 0x849 JUMP JUMPDEST SWAP2 POP PUSH32 0xFFFFFFFFFFFFFFFFFFFFFFFFFFFFFFFFFFFFFFFFFFFFFFFFFFFFFFFFFFFFFFFF DUP3 EQ ISZERO PUSH2 0x936 JUMPI PUSH2 0x935 PUSH2 0x941 JUMP JUMPDEST JUMPDEST PUSH1 0x1 DUP3 ADD SWAP1 POP SWAP2 SWAP1 POP JUMP JUMPDEST PUSH32 0x4E487B7100000000000000000000000000000000000000000000000000000000 PUSH1 0x0 MSTORE PUSH1 0x11 PUSH1 0x4 MSTORE PUSH1 0x24 PUSH1 0x0 REVERT JUMPDEST PUSH32 0x4E487B7100000000000000000000000000000000000000000000000000000000 PUSH1 0x0 MSTORE PUSH1 0x22 PUSH1 0x4 MSTORE PUSH1 0x24 PUSH1 0x0 REVERT JUMPDEST PUSH32 0x4E487B7100000000000000000000000000000000000000000000000000000000 PUSH1 0x0 MSTORE PUSH1 0x32 PUSH1 0x4 MSTORE PUSH1 0x24 PUSH1 0x0 REVERT JUMPDEST PUSH32 0x4E487B7100000000000000000000000000000000000000000000000000000000 PUSH1 0x0 MSTORE PUSH1 0x41 PUSH1 0x4 MSTORE PUSH1 0x24 PUSH1 0x0 REVERT JUMPDEST PUSH1 0x0 DUP1 REVERT JUMPDEST PUSH1 0x0 DUP1 REVERT JUMPDEST PUSH1 0x0 DUP1 REVERT JUMPDEST PUSH1 0x0 DUP1 REVERT JUMPDEST PUSH1 0x0 PUSH1 0x1F NOT PUSH1 0x1F DUP4 ADD AND SWAP1 POP SWAP2 SWAP1 POP JUMP JUMPDEST PUSH2 0xA2B DUP2 PUSH2 0x849 JUMP JUMPDEST DUP2 EQ PUSH2 0xA36 JUMPI PUSH1 0x0 DUP1 REVERT JUMPDEST POP JUMP INVALID LOG2 PUSH5 0x6970667358 0x22 SLT KECCAK256 0xD5 0x5F MOD LOG0 0x4F ADD 0xD7 0xA6 MUL 0xA7 DUP15 DUP5 0xD9 OR 0x4D SWAP12 0x29 BLOCKHASH 0x4B PUSH11 0xA1CBCB0D434CEF62BFE5A9 0xDF PUSH5 0x736F6C6343 STOP ADDMOD SMOD STOP CALLER "
				},
				"gasEstimates": {
					"creation": {
						"codeDepositCost": "534200",
						"executionCost": "568",
						"totalCost": "534768"
					},
					"external": {
						"addTodo(uint256,string)": "infinite",
						"resetAll()": "infinite",
						"showTodos()": "infinite",
						"updateTodos(uint256,string)": "infinite"
					}
				},
				"methodIdentifiers": {
					"addTodo(uint256,string)": "c1da2020",
					"resetAll()": "e103aef5",
					"showTodos()": "600060eb",
					"updateTodos(uint256,string)": "67e8b7f7"
				}
			},
			"storageLayout": {
				"storage": [
					{
						"astId": 10,
						"contract": "Todo.sol:Todo",
						"label": "todos",
						"offset": 0,
						"slot": "0",
						"type": "t_array(t_struct(todoObj)6_storage)dyn_storage"
					},
					{
						"astId": 16,
						"contract": "Todo.sol:Todo",
						"label": "todosMap",
						"offset": 0,
						"slot": "1",
						"type": "t_mapping(t_address,t_array(t_struct(todoObj)6_storage)dyn_storage)"
					}
				],
				"types": {
					"t_address": {
						"encoding": "inplace",
						"label": "address",
						"numberOfBytes": "20"
					},
					"t_array(t_struct(todoObj)6_storage)dyn_storage": {
						"base": "t_struct(todoObj)6_storage",
						"encoding": "dynamic_array",
						"label": "struct Todo.todoObj[]",
						"numberOfBytes": "32"
					},
					"t_mapping(t_address,t_array(t_struct(todoObj)6_storage)dyn_storage)": {
						"encoding": "mapping",
						"key": "t_address",
						"label": "mapping(address => struct Todo.todoObj[])",
						"numberOfBytes": "32",
						"value": "t_array(t_struct(todoObj)6_storage)dyn_storage"
					},
					"t_string_storage": {
						"encoding": "bytes",
						"label": "string",
						"numberOfBytes": "32"
					},
					"t_struct(todoObj)6_storage": {
						"encoding": "inplace",
						"label": "struct Todo.todoObj",
						"members": [
							{
								"astId": 3,
								"contract": "Todo.sol:Todo",
								"label": "id",
								"offset": 0,
								"slot": "0",
								"type": "t_uint256"
							},
							{
								"astId": 5,
								"contract": "Todo.sol:Todo",
								"label": "todoText",
								"offset": 0,
								"slot": "1",
								"type": "t_string_storage"
							}
						],
						"numberOfBytes": "64"
					},
					"t_uint256": {
						"encoding": "inplace",
						"label": "uint256",
						"numberOfBytes": "32"
					}
				}
			},
			"userdoc": {
				"kind": "user",
				"methods": {},
				"version": 1
			}
		}
	}
}