{
	"todomain.sol": {
		"TodoMain": {
			"abi": [
				{
					"anonymous": false,
					"inputs": [
						{
							"indexed": false,
							"internalType": "uint256",
							"name": "",
							"type": "uint256"
						},
						{
							"indexed": false,
							"internalType": "string",
							"name": "",
							"type": "string"
						}
					],
					"name": "TaskCreate",
					"type": "event"
				},
				{
					"inputs": [
						{
							"internalType": "uint256",
							"name": "_id",
							"type": "uint256"
						},
						{
							"internalType": "string",
							"name": "_todoName",
							"type": "string"
						}
					],
					"name": "addTodo",
					"outputs": [],
					"stateMutability": "nonpayable",
					"type": "function"
				},
				{
					"inputs": [],
					"name": "showTodo",
					"outputs": [
						{
							"components": [
								{
									"internalType": "uint256",
									"name": "id",
									"type": "uint256"
								},
								{
									"internalType": "string",
									"name": "todoName",
									"type": "string"
								}
							],
							"internalType": "struct TodoMain.TodoObj[]",
							"name": "",
							"type": "tuple[]"
						}
					],
					"stateMutability": "view",
					"type": "function"
				},
				{
					"inputs": [
						{
							"internalType": "uint256",
							"name": "",
							"type": "uint256"
						}
					],
					"name": "todos",
					"outputs": [
						{
							"internalType": "uint256",
							"name": "id",
							"type": "uint256"
						},
						{
							"internalType": "string",
							"name": "todoName",
							"type": "string"
						}
					],
					"stateMutability": "view",
					"type": "function"
				}
			],
			"devdoc": {
				"kind": "dev",
				"methods": {},
				"version": 1
			},
			"evm": {
				"assembly": "    /* \"todomain.sol\":64:584  contract TodoMain{\r... */\n  mstore(0x40, 0x80)\n  callvalue\n  dup1\n  iszero\n  tag_1\n  jumpi\n  0x00\n  dup1\n  revert\ntag_1:\n  pop\n  dataSize(sub_0)\n  dup1\n  dataOffset(sub_0)\n  0x00\n  codecopy\n  0x00\n  return\nstop\n\nsub_0: assembly {\n        /* \"todomain.sol\":64:584  contract TodoMain{\r... */\n      mstore(0x40, 0x80)\n      callvalue\n      dup1\n      iszero\n      tag_1\n      jumpi\n      0x00\n      dup1\n      revert\n    tag_1:\n      pop\n      jumpi(tag_2, lt(calldatasize, 0x04))\n      shr(0xe0, calldataload(0x00))\n      dup1\n      0x82e76b88\n      eq\n      tag_3\n      jumpi\n      dup1\n      0xbc8bc2b4\n      eq\n      tag_4\n      jumpi\n      dup1\n      0xc1da2020\n      eq\n      tag_5\n      jumpi\n    tag_2:\n      0x00\n      dup1\n      revert\n        /* \"todomain.sol\":472:574  function showTodo() public view returns(TodoObj[] memory){\r... */\n    tag_3:\n      tag_6\n      tag_7\n      jump\t// in\n    tag_6:\n      mload(0x40)\n      tag_8\n      swap2\n      swap1\n      tag_9\n      jump\t// in\n    tag_8:\n      mload(0x40)\n      dup1\n      swap2\n      sub\n      swap1\n      return\n        /* \"todomain.sol\":200:222  TodoObj[] public todos */\n    tag_4:\n      tag_10\n      0x04\n      dup1\n      calldatasize\n      sub\n      dup2\n      add\n      swap1\n      tag_11\n      swap2\n      swap1\n      tag_12\n      jump\t// in\n    tag_11:\n      tag_13\n      jump\t// in\n    tag_10:\n      mload(0x40)\n      tag_14\n      swap3\n      swap2\n      swap1\n      tag_15\n      jump\t// in\n    tag_14:\n      mload(0x40)\n      dup1\n      swap2\n      sub\n      swap1\n      return\n        /* \"todomain.sol\":273:464  function addTodo(uint _id, string memory _todoName) public {\r... */\n    tag_5:\n      tag_16\n      0x04\n      dup1\n      calldatasize\n      sub\n      dup2\n      add\n      swap1\n      tag_17\n      swap2\n      swap1\n      tag_18\n      jump\t// in\n    tag_17:\n      tag_19\n      jump\t// in\n    tag_16:\n      stop\n        /* \"todomain.sol\":472:574  function showTodo() public view returns(TodoObj[] memory){\r... */\n    tag_7:\n        /* \"todomain.sol\":512:528  TodoObj[] memory */\n      0x60\n        /* \"todomain.sol\":547:554  todoMap */\n      0x01\n        /* \"todomain.sol\":547:566  todoMap[msg.sender] */\n      0x00\n        /* \"todomain.sol\":555:565  msg.sender */\n      caller\n        /* \"todomain.sol\":547:566  todoMap[msg.sender] */\n      0xffffffffffffffffffffffffffffffffffffffff\n      and\n      0xffffffffffffffffffffffffffffffffffffffff\n      and\n      dup2\n      mstore\n      0x20\n      add\n      swap1\n      dup2\n      mstore\n      0x20\n      add\n      0x00\n      keccak256\n        /* \"todomain.sol\":540:566  return todoMap[msg.sender] */\n      dup1\n      sload\n      dup1\n      0x20\n      mul\n      0x20\n      add\n      mload(0x40)\n      swap1\n      dup2\n      add\n      0x40\n      mstore\n      dup1\n      swap3\n      swap2\n      swap1\n      dup2\n      dup2\n      mstore\n      0x20\n      add\n      0x00\n      swap1\n    tag_21:\n      dup3\n      dup3\n      lt\n      iszero\n      tag_22\n      jumpi\n      dup4\n      dup3\n      swap1\n      0x00\n      mstore\n      keccak256(0x00, 0x20)\n      swap1\n      0x02\n      mul\n      add\n      mload(0x40)\n      dup1\n      0x40\n      add\n      0x40\n      mstore\n      swap1\n      dup2\n      0x00\n      dup3\n      add\n      sload\n      dup2\n      mstore\n      0x20\n      add\n      0x01\n      dup3\n      add\n      dup1\n      sload\n      tag_24\n      swap1\n      tag_25\n      jump\t// in\n    tag_24:\n      dup1\n      0x1f\n      add\n      0x20\n      dup1\n      swap2\n      div\n      mul\n      0x20\n      add\n      mload(0x40)\n      swap1\n      dup2\n      add\n      0x40\n      mstore\n      dup1\n      swap3\n      swap2\n      swap1\n      dup2\n      dup2\n      mstore\n      0x20\n      add\n      dup3\n      dup1\n      sload\n      tag_26\n      swap1\n      tag_25\n      jump\t// in\n    tag_26:\n      dup1\n      iszero\n      tag_27\n      jumpi\n      dup1\n      0x1f\n      lt\n      tag_28\n      jumpi\n      0x0100\n      dup1\n      dup4\n      sload\n      div\n      mul\n      dup4\n      mstore\n      swap2\n      0x20\n      add\n      swap2\n      jump(tag_27)\n    tag_28:\n      dup3\n      add\n      swap2\n      swap1\n      0x00\n      mstore\n      keccak256(0x00, 0x20)\n      swap1\n    tag_29:\n      dup2\n      sload\n      dup2\n      mstore\n      swap1\n      0x01\n      add\n      swap1\n      0x20\n      add\n      dup1\n      dup4\n      gt\n      tag_29\n      jumpi\n      dup3\n      swap1\n      sub\n      0x1f\n      and\n      dup3\n      add\n      swap2\n    tag_27:\n      pop\n      pop\n      pop\n      pop\n      pop\n      dup2\n      mstore\n      pop\n      pop\n      dup2\n      mstore\n      0x20\n      add\n      swap1\n      0x01\n      add\n      swap1\n      jump(tag_21)\n    tag_22:\n      pop\n      pop\n      pop\n      pop\n      swap1\n      pop\n        /* \"todomain.sol\":472:574  function showTodo() public view returns(TodoObj[] memory){\r... */\n      swap1\n      jump\t// out\n        /* \"todomain.sol\":200:222  TodoObj[] public todos */\n    tag_13:\n      0x00\n      dup2\n      dup2\n      sload\n      dup2\n      lt\n      tag_30\n      jumpi\n      0x00\n      dup1\n      revert\n    tag_30:\n      swap1\n      0x00\n      mstore\n      keccak256(0x00, 0x20)\n      swap1\n      0x02\n      mul\n      add\n      0x00\n      swap2\n      pop\n      swap1\n      pop\n      dup1\n      0x00\n      add\n      sload\n      swap1\n      dup1\n      0x01\n      add\n      dup1\n      sload\n      tag_32\n      swap1\n      tag_25\n      jump\t// in\n    tag_32:\n      dup1\n      0x1f\n      add\n      0x20\n      dup1\n      swap2\n      div\n      mul\n      0x20\n      add\n      mload(0x40)\n      swap1\n      dup2\n      add\n      0x40\n      mstore\n      dup1\n      swap3\n      swap2\n      swap1\n      dup2\n      dup2\n      mstore\n      0x20\n      add\n      dup3\n      dup1\n      sload\n      tag_33\n      swap1\n      tag_25\n      jump\t// in\n    tag_33:\n      dup1\n      iszero\n      tag_34\n      jumpi\n      dup1\n      0x1f\n      lt\n      tag_35\n      jumpi\n      0x0100\n      dup1\n      dup4\n      sload\n      div\n      mul\n      dup4\n      mstore\n      swap2\n      0x20\n      add\n      swap2\n      jump(tag_34)\n    tag_35:\n      dup3\n      add\n      swap2\n      swap1\n      0x00\n      mstore\n      keccak256(0x00, 0x20)\n      swap1\n    tag_36:\n      dup2\n      sload\n      dup2\n      mstore\n      swap1\n      0x01\n      add\n      swap1\n      0x20\n      add\n      dup1\n      dup4\n      gt\n      tag_36\n      jumpi\n      dup3\n      swap1\n      sub\n      0x1f\n      and\n      dup3\n      add\n      swap2\n    tag_34:\n      pop\n      pop\n      pop\n      pop\n      pop\n      swap1\n      pop\n      dup3\n      jump\t// out\n        /* \"todomain.sol\":273:464  function addTodo(uint _id, string memory _todoName) public {\r... */\n    tag_19:\n        /* \"todomain.sol\":343:348  todos */\n      0x00\n        /* \"todomain.sol\":354:376  TodoObj(_id,_todoName) */\n      mload(0x40)\n      dup1\n      0x40\n      add\n      0x40\n      mstore\n      dup1\n        /* \"todomain.sol\":362:365  _id */\n      dup5\n        /* \"todomain.sol\":354:376  TodoObj(_id,_todoName) */\n      dup2\n      mstore\n      0x20\n      add\n        /* \"todomain.sol\":366:375  _todoName */\n      dup4\n        /* \"todomain.sol\":354:376  TodoObj(_id,_todoName) */\n      dup2\n      mstore\n      pop\n        /* \"todomain.sol\":343:377  todos.push(TodoObj(_id,_todoName)) */\n      swap1\n      dup1\n      0x01\n      dup2\n      sload\n      add\n      dup1\n      dup3\n      sstore\n      dup1\n      swap2\n      pop\n      pop\n      0x01\n      swap1\n      sub\n      swap1\n      0x00\n      mstore\n      keccak256(0x00, 0x20)\n      swap1\n      0x02\n      mul\n      add\n      0x00\n      swap1\n      swap2\n      swap1\n      swap2\n      swap1\n      swap2\n      pop\n      0x00\n      dup3\n      add\n      mload\n      dup2\n      0x00\n      add\n      sstore\n      0x20\n      dup3\n      add\n      mload\n      dup2\n      0x01\n      add\n      swap1\n      dup1\n      mload\n      swap1\n      0x20\n      add\n      swap1\n      tag_39\n      swap3\n      swap2\n      swap1\n      tag_40\n      jump\t// in\n    tag_39:\n      pop\n      pop\n      pop\n        /* \"todomain.sol\":410:415  todos */\n      0x00\n        /* \"todomain.sol\":388:395  todoMap */\n      0x01\n        /* \"todomain.sol\":388:407  todoMap[msg.sender] */\n      0x00\n        /* \"todomain.sol\":396:406  msg.sender */\n      caller\n        /* \"todomain.sol\":388:407  todoMap[msg.sender] */\n      0xffffffffffffffffffffffffffffffffffffffff\n      and\n      0xffffffffffffffffffffffffffffffffffffffff\n      and\n      dup2\n      mstore\n      0x20\n      add\n      swap1\n      dup2\n      mstore\n      0x20\n      add\n      0x00\n      keccak256\n        /* \"todomain.sol\":388:415  todoMap[msg.sender] = todos */\n      swap1\n      dup1\n      sload\n      tag_41\n      swap3\n      swap2\n      swap1\n      tag_42\n      jump\t// in\n    tag_41:\n      pop\n        /* \"todomain.sol\":431:456  TaskCreate(_id,_todoName) */\n      0x3c981eaf8f806637941d1237961055d66e8636b71bc453db0c9e245a154760fd\n        /* \"todomain.sol\":442:445  _id */\n      dup3\n        /* \"todomain.sol\":446:455  _todoName */\n      dup3\n        /* \"todomain.sol\":431:456  TaskCreate(_id,_todoName) */\n      mload(0x40)\n      tag_43\n      swap3\n      swap2\n      swap1\n      tag_15\n      jump\t// in\n    tag_43:\n      mload(0x40)\n      dup1\n      swap2\n      sub\n      swap1\n      log1\n        /* \"todomain.sol\":273:464  function addTodo(uint _id, string memory _todoName) public {\r... */\n      pop\n      pop\n      jump\t// out\n    tag_40:\n      dup3\n      dup1\n      sload\n      tag_44\n      swap1\n      tag_25\n      jump\t// in\n    tag_44:\n      swap1\n      0x00\n      mstore\n      keccak256(0x00, 0x20)\n      swap1\n      0x1f\n      add\n      0x20\n      swap1\n      div\n      dup2\n      add\n      swap3\n      dup3\n      tag_46\n      jumpi\n      0x00\n      dup6\n      sstore\n      jump(tag_45)\n    tag_46:\n      dup3\n      0x1f\n      lt\n      tag_47\n      jumpi\n      dup1\n      mload\n      not(0xff)\n      and\n      dup4\n      dup1\n      add\n      or\n      dup6\n      sstore\n      jump(tag_45)\n    tag_47:\n      dup3\n      dup1\n      add\n      0x01\n      add\n      dup6\n      sstore\n      dup3\n      iszero\n      tag_45\n      jumpi\n      swap2\n      dup3\n      add\n    tag_48:\n      dup3\n      dup2\n      gt\n      iszero\n      tag_49\n      jumpi\n      dup3\n      mload\n      dup3\n      sstore\n      swap2\n      0x20\n      add\n      swap2\n      swap1\n      0x01\n      add\n      swap1\n      jump(tag_48)\n    tag_49:\n    tag_45:\n      pop\n      swap1\n      pop\n      tag_50\n      swap2\n      swap1\n      tag_51\n      jump\t// in\n    tag_50:\n      pop\n      swap1\n      jump\t// out\n    tag_42:\n      dup3\n      dup1\n      sload\n      dup3\n      dup3\n      sstore\n      swap1\n      0x00\n      mstore\n      keccak256(0x00, 0x20)\n      swap1\n      0x02\n      mul\n      dup2\n      add\n      swap3\n      dup3\n      iszero\n      tag_52\n      jumpi\n      0x00\n      mstore\n      keccak256(0x00, 0x20)\n      swap2\n      0x02\n      mul\n      dup3\n      add\n    tag_53:\n      dup3\n      dup2\n      gt\n      iszero\n      tag_54\n      jumpi\n      dup3\n      dup3\n      0x00\n      dup3\n      add\n      sload\n      dup2\n      0x00\n      add\n      sstore\n      0x01\n      dup3\n      add\n      dup2\n      0x01\n      add\n      swap1\n      dup1\n      sload\n      tag_55\n      swap1\n      tag_25\n      jump\t// in\n    tag_55:\n      tag_56\n      swap3\n      swap2\n      swap1\n      tag_57\n      jump\t// in\n    tag_56:\n      pop\n      pop\n      pop\n      swap2\n      0x02\n      add\n      swap2\n      swap1\n      0x02\n      add\n      swap1\n      jump(tag_53)\n    tag_54:\n    tag_52:\n      pop\n      swap1\n      pop\n      tag_58\n      swap2\n      swap1\n      tag_59\n      jump\t// in\n    tag_58:\n      pop\n      swap1\n      jump\t// out\n    tag_51:\n    tag_60:\n      dup1\n      dup3\n      gt\n      iszero\n      tag_61\n      jumpi\n      0x00\n      dup2\n      0x00\n      swap1\n      sstore\n      pop\n      0x01\n      add\n      jump(tag_60)\n    tag_61:\n      pop\n      swap1\n      jump\t// out\n    tag_57:\n      dup3\n      dup1\n      sload\n      tag_62\n      swap1\n      tag_25\n      jump\t// in\n    tag_62:\n      swap1\n      0x00\n      mstore\n      keccak256(0x00, 0x20)\n      swap1\n      0x1f\n      add\n      0x20\n      swap1\n      div\n      dup2\n      add\n      swap3\n      dup3\n      tag_64\n      jumpi\n      0x00\n      dup6\n      sstore\n      jump(tag_63)\n    tag_64:\n      dup3\n      0x1f\n      lt\n      tag_65\n      jumpi\n      dup1\n      sload\n      dup6\n      sstore\n      jump(tag_63)\n    tag_65:\n      dup3\n      dup1\n      add\n      0x01\n      add\n      dup6\n      sstore\n      dup3\n      iszero\n      tag_63\n      jumpi\n      0x00\n      mstore\n      keccak256(0x00, 0x20)\n      swap2\n      0x1f\n      add\n      0x20\n      swap1\n      div\n      dup3\n      add\n    tag_66:\n      dup3\n      dup2\n      gt\n      iszero\n      tag_67\n      jumpi\n      dup3\n      sload\n      dup3\n      sstore\n      swap2\n      0x01\n      add\n      swap2\n      swap1\n      0x01\n      add\n      swap1\n      jump(tag_66)\n    tag_67:\n    tag_63:\n      pop\n      swap1\n      pop\n      tag_68\n      swap2\n      swap1\n      tag_51\n      jump\t// in\n    tag_68:\n      pop\n      swap1\n      jump\t// out\n    tag_59:\n    tag_69:\n      dup1\n      dup3\n      gt\n      iszero\n      tag_70\n      jumpi\n      0x00\n      dup1\n      dup3\n      add\n      0x00\n      swap1\n      sstore\n      0x01\n      dup3\n      add\n      0x00\n      tag_71\n      swap2\n      swap1\n      tag_72\n      jump\t// in\n    tag_71:\n      pop\n      0x02\n      add\n      jump(tag_69)\n    tag_70:\n      pop\n      swap1\n      jump\t// out\n    tag_72:\n      pop\n      dup1\n      sload\n      tag_73\n      swap1\n      tag_25\n      jump\t// in\n    tag_73:\n      0x00\n      dup3\n      sstore\n      dup1\n      0x1f\n      lt\n      tag_75\n      jumpi\n      pop\n      jump(tag_74)\n    tag_75:\n      0x1f\n      add\n      0x20\n      swap1\n      div\n      swap1\n      0x00\n      mstore\n      keccak256(0x00, 0x20)\n      swap1\n      dup2\n      add\n      swap1\n      tag_76\n      swap2\n      swap1\n      tag_51\n      jump\t// in\n    tag_76:\n    tag_74:\n      pop\n      jump\t// out\n        /* \"#utility.yul\":7:419   */\n    tag_78:\n        /* \"#utility.yul\":85:90   */\n      0x00\n        /* \"#utility.yul\":110:176   */\n      tag_80\n        /* \"#utility.yul\":126:175   */\n      tag_81\n        /* \"#utility.yul\":168:174   */\n      dup5\n        /* \"#utility.yul\":126:175   */\n      tag_82\n      jump\t// in\n    tag_81:\n        /* \"#utility.yul\":110:176   */\n      tag_83\n      jump\t// in\n    tag_80:\n        /* \"#utility.yul\":101:176   */\n      swap1\n      pop\n        /* \"#utility.yul\":199:205   */\n      dup3\n        /* \"#utility.yul\":192:197   */\n      dup2\n        /* \"#utility.yul\":185:206   */\n      mstore\n        /* \"#utility.yul\":237:241   */\n      0x20\n        /* \"#utility.yul\":230:235   */\n      dup2\n        /* \"#utility.yul\":226:242   */\n      add\n        /* \"#utility.yul\":275:278   */\n      dup5\n        /* \"#utility.yul\":266:272   */\n      dup5\n        /* \"#utility.yul\":261:264   */\n      dup5\n        /* \"#utility.yul\":257:273   */\n      add\n        /* \"#utility.yul\":254:279   */\n      gt\n        /* \"#utility.yul\":251:363   */\n      iszero\n      tag_84\n      jumpi\n        /* \"#utility.yul\":282:361   */\n      tag_85\n      tag_86\n      jump\t// in\n    tag_85:\n        /* \"#utility.yul\":251:363   */\n    tag_84:\n        /* \"#utility.yul\":372:413   */\n      tag_87\n        /* \"#utility.yul\":406:412   */\n      dup5\n        /* \"#utility.yul\":401:404   */\n      dup3\n        /* \"#utility.yul\":396:399   */\n      dup6\n        /* \"#utility.yul\":372:413   */\n      tag_88\n      jump\t// in\n    tag_87:\n        /* \"#utility.yul\":91:419   */\n      pop\n        /* \"#utility.yul\":7:419   */\n      swap4\n      swap3\n      pop\n      pop\n      pop\n      jump\t// out\n        /* \"#utility.yul\":439:779   */\n    tag_89:\n        /* \"#utility.yul\":495:500   */\n      0x00\n        /* \"#utility.yul\":544:547   */\n      dup3\n        /* \"#utility.yul\":537:541   */\n      0x1f\n        /* \"#utility.yul\":529:535   */\n      dup4\n        /* \"#utility.yul\":525:542   */\n      add\n        /* \"#utility.yul\":521:548   */\n      slt\n        /* \"#utility.yul\":511:633   */\n      tag_91\n      jumpi\n        /* \"#utility.yul\":552:631   */\n      tag_92\n      tag_93\n      jump\t// in\n    tag_92:\n        /* \"#utility.yul\":511:633   */\n    tag_91:\n        /* \"#utility.yul\":669:675   */\n      dup2\n        /* \"#utility.yul\":656:676   */\n      calldataload\n        /* \"#utility.yul\":694:773   */\n      tag_94\n        /* \"#utility.yul\":769:772   */\n      dup5\n        /* \"#utility.yul\":761:767   */\n      dup3\n        /* \"#utility.yul\":754:758   */\n      0x20\n        /* \"#utility.yul\":746:752   */\n      dup7\n        /* \"#utility.yul\":742:759   */\n      add\n        /* \"#utility.yul\":694:773   */\n      tag_78\n      jump\t// in\n    tag_94:\n        /* \"#utility.yul\":685:773   */\n      swap2\n      pop\n        /* \"#utility.yul\":501:779   */\n      pop\n        /* \"#utility.yul\":439:779   */\n      swap3\n      swap2\n      pop\n      pop\n      jump\t// out\n        /* \"#utility.yul\":785:924   */\n    tag_95:\n        /* \"#utility.yul\":831:836   */\n      0x00\n        /* \"#utility.yul\":869:875   */\n      dup2\n        /* \"#utility.yul\":856:876   */\n      calldataload\n        /* \"#utility.yul\":847:876   */\n      swap1\n      pop\n        /* \"#utility.yul\":885:918   */\n      tag_97\n        /* \"#utility.yul\":912:917   */\n      dup2\n        /* \"#utility.yul\":885:918   */\n      tag_98\n      jump\t// in\n    tag_97:\n        /* \"#utility.yul\":785:924   */\n      swap3\n      swap2\n      pop\n      pop\n      jump\t// out\n        /* \"#utility.yul\":930:1259   */\n    tag_12:\n        /* \"#utility.yul\":989:995   */\n      0x00\n        /* \"#utility.yul\":1038:1040   */\n      0x20\n        /* \"#utility.yul\":1026:1035   */\n      dup3\n        /* \"#utility.yul\":1017:1024   */\n      dup5\n        /* \"#utility.yul\":1013:1036   */\n      sub\n        /* \"#utility.yul\":1009:1041   */\n      slt\n        /* \"#utility.yul\":1006:1125   */\n      iszero\n      tag_100\n      jumpi\n        /* \"#utility.yul\":1044:1123   */\n      tag_101\n      tag_102\n      jump\t// in\n    tag_101:\n        /* \"#utility.yul\":1006:1125   */\n    tag_100:\n        /* \"#utility.yul\":1164:1165   */\n      0x00\n        /* \"#utility.yul\":1189:1242   */\n      tag_103\n        /* \"#utility.yul\":1234:1241   */\n      dup5\n        /* \"#utility.yul\":1225:1231   */\n      dup3\n        /* \"#utility.yul\":1214:1223   */\n      dup6\n        /* \"#utility.yul\":1210:1232   */\n      add\n        /* \"#utility.yul\":1189:1242   */\n      tag_95\n      jump\t// in\n    tag_103:\n        /* \"#utility.yul\":1179:1242   */\n      swap2\n      pop\n        /* \"#utility.yul\":1135:1252   */\n      pop\n        /* \"#utility.yul\":930:1259   */\n      swap3\n      swap2\n      pop\n      pop\n      jump\t// out\n        /* \"#utility.yul\":1265:1919   */\n    tag_18:\n        /* \"#utility.yul\":1343:1349   */\n      0x00\n        /* \"#utility.yul\":1351:1357   */\n      dup1\n        /* \"#utility.yul\":1400:1402   */\n      0x40\n        /* \"#utility.yul\":1388:1397   */\n      dup4\n        /* \"#utility.yul\":1379:1386   */\n      dup6\n        /* \"#utility.yul\":1375:1398   */\n      sub\n        /* \"#utility.yul\":1371:1403   */\n      slt\n        /* \"#utility.yul\":1368:1487   */\n      iszero\n      tag_105\n      jumpi\n        /* \"#utility.yul\":1406:1485   */\n      tag_106\n      tag_102\n      jump\t// in\n    tag_106:\n        /* \"#utility.yul\":1368:1487   */\n    tag_105:\n        /* \"#utility.yul\":1526:1527   */\n      0x00\n        /* \"#utility.yul\":1551:1604   */\n      tag_107\n        /* \"#utility.yul\":1596:1603   */\n      dup6\n        /* \"#utility.yul\":1587:1593   */\n      dup3\n        /* \"#utility.yul\":1576:1585   */\n      dup7\n        /* \"#utility.yul\":1572:1594   */\n      add\n        /* \"#utility.yul\":1551:1604   */\n      tag_95\n      jump\t// in\n    tag_107:\n        /* \"#utility.yul\":1541:1604   */\n      swap3\n      pop\n        /* \"#utility.yul\":1497:1614   */\n      pop\n        /* \"#utility.yul\":1681:1683   */\n      0x20\n        /* \"#utility.yul\":1670:1679   */\n      dup4\n        /* \"#utility.yul\":1666:1684   */\n      add\n        /* \"#utility.yul\":1653:1685   */\n      calldataload\n        /* \"#utility.yul\":1712:1730   */\n      0xffffffffffffffff\n        /* \"#utility.yul\":1704:1710   */\n      dup2\n        /* \"#utility.yul\":1701:1731   */\n      gt\n        /* \"#utility.yul\":1698:1815   */\n      iszero\n      tag_108\n      jumpi\n        /* \"#utility.yul\":1734:1813   */\n      tag_109\n      tag_110\n      jump\t// in\n    tag_109:\n        /* \"#utility.yul\":1698:1815   */\n    tag_108:\n        /* \"#utility.yul\":1839:1902   */\n      tag_111\n        /* \"#utility.yul\":1894:1901   */\n      dup6\n        /* \"#utility.yul\":1885:1891   */\n      dup3\n        /* \"#utility.yul\":1874:1883   */\n      dup7\n        /* \"#utility.yul\":1870:1892   */\n      add\n        /* \"#utility.yul\":1839:1902   */\n      tag_89\n      jump\t// in\n    tag_111:\n        /* \"#utility.yul\":1829:1902   */\n      swap2\n      pop\n        /* \"#utility.yul\":1624:1912   */\n      pop\n        /* \"#utility.yul\":1265:1919   */\n      swap3\n      pop\n      swap3\n      swap1\n      pop\n      jump\t// out\n        /* \"#utility.yul\":1925:2169   */\n    tag_112:\n        /* \"#utility.yul\":2038:2048   */\n      0x00\n        /* \"#utility.yul\":2073:2163   */\n      tag_114\n        /* \"#utility.yul\":2159:2162   */\n      dup4\n        /* \"#utility.yul\":2151:2157   */\n      dup4\n        /* \"#utility.yul\":2073:2163   */\n      tag_115\n      jump\t// in\n    tag_114:\n        /* \"#utility.yul\":2059:2163   */\n      swap1\n      pop\n        /* \"#utility.yul\":1925:2169   */\n      swap3\n      swap2\n      pop\n      pop\n      jump\t// out\n        /* \"#utility.yul\":2237:3324   */\n    tag_116:\n        /* \"#utility.yul\":2400:2403   */\n      0x00\n        /* \"#utility.yul\":2429:2505   */\n      tag_118\n        /* \"#utility.yul\":2499:2504   */\n      dup3\n        /* \"#utility.yul\":2429:2505   */\n      tag_119\n      jump\t// in\n    tag_118:\n        /* \"#utility.yul\":2521:2629   */\n      tag_120\n        /* \"#utility.yul\":2622:2628   */\n      dup2\n        /* \"#utility.yul\":2617:2620   */\n      dup6\n        /* \"#utility.yul\":2521:2629   */\n      tag_121\n      jump\t// in\n    tag_120:\n        /* \"#utility.yul\":2514:2629   */\n      swap4\n      pop\n        /* \"#utility.yul\":2655:2658   */\n      dup4\n        /* \"#utility.yul\":2700:2704   */\n      0x20\n        /* \"#utility.yul\":2692:2698   */\n      dup3\n        /* \"#utility.yul\":2688:2705   */\n      mul\n        /* \"#utility.yul\":2683:2686   */\n      dup6\n        /* \"#utility.yul\":2679:2706   */\n      add\n        /* \"#utility.yul\":2730:2808   */\n      tag_122\n        /* \"#utility.yul\":2802:2807   */\n      dup6\n        /* \"#utility.yul\":2730:2808   */\n      tag_123\n      jump\t// in\n    tag_122:\n        /* \"#utility.yul\":2831:2838   */\n      dup1\n        /* \"#utility.yul\":2862:2863   */\n      0x00\n        /* \"#utility.yul\":2847:3279   */\n    tag_124:\n        /* \"#utility.yul\":2872:2878   */\n      dup6\n        /* \"#utility.yul\":2869:2870   */\n      dup2\n        /* \"#utility.yul\":2866:2879   */\n      lt\n        /* \"#utility.yul\":2847:3279   */\n      iszero\n      tag_126\n      jumpi\n        /* \"#utility.yul\":2943:2952   */\n      dup5\n        /* \"#utility.yul\":2937:2941   */\n      dup5\n        /* \"#utility.yul\":2933:2953   */\n      sub\n        /* \"#utility.yul\":2928:2931   */\n      dup10\n        /* \"#utility.yul\":2921:2954   */\n      mstore\n        /* \"#utility.yul\":2994:3000   */\n      dup2\n        /* \"#utility.yul\":2988:3001   */\n      mload\n        /* \"#utility.yul\":3022:3130   */\n      tag_127\n        /* \"#utility.yul\":3125:3129   */\n      dup6\n        /* \"#utility.yul\":3110:3123   */\n      dup3\n        /* \"#utility.yul\":3022:3130   */\n      tag_112\n      jump\t// in\n    tag_127:\n        /* \"#utility.yul\":3014:3130   */\n      swap5\n      pop\n        /* \"#utility.yul\":3153:3235   */\n      tag_128\n        /* \"#utility.yul\":3228:3234   */\n      dup4\n        /* \"#utility.yul\":3153:3235   */\n      tag_129\n      jump\t// in\n    tag_128:\n        /* \"#utility.yul\":3143:3235   */\n      swap3\n      pop\n        /* \"#utility.yul\":3264:3268   */\n      0x20\n        /* \"#utility.yul\":3259:3262   */\n      dup11\n        /* \"#utility.yul\":3255:3269   */\n      add\n        /* \"#utility.yul\":3248:3269   */\n      swap10\n      pop\n        /* \"#utility.yul\":2907:3279   */\n      pop\n        /* \"#utility.yul\":2894:2895   */\n      0x01\n        /* \"#utility.yul\":2891:2892   */\n      dup2\n        /* \"#utility.yul\":2887:2896   */\n      add\n        /* \"#utility.yul\":2882:2896   */\n      swap1\n      pop\n        /* \"#utility.yul\":2847:3279   */\n      jump(tag_124)\n    tag_126:\n        /* \"#utility.yul\":2851:2865   */\n      pop\n        /* \"#utility.yul\":3295:3299   */\n      dup3\n        /* \"#utility.yul\":3288:3299   */\n      swap8\n      pop\n        /* \"#utility.yul\":3315:3318   */\n      dup8\n        /* \"#utility.yul\":3308:3318   */\n      swap6\n      pop\n        /* \"#utility.yul\":2405:3324   */\n      pop\n      pop\n      pop\n      pop\n      pop\n        /* \"#utility.yul\":2237:3324   */\n      swap3\n      swap2\n      pop\n      pop\n      jump\t// out\n        /* \"#utility.yul\":3330:3674   */\n    tag_130:\n        /* \"#utility.yul\":3408:3411   */\n      0x00\n        /* \"#utility.yul\":3436:3475   */\n      tag_132\n        /* \"#utility.yul\":3469:3474   */\n      dup3\n        /* \"#utility.yul\":3436:3475   */\n      tag_133\n      jump\t// in\n    tag_132:\n        /* \"#utility.yul\":3491:3552   */\n      tag_134\n        /* \"#utility.yul\":3545:3551   */\n      dup2\n        /* \"#utility.yul\":3540:3543   */\n      dup6\n        /* \"#utility.yul\":3491:3552   */\n      tag_135\n      jump\t// in\n    tag_134:\n        /* \"#utility.yul\":3484:3552   */\n      swap4\n      pop\n        /* \"#utility.yul\":3561:3613   */\n      tag_136\n        /* \"#utility.yul\":3606:3612   */\n      dup2\n        /* \"#utility.yul\":3601:3604   */\n      dup6\n        /* \"#utility.yul\":3594:3598   */\n      0x20\n        /* \"#utility.yul\":3587:3592   */\n      dup7\n        /* \"#utility.yul\":3583:3599   */\n      add\n        /* \"#utility.yul\":3561:3613   */\n      tag_137\n      jump\t// in\n    tag_136:\n        /* \"#utility.yul\":3638:3667   */\n      tag_138\n        /* \"#utility.yul\":3660:3666   */\n      dup2\n        /* \"#utility.yul\":3638:3667   */\n      tag_139\n      jump\t// in\n    tag_138:\n        /* \"#utility.yul\":3633:3636   */\n      dup5\n        /* \"#utility.yul\":3629:3668   */\n      add\n        /* \"#utility.yul\":3622:3668   */\n      swap2\n      pop\n        /* \"#utility.yul\":3412:3674   */\n      pop\n        /* \"#utility.yul\":3330:3674   */\n      swap3\n      swap2\n      pop\n      pop\n      jump\t// out\n        /* \"#utility.yul\":3680:4044   */\n    tag_140:\n        /* \"#utility.yul\":3768:3771   */\n      0x00\n        /* \"#utility.yul\":3796:3835   */\n      tag_142\n        /* \"#utility.yul\":3829:3834   */\n      dup3\n        /* \"#utility.yul\":3796:3835   */\n      tag_133\n      jump\t// in\n    tag_142:\n        /* \"#utility.yul\":3851:3922   */\n      tag_143\n        /* \"#utility.yul\":3915:3921   */\n      dup2\n        /* \"#utility.yul\":3910:3913   */\n      dup6\n        /* \"#utility.yul\":3851:3922   */\n      tag_144\n      jump\t// in\n    tag_143:\n        /* \"#utility.yul\":3844:3922   */\n      swap4\n      pop\n        /* \"#utility.yul\":3931:3983   */\n      tag_145\n        /* \"#utility.yul\":3976:3982   */\n      dup2\n        /* \"#utility.yul\":3971:3974   */\n      dup6\n        /* \"#utility.yul\":3964:3968   */\n      0x20\n        /* \"#utility.yul\":3957:3962   */\n      dup7\n        /* \"#utility.yul\":3953:3969   */\n      add\n        /* \"#utility.yul\":3931:3983   */\n      tag_137\n      jump\t// in\n    tag_145:\n        /* \"#utility.yul\":4008:4037   */\n      tag_146\n        /* \"#utility.yul\":4030:4036   */\n      dup2\n        /* \"#utility.yul\":4008:4037   */\n      tag_139\n      jump\t// in\n    tag_146:\n        /* \"#utility.yul\":4003:4006   */\n      dup5\n        /* \"#utility.yul\":3999:4038   */\n      add\n        /* \"#utility.yul\":3992:4038   */\n      swap2\n      pop\n        /* \"#utility.yul\":3772:4044   */\n      pop\n        /* \"#utility.yul\":3680:4044   */\n      swap3\n      swap2\n      pop\n      pop\n      jump\t// out\n        /* \"#utility.yul\":4108:4700   */\n    tag_115:\n        /* \"#utility.yul\":4211:4214   */\n      0x00\n        /* \"#utility.yul\":4247:4251   */\n      0x40\n        /* \"#utility.yul\":4242:4245   */\n      dup4\n        /* \"#utility.yul\":4238:4252   */\n      add\n        /* \"#utility.yul\":4332:4336   */\n      0x00\n        /* \"#utility.yul\":4325:4330   */\n      dup4\n        /* \"#utility.yul\":4321:4337   */\n      add\n        /* \"#utility.yul\":4315:4338   */\n      mload\n        /* \"#utility.yul\":4351:4414   */\n      tag_148\n        /* \"#utility.yul\":4408:4412   */\n      0x00\n        /* \"#utility.yul\":4403:4406   */\n      dup7\n        /* \"#utility.yul\":4399:4413   */\n      add\n        /* \"#utility.yul\":4385:4397   */\n      dup3\n        /* \"#utility.yul\":4351:4414   */\n      tag_149\n      jump\t// in\n    tag_148:\n        /* \"#utility.yul\":4262:4424   */\n      pop\n        /* \"#utility.yul\":4510:4514   */\n      0x20\n        /* \"#utility.yul\":4503:4508   */\n      dup4\n        /* \"#utility.yul\":4499:4515   */\n      add\n        /* \"#utility.yul\":4493:4516   */\n      mload\n        /* \"#utility.yul\":4563:4566   */\n      dup5\n        /* \"#utility.yul\":4557:4561   */\n      dup3\n        /* \"#utility.yul\":4553:4567   */\n      sub\n        /* \"#utility.yul\":4546:4550   */\n      0x20\n        /* \"#utility.yul\":4541:4544   */\n      dup7\n        /* \"#utility.yul\":4537:4551   */\n      add\n        /* \"#utility.yul\":4530:4568   */\n      mstore\n        /* \"#utility.yul\":4589:4662   */\n      tag_150\n        /* \"#utility.yul\":4657:4661   */\n      dup3\n        /* \"#utility.yul\":4643:4655   */\n      dup3\n        /* \"#utility.yul\":4589:4662   */\n      tag_130\n      jump\t// in\n    tag_150:\n        /* \"#utility.yul\":4581:4662   */\n      swap2\n      pop\n        /* \"#utility.yul\":4434:4673   */\n      pop\n        /* \"#utility.yul\":4690:4694   */\n      dup1\n        /* \"#utility.yul\":4683:4694   */\n      swap2\n      pop\n        /* \"#utility.yul\":4216:4700   */\n      pop\n        /* \"#utility.yul\":4108:4700   */\n      swap3\n      swap2\n      pop\n      pop\n      jump\t// out\n        /* \"#utility.yul\":4706:4814   */\n    tag_149:\n        /* \"#utility.yul\":4783:4807   */\n      tag_152\n        /* \"#utility.yul\":4801:4806   */\n      dup2\n        /* \"#utility.yul\":4783:4807   */\n      tag_153\n      jump\t// in\n    tag_152:\n        /* \"#utility.yul\":4778:4781   */\n      dup3\n        /* \"#utility.yul\":4771:4808   */\n      mstore\n        /* \"#utility.yul\":4706:4814   */\n      pop\n      pop\n      jump\t// out\n        /* \"#utility.yul\":4820:4938   */\n    tag_154:\n        /* \"#utility.yul\":4907:4931   */\n      tag_156\n        /* \"#utility.yul\":4925:4930   */\n      dup2\n        /* \"#utility.yul\":4907:4931   */\n      tag_153\n      jump\t// in\n    tag_156:\n        /* \"#utility.yul\":4902:4905   */\n      dup3\n        /* \"#utility.yul\":4895:4932   */\n      mstore\n        /* \"#utility.yul\":4820:4938   */\n      pop\n      pop\n      jump\t// out\n        /* \"#utility.yul\":4944:5405   */\n    tag_9:\n        /* \"#utility.yul\":5131:5135   */\n      0x00\n        /* \"#utility.yul\":5169:5171   */\n      0x20\n        /* \"#utility.yul\":5158:5167   */\n      dup3\n        /* \"#utility.yul\":5154:5172   */\n      add\n        /* \"#utility.yul\":5146:5172   */\n      swap1\n      pop\n        /* \"#utility.yul\":5218:5227   */\n      dup2\n        /* \"#utility.yul\":5212:5216   */\n      dup2\n        /* \"#utility.yul\":5208:5228   */\n      sub\n        /* \"#utility.yul\":5204:5205   */\n      0x00\n        /* \"#utility.yul\":5193:5202   */\n      dup4\n        /* \"#utility.yul\":5189:5206   */\n      add\n        /* \"#utility.yul\":5182:5229   */\n      mstore\n        /* \"#utility.yul\":5246:5398   */\n      tag_158\n        /* \"#utility.yul\":5393:5397   */\n      dup2\n        /* \"#utility.yul\":5384:5390   */\n      dup5\n        /* \"#utility.yul\":5246:5398   */\n      tag_116\n      jump\t// in\n    tag_158:\n        /* \"#utility.yul\":5238:5398   */\n      swap1\n      pop\n        /* \"#utility.yul\":4944:5405   */\n      swap3\n      swap2\n      pop\n      pop\n      jump\t// out\n        /* \"#utility.yul\":5411:5834   */\n    tag_15:\n        /* \"#utility.yul\":5552:5556   */\n      0x00\n        /* \"#utility.yul\":5590:5592   */\n      0x40\n        /* \"#utility.yul\":5579:5588   */\n      dup3\n        /* \"#utility.yul\":5575:5593   */\n      add\n        /* \"#utility.yul\":5567:5593   */\n      swap1\n      pop\n        /* \"#utility.yul\":5603:5674   */\n      tag_160\n        /* \"#utility.yul\":5671:5672   */\n      0x00\n        /* \"#utility.yul\":5660:5669   */\n      dup4\n        /* \"#utility.yul\":5656:5673   */\n      add\n        /* \"#utility.yul\":5647:5653   */\n      dup6\n        /* \"#utility.yul\":5603:5674   */\n      tag_154\n      jump\t// in\n    tag_160:\n        /* \"#utility.yul\":5721:5730   */\n      dup2\n        /* \"#utility.yul\":5715:5719   */\n      dup2\n        /* \"#utility.yul\":5711:5731   */\n      sub\n        /* \"#utility.yul\":5706:5708   */\n      0x20\n        /* \"#utility.yul\":5695:5704   */\n      dup4\n        /* \"#utility.yul\":5691:5709   */\n      add\n        /* \"#utility.yul\":5684:5732   */\n      mstore\n        /* \"#utility.yul\":5749:5827   */\n      tag_161\n        /* \"#utility.yul\":5822:5826   */\n      dup2\n        /* \"#utility.yul\":5813:5819   */\n      dup5\n        /* \"#utility.yul\":5749:5827   */\n      tag_140\n      jump\t// in\n    tag_161:\n        /* \"#utility.yul\":5741:5827   */\n      swap1\n      pop\n        /* \"#utility.yul\":5411:5834   */\n      swap4\n      swap3\n      pop\n      pop\n      pop\n      jump\t// out\n        /* \"#utility.yul\":5840:5969   */\n    tag_83:\n        /* \"#utility.yul\":5874:5880   */\n      0x00\n        /* \"#utility.yul\":5901:5921   */\n      tag_163\n      tag_164\n      jump\t// in\n    tag_163:\n        /* \"#utility.yul\":5891:5921   */\n      swap1\n      pop\n        /* \"#utility.yul\":5930:5963   */\n      tag_165\n        /* \"#utility.yul\":5958:5962   */\n      dup3\n        /* \"#utility.yul\":5950:5956   */\n      dup3\n        /* \"#utility.yul\":5930:5963   */\n      tag_166\n      jump\t// in\n    tag_165:\n        /* \"#utility.yul\":5840:5969   */\n      swap2\n      swap1\n      pop\n      jump\t// out\n        /* \"#utility.yul\":5975:6050   */\n    tag_164:\n        /* \"#utility.yul\":6008:6014   */\n      0x00\n        /* \"#utility.yul\":6041:6043   */\n      0x40\n        /* \"#utility.yul\":6035:6044   */\n      mload\n        /* \"#utility.yul\":6025:6044   */\n      swap1\n      pop\n        /* \"#utility.yul\":5975:6050   */\n      swap1\n      jump\t// out\n        /* \"#utility.yul\":6056:6364   */\n    tag_82:\n        /* \"#utility.yul\":6118:6122   */\n      0x00\n        /* \"#utility.yul\":6208:6226   */\n      0xffffffffffffffff\n        /* \"#utility.yul\":6200:6206   */\n      dup3\n        /* \"#utility.yul\":6197:6227   */\n      gt\n        /* \"#utility.yul\":6194:6250   */\n      iszero\n      tag_169\n      jumpi\n        /* \"#utility.yul\":6230:6248   */\n      tag_170\n      tag_171\n      jump\t// in\n    tag_170:\n        /* \"#utility.yul\":6194:6250   */\n    tag_169:\n        /* \"#utility.yul\":6268:6297   */\n      tag_172\n        /* \"#utility.yul\":6290:6296   */\n      dup3\n        /* \"#utility.yul\":6268:6297   */\n      tag_139\n      jump\t// in\n    tag_172:\n        /* \"#utility.yul\":6260:6297   */\n      swap1\n      pop\n        /* \"#utility.yul\":6352:6356   */\n      0x20\n        /* \"#utility.yul\":6346:6350   */\n      dup2\n        /* \"#utility.yul\":6342:6357   */\n      add\n        /* \"#utility.yul\":6334:6357   */\n      swap1\n      pop\n        /* \"#utility.yul\":6056:6364   */\n      swap2\n      swap1\n      pop\n      jump\t// out\n        /* \"#utility.yul\":6370:6524   */\n    tag_123:\n        /* \"#utility.yul\":6459:6463   */\n      0x00\n        /* \"#utility.yul\":6482:6485   */\n      dup2\n        /* \"#utility.yul\":6474:6485   */\n      swap1\n      pop\n        /* \"#utility.yul\":6512:6516   */\n      0x20\n        /* \"#utility.yul\":6507:6510   */\n      dup3\n        /* \"#utility.yul\":6503:6517   */\n      add\n        /* \"#utility.yul\":6495:6517   */\n      swap1\n      pop\n        /* \"#utility.yul\":6370:6524   */\n      swap2\n      swap1\n      pop\n      jump\t// out\n        /* \"#utility.yul\":6530:6666   */\n    tag_119:\n        /* \"#utility.yul\":6619:6625   */\n      0x00\n        /* \"#utility.yul\":6653:6658   */\n      dup2\n        /* \"#utility.yul\":6647:6659   */\n      mload\n        /* \"#utility.yul\":6637:6659   */\n      swap1\n      pop\n        /* \"#utility.yul\":6530:6666   */\n      swap2\n      swap1\n      pop\n      jump\t// out\n        /* \"#utility.yul\":6672:6771   */\n    tag_133:\n        /* \"#utility.yul\":6724:6730   */\n      0x00\n        /* \"#utility.yul\":6758:6763   */\n      dup2\n        /* \"#utility.yul\":6752:6764   */\n      mload\n        /* \"#utility.yul\":6742:6764   */\n      swap1\n      pop\n        /* \"#utility.yul\":6672:6771   */\n      swap2\n      swap1\n      pop\n      jump\t// out\n        /* \"#utility.yul\":6777:6912   */\n    tag_129:\n        /* \"#utility.yul\":6869:6873   */\n      0x00\n        /* \"#utility.yul\":6901:6905   */\n      0x20\n        /* \"#utility.yul\":6896:6899   */\n      dup3\n        /* \"#utility.yul\":6892:6906   */\n      add\n        /* \"#utility.yul\":6884:6906   */\n      swap1\n      pop\n        /* \"#utility.yul\":6777:6912   */\n      swap2\n      swap1\n      pop\n      jump\t// out\n        /* \"#utility.yul\":6918:7124   */\n    tag_121:\n        /* \"#utility.yul\":7039:7050   */\n      0x00\n        /* \"#utility.yul\":7073:7079   */\n      dup3\n        /* \"#utility.yul\":7068:7071   */\n      dup3\n        /* \"#utility.yul\":7061:7080   */\n      mstore\n        /* \"#utility.yul\":7113:7117   */\n      0x20\n        /* \"#utility.yul\":7108:7111   */\n      dup3\n        /* \"#utility.yul\":7104:7118   */\n      add\n        /* \"#utility.yul\":7089:7118   */\n      swap1\n      pop\n        /* \"#utility.yul\":6918:7124   */\n      swap3\n      swap2\n      pop\n      pop\n      jump\t// out\n        /* \"#utility.yul\":7130:7289   */\n    tag_135:\n        /* \"#utility.yul\":7204:7215   */\n      0x00\n        /* \"#utility.yul\":7238:7244   */\n      dup3\n        /* \"#utility.yul\":7233:7236   */\n      dup3\n        /* \"#utility.yul\":7226:7245   */\n      mstore\n        /* \"#utility.yul\":7278:7282   */\n      0x20\n        /* \"#utility.yul\":7273:7276   */\n      dup3\n        /* \"#utility.yul\":7269:7283   */\n      add\n        /* \"#utility.yul\":7254:7283   */\n      swap1\n      pop\n        /* \"#utility.yul\":7130:7289   */\n      swap3\n      swap2\n      pop\n      pop\n      jump\t// out\n        /* \"#utility.yul\":7295:7464   */\n    tag_144:\n        /* \"#utility.yul\":7379:7390   */\n      0x00\n        /* \"#utility.yul\":7413:7419   */\n      dup3\n        /* \"#utility.yul\":7408:7411   */\n      dup3\n        /* \"#utility.yul\":7401:7420   */\n      mstore\n        /* \"#utility.yul\":7453:7457   */\n      0x20\n        /* \"#utility.yul\":7448:7451   */\n      dup3\n        /* \"#utility.yul\":7444:7458   */\n      add\n        /* \"#utility.yul\":7429:7458   */\n      swap1\n      pop\n        /* \"#utility.yul\":7295:7464   */\n      swap3\n      swap2\n      pop\n      pop\n      jump\t// out\n        /* \"#utility.yul\":7470:7547   */\n    tag_153:\n        /* \"#utility.yul\":7507:7514   */\n      0x00\n        /* \"#utility.yul\":7536:7541   */\n      dup2\n        /* \"#utility.yul\":7525:7541   */\n      swap1\n      pop\n        /* \"#utility.yul\":7470:7547   */\n      swap2\n      swap1\n      pop\n      jump\t// out\n        /* \"#utility.yul\":7553:7707   */\n    tag_88:\n        /* \"#utility.yul\":7637:7643   */\n      dup3\n        /* \"#utility.yul\":7632:7635   */\n      dup2\n        /* \"#utility.yul\":7627:7630   */\n      dup4\n        /* \"#utility.yul\":7614:7644   */\n      calldatacopy\n        /* \"#utility.yul\":7699:7700   */\n      0x00\n        /* \"#utility.yul\":7690:7696   */\n      dup4\n        /* \"#utility.yul\":7685:7688   */\n      dup4\n        /* \"#utility.yul\":7681:7697   */\n      add\n        /* \"#utility.yul\":7674:7701   */\n      mstore\n        /* \"#utility.yul\":7553:7707   */\n      pop\n      pop\n      pop\n      jump\t// out\n        /* \"#utility.yul\":7713:8020   */\n    tag_137:\n        /* \"#utility.yul\":7781:7782   */\n      0x00\n        /* \"#utility.yul\":7791:7904   */\n    tag_183:\n        /* \"#utility.yul\":7805:7811   */\n      dup4\n        /* \"#utility.yul\":7802:7803   */\n      dup2\n        /* \"#utility.yul\":7799:7812   */\n      lt\n        /* \"#utility.yul\":7791:7904   */\n      iszero\n      tag_185\n      jumpi\n        /* \"#utility.yul\":7890:7891   */\n      dup1\n        /* \"#utility.yul\":7885:7888   */\n      dup3\n        /* \"#utility.yul\":7881:7892   */\n      add\n        /* \"#utility.yul\":7875:7893   */\n      mload\n        /* \"#utility.yul\":7871:7872   */\n      dup2\n        /* \"#utility.yul\":7866:7869   */\n      dup5\n        /* \"#utility.yul\":7862:7873   */\n      add\n        /* \"#utility.yul\":7855:7894   */\n      mstore\n        /* \"#utility.yul\":7827:7829   */\n      0x20\n        /* \"#utility.yul\":7824:7825   */\n      dup2\n        /* \"#utility.yul\":7820:7830   */\n      add\n        /* \"#utility.yul\":7815:7830   */\n      swap1\n      pop\n        /* \"#utility.yul\":7791:7904   */\n      jump(tag_183)\n    tag_185:\n        /* \"#utility.yul\":7922:7928   */\n      dup4\n        /* \"#utility.yul\":7919:7920   */\n      dup2\n        /* \"#utility.yul\":7916:7929   */\n      gt\n        /* \"#utility.yul\":7913:8014   */\n      iszero\n      tag_186\n      jumpi\n        /* \"#utility.yul\":8002:8003   */\n      0x00\n        /* \"#utility.yul\":7993:7999   */\n      dup5\n        /* \"#utility.yul\":7988:7991   */\n      dup5\n        /* \"#utility.yul\":7984:8000   */\n      add\n        /* \"#utility.yul\":7977:8004   */\n      mstore\n        /* \"#utility.yul\":7913:8014   */\n    tag_186:\n        /* \"#utility.yul\":7762:8020   */\n      pop\n        /* \"#utility.yul\":7713:8020   */\n      pop\n      pop\n      pop\n      jump\t// out\n        /* \"#utility.yul\":8026:8346   */\n    tag_25:\n        /* \"#utility.yul\":8070:8076   */\n      0x00\n        /* \"#utility.yul\":8107:8108   */\n      0x02\n        /* \"#utility.yul\":8101:8105   */\n      dup3\n        /* \"#utility.yul\":8097:8109   */\n      div\n        /* \"#utility.yul\":8087:8109   */\n      swap1\n      pop\n        /* \"#utility.yul\":8154:8155   */\n      0x01\n        /* \"#utility.yul\":8148:8152   */\n      dup3\n        /* \"#utility.yul\":8144:8156   */\n      and\n        /* \"#utility.yul\":8175:8193   */\n      dup1\n        /* \"#utility.yul\":8165:8246   */\n      tag_188\n      jumpi\n        /* \"#utility.yul\":8231:8235   */\n      0x7f\n        /* \"#utility.yul\":8223:8229   */\n      dup3\n        /* \"#utility.yul\":8219:8236   */\n      and\n        /* \"#utility.yul\":8209:8236   */\n      swap2\n      pop\n        /* \"#utility.yul\":8165:8246   */\n    tag_188:\n        /* \"#utility.yul\":8293:8295   */\n      0x20\n        /* \"#utility.yul\":8285:8291   */\n      dup3\n        /* \"#utility.yul\":8282:8296   */\n      lt\n        /* \"#utility.yul\":8262:8280   */\n      dup2\n        /* \"#utility.yul\":8259:8297   */\n      eq\n        /* \"#utility.yul\":8256:8340   */\n      iszero\n      tag_189\n      jumpi\n        /* \"#utility.yul\":8312:8330   */\n      tag_190\n      tag_191\n      jump\t// in\n    tag_190:\n        /* \"#utility.yul\":8256:8340   */\n    tag_189:\n        /* \"#utility.yul\":8077:8346   */\n      pop\n        /* \"#utility.yul\":8026:8346   */\n      swap2\n      swap1\n      pop\n      jump\t// out\n        /* \"#utility.yul\":8352:8633   */\n    tag_166:\n        /* \"#utility.yul\":8435:8462   */\n      tag_193\n        /* \"#utility.yul\":8457:8461   */\n      dup3\n        /* \"#utility.yul\":8435:8462   */\n      tag_139\n      jump\t// in\n    tag_193:\n        /* \"#utility.yul\":8427:8433   */\n      dup2\n        /* \"#utility.yul\":8423:8463   */\n      add\n        /* \"#utility.yul\":8565:8571   */\n      dup2\n        /* \"#utility.yul\":8553:8563   */\n      dup2\n        /* \"#utility.yul\":8550:8572   */\n      lt\n        /* \"#utility.yul\":8529:8547   */\n      0xffffffffffffffff\n        /* \"#utility.yul\":8517:8527   */\n      dup3\n        /* \"#utility.yul\":8514:8548   */\n      gt\n        /* \"#utility.yul\":8511:8573   */\n      or\n        /* \"#utility.yul\":8508:8596   */\n      iszero\n      tag_194\n      jumpi\n        /* \"#utility.yul\":8576:8594   */\n      tag_195\n      tag_171\n      jump\t// in\n    tag_195:\n        /* \"#utility.yul\":8508:8596   */\n    tag_194:\n        /* \"#utility.yul\":8616:8626   */\n      dup1\n        /* \"#utility.yul\":8612:8614   */\n      0x40\n        /* \"#utility.yul\":8605:8627   */\n      mstore\n        /* \"#utility.yul\":8395:8633   */\n      pop\n        /* \"#utility.yul\":8352:8633   */\n      pop\n      pop\n      jump\t// out\n        /* \"#utility.yul\":8639:8819   */\n    tag_191:\n        /* \"#utility.yul\":8687:8764   */\n      0x4e487b7100000000000000000000000000000000000000000000000000000000\n        /* \"#utility.yul\":8684:8685   */\n      0x00\n        /* \"#utility.yul\":8677:8765   */\n      mstore\n        /* \"#utility.yul\":8784:8788   */\n      0x22\n        /* \"#utility.yul\":8781:8782   */\n      0x04\n        /* \"#utility.yul\":8774:8789   */\n      mstore\n        /* \"#utility.yul\":8808:8812   */\n      0x24\n        /* \"#utility.yul\":8805:8806   */\n      0x00\n        /* \"#utility.yul\":8798:8813   */\n      revert\n        /* \"#utility.yul\":8825:9005   */\n    tag_171:\n        /* \"#utility.yul\":8873:8950   */\n      0x4e487b7100000000000000000000000000000000000000000000000000000000\n        /* \"#utility.yul\":8870:8871   */\n      0x00\n        /* \"#utility.yul\":8863:8951   */\n      mstore\n        /* \"#utility.yul\":8970:8974   */\n      0x41\n        /* \"#utility.yul\":8967:8968   */\n      0x04\n        /* \"#utility.yul\":8960:8975   */\n      mstore\n        /* \"#utility.yul\":8994:8998   */\n      0x24\n        /* \"#utility.yul\":8991:8992   */\n      0x00\n        /* \"#utility.yul\":8984:8999   */\n      revert\n        /* \"#utility.yul\":9011:9128   */\n    tag_93:\n        /* \"#utility.yul\":9120:9121   */\n      0x00\n        /* \"#utility.yul\":9117:9118   */\n      dup1\n        /* \"#utility.yul\":9110:9122   */\n      revert\n        /* \"#utility.yul\":9134:9251   */\n    tag_86:\n        /* \"#utility.yul\":9243:9244   */\n      0x00\n        /* \"#utility.yul\":9240:9241   */\n      dup1\n        /* \"#utility.yul\":9233:9245   */\n      revert\n        /* \"#utility.yul\":9257:9374   */\n    tag_110:\n        /* \"#utility.yul\":9366:9367   */\n      0x00\n        /* \"#utility.yul\":9363:9364   */\n      dup1\n        /* \"#utility.yul\":9356:9368   */\n      revert\n        /* \"#utility.yul\":9380:9497   */\n    tag_102:\n        /* \"#utility.yul\":9489:9490   */\n      0x00\n        /* \"#utility.yul\":9486:9487   */\n      dup1\n        /* \"#utility.yul\":9479:9491   */\n      revert\n        /* \"#utility.yul\":9503:9605   */\n    tag_139:\n        /* \"#utility.yul\":9544:9550   */\n      0x00\n        /* \"#utility.yul\":9595:9597   */\n      0x1f\n        /* \"#utility.yul\":9591:9598   */\n      not\n        /* \"#utility.yul\":9586:9588   */\n      0x1f\n        /* \"#utility.yul\":9579:9584   */\n      dup4\n        /* \"#utility.yul\":9575:9589   */\n      add\n        /* \"#utility.yul\":9571:9599   */\n      and\n        /* \"#utility.yul\":9561:9599   */\n      swap1\n      pop\n        /* \"#utility.yul\":9503:9605   */\n      swap2\n      swap1\n      pop\n      jump\t// out\n        /* \"#utility.yul\":9611:9733   */\n    tag_98:\n        /* \"#utility.yul\":9684:9708   */\n      tag_204\n        /* \"#utility.yul\":9702:9707   */\n      dup2\n        /* \"#utility.yul\":9684:9708   */\n      tag_153\n      jump\t// in\n    tag_204:\n        /* \"#utility.yul\":9677:9682   */\n      dup2\n        /* \"#utility.yul\":9674:9709   */\n      eq\n        /* \"#utility.yul\":9664:9727   */\n      tag_205\n      jumpi\n        /* \"#utility.yul\":9723:9724   */\n      0x00\n        /* \"#utility.yul\":9720:9721   */\n      dup1\n        /* \"#utility.yul\":9713:9725   */\n      revert\n        /* \"#utility.yul\":9664:9727   */\n    tag_205:\n        /* \"#utility.yul\":9611:9733   */\n      pop\n      jump\t// out\n\n    auxdata: 0xa264697066735822122020a24852dab2d97571c378dd4e5b9ecad446ce06544b3d21c8039a231849f6cb64736f6c63430008070033\n}\n",
				"bytecode": {
					"linkReferences": {},
					"object": "608060405234801561001057600080fd5b50610aad806100206000396000f3fe608060405234801561001057600080fd5b50600436106100415760003560e01c806382e76b8814610046578063bc8bc2b414610064578063c1da202014610095575b600080fd5b61004e6100b1565b60405161005b9190610820565b60405180910390f35b61007e60048036038101906100799190610641565b6101e9565b60405161008c929190610842565b60405180910390f35b6100af60048036038101906100aa919061066e565b6102a5565b005b6060600160003373ffffffffffffffffffffffffffffffffffffffff1673ffffffffffffffffffffffffffffffffffffffff168152602001908152602001600020805480602002602001604051908101604052809291908181526020016000905b828210156101e057838290600052602060002090600202016040518060400160405290816000820154815260200160018201805461014f9061097a565b80601f016020809104026020016040519081016040528092919081815260200182805461017b9061097a565b80156101c85780601f1061019d576101008083540402835291602001916101c8565b820191906000526020600020905b8154815290600101906020018083116101ab57829003601f168201915b50505050508152505081526020019060010190610112565b50505050905090565b600081815481106101f957600080fd5b90600052602060002090600202016000915090508060000154908060010180546102229061097a565b80601f016020809104026020016040519081016040528092919081815260200182805461024e9061097a565b801561029b5780601f106102705761010080835404028352916020019161029b565b820191906000526020600020905b81548152906001019060200180831161027e57829003601f168201915b5050505050905082565b6000604051806040016040528084815260200183815250908060018154018082558091505060019003906000526020600020906002020160009091909190915060008201518160000155602082015181600101908051906020019061030b92919061039b565b5050506000600160003373ffffffffffffffffffffffffffffffffffffffff1673ffffffffffffffffffffffffffffffffffffffff16815260200190815260200160002090805461035d929190610421565b507f3c981eaf8f806637941d1237961055d66e8636b71bc453db0c9e245a154760fd828260405161038f929190610842565b60405180910390a15050565b8280546103a79061097a565b90600052602060002090601f0160209004810192826103c95760008555610410565b82601f106103e257805160ff1916838001178555610410565b82800160010185558215610410579182015b8281111561040f5782518255916020019190600101906103f4565b5b50905061041d91906104a3565b5090565b8280548282559060005260206000209060020281019282156104925760005260206000209160020282015b828111156104915782826000820154816000015560018201816001019080546104749061097a565b61047f9291906104c0565b5050509160020191906002019061044c565b5b50905061049f919061054d565b5090565b5b808211156104bc5760008160009055506001016104a4565b5090565b8280546104cc9061097a565b90600052602060002090601f0160209004810192826104ee576000855561053c565b82601f106104ff578054855561053c565b8280016001018555821561053c57600052602060002091601f016020900482015b8281111561053b578254825591600101919060010190610520565b5b50905061054991906104a3565b5090565b5b808211156105785760008082016000905560018201600061056f919061057c565b5060020161054e565b5090565b5080546105889061097a565b6000825580601f1061059a57506105b9565b601f0160209004906000526020600020908101906105b891906104a3565b5b50565b60006105cf6105ca84610897565b610872565b9050828152602081018484840111156105eb576105ea610a40565b5b6105f6848285610938565b509392505050565b600082601f83011261061357610612610a3b565b5b81356106238482602086016105bc565b91505092915050565b60008135905061063b81610a60565b92915050565b60006020828403121561065757610656610a4a565b5b60006106658482850161062c565b91505092915050565b6000806040838503121561068557610684610a4a565b5b60006106938582860161062c565b925050602083013567ffffffffffffffff8111156106b4576106b3610a45565b5b6106c0858286016105fe565b9150509250929050565b60006106d683836107c5565b905092915050565b60006106e9826108d8565b6106f381856108fb565b935083602082028501610705856108c8565b8060005b85811015610741578484038952815161072285826106ca565b945061072d836108ee565b925060208a01995050600181019050610709565b50829750879550505050505092915050565b600061075e826108e3565b610768818561090c565b9350610778818560208601610947565b61078181610a4f565b840191505092915050565b6000610797826108e3565b6107a1818561091d565b93506107b1818560208601610947565b6107ba81610a4f565b840191505092915050565b60006040830160008301516107dd6000860182610802565b50602083015184820360208601526107f58282610753565b9150508091505092915050565b61080b8161092e565b82525050565b61081a8161092e565b82525050565b6000602082019050818103600083015261083a81846106de565b905092915050565b60006040820190506108576000830185610811565b8181036020830152610869818461078c565b90509392505050565b600061087c61088d565b905061088882826109ac565b919050565b6000604051905090565b600067ffffffffffffffff8211156108b2576108b1610a0c565b5b6108bb82610a4f565b9050602081019050919050565b6000819050602082019050919050565b600081519050919050565b600081519050919050565b6000602082019050919050565b600082825260208201905092915050565b600082825260208201905092915050565b600082825260208201905092915050565b6000819050919050565b82818337600083830152505050565b60005b8381101561096557808201518184015260208101905061094a565b83811115610974576000848401525b50505050565b6000600282049050600182168061099257607f821691505b602082108114156109a6576109a56109dd565b5b50919050565b6109b582610a4f565b810181811067ffffffffffffffff821117156109d4576109d3610a0c565b5b80604052505050565b7f4e487b7100000000000000000000000000000000000000000000000000000000600052602260045260246000fd5b7f4e487b7100000000000000000000000000000000000000000000000000000000600052604160045260246000fd5b600080fd5b600080fd5b600080fd5b600080fd5b6000601f19601f8301169050919050565b610a698161092e565b8114610a7457600080fd5b5056fea264697066735822122020a24852dab2d97571c378dd4e5b9ecad446ce06544b3d21c8039a231849f6cb64736f6c63430008070033",
					"opcodes": "PUSH1 0x80 PUSH1 0x40 MSTORE CALLVALUE DUP1 ISZERO PUSH2 0x10 JUMPI PUSH1 0x0 DUP1 REVERT JUMPDEST POP PUSH2 0xAAD DUP1 PUSH2 0x20 PUSH1 0x0 CODECOPY PUSH1 0x0 RETURN INVALID PUSH1 0x80 PUSH1 0x40 MSTORE CALLVALUE DUP1 ISZERO PUSH2 0x10 JUMPI PUSH1 0x0 DUP1 REVERT JUMPDEST POP PUSH1 0x4 CALLDATASIZE LT PUSH2 0x41 JUMPI PUSH1 0x0 CALLDATALOAD PUSH1 0xE0 SHR DUP1 PUSH4 0x82E76B88 EQ PUSH2 0x46 JUMPI DUP1 PUSH4 0xBC8BC2B4 EQ PUSH2 0x64 JUMPI DUP1 PUSH4 0xC1DA2020 EQ PUSH2 0x95 JUMPI JUMPDEST PUSH1 0x0 DUP1 REVERT JUMPDEST PUSH2 0x4E PUSH2 0xB1 JUMP JUMPDEST PUSH1 0x40 MLOAD PUSH2 0x5B SWAP2 SWAP1 PUSH2 0x820 JUMP JUMPDEST PUSH1 0x40 MLOAD DUP1 SWAP2 SUB SWAP1 RETURN JUMPDEST PUSH2 0x7E PUSH1 0x4 DUP1 CALLDATASIZE SUB DUP2 ADD SWAP1 PUSH2 0x79 SWAP2 SWAP1 PUSH2 0x641 JUMP JUMPDEST PUSH2 0x1E9 JUMP JUMPDEST PUSH1 0x40 MLOAD PUSH2 0x8C SWAP3 SWAP2 SWAP1 PUSH2 0x842 JUMP JUMPDEST PUSH1 0x40 MLOAD DUP1 SWAP2 SUB SWAP1 RETURN JUMPDEST PUSH2 0xAF PUSH1 0x4 DUP1 CALLDATASIZE SUB DUP2 ADD SWAP1 PUSH2 0xAA SWAP2 SWAP1 PUSH2 0x66E JUMP JUMPDEST PUSH2 0x2A5 JUMP JUMPDEST STOP JUMPDEST PUSH1 0x60 PUSH1 0x1 PUSH1 0x0 CALLER PUSH20 0xFFFFFFFFFFFFFFFFFFFFFFFFFFFFFFFFFFFFFFFF AND PUSH20 0xFFFFFFFFFFFFFFFFFFFFFFFFFFFFFFFFFFFFFFFF AND DUP2 MSTORE PUSH1 0x20 ADD SWAP1 DUP2 MSTORE PUSH1 0x20 ADD PUSH1 0x0 KECCAK256 DUP1 SLOAD DUP1 PUSH1 0x20 MUL PUSH1 0x20 ADD PUSH1 0x40 MLOAD SWAP1 DUP2 ADD PUSH1 0x40 MSTORE DUP1 SWAP3 SWAP2 SWAP1 DUP2 DUP2 MSTORE PUSH1 0x20 ADD PUSH1 0x0 SWAP1 JUMPDEST DUP3 DUP3 LT ISZERO PUSH2 0x1E0 JUMPI DUP4 DUP3 SWAP1 PUSH1 0x0 MSTORE PUSH1 0x20 PUSH1 0x0 KECCAK256 SWAP1 PUSH1 0x2 MUL ADD PUSH1 0x40 MLOAD DUP1 PUSH1 0x40 ADD PUSH1 0x40 MSTORE SWAP1 DUP2 PUSH1 0x0 DUP3 ADD SLOAD DUP2 MSTORE PUSH1 0x20 ADD PUSH1 0x1 DUP3 ADD DUP1 SLOAD PUSH2 0x14F SWAP1 PUSH2 0x97A JUMP JUMPDEST DUP1 PUSH1 0x1F ADD PUSH1 0x20 DUP1 SWAP2 DIV MUL PUSH1 0x20 ADD PUSH1 0x40 MLOAD SWAP1 DUP2 ADD PUSH1 0x40 MSTORE DUP1 SWAP3 SWAP2 SWAP1 DUP2 DUP2 MSTORE PUSH1 0x20 ADD DUP3 DUP1 SLOAD PUSH2 0x17B SWAP1 PUSH2 0x97A JUMP JUMPDEST DUP1 ISZERO PUSH2 0x1C8 JUMPI DUP1 PUSH1 0x1F LT PUSH2 0x19D JUMPI PUSH2 0x100 DUP1 DUP4 SLOAD DIV MUL DUP4 MSTORE SWAP2 PUSH1 0x20 ADD SWAP2 PUSH2 0x1C8 JUMP JUMPDEST DUP3 ADD SWAP2 SWAP1 PUSH1 0x0 MSTORE PUSH1 0x20 PUSH1 0x0 KECCAK256 SWAP1 JUMPDEST DUP2 SLOAD DUP2 MSTORE SWAP1 PUSH1 0x1 ADD SWAP1 PUSH1 0x20 ADD DUP1 DUP4 GT PUSH2 0x1AB JUMPI DUP3 SWAP1 SUB PUSH1 0x1F AND DUP3 ADD SWAP2 JUMPDEST POP POP POP POP POP DUP2 MSTORE POP POP DUP2 MSTORE PUSH1 0x20 ADD SWAP1 PUSH1 0x1 ADD SWAP1 PUSH2 0x112 JUMP JUMPDEST POP POP POP POP SWAP1 POP SWAP1 JUMP JUMPDEST PUSH1 0x0 DUP2 DUP2 SLOAD DUP2 LT PUSH2 0x1F9 JUMPI PUSH1 0x0 DUP1 REVERT JUMPDEST SWAP1 PUSH1 0x0 MSTORE PUSH1 0x20 PUSH1 0x0 KECCAK256 SWAP1 PUSH1 0x2 MUL ADD PUSH1 0x0 SWAP2 POP SWAP1 POP DUP1 PUSH1 0x0 ADD SLOAD SWAP1 DUP1 PUSH1 0x1 ADD DUP1 SLOAD PUSH2 0x222 SWAP1 PUSH2 0x97A JUMP JUMPDEST DUP1 PUSH1 0x1F ADD PUSH1 0x20 DUP1 SWAP2 DIV MUL PUSH1 0x20 ADD PUSH1 0x40 MLOAD SWAP1 DUP2 ADD PUSH1 0x40 MSTORE DUP1 SWAP3 SWAP2 SWAP1 DUP2 DUP2 MSTORE PUSH1 0x20 ADD DUP3 DUP1 SLOAD PUSH2 0x24E SWAP1 PUSH2 0x97A JUMP JUMPDEST DUP1 ISZERO PUSH2 0x29B JUMPI DUP1 PUSH1 0x1F LT PUSH2 0x270 JUMPI PUSH2 0x100 DUP1 DUP4 SLOAD DIV MUL DUP4 MSTORE SWAP2 PUSH1 0x20 ADD SWAP2 PUSH2 0x29B JUMP JUMPDEST DUP3 ADD SWAP2 SWAP1 PUSH1 0x0 MSTORE PUSH1 0x20 PUSH1 0x0 KECCAK256 SWAP1 JUMPDEST DUP2 SLOAD DUP2 MSTORE SWAP1 PUSH1 0x1 ADD SWAP1 PUSH1 0x20 ADD DUP1 DUP4 GT PUSH2 0x27E JUMPI DUP3 SWAP1 SUB PUSH1 0x1F AND DUP3 ADD SWAP2 JUMPDEST POP POP POP POP POP SWAP1 POP DUP3 JUMP JUMPDEST PUSH1 0x0 PUSH1 0x40 MLOAD DUP1 PUSH1 0x40 ADD PUSH1 0x40 MSTORE DUP1 DUP5 DUP2 MSTORE PUSH1 0x20 ADD DUP4 DUP2 MSTORE POP SWAP1 DUP1 PUSH1 0x1 DUP2 SLOAD ADD DUP1 DUP3 SSTORE DUP1 SWAP2 POP POP PUSH1 0x1 SWAP1 SUB SWAP1 PUSH1 0x0 MSTORE PUSH1 0x20 PUSH1 0x0 KECCAK256 SWAP1 PUSH1 0x2 MUL ADD PUSH1 0x0 SWAP1 SWAP2 SWAP1 SWAP2 SWAP1 SWAP2 POP PUSH1 0x0 DUP3 ADD MLOAD DUP2 PUSH1 0x0 ADD SSTORE PUSH1 0x20 DUP3 ADD MLOAD DUP2 PUSH1 0x1 ADD SWAP1 DUP1 MLOAD SWAP1 PUSH1 0x20 ADD SWAP1 PUSH2 0x30B SWAP3 SWAP2 SWAP1 PUSH2 0x39B JUMP JUMPDEST POP POP POP PUSH1 0x0 PUSH1 0x1 PUSH1 0x0 CALLER PUSH20 0xFFFFFFFFFFFFFFFFFFFFFFFFFFFFFFFFFFFFFFFF AND PUSH20 0xFFFFFFFFFFFFFFFFFFFFFFFFFFFFFFFFFFFFFFFF AND DUP2 MSTORE PUSH1 0x20 ADD SWAP1 DUP2 MSTORE PUSH1 0x20 ADD PUSH1 0x0 KECCAK256 SWAP1 DUP1 SLOAD PUSH2 0x35D SWAP3 SWAP2 SWAP1 PUSH2 0x421 JUMP JUMPDEST POP PUSH32 0x3C981EAF8F806637941D1237961055D66E8636B71BC453DB0C9E245A154760FD DUP3 DUP3 PUSH1 0x40 MLOAD PUSH2 0x38F SWAP3 SWAP2 SWAP1 PUSH2 0x842 JUMP JUMPDEST PUSH1 0x40 MLOAD DUP1 SWAP2 SUB SWAP1 LOG1 POP POP JUMP JUMPDEST DUP3 DUP1 SLOAD PUSH2 0x3A7 SWAP1 PUSH2 0x97A JUMP JUMPDEST SWAP1 PUSH1 0x0 MSTORE PUSH1 0x20 PUSH1 0x0 KECCAK256 SWAP1 PUSH1 0x1F ADD PUSH1 0x20 SWAP1 DIV DUP2 ADD SWAP3 DUP3 PUSH2 0x3C9 JUMPI PUSH1 0x0 DUP6 SSTORE PUSH2 0x410 JUMP JUMPDEST DUP3 PUSH1 0x1F LT PUSH2 0x3E2 JUMPI DUP1 MLOAD PUSH1 0xFF NOT AND DUP4 DUP1 ADD OR DUP6 SSTORE PUSH2 0x410 JUMP JUMPDEST DUP3 DUP1 ADD PUSH1 0x1 ADD DUP6 SSTORE DUP3 ISZERO PUSH2 0x410 JUMPI SWAP2 DUP3 ADD JUMPDEST DUP3 DUP2 GT ISZERO PUSH2 0x40F JUMPI DUP3 MLOAD DUP3 SSTORE SWAP2 PUSH1 0x20 ADD SWAP2 SWAP1 PUSH1 0x1 ADD SWAP1 PUSH2 0x3F4 JUMP JUMPDEST JUMPDEST POP SWAP1 POP PUSH2 0x41D SWAP2 SWAP1 PUSH2 0x4A3 JUMP JUMPDEST POP SWAP1 JUMP JUMPDEST DUP3 DUP1 SLOAD DUP3 DUP3 SSTORE SWAP1 PUSH1 0x0 MSTORE PUSH1 0x20 PUSH1 0x0 KECCAK256 SWAP1 PUSH1 0x2 MUL DUP2 ADD SWAP3 DUP3 ISZERO PUSH2 0x492 JUMPI PUSH1 0x0 MSTORE PUSH1 0x20 PUSH1 0x0 KECCAK256 SWAP2 PUSH1 0x2 MUL DUP3 ADD JUMPDEST DUP3 DUP2 GT ISZERO PUSH2 0x491 JUMPI DUP3 DUP3 PUSH1 0x0 DUP3 ADD SLOAD DUP2 PUSH1 0x0 ADD SSTORE PUSH1 0x1 DUP3 ADD DUP2 PUSH1 0x1 ADD SWAP1 DUP1 SLOAD PUSH2 0x474 SWAP1 PUSH2 0x97A JUMP JUMPDEST PUSH2 0x47F SWAP3 SWAP2 SWAP1 PUSH2 0x4C0 JUMP JUMPDEST POP POP POP SWAP2 PUSH1 0x2 ADD SWAP2 SWAP1 PUSH1 0x2 ADD SWAP1 PUSH2 0x44C JUMP JUMPDEST JUMPDEST POP SWAP1 POP PUSH2 0x49F SWAP2 SWAP1 PUSH2 0x54D JUMP JUMPDEST POP SWAP1 JUMP JUMPDEST JUMPDEST DUP1 DUP3 GT ISZERO PUSH2 0x4BC JUMPI PUSH1 0x0 DUP2 PUSH1 0x0 SWAP1 SSTORE POP PUSH1 0x1 ADD PUSH2 0x4A4 JUMP JUMPDEST POP SWAP1 JUMP JUMPDEST DUP3 DUP1 SLOAD PUSH2 0x4CC SWAP1 PUSH2 0x97A JUMP JUMPDEST SWAP1 PUSH1 0x0 MSTORE PUSH1 0x20 PUSH1 0x0 KECCAK256 SWAP1 PUSH1 0x1F ADD PUSH1 0x20 SWAP1 DIV DUP2 ADD SWAP3 DUP3 PUSH2 0x4EE JUMPI PUSH1 0x0 DUP6 SSTORE PUSH2 0x53C JUMP JUMPDEST DUP3 PUSH1 0x1F LT PUSH2 0x4FF JUMPI DUP1 SLOAD DUP6 SSTORE PUSH2 0x53C JUMP JUMPDEST DUP3 DUP1 ADD PUSH1 0x1 ADD DUP6 SSTORE DUP3 ISZERO PUSH2 0x53C JUMPI PUSH1 0x0 MSTORE PUSH1 0x20 PUSH1 0x0 KECCAK256 SWAP2 PUSH1 0x1F ADD PUSH1 0x20 SWAP1 DIV DUP3 ADD JUMPDEST DUP3 DUP2 GT ISZERO PUSH2 0x53B JUMPI DUP3 SLOAD DUP3 SSTORE SWAP2 PUSH1 0x1 ADD SWAP2 SWAP1 PUSH1 0x1 ADD SWAP1 PUSH2 0x520 JUMP JUMPDEST JUMPDEST POP SWAP1 POP PUSH2 0x549 SWAP2 SWAP1 PUSH2 0x4A3 JUMP JUMPDEST POP SWAP1 JUMP JUMPDEST JUMPDEST DUP1 DUP3 GT ISZERO PUSH2 0x578 JUMPI PUSH1 0x0 DUP1 DUP3 ADD PUSH1 0x0 SWAP1 SSTORE PUSH1 0x1 DUP3 ADD PUSH1 0x0 PUSH2 0x56F SWAP2 SWAP1 PUSH2 0x57C JUMP JUMPDEST POP PUSH1 0x2 ADD PUSH2 0x54E JUMP JUMPDEST POP SWAP1 JUMP JUMPDEST POP DUP1 SLOAD PUSH2 0x588 SWAP1 PUSH2 0x97A JUMP JUMPDEST PUSH1 0x0 DUP3 SSTORE DUP1 PUSH1 0x1F LT PUSH2 0x59A JUMPI POP PUSH2 0x5B9 JUMP JUMPDEST PUSH1 0x1F ADD PUSH1 0x20 SWAP1 DIV SWAP1 PUSH1 0x0 MSTORE PUSH1 0x20 PUSH1 0x0 KECCAK256 SWAP1 DUP2 ADD SWAP1 PUSH2 0x5B8 SWAP2 SWAP1 PUSH2 0x4A3 JUMP JUMPDEST JUMPDEST POP JUMP JUMPDEST PUSH1 0x0 PUSH2 0x5CF PUSH2 0x5CA DUP5 PUSH2 0x897 JUMP JUMPDEST PUSH2 0x872 JUMP JUMPDEST SWAP1 POP DUP3 DUP2 MSTORE PUSH1 0x20 DUP2 ADD DUP5 DUP5 DUP5 ADD GT ISZERO PUSH2 0x5EB JUMPI PUSH2 0x5EA PUSH2 0xA40 JUMP JUMPDEST JUMPDEST PUSH2 0x5F6 DUP5 DUP3 DUP6 PUSH2 0x938 JUMP JUMPDEST POP SWAP4 SWAP3 POP POP POP JUMP JUMPDEST PUSH1 0x0 DUP3 PUSH1 0x1F DUP4 ADD SLT PUSH2 0x613 JUMPI PUSH2 0x612 PUSH2 0xA3B JUMP JUMPDEST JUMPDEST DUP2 CALLDATALOAD PUSH2 0x623 DUP5 DUP3 PUSH1 0x20 DUP7 ADD PUSH2 0x5BC JUMP JUMPDEST SWAP2 POP POP SWAP3 SWAP2 POP POP JUMP JUMPDEST PUSH1 0x0 DUP2 CALLDATALOAD SWAP1 POP PUSH2 0x63B DUP2 PUSH2 0xA60 JUMP JUMPDEST SWAP3 SWAP2 POP POP JUMP JUMPDEST PUSH1 0x0 PUSH1 0x20 DUP3 DUP5 SUB SLT ISZERO PUSH2 0x657 JUMPI PUSH2 0x656 PUSH2 0xA4A JUMP JUMPDEST JUMPDEST PUSH1 0x0 PUSH2 0x665 DUP5 DUP3 DUP6 ADD PUSH2 0x62C JUMP JUMPDEST SWAP2 POP POP SWAP3 SWAP2 POP POP JUMP JUMPDEST PUSH1 0x0 DUP1 PUSH1 0x40 DUP4 DUP6 SUB SLT ISZERO PUSH2 0x685 JUMPI PUSH2 0x684 PUSH2 0xA4A JUMP JUMPDEST JUMPDEST PUSH1 0x0 PUSH2 0x693 DUP6 DUP3 DUP7 ADD PUSH2 0x62C JUMP JUMPDEST SWAP3 POP POP PUSH1 0x20 DUP4 ADD CALLDATALOAD PUSH8 0xFFFFFFFFFFFFFFFF DUP2 GT ISZERO PUSH2 0x6B4 JUMPI PUSH2 0x6B3 PUSH2 0xA45 JUMP JUMPDEST JUMPDEST PUSH2 0x6C0 DUP6 DUP3 DUP7 ADD PUSH2 0x5FE JUMP JUMPDEST SWAP2 POP POP SWAP3 POP SWAP3 SWAP1 POP JUMP JUMPDEST PUSH1 0x0 PUSH2 0x6D6 DUP4 DUP4 PUSH2 0x7C5 JUMP JUMPDEST SWAP1 POP SWAP3 SWAP2 POP POP JUMP JUMPDEST PUSH1 0x0 PUSH2 0x6E9 DUP3 PUSH2 0x8D8 JUMP JUMPDEST PUSH2 0x6F3 DUP2 DUP6 PUSH2 0x8FB JUMP JUMPDEST SWAP4 POP DUP4 PUSH1 0x20 DUP3 MUL DUP6 ADD PUSH2 0x705 DUP6 PUSH2 0x8C8 JUMP JUMPDEST DUP1 PUSH1 0x0 JUMPDEST DUP6 DUP2 LT ISZERO PUSH2 0x741 JUMPI DUP5 DUP5 SUB DUP10 MSTORE DUP2 MLOAD PUSH2 0x722 DUP6 DUP3 PUSH2 0x6CA JUMP JUMPDEST SWAP5 POP PUSH2 0x72D DUP4 PUSH2 0x8EE JUMP JUMPDEST SWAP3 POP PUSH1 0x20 DUP11 ADD SWAP10 POP POP PUSH1 0x1 DUP2 ADD SWAP1 POP PUSH2 0x709 JUMP JUMPDEST POP DUP3 SWAP8 POP DUP8 SWAP6 POP POP POP POP POP POP SWAP3 SWAP2 POP POP JUMP JUMPDEST PUSH1 0x0 PUSH2 0x75E DUP3 PUSH2 0x8E3 JUMP JUMPDEST PUSH2 0x768 DUP2 DUP6 PUSH2 0x90C JUMP JUMPDEST SWAP4 POP PUSH2 0x778 DUP2 DUP6 PUSH1 0x20 DUP7 ADD PUSH2 0x947 JUMP JUMPDEST PUSH2 0x781 DUP2 PUSH2 0xA4F JUMP JUMPDEST DUP5 ADD SWAP2 POP POP SWAP3 SWAP2 POP POP JUMP JUMPDEST PUSH1 0x0 PUSH2 0x797 DUP3 PUSH2 0x8E3 JUMP JUMPDEST PUSH2 0x7A1 DUP2 DUP6 PUSH2 0x91D JUMP JUMPDEST SWAP4 POP PUSH2 0x7B1 DUP2 DUP6 PUSH1 0x20 DUP7 ADD PUSH2 0x947 JUMP JUMPDEST PUSH2 0x7BA DUP2 PUSH2 0xA4F JUMP JUMPDEST DUP5 ADD SWAP2 POP POP SWAP3 SWAP2 POP POP JUMP JUMPDEST PUSH1 0x0 PUSH1 0x40 DUP4 ADD PUSH1 0x0 DUP4 ADD MLOAD PUSH2 0x7DD PUSH1 0x0 DUP7 ADD DUP3 PUSH2 0x802 JUMP JUMPDEST POP PUSH1 0x20 DUP4 ADD MLOAD DUP5 DUP3 SUB PUSH1 0x20 DUP7 ADD MSTORE PUSH2 0x7F5 DUP3 DUP3 PUSH2 0x753 JUMP JUMPDEST SWAP2 POP POP DUP1 SWAP2 POP POP SWAP3 SWAP2 POP POP JUMP JUMPDEST PUSH2 0x80B DUP2 PUSH2 0x92E JUMP JUMPDEST DUP3 MSTORE POP POP JUMP JUMPDEST PUSH2 0x81A DUP2 PUSH2 0x92E JUMP JUMPDEST DUP3 MSTORE POP POP JUMP JUMPDEST PUSH1 0x0 PUSH1 0x20 DUP3 ADD SWAP1 POP DUP2 DUP2 SUB PUSH1 0x0 DUP4 ADD MSTORE PUSH2 0x83A DUP2 DUP5 PUSH2 0x6DE JUMP JUMPDEST SWAP1 POP SWAP3 SWAP2 POP POP JUMP JUMPDEST PUSH1 0x0 PUSH1 0x40 DUP3 ADD SWAP1 POP PUSH2 0x857 PUSH1 0x0 DUP4 ADD DUP6 PUSH2 0x811 JUMP JUMPDEST DUP2 DUP2 SUB PUSH1 0x20 DUP4 ADD MSTORE PUSH2 0x869 DUP2 DUP5 PUSH2 0x78C JUMP JUMPDEST SWAP1 POP SWAP4 SWAP3 POP POP POP JUMP JUMPDEST PUSH1 0x0 PUSH2 0x87C PUSH2 0x88D JUMP JUMPDEST SWAP1 POP PUSH2 0x888 DUP3 DUP3 PUSH2 0x9AC JUMP JUMPDEST SWAP2 SWAP1 POP JUMP JUMPDEST PUSH1 0x0 PUSH1 0x40 MLOAD SWAP1 POP SWAP1 JUMP JUMPDEST PUSH1 0x0 PUSH8 0xFFFFFFFFFFFFFFFF DUP3 GT ISZERO PUSH2 0x8B2 JUMPI PUSH2 0x8B1 PUSH2 0xA0C JUMP JUMPDEST JUMPDEST PUSH2 0x8BB DUP3 PUSH2 0xA4F JUMP JUMPDEST SWAP1 POP PUSH1 0x20 DUP2 ADD SWAP1 POP SWAP2 SWAP1 POP JUMP JUMPDEST PUSH1 0x0 DUP2 SWAP1 POP PUSH1 0x20 DUP3 ADD SWAP1 POP SWAP2 SWAP1 POP JUMP JUMPDEST PUSH1 0x0 DUP2 MLOAD SWAP1 POP SWAP2 SWAP1 POP JUMP JUMPDEST PUSH1 0x0 DUP2 MLOAD SWAP1 POP SWAP2 SWAP1 POP JUMP JUMPDEST PUSH1 0x0 PUSH1 0x20 DUP3 ADD SWAP1 POP SWAP2 SWAP1 POP JUMP JUMPDEST PUSH1 0x0 DUP3 DUP3 MSTORE PUSH1 0x20 DUP3 ADD SWAP1 POP SWAP3 SWAP2 POP POP JUMP JUMPDEST PUSH1 0x0 DUP3 DUP3 MSTORE PUSH1 0x20 DUP3 ADD SWAP1 POP SWAP3 SWAP2 POP POP JUMP JUMPDEST PUSH1 0x0 DUP3 DUP3 MSTORE PUSH1 0x20 DUP3 ADD SWAP1 POP SWAP3 SWAP2 POP POP JUMP JUMPDEST PUSH1 0x0 DUP2 SWAP1 POP SWAP2 SWAP1 POP JUMP JUMPDEST DUP3 DUP2 DUP4 CALLDATACOPY PUSH1 0x0 DUP4 DUP4 ADD MSTORE POP POP POP JUMP JUMPDEST PUSH1 0x0 JUMPDEST DUP4 DUP2 LT ISZERO PUSH2 0x965 JUMPI DUP1 DUP3 ADD MLOAD DUP2 DUP5 ADD MSTORE PUSH1 0x20 DUP2 ADD SWAP1 POP PUSH2 0x94A JUMP JUMPDEST DUP4 DUP2 GT ISZERO PUSH2 0x974 JUMPI PUSH1 0x0 DUP5 DUP5 ADD MSTORE JUMPDEST POP POP POP POP JUMP JUMPDEST PUSH1 0x0 PUSH1 0x2 DUP3 DIV SWAP1 POP PUSH1 0x1 DUP3 AND DUP1 PUSH2 0x992 JUMPI PUSH1 0x7F DUP3 AND SWAP2 POP JUMPDEST PUSH1 0x20 DUP3 LT DUP2 EQ ISZERO PUSH2 0x9A6 JUMPI PUSH2 0x9A5 PUSH2 0x9DD JUMP JUMPDEST JUMPDEST POP SWAP2 SWAP1 POP JUMP JUMPDEST PUSH2 0x9B5 DUP3 PUSH2 0xA4F JUMP JUMPDEST DUP2 ADD DUP2 DUP2 LT PUSH8 0xFFFFFFFFFFFFFFFF DUP3 GT OR ISZERO PUSH2 0x9D4 JUMPI PUSH2 0x9D3 PUSH2 0xA0C JUMP JUMPDEST JUMPDEST DUP1 PUSH1 0x40 MSTORE POP POP POP JUMP JUMPDEST PUSH32 0x4E487B7100000000000000000000000000000000000000000000000000000000 PUSH1 0x0 MSTORE PUSH1 0x22 PUSH1 0x4 MSTORE PUSH1 0x24 PUSH1 0x0 REVERT JUMPDEST PUSH32 0x4E487B7100000000000000000000000000000000000000000000000000000000 PUSH1 0x0 MSTORE PUSH1 0x41 PUSH1 0x4 MSTORE PUSH1 0x24 PUSH1 0x0 REVERT JUMPDEST PUSH1 0x0 DUP1 REVERT JUMPDEST PUSH1 0x0 DUP1 REVERT JUMPDEST PUSH1 0x0 DUP1 REVERT JUMPDEST PUSH1 0x0 DUP1 REVERT JUMPDEST PUSH1 0x0 PUSH1 0x1F NOT PUSH1 0x1F DUP4 ADD AND SWAP1 POP SWAP2 SWAP1 POP JUMP JUMPDEST PUSH2 0xA69 DUP2 PUSH2 0x92E JUMP JUMPDEST DUP2 EQ PUSH2 0xA74 JUMPI PUSH1 0x0 DUP1 REVERT JUMPDEST POP JUMP INVALID LOG2 PUSH5 0x6970667358 0x22 SLT KECCAK256 KECCAK256 LOG2 BASEFEE MSTORE 0xDA 0xB2 0xD9 PUSH22 0x71C378DD4E5B9ECAD446CE06544B3D21C8039A231849 0xF6 0xCB PUSH5 0x736F6C6343 STOP ADDMOD SMOD STOP CALLER "
				},
				"gasEstimates": {
					"creation": {
						"codeDepositCost": "546600",
						"executionCost": "581",
						"totalCost": "547181"
					},
					"external": {
						"addTodo(uint256,string)": "infinite",
						"showTodo()": "infinite",
						"todos(uint256)": "infinite"
					}
				},
				"methodIdentifiers": {
					"addTodo(uint256,string)": "c1da2020",
					"showTodo()": "82e76b88",
					"todos(uint256)": "bc8bc2b4"
				}
			},
			"storageLayout": {
				"storage": [
					{
						"astId": 16,
						"contract": "todomain.sol:TodoMain",
						"label": "todos",
						"offset": 0,
						"slot": "0",
						"type": "t_array(t_struct(TodoObj)6_storage)dyn_storage"
					},
					{
						"astId": 22,
						"contract": "todomain.sol:TodoMain",
						"label": "todoMap",
						"offset": 0,
						"slot": "1",
						"type": "t_mapping(t_address,t_array(t_struct(TodoObj)6_storage)dyn_storage)"
					}
				],
				"types": {
					"t_address": {
						"encoding": "inplace",
						"label": "address",
						"numberOfBytes": "20"
					},
					"t_array(t_struct(TodoObj)6_storage)dyn_storage": {
						"base": "t_struct(TodoObj)6_storage",
						"encoding": "dynamic_array",
						"label": "struct TodoMain.TodoObj[]",
						"numberOfBytes": "32"
					},
					"t_mapping(t_address,t_array(t_struct(TodoObj)6_storage)dyn_storage)": {
						"encoding": "mapping",
						"key": "t_address",
						"label": "mapping(address => struct TodoMain.TodoObj[])",
						"numberOfBytes": "32",
						"value": "t_array(t_struct(TodoObj)6_storage)dyn_storage"
					},
					"t_string_storage": {
						"encoding": "bytes",
						"label": "string",
						"numberOfBytes": "32"
					},
					"t_struct(TodoObj)6_storage": {
						"encoding": "inplace",
						"label": "struct TodoMain.TodoObj",
						"members": [
							{
								"astId": 3,
								"contract": "todomain.sol:TodoMain",
								"label": "id",
								"offset": 0,
								"slot": "0",
								"type": "t_uint256"
							},
							{
								"astId": 5,
								"contract": "todomain.sol:TodoMain",
								"label": "todoName",
								"offset": 0,
								"slot": "1",
								"type": "t_string_storage"
							}
						],
						"numberOfBytes": "64"
					},
					"t_uint256": {
						"encoding": "inplace",
						"label": "uint256",
						"numberOfBytes": "32"
					}
				}
			},
			"userdoc": {
				"kind": "user",
				"methods": {},
				"version": 1
			}
		}
	}
}