{
	"Todo.sol": {
		"Todo": {
			"abi": [
				{
					"inputs": [
						{
							"internalType": "string",
							"name": "todo",
							"type": "string"
						}
					],
					"name": "addTodo",
					"outputs": [],
					"stateMutability": "nonpayable",
					"type": "function"
				},
				{
					"inputs": [],
					"name": "resetTodo",
					"outputs": [],
					"stateMutability": "nonpayable",
					"type": "function"
				},
				{
					"inputs": [],
					"name": "showTodo",
					"outputs": [],
					"stateMutability": "nonpayable",
					"type": "function"
				}
			],
			"devdoc": {
				"kind": "dev",
				"methods": {},
				"version": 1
			},
			"evm": {
				"assembly": "    /* \"Todo.sol\":66:381  contract Todo{\r... */\n  mstore(0x40, 0x80)\n  callvalue\n  dup1\n  iszero\n  tag_1\n  jumpi\n  0x00\n  dup1\n  revert\ntag_1:\n  pop\n  dataSize(sub_0)\n  dup1\n  dataOffset(sub_0)\n  0x00\n  codecopy\n  0x00\n  return\nstop\n\nsub_0: assembly {\n        /* \"Todo.sol\":66:381  contract Todo{\r... */\n      mstore(0x40, 0x80)\n      callvalue\n      dup1\n      iszero\n      tag_1\n      jumpi\n      0x00\n      dup1\n      revert\n    tag_1:\n      pop\n      jumpi(tag_2, lt(calldatasize, 0x04))\n      shr(0xe0, calldataload(0x00))\n      dup1\n      0x82e76b88\n      eq\n      tag_3\n      jumpi\n      dup1\n      0x95ffebf5\n      eq\n      tag_4\n      jumpi\n      dup1\n      0xcbed9e07\n      eq\n      tag_5\n      jumpi\n    tag_2:\n      0x00\n      dup1\n      revert\n        /* \"Todo.sol\":273:378  function showTodo() public {\r... */\n    tag_3:\n      tag_6\n      tag_7\n      jump\t// in\n    tag_6:\n      stop\n        /* \"Todo.sol\":109:188  function addTodo(string memory todo) public {\r... */\n    tag_4:\n      tag_8\n      0x04\n      dup1\n      calldatasize\n      sub\n      dup2\n      add\n      swap1\n      tag_9\n      swap2\n      swap1\n      tag_10\n      jump\t// in\n    tag_9:\n      tag_11\n      jump\t// in\n    tag_8:\n      stop\n        /* \"Todo.sol\":196:265  function resetTodo() public{\r... */\n    tag_5:\n      tag_12\n      tag_13\n      jump\t// in\n    tag_12:\n      stop\n        /* \"Todo.sol\":273:378  function showTodo() public {\r... */\n    tag_7:\n        /* \"Todo.sol\":315:321  uint i */\n      0x00\n        /* \"Todo.sol\":311:371  for(uint i=0;i<=todos.length;i++){\r... */\n    tag_15:\n        /* \"Todo.sol\":327:332  todos */\n      0x00\n        /* \"Todo.sol\":327:339  todos.length */\n      dup1\n      sload\n      swap1\n      pop\n        /* \"Todo.sol\":324:325  i */\n      dup2\n        /* \"Todo.sol\":324:339  i<=todos.length */\n      gt\n        /* \"Todo.sol\":311:371  for(uint i=0;i<=todos.length;i++){\r... */\n      tag_16\n      jumpi\n        /* \"Todo.sol\":355:360  todos */\n      0x00\n        /* \"Todo.sol\":361:362  i */\n      dup2\n        /* \"Todo.sol\":355:363  todos[i] */\n      dup2\n      sload\n      dup2\n      lt\n      tag_18\n      jumpi\n      tag_19\n      tag_20\n      jump\t// in\n    tag_19:\n    tag_18:\n      swap1\n      0x00\n      mstore\n      pop(keccak256(0x00, 0x20))\n      pop\n        /* \"Todo.sol\":340:343  i++ */\n      dup1\n      dup1\n      tag_22\n      swap1\n      tag_23\n      jump\t// in\n    tag_22:\n      swap2\n      pop\n      pop\n        /* \"Todo.sol\":311:371  for(uint i=0;i<=todos.length;i++){\r... */\n      jump(tag_15)\n    tag_16:\n      pop\n        /* \"Todo.sol\":273:378  function showTodo() public {\r... */\n      jump\t// out\n        /* \"Todo.sol\":109:188  function addTodo(string memory todo) public {\r... */\n    tag_11:\n        /* \"Todo.sol\":164:169  todos */\n      0x00\n        /* \"Todo.sol\":175:179  todo */\n      dup2\n        /* \"Todo.sol\":164:180  todos.push(todo) */\n      swap1\n      dup1\n      0x01\n      dup2\n      sload\n      add\n      dup1\n      dup3\n      sstore\n      dup1\n      swap2\n      pop\n      pop\n      0x01\n      swap1\n      sub\n      swap1\n      0x00\n      mstore\n      keccak256(0x00, 0x20)\n      add\n      0x00\n      swap1\n      swap2\n      swap1\n      swap2\n      swap1\n      swap2\n      pop\n      swap1\n      dup1\n      mload\n      swap1\n      0x20\n      add\n      swap1\n      tag_26\n      swap3\n      swap2\n      swap1\n      tag_27\n      jump\t// in\n    tag_26:\n      pop\n        /* \"Todo.sol\":109:188  function addTodo(string memory todo) public {\r... */\n      pop\n      jump\t// out\n        /* \"Todo.sol\":196:265  function resetTodo() public{\r... */\n    tag_13:\n        /* \"Todo.sol\":255:256  0 */\n      0x00\n        /* \"Todo.sol\":242:257  new string[](0) */\n      0xffffffffffffffff\n      dup2\n      gt\n      iszero\n      tag_29\n      jumpi\n      tag_30\n      tag_31\n      jump\t// in\n    tag_30:\n    tag_29:\n      mload(0x40)\n      swap1\n      dup1\n      dup3\n      mstore\n      dup1\n      0x20\n      mul\n      0x20\n      add\n      dup3\n      add\n      0x40\n      mstore\n      dup1\n      iszero\n      tag_32\n      jumpi\n      dup2\n      0x20\n      add\n    tag_33:\n      0x60\n      dup2\n      mstore\n      0x20\n      add\n      swap1\n      0x01\n      swap1\n      sub\n      swap1\n      dup2\n      tag_33\n      jumpi\n      swap1\n      pop\n    tag_32:\n      pop\n        /* \"Todo.sol\":234:239  todos */\n      0x00\n        /* \"Todo.sol\":234:257  todos = new string[](0) */\n      swap1\n      dup1\n      mload\n      swap1\n      0x20\n      add\n      swap1\n      tag_34\n      swap3\n      swap2\n      swap1\n      tag_35\n      jump\t// in\n    tag_34:\n      pop\n        /* \"Todo.sol\":196:265  function resetTodo() public{\r... */\n      jump\t// out\n    tag_27:\n      dup3\n      dup1\n      sload\n      tag_36\n      swap1\n      tag_37\n      jump\t// in\n    tag_36:\n      swap1\n      0x00\n      mstore\n      keccak256(0x00, 0x20)\n      swap1\n      0x1f\n      add\n      0x20\n      swap1\n      div\n      dup2\n      add\n      swap3\n      dup3\n      tag_39\n      jumpi\n      0x00\n      dup6\n      sstore\n      jump(tag_38)\n    tag_39:\n      dup3\n      0x1f\n      lt\n      tag_40\n      jumpi\n      dup1\n      mload\n      not(0xff)\n      and\n      dup4\n      dup1\n      add\n      or\n      dup6\n      sstore\n      jump(tag_38)\n    tag_40:\n      dup3\n      dup1\n      add\n      0x01\n      add\n      dup6\n      sstore\n      dup3\n      iszero\n      tag_38\n      jumpi\n      swap2\n      dup3\n      add\n    tag_41:\n      dup3\n      dup2\n      gt\n      iszero\n      tag_42\n      jumpi\n      dup3\n      mload\n      dup3\n      sstore\n      swap2\n      0x20\n      add\n      swap2\n      swap1\n      0x01\n      add\n      swap1\n      jump(tag_41)\n    tag_42:\n    tag_38:\n      pop\n      swap1\n      pop\n      tag_43\n      swap2\n      swap1\n      tag_44\n      jump\t// in\n    tag_43:\n      pop\n      swap1\n      jump\t// out\n    tag_35:\n      dup3\n      dup1\n      sload\n      dup3\n      dup3\n      sstore\n      swap1\n      0x00\n      mstore\n      keccak256(0x00, 0x20)\n      swap1\n      dup2\n      add\n      swap3\n      dup3\n      iszero\n      tag_45\n      jumpi\n      swap2\n      0x20\n      mul\n      dup3\n      add\n    tag_46:\n      dup3\n      dup2\n      gt\n      iszero\n      tag_47\n      jumpi\n      dup3\n      mload\n      dup3\n      swap1\n      dup1\n      mload\n      swap1\n      0x20\n      add\n      swap1\n      tag_48\n      swap3\n      swap2\n      swap1\n      tag_27\n      jump\t// in\n    tag_48:\n      pop\n      swap2\n      0x20\n      add\n      swap2\n      swap1\n      0x01\n      add\n      swap1\n      jump(tag_46)\n    tag_47:\n    tag_45:\n      pop\n      swap1\n      pop\n      tag_49\n      swap2\n      swap1\n      tag_50\n      jump\t// in\n    tag_49:\n      pop\n      swap1\n      jump\t// out\n    tag_44:\n    tag_51:\n      dup1\n      dup3\n      gt\n      iszero\n      tag_52\n      jumpi\n      0x00\n      dup2\n      0x00\n      swap1\n      sstore\n      pop\n      0x01\n      add\n      jump(tag_51)\n    tag_52:\n      pop\n      swap1\n      jump\t// out\n    tag_50:\n    tag_53:\n      dup1\n      dup3\n      gt\n      iszero\n      tag_54\n      jumpi\n      0x00\n      dup2\n      dup2\n      tag_55\n      swap2\n      swap1\n      tag_56\n      jump\t// in\n    tag_55:\n      pop\n      0x01\n      add\n      jump(tag_53)\n    tag_54:\n      pop\n      swap1\n      jump\t// out\n    tag_56:\n      pop\n      dup1\n      sload\n      tag_57\n      swap1\n      tag_37\n      jump\t// in\n    tag_57:\n      0x00\n      dup3\n      sstore\n      dup1\n      0x1f\n      lt\n      tag_59\n      jumpi\n      pop\n      jump(tag_58)\n    tag_59:\n      0x1f\n      add\n      0x20\n      swap1\n      div\n      swap1\n      0x00\n      mstore\n      keccak256(0x00, 0x20)\n      swap1\n      dup2\n      add\n      swap1\n      tag_60\n      swap2\n      swap1\n      tag_44\n      jump\t// in\n    tag_60:\n    tag_58:\n      pop\n      jump\t// out\n        /* \"#utility.yul\":7:419   */\n    tag_62:\n        /* \"#utility.yul\":85:90   */\n      0x00\n        /* \"#utility.yul\":110:176   */\n      tag_64\n        /* \"#utility.yul\":126:175   */\n      tag_65\n        /* \"#utility.yul\":168:174   */\n      dup5\n        /* \"#utility.yul\":126:175   */\n      tag_66\n      jump\t// in\n    tag_65:\n        /* \"#utility.yul\":110:176   */\n      tag_67\n      jump\t// in\n    tag_64:\n        /* \"#utility.yul\":101:176   */\n      swap1\n      pop\n        /* \"#utility.yul\":199:205   */\n      dup3\n        /* \"#utility.yul\":192:197   */\n      dup2\n        /* \"#utility.yul\":185:206   */\n      mstore\n        /* \"#utility.yul\":237:241   */\n      0x20\n        /* \"#utility.yul\":230:235   */\n      dup2\n        /* \"#utility.yul\":226:242   */\n      add\n        /* \"#utility.yul\":275:278   */\n      dup5\n        /* \"#utility.yul\":266:272   */\n      dup5\n        /* \"#utility.yul\":261:264   */\n      dup5\n        /* \"#utility.yul\":257:273   */\n      add\n        /* \"#utility.yul\":254:279   */\n      gt\n        /* \"#utility.yul\":251:363   */\n      iszero\n      tag_68\n      jumpi\n        /* \"#utility.yul\":282:361   */\n      tag_69\n      tag_70\n      jump\t// in\n    tag_69:\n        /* \"#utility.yul\":251:363   */\n    tag_68:\n        /* \"#utility.yul\":372:413   */\n      tag_71\n        /* \"#utility.yul\":406:412   */\n      dup5\n        /* \"#utility.yul\":401:404   */\n      dup3\n        /* \"#utility.yul\":396:399   */\n      dup6\n        /* \"#utility.yul\":372:413   */\n      tag_72\n      jump\t// in\n    tag_71:\n        /* \"#utility.yul\":91:419   */\n      pop\n        /* \"#utility.yul\":7:419   */\n      swap4\n      swap3\n      pop\n      pop\n      pop\n      jump\t// out\n        /* \"#utility.yul\":439:779   */\n    tag_73:\n        /* \"#utility.yul\":495:500   */\n      0x00\n        /* \"#utility.yul\":544:547   */\n      dup3\n        /* \"#utility.yul\":537:541   */\n      0x1f\n        /* \"#utility.yul\":529:535   */\n      dup4\n        /* \"#utility.yul\":525:542   */\n      add\n        /* \"#utility.yul\":521:548   */\n      slt\n        /* \"#utility.yul\":511:633   */\n      tag_75\n      jumpi\n        /* \"#utility.yul\":552:631   */\n      tag_76\n      tag_77\n      jump\t// in\n    tag_76:\n        /* \"#utility.yul\":511:633   */\n    tag_75:\n        /* \"#utility.yul\":669:675   */\n      dup2\n        /* \"#utility.yul\":656:676   */\n      calldataload\n        /* \"#utility.yul\":694:773   */\n      tag_78\n        /* \"#utility.yul\":769:772   */\n      dup5\n        /* \"#utility.yul\":761:767   */\n      dup3\n        /* \"#utility.yul\":754:758   */\n      0x20\n        /* \"#utility.yul\":746:752   */\n      dup7\n        /* \"#utility.yul\":742:759   */\n      add\n        /* \"#utility.yul\":694:773   */\n      tag_62\n      jump\t// in\n    tag_78:\n        /* \"#utility.yul\":685:773   */\n      swap2\n      pop\n        /* \"#utility.yul\":501:779   */\n      pop\n        /* \"#utility.yul\":439:779   */\n      swap3\n      swap2\n      pop\n      pop\n      jump\t// out\n        /* \"#utility.yul\":785:1294   */\n    tag_10:\n        /* \"#utility.yul\":854:860   */\n      0x00\n        /* \"#utility.yul\":903:905   */\n      0x20\n        /* \"#utility.yul\":891:900   */\n      dup3\n        /* \"#utility.yul\":882:889   */\n      dup5\n        /* \"#utility.yul\":878:901   */\n      sub\n        /* \"#utility.yul\":874:906   */\n      slt\n        /* \"#utility.yul\":871:990   */\n      iszero\n      tag_80\n      jumpi\n        /* \"#utility.yul\":909:988   */\n      tag_81\n      tag_82\n      jump\t// in\n    tag_81:\n        /* \"#utility.yul\":871:990   */\n    tag_80:\n        /* \"#utility.yul\":1057:1058   */\n      0x00\n        /* \"#utility.yul\":1046:1055   */\n      dup3\n        /* \"#utility.yul\":1042:1059   */\n      add\n        /* \"#utility.yul\":1029:1060   */\n      calldataload\n        /* \"#utility.yul\":1087:1105   */\n      0xffffffffffffffff\n        /* \"#utility.yul\":1079:1085   */\n      dup2\n        /* \"#utility.yul\":1076:1106   */\n      gt\n        /* \"#utility.yul\":1073:1190   */\n      iszero\n      tag_83\n      jumpi\n        /* \"#utility.yul\":1109:1188   */\n      tag_84\n      tag_85\n      jump\t// in\n    tag_84:\n        /* \"#utility.yul\":1073:1190   */\n    tag_83:\n        /* \"#utility.yul\":1214:1277   */\n      tag_86\n        /* \"#utility.yul\":1269:1276   */\n      dup5\n        /* \"#utility.yul\":1260:1266   */\n      dup3\n        /* \"#utility.yul\":1249:1258   */\n      dup6\n        /* \"#utility.yul\":1245:1267   */\n      add\n        /* \"#utility.yul\":1214:1277   */\n      tag_73\n      jump\t// in\n    tag_86:\n        /* \"#utility.yul\":1204:1277   */\n      swap2\n      pop\n        /* \"#utility.yul\":1000:1287   */\n      pop\n        /* \"#utility.yul\":785:1294   */\n      swap3\n      swap2\n      pop\n      pop\n      jump\t// out\n        /* \"#utility.yul\":1300:1429   */\n    tag_67:\n        /* \"#utility.yul\":1334:1340   */\n      0x00\n        /* \"#utility.yul\":1361:1381   */\n      tag_88\n      tag_89\n      jump\t// in\n    tag_88:\n        /* \"#utility.yul\":1351:1381   */\n      swap1\n      pop\n        /* \"#utility.yul\":1390:1423   */\n      tag_90\n        /* \"#utility.yul\":1418:1422   */\n      dup3\n        /* \"#utility.yul\":1410:1416   */\n      dup3\n        /* \"#utility.yul\":1390:1423   */\n      tag_91\n      jump\t// in\n    tag_90:\n        /* \"#utility.yul\":1300:1429   */\n      swap2\n      swap1\n      pop\n      jump\t// out\n        /* \"#utility.yul\":1435:1510   */\n    tag_89:\n        /* \"#utility.yul\":1468:1474   */\n      0x00\n        /* \"#utility.yul\":1501:1503   */\n      0x40\n        /* \"#utility.yul\":1495:1504   */\n      mload\n        /* \"#utility.yul\":1485:1504   */\n      swap1\n      pop\n        /* \"#utility.yul\":1435:1510   */\n      swap1\n      jump\t// out\n        /* \"#utility.yul\":1516:1824   */\n    tag_66:\n        /* \"#utility.yul\":1578:1582   */\n      0x00\n        /* \"#utility.yul\":1668:1686   */\n      0xffffffffffffffff\n        /* \"#utility.yul\":1660:1666   */\n      dup3\n        /* \"#utility.yul\":1657:1687   */\n      gt\n        /* \"#utility.yul\":1654:1710   */\n      iszero\n      tag_94\n      jumpi\n        /* \"#utility.yul\":1690:1708   */\n      tag_95\n      tag_31\n      jump\t// in\n    tag_95:\n        /* \"#utility.yul\":1654:1710   */\n    tag_94:\n        /* \"#utility.yul\":1728:1757   */\n      tag_96\n        /* \"#utility.yul\":1750:1756   */\n      dup3\n        /* \"#utility.yul\":1728:1757   */\n      tag_97\n      jump\t// in\n    tag_96:\n        /* \"#utility.yul\":1720:1757   */\n      swap1\n      pop\n        /* \"#utility.yul\":1812:1816   */\n      0x20\n        /* \"#utility.yul\":1806:1810   */\n      dup2\n        /* \"#utility.yul\":1802:1817   */\n      add\n        /* \"#utility.yul\":1794:1817   */\n      swap1\n      pop\n        /* \"#utility.yul\":1516:1824   */\n      swap2\n      swap1\n      pop\n      jump\t// out\n        /* \"#utility.yul\":1830:1907   */\n    tag_98:\n        /* \"#utility.yul\":1867:1874   */\n      0x00\n        /* \"#utility.yul\":1896:1901   */\n      dup2\n        /* \"#utility.yul\":1885:1901   */\n      swap1\n      pop\n        /* \"#utility.yul\":1830:1907   */\n      swap2\n      swap1\n      pop\n      jump\t// out\n        /* \"#utility.yul\":1913:2067   */\n    tag_72:\n        /* \"#utility.yul\":1997:2003   */\n      dup3\n        /* \"#utility.yul\":1992:1995   */\n      dup2\n        /* \"#utility.yul\":1987:1990   */\n      dup4\n        /* \"#utility.yul\":1974:2004   */\n      calldatacopy\n        /* \"#utility.yul\":2059:2060   */\n      0x00\n        /* \"#utility.yul\":2050:2056   */\n      dup4\n        /* \"#utility.yul\":2045:2048   */\n      dup4\n        /* \"#utility.yul\":2041:2057   */\n      add\n        /* \"#utility.yul\":2034:2061   */\n      mstore\n        /* \"#utility.yul\":1913:2067   */\n      pop\n      pop\n      pop\n      jump\t// out\n        /* \"#utility.yul\":2073:2393   */\n    tag_37:\n        /* \"#utility.yul\":2117:2123   */\n      0x00\n        /* \"#utility.yul\":2154:2155   */\n      0x02\n        /* \"#utility.yul\":2148:2152   */\n      dup3\n        /* \"#utility.yul\":2144:2156   */\n      div\n        /* \"#utility.yul\":2134:2156   */\n      swap1\n      pop\n        /* \"#utility.yul\":2201:2202   */\n      0x01\n        /* \"#utility.yul\":2195:2199   */\n      dup3\n        /* \"#utility.yul\":2191:2203   */\n      and\n        /* \"#utility.yul\":2222:2240   */\n      dup1\n        /* \"#utility.yul\":2212:2293   */\n      tag_102\n      jumpi\n        /* \"#utility.yul\":2278:2282   */\n      0x7f\n        /* \"#utility.yul\":2270:2276   */\n      dup3\n        /* \"#utility.yul\":2266:2283   */\n      and\n        /* \"#utility.yul\":2256:2283   */\n      swap2\n      pop\n        /* \"#utility.yul\":2212:2293   */\n    tag_102:\n        /* \"#utility.yul\":2340:2342   */\n      0x20\n        /* \"#utility.yul\":2332:2338   */\n      dup3\n        /* \"#utility.yul\":2329:2343   */\n      lt\n        /* \"#utility.yul\":2309:2327   */\n      dup2\n        /* \"#utility.yul\":2306:2344   */\n      eq\n        /* \"#utility.yul\":2303:2387   */\n      iszero\n      tag_103\n      jumpi\n        /* \"#utility.yul\":2359:2377   */\n      tag_104\n      tag_105\n      jump\t// in\n    tag_104:\n        /* \"#utility.yul\":2303:2387   */\n    tag_103:\n        /* \"#utility.yul\":2124:2393   */\n      pop\n        /* \"#utility.yul\":2073:2393   */\n      swap2\n      swap1\n      pop\n      jump\t// out\n        /* \"#utility.yul\":2399:2680   */\n    tag_91:\n        /* \"#utility.yul\":2482:2509   */\n      tag_107\n        /* \"#utility.yul\":2504:2508   */\n      dup3\n        /* \"#utility.yul\":2482:2509   */\n      tag_97\n      jump\t// in\n    tag_107:\n        /* \"#utility.yul\":2474:2480   */\n      dup2\n        /* \"#utility.yul\":2470:2510   */\n      add\n        /* \"#utility.yul\":2612:2618   */\n      dup2\n        /* \"#utility.yul\":2600:2610   */\n      dup2\n        /* \"#utility.yul\":2597:2619   */\n      lt\n        /* \"#utility.yul\":2576:2594   */\n      0xffffffffffffffff\n        /* \"#utility.yul\":2564:2574   */\n      dup3\n        /* \"#utility.yul\":2561:2595   */\n      gt\n        /* \"#utility.yul\":2558:2620   */\n      or\n        /* \"#utility.yul\":2555:2643   */\n      iszero\n      tag_108\n      jumpi\n        /* \"#utility.yul\":2623:2641   */\n      tag_109\n      tag_31\n      jump\t// in\n    tag_109:\n        /* \"#utility.yul\":2555:2643   */\n    tag_108:\n        /* \"#utility.yul\":2663:2673   */\n      dup1\n        /* \"#utility.yul\":2659:2661   */\n      0x40\n        /* \"#utility.yul\":2652:2674   */\n      mstore\n        /* \"#utility.yul\":2442:2680   */\n      pop\n        /* \"#utility.yul\":2399:2680   */\n      pop\n      pop\n      jump\t// out\n        /* \"#utility.yul\":2686:2919   */\n    tag_23:\n        /* \"#utility.yul\":2725:2728   */\n      0x00\n        /* \"#utility.yul\":2748:2772   */\n      tag_111\n        /* \"#utility.yul\":2766:2771   */\n      dup3\n        /* \"#utility.yul\":2748:2772   */\n      tag_98\n      jump\t// in\n    tag_111:\n        /* \"#utility.yul\":2739:2772   */\n      swap2\n      pop\n        /* \"#utility.yul\":2794:2860   */\n      0xffffffffffffffffffffffffffffffffffffffffffffffffffffffffffffffff\n        /* \"#utility.yul\":2787:2792   */\n      dup3\n        /* \"#utility.yul\":2784:2861   */\n      eq\n        /* \"#utility.yul\":2781:2884   */\n      iszero\n      tag_112\n      jumpi\n        /* \"#utility.yul\":2864:2882   */\n      tag_113\n      tag_114\n      jump\t// in\n    tag_113:\n        /* \"#utility.yul\":2781:2884   */\n    tag_112:\n        /* \"#utility.yul\":2911:2912   */\n      0x01\n        /* \"#utility.yul\":2904:2909   */\n      dup3\n        /* \"#utility.yul\":2900:2913   */\n      add\n        /* \"#utility.yul\":2893:2913   */\n      swap1\n      pop\n        /* \"#utility.yul\":2686:2919   */\n      swap2\n      swap1\n      pop\n      jump\t// out\n        /* \"#utility.yul\":2925:3105   */\n    tag_114:\n        /* \"#utility.yul\":2973:3050   */\n      0x4e487b7100000000000000000000000000000000000000000000000000000000\n        /* \"#utility.yul\":2970:2971   */\n      0x00\n        /* \"#utility.yul\":2963:3051   */\n      mstore\n        /* \"#utility.yul\":3070:3074   */\n      0x11\n        /* \"#utility.yul\":3067:3068   */\n      0x04\n        /* \"#utility.yul\":3060:3075   */\n      mstore\n        /* \"#utility.yul\":3094:3098   */\n      0x24\n        /* \"#utility.yul\":3091:3092   */\n      0x00\n        /* \"#utility.yul\":3084:3099   */\n      revert\n        /* \"#utility.yul\":3111:3291   */\n    tag_105:\n        /* \"#utility.yul\":3159:3236   */\n      0x4e487b7100000000000000000000000000000000000000000000000000000000\n        /* \"#utility.yul\":3156:3157   */\n      0x00\n        /* \"#utility.yul\":3149:3237   */\n      mstore\n        /* \"#utility.yul\":3256:3260   */\n      0x22\n        /* \"#utility.yul\":3253:3254   */\n      0x04\n        /* \"#utility.yul\":3246:3261   */\n      mstore\n        /* \"#utility.yul\":3280:3284   */\n      0x24\n        /* \"#utility.yul\":3277:3278   */\n      0x00\n        /* \"#utility.yul\":3270:3285   */\n      revert\n        /* \"#utility.yul\":3297:3477   */\n    tag_20:\n        /* \"#utility.yul\":3345:3422   */\n      0x4e487b7100000000000000000000000000000000000000000000000000000000\n        /* \"#utility.yul\":3342:3343   */\n      0x00\n        /* \"#utility.yul\":3335:3423   */\n      mstore\n        /* \"#utility.yul\":3442:3446   */\n      0x32\n        /* \"#utility.yul\":3439:3440   */\n      0x04\n        /* \"#utility.yul\":3432:3447   */\n      mstore\n        /* \"#utility.yul\":3466:3470   */\n      0x24\n        /* \"#utility.yul\":3463:3464   */\n      0x00\n        /* \"#utility.yul\":3456:3471   */\n      revert\n        /* \"#utility.yul\":3483:3663   */\n    tag_31:\n        /* \"#utility.yul\":3531:3608   */\n      0x4e487b7100000000000000000000000000000000000000000000000000000000\n        /* \"#utility.yul\":3528:3529   */\n      0x00\n        /* \"#utility.yul\":3521:3609   */\n      mstore\n        /* \"#utility.yul\":3628:3632   */\n      0x41\n        /* \"#utility.yul\":3625:3626   */\n      0x04\n        /* \"#utility.yul\":3618:3633   */\n      mstore\n        /* \"#utility.yul\":3652:3656   */\n      0x24\n        /* \"#utility.yul\":3649:3650   */\n      0x00\n        /* \"#utility.yul\":3642:3657   */\n      revert\n        /* \"#utility.yul\":3669:3786   */\n    tag_77:\n        /* \"#utility.yul\":3778:3779   */\n      0x00\n        /* \"#utility.yul\":3775:3776   */\n      dup1\n        /* \"#utility.yul\":3768:3780   */\n      revert\n        /* \"#utility.yul\":3792:3909   */\n    tag_70:\n        /* \"#utility.yul\":3901:3902   */\n      0x00\n        /* \"#utility.yul\":3898:3899   */\n      dup1\n        /* \"#utility.yul\":3891:3903   */\n      revert\n        /* \"#utility.yul\":3915:4032   */\n    tag_85:\n        /* \"#utility.yul\":4024:4025   */\n      0x00\n        /* \"#utility.yul\":4021:4022   */\n      dup1\n        /* \"#utility.yul\":4014:4026   */\n      revert\n        /* \"#utility.yul\":4038:4155   */\n    tag_82:\n        /* \"#utility.yul\":4147:4148   */\n      0x00\n        /* \"#utility.yul\":4144:4145   */\n      dup1\n        /* \"#utility.yul\":4137:4149   */\n      revert\n        /* \"#utility.yul\":4161:4263   */\n    tag_97:\n        /* \"#utility.yul\":4202:4208   */\n      0x00\n        /* \"#utility.yul\":4253:4255   */\n      0x1f\n        /* \"#utility.yul\":4249:4256   */\n      not\n        /* \"#utility.yul\":4244:4246   */\n      0x1f\n        /* \"#utility.yul\":4237:4242   */\n      dup4\n        /* \"#utility.yul\":4233:4247   */\n      add\n        /* \"#utility.yul\":4229:4257   */\n      and\n        /* \"#utility.yul\":4219:4257   */\n      swap1\n      pop\n        /* \"#utility.yul\":4161:4263   */\n      swap2\n      swap1\n      pop\n      jump\t// out\n\n    auxdata: 0xa2646970667358221220d1bacb49dedc3e55880303703e9a1ce997c273e0288ebcda8ff8a63677b894c064736f6c63430008070033\n}\n",
				"bytecode": {
					"linkReferences": {},
					"object": "608060405234801561001057600080fd5b506105b2806100206000396000f3fe608060405234801561001057600080fd5b50600436106100415760003560e01c806382e76b881461004657806395ffebf514610050578063cbed9e071461006c575b600080fd5b61004e610076565b005b61006a60048036038101906100659190610337565b6100ba565b005b6100746100f9565b005b60005b60008054905081116100b75760008181548110610099576100986104f9565b5b906000526020600020505080806100af90610452565b915050610079565b50565b6000819080600181540180825580915050600190039060005260206000200160009091909190915090805190602001906100f5929190610160565b5050565b600067ffffffffffffffff81111561011457610113610528565b5b60405190808252806020026020018201604052801561014757816020015b60608152602001906001900390816101325790505b506000908051906020019061015d9291906101e6565b50565b82805461016c906103ef565b90600052602060002090601f01602090048101928261018e57600085556101d5565b82601f106101a757805160ff19168380011785556101d5565b828001600101855582156101d5579182015b828111156101d45782518255916020019190600101906101b9565b5b5090506101e29190610246565b5090565b828054828255906000526020600020908101928215610235579160200282015b82811115610234578251829080519060200190610224929190610160565b5091602001919060010190610206565b5b5090506102429190610263565b5090565b5b8082111561025f576000816000905550600101610247565b5090565b5b80821115610283576000818161027a9190610287565b50600101610264565b5090565b508054610293906103ef565b6000825580601f106102a557506102c4565b601f0160209004906000526020600020908101906102c39190610246565b5b50565b60006102da6102d5846103a5565b610380565b9050828152602081018484840111156102f6576102f561055c565b5b6103018482856103e0565b509392505050565b600082601f83011261031e5761031d610557565b5b813561032e8482602086016102c7565b91505092915050565b60006020828403121561034d5761034c610566565b5b600082013567ffffffffffffffff81111561036b5761036a610561565b5b61037784828501610309565b91505092915050565b600061038a61039b565b90506103968282610421565b919050565b6000604051905090565b600067ffffffffffffffff8211156103c0576103bf610528565b5b6103c98261056b565b9050602081019050919050565b6000819050919050565b82818337600083830152505050565b6000600282049050600182168061040757607f821691505b6020821081141561041b5761041a6104ca565b5b50919050565b61042a8261056b565b810181811067ffffffffffffffff8211171561044957610448610528565b5b80604052505050565b600061045d826103d6565b91507fffffffffffffffffffffffffffffffffffffffffffffffffffffffffffffffff8214156104905761048f61049b565b5b600182019050919050565b7f4e487b7100000000000000000000000000000000000000000000000000000000600052601160045260246000fd5b7f4e487b7100000000000000000000000000000000000000000000000000000000600052602260045260246000fd5b7f4e487b7100000000000000000000000000000000000000000000000000000000600052603260045260246000fd5b7f4e487b7100000000000000000000000000000000000000000000000000000000600052604160045260246000fd5b600080fd5b600080fd5b600080fd5b600080fd5b6000601f19601f830116905091905056fea2646970667358221220d1bacb49dedc3e55880303703e9a1ce997c273e0288ebcda8ff8a63677b894c064736f6c63430008070033",
					"opcodes": "PUSH1 0x80 PUSH1 0x40 MSTORE CALLVALUE DUP1 ISZERO PUSH2 0x10 JUMPI PUSH1 0x0 DUP1 REVERT JUMPDEST POP PUSH2 0x5B2 DUP1 PUSH2 0x20 PUSH1 0x0 CODECOPY PUSH1 0x0 RETURN INVALID PUSH1 0x80 PUSH1 0x40 MSTORE CALLVALUE DUP1 ISZERO PUSH2 0x10 JUMPI PUSH1 0x0 DUP1 REVERT JUMPDEST POP PUSH1 0x4 CALLDATASIZE LT PUSH2 0x41 JUMPI PUSH1 0x0 CALLDATALOAD PUSH1 0xE0 SHR DUP1 PUSH4 0x82E76B88 EQ PUSH2 0x46 JUMPI DUP1 PUSH4 0x95FFEBF5 EQ PUSH2 0x50 JUMPI DUP1 PUSH4 0xCBED9E07 EQ PUSH2 0x6C JUMPI JUMPDEST PUSH1 0x0 DUP1 REVERT JUMPDEST PUSH2 0x4E PUSH2 0x76 JUMP JUMPDEST STOP JUMPDEST PUSH2 0x6A PUSH1 0x4 DUP1 CALLDATASIZE SUB DUP2 ADD SWAP1 PUSH2 0x65 SWAP2 SWAP1 PUSH2 0x337 JUMP JUMPDEST PUSH2 0xBA JUMP JUMPDEST STOP JUMPDEST PUSH2 0x74 PUSH2 0xF9 JUMP JUMPDEST STOP JUMPDEST PUSH1 0x0 JUMPDEST PUSH1 0x0 DUP1 SLOAD SWAP1 POP DUP2 GT PUSH2 0xB7 JUMPI PUSH1 0x0 DUP2 DUP2 SLOAD DUP2 LT PUSH2 0x99 JUMPI PUSH2 0x98 PUSH2 0x4F9 JUMP JUMPDEST JUMPDEST SWAP1 PUSH1 0x0 MSTORE PUSH1 0x20 PUSH1 0x0 KECCAK256 POP POP DUP1 DUP1 PUSH2 0xAF SWAP1 PUSH2 0x452 JUMP JUMPDEST SWAP2 POP POP PUSH2 0x79 JUMP JUMPDEST POP JUMP JUMPDEST PUSH1 0x0 DUP2 SWAP1 DUP1 PUSH1 0x1 DUP2 SLOAD ADD DUP1 DUP3 SSTORE DUP1 SWAP2 POP POP PUSH1 0x1 SWAP1 SUB SWAP1 PUSH1 0x0 MSTORE PUSH1 0x20 PUSH1 0x0 KECCAK256 ADD PUSH1 0x0 SWAP1 SWAP2 SWAP1 SWAP2 SWAP1 SWAP2 POP SWAP1 DUP1 MLOAD SWAP1 PUSH1 0x20 ADD SWAP1 PUSH2 0xF5 SWAP3 SWAP2 SWAP1 PUSH2 0x160 JUMP JUMPDEST POP POP JUMP JUMPDEST PUSH1 0x0 PUSH8 0xFFFFFFFFFFFFFFFF DUP2 GT ISZERO PUSH2 0x114 JUMPI PUSH2 0x113 PUSH2 0x528 JUMP JUMPDEST JUMPDEST PUSH1 0x40 MLOAD SWAP1 DUP1 DUP3 MSTORE DUP1 PUSH1 0x20 MUL PUSH1 0x20 ADD DUP3 ADD PUSH1 0x40 MSTORE DUP1 ISZERO PUSH2 0x147 JUMPI DUP2 PUSH1 0x20 ADD JUMPDEST PUSH1 0x60 DUP2 MSTORE PUSH1 0x20 ADD SWAP1 PUSH1 0x1 SWAP1 SUB SWAP1 DUP2 PUSH2 0x132 JUMPI SWAP1 POP JUMPDEST POP PUSH1 0x0 SWAP1 DUP1 MLOAD SWAP1 PUSH1 0x20 ADD SWAP1 PUSH2 0x15D SWAP3 SWAP2 SWAP1 PUSH2 0x1E6 JUMP JUMPDEST POP JUMP JUMPDEST DUP3 DUP1 SLOAD PUSH2 0x16C SWAP1 PUSH2 0x3EF JUMP JUMPDEST SWAP1 PUSH1 0x0 MSTORE PUSH1 0x20 PUSH1 0x0 KECCAK256 SWAP1 PUSH1 0x1F ADD PUSH1 0x20 SWAP1 DIV DUP2 ADD SWAP3 DUP3 PUSH2 0x18E JUMPI PUSH1 0x0 DUP6 SSTORE PUSH2 0x1D5 JUMP JUMPDEST DUP3 PUSH1 0x1F LT PUSH2 0x1A7 JUMPI DUP1 MLOAD PUSH1 0xFF NOT AND DUP4 DUP1 ADD OR DUP6 SSTORE PUSH2 0x1D5 JUMP JUMPDEST DUP3 DUP1 ADD PUSH1 0x1 ADD DUP6 SSTORE DUP3 ISZERO PUSH2 0x1D5 JUMPI SWAP2 DUP3 ADD JUMPDEST DUP3 DUP2 GT ISZERO PUSH2 0x1D4 JUMPI DUP3 MLOAD DUP3 SSTORE SWAP2 PUSH1 0x20 ADD SWAP2 SWAP1 PUSH1 0x1 ADD SWAP1 PUSH2 0x1B9 JUMP JUMPDEST JUMPDEST POP SWAP1 POP PUSH2 0x1E2 SWAP2 SWAP1 PUSH2 0x246 JUMP JUMPDEST POP SWAP1 JUMP JUMPDEST DUP3 DUP1 SLOAD DUP3 DUP3 SSTORE SWAP1 PUSH1 0x0 MSTORE PUSH1 0x20 PUSH1 0x0 KECCAK256 SWAP1 DUP2 ADD SWAP3 DUP3 ISZERO PUSH2 0x235 JUMPI SWAP2 PUSH1 0x20 MUL DUP3 ADD JUMPDEST DUP3 DUP2 GT ISZERO PUSH2 0x234 JUMPI DUP3 MLOAD DUP3 SWAP1 DUP1 MLOAD SWAP1 PUSH1 0x20 ADD SWAP1 PUSH2 0x224 SWAP3 SWAP2 SWAP1 PUSH2 0x160 JUMP JUMPDEST POP SWAP2 PUSH1 0x20 ADD SWAP2 SWAP1 PUSH1 0x1 ADD SWAP1 PUSH2 0x206 JUMP JUMPDEST JUMPDEST POP SWAP1 POP PUSH2 0x242 SWAP2 SWAP1 PUSH2 0x263 JUMP JUMPDEST POP SWAP1 JUMP JUMPDEST JUMPDEST DUP1 DUP3 GT ISZERO PUSH2 0x25F JUMPI PUSH1 0x0 DUP2 PUSH1 0x0 SWAP1 SSTORE POP PUSH1 0x1 ADD PUSH2 0x247 JUMP JUMPDEST POP SWAP1 JUMP JUMPDEST JUMPDEST DUP1 DUP3 GT ISZERO PUSH2 0x283 JUMPI PUSH1 0x0 DUP2 DUP2 PUSH2 0x27A SWAP2 SWAP1 PUSH2 0x287 JUMP JUMPDEST POP PUSH1 0x1 ADD PUSH2 0x264 JUMP JUMPDEST POP SWAP1 JUMP JUMPDEST POP DUP1 SLOAD PUSH2 0x293 SWAP1 PUSH2 0x3EF JUMP JUMPDEST PUSH1 0x0 DUP3 SSTORE DUP1 PUSH1 0x1F LT PUSH2 0x2A5 JUMPI POP PUSH2 0x2C4 JUMP JUMPDEST PUSH1 0x1F ADD PUSH1 0x20 SWAP1 DIV SWAP1 PUSH1 0x0 MSTORE PUSH1 0x20 PUSH1 0x0 KECCAK256 SWAP1 DUP2 ADD SWAP1 PUSH2 0x2C3 SWAP2 SWAP1 PUSH2 0x246 JUMP JUMPDEST JUMPDEST POP JUMP JUMPDEST PUSH1 0x0 PUSH2 0x2DA PUSH2 0x2D5 DUP5 PUSH2 0x3A5 JUMP JUMPDEST PUSH2 0x380 JUMP JUMPDEST SWAP1 POP DUP3 DUP2 MSTORE PUSH1 0x20 DUP2 ADD DUP5 DUP5 DUP5 ADD GT ISZERO PUSH2 0x2F6 JUMPI PUSH2 0x2F5 PUSH2 0x55C JUMP JUMPDEST JUMPDEST PUSH2 0x301 DUP5 DUP3 DUP6 PUSH2 0x3E0 JUMP JUMPDEST POP SWAP4 SWAP3 POP POP POP JUMP JUMPDEST PUSH1 0x0 DUP3 PUSH1 0x1F DUP4 ADD SLT PUSH2 0x31E JUMPI PUSH2 0x31D PUSH2 0x557 JUMP JUMPDEST JUMPDEST DUP2 CALLDATALOAD PUSH2 0x32E DUP5 DUP3 PUSH1 0x20 DUP7 ADD PUSH2 0x2C7 JUMP JUMPDEST SWAP2 POP POP SWAP3 SWAP2 POP POP JUMP JUMPDEST PUSH1 0x0 PUSH1 0x20 DUP3 DUP5 SUB SLT ISZERO PUSH2 0x34D JUMPI PUSH2 0x34C PUSH2 0x566 JUMP JUMPDEST JUMPDEST PUSH1 0x0 DUP3 ADD CALLDATALOAD PUSH8 0xFFFFFFFFFFFFFFFF DUP2 GT ISZERO PUSH2 0x36B JUMPI PUSH2 0x36A PUSH2 0x561 JUMP JUMPDEST JUMPDEST PUSH2 0x377 DUP5 DUP3 DUP6 ADD PUSH2 0x309 JUMP JUMPDEST SWAP2 POP POP SWAP3 SWAP2 POP POP JUMP JUMPDEST PUSH1 0x0 PUSH2 0x38A PUSH2 0x39B JUMP JUMPDEST SWAP1 POP PUSH2 0x396 DUP3 DUP3 PUSH2 0x421 JUMP JUMPDEST SWAP2 SWAP1 POP JUMP JUMPDEST PUSH1 0x0 PUSH1 0x40 MLOAD SWAP1 POP SWAP1 JUMP JUMPDEST PUSH1 0x0 PUSH8 0xFFFFFFFFFFFFFFFF DUP3 GT ISZERO PUSH2 0x3C0 JUMPI PUSH2 0x3BF PUSH2 0x528 JUMP JUMPDEST JUMPDEST PUSH2 0x3C9 DUP3 PUSH2 0x56B JUMP JUMPDEST SWAP1 POP PUSH1 0x20 DUP2 ADD SWAP1 POP SWAP2 SWAP1 POP JUMP JUMPDEST PUSH1 0x0 DUP2 SWAP1 POP SWAP2 SWAP1 POP JUMP JUMPDEST DUP3 DUP2 DUP4 CALLDATACOPY PUSH1 0x0 DUP4 DUP4 ADD MSTORE POP POP POP JUMP JUMPDEST PUSH1 0x0 PUSH1 0x2 DUP3 DIV SWAP1 POP PUSH1 0x1 DUP3 AND DUP1 PUSH2 0x407 JUMPI PUSH1 0x7F DUP3 AND SWAP2 POP JUMPDEST PUSH1 0x20 DUP3 LT DUP2 EQ ISZERO PUSH2 0x41B JUMPI PUSH2 0x41A PUSH2 0x4CA JUMP JUMPDEST JUMPDEST POP SWAP2 SWAP1 POP JUMP JUMPDEST PUSH2 0x42A DUP3 PUSH2 0x56B JUMP JUMPDEST DUP2 ADD DUP2 DUP2 LT PUSH8 0xFFFFFFFFFFFFFFFF DUP3 GT OR ISZERO PUSH2 0x449 JUMPI PUSH2 0x448 PUSH2 0x528 JUMP JUMPDEST JUMPDEST DUP1 PUSH1 0x40 MSTORE POP POP POP JUMP JUMPDEST PUSH1 0x0 PUSH2 0x45D DUP3 PUSH2 0x3D6 JUMP JUMPDEST SWAP2 POP PUSH32 0xFFFFFFFFFFFFFFFFFFFFFFFFFFFFFFFFFFFFFFFFFFFFFFFFFFFFFFFFFFFFFFFF DUP3 EQ ISZERO PUSH2 0x490 JUMPI PUSH2 0x48F PUSH2 0x49B JUMP JUMPDEST JUMPDEST PUSH1 0x1 DUP3 ADD SWAP1 POP SWAP2 SWAP1 POP JUMP JUMPDEST PUSH32 0x4E487B7100000000000000000000000000000000000000000000000000000000 PUSH1 0x0 MSTORE PUSH1 0x11 PUSH1 0x4 MSTORE PUSH1 0x24 PUSH1 0x0 REVERT JUMPDEST PUSH32 0x4E487B7100000000000000000000000000000000000000000000000000000000 PUSH1 0x0 MSTORE PUSH1 0x22 PUSH1 0x4 MSTORE PUSH1 0x24 PUSH1 0x0 REVERT JUMPDEST PUSH32 0x4E487B7100000000000000000000000000000000000000000000000000000000 PUSH1 0x0 MSTORE PUSH1 0x32 PUSH1 0x4 MSTORE PUSH1 0x24 PUSH1 0x0 REVERT JUMPDEST PUSH32 0x4E487B7100000000000000000000000000000000000000000000000000000000 PUSH1 0x0 MSTORE PUSH1 0x41 PUSH1 0x4 MSTORE PUSH1 0x24 PUSH1 0x0 REVERT JUMPDEST PUSH1 0x0 DUP1 REVERT JUMPDEST PUSH1 0x0 DUP1 REVERT JUMPDEST PUSH1 0x0 DUP1 REVERT JUMPDEST PUSH1 0x0 DUP1 REVERT JUMPDEST PUSH1 0x0 PUSH1 0x1F NOT PUSH1 0x1F DUP4 ADD AND SWAP1 POP SWAP2 SWAP1 POP JUMP INVALID LOG2 PUSH5 0x6970667358 0x22 SLT KECCAK256 0xD1 0xBA 0xCB 0x49 0xDE 0xDC RETURNDATACOPY SSTORE DUP9 SUB SUB PUSH17 0x3E9A1CE997C273E0288EBCDA8FF8A63677 0xB8 SWAP5 0xC0 PUSH5 0x736F6C6343 STOP ADDMOD SMOD STOP CALLER "
				},
				"gasEstimates": {
					"creation": {
						"codeDepositCost": "291600",
						"executionCost": "331",
						"totalCost": "291931"
					},
					"external": {
						"addTodo(string)": "infinite",
						"resetTodo()": "infinite",
						"showTodo()": "infinite"
					}
				},
				"methodIdentifiers": {
					"addTodo(string)": "95ffebf5",
					"resetTodo()": "cbed9e07",
					"showTodo()": "82e76b88"
				}
			},
			"storageLayout": {
				"storage": [
					{
						"astId": 4,
						"contract": "Todo.sol:Todo",
						"label": "todos",
						"offset": 0,
						"slot": "0",
						"type": "t_array(t_string_storage)dyn_storage"
					}
				],
				"types": {
					"t_array(t_string_storage)dyn_storage": {
						"base": "t_string_storage",
						"encoding": "dynamic_array",
						"label": "string[]",
						"numberOfBytes": "32"
					},
					"t_string_storage": {
						"encoding": "bytes",
						"label": "string",
						"numberOfBytes": "32"
					}
				}
			},
			"userdoc": {
				"kind": "user",
				"methods": {},
				"version": 1
			}
		}
	}
}