{
	"Todo.sol": {
		"Todo": {
			"abi": [
				{
					"inputs": [
						{
							"internalType": "string",
							"name": "todo",
							"type": "string"
						}
					],
					"name": "addTodo",
					"outputs": [],
					"stateMutability": "nonpayable",
					"type": "function"
				},
				{
					"inputs": [],
					"name": "resetTodo",
					"outputs": [],
					"stateMutability": "nonpayable",
					"type": "function"
				}
			],
			"devdoc": {
				"kind": "dev",
				"methods": {},
				"version": 1
			},
			"evm": {
				"assembly": "    /* \"Todo.sol\":66:369  contract Todo{\r... */\n  mstore(0x40, 0x80)\n  callvalue\n  dup1\n  iszero\n  tag_1\n  jumpi\n  0x00\n  dup1\n  revert\ntag_1:\n  pop\n  dataSize(sub_0)\n  dup1\n  dataOffset(sub_0)\n  0x00\n  codecopy\n  0x00\n  return\nstop\n\nsub_0: assembly {\n        /* \"Todo.sol\":66:369  contract Todo{\r... */\n      mstore(0x40, 0x80)\n      callvalue\n      dup1\n      iszero\n      tag_1\n      jumpi\n      0x00\n      dup1\n      revert\n    tag_1:\n      pop\n      jumpi(tag_2, lt(calldatasize, 0x04))\n      shr(0xe0, calldataload(0x00))\n      dup1\n      0x95ffebf5\n      eq\n      tag_3\n      jumpi\n      dup1\n      0xcbed9e07\n      eq\n      tag_4\n      jumpi\n    tag_2:\n      0x00\n      dup1\n      revert\n        /* \"Todo.sol\":109:188  function addTodo(string memory todo) public {\r... */\n    tag_3:\n      tag_5\n      0x04\n      dup1\n      calldatasize\n      sub\n      dup2\n      add\n      swap1\n      tag_6\n      swap2\n      swap1\n      tag_7\n      jump\t// in\n    tag_6:\n      tag_8\n      jump\t// in\n    tag_5:\n      stop\n        /* \"Todo.sol\":196:265  function resetTodo() public{\r... */\n    tag_4:\n      tag_9\n      tag_10\n      jump\t// in\n    tag_9:\n      stop\n        /* \"Todo.sol\":109:188  function addTodo(string memory todo) public {\r... */\n    tag_8:\n        /* \"Todo.sol\":164:169  todos */\n      0x00\n        /* \"Todo.sol\":175:179  todo */\n      dup2\n        /* \"Todo.sol\":164:180  todos.push(todo) */\n      swap1\n      dup1\n      0x01\n      dup2\n      sload\n      add\n      dup1\n      dup3\n      sstore\n      dup1\n      swap2\n      pop\n      pop\n      0x01\n      swap1\n      sub\n      swap1\n      0x00\n      mstore\n      keccak256(0x00, 0x20)\n      add\n      0x00\n      swap1\n      swap2\n      swap1\n      swap2\n      swap1\n      swap2\n      pop\n      swap1\n      dup1\n      mload\n      swap1\n      0x20\n      add\n      swap1\n      tag_13\n      swap3\n      swap2\n      swap1\n      tag_14\n      jump\t// in\n    tag_13:\n      pop\n        /* \"Todo.sol\":109:188  function addTodo(string memory todo) public {\r... */\n      pop\n      jump\t// out\n        /* \"Todo.sol\":196:265  function resetTodo() public{\r... */\n    tag_10:\n        /* \"Todo.sol\":255:256  0 */\n      0x00\n        /* \"Todo.sol\":242:257  new string[](0) */\n      0xffffffffffffffff\n      dup2\n      gt\n      iszero\n      tag_16\n      jumpi\n      tag_17\n      tag_18\n      jump\t// in\n    tag_17:\n    tag_16:\n      mload(0x40)\n      swap1\n      dup1\n      dup3\n      mstore\n      dup1\n      0x20\n      mul\n      0x20\n      add\n      dup3\n      add\n      0x40\n      mstore\n      dup1\n      iszero\n      tag_19\n      jumpi\n      dup2\n      0x20\n      add\n    tag_20:\n      0x60\n      dup2\n      mstore\n      0x20\n      add\n      swap1\n      0x01\n      swap1\n      sub\n      swap1\n      dup2\n      tag_20\n      jumpi\n      swap1\n      pop\n    tag_19:\n      pop\n        /* \"Todo.sol\":234:239  todos */\n      0x00\n        /* \"Todo.sol\":234:257  todos = new string[](0) */\n      swap1\n      dup1\n      mload\n      swap1\n      0x20\n      add\n      swap1\n      tag_21\n      swap3\n      swap2\n      swap1\n      tag_22\n      jump\t// in\n    tag_21:\n      pop\n        /* \"Todo.sol\":196:265  function resetTodo() public{\r... */\n      jump\t// out\n    tag_14:\n      dup3\n      dup1\n      sload\n      tag_23\n      swap1\n      tag_24\n      jump\t// in\n    tag_23:\n      swap1\n      0x00\n      mstore\n      keccak256(0x00, 0x20)\n      swap1\n      0x1f\n      add\n      0x20\n      swap1\n      div\n      dup2\n      add\n      swap3\n      dup3\n      tag_26\n      jumpi\n      0x00\n      dup6\n      sstore\n      jump(tag_25)\n    tag_26:\n      dup3\n      0x1f\n      lt\n      tag_27\n      jumpi\n      dup1\n      mload\n      not(0xff)\n      and\n      dup4\n      dup1\n      add\n      or\n      dup6\n      sstore\n      jump(tag_25)\n    tag_27:\n      dup3\n      dup1\n      add\n      0x01\n      add\n      dup6\n      sstore\n      dup3\n      iszero\n      tag_25\n      jumpi\n      swap2\n      dup3\n      add\n    tag_28:\n      dup3\n      dup2\n      gt\n      iszero\n      tag_29\n      jumpi\n      dup3\n      mload\n      dup3\n      sstore\n      swap2\n      0x20\n      add\n      swap2\n      swap1\n      0x01\n      add\n      swap1\n      jump(tag_28)\n    tag_29:\n    tag_25:\n      pop\n      swap1\n      pop\n      tag_30\n      swap2\n      swap1\n      tag_31\n      jump\t// in\n    tag_30:\n      pop\n      swap1\n      jump\t// out\n    tag_22:\n      dup3\n      dup1\n      sload\n      dup3\n      dup3\n      sstore\n      swap1\n      0x00\n      mstore\n      keccak256(0x00, 0x20)\n      swap1\n      dup2\n      add\n      swap3\n      dup3\n      iszero\n      tag_32\n      jumpi\n      swap2\n      0x20\n      mul\n      dup3\n      add\n    tag_33:\n      dup3\n      dup2\n      gt\n      iszero\n      tag_34\n      jumpi\n      dup3\n      mload\n      dup3\n      swap1\n      dup1\n      mload\n      swap1\n      0x20\n      add\n      swap1\n      tag_35\n      swap3\n      swap2\n      swap1\n      tag_14\n      jump\t// in\n    tag_35:\n      pop\n      swap2\n      0x20\n      add\n      swap2\n      swap1\n      0x01\n      add\n      swap1\n      jump(tag_33)\n    tag_34:\n    tag_32:\n      pop\n      swap1\n      pop\n      tag_36\n      swap2\n      swap1\n      tag_37\n      jump\t// in\n    tag_36:\n      pop\n      swap1\n      jump\t// out\n    tag_31:\n    tag_38:\n      dup1\n      dup3\n      gt\n      iszero\n      tag_39\n      jumpi\n      0x00\n      dup2\n      0x00\n      swap1\n      sstore\n      pop\n      0x01\n      add\n      jump(tag_38)\n    tag_39:\n      pop\n      swap1\n      jump\t// out\n    tag_37:\n    tag_40:\n      dup1\n      dup3\n      gt\n      iszero\n      tag_41\n      jumpi\n      0x00\n      dup2\n      dup2\n      tag_42\n      swap2\n      swap1\n      tag_43\n      jump\t// in\n    tag_42:\n      pop\n      0x01\n      add\n      jump(tag_40)\n    tag_41:\n      pop\n      swap1\n      jump\t// out\n    tag_43:\n      pop\n      dup1\n      sload\n      tag_44\n      swap1\n      tag_24\n      jump\t// in\n    tag_44:\n      0x00\n      dup3\n      sstore\n      dup1\n      0x1f\n      lt\n      tag_46\n      jumpi\n      pop\n      jump(tag_45)\n    tag_46:\n      0x1f\n      add\n      0x20\n      swap1\n      div\n      swap1\n      0x00\n      mstore\n      keccak256(0x00, 0x20)\n      swap1\n      dup2\n      add\n      swap1\n      tag_47\n      swap2\n      swap1\n      tag_31\n      jump\t// in\n    tag_47:\n    tag_45:\n      pop\n      jump\t// out\n        /* \"#utility.yul\":7:419   */\n    tag_49:\n        /* \"#utility.yul\":85:90   */\n      0x00\n        /* \"#utility.yul\":110:176   */\n      tag_51\n        /* \"#utility.yul\":126:175   */\n      tag_52\n        /* \"#utility.yul\":168:174   */\n      dup5\n        /* \"#utility.yul\":126:175   */\n      tag_53\n      jump\t// in\n    tag_52:\n        /* \"#utility.yul\":110:176   */\n      tag_54\n      jump\t// in\n    tag_51:\n        /* \"#utility.yul\":101:176   */\n      swap1\n      pop\n        /* \"#utility.yul\":199:205   */\n      dup3\n        /* \"#utility.yul\":192:197   */\n      dup2\n        /* \"#utility.yul\":185:206   */\n      mstore\n        /* \"#utility.yul\":237:241   */\n      0x20\n        /* \"#utility.yul\":230:235   */\n      dup2\n        /* \"#utility.yul\":226:242   */\n      add\n        /* \"#utility.yul\":275:278   */\n      dup5\n        /* \"#utility.yul\":266:272   */\n      dup5\n        /* \"#utility.yul\":261:264   */\n      dup5\n        /* \"#utility.yul\":257:273   */\n      add\n        /* \"#utility.yul\":254:279   */\n      gt\n        /* \"#utility.yul\":251:363   */\n      iszero\n      tag_55\n      jumpi\n        /* \"#utility.yul\":282:361   */\n      tag_56\n      tag_57\n      jump\t// in\n    tag_56:\n        /* \"#utility.yul\":251:363   */\n    tag_55:\n        /* \"#utility.yul\":372:413   */\n      tag_58\n        /* \"#utility.yul\":406:412   */\n      dup5\n        /* \"#utility.yul\":401:404   */\n      dup3\n        /* \"#utility.yul\":396:399   */\n      dup6\n        /* \"#utility.yul\":372:413   */\n      tag_59\n      jump\t// in\n    tag_58:\n        /* \"#utility.yul\":91:419   */\n      pop\n        /* \"#utility.yul\":7:419   */\n      swap4\n      swap3\n      pop\n      pop\n      pop\n      jump\t// out\n        /* \"#utility.yul\":439:779   */\n    tag_60:\n        /* \"#utility.yul\":495:500   */\n      0x00\n        /* \"#utility.yul\":544:547   */\n      dup3\n        /* \"#utility.yul\":537:541   */\n      0x1f\n        /* \"#utility.yul\":529:535   */\n      dup4\n        /* \"#utility.yul\":525:542   */\n      add\n        /* \"#utility.yul\":521:548   */\n      slt\n        /* \"#utility.yul\":511:633   */\n      tag_62\n      jumpi\n        /* \"#utility.yul\":552:631   */\n      tag_63\n      tag_64\n      jump\t// in\n    tag_63:\n        /* \"#utility.yul\":511:633   */\n    tag_62:\n        /* \"#utility.yul\":669:675   */\n      dup2\n        /* \"#utility.yul\":656:676   */\n      calldataload\n        /* \"#utility.yul\":694:773   */\n      tag_65\n        /* \"#utility.yul\":769:772   */\n      dup5\n        /* \"#utility.yul\":761:767   */\n      dup3\n        /* \"#utility.yul\":754:758   */\n      0x20\n        /* \"#utility.yul\":746:752   */\n      dup7\n        /* \"#utility.yul\":742:759   */\n      add\n        /* \"#utility.yul\":694:773   */\n      tag_49\n      jump\t// in\n    tag_65:\n        /* \"#utility.yul\":685:773   */\n      swap2\n      pop\n        /* \"#utility.yul\":501:779   */\n      pop\n        /* \"#utility.yul\":439:779   */\n      swap3\n      swap2\n      pop\n      pop\n      jump\t// out\n        /* \"#utility.yul\":785:1294   */\n    tag_7:\n        /* \"#utility.yul\":854:860   */\n      0x00\n        /* \"#utility.yul\":903:905   */\n      0x20\n        /* \"#utility.yul\":891:900   */\n      dup3\n        /* \"#utility.yul\":882:889   */\n      dup5\n        /* \"#utility.yul\":878:901   */\n      sub\n        /* \"#utility.yul\":874:906   */\n      slt\n        /* \"#utility.yul\":871:990   */\n      iszero\n      tag_67\n      jumpi\n        /* \"#utility.yul\":909:988   */\n      tag_68\n      tag_69\n      jump\t// in\n    tag_68:\n        /* \"#utility.yul\":871:990   */\n    tag_67:\n        /* \"#utility.yul\":1057:1058   */\n      0x00\n        /* \"#utility.yul\":1046:1055   */\n      dup3\n        /* \"#utility.yul\":1042:1059   */\n      add\n        /* \"#utility.yul\":1029:1060   */\n      calldataload\n        /* \"#utility.yul\":1087:1105   */\n      0xffffffffffffffff\n        /* \"#utility.yul\":1079:1085   */\n      dup2\n        /* \"#utility.yul\":1076:1106   */\n      gt\n        /* \"#utility.yul\":1073:1190   */\n      iszero\n      tag_70\n      jumpi\n        /* \"#utility.yul\":1109:1188   */\n      tag_71\n      tag_72\n      jump\t// in\n    tag_71:\n        /* \"#utility.yul\":1073:1190   */\n    tag_70:\n        /* \"#utility.yul\":1214:1277   */\n      tag_73\n        /* \"#utility.yul\":1269:1276   */\n      dup5\n        /* \"#utility.yul\":1260:1266   */\n      dup3\n        /* \"#utility.yul\":1249:1258   */\n      dup6\n        /* \"#utility.yul\":1245:1267   */\n      add\n        /* \"#utility.yul\":1214:1277   */\n      tag_60\n      jump\t// in\n    tag_73:\n        /* \"#utility.yul\":1204:1277   */\n      swap2\n      pop\n        /* \"#utility.yul\":1000:1287   */\n      pop\n        /* \"#utility.yul\":785:1294   */\n      swap3\n      swap2\n      pop\n      pop\n      jump\t// out\n        /* \"#utility.yul\":1300:1429   */\n    tag_54:\n        /* \"#utility.yul\":1334:1340   */\n      0x00\n        /* \"#utility.yul\":1361:1381   */\n      tag_75\n      tag_76\n      jump\t// in\n    tag_75:\n        /* \"#utility.yul\":1351:1381   */\n      swap1\n      pop\n        /* \"#utility.yul\":1390:1423   */\n      tag_77\n        /* \"#utility.yul\":1418:1422   */\n      dup3\n        /* \"#utility.yul\":1410:1416   */\n      dup3\n        /* \"#utility.yul\":1390:1423   */\n      tag_78\n      jump\t// in\n    tag_77:\n        /* \"#utility.yul\":1300:1429   */\n      swap2\n      swap1\n      pop\n      jump\t// out\n        /* \"#utility.yul\":1435:1510   */\n    tag_76:\n        /* \"#utility.yul\":1468:1474   */\n      0x00\n        /* \"#utility.yul\":1501:1503   */\n      0x40\n        /* \"#utility.yul\":1495:1504   */\n      mload\n        /* \"#utility.yul\":1485:1504   */\n      swap1\n      pop\n        /* \"#utility.yul\":1435:1510   */\n      swap1\n      jump\t// out\n        /* \"#utility.yul\":1516:1824   */\n    tag_53:\n        /* \"#utility.yul\":1578:1582   */\n      0x00\n        /* \"#utility.yul\":1668:1686   */\n      0xffffffffffffffff\n        /* \"#utility.yul\":1660:1666   */\n      dup3\n        /* \"#utility.yul\":1657:1687   */\n      gt\n        /* \"#utility.yul\":1654:1710   */\n      iszero\n      tag_81\n      jumpi\n        /* \"#utility.yul\":1690:1708   */\n      tag_82\n      tag_18\n      jump\t// in\n    tag_82:\n        /* \"#utility.yul\":1654:1710   */\n    tag_81:\n        /* \"#utility.yul\":1728:1757   */\n      tag_83\n        /* \"#utility.yul\":1750:1756   */\n      dup3\n        /* \"#utility.yul\":1728:1757   */\n      tag_84\n      jump\t// in\n    tag_83:\n        /* \"#utility.yul\":1720:1757   */\n      swap1\n      pop\n        /* \"#utility.yul\":1812:1816   */\n      0x20\n        /* \"#utility.yul\":1806:1810   */\n      dup2\n        /* \"#utility.yul\":1802:1817   */\n      add\n        /* \"#utility.yul\":1794:1817   */\n      swap1\n      pop\n        /* \"#utility.yul\":1516:1824   */\n      swap2\n      swap1\n      pop\n      jump\t// out\n        /* \"#utility.yul\":1830:1984   */\n    tag_59:\n        /* \"#utility.yul\":1914:1920   */\n      dup3\n        /* \"#utility.yul\":1909:1912   */\n      dup2\n        /* \"#utility.yul\":1904:1907   */\n      dup4\n        /* \"#utility.yul\":1891:1921   */\n      calldatacopy\n        /* \"#utility.yul\":1976:1977   */\n      0x00\n        /* \"#utility.yul\":1967:1973   */\n      dup4\n        /* \"#utility.yul\":1962:1965   */\n      dup4\n        /* \"#utility.yul\":1958:1974   */\n      add\n        /* \"#utility.yul\":1951:1978   */\n      mstore\n        /* \"#utility.yul\":1830:1984   */\n      pop\n      pop\n      pop\n      jump\t// out\n        /* \"#utility.yul\":1990:2310   */\n    tag_24:\n        /* \"#utility.yul\":2034:2040   */\n      0x00\n        /* \"#utility.yul\":2071:2072   */\n      0x02\n        /* \"#utility.yul\":2065:2069   */\n      dup3\n        /* \"#utility.yul\":2061:2073   */\n      div\n        /* \"#utility.yul\":2051:2073   */\n      swap1\n      pop\n        /* \"#utility.yul\":2118:2119   */\n      0x01\n        /* \"#utility.yul\":2112:2116   */\n      dup3\n        /* \"#utility.yul\":2108:2120   */\n      and\n        /* \"#utility.yul\":2139:2157   */\n      dup1\n        /* \"#utility.yul\":2129:2210   */\n      tag_87\n      jumpi\n        /* \"#utility.yul\":2195:2199   */\n      0x7f\n        /* \"#utility.yul\":2187:2193   */\n      dup3\n        /* \"#utility.yul\":2183:2200   */\n      and\n        /* \"#utility.yul\":2173:2200   */\n      swap2\n      pop\n        /* \"#utility.yul\":2129:2210   */\n    tag_87:\n        /* \"#utility.yul\":2257:2259   */\n      0x20\n        /* \"#utility.yul\":2249:2255   */\n      dup3\n        /* \"#utility.yul\":2246:2260   */\n      lt\n        /* \"#utility.yul\":2226:2244   */\n      dup2\n        /* \"#utility.yul\":2223:2261   */\n      eq\n        /* \"#utility.yul\":2220:2304   */\n      iszero\n      tag_88\n      jumpi\n        /* \"#utility.yul\":2276:2294   */\n      tag_89\n      tag_90\n      jump\t// in\n    tag_89:\n        /* \"#utility.yul\":2220:2304   */\n    tag_88:\n        /* \"#utility.yul\":2041:2310   */\n      pop\n        /* \"#utility.yul\":1990:2310   */\n      swap2\n      swap1\n      pop\n      jump\t// out\n        /* \"#utility.yul\":2316:2597   */\n    tag_78:\n        /* \"#utility.yul\":2399:2426   */\n      tag_92\n        /* \"#utility.yul\":2421:2425   */\n      dup3\n        /* \"#utility.yul\":2399:2426   */\n      tag_84\n      jump\t// in\n    tag_92:\n        /* \"#utility.yul\":2391:2397   */\n      dup2\n        /* \"#utility.yul\":2387:2427   */\n      add\n        /* \"#utility.yul\":2529:2535   */\n      dup2\n        /* \"#utility.yul\":2517:2527   */\n      dup2\n        /* \"#utility.yul\":2514:2536   */\n      lt\n        /* \"#utility.yul\":2493:2511   */\n      0xffffffffffffffff\n        /* \"#utility.yul\":2481:2491   */\n      dup3\n        /* \"#utility.yul\":2478:2512   */\n      gt\n        /* \"#utility.yul\":2475:2537   */\n      or\n        /* \"#utility.yul\":2472:2560   */\n      iszero\n      tag_93\n      jumpi\n        /* \"#utility.yul\":2540:2558   */\n      tag_94\n      tag_18\n      jump\t// in\n    tag_94:\n        /* \"#utility.yul\":2472:2560   */\n    tag_93:\n        /* \"#utility.yul\":2580:2590   */\n      dup1\n        /* \"#utility.yul\":2576:2578   */\n      0x40\n        /* \"#utility.yul\":2569:2591   */\n      mstore\n        /* \"#utility.yul\":2359:2597   */\n      pop\n        /* \"#utility.yul\":2316:2597   */\n      pop\n      pop\n      jump\t// out\n        /* \"#utility.yul\":2603:2783   */\n    tag_90:\n        /* \"#utility.yul\":2651:2728   */\n      0x4e487b7100000000000000000000000000000000000000000000000000000000\n        /* \"#utility.yul\":2648:2649   */\n      0x00\n        /* \"#utility.yul\":2641:2729   */\n      mstore\n        /* \"#utility.yul\":2748:2752   */\n      0x22\n        /* \"#utility.yul\":2745:2746   */\n      0x04\n        /* \"#utility.yul\":2738:2753   */\n      mstore\n        /* \"#utility.yul\":2772:2776   */\n      0x24\n        /* \"#utility.yul\":2769:2770   */\n      0x00\n        /* \"#utility.yul\":2762:2777   */\n      revert\n        /* \"#utility.yul\":2789:2969   */\n    tag_18:\n        /* \"#utility.yul\":2837:2914   */\n      0x4e487b7100000000000000000000000000000000000000000000000000000000\n        /* \"#utility.yul\":2834:2835   */\n      0x00\n        /* \"#utility.yul\":2827:2915   */\n      mstore\n        /* \"#utility.yul\":2934:2938   */\n      0x41\n        /* \"#utility.yul\":2931:2932   */\n      0x04\n        /* \"#utility.yul\":2924:2939   */\n      mstore\n        /* \"#utility.yul\":2958:2962   */\n      0x24\n        /* \"#utility.yul\":2955:2956   */\n      0x00\n        /* \"#utility.yul\":2948:2963   */\n      revert\n        /* \"#utility.yul\":2975:3092   */\n    tag_64:\n        /* \"#utility.yul\":3084:3085   */\n      0x00\n        /* \"#utility.yul\":3081:3082   */\n      dup1\n        /* \"#utility.yul\":3074:3086   */\n      revert\n        /* \"#utility.yul\":3098:3215   */\n    tag_57:\n        /* \"#utility.yul\":3207:3208   */\n      0x00\n        /* \"#utility.yul\":3204:3205   */\n      dup1\n        /* \"#utility.yul\":3197:3209   */\n      revert\n        /* \"#utility.yul\":3221:3338   */\n    tag_72:\n        /* \"#utility.yul\":3330:3331   */\n      0x00\n        /* \"#utility.yul\":3327:3328   */\n      dup1\n        /* \"#utility.yul\":3320:3332   */\n      revert\n        /* \"#utility.yul\":3344:3461   */\n    tag_69:\n        /* \"#utility.yul\":3453:3454   */\n      0x00\n        /* \"#utility.yul\":3450:3451   */\n      dup1\n        /* \"#utility.yul\":3443:3455   */\n      revert\n        /* \"#utility.yul\":3467:3569   */\n    tag_84:\n        /* \"#utility.yul\":3508:3514   */\n      0x00\n        /* \"#utility.yul\":3559:3561   */\n      0x1f\n        /* \"#utility.yul\":3555:3562   */\n      not\n        /* \"#utility.yul\":3550:3552   */\n      0x1f\n        /* \"#utility.yul\":3543:3548   */\n      dup4\n        /* \"#utility.yul\":3539:3553   */\n      add\n        /* \"#utility.yul\":3535:3563   */\n      and\n        /* \"#utility.yul\":3525:3563   */\n      swap1\n      pop\n        /* \"#utility.yul\":3467:3569   */\n      swap2\n      swap1\n      pop\n      jump\t// out\n\n    auxdata: 0xa2646970667358221220f92a65b0b4ec13a69f66a033ef0883661168510cba56817da88eba56fec31a3764736f6c63430008070033\n}\n",
				"bytecode": {
					"linkReferences": {},
					"object": "608060405234801561001057600080fd5b506104a8806100206000396000f3fe608060405234801561001057600080fd5b50600436106100365760003560e01c806395ffebf51461003b578063cbed9e0714610057575b600080fd5b610055600480360381019061005091906102de565b610061565b005b61005f6100a0565b005b60008190806001815401808255809150506001900390600052602060002001600090919091909150908051906020019061009c929190610107565b5050565b600067ffffffffffffffff8111156100bb576100ba61041e565b5b6040519080825280602002602001820160405280156100ee57816020015b60608152602001906001900390816100d95790505b506000908051906020019061010492919061018d565b50565b8280546101139061038c565b90600052602060002090601f016020900481019282610135576000855561017c565b82601f1061014e57805160ff191683800117855561017c565b8280016001018555821561017c579182015b8281111561017b578251825591602001919060010190610160565b5b50905061018991906101ed565b5090565b8280548282559060005260206000209081019282156101dc579160200282015b828111156101db5782518290805190602001906101cb929190610107565b50916020019190600101906101ad565b5b5090506101e9919061020a565b5090565b5b808211156102065760008160009055506001016101ee565b5090565b5b8082111561022a5760008181610221919061022e565b5060010161020b565b5090565b50805461023a9061038c565b6000825580601f1061024c575061026b565b601f01602090049060005260206000209081019061026a91906101ed565b5b50565b600061028161027c8461034c565b610327565b90508281526020810184848401111561029d5761029c610452565b5b6102a884828561037d565b509392505050565b600082601f8301126102c5576102c461044d565b5b81356102d584826020860161026e565b91505092915050565b6000602082840312156102f4576102f361045c565b5b600082013567ffffffffffffffff81111561031257610311610457565b5b61031e848285016102b0565b91505092915050565b6000610331610342565b905061033d82826103be565b919050565b6000604051905090565b600067ffffffffffffffff8211156103675761036661041e565b5b61037082610461565b9050602081019050919050565b82818337600083830152505050565b600060028204905060018216806103a457607f821691505b602082108114156103b8576103b76103ef565b5b50919050565b6103c782610461565b810181811067ffffffffffffffff821117156103e6576103e561041e565b5b80604052505050565b7f4e487b7100000000000000000000000000000000000000000000000000000000600052602260045260246000fd5b7f4e487b7100000000000000000000000000000000000000000000000000000000600052604160045260246000fd5b600080fd5b600080fd5b600080fd5b600080fd5b6000601f19601f830116905091905056fea2646970667358221220f92a65b0b4ec13a69f66a033ef0883661168510cba56817da88eba56fec31a3764736f6c63430008070033",
					"opcodes": "PUSH1 0x80 PUSH1 0x40 MSTORE CALLVALUE DUP1 ISZERO PUSH2 0x10 JUMPI PUSH1 0x0 DUP1 REVERT JUMPDEST POP PUSH2 0x4A8 DUP1 PUSH2 0x20 PUSH1 0x0 CODECOPY PUSH1 0x0 RETURN INVALID PUSH1 0x80 PUSH1 0x40 MSTORE CALLVALUE DUP1 ISZERO PUSH2 0x10 JUMPI PUSH1 0x0 DUP1 REVERT JUMPDEST POP PUSH1 0x4 CALLDATASIZE LT PUSH2 0x36 JUMPI PUSH1 0x0 CALLDATALOAD PUSH1 0xE0 SHR DUP1 PUSH4 0x95FFEBF5 EQ PUSH2 0x3B JUMPI DUP1 PUSH4 0xCBED9E07 EQ PUSH2 0x57 JUMPI JUMPDEST PUSH1 0x0 DUP1 REVERT JUMPDEST PUSH2 0x55 PUSH1 0x4 DUP1 CALLDATASIZE SUB DUP2 ADD SWAP1 PUSH2 0x50 SWAP2 SWAP1 PUSH2 0x2DE JUMP JUMPDEST PUSH2 0x61 JUMP JUMPDEST STOP JUMPDEST PUSH2 0x5F PUSH2 0xA0 JUMP JUMPDEST STOP JUMPDEST PUSH1 0x0 DUP2 SWAP1 DUP1 PUSH1 0x1 DUP2 SLOAD ADD DUP1 DUP3 SSTORE DUP1 SWAP2 POP POP PUSH1 0x1 SWAP1 SUB SWAP1 PUSH1 0x0 MSTORE PUSH1 0x20 PUSH1 0x0 KECCAK256 ADD PUSH1 0x0 SWAP1 SWAP2 SWAP1 SWAP2 SWAP1 SWAP2 POP SWAP1 DUP1 MLOAD SWAP1 PUSH1 0x20 ADD SWAP1 PUSH2 0x9C SWAP3 SWAP2 SWAP1 PUSH2 0x107 JUMP JUMPDEST POP POP JUMP JUMPDEST PUSH1 0x0 PUSH8 0xFFFFFFFFFFFFFFFF DUP2 GT ISZERO PUSH2 0xBB JUMPI PUSH2 0xBA PUSH2 0x41E JUMP JUMPDEST JUMPDEST PUSH1 0x40 MLOAD SWAP1 DUP1 DUP3 MSTORE DUP1 PUSH1 0x20 MUL PUSH1 0x20 ADD DUP3 ADD PUSH1 0x40 MSTORE DUP1 ISZERO PUSH2 0xEE JUMPI DUP2 PUSH1 0x20 ADD JUMPDEST PUSH1 0x60 DUP2 MSTORE PUSH1 0x20 ADD SWAP1 PUSH1 0x1 SWAP1 SUB SWAP1 DUP2 PUSH2 0xD9 JUMPI SWAP1 POP JUMPDEST POP PUSH1 0x0 SWAP1 DUP1 MLOAD SWAP1 PUSH1 0x20 ADD SWAP1 PUSH2 0x104 SWAP3 SWAP2 SWAP1 PUSH2 0x18D JUMP JUMPDEST POP JUMP JUMPDEST DUP3 DUP1 SLOAD PUSH2 0x113 SWAP1 PUSH2 0x38C JUMP JUMPDEST SWAP1 PUSH1 0x0 MSTORE PUSH1 0x20 PUSH1 0x0 KECCAK256 SWAP1 PUSH1 0x1F ADD PUSH1 0x20 SWAP1 DIV DUP2 ADD SWAP3 DUP3 PUSH2 0x135 JUMPI PUSH1 0x0 DUP6 SSTORE PUSH2 0x17C JUMP JUMPDEST DUP3 PUSH1 0x1F LT PUSH2 0x14E JUMPI DUP1 MLOAD PUSH1 0xFF NOT AND DUP4 DUP1 ADD OR DUP6 SSTORE PUSH2 0x17C JUMP JUMPDEST DUP3 DUP1 ADD PUSH1 0x1 ADD DUP6 SSTORE DUP3 ISZERO PUSH2 0x17C JUMPI SWAP2 DUP3 ADD JUMPDEST DUP3 DUP2 GT ISZERO PUSH2 0x17B JUMPI DUP3 MLOAD DUP3 SSTORE SWAP2 PUSH1 0x20 ADD SWAP2 SWAP1 PUSH1 0x1 ADD SWAP1 PUSH2 0x160 JUMP JUMPDEST JUMPDEST POP SWAP1 POP PUSH2 0x189 SWAP2 SWAP1 PUSH2 0x1ED JUMP JUMPDEST POP SWAP1 JUMP JUMPDEST DUP3 DUP1 SLOAD DUP3 DUP3 SSTORE SWAP1 PUSH1 0x0 MSTORE PUSH1 0x20 PUSH1 0x0 KECCAK256 SWAP1 DUP2 ADD SWAP3 DUP3 ISZERO PUSH2 0x1DC JUMPI SWAP2 PUSH1 0x20 MUL DUP3 ADD JUMPDEST DUP3 DUP2 GT ISZERO PUSH2 0x1DB JUMPI DUP3 MLOAD DUP3 SWAP1 DUP1 MLOAD SWAP1 PUSH1 0x20 ADD SWAP1 PUSH2 0x1CB SWAP3 SWAP2 SWAP1 PUSH2 0x107 JUMP JUMPDEST POP SWAP2 PUSH1 0x20 ADD SWAP2 SWAP1 PUSH1 0x1 ADD SWAP1 PUSH2 0x1AD JUMP JUMPDEST JUMPDEST POP SWAP1 POP PUSH2 0x1E9 SWAP2 SWAP1 PUSH2 0x20A JUMP JUMPDEST POP SWAP1 JUMP JUMPDEST JUMPDEST DUP1 DUP3 GT ISZERO PUSH2 0x206 JUMPI PUSH1 0x0 DUP2 PUSH1 0x0 SWAP1 SSTORE POP PUSH1 0x1 ADD PUSH2 0x1EE JUMP JUMPDEST POP SWAP1 JUMP JUMPDEST JUMPDEST DUP1 DUP3 GT ISZERO PUSH2 0x22A JUMPI PUSH1 0x0 DUP2 DUP2 PUSH2 0x221 SWAP2 SWAP1 PUSH2 0x22E JUMP JUMPDEST POP PUSH1 0x1 ADD PUSH2 0x20B JUMP JUMPDEST POP SWAP1 JUMP JUMPDEST POP DUP1 SLOAD PUSH2 0x23A SWAP1 PUSH2 0x38C JUMP JUMPDEST PUSH1 0x0 DUP3 SSTORE DUP1 PUSH1 0x1F LT PUSH2 0x24C JUMPI POP PUSH2 0x26B JUMP JUMPDEST PUSH1 0x1F ADD PUSH1 0x20 SWAP1 DIV SWAP1 PUSH1 0x0 MSTORE PUSH1 0x20 PUSH1 0x0 KECCAK256 SWAP1 DUP2 ADD SWAP1 PUSH2 0x26A SWAP2 SWAP1 PUSH2 0x1ED JUMP JUMPDEST JUMPDEST POP JUMP JUMPDEST PUSH1 0x0 PUSH2 0x281 PUSH2 0x27C DUP5 PUSH2 0x34C JUMP JUMPDEST PUSH2 0x327 JUMP JUMPDEST SWAP1 POP DUP3 DUP2 MSTORE PUSH1 0x20 DUP2 ADD DUP5 DUP5 DUP5 ADD GT ISZERO PUSH2 0x29D JUMPI PUSH2 0x29C PUSH2 0x452 JUMP JUMPDEST JUMPDEST PUSH2 0x2A8 DUP5 DUP3 DUP6 PUSH2 0x37D JUMP JUMPDEST POP SWAP4 SWAP3 POP POP POP JUMP JUMPDEST PUSH1 0x0 DUP3 PUSH1 0x1F DUP4 ADD SLT PUSH2 0x2C5 JUMPI PUSH2 0x2C4 PUSH2 0x44D JUMP JUMPDEST JUMPDEST DUP2 CALLDATALOAD PUSH2 0x2D5 DUP5 DUP3 PUSH1 0x20 DUP7 ADD PUSH2 0x26E JUMP JUMPDEST SWAP2 POP POP SWAP3 SWAP2 POP POP JUMP JUMPDEST PUSH1 0x0 PUSH1 0x20 DUP3 DUP5 SUB SLT ISZERO PUSH2 0x2F4 JUMPI PUSH2 0x2F3 PUSH2 0x45C JUMP JUMPDEST JUMPDEST PUSH1 0x0 DUP3 ADD CALLDATALOAD PUSH8 0xFFFFFFFFFFFFFFFF DUP2 GT ISZERO PUSH2 0x312 JUMPI PUSH2 0x311 PUSH2 0x457 JUMP JUMPDEST JUMPDEST PUSH2 0x31E DUP5 DUP3 DUP6 ADD PUSH2 0x2B0 JUMP JUMPDEST SWAP2 POP POP SWAP3 SWAP2 POP POP JUMP JUMPDEST PUSH1 0x0 PUSH2 0x331 PUSH2 0x342 JUMP JUMPDEST SWAP1 POP PUSH2 0x33D DUP3 DUP3 PUSH2 0x3BE JUMP JUMPDEST SWAP2 SWAP1 POP JUMP JUMPDEST PUSH1 0x0 PUSH1 0x40 MLOAD SWAP1 POP SWAP1 JUMP JUMPDEST PUSH1 0x0 PUSH8 0xFFFFFFFFFFFFFFFF DUP3 GT ISZERO PUSH2 0x367 JUMPI PUSH2 0x366 PUSH2 0x41E JUMP JUMPDEST JUMPDEST PUSH2 0x370 DUP3 PUSH2 0x461 JUMP JUMPDEST SWAP1 POP PUSH1 0x20 DUP2 ADD SWAP1 POP SWAP2 SWAP1 POP JUMP JUMPDEST DUP3 DUP2 DUP4 CALLDATACOPY PUSH1 0x0 DUP4 DUP4 ADD MSTORE POP POP POP JUMP JUMPDEST PUSH1 0x0 PUSH1 0x2 DUP3 DIV SWAP1 POP PUSH1 0x1 DUP3 AND DUP1 PUSH2 0x3A4 JUMPI PUSH1 0x7F DUP3 AND SWAP2 POP JUMPDEST PUSH1 0x20 DUP3 LT DUP2 EQ ISZERO PUSH2 0x3B8 JUMPI PUSH2 0x3B7 PUSH2 0x3EF JUMP JUMPDEST JUMPDEST POP SWAP2 SWAP1 POP JUMP JUMPDEST PUSH2 0x3C7 DUP3 PUSH2 0x461 JUMP JUMPDEST DUP2 ADD DUP2 DUP2 LT PUSH8 0xFFFFFFFFFFFFFFFF DUP3 GT OR ISZERO PUSH2 0x3E6 JUMPI PUSH2 0x3E5 PUSH2 0x41E JUMP JUMPDEST JUMPDEST DUP1 PUSH1 0x40 MSTORE POP POP POP JUMP JUMPDEST PUSH32 0x4E487B7100000000000000000000000000000000000000000000000000000000 PUSH1 0x0 MSTORE PUSH1 0x22 PUSH1 0x4 MSTORE PUSH1 0x24 PUSH1 0x0 REVERT JUMPDEST PUSH32 0x4E487B7100000000000000000000000000000000000000000000000000000000 PUSH1 0x0 MSTORE PUSH1 0x41 PUSH1 0x4 MSTORE PUSH1 0x24 PUSH1 0x0 REVERT JUMPDEST PUSH1 0x0 DUP1 REVERT JUMPDEST PUSH1 0x0 DUP1 REVERT JUMPDEST PUSH1 0x0 DUP1 REVERT JUMPDEST PUSH1 0x0 DUP1 REVERT JUMPDEST PUSH1 0x0 PUSH1 0x1F NOT PUSH1 0x1F DUP4 ADD AND SWAP1 POP SWAP2 SWAP1 POP JUMP INVALID LOG2 PUSH5 0x6970667358 0x22 SLT KECCAK256 0xF9 0x2A PUSH6 0xB0B4EC13A69F PUSH7 0xA033EF08836611 PUSH9 0x510CBA56817DA88EBA JUMP INVALID 0xC3 BYTE CALLDATACOPY PUSH5 0x736F6C6343 STOP ADDMOD SMOD STOP CALLER "
				},
				"gasEstimates": {
					"creation": {
						"codeDepositCost": "238400",
						"executionCost": "281",
						"totalCost": "238681"
					},
					"external": {
						"addTodo(string)": "infinite",
						"resetTodo()": "infinite"
					}
				},
				"methodIdentifiers": {
					"addTodo(string)": "95ffebf5",
					"resetTodo()": "cbed9e07"
				}
			},
			"storageLayout": {
				"storage": [
					{
						"astId": 4,
						"contract": "Todo.sol:Todo",
						"label": "todos",
						"offset": 0,
						"slot": "0",
						"type": "t_array(t_string_storage)dyn_storage"
					}
				],
				"types": {
					"t_array(t_string_storage)dyn_storage": {
						"base": "t_string_storage",
						"encoding": "dynamic_array",
						"label": "string[]",
						"numberOfBytes": "32"
					},
					"t_string_storage": {
						"encoding": "bytes",
						"label": "string",
						"numberOfBytes": "32"
					}
				}
			},
			"userdoc": {
				"kind": "user",
				"methods": {},
				"version": 1
			}
		}
	}
}