{
	"Todo.sol": {
		"Todo": {
			"abi": [
				{
					"inputs": [
						{
							"internalType": "string",
							"name": "todo",
							"type": "string"
						}
					],
					"name": "addTodo",
					"outputs": [],
					"stateMutability": "nonpayable",
					"type": "function"
				},
				{
					"inputs": [],
					"name": "resetTodo",
					"outputs": [],
					"stateMutability": "nonpayable",
					"type": "function"
				},
				{
					"inputs": [
						{
							"internalType": "uint256",
							"name": "",
							"type": "uint256"
						}
					],
					"name": "todos",
					"outputs": [
						{
							"internalType": "string",
							"name": "",
							"type": "string"
						}
					],
					"stateMutability": "view",
					"type": "function"
				}
			],
			"devdoc": {
				"kind": "dev",
				"methods": {},
				"version": 1
			},
			"evm": {
				"assembly": "    /* \"Todo.sol\":66:275  contract Todo{\r... */\n  mstore(0x40, 0x80)\n  callvalue\n  dup1\n  iszero\n  tag_1\n  jumpi\n  0x00\n  dup1\n  revert\ntag_1:\n  pop\n  dataSize(sub_0)\n  dup1\n  dataOffset(sub_0)\n  0x00\n  codecopy\n  0x00\n  return\nstop\n\nsub_0: assembly {\n        /* \"Todo.sol\":66:275  contract Todo{\r... */\n      mstore(0x40, 0x80)\n      callvalue\n      dup1\n      iszero\n      tag_1\n      jumpi\n      0x00\n      dup1\n      revert\n    tag_1:\n      pop\n      jumpi(tag_2, lt(calldatasize, 0x04))\n      shr(0xe0, calldataload(0x00))\n      dup1\n      0x95ffebf5\n      eq\n      tag_3\n      jumpi\n      dup1\n      0xbc8bc2b4\n      eq\n      tag_4\n      jumpi\n      dup1\n      0xcbed9e07\n      eq\n      tag_5\n      jumpi\n    tag_2:\n      0x00\n      dup1\n      revert\n        /* \"Todo.sol\":116:195  function addTodo(string memory todo) public {\r... */\n    tag_3:\n      tag_6\n      0x04\n      dup1\n      calldatasize\n      sub\n      dup2\n      add\n      swap1\n      tag_7\n      swap2\n      swap1\n      tag_8\n      jump\t// in\n    tag_7:\n      tag_9\n      jump\t// in\n    tag_6:\n      stop\n        /* \"Todo.sol\":86:107  string[] public todos */\n    tag_4:\n      tag_10\n      0x04\n      dup1\n      calldatasize\n      sub\n      dup2\n      add\n      swap1\n      tag_11\n      swap2\n      swap1\n      tag_12\n      jump\t// in\n    tag_11:\n      tag_13\n      jump\t// in\n    tag_10:\n      mload(0x40)\n      tag_14\n      swap2\n      swap1\n      tag_15\n      jump\t// in\n    tag_14:\n      mload(0x40)\n      dup1\n      swap2\n      sub\n      swap1\n      return\n        /* \"Todo.sol\":203:272  function resetTodo() public{\r... */\n    tag_5:\n      tag_16\n      tag_17\n      jump\t// in\n    tag_16:\n      stop\n        /* \"Todo.sol\":116:195  function addTodo(string memory todo) public {\r... */\n    tag_9:\n        /* \"Todo.sol\":171:176  todos */\n      0x00\n        /* \"Todo.sol\":182:186  todo */\n      dup2\n        /* \"Todo.sol\":171:187  todos.push(todo) */\n      swap1\n      dup1\n      0x01\n      dup2\n      sload\n      add\n      dup1\n      dup3\n      sstore\n      dup1\n      swap2\n      pop\n      pop\n      0x01\n      swap1\n      sub\n      swap1\n      0x00\n      mstore\n      keccak256(0x00, 0x20)\n      add\n      0x00\n      swap1\n      swap2\n      swap1\n      swap2\n      swap1\n      swap2\n      pop\n      swap1\n      dup1\n      mload\n      swap1\n      0x20\n      add\n      swap1\n      tag_20\n      swap3\n      swap2\n      swap1\n      tag_21\n      jump\t// in\n    tag_20:\n      pop\n        /* \"Todo.sol\":116:195  function addTodo(string memory todo) public {\r... */\n      pop\n      jump\t// out\n        /* \"Todo.sol\":86:107  string[] public todos */\n    tag_13:\n      0x00\n      dup2\n      dup2\n      sload\n      dup2\n      lt\n      tag_22\n      jumpi\n      0x00\n      dup1\n      revert\n    tag_22:\n      swap1\n      0x00\n      mstore\n      keccak256(0x00, 0x20)\n      add\n      0x00\n      swap2\n      pop\n      swap1\n      pop\n      dup1\n      sload\n      tag_24\n      swap1\n      tag_25\n      jump\t// in\n    tag_24:\n      dup1\n      0x1f\n      add\n      0x20\n      dup1\n      swap2\n      div\n      mul\n      0x20\n      add\n      mload(0x40)\n      swap1\n      dup2\n      add\n      0x40\n      mstore\n      dup1\n      swap3\n      swap2\n      swap1\n      dup2\n      dup2\n      mstore\n      0x20\n      add\n      dup3\n      dup1\n      sload\n      tag_26\n      swap1\n      tag_25\n      jump\t// in\n    tag_26:\n      dup1\n      iszero\n      tag_27\n      jumpi\n      dup1\n      0x1f\n      lt\n      tag_28\n      jumpi\n      0x0100\n      dup1\n      dup4\n      sload\n      div\n      mul\n      dup4\n      mstore\n      swap2\n      0x20\n      add\n      swap2\n      jump(tag_27)\n    tag_28:\n      dup3\n      add\n      swap2\n      swap1\n      0x00\n      mstore\n      keccak256(0x00, 0x20)\n      swap1\n    tag_29:\n      dup2\n      sload\n      dup2\n      mstore\n      swap1\n      0x01\n      add\n      swap1\n      0x20\n      add\n      dup1\n      dup4\n      gt\n      tag_29\n      jumpi\n      dup3\n      swap1\n      sub\n      0x1f\n      and\n      dup3\n      add\n      swap2\n    tag_27:\n      pop\n      pop\n      pop\n      pop\n      pop\n      dup2\n      jump\t// out\n        /* \"Todo.sol\":203:272  function resetTodo() public{\r... */\n    tag_17:\n        /* \"Todo.sol\":262:263  0 */\n      0x00\n        /* \"Todo.sol\":249:264  new string[](0) */\n      0xffffffffffffffff\n      dup2\n      gt\n      iszero\n      tag_31\n      jumpi\n      tag_32\n      tag_33\n      jump\t// in\n    tag_32:\n    tag_31:\n      mload(0x40)\n      swap1\n      dup1\n      dup3\n      mstore\n      dup1\n      0x20\n      mul\n      0x20\n      add\n      dup3\n      add\n      0x40\n      mstore\n      dup1\n      iszero\n      tag_34\n      jumpi\n      dup2\n      0x20\n      add\n    tag_35:\n      0x60\n      dup2\n      mstore\n      0x20\n      add\n      swap1\n      0x01\n      swap1\n      sub\n      swap1\n      dup2\n      tag_35\n      jumpi\n      swap1\n      pop\n    tag_34:\n      pop\n        /* \"Todo.sol\":241:246  todos */\n      0x00\n        /* \"Todo.sol\":241:264  todos = new string[](0) */\n      swap1\n      dup1\n      mload\n      swap1\n      0x20\n      add\n      swap1\n      tag_36\n      swap3\n      swap2\n      swap1\n      tag_37\n      jump\t// in\n    tag_36:\n      pop\n        /* \"Todo.sol\":203:272  function resetTodo() public{\r... */\n      jump\t// out\n    tag_21:\n      dup3\n      dup1\n      sload\n      tag_38\n      swap1\n      tag_25\n      jump\t// in\n    tag_38:\n      swap1\n      0x00\n      mstore\n      keccak256(0x00, 0x20)\n      swap1\n      0x1f\n      add\n      0x20\n      swap1\n      div\n      dup2\n      add\n      swap3\n      dup3\n      tag_40\n      jumpi\n      0x00\n      dup6\n      sstore\n      jump(tag_39)\n    tag_40:\n      dup3\n      0x1f\n      lt\n      tag_41\n      jumpi\n      dup1\n      mload\n      not(0xff)\n      and\n      dup4\n      dup1\n      add\n      or\n      dup6\n      sstore\n      jump(tag_39)\n    tag_41:\n      dup3\n      dup1\n      add\n      0x01\n      add\n      dup6\n      sstore\n      dup3\n      iszero\n      tag_39\n      jumpi\n      swap2\n      dup3\n      add\n    tag_42:\n      dup3\n      dup2\n      gt\n      iszero\n      tag_43\n      jumpi\n      dup3\n      mload\n      dup3\n      sstore\n      swap2\n      0x20\n      add\n      swap2\n      swap1\n      0x01\n      add\n      swap1\n      jump(tag_42)\n    tag_43:\n    tag_39:\n      pop\n      swap1\n      pop\n      tag_44\n      swap2\n      swap1\n      tag_45\n      jump\t// in\n    tag_44:\n      pop\n      swap1\n      jump\t// out\n    tag_37:\n      dup3\n      dup1\n      sload\n      dup3\n      dup3\n      sstore\n      swap1\n      0x00\n      mstore\n      keccak256(0x00, 0x20)\n      swap1\n      dup2\n      add\n      swap3\n      dup3\n      iszero\n      tag_46\n      jumpi\n      swap2\n      0x20\n      mul\n      dup3\n      add\n    tag_47:\n      dup3\n      dup2\n      gt\n      iszero\n      tag_48\n      jumpi\n      dup3\n      mload\n      dup3\n      swap1\n      dup1\n      mload\n      swap1\n      0x20\n      add\n      swap1\n      tag_49\n      swap3\n      swap2\n      swap1\n      tag_21\n      jump\t// in\n    tag_49:\n      pop\n      swap2\n      0x20\n      add\n      swap2\n      swap1\n      0x01\n      add\n      swap1\n      jump(tag_47)\n    tag_48:\n    tag_46:\n      pop\n      swap1\n      pop\n      tag_50\n      swap2\n      swap1\n      tag_51\n      jump\t// in\n    tag_50:\n      pop\n      swap1\n      jump\t// out\n    tag_45:\n    tag_52:\n      dup1\n      dup3\n      gt\n      iszero\n      tag_53\n      jumpi\n      0x00\n      dup2\n      0x00\n      swap1\n      sstore\n      pop\n      0x01\n      add\n      jump(tag_52)\n    tag_53:\n      pop\n      swap1\n      jump\t// out\n    tag_51:\n    tag_54:\n      dup1\n      dup3\n      gt\n      iszero\n      tag_55\n      jumpi\n      0x00\n      dup2\n      dup2\n      tag_56\n      swap2\n      swap1\n      tag_57\n      jump\t// in\n    tag_56:\n      pop\n      0x01\n      add\n      jump(tag_54)\n    tag_55:\n      pop\n      swap1\n      jump\t// out\n    tag_57:\n      pop\n      dup1\n      sload\n      tag_58\n      swap1\n      tag_25\n      jump\t// in\n    tag_58:\n      0x00\n      dup3\n      sstore\n      dup1\n      0x1f\n      lt\n      tag_60\n      jumpi\n      pop\n      jump(tag_59)\n    tag_60:\n      0x1f\n      add\n      0x20\n      swap1\n      div\n      swap1\n      0x00\n      mstore\n      keccak256(0x00, 0x20)\n      swap1\n      dup2\n      add\n      swap1\n      tag_61\n      swap2\n      swap1\n      tag_45\n      jump\t// in\n    tag_61:\n    tag_59:\n      pop\n      jump\t// out\n        /* \"#utility.yul\":7:419   */\n    tag_63:\n        /* \"#utility.yul\":85:90   */\n      0x00\n        /* \"#utility.yul\":110:176   */\n      tag_65\n        /* \"#utility.yul\":126:175   */\n      tag_66\n        /* \"#utility.yul\":168:174   */\n      dup5\n        /* \"#utility.yul\":126:175   */\n      tag_67\n      jump\t// in\n    tag_66:\n        /* \"#utility.yul\":110:176   */\n      tag_68\n      jump\t// in\n    tag_65:\n        /* \"#utility.yul\":101:176   */\n      swap1\n      pop\n        /* \"#utility.yul\":199:205   */\n      dup3\n        /* \"#utility.yul\":192:197   */\n      dup2\n        /* \"#utility.yul\":185:206   */\n      mstore\n        /* \"#utility.yul\":237:241   */\n      0x20\n        /* \"#utility.yul\":230:235   */\n      dup2\n        /* \"#utility.yul\":226:242   */\n      add\n        /* \"#utility.yul\":275:278   */\n      dup5\n        /* \"#utility.yul\":266:272   */\n      dup5\n        /* \"#utility.yul\":261:264   */\n      dup5\n        /* \"#utility.yul\":257:273   */\n      add\n        /* \"#utility.yul\":254:279   */\n      gt\n        /* \"#utility.yul\":251:363   */\n      iszero\n      tag_69\n      jumpi\n        /* \"#utility.yul\":282:361   */\n      tag_70\n      tag_71\n      jump\t// in\n    tag_70:\n        /* \"#utility.yul\":251:363   */\n    tag_69:\n        /* \"#utility.yul\":372:413   */\n      tag_72\n        /* \"#utility.yul\":406:412   */\n      dup5\n        /* \"#utility.yul\":401:404   */\n      dup3\n        /* \"#utility.yul\":396:399   */\n      dup6\n        /* \"#utility.yul\":372:413   */\n      tag_73\n      jump\t// in\n    tag_72:\n        /* \"#utility.yul\":91:419   */\n      pop\n        /* \"#utility.yul\":7:419   */\n      swap4\n      swap3\n      pop\n      pop\n      pop\n      jump\t// out\n        /* \"#utility.yul\":439:779   */\n    tag_74:\n        /* \"#utility.yul\":495:500   */\n      0x00\n        /* \"#utility.yul\":544:547   */\n      dup3\n        /* \"#utility.yul\":537:541   */\n      0x1f\n        /* \"#utility.yul\":529:535   */\n      dup4\n        /* \"#utility.yul\":525:542   */\n      add\n        /* \"#utility.yul\":521:548   */\n      slt\n        /* \"#utility.yul\":511:633   */\n      tag_76\n      jumpi\n        /* \"#utility.yul\":552:631   */\n      tag_77\n      tag_78\n      jump\t// in\n    tag_77:\n        /* \"#utility.yul\":511:633   */\n    tag_76:\n        /* \"#utility.yul\":669:675   */\n      dup2\n        /* \"#utility.yul\":656:676   */\n      calldataload\n        /* \"#utility.yul\":694:773   */\n      tag_79\n        /* \"#utility.yul\":769:772   */\n      dup5\n        /* \"#utility.yul\":761:767   */\n      dup3\n        /* \"#utility.yul\":754:758   */\n      0x20\n        /* \"#utility.yul\":746:752   */\n      dup7\n        /* \"#utility.yul\":742:759   */\n      add\n        /* \"#utility.yul\":694:773   */\n      tag_63\n      jump\t// in\n    tag_79:\n        /* \"#utility.yul\":685:773   */\n      swap2\n      pop\n        /* \"#utility.yul\":501:779   */\n      pop\n        /* \"#utility.yul\":439:779   */\n      swap3\n      swap2\n      pop\n      pop\n      jump\t// out\n        /* \"#utility.yul\":785:924   */\n    tag_80:\n        /* \"#utility.yul\":831:836   */\n      0x00\n        /* \"#utility.yul\":869:875   */\n      dup2\n        /* \"#utility.yul\":856:876   */\n      calldataload\n        /* \"#utility.yul\":847:876   */\n      swap1\n      pop\n        /* \"#utility.yul\":885:918   */\n      tag_82\n        /* \"#utility.yul\":912:917   */\n      dup2\n        /* \"#utility.yul\":885:918   */\n      tag_83\n      jump\t// in\n    tag_82:\n        /* \"#utility.yul\":785:924   */\n      swap3\n      swap2\n      pop\n      pop\n      jump\t// out\n        /* \"#utility.yul\":930:1439   */\n    tag_8:\n        /* \"#utility.yul\":999:1005   */\n      0x00\n        /* \"#utility.yul\":1048:1050   */\n      0x20\n        /* \"#utility.yul\":1036:1045   */\n      dup3\n        /* \"#utility.yul\":1027:1034   */\n      dup5\n        /* \"#utility.yul\":1023:1046   */\n      sub\n        /* \"#utility.yul\":1019:1051   */\n      slt\n        /* \"#utility.yul\":1016:1135   */\n      iszero\n      tag_85\n      jumpi\n        /* \"#utility.yul\":1054:1133   */\n      tag_86\n      tag_87\n      jump\t// in\n    tag_86:\n        /* \"#utility.yul\":1016:1135   */\n    tag_85:\n        /* \"#utility.yul\":1202:1203   */\n      0x00\n        /* \"#utility.yul\":1191:1200   */\n      dup3\n        /* \"#utility.yul\":1187:1204   */\n      add\n        /* \"#utility.yul\":1174:1205   */\n      calldataload\n        /* \"#utility.yul\":1232:1250   */\n      0xffffffffffffffff\n        /* \"#utility.yul\":1224:1230   */\n      dup2\n        /* \"#utility.yul\":1221:1251   */\n      gt\n        /* \"#utility.yul\":1218:1335   */\n      iszero\n      tag_88\n      jumpi\n        /* \"#utility.yul\":1254:1333   */\n      tag_89\n      tag_90\n      jump\t// in\n    tag_89:\n        /* \"#utility.yul\":1218:1335   */\n    tag_88:\n        /* \"#utility.yul\":1359:1422   */\n      tag_91\n        /* \"#utility.yul\":1414:1421   */\n      dup5\n        /* \"#utility.yul\":1405:1411   */\n      dup3\n        /* \"#utility.yul\":1394:1403   */\n      dup6\n        /* \"#utility.yul\":1390:1412   */\n      add\n        /* \"#utility.yul\":1359:1422   */\n      tag_74\n      jump\t// in\n    tag_91:\n        /* \"#utility.yul\":1349:1422   */\n      swap2\n      pop\n        /* \"#utility.yul\":1145:1432   */\n      pop\n        /* \"#utility.yul\":930:1439   */\n      swap3\n      swap2\n      pop\n      pop\n      jump\t// out\n        /* \"#utility.yul\":1445:1774   */\n    tag_12:\n        /* \"#utility.yul\":1504:1510   */\n      0x00\n        /* \"#utility.yul\":1553:1555   */\n      0x20\n        /* \"#utility.yul\":1541:1550   */\n      dup3\n        /* \"#utility.yul\":1532:1539   */\n      dup5\n        /* \"#utility.yul\":1528:1551   */\n      sub\n        /* \"#utility.yul\":1524:1556   */\n      slt\n        /* \"#utility.yul\":1521:1640   */\n      iszero\n      tag_93\n      jumpi\n        /* \"#utility.yul\":1559:1638   */\n      tag_94\n      tag_87\n      jump\t// in\n    tag_94:\n        /* \"#utility.yul\":1521:1640   */\n    tag_93:\n        /* \"#utility.yul\":1679:1680   */\n      0x00\n        /* \"#utility.yul\":1704:1757   */\n      tag_95\n        /* \"#utility.yul\":1749:1756   */\n      dup5\n        /* \"#utility.yul\":1740:1746   */\n      dup3\n        /* \"#utility.yul\":1729:1738   */\n      dup6\n        /* \"#utility.yul\":1725:1747   */\n      add\n        /* \"#utility.yul\":1704:1757   */\n      tag_80\n      jump\t// in\n    tag_95:\n        /* \"#utility.yul\":1694:1757   */\n      swap2\n      pop\n        /* \"#utility.yul\":1650:1767   */\n      pop\n        /* \"#utility.yul\":1445:1774   */\n      swap3\n      swap2\n      pop\n      pop\n      jump\t// out\n        /* \"#utility.yul\":1780:2144   */\n    tag_96:\n        /* \"#utility.yul\":1868:1871   */\n      0x00\n        /* \"#utility.yul\":1896:1935   */\n      tag_98\n        /* \"#utility.yul\":1929:1934   */\n      dup3\n        /* \"#utility.yul\":1896:1935   */\n      tag_99\n      jump\t// in\n    tag_98:\n        /* \"#utility.yul\":1951:2022   */\n      tag_100\n        /* \"#utility.yul\":2015:2021   */\n      dup2\n        /* \"#utility.yul\":2010:2013   */\n      dup6\n        /* \"#utility.yul\":1951:2022   */\n      tag_101\n      jump\t// in\n    tag_100:\n        /* \"#utility.yul\":1944:2022   */\n      swap4\n      pop\n        /* \"#utility.yul\":2031:2083   */\n      tag_102\n        /* \"#utility.yul\":2076:2082   */\n      dup2\n        /* \"#utility.yul\":2071:2074   */\n      dup6\n        /* \"#utility.yul\":2064:2068   */\n      0x20\n        /* \"#utility.yul\":2057:2062   */\n      dup7\n        /* \"#utility.yul\":2053:2069   */\n      add\n        /* \"#utility.yul\":2031:2083   */\n      tag_103\n      jump\t// in\n    tag_102:\n        /* \"#utility.yul\":2108:2137   */\n      tag_104\n        /* \"#utility.yul\":2130:2136   */\n      dup2\n        /* \"#utility.yul\":2108:2137   */\n      tag_105\n      jump\t// in\n    tag_104:\n        /* \"#utility.yul\":2103:2106   */\n      dup5\n        /* \"#utility.yul\":2099:2138   */\n      add\n        /* \"#utility.yul\":2092:2138   */\n      swap2\n      pop\n        /* \"#utility.yul\":1872:2144   */\n      pop\n        /* \"#utility.yul\":1780:2144   */\n      swap3\n      swap2\n      pop\n      pop\n      jump\t// out\n        /* \"#utility.yul\":2150:2463   */\n    tag_15:\n        /* \"#utility.yul\":2263:2267   */\n      0x00\n        /* \"#utility.yul\":2301:2303   */\n      0x20\n        /* \"#utility.yul\":2290:2299   */\n      dup3\n        /* \"#utility.yul\":2286:2304   */\n      add\n        /* \"#utility.yul\":2278:2304   */\n      swap1\n      pop\n        /* \"#utility.yul\":2350:2359   */\n      dup2\n        /* \"#utility.yul\":2344:2348   */\n      dup2\n        /* \"#utility.yul\":2340:2360   */\n      sub\n        /* \"#utility.yul\":2336:2337   */\n      0x00\n        /* \"#utility.yul\":2325:2334   */\n      dup4\n        /* \"#utility.yul\":2321:2338   */\n      add\n        /* \"#utility.yul\":2314:2361   */\n      mstore\n        /* \"#utility.yul\":2378:2456   */\n      tag_107\n        /* \"#utility.yul\":2451:2455   */\n      dup2\n        /* \"#utility.yul\":2442:2448   */\n      dup5\n        /* \"#utility.yul\":2378:2456   */\n      tag_96\n      jump\t// in\n    tag_107:\n        /* \"#utility.yul\":2370:2456   */\n      swap1\n      pop\n        /* \"#utility.yul\":2150:2463   */\n      swap3\n      swap2\n      pop\n      pop\n      jump\t// out\n        /* \"#utility.yul\":2469:2598   */\n    tag_68:\n        /* \"#utility.yul\":2503:2509   */\n      0x00\n        /* \"#utility.yul\":2530:2550   */\n      tag_109\n      tag_110\n      jump\t// in\n    tag_109:\n        /* \"#utility.yul\":2520:2550   */\n      swap1\n      pop\n        /* \"#utility.yul\":2559:2592   */\n      tag_111\n        /* \"#utility.yul\":2587:2591   */\n      dup3\n        /* \"#utility.yul\":2579:2585   */\n      dup3\n        /* \"#utility.yul\":2559:2592   */\n      tag_112\n      jump\t// in\n    tag_111:\n        /* \"#utility.yul\":2469:2598   */\n      swap2\n      swap1\n      pop\n      jump\t// out\n        /* \"#utility.yul\":2604:2679   */\n    tag_110:\n        /* \"#utility.yul\":2637:2643   */\n      0x00\n        /* \"#utility.yul\":2670:2672   */\n      0x40\n        /* \"#utility.yul\":2664:2673   */\n      mload\n        /* \"#utility.yul\":2654:2673   */\n      swap1\n      pop\n        /* \"#utility.yul\":2604:2679   */\n      swap1\n      jump\t// out\n        /* \"#utility.yul\":2685:2993   */\n    tag_67:\n        /* \"#utility.yul\":2747:2751   */\n      0x00\n        /* \"#utility.yul\":2837:2855   */\n      0xffffffffffffffff\n        /* \"#utility.yul\":2829:2835   */\n      dup3\n        /* \"#utility.yul\":2826:2856   */\n      gt\n        /* \"#utility.yul\":2823:2879   */\n      iszero\n      tag_115\n      jumpi\n        /* \"#utility.yul\":2859:2877   */\n      tag_116\n      tag_33\n      jump\t// in\n    tag_116:\n        /* \"#utility.yul\":2823:2879   */\n    tag_115:\n        /* \"#utility.yul\":2897:2926   */\n      tag_117\n        /* \"#utility.yul\":2919:2925   */\n      dup3\n        /* \"#utility.yul\":2897:2926   */\n      tag_105\n      jump\t// in\n    tag_117:\n        /* \"#utility.yul\":2889:2926   */\n      swap1\n      pop\n        /* \"#utility.yul\":2981:2985   */\n      0x20\n        /* \"#utility.yul\":2975:2979   */\n      dup2\n        /* \"#utility.yul\":2971:2986   */\n      add\n        /* \"#utility.yul\":2963:2986   */\n      swap1\n      pop\n        /* \"#utility.yul\":2685:2993   */\n      swap2\n      swap1\n      pop\n      jump\t// out\n        /* \"#utility.yul\":2999:3098   */\n    tag_99:\n        /* \"#utility.yul\":3051:3057   */\n      0x00\n        /* \"#utility.yul\":3085:3090   */\n      dup2\n        /* \"#utility.yul\":3079:3091   */\n      mload\n        /* \"#utility.yul\":3069:3091   */\n      swap1\n      pop\n        /* \"#utility.yul\":2999:3098   */\n      swap2\n      swap1\n      pop\n      jump\t// out\n        /* \"#utility.yul\":3104:3273   */\n    tag_101:\n        /* \"#utility.yul\":3188:3199   */\n      0x00\n        /* \"#utility.yul\":3222:3228   */\n      dup3\n        /* \"#utility.yul\":3217:3220   */\n      dup3\n        /* \"#utility.yul\":3210:3229   */\n      mstore\n        /* \"#utility.yul\":3262:3266   */\n      0x20\n        /* \"#utility.yul\":3257:3260   */\n      dup3\n        /* \"#utility.yul\":3253:3267   */\n      add\n        /* \"#utility.yul\":3238:3267   */\n      swap1\n      pop\n        /* \"#utility.yul\":3104:3273   */\n      swap3\n      swap2\n      pop\n      pop\n      jump\t// out\n        /* \"#utility.yul\":3279:3356   */\n    tag_120:\n        /* \"#utility.yul\":3316:3323   */\n      0x00\n        /* \"#utility.yul\":3345:3350   */\n      dup2\n        /* \"#utility.yul\":3334:3350   */\n      swap1\n      pop\n        /* \"#utility.yul\":3279:3356   */\n      swap2\n      swap1\n      pop\n      jump\t// out\n        /* \"#utility.yul\":3362:3516   */\n    tag_73:\n        /* \"#utility.yul\":3446:3452   */\n      dup3\n        /* \"#utility.yul\":3441:3444   */\n      dup2\n        /* \"#utility.yul\":3436:3439   */\n      dup4\n        /* \"#utility.yul\":3423:3453   */\n      calldatacopy\n        /* \"#utility.yul\":3508:3509   */\n      0x00\n        /* \"#utility.yul\":3499:3505   */\n      dup4\n        /* \"#utility.yul\":3494:3497   */\n      dup4\n        /* \"#utility.yul\":3490:3506   */\n      add\n        /* \"#utility.yul\":3483:3510   */\n      mstore\n        /* \"#utility.yul\":3362:3516   */\n      pop\n      pop\n      pop\n      jump\t// out\n        /* \"#utility.yul\":3522:3829   */\n    tag_103:\n        /* \"#utility.yul\":3590:3591   */\n      0x00\n        /* \"#utility.yul\":3600:3713   */\n    tag_124:\n        /* \"#utility.yul\":3614:3620   */\n      dup4\n        /* \"#utility.yul\":3611:3612   */\n      dup2\n        /* \"#utility.yul\":3608:3621   */\n      lt\n        /* \"#utility.yul\":3600:3713   */\n      iszero\n      tag_126\n      jumpi\n        /* \"#utility.yul\":3699:3700   */\n      dup1\n        /* \"#utility.yul\":3694:3697   */\n      dup3\n        /* \"#utility.yul\":3690:3701   */\n      add\n        /* \"#utility.yul\":3684:3702   */\n      mload\n        /* \"#utility.yul\":3680:3681   */\n      dup2\n        /* \"#utility.yul\":3675:3678   */\n      dup5\n        /* \"#utility.yul\":3671:3682   */\n      add\n        /* \"#utility.yul\":3664:3703   */\n      mstore\n        /* \"#utility.yul\":3636:3638   */\n      0x20\n        /* \"#utility.yul\":3633:3634   */\n      dup2\n        /* \"#utility.yul\":3629:3639   */\n      add\n        /* \"#utility.yul\":3624:3639   */\n      swap1\n      pop\n        /* \"#utility.yul\":3600:3713   */\n      jump(tag_124)\n    tag_126:\n        /* \"#utility.yul\":3731:3737   */\n      dup4\n        /* \"#utility.yul\":3728:3729   */\n      dup2\n        /* \"#utility.yul\":3725:3738   */\n      gt\n        /* \"#utility.yul\":3722:3823   */\n      iszero\n      tag_127\n      jumpi\n        /* \"#utility.yul\":3811:3812   */\n      0x00\n        /* \"#utility.yul\":3802:3808   */\n      dup5\n        /* \"#utility.yul\":3797:3800   */\n      dup5\n        /* \"#utility.yul\":3793:3809   */\n      add\n        /* \"#utility.yul\":3786:3813   */\n      mstore\n        /* \"#utility.yul\":3722:3823   */\n    tag_127:\n        /* \"#utility.yul\":3571:3829   */\n      pop\n        /* \"#utility.yul\":3522:3829   */\n      pop\n      pop\n      pop\n      jump\t// out\n        /* \"#utility.yul\":3835:4155   */\n    tag_25:\n        /* \"#utility.yul\":3879:3885   */\n      0x00\n        /* \"#utility.yul\":3916:3917   */\n      0x02\n        /* \"#utility.yul\":3910:3914   */\n      dup3\n        /* \"#utility.yul\":3906:3918   */\n      div\n        /* \"#utility.yul\":3896:3918   */\n      swap1\n      pop\n        /* \"#utility.yul\":3963:3964   */\n      0x01\n        /* \"#utility.yul\":3957:3961   */\n      dup3\n        /* \"#utility.yul\":3953:3965   */\n      and\n        /* \"#utility.yul\":3984:4002   */\n      dup1\n        /* \"#utility.yul\":3974:4055   */\n      tag_129\n      jumpi\n        /* \"#utility.yul\":4040:4044   */\n      0x7f\n        /* \"#utility.yul\":4032:4038   */\n      dup3\n        /* \"#utility.yul\":4028:4045   */\n      and\n        /* \"#utility.yul\":4018:4045   */\n      swap2\n      pop\n        /* \"#utility.yul\":3974:4055   */\n    tag_129:\n        /* \"#utility.yul\":4102:4104   */\n      0x20\n        /* \"#utility.yul\":4094:4100   */\n      dup3\n        /* \"#utility.yul\":4091:4105   */\n      lt\n        /* \"#utility.yul\":4071:4089   */\n      dup2\n        /* \"#utility.yul\":4068:4106   */\n      eq\n        /* \"#utility.yul\":4065:4149   */\n      iszero\n      tag_130\n      jumpi\n        /* \"#utility.yul\":4121:4139   */\n      tag_131\n      tag_132\n      jump\t// in\n    tag_131:\n        /* \"#utility.yul\":4065:4149   */\n    tag_130:\n        /* \"#utility.yul\":3886:4155   */\n      pop\n        /* \"#utility.yul\":3835:4155   */\n      swap2\n      swap1\n      pop\n      jump\t// out\n        /* \"#utility.yul\":4161:4442   */\n    tag_112:\n        /* \"#utility.yul\":4244:4271   */\n      tag_134\n        /* \"#utility.yul\":4266:4270   */\n      dup3\n        /* \"#utility.yul\":4244:4271   */\n      tag_105\n      jump\t// in\n    tag_134:\n        /* \"#utility.yul\":4236:4242   */\n      dup2\n        /* \"#utility.yul\":4232:4272   */\n      add\n        /* \"#utility.yul\":4374:4380   */\n      dup2\n        /* \"#utility.yul\":4362:4372   */\n      dup2\n        /* \"#utility.yul\":4359:4381   */\n      lt\n        /* \"#utility.yul\":4338:4356   */\n      0xffffffffffffffff\n        /* \"#utility.yul\":4326:4336   */\n      dup3\n        /* \"#utility.yul\":4323:4357   */\n      gt\n        /* \"#utility.yul\":4320:4382   */\n      or\n        /* \"#utility.yul\":4317:4405   */\n      iszero\n      tag_135\n      jumpi\n        /* \"#utility.yul\":4385:4403   */\n      tag_136\n      tag_33\n      jump\t// in\n    tag_136:\n        /* \"#utility.yul\":4317:4405   */\n    tag_135:\n        /* \"#utility.yul\":4425:4435   */\n      dup1\n        /* \"#utility.yul\":4421:4423   */\n      0x40\n        /* \"#utility.yul\":4414:4436   */\n      mstore\n        /* \"#utility.yul\":4204:4442   */\n      pop\n        /* \"#utility.yul\":4161:4442   */\n      pop\n      pop\n      jump\t// out\n        /* \"#utility.yul\":4448:4628   */\n    tag_132:\n        /* \"#utility.yul\":4496:4573   */\n      0x4e487b7100000000000000000000000000000000000000000000000000000000\n        /* \"#utility.yul\":4493:4494   */\n      0x00\n        /* \"#utility.yul\":4486:4574   */\n      mstore\n        /* \"#utility.yul\":4593:4597   */\n      0x22\n        /* \"#utility.yul\":4590:4591   */\n      0x04\n        /* \"#utility.yul\":4583:4598   */\n      mstore\n        /* \"#utility.yul\":4617:4621   */\n      0x24\n        /* \"#utility.yul\":4614:4615   */\n      0x00\n        /* \"#utility.yul\":4607:4622   */\n      revert\n        /* \"#utility.yul\":4634:4814   */\n    tag_33:\n        /* \"#utility.yul\":4682:4759   */\n      0x4e487b7100000000000000000000000000000000000000000000000000000000\n        /* \"#utility.yul\":4679:4680   */\n      0x00\n        /* \"#utility.yul\":4672:4760   */\n      mstore\n        /* \"#utility.yul\":4779:4783   */\n      0x41\n        /* \"#utility.yul\":4776:4777   */\n      0x04\n        /* \"#utility.yul\":4769:4784   */\n      mstore\n        /* \"#utility.yul\":4803:4807   */\n      0x24\n        /* \"#utility.yul\":4800:4801   */\n      0x00\n        /* \"#utility.yul\":4793:4808   */\n      revert\n        /* \"#utility.yul\":4820:4937   */\n    tag_78:\n        /* \"#utility.yul\":4929:4930   */\n      0x00\n        /* \"#utility.yul\":4926:4927   */\n      dup1\n        /* \"#utility.yul\":4919:4931   */\n      revert\n        /* \"#utility.yul\":4943:5060   */\n    tag_71:\n        /* \"#utility.yul\":5052:5053   */\n      0x00\n        /* \"#utility.yul\":5049:5050   */\n      dup1\n        /* \"#utility.yul\":5042:5054   */\n      revert\n        /* \"#utility.yul\":5066:5183   */\n    tag_90:\n        /* \"#utility.yul\":5175:5176   */\n      0x00\n        /* \"#utility.yul\":5172:5173   */\n      dup1\n        /* \"#utility.yul\":5165:5177   */\n      revert\n        /* \"#utility.yul\":5189:5306   */\n    tag_87:\n        /* \"#utility.yul\":5298:5299   */\n      0x00\n        /* \"#utility.yul\":5295:5296   */\n      dup1\n        /* \"#utility.yul\":5288:5300   */\n      revert\n        /* \"#utility.yul\":5312:5414   */\n    tag_105:\n        /* \"#utility.yul\":5353:5359   */\n      0x00\n        /* \"#utility.yul\":5404:5406   */\n      0x1f\n        /* \"#utility.yul\":5400:5407   */\n      not\n        /* \"#utility.yul\":5395:5397   */\n      0x1f\n        /* \"#utility.yul\":5388:5393   */\n      dup4\n        /* \"#utility.yul\":5384:5398   */\n      add\n        /* \"#utility.yul\":5380:5408   */\n      and\n        /* \"#utility.yul\":5370:5408   */\n      swap1\n      pop\n        /* \"#utility.yul\":5312:5414   */\n      swap2\n      swap1\n      pop\n      jump\t// out\n        /* \"#utility.yul\":5420:5542   */\n    tag_83:\n        /* \"#utility.yul\":5493:5517   */\n      tag_145\n        /* \"#utility.yul\":5511:5516   */\n      dup2\n        /* \"#utility.yul\":5493:5517   */\n      tag_120\n      jump\t// in\n    tag_145:\n        /* \"#utility.yul\":5486:5491   */\n      dup2\n        /* \"#utility.yul\":5483:5518   */\n      eq\n        /* \"#utility.yul\":5473:5536   */\n      tag_146\n      jumpi\n        /* \"#utility.yul\":5532:5533   */\n      0x00\n        /* \"#utility.yul\":5529:5530   */\n      dup1\n        /* \"#utility.yul\":5522:5534   */\n      revert\n        /* \"#utility.yul\":5473:5536   */\n    tag_146:\n        /* \"#utility.yul\":5420:5542   */\n      pop\n      jump\t// out\n\n    auxdata: 0xa26469706673582212202752b3d2f6c8a08476a958e0e32eb08d48a9f1b35b22f8b31c22e353137bb00964736f6c63430008070033\n}\n",
				"bytecode": {
					"linkReferences": {},
					"object": "608060405234801561001057600080fd5b5061069c806100206000396000f3fe608060405234801561001057600080fd5b50600436106100415760003560e01c806395ffebf514610046578063bc8bc2b414610062578063cbed9e0714610092575b600080fd5b610060600480360381019061005b91906103da565b61009c565b005b61007c60048036038101906100779190610423565b6100db565b6040516100899190610489565b60405180910390f35b61009a610187565b005b6000819080600181540180825580915050600190039060005260206000200160009091909190915090805190602001906100d79291906101ee565b5050565b600081815481106100eb57600080fd5b90600052602060002001600091509050805461010690610569565b80601f016020809104026020016040519081016040528092919081815260200182805461013290610569565b801561017f5780601f106101545761010080835404028352916020019161017f565b820191906000526020600020905b81548152906001019060200180831161016257829003601f168201915b505050505081565b600067ffffffffffffffff8111156101a2576101a16105fb565b5b6040519080825280602002602001820160405280156101d557816020015b60608152602001906001900390816101c05790505b50600090805190602001906101eb929190610274565b50565b8280546101fa90610569565b90600052602060002090601f01602090048101928261021c5760008555610263565b82601f1061023557805160ff1916838001178555610263565b82800160010185558215610263579182015b82811115610262578251825591602001919060010190610247565b5b50905061027091906102d4565b5090565b8280548282559060005260206000209081019282156102c3579160200282015b828111156102c25782518290805190602001906102b29291906101ee565b5091602001919060010190610294565b5b5090506102d091906102f1565b5090565b5b808211156102ed5760008160009055506001016102d5565b5090565b5b8082111561031157600081816103089190610315565b506001016102f2565b5090565b50805461032190610569565b6000825580601f106103335750610352565b601f01602090049060005260206000209081019061035191906102d4565b5b50565b6000610368610363846104d0565b6104ab565b9050828152602081018484840111156103845761038361062f565b5b61038f848285610527565b509392505050565b600082601f8301126103ac576103ab61062a565b5b81356103bc848260208601610355565b91505092915050565b6000813590506103d48161064f565b92915050565b6000602082840312156103f0576103ef610639565b5b600082013567ffffffffffffffff81111561040e5761040d610634565b5b61041a84828501610397565b91505092915050565b60006020828403121561043957610438610639565b5b6000610447848285016103c5565b91505092915050565b600061045b82610501565b610465818561050c565b9350610475818560208601610536565b61047e8161063e565b840191505092915050565b600060208201905081810360008301526104a38184610450565b905092915050565b60006104b56104c6565b90506104c1828261059b565b919050565b6000604051905090565b600067ffffffffffffffff8211156104eb576104ea6105fb565b5b6104f48261063e565b9050602081019050919050565b600081519050919050565b600082825260208201905092915050565b6000819050919050565b82818337600083830152505050565b60005b83811015610554578082015181840152602081019050610539565b83811115610563576000848401525b50505050565b6000600282049050600182168061058157607f821691505b60208210811415610595576105946105cc565b5b50919050565b6105a48261063e565b810181811067ffffffffffffffff821117156105c3576105c26105fb565b5b80604052505050565b7f4e487b7100000000000000000000000000000000000000000000000000000000600052602260045260246000fd5b7f4e487b7100000000000000000000000000000000000000000000000000000000600052604160045260246000fd5b600080fd5b600080fd5b600080fd5b600080fd5b6000601f19601f8301169050919050565b6106588161051d565b811461066357600080fd5b5056fea26469706673582212202752b3d2f6c8a08476a958e0e32eb08d48a9f1b35b22f8b31c22e353137bb00964736f6c63430008070033",
					"opcodes": "PUSH1 0x80 PUSH1 0x40 MSTORE CALLVALUE DUP1 ISZERO PUSH2 0x10 JUMPI PUSH1 0x0 DUP1 REVERT JUMPDEST POP PUSH2 0x69C DUP1 PUSH2 0x20 PUSH1 0x0 CODECOPY PUSH1 0x0 RETURN INVALID PUSH1 0x80 PUSH1 0x40 MSTORE CALLVALUE DUP1 ISZERO PUSH2 0x10 JUMPI PUSH1 0x0 DUP1 REVERT JUMPDEST POP PUSH1 0x4 CALLDATASIZE LT PUSH2 0x41 JUMPI PUSH1 0x0 CALLDATALOAD PUSH1 0xE0 SHR DUP1 PUSH4 0x95FFEBF5 EQ PUSH2 0x46 JUMPI DUP1 PUSH4 0xBC8BC2B4 EQ PUSH2 0x62 JUMPI DUP1 PUSH4 0xCBED9E07 EQ PUSH2 0x92 JUMPI JUMPDEST PUSH1 0x0 DUP1 REVERT JUMPDEST PUSH2 0x60 PUSH1 0x4 DUP1 CALLDATASIZE SUB DUP2 ADD SWAP1 PUSH2 0x5B SWAP2 SWAP1 PUSH2 0x3DA JUMP JUMPDEST PUSH2 0x9C JUMP JUMPDEST STOP JUMPDEST PUSH2 0x7C PUSH1 0x4 DUP1 CALLDATASIZE SUB DUP2 ADD SWAP1 PUSH2 0x77 SWAP2 SWAP1 PUSH2 0x423 JUMP JUMPDEST PUSH2 0xDB JUMP JUMPDEST PUSH1 0x40 MLOAD PUSH2 0x89 SWAP2 SWAP1 PUSH2 0x489 JUMP JUMPDEST PUSH1 0x40 MLOAD DUP1 SWAP2 SUB SWAP1 RETURN JUMPDEST PUSH2 0x9A PUSH2 0x187 JUMP JUMPDEST STOP JUMPDEST PUSH1 0x0 DUP2 SWAP1 DUP1 PUSH1 0x1 DUP2 SLOAD ADD DUP1 DUP3 SSTORE DUP1 SWAP2 POP POP PUSH1 0x1 SWAP1 SUB SWAP1 PUSH1 0x0 MSTORE PUSH1 0x20 PUSH1 0x0 KECCAK256 ADD PUSH1 0x0 SWAP1 SWAP2 SWAP1 SWAP2 SWAP1 SWAP2 POP SWAP1 DUP1 MLOAD SWAP1 PUSH1 0x20 ADD SWAP1 PUSH2 0xD7 SWAP3 SWAP2 SWAP1 PUSH2 0x1EE JUMP JUMPDEST POP POP JUMP JUMPDEST PUSH1 0x0 DUP2 DUP2 SLOAD DUP2 LT PUSH2 0xEB JUMPI PUSH1 0x0 DUP1 REVERT JUMPDEST SWAP1 PUSH1 0x0 MSTORE PUSH1 0x20 PUSH1 0x0 KECCAK256 ADD PUSH1 0x0 SWAP2 POP SWAP1 POP DUP1 SLOAD PUSH2 0x106 SWAP1 PUSH2 0x569 JUMP JUMPDEST DUP1 PUSH1 0x1F ADD PUSH1 0x20 DUP1 SWAP2 DIV MUL PUSH1 0x20 ADD PUSH1 0x40 MLOAD SWAP1 DUP2 ADD PUSH1 0x40 MSTORE DUP1 SWAP3 SWAP2 SWAP1 DUP2 DUP2 MSTORE PUSH1 0x20 ADD DUP3 DUP1 SLOAD PUSH2 0x132 SWAP1 PUSH2 0x569 JUMP JUMPDEST DUP1 ISZERO PUSH2 0x17F JUMPI DUP1 PUSH1 0x1F LT PUSH2 0x154 JUMPI PUSH2 0x100 DUP1 DUP4 SLOAD DIV MUL DUP4 MSTORE SWAP2 PUSH1 0x20 ADD SWAP2 PUSH2 0x17F JUMP JUMPDEST DUP3 ADD SWAP2 SWAP1 PUSH1 0x0 MSTORE PUSH1 0x20 PUSH1 0x0 KECCAK256 SWAP1 JUMPDEST DUP2 SLOAD DUP2 MSTORE SWAP1 PUSH1 0x1 ADD SWAP1 PUSH1 0x20 ADD DUP1 DUP4 GT PUSH2 0x162 JUMPI DUP3 SWAP1 SUB PUSH1 0x1F AND DUP3 ADD SWAP2 JUMPDEST POP POP POP POP POP DUP2 JUMP JUMPDEST PUSH1 0x0 PUSH8 0xFFFFFFFFFFFFFFFF DUP2 GT ISZERO PUSH2 0x1A2 JUMPI PUSH2 0x1A1 PUSH2 0x5FB JUMP JUMPDEST JUMPDEST PUSH1 0x40 MLOAD SWAP1 DUP1 DUP3 MSTORE DUP1 PUSH1 0x20 MUL PUSH1 0x20 ADD DUP3 ADD PUSH1 0x40 MSTORE DUP1 ISZERO PUSH2 0x1D5 JUMPI DUP2 PUSH1 0x20 ADD JUMPDEST PUSH1 0x60 DUP2 MSTORE PUSH1 0x20 ADD SWAP1 PUSH1 0x1 SWAP1 SUB SWAP1 DUP2 PUSH2 0x1C0 JUMPI SWAP1 POP JUMPDEST POP PUSH1 0x0 SWAP1 DUP1 MLOAD SWAP1 PUSH1 0x20 ADD SWAP1 PUSH2 0x1EB SWAP3 SWAP2 SWAP1 PUSH2 0x274 JUMP JUMPDEST POP JUMP JUMPDEST DUP3 DUP1 SLOAD PUSH2 0x1FA SWAP1 PUSH2 0x569 JUMP JUMPDEST SWAP1 PUSH1 0x0 MSTORE PUSH1 0x20 PUSH1 0x0 KECCAK256 SWAP1 PUSH1 0x1F ADD PUSH1 0x20 SWAP1 DIV DUP2 ADD SWAP3 DUP3 PUSH2 0x21C JUMPI PUSH1 0x0 DUP6 SSTORE PUSH2 0x263 JUMP JUMPDEST DUP3 PUSH1 0x1F LT PUSH2 0x235 JUMPI DUP1 MLOAD PUSH1 0xFF NOT AND DUP4 DUP1 ADD OR DUP6 SSTORE PUSH2 0x263 JUMP JUMPDEST DUP3 DUP1 ADD PUSH1 0x1 ADD DUP6 SSTORE DUP3 ISZERO PUSH2 0x263 JUMPI SWAP2 DUP3 ADD JUMPDEST DUP3 DUP2 GT ISZERO PUSH2 0x262 JUMPI DUP3 MLOAD DUP3 SSTORE SWAP2 PUSH1 0x20 ADD SWAP2 SWAP1 PUSH1 0x1 ADD SWAP1 PUSH2 0x247 JUMP JUMPDEST JUMPDEST POP SWAP1 POP PUSH2 0x270 SWAP2 SWAP1 PUSH2 0x2D4 JUMP JUMPDEST POP SWAP1 JUMP JUMPDEST DUP3 DUP1 SLOAD DUP3 DUP3 SSTORE SWAP1 PUSH1 0x0 MSTORE PUSH1 0x20 PUSH1 0x0 KECCAK256 SWAP1 DUP2 ADD SWAP3 DUP3 ISZERO PUSH2 0x2C3 JUMPI SWAP2 PUSH1 0x20 MUL DUP3 ADD JUMPDEST DUP3 DUP2 GT ISZERO PUSH2 0x2C2 JUMPI DUP3 MLOAD DUP3 SWAP1 DUP1 MLOAD SWAP1 PUSH1 0x20 ADD SWAP1 PUSH2 0x2B2 SWAP3 SWAP2 SWAP1 PUSH2 0x1EE JUMP JUMPDEST POP SWAP2 PUSH1 0x20 ADD SWAP2 SWAP1 PUSH1 0x1 ADD SWAP1 PUSH2 0x294 JUMP JUMPDEST JUMPDEST POP SWAP1 POP PUSH2 0x2D0 SWAP2 SWAP1 PUSH2 0x2F1 JUMP JUMPDEST POP SWAP1 JUMP JUMPDEST JUMPDEST DUP1 DUP3 GT ISZERO PUSH2 0x2ED JUMPI PUSH1 0x0 DUP2 PUSH1 0x0 SWAP1 SSTORE POP PUSH1 0x1 ADD PUSH2 0x2D5 JUMP JUMPDEST POP SWAP1 JUMP JUMPDEST JUMPDEST DUP1 DUP3 GT ISZERO PUSH2 0x311 JUMPI PUSH1 0x0 DUP2 DUP2 PUSH2 0x308 SWAP2 SWAP1 PUSH2 0x315 JUMP JUMPDEST POP PUSH1 0x1 ADD PUSH2 0x2F2 JUMP JUMPDEST POP SWAP1 JUMP JUMPDEST POP DUP1 SLOAD PUSH2 0x321 SWAP1 PUSH2 0x569 JUMP JUMPDEST PUSH1 0x0 DUP3 SSTORE DUP1 PUSH1 0x1F LT PUSH2 0x333 JUMPI POP PUSH2 0x352 JUMP JUMPDEST PUSH1 0x1F ADD PUSH1 0x20 SWAP1 DIV SWAP1 PUSH1 0x0 MSTORE PUSH1 0x20 PUSH1 0x0 KECCAK256 SWAP1 DUP2 ADD SWAP1 PUSH2 0x351 SWAP2 SWAP1 PUSH2 0x2D4 JUMP JUMPDEST JUMPDEST POP JUMP JUMPDEST PUSH1 0x0 PUSH2 0x368 PUSH2 0x363 DUP5 PUSH2 0x4D0 JUMP JUMPDEST PUSH2 0x4AB JUMP JUMPDEST SWAP1 POP DUP3 DUP2 MSTORE PUSH1 0x20 DUP2 ADD DUP5 DUP5 DUP5 ADD GT ISZERO PUSH2 0x384 JUMPI PUSH2 0x383 PUSH2 0x62F JUMP JUMPDEST JUMPDEST PUSH2 0x38F DUP5 DUP3 DUP6 PUSH2 0x527 JUMP JUMPDEST POP SWAP4 SWAP3 POP POP POP JUMP JUMPDEST PUSH1 0x0 DUP3 PUSH1 0x1F DUP4 ADD SLT PUSH2 0x3AC JUMPI PUSH2 0x3AB PUSH2 0x62A JUMP JUMPDEST JUMPDEST DUP2 CALLDATALOAD PUSH2 0x3BC DUP5 DUP3 PUSH1 0x20 DUP7 ADD PUSH2 0x355 JUMP JUMPDEST SWAP2 POP POP SWAP3 SWAP2 POP POP JUMP JUMPDEST PUSH1 0x0 DUP2 CALLDATALOAD SWAP1 POP PUSH2 0x3D4 DUP2 PUSH2 0x64F JUMP JUMPDEST SWAP3 SWAP2 POP POP JUMP JUMPDEST PUSH1 0x0 PUSH1 0x20 DUP3 DUP5 SUB SLT ISZERO PUSH2 0x3F0 JUMPI PUSH2 0x3EF PUSH2 0x639 JUMP JUMPDEST JUMPDEST PUSH1 0x0 DUP3 ADD CALLDATALOAD PUSH8 0xFFFFFFFFFFFFFFFF DUP2 GT ISZERO PUSH2 0x40E JUMPI PUSH2 0x40D PUSH2 0x634 JUMP JUMPDEST JUMPDEST PUSH2 0x41A DUP5 DUP3 DUP6 ADD PUSH2 0x397 JUMP JUMPDEST SWAP2 POP POP SWAP3 SWAP2 POP POP JUMP JUMPDEST PUSH1 0x0 PUSH1 0x20 DUP3 DUP5 SUB SLT ISZERO PUSH2 0x439 JUMPI PUSH2 0x438 PUSH2 0x639 JUMP JUMPDEST JUMPDEST PUSH1 0x0 PUSH2 0x447 DUP5 DUP3 DUP6 ADD PUSH2 0x3C5 JUMP JUMPDEST SWAP2 POP POP SWAP3 SWAP2 POP POP JUMP JUMPDEST PUSH1 0x0 PUSH2 0x45B DUP3 PUSH2 0x501 JUMP JUMPDEST PUSH2 0x465 DUP2 DUP6 PUSH2 0x50C JUMP JUMPDEST SWAP4 POP PUSH2 0x475 DUP2 DUP6 PUSH1 0x20 DUP7 ADD PUSH2 0x536 JUMP JUMPDEST PUSH2 0x47E DUP2 PUSH2 0x63E JUMP JUMPDEST DUP5 ADD SWAP2 POP POP SWAP3 SWAP2 POP POP JUMP JUMPDEST PUSH1 0x0 PUSH1 0x20 DUP3 ADD SWAP1 POP DUP2 DUP2 SUB PUSH1 0x0 DUP4 ADD MSTORE PUSH2 0x4A3 DUP2 DUP5 PUSH2 0x450 JUMP JUMPDEST SWAP1 POP SWAP3 SWAP2 POP POP JUMP JUMPDEST PUSH1 0x0 PUSH2 0x4B5 PUSH2 0x4C6 JUMP JUMPDEST SWAP1 POP PUSH2 0x4C1 DUP3 DUP3 PUSH2 0x59B JUMP JUMPDEST SWAP2 SWAP1 POP JUMP JUMPDEST PUSH1 0x0 PUSH1 0x40 MLOAD SWAP1 POP SWAP1 JUMP JUMPDEST PUSH1 0x0 PUSH8 0xFFFFFFFFFFFFFFFF DUP3 GT ISZERO PUSH2 0x4EB JUMPI PUSH2 0x4EA PUSH2 0x5FB JUMP JUMPDEST JUMPDEST PUSH2 0x4F4 DUP3 PUSH2 0x63E JUMP JUMPDEST SWAP1 POP PUSH1 0x20 DUP2 ADD SWAP1 POP SWAP2 SWAP1 POP JUMP JUMPDEST PUSH1 0x0 DUP2 MLOAD SWAP1 POP SWAP2 SWAP1 POP JUMP JUMPDEST PUSH1 0x0 DUP3 DUP3 MSTORE PUSH1 0x20 DUP3 ADD SWAP1 POP SWAP3 SWAP2 POP POP JUMP JUMPDEST PUSH1 0x0 DUP2 SWAP1 POP SWAP2 SWAP1 POP JUMP JUMPDEST DUP3 DUP2 DUP4 CALLDATACOPY PUSH1 0x0 DUP4 DUP4 ADD MSTORE POP POP POP JUMP JUMPDEST PUSH1 0x0 JUMPDEST DUP4 DUP2 LT ISZERO PUSH2 0x554 JUMPI DUP1 DUP3 ADD MLOAD DUP2 DUP5 ADD MSTORE PUSH1 0x20 DUP2 ADD SWAP1 POP PUSH2 0x539 JUMP JUMPDEST DUP4 DUP2 GT ISZERO PUSH2 0x563 JUMPI PUSH1 0x0 DUP5 DUP5 ADD MSTORE JUMPDEST POP POP POP POP JUMP JUMPDEST PUSH1 0x0 PUSH1 0x2 DUP3 DIV SWAP1 POP PUSH1 0x1 DUP3 AND DUP1 PUSH2 0x581 JUMPI PUSH1 0x7F DUP3 AND SWAP2 POP JUMPDEST PUSH1 0x20 DUP3 LT DUP2 EQ ISZERO PUSH2 0x595 JUMPI PUSH2 0x594 PUSH2 0x5CC JUMP JUMPDEST JUMPDEST POP SWAP2 SWAP1 POP JUMP JUMPDEST PUSH2 0x5A4 DUP3 PUSH2 0x63E JUMP JUMPDEST DUP2 ADD DUP2 DUP2 LT PUSH8 0xFFFFFFFFFFFFFFFF DUP3 GT OR ISZERO PUSH2 0x5C3 JUMPI PUSH2 0x5C2 PUSH2 0x5FB JUMP JUMPDEST JUMPDEST DUP1 PUSH1 0x40 MSTORE POP POP POP JUMP JUMPDEST PUSH32 0x4E487B7100000000000000000000000000000000000000000000000000000000 PUSH1 0x0 MSTORE PUSH1 0x22 PUSH1 0x4 MSTORE PUSH1 0x24 PUSH1 0x0 REVERT JUMPDEST PUSH32 0x4E487B7100000000000000000000000000000000000000000000000000000000 PUSH1 0x0 MSTORE PUSH1 0x41 PUSH1 0x4 MSTORE PUSH1 0x24 PUSH1 0x0 REVERT JUMPDEST PUSH1 0x0 DUP1 REVERT JUMPDEST PUSH1 0x0 DUP1 REVERT JUMPDEST PUSH1 0x0 DUP1 REVERT JUMPDEST PUSH1 0x0 DUP1 REVERT JUMPDEST PUSH1 0x0 PUSH1 0x1F NOT PUSH1 0x1F DUP4 ADD AND SWAP1 POP SWAP2 SWAP1 POP JUMP JUMPDEST PUSH2 0x658 DUP2 PUSH2 0x51D JUMP JUMPDEST DUP2 EQ PUSH2 0x663 JUMPI PUSH1 0x0 DUP1 REVERT JUMPDEST POP JUMP INVALID LOG2 PUSH5 0x6970667358 0x22 SLT KECCAK256 0x27 MSTORE 0xB3 0xD2 0xF6 0xC8 LOG0 DUP5 PUSH23 0xA958E0E32EB08D48A9F1B35B22F8B31C22E353137BB009 PUSH5 0x736F6C6343 STOP ADDMOD SMOD STOP CALLER "
				},
				"gasEstimates": {
					"creation": {
						"codeDepositCost": "338400",
						"executionCost": "374",
						"totalCost": "338774"
					},
					"external": {
						"addTodo(string)": "infinite",
						"resetTodo()": "infinite",
						"todos(uint256)": "infinite"
					}
				},
				"methodIdentifiers": {
					"addTodo(string)": "95ffebf5",
					"resetTodo()": "cbed9e07",
					"todos(uint256)": "bc8bc2b4"
				}
			},
			"storageLayout": {
				"storage": [
					{
						"astId": 4,
						"contract": "Todo.sol:Todo",
						"label": "todos",
						"offset": 0,
						"slot": "0",
						"type": "t_array(t_string_storage)dyn_storage"
					}
				],
				"types": {
					"t_array(t_string_storage)dyn_storage": {
						"base": "t_string_storage",
						"encoding": "dynamic_array",
						"label": "string[]",
						"numberOfBytes": "32"
					},
					"t_string_storage": {
						"encoding": "bytes",
						"label": "string",
						"numberOfBytes": "32"
					}
				}
			},
			"userdoc": {
				"kind": "user",
				"methods": {},
				"version": 1
			}
		}
	}
}