{
	"todomain.sol": {
		"TodoMain": {
			"abi": [
				{
					"anonymous": false,
					"inputs": [
						{
							"indexed": false,
							"internalType": "uint256",
							"name": "",
							"type": "uint256"
						},
						{
							"indexed": false,
							"internalType": "string",
							"name": "",
							"type": "string"
						}
					],
					"name": "TaskCreate",
					"type": "event"
				},
				{
					"inputs": [
						{
							"internalType": "uint256",
							"name": "_id",
							"type": "uint256"
						},
						{
							"internalType": "string",
							"name": "_todoName",
							"type": "string"
						}
					],
					"name": "addTodo",
					"outputs": [],
					"stateMutability": "nonpayable",
					"type": "function"
				},
				{
					"inputs": [],
					"name": "showTodo",
					"outputs": [
						{
							"components": [
								{
									"internalType": "uint256",
									"name": "id",
									"type": "uint256"
								},
								{
									"internalType": "string",
									"name": "todoName",
									"type": "string"
								}
							],
							"internalType": "struct TodoMain.TodoObj[]",
							"name": "",
							"type": "tuple[]"
						}
					],
					"stateMutability": "view",
					"type": "function"
				},
				{
					"inputs": [
						{
							"internalType": "uint256",
							"name": "",
							"type": "uint256"
						}
					],
					"name": "todos",
					"outputs": [
						{
							"internalType": "uint256",
							"name": "id",
							"type": "uint256"
						},
						{
							"internalType": "string",
							"name": "todoName",
							"type": "string"
						}
					],
					"stateMutability": "view",
					"type": "function"
				},
				{
					"inputs": [
						{
							"internalType": "uint256",
							"name": "index",
							"type": "uint256"
						}
					],
					"name": "updateTodo",
					"outputs": [
						{
							"components": [
								{
									"internalType": "uint256",
									"name": "id",
									"type": "uint256"
								},
								{
									"internalType": "string",
									"name": "todoName",
									"type": "string"
								}
							],
							"internalType": "struct TodoMain.TodoObj",
							"name": "",
							"type": "tuple"
						}
					],
					"stateMutability": "view",
					"type": "function"
				}
			],
			"devdoc": {
				"kind": "dev",
				"methods": {},
				"version": 1
			},
			"evm": {
				"assembly": "    /* \"todomain.sol\":64:692  contract TodoMain{\r... */\n  mstore(0x40, 0x80)\n  callvalue\n  dup1\n  iszero\n  tag_1\n  jumpi\n  0x00\n  dup1\n  revert\ntag_1:\n  pop\n  dataSize(sub_0)\n  dup1\n  dataOffset(sub_0)\n  0x00\n  codecopy\n  0x00\n  return\nstop\n\nsub_0: assembly {\n        /* \"todomain.sol\":64:692  contract TodoMain{\r... */\n      mstore(0x40, 0x80)\n      callvalue\n      dup1\n      iszero\n      tag_1\n      jumpi\n      0x00\n      dup1\n      revert\n    tag_1:\n      pop\n      jumpi(tag_2, lt(calldatasize, 0x04))\n      shr(0xe0, calldataload(0x00))\n      dup1\n      0x61a41c08\n      eq\n      tag_3\n      jumpi\n      dup1\n      0x82e76b88\n      eq\n      tag_4\n      jumpi\n      dup1\n      0xbc8bc2b4\n      eq\n      tag_5\n      jumpi\n      dup1\n      0xc1da2020\n      eq\n      tag_6\n      jumpi\n    tag_2:\n      0x00\n      dup1\n      revert\n        /* \"todomain.sol\":582:689  function updateTodo(uint index) public view returns(TodoObj memory){\r... */\n    tag_3:\n      tag_7\n      0x04\n      dup1\n      calldatasize\n      sub\n      dup2\n      add\n      swap1\n      tag_8\n      swap2\n      swap1\n      tag_9\n      jump\t// in\n    tag_8:\n      tag_10\n      jump\t// in\n    tag_7:\n      mload(0x40)\n      tag_11\n      swap2\n      swap1\n      tag_12\n      jump\t// in\n    tag_11:\n      mload(0x40)\n      dup1\n      swap2\n      sub\n      swap1\n      return\n        /* \"todomain.sol\":472:574  function showTodo() public view returns(TodoObj[] memory){\r... */\n    tag_4:\n      tag_13\n      tag_14\n      jump\t// in\n    tag_13:\n      mload(0x40)\n      tag_15\n      swap2\n      swap1\n      tag_16\n      jump\t// in\n    tag_15:\n      mload(0x40)\n      dup1\n      swap2\n      sub\n      swap1\n      return\n        /* \"todomain.sol\":200:222  TodoObj[] public todos */\n    tag_5:\n      tag_17\n      0x04\n      dup1\n      calldatasize\n      sub\n      dup2\n      add\n      swap1\n      tag_18\n      swap2\n      swap1\n      tag_9\n      jump\t// in\n    tag_18:\n      tag_19\n      jump\t// in\n    tag_17:\n      mload(0x40)\n      tag_20\n      swap3\n      swap2\n      swap1\n      tag_21\n      jump\t// in\n    tag_20:\n      mload(0x40)\n      dup1\n      swap2\n      sub\n      swap1\n      return\n        /* \"todomain.sol\":273:464  function addTodo(uint _id, string memory _todoName) public {\r... */\n    tag_6:\n      tag_22\n      0x04\n      dup1\n      calldatasize\n      sub\n      dup2\n      add\n      swap1\n      tag_23\n      swap2\n      swap1\n      tag_24\n      jump\t// in\n    tag_23:\n      tag_25\n      jump\t// in\n    tag_22:\n      stop\n        /* \"todomain.sol\":582:689  function updateTodo(uint index) public view returns(TodoObj memory){\r... */\n    tag_10:\n        /* \"todomain.sol\":634:648  TodoObj memory */\n      tag_26\n      tag_27\n      jump\t// in\n    tag_26:\n        /* \"todomain.sol\":667:672  todos */\n      0x00\n        /* \"todomain.sol\":673:678  index */\n      dup3\n        /* \"todomain.sol\":667:679  todos[index] */\n      dup2\n      sload\n      dup2\n      lt\n      tag_29\n      jumpi\n      tag_30\n      tag_31\n      jump\t// in\n    tag_30:\n    tag_29:\n      swap1\n      0x00\n      mstore\n      keccak256(0x00, 0x20)\n      swap1\n      0x02\n      mul\n      add\n        /* \"todomain.sol\":660:679  return todos[index] */\n      mload(0x40)\n      dup1\n      0x40\n      add\n      0x40\n      mstore\n      swap1\n      dup2\n      0x00\n      dup3\n      add\n      sload\n      dup2\n      mstore\n      0x20\n      add\n      0x01\n      dup3\n      add\n      dup1\n      sload\n      tag_33\n      swap1\n      tag_34\n      jump\t// in\n    tag_33:\n      dup1\n      0x1f\n      add\n      0x20\n      dup1\n      swap2\n      div\n      mul\n      0x20\n      add\n      mload(0x40)\n      swap1\n      dup2\n      add\n      0x40\n      mstore\n      dup1\n      swap3\n      swap2\n      swap1\n      dup2\n      dup2\n      mstore\n      0x20\n      add\n      dup3\n      dup1\n      sload\n      tag_35\n      swap1\n      tag_34\n      jump\t// in\n    tag_35:\n      dup1\n      iszero\n      tag_36\n      jumpi\n      dup1\n      0x1f\n      lt\n      tag_37\n      jumpi\n      0x0100\n      dup1\n      dup4\n      sload\n      div\n      mul\n      dup4\n      mstore\n      swap2\n      0x20\n      add\n      swap2\n      jump(tag_36)\n    tag_37:\n      dup3\n      add\n      swap2\n      swap1\n      0x00\n      mstore\n      keccak256(0x00, 0x20)\n      swap1\n    tag_38:\n      dup2\n      sload\n      dup2\n      mstore\n      swap1\n      0x01\n      add\n      swap1\n      0x20\n      add\n      dup1\n      dup4\n      gt\n      tag_38\n      jumpi\n      dup3\n      swap1\n      sub\n      0x1f\n      and\n      dup3\n      add\n      swap2\n    tag_36:\n      pop\n      pop\n      pop\n      pop\n      pop\n      dup2\n      mstore\n      pop\n      pop\n      swap1\n      pop\n        /* \"todomain.sol\":582:689  function updateTodo(uint index) public view returns(TodoObj memory){\r... */\n      swap2\n      swap1\n      pop\n      jump\t// out\n        /* \"todomain.sol\":472:574  function showTodo() public view returns(TodoObj[] memory){\r... */\n    tag_14:\n        /* \"todomain.sol\":512:528  TodoObj[] memory */\n      0x60\n        /* \"todomain.sol\":547:554  todoMap */\n      0x01\n        /* \"todomain.sol\":547:566  todoMap[msg.sender] */\n      0x00\n        /* \"todomain.sol\":555:565  msg.sender */\n      caller\n        /* \"todomain.sol\":547:566  todoMap[msg.sender] */\n      0xffffffffffffffffffffffffffffffffffffffff\n      and\n      0xffffffffffffffffffffffffffffffffffffffff\n      and\n      dup2\n      mstore\n      0x20\n      add\n      swap1\n      dup2\n      mstore\n      0x20\n      add\n      0x00\n      keccak256\n        /* \"todomain.sol\":540:566  return todoMap[msg.sender] */\n      dup1\n      sload\n      dup1\n      0x20\n      mul\n      0x20\n      add\n      mload(0x40)\n      swap1\n      dup2\n      add\n      0x40\n      mstore\n      dup1\n      swap3\n      swap2\n      swap1\n      dup2\n      dup2\n      mstore\n      0x20\n      add\n      0x00\n      swap1\n    tag_40:\n      dup3\n      dup3\n      lt\n      iszero\n      tag_41\n      jumpi\n      dup4\n      dup3\n      swap1\n      0x00\n      mstore\n      keccak256(0x00, 0x20)\n      swap1\n      0x02\n      mul\n      add\n      mload(0x40)\n      dup1\n      0x40\n      add\n      0x40\n      mstore\n      swap1\n      dup2\n      0x00\n      dup3\n      add\n      sload\n      dup2\n      mstore\n      0x20\n      add\n      0x01\n      dup3\n      add\n      dup1\n      sload\n      tag_43\n      swap1\n      tag_34\n      jump\t// in\n    tag_43:\n      dup1\n      0x1f\n      add\n      0x20\n      dup1\n      swap2\n      div\n      mul\n      0x20\n      add\n      mload(0x40)\n      swap1\n      dup2\n      add\n      0x40\n      mstore\n      dup1\n      swap3\n      swap2\n      swap1\n      dup2\n      dup2\n      mstore\n      0x20\n      add\n      dup3\n      dup1\n      sload\n      tag_44\n      swap1\n      tag_34\n      jump\t// in\n    tag_44:\n      dup1\n      iszero\n      tag_45\n      jumpi\n      dup1\n      0x1f\n      lt\n      tag_46\n      jumpi\n      0x0100\n      dup1\n      dup4\n      sload\n      div\n      mul\n      dup4\n      mstore\n      swap2\n      0x20\n      add\n      swap2\n      jump(tag_45)\n    tag_46:\n      dup3\n      add\n      swap2\n      swap1\n      0x00\n      mstore\n      keccak256(0x00, 0x20)\n      swap1\n    tag_47:\n      dup2\n      sload\n      dup2\n      mstore\n      swap1\n      0x01\n      add\n      swap1\n      0x20\n      add\n      dup1\n      dup4\n      gt\n      tag_47\n      jumpi\n      dup3\n      swap1\n      sub\n      0x1f\n      and\n      dup3\n      add\n      swap2\n    tag_45:\n      pop\n      pop\n      pop\n      pop\n      pop\n      dup2\n      mstore\n      pop\n      pop\n      dup2\n      mstore\n      0x20\n      add\n      swap1\n      0x01\n      add\n      swap1\n      jump(tag_40)\n    tag_41:\n      pop\n      pop\n      pop\n      pop\n      swap1\n      pop\n        /* \"todomain.sol\":472:574  function showTodo() public view returns(TodoObj[] memory){\r... */\n      swap1\n      jump\t// out\n        /* \"todomain.sol\":200:222  TodoObj[] public todos */\n    tag_19:\n      0x00\n      dup2\n      dup2\n      sload\n      dup2\n      lt\n      tag_48\n      jumpi\n      0x00\n      dup1\n      revert\n    tag_48:\n      swap1\n      0x00\n      mstore\n      keccak256(0x00, 0x20)\n      swap1\n      0x02\n      mul\n      add\n      0x00\n      swap2\n      pop\n      swap1\n      pop\n      dup1\n      0x00\n      add\n      sload\n      swap1\n      dup1\n      0x01\n      add\n      dup1\n      sload\n      tag_50\n      swap1\n      tag_34\n      jump\t// in\n    tag_50:\n      dup1\n      0x1f\n      add\n      0x20\n      dup1\n      swap2\n      div\n      mul\n      0x20\n      add\n      mload(0x40)\n      swap1\n      dup2\n      add\n      0x40\n      mstore\n      dup1\n      swap3\n      swap2\n      swap1\n      dup2\n      dup2\n      mstore\n      0x20\n      add\n      dup3\n      dup1\n      sload\n      tag_51\n      swap1\n      tag_34\n      jump\t// in\n    tag_51:\n      dup1\n      iszero\n      tag_52\n      jumpi\n      dup1\n      0x1f\n      lt\n      tag_53\n      jumpi\n      0x0100\n      dup1\n      dup4\n      sload\n      div\n      mul\n      dup4\n      mstore\n      swap2\n      0x20\n      add\n      swap2\n      jump(tag_52)\n    tag_53:\n      dup3\n      add\n      swap2\n      swap1\n      0x00\n      mstore\n      keccak256(0x00, 0x20)\n      swap1\n    tag_54:\n      dup2\n      sload\n      dup2\n      mstore\n      swap1\n      0x01\n      add\n      swap1\n      0x20\n      add\n      dup1\n      dup4\n      gt\n      tag_54\n      jumpi\n      dup3\n      swap1\n      sub\n      0x1f\n      and\n      dup3\n      add\n      swap2\n    tag_52:\n      pop\n      pop\n      pop\n      pop\n      pop\n      swap1\n      pop\n      dup3\n      jump\t// out\n        /* \"todomain.sol\":273:464  function addTodo(uint _id, string memory _todoName) public {\r... */\n    tag_25:\n        /* \"todomain.sol\":343:348  todos */\n      0x00\n        /* \"todomain.sol\":354:376  TodoObj(_id,_todoName) */\n      mload(0x40)\n      dup1\n      0x40\n      add\n      0x40\n      mstore\n      dup1\n        /* \"todomain.sol\":362:365  _id */\n      dup5\n        /* \"todomain.sol\":354:376  TodoObj(_id,_todoName) */\n      dup2\n      mstore\n      0x20\n      add\n        /* \"todomain.sol\":366:375  _todoName */\n      dup4\n        /* \"todomain.sol\":354:376  TodoObj(_id,_todoName) */\n      dup2\n      mstore\n      pop\n        /* \"todomain.sol\":343:377  todos.push(TodoObj(_id,_todoName)) */\n      swap1\n      dup1\n      0x01\n      dup2\n      sload\n      add\n      dup1\n      dup3\n      sstore\n      dup1\n      swap2\n      pop\n      pop\n      0x01\n      swap1\n      sub\n      swap1\n      0x00\n      mstore\n      keccak256(0x00, 0x20)\n      swap1\n      0x02\n      mul\n      add\n      0x00\n      swap1\n      swap2\n      swap1\n      swap2\n      swap1\n      swap2\n      pop\n      0x00\n      dup3\n      add\n      mload\n      dup2\n      0x00\n      add\n      sstore\n      0x20\n      dup3\n      add\n      mload\n      dup2\n      0x01\n      add\n      swap1\n      dup1\n      mload\n      swap1\n      0x20\n      add\n      swap1\n      tag_57\n      swap3\n      swap2\n      swap1\n      tag_58\n      jump\t// in\n    tag_57:\n      pop\n      pop\n      pop\n        /* \"todomain.sol\":410:415  todos */\n      0x00\n        /* \"todomain.sol\":388:395  todoMap */\n      0x01\n        /* \"todomain.sol\":388:407  todoMap[msg.sender] */\n      0x00\n        /* \"todomain.sol\":396:406  msg.sender */\n      caller\n        /* \"todomain.sol\":388:407  todoMap[msg.sender] */\n      0xffffffffffffffffffffffffffffffffffffffff\n      and\n      0xffffffffffffffffffffffffffffffffffffffff\n      and\n      dup2\n      mstore\n      0x20\n      add\n      swap1\n      dup2\n      mstore\n      0x20\n      add\n      0x00\n      keccak256\n        /* \"todomain.sol\":388:415  todoMap[msg.sender] = todos */\n      swap1\n      dup1\n      sload\n      tag_59\n      swap3\n      swap2\n      swap1\n      tag_60\n      jump\t// in\n    tag_59:\n      pop\n        /* \"todomain.sol\":431:456  TaskCreate(_id,_todoName) */\n      0x3c981eaf8f806637941d1237961055d66e8636b71bc453db0c9e245a154760fd\n        /* \"todomain.sol\":442:445  _id */\n      dup3\n        /* \"todomain.sol\":446:455  _todoName */\n      dup3\n        /* \"todomain.sol\":431:456  TaskCreate(_id,_todoName) */\n      mload(0x40)\n      tag_61\n      swap3\n      swap2\n      swap1\n      tag_21\n      jump\t// in\n    tag_61:\n      mload(0x40)\n      dup1\n      swap2\n      sub\n      swap1\n      log1\n        /* \"todomain.sol\":273:464  function addTodo(uint _id, string memory _todoName) public {\r... */\n      pop\n      pop\n      jump\t// out\n    tag_27:\n      mload(0x40)\n      dup1\n      0x40\n      add\n      0x40\n      mstore\n      dup1\n      0x00\n      dup2\n      mstore\n      0x20\n      add\n      0x60\n      dup2\n      mstore\n      pop\n      swap1\n      jump\t// out\n    tag_58:\n      dup3\n      dup1\n      sload\n      tag_62\n      swap1\n      tag_34\n      jump\t// in\n    tag_62:\n      swap1\n      0x00\n      mstore\n      keccak256(0x00, 0x20)\n      swap1\n      0x1f\n      add\n      0x20\n      swap1\n      div\n      dup2\n      add\n      swap3\n      dup3\n      tag_64\n      jumpi\n      0x00\n      dup6\n      sstore\n      jump(tag_63)\n    tag_64:\n      dup3\n      0x1f\n      lt\n      tag_65\n      jumpi\n      dup1\n      mload\n      not(0xff)\n      and\n      dup4\n      dup1\n      add\n      or\n      dup6\n      sstore\n      jump(tag_63)\n    tag_65:\n      dup3\n      dup1\n      add\n      0x01\n      add\n      dup6\n      sstore\n      dup3\n      iszero\n      tag_63\n      jumpi\n      swap2\n      dup3\n      add\n    tag_66:\n      dup3\n      dup2\n      gt\n      iszero\n      tag_67\n      jumpi\n      dup3\n      mload\n      dup3\n      sstore\n      swap2\n      0x20\n      add\n      swap2\n      swap1\n      0x01\n      add\n      swap1\n      jump(tag_66)\n    tag_67:\n    tag_63:\n      pop\n      swap1\n      pop\n      tag_68\n      swap2\n      swap1\n      tag_69\n      jump\t// in\n    tag_68:\n      pop\n      swap1\n      jump\t// out\n    tag_60:\n      dup3\n      dup1\n      sload\n      dup3\n      dup3\n      sstore\n      swap1\n      0x00\n      mstore\n      keccak256(0x00, 0x20)\n      swap1\n      0x02\n      mul\n      dup2\n      add\n      swap3\n      dup3\n      iszero\n      tag_70\n      jumpi\n      0x00\n      mstore\n      keccak256(0x00, 0x20)\n      swap2\n      0x02\n      mul\n      dup3\n      add\n    tag_71:\n      dup3\n      dup2\n      gt\n      iszero\n      tag_72\n      jumpi\n      dup3\n      dup3\n      0x00\n      dup3\n      add\n      sload\n      dup2\n      0x00\n      add\n      sstore\n      0x01\n      dup3\n      add\n      dup2\n      0x01\n      add\n      swap1\n      dup1\n      sload\n      tag_73\n      swap1\n      tag_34\n      jump\t// in\n    tag_73:\n      tag_74\n      swap3\n      swap2\n      swap1\n      tag_75\n      jump\t// in\n    tag_74:\n      pop\n      pop\n      pop\n      swap2\n      0x02\n      add\n      swap2\n      swap1\n      0x02\n      add\n      swap1\n      jump(tag_71)\n    tag_72:\n    tag_70:\n      pop\n      swap1\n      pop\n      tag_76\n      swap2\n      swap1\n      tag_77\n      jump\t// in\n    tag_76:\n      pop\n      swap1\n      jump\t// out\n    tag_69:\n    tag_78:\n      dup1\n      dup3\n      gt\n      iszero\n      tag_79\n      jumpi\n      0x00\n      dup2\n      0x00\n      swap1\n      sstore\n      pop\n      0x01\n      add\n      jump(tag_78)\n    tag_79:\n      pop\n      swap1\n      jump\t// out\n    tag_75:\n      dup3\n      dup1\n      sload\n      tag_80\n      swap1\n      tag_34\n      jump\t// in\n    tag_80:\n      swap1\n      0x00\n      mstore\n      keccak256(0x00, 0x20)\n      swap1\n      0x1f\n      add\n      0x20\n      swap1\n      div\n      dup2\n      add\n      swap3\n      dup3\n      tag_82\n      jumpi\n      0x00\n      dup6\n      sstore\n      jump(tag_81)\n    tag_82:\n      dup3\n      0x1f\n      lt\n      tag_83\n      jumpi\n      dup1\n      sload\n      dup6\n      sstore\n      jump(tag_81)\n    tag_83:\n      dup3\n      dup1\n      add\n      0x01\n      add\n      dup6\n      sstore\n      dup3\n      iszero\n      tag_81\n      jumpi\n      0x00\n      mstore\n      keccak256(0x00, 0x20)\n      swap2\n      0x1f\n      add\n      0x20\n      swap1\n      div\n      dup3\n      add\n    tag_84:\n      dup3\n      dup2\n      gt\n      iszero\n      tag_85\n      jumpi\n      dup3\n      sload\n      dup3\n      sstore\n      swap2\n      0x01\n      add\n      swap2\n      swap1\n      0x01\n      add\n      swap1\n      jump(tag_84)\n    tag_85:\n    tag_81:\n      pop\n      swap1\n      pop\n      tag_86\n      swap2\n      swap1\n      tag_69\n      jump\t// in\n    tag_86:\n      pop\n      swap1\n      jump\t// out\n    tag_77:\n    tag_87:\n      dup1\n      dup3\n      gt\n      iszero\n      tag_88\n      jumpi\n      0x00\n      dup1\n      dup3\n      add\n      0x00\n      swap1\n      sstore\n      0x01\n      dup3\n      add\n      0x00\n      tag_89\n      swap2\n      swap1\n      tag_90\n      jump\t// in\n    tag_89:\n      pop\n      0x02\n      add\n      jump(tag_87)\n    tag_88:\n      pop\n      swap1\n      jump\t// out\n    tag_90:\n      pop\n      dup1\n      sload\n      tag_91\n      swap1\n      tag_34\n      jump\t// in\n    tag_91:\n      0x00\n      dup3\n      sstore\n      dup1\n      0x1f\n      lt\n      tag_93\n      jumpi\n      pop\n      jump(tag_92)\n    tag_93:\n      0x1f\n      add\n      0x20\n      swap1\n      div\n      swap1\n      0x00\n      mstore\n      keccak256(0x00, 0x20)\n      swap1\n      dup2\n      add\n      swap1\n      tag_94\n      swap2\n      swap1\n      tag_69\n      jump\t// in\n    tag_94:\n    tag_92:\n      pop\n      jump\t// out\n        /* \"#utility.yul\":7:419   */\n    tag_96:\n        /* \"#utility.yul\":85:90   */\n      0x00\n        /* \"#utility.yul\":110:176   */\n      tag_98\n        /* \"#utility.yul\":126:175   */\n      tag_99\n        /* \"#utility.yul\":168:174   */\n      dup5\n        /* \"#utility.yul\":126:175   */\n      tag_100\n      jump\t// in\n    tag_99:\n        /* \"#utility.yul\":110:176   */\n      tag_101\n      jump\t// in\n    tag_98:\n        /* \"#utility.yul\":101:176   */\n      swap1\n      pop\n        /* \"#utility.yul\":199:205   */\n      dup3\n        /* \"#utility.yul\":192:197   */\n      dup2\n        /* \"#utility.yul\":185:206   */\n      mstore\n        /* \"#utility.yul\":237:241   */\n      0x20\n        /* \"#utility.yul\":230:235   */\n      dup2\n        /* \"#utility.yul\":226:242   */\n      add\n        /* \"#utility.yul\":275:278   */\n      dup5\n        /* \"#utility.yul\":266:272   */\n      dup5\n        /* \"#utility.yul\":261:264   */\n      dup5\n        /* \"#utility.yul\":257:273   */\n      add\n        /* \"#utility.yul\":254:279   */\n      gt\n        /* \"#utility.yul\":251:363   */\n      iszero\n      tag_102\n      jumpi\n        /* \"#utility.yul\":282:361   */\n      tag_103\n      tag_104\n      jump\t// in\n    tag_103:\n        /* \"#utility.yul\":251:363   */\n    tag_102:\n        /* \"#utility.yul\":372:413   */\n      tag_105\n        /* \"#utility.yul\":406:412   */\n      dup5\n        /* \"#utility.yul\":401:404   */\n      dup3\n        /* \"#utility.yul\":396:399   */\n      dup6\n        /* \"#utility.yul\":372:413   */\n      tag_106\n      jump\t// in\n    tag_105:\n        /* \"#utility.yul\":91:419   */\n      pop\n        /* \"#utility.yul\":7:419   */\n      swap4\n      swap3\n      pop\n      pop\n      pop\n      jump\t// out\n        /* \"#utility.yul\":439:779   */\n    tag_107:\n        /* \"#utility.yul\":495:500   */\n      0x00\n        /* \"#utility.yul\":544:547   */\n      dup3\n        /* \"#utility.yul\":537:541   */\n      0x1f\n        /* \"#utility.yul\":529:535   */\n      dup4\n        /* \"#utility.yul\":525:542   */\n      add\n        /* \"#utility.yul\":521:548   */\n      slt\n        /* \"#utility.yul\":511:633   */\n      tag_109\n      jumpi\n        /* \"#utility.yul\":552:631   */\n      tag_110\n      tag_111\n      jump\t// in\n    tag_110:\n        /* \"#utility.yul\":511:633   */\n    tag_109:\n        /* \"#utility.yul\":669:675   */\n      dup2\n        /* \"#utility.yul\":656:676   */\n      calldataload\n        /* \"#utility.yul\":694:773   */\n      tag_112\n        /* \"#utility.yul\":769:772   */\n      dup5\n        /* \"#utility.yul\":761:767   */\n      dup3\n        /* \"#utility.yul\":754:758   */\n      0x20\n        /* \"#utility.yul\":746:752   */\n      dup7\n        /* \"#utility.yul\":742:759   */\n      add\n        /* \"#utility.yul\":694:773   */\n      tag_96\n      jump\t// in\n    tag_112:\n        /* \"#utility.yul\":685:773   */\n      swap2\n      pop\n        /* \"#utility.yul\":501:779   */\n      pop\n        /* \"#utility.yul\":439:779   */\n      swap3\n      swap2\n      pop\n      pop\n      jump\t// out\n        /* \"#utility.yul\":785:924   */\n    tag_113:\n        /* \"#utility.yul\":831:836   */\n      0x00\n        /* \"#utility.yul\":869:875   */\n      dup2\n        /* \"#utility.yul\":856:876   */\n      calldataload\n        /* \"#utility.yul\":847:876   */\n      swap1\n      pop\n        /* \"#utility.yul\":885:918   */\n      tag_115\n        /* \"#utility.yul\":912:917   */\n      dup2\n        /* \"#utility.yul\":885:918   */\n      tag_116\n      jump\t// in\n    tag_115:\n        /* \"#utility.yul\":785:924   */\n      swap3\n      swap2\n      pop\n      pop\n      jump\t// out\n        /* \"#utility.yul\":930:1259   */\n    tag_9:\n        /* \"#utility.yul\":989:995   */\n      0x00\n        /* \"#utility.yul\":1038:1040   */\n      0x20\n        /* \"#utility.yul\":1026:1035   */\n      dup3\n        /* \"#utility.yul\":1017:1024   */\n      dup5\n        /* \"#utility.yul\":1013:1036   */\n      sub\n        /* \"#utility.yul\":1009:1041   */\n      slt\n        /* \"#utility.yul\":1006:1125   */\n      iszero\n      tag_118\n      jumpi\n        /* \"#utility.yul\":1044:1123   */\n      tag_119\n      tag_120\n      jump\t// in\n    tag_119:\n        /* \"#utility.yul\":1006:1125   */\n    tag_118:\n        /* \"#utility.yul\":1164:1165   */\n      0x00\n        /* \"#utility.yul\":1189:1242   */\n      tag_121\n        /* \"#utility.yul\":1234:1241   */\n      dup5\n        /* \"#utility.yul\":1225:1231   */\n      dup3\n        /* \"#utility.yul\":1214:1223   */\n      dup6\n        /* \"#utility.yul\":1210:1232   */\n      add\n        /* \"#utility.yul\":1189:1242   */\n      tag_113\n      jump\t// in\n    tag_121:\n        /* \"#utility.yul\":1179:1242   */\n      swap2\n      pop\n        /* \"#utility.yul\":1135:1252   */\n      pop\n        /* \"#utility.yul\":930:1259   */\n      swap3\n      swap2\n      pop\n      pop\n      jump\t// out\n        /* \"#utility.yul\":1265:1919   */\n    tag_24:\n        /* \"#utility.yul\":1343:1349   */\n      0x00\n        /* \"#utility.yul\":1351:1357   */\n      dup1\n        /* \"#utility.yul\":1400:1402   */\n      0x40\n        /* \"#utility.yul\":1388:1397   */\n      dup4\n        /* \"#utility.yul\":1379:1386   */\n      dup6\n        /* \"#utility.yul\":1375:1398   */\n      sub\n        /* \"#utility.yul\":1371:1403   */\n      slt\n        /* \"#utility.yul\":1368:1487   */\n      iszero\n      tag_123\n      jumpi\n        /* \"#utility.yul\":1406:1485   */\n      tag_124\n      tag_120\n      jump\t// in\n    tag_124:\n        /* \"#utility.yul\":1368:1487   */\n    tag_123:\n        /* \"#utility.yul\":1526:1527   */\n      0x00\n        /* \"#utility.yul\":1551:1604   */\n      tag_125\n        /* \"#utility.yul\":1596:1603   */\n      dup6\n        /* \"#utility.yul\":1587:1593   */\n      dup3\n        /* \"#utility.yul\":1576:1585   */\n      dup7\n        /* \"#utility.yul\":1572:1594   */\n      add\n        /* \"#utility.yul\":1551:1604   */\n      tag_113\n      jump\t// in\n    tag_125:\n        /* \"#utility.yul\":1541:1604   */\n      swap3\n      pop\n        /* \"#utility.yul\":1497:1614   */\n      pop\n        /* \"#utility.yul\":1681:1683   */\n      0x20\n        /* \"#utility.yul\":1670:1679   */\n      dup4\n        /* \"#utility.yul\":1666:1684   */\n      add\n        /* \"#utility.yul\":1653:1685   */\n      calldataload\n        /* \"#utility.yul\":1712:1730   */\n      0xffffffffffffffff\n        /* \"#utility.yul\":1704:1710   */\n      dup2\n        /* \"#utility.yul\":1701:1731   */\n      gt\n        /* \"#utility.yul\":1698:1815   */\n      iszero\n      tag_126\n      jumpi\n        /* \"#utility.yul\":1734:1813   */\n      tag_127\n      tag_128\n      jump\t// in\n    tag_127:\n        /* \"#utility.yul\":1698:1815   */\n    tag_126:\n        /* \"#utility.yul\":1839:1902   */\n      tag_129\n        /* \"#utility.yul\":1894:1901   */\n      dup6\n        /* \"#utility.yul\":1885:1891   */\n      dup3\n        /* \"#utility.yul\":1874:1883   */\n      dup7\n        /* \"#utility.yul\":1870:1892   */\n      add\n        /* \"#utility.yul\":1839:1902   */\n      tag_107\n      jump\t// in\n    tag_129:\n        /* \"#utility.yul\":1829:1902   */\n      swap2\n      pop\n        /* \"#utility.yul\":1624:1912   */\n      pop\n        /* \"#utility.yul\":1265:1919   */\n      swap3\n      pop\n      swap3\n      swap1\n      pop\n      jump\t// out\n        /* \"#utility.yul\":1925:2169   */\n    tag_130:\n        /* \"#utility.yul\":2038:2048   */\n      0x00\n        /* \"#utility.yul\":2073:2163   */\n      tag_132\n        /* \"#utility.yul\":2159:2162   */\n      dup4\n        /* \"#utility.yul\":2151:2157   */\n      dup4\n        /* \"#utility.yul\":2073:2163   */\n      tag_133\n      jump\t// in\n    tag_132:\n        /* \"#utility.yul\":2059:2163   */\n      swap1\n      pop\n        /* \"#utility.yul\":1925:2169   */\n      swap3\n      swap2\n      pop\n      pop\n      jump\t// out\n        /* \"#utility.yul\":2237:3324   */\n    tag_134:\n        /* \"#utility.yul\":2400:2403   */\n      0x00\n        /* \"#utility.yul\":2429:2505   */\n      tag_136\n        /* \"#utility.yul\":2499:2504   */\n      dup3\n        /* \"#utility.yul\":2429:2505   */\n      tag_137\n      jump\t// in\n    tag_136:\n        /* \"#utility.yul\":2521:2629   */\n      tag_138\n        /* \"#utility.yul\":2622:2628   */\n      dup2\n        /* \"#utility.yul\":2617:2620   */\n      dup6\n        /* \"#utility.yul\":2521:2629   */\n      tag_139\n      jump\t// in\n    tag_138:\n        /* \"#utility.yul\":2514:2629   */\n      swap4\n      pop\n        /* \"#utility.yul\":2655:2658   */\n      dup4\n        /* \"#utility.yul\":2700:2704   */\n      0x20\n        /* \"#utility.yul\":2692:2698   */\n      dup3\n        /* \"#utility.yul\":2688:2705   */\n      mul\n        /* \"#utility.yul\":2683:2686   */\n      dup6\n        /* \"#utility.yul\":2679:2706   */\n      add\n        /* \"#utility.yul\":2730:2808   */\n      tag_140\n        /* \"#utility.yul\":2802:2807   */\n      dup6\n        /* \"#utility.yul\":2730:2808   */\n      tag_141\n      jump\t// in\n    tag_140:\n        /* \"#utility.yul\":2831:2838   */\n      dup1\n        /* \"#utility.yul\":2862:2863   */\n      0x00\n        /* \"#utility.yul\":2847:3279   */\n    tag_142:\n        /* \"#utility.yul\":2872:2878   */\n      dup6\n        /* \"#utility.yul\":2869:2870   */\n      dup2\n        /* \"#utility.yul\":2866:2879   */\n      lt\n        /* \"#utility.yul\":2847:3279   */\n      iszero\n      tag_144\n      jumpi\n        /* \"#utility.yul\":2943:2952   */\n      dup5\n        /* \"#utility.yul\":2937:2941   */\n      dup5\n        /* \"#utility.yul\":2933:2953   */\n      sub\n        /* \"#utility.yul\":2928:2931   */\n      dup10\n        /* \"#utility.yul\":2921:2954   */\n      mstore\n        /* \"#utility.yul\":2994:3000   */\n      dup2\n        /* \"#utility.yul\":2988:3001   */\n      mload\n        /* \"#utility.yul\":3022:3130   */\n      tag_145\n        /* \"#utility.yul\":3125:3129   */\n      dup6\n        /* \"#utility.yul\":3110:3123   */\n      dup3\n        /* \"#utility.yul\":3022:3130   */\n      tag_130\n      jump\t// in\n    tag_145:\n        /* \"#utility.yul\":3014:3130   */\n      swap5\n      pop\n        /* \"#utility.yul\":3153:3235   */\n      tag_146\n        /* \"#utility.yul\":3228:3234   */\n      dup4\n        /* \"#utility.yul\":3153:3235   */\n      tag_147\n      jump\t// in\n    tag_146:\n        /* \"#utility.yul\":3143:3235   */\n      swap3\n      pop\n        /* \"#utility.yul\":3264:3268   */\n      0x20\n        /* \"#utility.yul\":3259:3262   */\n      dup11\n        /* \"#utility.yul\":3255:3269   */\n      add\n        /* \"#utility.yul\":3248:3269   */\n      swap10\n      pop\n        /* \"#utility.yul\":2907:3279   */\n      pop\n        /* \"#utility.yul\":2894:2895   */\n      0x01\n        /* \"#utility.yul\":2891:2892   */\n      dup2\n        /* \"#utility.yul\":2887:2896   */\n      add\n        /* \"#utility.yul\":2882:2896   */\n      swap1\n      pop\n        /* \"#utility.yul\":2847:3279   */\n      jump(tag_142)\n    tag_144:\n        /* \"#utility.yul\":2851:2865   */\n      pop\n        /* \"#utility.yul\":3295:3299   */\n      dup3\n        /* \"#utility.yul\":3288:3299   */\n      swap8\n      pop\n        /* \"#utility.yul\":3315:3318   */\n      dup8\n        /* \"#utility.yul\":3308:3318   */\n      swap6\n      pop\n        /* \"#utility.yul\":2405:3324   */\n      pop\n      pop\n      pop\n      pop\n      pop\n        /* \"#utility.yul\":2237:3324   */\n      swap3\n      swap2\n      pop\n      pop\n      jump\t// out\n        /* \"#utility.yul\":3330:3674   */\n    tag_148:\n        /* \"#utility.yul\":3408:3411   */\n      0x00\n        /* \"#utility.yul\":3436:3475   */\n      tag_150\n        /* \"#utility.yul\":3469:3474   */\n      dup3\n        /* \"#utility.yul\":3436:3475   */\n      tag_151\n      jump\t// in\n    tag_150:\n        /* \"#utility.yul\":3491:3552   */\n      tag_152\n        /* \"#utility.yul\":3545:3551   */\n      dup2\n        /* \"#utility.yul\":3540:3543   */\n      dup6\n        /* \"#utility.yul\":3491:3552   */\n      tag_153\n      jump\t// in\n    tag_152:\n        /* \"#utility.yul\":3484:3552   */\n      swap4\n      pop\n        /* \"#utility.yul\":3561:3613   */\n      tag_154\n        /* \"#utility.yul\":3606:3612   */\n      dup2\n        /* \"#utility.yul\":3601:3604   */\n      dup6\n        /* \"#utility.yul\":3594:3598   */\n      0x20\n        /* \"#utility.yul\":3587:3592   */\n      dup7\n        /* \"#utility.yul\":3583:3599   */\n      add\n        /* \"#utility.yul\":3561:3613   */\n      tag_155\n      jump\t// in\n    tag_154:\n        /* \"#utility.yul\":3638:3667   */\n      tag_156\n        /* \"#utility.yul\":3660:3666   */\n      dup2\n        /* \"#utility.yul\":3638:3667   */\n      tag_157\n      jump\t// in\n    tag_156:\n        /* \"#utility.yul\":3633:3636   */\n      dup5\n        /* \"#utility.yul\":3629:3668   */\n      add\n        /* \"#utility.yul\":3622:3668   */\n      swap2\n      pop\n        /* \"#utility.yul\":3412:3674   */\n      pop\n        /* \"#utility.yul\":3330:3674   */\n      swap3\n      swap2\n      pop\n      pop\n      jump\t// out\n        /* \"#utility.yul\":3680:4044   */\n    tag_158:\n        /* \"#utility.yul\":3768:3771   */\n      0x00\n        /* \"#utility.yul\":3796:3835   */\n      tag_160\n        /* \"#utility.yul\":3829:3834   */\n      dup3\n        /* \"#utility.yul\":3796:3835   */\n      tag_151\n      jump\t// in\n    tag_160:\n        /* \"#utility.yul\":3851:3922   */\n      tag_161\n        /* \"#utility.yul\":3915:3921   */\n      dup2\n        /* \"#utility.yul\":3910:3913   */\n      dup6\n        /* \"#utility.yul\":3851:3922   */\n      tag_162\n      jump\t// in\n    tag_161:\n        /* \"#utility.yul\":3844:3922   */\n      swap4\n      pop\n        /* \"#utility.yul\":3931:3983   */\n      tag_163\n        /* \"#utility.yul\":3976:3982   */\n      dup2\n        /* \"#utility.yul\":3971:3974   */\n      dup6\n        /* \"#utility.yul\":3964:3968   */\n      0x20\n        /* \"#utility.yul\":3957:3962   */\n      dup7\n        /* \"#utility.yul\":3953:3969   */\n      add\n        /* \"#utility.yul\":3931:3983   */\n      tag_155\n      jump\t// in\n    tag_163:\n        /* \"#utility.yul\":4008:4037   */\n      tag_164\n        /* \"#utility.yul\":4030:4036   */\n      dup2\n        /* \"#utility.yul\":4008:4037   */\n      tag_157\n      jump\t// in\n    tag_164:\n        /* \"#utility.yul\":4003:4006   */\n      dup5\n        /* \"#utility.yul\":3999:4038   */\n      add\n        /* \"#utility.yul\":3992:4038   */\n      swap2\n      pop\n        /* \"#utility.yul\":3772:4044   */\n      pop\n        /* \"#utility.yul\":3680:4044   */\n      swap3\n      swap2\n      pop\n      pop\n      jump\t// out\n        /* \"#utility.yul\":4108:4700   */\n    tag_133:\n        /* \"#utility.yul\":4211:4214   */\n      0x00\n        /* \"#utility.yul\":4247:4251   */\n      0x40\n        /* \"#utility.yul\":4242:4245   */\n      dup4\n        /* \"#utility.yul\":4238:4252   */\n      add\n        /* \"#utility.yul\":4332:4336   */\n      0x00\n        /* \"#utility.yul\":4325:4330   */\n      dup4\n        /* \"#utility.yul\":4321:4337   */\n      add\n        /* \"#utility.yul\":4315:4338   */\n      mload\n        /* \"#utility.yul\":4351:4414   */\n      tag_166\n        /* \"#utility.yul\":4408:4412   */\n      0x00\n        /* \"#utility.yul\":4403:4406   */\n      dup7\n        /* \"#utility.yul\":4399:4413   */\n      add\n        /* \"#utility.yul\":4385:4397   */\n      dup3\n        /* \"#utility.yul\":4351:4414   */\n      tag_167\n      jump\t// in\n    tag_166:\n        /* \"#utility.yul\":4262:4424   */\n      pop\n        /* \"#utility.yul\":4510:4514   */\n      0x20\n        /* \"#utility.yul\":4503:4508   */\n      dup4\n        /* \"#utility.yul\":4499:4515   */\n      add\n        /* \"#utility.yul\":4493:4516   */\n      mload\n        /* \"#utility.yul\":4563:4566   */\n      dup5\n        /* \"#utility.yul\":4557:4561   */\n      dup3\n        /* \"#utility.yul\":4553:4567   */\n      sub\n        /* \"#utility.yul\":4546:4550   */\n      0x20\n        /* \"#utility.yul\":4541:4544   */\n      dup7\n        /* \"#utility.yul\":4537:4551   */\n      add\n        /* \"#utility.yul\":4530:4568   */\n      mstore\n        /* \"#utility.yul\":4589:4662   */\n      tag_168\n        /* \"#utility.yul\":4657:4661   */\n      dup3\n        /* \"#utility.yul\":4643:4655   */\n      dup3\n        /* \"#utility.yul\":4589:4662   */\n      tag_148\n      jump\t// in\n    tag_168:\n        /* \"#utility.yul\":4581:4662   */\n      swap2\n      pop\n        /* \"#utility.yul\":4434:4673   */\n      pop\n        /* \"#utility.yul\":4690:4694   */\n      dup1\n        /* \"#utility.yul\":4683:4694   */\n      swap2\n      pop\n        /* \"#utility.yul\":4216:4700   */\n      pop\n        /* \"#utility.yul\":4108:4700   */\n      swap3\n      swap2\n      pop\n      pop\n      jump\t// out\n        /* \"#utility.yul\":4764:5366   */\n    tag_169:\n        /* \"#utility.yul\":4877:4880   */\n      0x00\n        /* \"#utility.yul\":4913:4917   */\n      0x40\n        /* \"#utility.yul\":4908:4911   */\n      dup4\n        /* \"#utility.yul\":4904:4918   */\n      add\n        /* \"#utility.yul\":4998:5002   */\n      0x00\n        /* \"#utility.yul\":4991:4996   */\n      dup4\n        /* \"#utility.yul\":4987:5003   */\n      add\n        /* \"#utility.yul\":4981:5004   */\n      mload\n        /* \"#utility.yul\":5017:5080   */\n      tag_171\n        /* \"#utility.yul\":5074:5078   */\n      0x00\n        /* \"#utility.yul\":5069:5072   */\n      dup7\n        /* \"#utility.yul\":5065:5079   */\n      add\n        /* \"#utility.yul\":5051:5063   */\n      dup3\n        /* \"#utility.yul\":5017:5080   */\n      tag_167\n      jump\t// in\n    tag_171:\n        /* \"#utility.yul\":4928:5090   */\n      pop\n        /* \"#utility.yul\":5176:5180   */\n      0x20\n        /* \"#utility.yul\":5169:5174   */\n      dup4\n        /* \"#utility.yul\":5165:5181   */\n      add\n        /* \"#utility.yul\":5159:5182   */\n      mload\n        /* \"#utility.yul\":5229:5232   */\n      dup5\n        /* \"#utility.yul\":5223:5227   */\n      dup3\n        /* \"#utility.yul\":5219:5233   */\n      sub\n        /* \"#utility.yul\":5212:5216   */\n      0x20\n        /* \"#utility.yul\":5207:5210   */\n      dup7\n        /* \"#utility.yul\":5203:5217   */\n      add\n        /* \"#utility.yul\":5196:5234   */\n      mstore\n        /* \"#utility.yul\":5255:5328   */\n      tag_172\n        /* \"#utility.yul\":5323:5327   */\n      dup3\n        /* \"#utility.yul\":5309:5321   */\n      dup3\n        /* \"#utility.yul\":5255:5328   */\n      tag_148\n      jump\t// in\n    tag_172:\n        /* \"#utility.yul\":5247:5328   */\n      swap2\n      pop\n        /* \"#utility.yul\":5100:5339   */\n      pop\n        /* \"#utility.yul\":5356:5360   */\n      dup1\n        /* \"#utility.yul\":5349:5360   */\n      swap2\n      pop\n        /* \"#utility.yul\":4882:5366   */\n      pop\n        /* \"#utility.yul\":4764:5366   */\n      swap3\n      swap2\n      pop\n      pop\n      jump\t// out\n        /* \"#utility.yul\":5372:5480   */\n    tag_167:\n        /* \"#utility.yul\":5449:5473   */\n      tag_174\n        /* \"#utility.yul\":5467:5472   */\n      dup2\n        /* \"#utility.yul\":5449:5473   */\n      tag_175\n      jump\t// in\n    tag_174:\n        /* \"#utility.yul\":5444:5447   */\n      dup3\n        /* \"#utility.yul\":5437:5474   */\n      mstore\n        /* \"#utility.yul\":5372:5480   */\n      pop\n      pop\n      jump\t// out\n        /* \"#utility.yul\":5486:5604   */\n    tag_176:\n        /* \"#utility.yul\":5573:5597   */\n      tag_178\n        /* \"#utility.yul\":5591:5596   */\n      dup2\n        /* \"#utility.yul\":5573:5597   */\n      tag_175\n      jump\t// in\n    tag_178:\n        /* \"#utility.yul\":5568:5571   */\n      dup3\n        /* \"#utility.yul\":5561:5598   */\n      mstore\n        /* \"#utility.yul\":5486:5604   */\n      pop\n      pop\n      jump\t// out\n        /* \"#utility.yul\":5610:6071   */\n    tag_16:\n        /* \"#utility.yul\":5797:5801   */\n      0x00\n        /* \"#utility.yul\":5835:5837   */\n      0x20\n        /* \"#utility.yul\":5824:5833   */\n      dup3\n        /* \"#utility.yul\":5820:5838   */\n      add\n        /* \"#utility.yul\":5812:5838   */\n      swap1\n      pop\n        /* \"#utility.yul\":5884:5893   */\n      dup2\n        /* \"#utility.yul\":5878:5882   */\n      dup2\n        /* \"#utility.yul\":5874:5894   */\n      sub\n        /* \"#utility.yul\":5870:5871   */\n      0x00\n        /* \"#utility.yul\":5859:5868   */\n      dup4\n        /* \"#utility.yul\":5855:5872   */\n      add\n        /* \"#utility.yul\":5848:5895   */\n      mstore\n        /* \"#utility.yul\":5912:6064   */\n      tag_180\n        /* \"#utility.yul\":6059:6063   */\n      dup2\n        /* \"#utility.yul\":6050:6056   */\n      dup5\n        /* \"#utility.yul\":5912:6064   */\n      tag_134\n      jump\t// in\n    tag_180:\n        /* \"#utility.yul\":5904:6064   */\n      swap1\n      pop\n        /* \"#utility.yul\":5610:6071   */\n      swap3\n      swap2\n      pop\n      pop\n      jump\t// out\n        /* \"#utility.yul\":6077:6438   */\n    tag_12:\n        /* \"#utility.yul\":6214:6218   */\n      0x00\n        /* \"#utility.yul\":6252:6254   */\n      0x20\n        /* \"#utility.yul\":6241:6250   */\n      dup3\n        /* \"#utility.yul\":6237:6255   */\n      add\n        /* \"#utility.yul\":6229:6255   */\n      swap1\n      pop\n        /* \"#utility.yul\":6301:6310   */\n      dup2\n        /* \"#utility.yul\":6295:6299   */\n      dup2\n        /* \"#utility.yul\":6291:6311   */\n      sub\n        /* \"#utility.yul\":6287:6288   */\n      0x00\n        /* \"#utility.yul\":6276:6285   */\n      dup4\n        /* \"#utility.yul\":6272:6289   */\n      add\n        /* \"#utility.yul\":6265:6312   */\n      mstore\n        /* \"#utility.yul\":6329:6431   */\n      tag_182\n        /* \"#utility.yul\":6426:6430   */\n      dup2\n        /* \"#utility.yul\":6417:6423   */\n      dup5\n        /* \"#utility.yul\":6329:6431   */\n      tag_169\n      jump\t// in\n    tag_182:\n        /* \"#utility.yul\":6321:6431   */\n      swap1\n      pop\n        /* \"#utility.yul\":6077:6438   */\n      swap3\n      swap2\n      pop\n      pop\n      jump\t// out\n        /* \"#utility.yul\":6444:6867   */\n    tag_21:\n        /* \"#utility.yul\":6585:6589   */\n      0x00\n        /* \"#utility.yul\":6623:6625   */\n      0x40\n        /* \"#utility.yul\":6612:6621   */\n      dup3\n        /* \"#utility.yul\":6608:6626   */\n      add\n        /* \"#utility.yul\":6600:6626   */\n      swap1\n      pop\n        /* \"#utility.yul\":6636:6707   */\n      tag_184\n        /* \"#utility.yul\":6704:6705   */\n      0x00\n        /* \"#utility.yul\":6693:6702   */\n      dup4\n        /* \"#utility.yul\":6689:6706   */\n      add\n        /* \"#utility.yul\":6680:6686   */\n      dup6\n        /* \"#utility.yul\":6636:6707   */\n      tag_176\n      jump\t// in\n    tag_184:\n        /* \"#utility.yul\":6754:6763   */\n      dup2\n        /* \"#utility.yul\":6748:6752   */\n      dup2\n        /* \"#utility.yul\":6744:6764   */\n      sub\n        /* \"#utility.yul\":6739:6741   */\n      0x20\n        /* \"#utility.yul\":6728:6737   */\n      dup4\n        /* \"#utility.yul\":6724:6742   */\n      add\n        /* \"#utility.yul\":6717:6765   */\n      mstore\n        /* \"#utility.yul\":6782:6860   */\n      tag_185\n        /* \"#utility.yul\":6855:6859   */\n      dup2\n        /* \"#utility.yul\":6846:6852   */\n      dup5\n        /* \"#utility.yul\":6782:6860   */\n      tag_158\n      jump\t// in\n    tag_185:\n        /* \"#utility.yul\":6774:6860   */\n      swap1\n      pop\n        /* \"#utility.yul\":6444:6867   */\n      swap4\n      swap3\n      pop\n      pop\n      pop\n      jump\t// out\n        /* \"#utility.yul\":6873:7002   */\n    tag_101:\n        /* \"#utility.yul\":6907:6913   */\n      0x00\n        /* \"#utility.yul\":6934:6954   */\n      tag_187\n      tag_188\n      jump\t// in\n    tag_187:\n        /* \"#utility.yul\":6924:6954   */\n      swap1\n      pop\n        /* \"#utility.yul\":6963:6996   */\n      tag_189\n        /* \"#utility.yul\":6991:6995   */\n      dup3\n        /* \"#utility.yul\":6983:6989   */\n      dup3\n        /* \"#utility.yul\":6963:6996   */\n      tag_190\n      jump\t// in\n    tag_189:\n        /* \"#utility.yul\":6873:7002   */\n      swap2\n      swap1\n      pop\n      jump\t// out\n        /* \"#utility.yul\":7008:7083   */\n    tag_188:\n        /* \"#utility.yul\":7041:7047   */\n      0x00\n        /* \"#utility.yul\":7074:7076   */\n      0x40\n        /* \"#utility.yul\":7068:7077   */\n      mload\n        /* \"#utility.yul\":7058:7077   */\n      swap1\n      pop\n        /* \"#utility.yul\":7008:7083   */\n      swap1\n      jump\t// out\n        /* \"#utility.yul\":7089:7397   */\n    tag_100:\n        /* \"#utility.yul\":7151:7155   */\n      0x00\n        /* \"#utility.yul\":7241:7259   */\n      0xffffffffffffffff\n        /* \"#utility.yul\":7233:7239   */\n      dup3\n        /* \"#utility.yul\":7230:7260   */\n      gt\n        /* \"#utility.yul\":7227:7283   */\n      iszero\n      tag_193\n      jumpi\n        /* \"#utility.yul\":7263:7281   */\n      tag_194\n      tag_195\n      jump\t// in\n    tag_194:\n        /* \"#utility.yul\":7227:7283   */\n    tag_193:\n        /* \"#utility.yul\":7301:7330   */\n      tag_196\n        /* \"#utility.yul\":7323:7329   */\n      dup3\n        /* \"#utility.yul\":7301:7330   */\n      tag_157\n      jump\t// in\n    tag_196:\n        /* \"#utility.yul\":7293:7330   */\n      swap1\n      pop\n        /* \"#utility.yul\":7385:7389   */\n      0x20\n        /* \"#utility.yul\":7379:7383   */\n      dup2\n        /* \"#utility.yul\":7375:7390   */\n      add\n        /* \"#utility.yul\":7367:7390   */\n      swap1\n      pop\n        /* \"#utility.yul\":7089:7397   */\n      swap2\n      swap1\n      pop\n      jump\t// out\n        /* \"#utility.yul\":7403:7557   */\n    tag_141:\n        /* \"#utility.yul\":7492:7496   */\n      0x00\n        /* \"#utility.yul\":7515:7518   */\n      dup2\n        /* \"#utility.yul\":7507:7518   */\n      swap1\n      pop\n        /* \"#utility.yul\":7545:7549   */\n      0x20\n        /* \"#utility.yul\":7540:7543   */\n      dup3\n        /* \"#utility.yul\":7536:7550   */\n      add\n        /* \"#utility.yul\":7528:7550   */\n      swap1\n      pop\n        /* \"#utility.yul\":7403:7557   */\n      swap2\n      swap1\n      pop\n      jump\t// out\n        /* \"#utility.yul\":7563:7699   */\n    tag_137:\n        /* \"#utility.yul\":7652:7658   */\n      0x00\n        /* \"#utility.yul\":7686:7691   */\n      dup2\n        /* \"#utility.yul\":7680:7692   */\n      mload\n        /* \"#utility.yul\":7670:7692   */\n      swap1\n      pop\n        /* \"#utility.yul\":7563:7699   */\n      swap2\n      swap1\n      pop\n      jump\t// out\n        /* \"#utility.yul\":7705:7804   */\n    tag_151:\n        /* \"#utility.yul\":7757:7763   */\n      0x00\n        /* \"#utility.yul\":7791:7796   */\n      dup2\n        /* \"#utility.yul\":7785:7797   */\n      mload\n        /* \"#utility.yul\":7775:7797   */\n      swap1\n      pop\n        /* \"#utility.yul\":7705:7804   */\n      swap2\n      swap1\n      pop\n      jump\t// out\n        /* \"#utility.yul\":7810:7945   */\n    tag_147:\n        /* \"#utility.yul\":7902:7906   */\n      0x00\n        /* \"#utility.yul\":7934:7938   */\n      0x20\n        /* \"#utility.yul\":7929:7932   */\n      dup3\n        /* \"#utility.yul\":7925:7939   */\n      add\n        /* \"#utility.yul\":7917:7939   */\n      swap1\n      pop\n        /* \"#utility.yul\":7810:7945   */\n      swap2\n      swap1\n      pop\n      jump\t// out\n        /* \"#utility.yul\":7951:8157   */\n    tag_139:\n        /* \"#utility.yul\":8072:8083   */\n      0x00\n        /* \"#utility.yul\":8106:8112   */\n      dup3\n        /* \"#utility.yul\":8101:8104   */\n      dup3\n        /* \"#utility.yul\":8094:8113   */\n      mstore\n        /* \"#utility.yul\":8146:8150   */\n      0x20\n        /* \"#utility.yul\":8141:8144   */\n      dup3\n        /* \"#utility.yul\":8137:8151   */\n      add\n        /* \"#utility.yul\":8122:8151   */\n      swap1\n      pop\n        /* \"#utility.yul\":7951:8157   */\n      swap3\n      swap2\n      pop\n      pop\n      jump\t// out\n        /* \"#utility.yul\":8163:8322   */\n    tag_153:\n        /* \"#utility.yul\":8237:8248   */\n      0x00\n        /* \"#utility.yul\":8271:8277   */\n      dup3\n        /* \"#utility.yul\":8266:8269   */\n      dup3\n        /* \"#utility.yul\":8259:8278   */\n      mstore\n        /* \"#utility.yul\":8311:8315   */\n      0x20\n        /* \"#utility.yul\":8306:8309   */\n      dup3\n        /* \"#utility.yul\":8302:8316   */\n      add\n        /* \"#utility.yul\":8287:8316   */\n      swap1\n      pop\n        /* \"#utility.yul\":8163:8322   */\n      swap3\n      swap2\n      pop\n      pop\n      jump\t// out\n        /* \"#utility.yul\":8328:8497   */\n    tag_162:\n        /* \"#utility.yul\":8412:8423   */\n      0x00\n        /* \"#utility.yul\":8446:8452   */\n      dup3\n        /* \"#utility.yul\":8441:8444   */\n      dup3\n        /* \"#utility.yul\":8434:8453   */\n      mstore\n        /* \"#utility.yul\":8486:8490   */\n      0x20\n        /* \"#utility.yul\":8481:8484   */\n      dup3\n        /* \"#utility.yul\":8477:8491   */\n      add\n        /* \"#utility.yul\":8462:8491   */\n      swap1\n      pop\n        /* \"#utility.yul\":8328:8497   */\n      swap3\n      swap2\n      pop\n      pop\n      jump\t// out\n        /* \"#utility.yul\":8503:8580   */\n    tag_175:\n        /* \"#utility.yul\":8540:8547   */\n      0x00\n        /* \"#utility.yul\":8569:8574   */\n      dup2\n        /* \"#utility.yul\":8558:8574   */\n      swap1\n      pop\n        /* \"#utility.yul\":8503:8580   */\n      swap2\n      swap1\n      pop\n      jump\t// out\n        /* \"#utility.yul\":8586:8740   */\n    tag_106:\n        /* \"#utility.yul\":8670:8676   */\n      dup3\n        /* \"#utility.yul\":8665:8668   */\n      dup2\n        /* \"#utility.yul\":8660:8663   */\n      dup4\n        /* \"#utility.yul\":8647:8677   */\n      calldatacopy\n        /* \"#utility.yul\":8732:8733   */\n      0x00\n        /* \"#utility.yul\":8723:8729   */\n      dup4\n        /* \"#utility.yul\":8718:8721   */\n      dup4\n        /* \"#utility.yul\":8714:8730   */\n      add\n        /* \"#utility.yul\":8707:8734   */\n      mstore\n        /* \"#utility.yul\":8586:8740   */\n      pop\n      pop\n      pop\n      jump\t// out\n        /* \"#utility.yul\":8746:9053   */\n    tag_155:\n        /* \"#utility.yul\":8814:8815   */\n      0x00\n        /* \"#utility.yul\":8824:8937   */\n    tag_207:\n        /* \"#utility.yul\":8838:8844   */\n      dup4\n        /* \"#utility.yul\":8835:8836   */\n      dup2\n        /* \"#utility.yul\":8832:8845   */\n      lt\n        /* \"#utility.yul\":8824:8937   */\n      iszero\n      tag_209\n      jumpi\n        /* \"#utility.yul\":8923:8924   */\n      dup1\n        /* \"#utility.yul\":8918:8921   */\n      dup3\n        /* \"#utility.yul\":8914:8925   */\n      add\n        /* \"#utility.yul\":8908:8926   */\n      mload\n        /* \"#utility.yul\":8904:8905   */\n      dup2\n        /* \"#utility.yul\":8899:8902   */\n      dup5\n        /* \"#utility.yul\":8895:8906   */\n      add\n        /* \"#utility.yul\":8888:8927   */\n      mstore\n        /* \"#utility.yul\":8860:8862   */\n      0x20\n        /* \"#utility.yul\":8857:8858   */\n      dup2\n        /* \"#utility.yul\":8853:8863   */\n      add\n        /* \"#utility.yul\":8848:8863   */\n      swap1\n      pop\n        /* \"#utility.yul\":8824:8937   */\n      jump(tag_207)\n    tag_209:\n        /* \"#utility.yul\":8955:8961   */\n      dup4\n        /* \"#utility.yul\":8952:8953   */\n      dup2\n        /* \"#utility.yul\":8949:8962   */\n      gt\n        /* \"#utility.yul\":8946:9047   */\n      iszero\n      tag_210\n      jumpi\n        /* \"#utility.yul\":9035:9036   */\n      0x00\n        /* \"#utility.yul\":9026:9032   */\n      dup5\n        /* \"#utility.yul\":9021:9024   */\n      dup5\n        /* \"#utility.yul\":9017:9033   */\n      add\n        /* \"#utility.yul\":9010:9037   */\n      mstore\n        /* \"#utility.yul\":8946:9047   */\n    tag_210:\n        /* \"#utility.yul\":8795:9053   */\n      pop\n        /* \"#utility.yul\":8746:9053   */\n      pop\n      pop\n      pop\n      jump\t// out\n        /* \"#utility.yul\":9059:9379   */\n    tag_34:\n        /* \"#utility.yul\":9103:9109   */\n      0x00\n        /* \"#utility.yul\":9140:9141   */\n      0x02\n        /* \"#utility.yul\":9134:9138   */\n      dup3\n        /* \"#utility.yul\":9130:9142   */\n      div\n        /* \"#utility.yul\":9120:9142   */\n      swap1\n      pop\n        /* \"#utility.yul\":9187:9188   */\n      0x01\n        /* \"#utility.yul\":9181:9185   */\n      dup3\n        /* \"#utility.yul\":9177:9189   */\n      and\n        /* \"#utility.yul\":9208:9226   */\n      dup1\n        /* \"#utility.yul\":9198:9279   */\n      tag_212\n      jumpi\n        /* \"#utility.yul\":9264:9268   */\n      0x7f\n        /* \"#utility.yul\":9256:9262   */\n      dup3\n        /* \"#utility.yul\":9252:9269   */\n      and\n        /* \"#utility.yul\":9242:9269   */\n      swap2\n      pop\n        /* \"#utility.yul\":9198:9279   */\n    tag_212:\n        /* \"#utility.yul\":9326:9328   */\n      0x20\n        /* \"#utility.yul\":9318:9324   */\n      dup3\n        /* \"#utility.yul\":9315:9329   */\n      lt\n        /* \"#utility.yul\":9295:9313   */\n      dup2\n        /* \"#utility.yul\":9292:9330   */\n      eq\n        /* \"#utility.yul\":9289:9373   */\n      iszero\n      tag_213\n      jumpi\n        /* \"#utility.yul\":9345:9363   */\n      tag_214\n      tag_215\n      jump\t// in\n    tag_214:\n        /* \"#utility.yul\":9289:9373   */\n    tag_213:\n        /* \"#utility.yul\":9110:9379   */\n      pop\n        /* \"#utility.yul\":9059:9379   */\n      swap2\n      swap1\n      pop\n      jump\t// out\n        /* \"#utility.yul\":9385:9666   */\n    tag_190:\n        /* \"#utility.yul\":9468:9495   */\n      tag_217\n        /* \"#utility.yul\":9490:9494   */\n      dup3\n        /* \"#utility.yul\":9468:9495   */\n      tag_157\n      jump\t// in\n    tag_217:\n        /* \"#utility.yul\":9460:9466   */\n      dup2\n        /* \"#utility.yul\":9456:9496   */\n      add\n        /* \"#utility.yul\":9598:9604   */\n      dup2\n        /* \"#utility.yul\":9586:9596   */\n      dup2\n        /* \"#utility.yul\":9583:9605   */\n      lt\n        /* \"#utility.yul\":9562:9580   */\n      0xffffffffffffffff\n        /* \"#utility.yul\":9550:9560   */\n      dup3\n        /* \"#utility.yul\":9547:9581   */\n      gt\n        /* \"#utility.yul\":9544:9606   */\n      or\n        /* \"#utility.yul\":9541:9629   */\n      iszero\n      tag_218\n      jumpi\n        /* \"#utility.yul\":9609:9627   */\n      tag_219\n      tag_195\n      jump\t// in\n    tag_219:\n        /* \"#utility.yul\":9541:9629   */\n    tag_218:\n        /* \"#utility.yul\":9649:9659   */\n      dup1\n        /* \"#utility.yul\":9645:9647   */\n      0x40\n        /* \"#utility.yul\":9638:9660   */\n      mstore\n        /* \"#utility.yul\":9428:9666   */\n      pop\n        /* \"#utility.yul\":9385:9666   */\n      pop\n      pop\n      jump\t// out\n        /* \"#utility.yul\":9672:9852   */\n    tag_215:\n        /* \"#utility.yul\":9720:9797   */\n      0x4e487b7100000000000000000000000000000000000000000000000000000000\n        /* \"#utility.yul\":9717:9718   */\n      0x00\n        /* \"#utility.yul\":9710:9798   */\n      mstore\n        /* \"#utility.yul\":9817:9821   */\n      0x22\n        /* \"#utility.yul\":9814:9815   */\n      0x04\n        /* \"#utility.yul\":9807:9822   */\n      mstore\n        /* \"#utility.yul\":9841:9845   */\n      0x24\n        /* \"#utility.yul\":9838:9839   */\n      0x00\n        /* \"#utility.yul\":9831:9846   */\n      revert\n        /* \"#utility.yul\":9858:10038   */\n    tag_31:\n        /* \"#utility.yul\":9906:9983   */\n      0x4e487b7100000000000000000000000000000000000000000000000000000000\n        /* \"#utility.yul\":9903:9904   */\n      0x00\n        /* \"#utility.yul\":9896:9984   */\n      mstore\n        /* \"#utility.yul\":10003:10007   */\n      0x32\n        /* \"#utility.yul\":10000:10001   */\n      0x04\n        /* \"#utility.yul\":9993:10008   */\n      mstore\n        /* \"#utility.yul\":10027:10031   */\n      0x24\n        /* \"#utility.yul\":10024:10025   */\n      0x00\n        /* \"#utility.yul\":10017:10032   */\n      revert\n        /* \"#utility.yul\":10044:10224   */\n    tag_195:\n        /* \"#utility.yul\":10092:10169   */\n      0x4e487b7100000000000000000000000000000000000000000000000000000000\n        /* \"#utility.yul\":10089:10090   */\n      0x00\n        /* \"#utility.yul\":10082:10170   */\n      mstore\n        /* \"#utility.yul\":10189:10193   */\n      0x41\n        /* \"#utility.yul\":10186:10187   */\n      0x04\n        /* \"#utility.yul\":10179:10194   */\n      mstore\n        /* \"#utility.yul\":10213:10217   */\n      0x24\n        /* \"#utility.yul\":10210:10211   */\n      0x00\n        /* \"#utility.yul\":10203:10218   */\n      revert\n        /* \"#utility.yul\":10230:10347   */\n    tag_111:\n        /* \"#utility.yul\":10339:10340   */\n      0x00\n        /* \"#utility.yul\":10336:10337   */\n      dup1\n        /* \"#utility.yul\":10329:10341   */\n      revert\n        /* \"#utility.yul\":10353:10470   */\n    tag_104:\n        /* \"#utility.yul\":10462:10463   */\n      0x00\n        /* \"#utility.yul\":10459:10460   */\n      dup1\n        /* \"#utility.yul\":10452:10464   */\n      revert\n        /* \"#utility.yul\":10476:10593   */\n    tag_128:\n        /* \"#utility.yul\":10585:10586   */\n      0x00\n        /* \"#utility.yul\":10582:10583   */\n      dup1\n        /* \"#utility.yul\":10575:10587   */\n      revert\n        /* \"#utility.yul\":10599:10716   */\n    tag_120:\n        /* \"#utility.yul\":10708:10709   */\n      0x00\n        /* \"#utility.yul\":10705:10706   */\n      dup1\n        /* \"#utility.yul\":10698:10710   */\n      revert\n        /* \"#utility.yul\":10722:10824   */\n    tag_157:\n        /* \"#utility.yul\":10763:10769   */\n      0x00\n        /* \"#utility.yul\":10814:10816   */\n      0x1f\n        /* \"#utility.yul\":10810:10817   */\n      not\n        /* \"#utility.yul\":10805:10807   */\n      0x1f\n        /* \"#utility.yul\":10798:10803   */\n      dup4\n        /* \"#utility.yul\":10794:10808   */\n      add\n        /* \"#utility.yul\":10790:10818   */\n      and\n        /* \"#utility.yul\":10780:10818   */\n      swap1\n      pop\n        /* \"#utility.yul\":10722:10824   */\n      swap2\n      swap1\n      pop\n      jump\t// out\n        /* \"#utility.yul\":10830:10952   */\n    tag_116:\n        /* \"#utility.yul\":10903:10927   */\n      tag_229\n        /* \"#utility.yul\":10921:10926   */\n      dup2\n        /* \"#utility.yul\":10903:10927   */\n      tag_175\n      jump\t// in\n    tag_229:\n        /* \"#utility.yul\":10896:10901   */\n      dup2\n        /* \"#utility.yul\":10893:10928   */\n      eq\n        /* \"#utility.yul\":10883:10946   */\n      tag_230\n      jumpi\n        /* \"#utility.yul\":10942:10943   */\n      0x00\n        /* \"#utility.yul\":10939:10940   */\n      dup1\n        /* \"#utility.yul\":10932:10944   */\n      revert\n        /* \"#utility.yul\":10883:10946   */\n    tag_230:\n        /* \"#utility.yul\":10830:10952   */\n      pop\n      jump\t// out\n\n    auxdata: 0xa26469706673582212205fccef62433b5dfd75250a758ef75de758fcbd17830c083d941eccb66998fe2764736f6c63430008070033\n}\n",
				"bytecode": {
					"linkReferences": {},
					"object": "608060405234801561001057600080fd5b50610c68806100206000396000f3fe608060405234801561001057600080fd5b506004361061004c5760003560e01c806361a41c081461005157806382e76b8814610081578063bc8bc2b41461009f578063c1da2020146100d0575b600080fd5b61006b6004803603810190610066919061076e565b6100ec565b60405161007891906109ac565b60405180910390f35b6100896101c4565b604051610096919061098a565b60405180910390f35b6100b960048036038101906100b4919061076e565b6102fc565b6040516100c79291906109ce565b60405180910390f35b6100ea60048036038101906100e5919061079b565b6103b8565b005b6100f46104ae565b6000828154811061010857610107610b98565b5b90600052602060002090600202016040518060400160405290816000820154815260200160018201805461013b90610b06565b80601f016020809104026020016040519081016040528092919081815260200182805461016790610b06565b80156101b45780601f10610189576101008083540402835291602001916101b4565b820191906000526020600020905b81548152906001019060200180831161019757829003601f168201915b5050505050815250509050919050565b6060600160003373ffffffffffffffffffffffffffffffffffffffff1673ffffffffffffffffffffffffffffffffffffffff168152602001908152602001600020805480602002602001604051908101604052809291908181526020016000905b828210156102f357838290600052602060002090600202016040518060400160405290816000820154815260200160018201805461026290610b06565b80601f016020809104026020016040519081016040528092919081815260200182805461028e90610b06565b80156102db5780601f106102b0576101008083540402835291602001916102db565b820191906000526020600020905b8154815290600101906020018083116102be57829003601f168201915b50505050508152505081526020019060010190610225565b50505050905090565b6000818154811061030c57600080fd5b906000526020600020906002020160009150905080600001549080600101805461033590610b06565b80601f016020809104026020016040519081016040528092919081815260200182805461036190610b06565b80156103ae5780601f10610383576101008083540402835291602001916103ae565b820191906000526020600020905b81548152906001019060200180831161039157829003601f168201915b5050505050905082565b6000604051806040016040528084815260200183815250908060018154018082558091505060019003906000526020600020906002020160009091909190915060008201518160000155602082015181600101908051906020019061041e9291906104c8565b5050506000600160003373ffffffffffffffffffffffffffffffffffffffff1673ffffffffffffffffffffffffffffffffffffffff16815260200190815260200160002090805461047092919061054e565b507f3c981eaf8f806637941d1237961055d66e8636b71bc453db0c9e245a154760fd82826040516104a29291906109ce565b60405180910390a15050565b604051806040016040528060008152602001606081525090565b8280546104d490610b06565b90600052602060002090601f0160209004810192826104f6576000855561053d565b82601f1061050f57805160ff191683800117855561053d565b8280016001018555821561053d579182015b8281111561053c578251825591602001919060010190610521565b5b50905061054a91906105d0565b5090565b8280548282559060005260206000209060020281019282156105bf5760005260206000209160020282015b828111156105be5782826000820154816000015560018201816001019080546105a190610b06565b6105ac9291906105ed565b50505091600201919060020190610579565b5b5090506105cc919061067a565b5090565b5b808211156105e95760008160009055506001016105d1565b5090565b8280546105f990610b06565b90600052602060002090601f01602090048101928261061b5760008555610669565b82601f1061062c5780548555610669565b8280016001018555821561066957600052602060002091601f016020900482015b8281111561066857825482559160010191906001019061064d565b5b50905061067691906105d0565b5090565b5b808211156106a55760008082016000905560018201600061069c91906106a9565b5060020161067b565b5090565b5080546106b590610b06565b6000825580601f106106c757506106e6565b601f0160209004906000526020600020908101906106e591906105d0565b5b50565b60006106fc6106f784610a23565b6109fe565b90508281526020810184848401111561071857610717610bfb565b5b610723848285610ac4565b509392505050565b600082601f8301126107405761073f610bf6565b5b81356107508482602086016106e9565b91505092915050565b60008135905061076881610c1b565b92915050565b60006020828403121561078457610783610c05565b5b600061079284828501610759565b91505092915050565b600080604083850312156107b2576107b1610c05565b5b60006107c085828601610759565b925050602083013567ffffffffffffffff8111156107e1576107e0610c00565b5b6107ed8582860161072b565b9150509250929050565b600061080383836108f2565b905092915050565b600061081682610a64565b6108208185610a87565b93508360208202850161083285610a54565b8060005b8581101561086e578484038952815161084f85826107f7565b945061085a83610a7a565b925060208a01995050600181019050610836565b50829750879550505050505092915050565b600061088b82610a6f565b6108958185610a98565b93506108a5818560208601610ad3565b6108ae81610c0a565b840191505092915050565b60006108c482610a6f565b6108ce8185610aa9565b93506108de818560208601610ad3565b6108e781610c0a565b840191505092915050565b600060408301600083015161090a600086018261096c565b50602083015184820360208601526109228282610880565b9150508091505092915050565b6000604083016000830151610947600086018261096c565b506020830151848203602086015261095f8282610880565b9150508091505092915050565b61097581610aba565b82525050565b61098481610aba565b82525050565b600060208201905081810360008301526109a4818461080b565b905092915050565b600060208201905081810360008301526109c6818461092f565b905092915050565b60006040820190506109e3600083018561097b565b81810360208301526109f581846108b9565b90509392505050565b6000610a08610a19565b9050610a148282610b38565b919050565b6000604051905090565b600067ffffffffffffffff821115610a3e57610a3d610bc7565b5b610a4782610c0a565b9050602081019050919050565b6000819050602082019050919050565b600081519050919050565b600081519050919050565b6000602082019050919050565b600082825260208201905092915050565b600082825260208201905092915050565b600082825260208201905092915050565b6000819050919050565b82818337600083830152505050565b60005b83811015610af1578082015181840152602081019050610ad6565b83811115610b00576000848401525b50505050565b60006002820490506001821680610b1e57607f821691505b60208210811415610b3257610b31610b69565b5b50919050565b610b4182610c0a565b810181811067ffffffffffffffff82111715610b6057610b5f610bc7565b5b80604052505050565b7f4e487b7100000000000000000000000000000000000000000000000000000000600052602260045260246000fd5b7f4e487b7100000000000000000000000000000000000000000000000000000000600052603260045260246000fd5b7f4e487b7100000000000000000000000000000000000000000000000000000000600052604160045260246000fd5b600080fd5b600080fd5b600080fd5b600080fd5b6000601f19601f8301169050919050565b610c2481610aba565b8114610c2f57600080fd5b5056fea26469706673582212205fccef62433b5dfd75250a758ef75de758fcbd17830c083d941eccb66998fe2764736f6c63430008070033",
					"opcodes": "PUSH1 0x80 PUSH1 0x40 MSTORE CALLVALUE DUP1 ISZERO PUSH2 0x10 JUMPI PUSH1 0x0 DUP1 REVERT JUMPDEST POP PUSH2 0xC68 DUP1 PUSH2 0x20 PUSH1 0x0 CODECOPY PUSH1 0x0 RETURN INVALID PUSH1 0x80 PUSH1 0x40 MSTORE CALLVALUE DUP1 ISZERO PUSH2 0x10 JUMPI PUSH1 0x0 DUP1 REVERT JUMPDEST POP PUSH1 0x4 CALLDATASIZE LT PUSH2 0x4C JUMPI PUSH1 0x0 CALLDATALOAD PUSH1 0xE0 SHR DUP1 PUSH4 0x61A41C08 EQ PUSH2 0x51 JUMPI DUP1 PUSH4 0x82E76B88 EQ PUSH2 0x81 JUMPI DUP1 PUSH4 0xBC8BC2B4 EQ PUSH2 0x9F JUMPI DUP1 PUSH4 0xC1DA2020 EQ PUSH2 0xD0 JUMPI JUMPDEST PUSH1 0x0 DUP1 REVERT JUMPDEST PUSH2 0x6B PUSH1 0x4 DUP1 CALLDATASIZE SUB DUP2 ADD SWAP1 PUSH2 0x66 SWAP2 SWAP1 PUSH2 0x76E JUMP JUMPDEST PUSH2 0xEC JUMP JUMPDEST PUSH1 0x40 MLOAD PUSH2 0x78 SWAP2 SWAP1 PUSH2 0x9AC JUMP JUMPDEST PUSH1 0x40 MLOAD DUP1 SWAP2 SUB SWAP1 RETURN JUMPDEST PUSH2 0x89 PUSH2 0x1C4 JUMP JUMPDEST PUSH1 0x40 MLOAD PUSH2 0x96 SWAP2 SWAP1 PUSH2 0x98A JUMP JUMPDEST PUSH1 0x40 MLOAD DUP1 SWAP2 SUB SWAP1 RETURN JUMPDEST PUSH2 0xB9 PUSH1 0x4 DUP1 CALLDATASIZE SUB DUP2 ADD SWAP1 PUSH2 0xB4 SWAP2 SWAP1 PUSH2 0x76E JUMP JUMPDEST PUSH2 0x2FC JUMP JUMPDEST PUSH1 0x40 MLOAD PUSH2 0xC7 SWAP3 SWAP2 SWAP1 PUSH2 0x9CE JUMP JUMPDEST PUSH1 0x40 MLOAD DUP1 SWAP2 SUB SWAP1 RETURN JUMPDEST PUSH2 0xEA PUSH1 0x4 DUP1 CALLDATASIZE SUB DUP2 ADD SWAP1 PUSH2 0xE5 SWAP2 SWAP1 PUSH2 0x79B JUMP JUMPDEST PUSH2 0x3B8 JUMP JUMPDEST STOP JUMPDEST PUSH2 0xF4 PUSH2 0x4AE JUMP JUMPDEST PUSH1 0x0 DUP3 DUP2 SLOAD DUP2 LT PUSH2 0x108 JUMPI PUSH2 0x107 PUSH2 0xB98 JUMP JUMPDEST JUMPDEST SWAP1 PUSH1 0x0 MSTORE PUSH1 0x20 PUSH1 0x0 KECCAK256 SWAP1 PUSH1 0x2 MUL ADD PUSH1 0x40 MLOAD DUP1 PUSH1 0x40 ADD PUSH1 0x40 MSTORE SWAP1 DUP2 PUSH1 0x0 DUP3 ADD SLOAD DUP2 MSTORE PUSH1 0x20 ADD PUSH1 0x1 DUP3 ADD DUP1 SLOAD PUSH2 0x13B SWAP1 PUSH2 0xB06 JUMP JUMPDEST DUP1 PUSH1 0x1F ADD PUSH1 0x20 DUP1 SWAP2 DIV MUL PUSH1 0x20 ADD PUSH1 0x40 MLOAD SWAP1 DUP2 ADD PUSH1 0x40 MSTORE DUP1 SWAP3 SWAP2 SWAP1 DUP2 DUP2 MSTORE PUSH1 0x20 ADD DUP3 DUP1 SLOAD PUSH2 0x167 SWAP1 PUSH2 0xB06 JUMP JUMPDEST DUP1 ISZERO PUSH2 0x1B4 JUMPI DUP1 PUSH1 0x1F LT PUSH2 0x189 JUMPI PUSH2 0x100 DUP1 DUP4 SLOAD DIV MUL DUP4 MSTORE SWAP2 PUSH1 0x20 ADD SWAP2 PUSH2 0x1B4 JUMP JUMPDEST DUP3 ADD SWAP2 SWAP1 PUSH1 0x0 MSTORE PUSH1 0x20 PUSH1 0x0 KECCAK256 SWAP1 JUMPDEST DUP2 SLOAD DUP2 MSTORE SWAP1 PUSH1 0x1 ADD SWAP1 PUSH1 0x20 ADD DUP1 DUP4 GT PUSH2 0x197 JUMPI DUP3 SWAP1 SUB PUSH1 0x1F AND DUP3 ADD SWAP2 JUMPDEST POP POP POP POP POP DUP2 MSTORE POP POP SWAP1 POP SWAP2 SWAP1 POP JUMP JUMPDEST PUSH1 0x60 PUSH1 0x1 PUSH1 0x0 CALLER PUSH20 0xFFFFFFFFFFFFFFFFFFFFFFFFFFFFFFFFFFFFFFFF AND PUSH20 0xFFFFFFFFFFFFFFFFFFFFFFFFFFFFFFFFFFFFFFFF AND DUP2 MSTORE PUSH1 0x20 ADD SWAP1 DUP2 MSTORE PUSH1 0x20 ADD PUSH1 0x0 KECCAK256 DUP1 SLOAD DUP1 PUSH1 0x20 MUL PUSH1 0x20 ADD PUSH1 0x40 MLOAD SWAP1 DUP2 ADD PUSH1 0x40 MSTORE DUP1 SWAP3 SWAP2 SWAP1 DUP2 DUP2 MSTORE PUSH1 0x20 ADD PUSH1 0x0 SWAP1 JUMPDEST DUP3 DUP3 LT ISZERO PUSH2 0x2F3 JUMPI DUP4 DUP3 SWAP1 PUSH1 0x0 MSTORE PUSH1 0x20 PUSH1 0x0 KECCAK256 SWAP1 PUSH1 0x2 MUL ADD PUSH1 0x40 MLOAD DUP1 PUSH1 0x40 ADD PUSH1 0x40 MSTORE SWAP1 DUP2 PUSH1 0x0 DUP3 ADD SLOAD DUP2 MSTORE PUSH1 0x20 ADD PUSH1 0x1 DUP3 ADD DUP1 SLOAD PUSH2 0x262 SWAP1 PUSH2 0xB06 JUMP JUMPDEST DUP1 PUSH1 0x1F ADD PUSH1 0x20 DUP1 SWAP2 DIV MUL PUSH1 0x20 ADD PUSH1 0x40 MLOAD SWAP1 DUP2 ADD PUSH1 0x40 MSTORE DUP1 SWAP3 SWAP2 SWAP1 DUP2 DUP2 MSTORE PUSH1 0x20 ADD DUP3 DUP1 SLOAD PUSH2 0x28E SWAP1 PUSH2 0xB06 JUMP JUMPDEST DUP1 ISZERO PUSH2 0x2DB JUMPI DUP1 PUSH1 0x1F LT PUSH2 0x2B0 JUMPI PUSH2 0x100 DUP1 DUP4 SLOAD DIV MUL DUP4 MSTORE SWAP2 PUSH1 0x20 ADD SWAP2 PUSH2 0x2DB JUMP JUMPDEST DUP3 ADD SWAP2 SWAP1 PUSH1 0x0 MSTORE PUSH1 0x20 PUSH1 0x0 KECCAK256 SWAP1 JUMPDEST DUP2 SLOAD DUP2 MSTORE SWAP1 PUSH1 0x1 ADD SWAP1 PUSH1 0x20 ADD DUP1 DUP4 GT PUSH2 0x2BE JUMPI DUP3 SWAP1 SUB PUSH1 0x1F AND DUP3 ADD SWAP2 JUMPDEST POP POP POP POP POP DUP2 MSTORE POP POP DUP2 MSTORE PUSH1 0x20 ADD SWAP1 PUSH1 0x1 ADD SWAP1 PUSH2 0x225 JUMP JUMPDEST POP POP POP POP SWAP1 POP SWAP1 JUMP JUMPDEST PUSH1 0x0 DUP2 DUP2 SLOAD DUP2 LT PUSH2 0x30C JUMPI PUSH1 0x0 DUP1 REVERT JUMPDEST SWAP1 PUSH1 0x0 MSTORE PUSH1 0x20 PUSH1 0x0 KECCAK256 SWAP1 PUSH1 0x2 MUL ADD PUSH1 0x0 SWAP2 POP SWAP1 POP DUP1 PUSH1 0x0 ADD SLOAD SWAP1 DUP1 PUSH1 0x1 ADD DUP1 SLOAD PUSH2 0x335 SWAP1 PUSH2 0xB06 JUMP JUMPDEST DUP1 PUSH1 0x1F ADD PUSH1 0x20 DUP1 SWAP2 DIV MUL PUSH1 0x20 ADD PUSH1 0x40 MLOAD SWAP1 DUP2 ADD PUSH1 0x40 MSTORE DUP1 SWAP3 SWAP2 SWAP1 DUP2 DUP2 MSTORE PUSH1 0x20 ADD DUP3 DUP1 SLOAD PUSH2 0x361 SWAP1 PUSH2 0xB06 JUMP JUMPDEST DUP1 ISZERO PUSH2 0x3AE JUMPI DUP1 PUSH1 0x1F LT PUSH2 0x383 JUMPI PUSH2 0x100 DUP1 DUP4 SLOAD DIV MUL DUP4 MSTORE SWAP2 PUSH1 0x20 ADD SWAP2 PUSH2 0x3AE JUMP JUMPDEST DUP3 ADD SWAP2 SWAP1 PUSH1 0x0 MSTORE PUSH1 0x20 PUSH1 0x0 KECCAK256 SWAP1 JUMPDEST DUP2 SLOAD DUP2 MSTORE SWAP1 PUSH1 0x1 ADD SWAP1 PUSH1 0x20 ADD DUP1 DUP4 GT PUSH2 0x391 JUMPI DUP3 SWAP1 SUB PUSH1 0x1F AND DUP3 ADD SWAP2 JUMPDEST POP POP POP POP POP SWAP1 POP DUP3 JUMP JUMPDEST PUSH1 0x0 PUSH1 0x40 MLOAD DUP1 PUSH1 0x40 ADD PUSH1 0x40 MSTORE DUP1 DUP5 DUP2 MSTORE PUSH1 0x20 ADD DUP4 DUP2 MSTORE POP SWAP1 DUP1 PUSH1 0x1 DUP2 SLOAD ADD DUP1 DUP3 SSTORE DUP1 SWAP2 POP POP PUSH1 0x1 SWAP1 SUB SWAP1 PUSH1 0x0 MSTORE PUSH1 0x20 PUSH1 0x0 KECCAK256 SWAP1 PUSH1 0x2 MUL ADD PUSH1 0x0 SWAP1 SWAP2 SWAP1 SWAP2 SWAP1 SWAP2 POP PUSH1 0x0 DUP3 ADD MLOAD DUP2 PUSH1 0x0 ADD SSTORE PUSH1 0x20 DUP3 ADD MLOAD DUP2 PUSH1 0x1 ADD SWAP1 DUP1 MLOAD SWAP1 PUSH1 0x20 ADD SWAP1 PUSH2 0x41E SWAP3 SWAP2 SWAP1 PUSH2 0x4C8 JUMP JUMPDEST POP POP POP PUSH1 0x0 PUSH1 0x1 PUSH1 0x0 CALLER PUSH20 0xFFFFFFFFFFFFFFFFFFFFFFFFFFFFFFFFFFFFFFFF AND PUSH20 0xFFFFFFFFFFFFFFFFFFFFFFFFFFFFFFFFFFFFFFFF AND DUP2 MSTORE PUSH1 0x20 ADD SWAP1 DUP2 MSTORE PUSH1 0x20 ADD PUSH1 0x0 KECCAK256 SWAP1 DUP1 SLOAD PUSH2 0x470 SWAP3 SWAP2 SWAP1 PUSH2 0x54E JUMP JUMPDEST POP PUSH32 0x3C981EAF8F806637941D1237961055D66E8636B71BC453DB0C9E245A154760FD DUP3 DUP3 PUSH1 0x40 MLOAD PUSH2 0x4A2 SWAP3 SWAP2 SWAP1 PUSH2 0x9CE JUMP JUMPDEST PUSH1 0x40 MLOAD DUP1 SWAP2 SUB SWAP1 LOG1 POP POP JUMP JUMPDEST PUSH1 0x40 MLOAD DUP1 PUSH1 0x40 ADD PUSH1 0x40 MSTORE DUP1 PUSH1 0x0 DUP2 MSTORE PUSH1 0x20 ADD PUSH1 0x60 DUP2 MSTORE POP SWAP1 JUMP JUMPDEST DUP3 DUP1 SLOAD PUSH2 0x4D4 SWAP1 PUSH2 0xB06 JUMP JUMPDEST SWAP1 PUSH1 0x0 MSTORE PUSH1 0x20 PUSH1 0x0 KECCAK256 SWAP1 PUSH1 0x1F ADD PUSH1 0x20 SWAP1 DIV DUP2 ADD SWAP3 DUP3 PUSH2 0x4F6 JUMPI PUSH1 0x0 DUP6 SSTORE PUSH2 0x53D JUMP JUMPDEST DUP3 PUSH1 0x1F LT PUSH2 0x50F JUMPI DUP1 MLOAD PUSH1 0xFF NOT AND DUP4 DUP1 ADD OR DUP6 SSTORE PUSH2 0x53D JUMP JUMPDEST DUP3 DUP1 ADD PUSH1 0x1 ADD DUP6 SSTORE DUP3 ISZERO PUSH2 0x53D JUMPI SWAP2 DUP3 ADD JUMPDEST DUP3 DUP2 GT ISZERO PUSH2 0x53C JUMPI DUP3 MLOAD DUP3 SSTORE SWAP2 PUSH1 0x20 ADD SWAP2 SWAP1 PUSH1 0x1 ADD SWAP1 PUSH2 0x521 JUMP JUMPDEST JUMPDEST POP SWAP1 POP PUSH2 0x54A SWAP2 SWAP1 PUSH2 0x5D0 JUMP JUMPDEST POP SWAP1 JUMP JUMPDEST DUP3 DUP1 SLOAD DUP3 DUP3 SSTORE SWAP1 PUSH1 0x0 MSTORE PUSH1 0x20 PUSH1 0x0 KECCAK256 SWAP1 PUSH1 0x2 MUL DUP2 ADD SWAP3 DUP3 ISZERO PUSH2 0x5BF JUMPI PUSH1 0x0 MSTORE PUSH1 0x20 PUSH1 0x0 KECCAK256 SWAP2 PUSH1 0x2 MUL DUP3 ADD JUMPDEST DUP3 DUP2 GT ISZERO PUSH2 0x5BE JUMPI DUP3 DUP3 PUSH1 0x0 DUP3 ADD SLOAD DUP2 PUSH1 0x0 ADD SSTORE PUSH1 0x1 DUP3 ADD DUP2 PUSH1 0x1 ADD SWAP1 DUP1 SLOAD PUSH2 0x5A1 SWAP1 PUSH2 0xB06 JUMP JUMPDEST PUSH2 0x5AC SWAP3 SWAP2 SWAP1 PUSH2 0x5ED JUMP JUMPDEST POP POP POP SWAP2 PUSH1 0x2 ADD SWAP2 SWAP1 PUSH1 0x2 ADD SWAP1 PUSH2 0x579 JUMP JUMPDEST JUMPDEST POP SWAP1 POP PUSH2 0x5CC SWAP2 SWAP1 PUSH2 0x67A JUMP JUMPDEST POP SWAP1 JUMP JUMPDEST JUMPDEST DUP1 DUP3 GT ISZERO PUSH2 0x5E9 JUMPI PUSH1 0x0 DUP2 PUSH1 0x0 SWAP1 SSTORE POP PUSH1 0x1 ADD PUSH2 0x5D1 JUMP JUMPDEST POP SWAP1 JUMP JUMPDEST DUP3 DUP1 SLOAD PUSH2 0x5F9 SWAP1 PUSH2 0xB06 JUMP JUMPDEST SWAP1 PUSH1 0x0 MSTORE PUSH1 0x20 PUSH1 0x0 KECCAK256 SWAP1 PUSH1 0x1F ADD PUSH1 0x20 SWAP1 DIV DUP2 ADD SWAP3 DUP3 PUSH2 0x61B JUMPI PUSH1 0x0 DUP6 SSTORE PUSH2 0x669 JUMP JUMPDEST DUP3 PUSH1 0x1F LT PUSH2 0x62C JUMPI DUP1 SLOAD DUP6 SSTORE PUSH2 0x669 JUMP JUMPDEST DUP3 DUP1 ADD PUSH1 0x1 ADD DUP6 SSTORE DUP3 ISZERO PUSH2 0x669 JUMPI PUSH1 0x0 MSTORE PUSH1 0x20 PUSH1 0x0 KECCAK256 SWAP2 PUSH1 0x1F ADD PUSH1 0x20 SWAP1 DIV DUP3 ADD JUMPDEST DUP3 DUP2 GT ISZERO PUSH2 0x668 JUMPI DUP3 SLOAD DUP3 SSTORE SWAP2 PUSH1 0x1 ADD SWAP2 SWAP1 PUSH1 0x1 ADD SWAP1 PUSH2 0x64D JUMP JUMPDEST JUMPDEST POP SWAP1 POP PUSH2 0x676 SWAP2 SWAP1 PUSH2 0x5D0 JUMP JUMPDEST POP SWAP1 JUMP JUMPDEST JUMPDEST DUP1 DUP3 GT ISZERO PUSH2 0x6A5 JUMPI PUSH1 0x0 DUP1 DUP3 ADD PUSH1 0x0 SWAP1 SSTORE PUSH1 0x1 DUP3 ADD PUSH1 0x0 PUSH2 0x69C SWAP2 SWAP1 PUSH2 0x6A9 JUMP JUMPDEST POP PUSH1 0x2 ADD PUSH2 0x67B JUMP JUMPDEST POP SWAP1 JUMP JUMPDEST POP DUP1 SLOAD PUSH2 0x6B5 SWAP1 PUSH2 0xB06 JUMP JUMPDEST PUSH1 0x0 DUP3 SSTORE DUP1 PUSH1 0x1F LT PUSH2 0x6C7 JUMPI POP PUSH2 0x6E6 JUMP JUMPDEST PUSH1 0x1F ADD PUSH1 0x20 SWAP1 DIV SWAP1 PUSH1 0x0 MSTORE PUSH1 0x20 PUSH1 0x0 KECCAK256 SWAP1 DUP2 ADD SWAP1 PUSH2 0x6E5 SWAP2 SWAP1 PUSH2 0x5D0 JUMP JUMPDEST JUMPDEST POP JUMP JUMPDEST PUSH1 0x0 PUSH2 0x6FC PUSH2 0x6F7 DUP5 PUSH2 0xA23 JUMP JUMPDEST PUSH2 0x9FE JUMP JUMPDEST SWAP1 POP DUP3 DUP2 MSTORE PUSH1 0x20 DUP2 ADD DUP5 DUP5 DUP5 ADD GT ISZERO PUSH2 0x718 JUMPI PUSH2 0x717 PUSH2 0xBFB JUMP JUMPDEST JUMPDEST PUSH2 0x723 DUP5 DUP3 DUP6 PUSH2 0xAC4 JUMP JUMPDEST POP SWAP4 SWAP3 POP POP POP JUMP JUMPDEST PUSH1 0x0 DUP3 PUSH1 0x1F DUP4 ADD SLT PUSH2 0x740 JUMPI PUSH2 0x73F PUSH2 0xBF6 JUMP JUMPDEST JUMPDEST DUP2 CALLDATALOAD PUSH2 0x750 DUP5 DUP3 PUSH1 0x20 DUP7 ADD PUSH2 0x6E9 JUMP JUMPDEST SWAP2 POP POP SWAP3 SWAP2 POP POP JUMP JUMPDEST PUSH1 0x0 DUP2 CALLDATALOAD SWAP1 POP PUSH2 0x768 DUP2 PUSH2 0xC1B JUMP JUMPDEST SWAP3 SWAP2 POP POP JUMP JUMPDEST PUSH1 0x0 PUSH1 0x20 DUP3 DUP5 SUB SLT ISZERO PUSH2 0x784 JUMPI PUSH2 0x783 PUSH2 0xC05 JUMP JUMPDEST JUMPDEST PUSH1 0x0 PUSH2 0x792 DUP5 DUP3 DUP6 ADD PUSH2 0x759 JUMP JUMPDEST SWAP2 POP POP SWAP3 SWAP2 POP POP JUMP JUMPDEST PUSH1 0x0 DUP1 PUSH1 0x40 DUP4 DUP6 SUB SLT ISZERO PUSH2 0x7B2 JUMPI PUSH2 0x7B1 PUSH2 0xC05 JUMP JUMPDEST JUMPDEST PUSH1 0x0 PUSH2 0x7C0 DUP6 DUP3 DUP7 ADD PUSH2 0x759 JUMP JUMPDEST SWAP3 POP POP PUSH1 0x20 DUP4 ADD CALLDATALOAD PUSH8 0xFFFFFFFFFFFFFFFF DUP2 GT ISZERO PUSH2 0x7E1 JUMPI PUSH2 0x7E0 PUSH2 0xC00 JUMP JUMPDEST JUMPDEST PUSH2 0x7ED DUP6 DUP3 DUP7 ADD PUSH2 0x72B JUMP JUMPDEST SWAP2 POP POP SWAP3 POP SWAP3 SWAP1 POP JUMP JUMPDEST PUSH1 0x0 PUSH2 0x803 DUP4 DUP4 PUSH2 0x8F2 JUMP JUMPDEST SWAP1 POP SWAP3 SWAP2 POP POP JUMP JUMPDEST PUSH1 0x0 PUSH2 0x816 DUP3 PUSH2 0xA64 JUMP JUMPDEST PUSH2 0x820 DUP2 DUP6 PUSH2 0xA87 JUMP JUMPDEST SWAP4 POP DUP4 PUSH1 0x20 DUP3 MUL DUP6 ADD PUSH2 0x832 DUP6 PUSH2 0xA54 JUMP JUMPDEST DUP1 PUSH1 0x0 JUMPDEST DUP6 DUP2 LT ISZERO PUSH2 0x86E JUMPI DUP5 DUP5 SUB DUP10 MSTORE DUP2 MLOAD PUSH2 0x84F DUP6 DUP3 PUSH2 0x7F7 JUMP JUMPDEST SWAP5 POP PUSH2 0x85A DUP4 PUSH2 0xA7A JUMP JUMPDEST SWAP3 POP PUSH1 0x20 DUP11 ADD SWAP10 POP POP PUSH1 0x1 DUP2 ADD SWAP1 POP PUSH2 0x836 JUMP JUMPDEST POP DUP3 SWAP8 POP DUP8 SWAP6 POP POP POP POP POP POP SWAP3 SWAP2 POP POP JUMP JUMPDEST PUSH1 0x0 PUSH2 0x88B DUP3 PUSH2 0xA6F JUMP JUMPDEST PUSH2 0x895 DUP2 DUP6 PUSH2 0xA98 JUMP JUMPDEST SWAP4 POP PUSH2 0x8A5 DUP2 DUP6 PUSH1 0x20 DUP7 ADD PUSH2 0xAD3 JUMP JUMPDEST PUSH2 0x8AE DUP2 PUSH2 0xC0A JUMP JUMPDEST DUP5 ADD SWAP2 POP POP SWAP3 SWAP2 POP POP JUMP JUMPDEST PUSH1 0x0 PUSH2 0x8C4 DUP3 PUSH2 0xA6F JUMP JUMPDEST PUSH2 0x8CE DUP2 DUP6 PUSH2 0xAA9 JUMP JUMPDEST SWAP4 POP PUSH2 0x8DE DUP2 DUP6 PUSH1 0x20 DUP7 ADD PUSH2 0xAD3 JUMP JUMPDEST PUSH2 0x8E7 DUP2 PUSH2 0xC0A JUMP JUMPDEST DUP5 ADD SWAP2 POP POP SWAP3 SWAP2 POP POP JUMP JUMPDEST PUSH1 0x0 PUSH1 0x40 DUP4 ADD PUSH1 0x0 DUP4 ADD MLOAD PUSH2 0x90A PUSH1 0x0 DUP7 ADD DUP3 PUSH2 0x96C JUMP JUMPDEST POP PUSH1 0x20 DUP4 ADD MLOAD DUP5 DUP3 SUB PUSH1 0x20 DUP7 ADD MSTORE PUSH2 0x922 DUP3 DUP3 PUSH2 0x880 JUMP JUMPDEST SWAP2 POP POP DUP1 SWAP2 POP POP SWAP3 SWAP2 POP POP JUMP JUMPDEST PUSH1 0x0 PUSH1 0x40 DUP4 ADD PUSH1 0x0 DUP4 ADD MLOAD PUSH2 0x947 PUSH1 0x0 DUP7 ADD DUP3 PUSH2 0x96C JUMP JUMPDEST POP PUSH1 0x20 DUP4 ADD MLOAD DUP5 DUP3 SUB PUSH1 0x20 DUP7 ADD MSTORE PUSH2 0x95F DUP3 DUP3 PUSH2 0x880 JUMP JUMPDEST SWAP2 POP POP DUP1 SWAP2 POP POP SWAP3 SWAP2 POP POP JUMP JUMPDEST PUSH2 0x975 DUP2 PUSH2 0xABA JUMP JUMPDEST DUP3 MSTORE POP POP JUMP JUMPDEST PUSH2 0x984 DUP2 PUSH2 0xABA JUMP JUMPDEST DUP3 MSTORE POP POP JUMP JUMPDEST PUSH1 0x0 PUSH1 0x20 DUP3 ADD SWAP1 POP DUP2 DUP2 SUB PUSH1 0x0 DUP4 ADD MSTORE PUSH2 0x9A4 DUP2 DUP5 PUSH2 0x80B JUMP JUMPDEST SWAP1 POP SWAP3 SWAP2 POP POP JUMP JUMPDEST PUSH1 0x0 PUSH1 0x20 DUP3 ADD SWAP1 POP DUP2 DUP2 SUB PUSH1 0x0 DUP4 ADD MSTORE PUSH2 0x9C6 DUP2 DUP5 PUSH2 0x92F JUMP JUMPDEST SWAP1 POP SWAP3 SWAP2 POP POP JUMP JUMPDEST PUSH1 0x0 PUSH1 0x40 DUP3 ADD SWAP1 POP PUSH2 0x9E3 PUSH1 0x0 DUP4 ADD DUP6 PUSH2 0x97B JUMP JUMPDEST DUP2 DUP2 SUB PUSH1 0x20 DUP4 ADD MSTORE PUSH2 0x9F5 DUP2 DUP5 PUSH2 0x8B9 JUMP JUMPDEST SWAP1 POP SWAP4 SWAP3 POP POP POP JUMP JUMPDEST PUSH1 0x0 PUSH2 0xA08 PUSH2 0xA19 JUMP JUMPDEST SWAP1 POP PUSH2 0xA14 DUP3 DUP3 PUSH2 0xB38 JUMP JUMPDEST SWAP2 SWAP1 POP JUMP JUMPDEST PUSH1 0x0 PUSH1 0x40 MLOAD SWAP1 POP SWAP1 JUMP JUMPDEST PUSH1 0x0 PUSH8 0xFFFFFFFFFFFFFFFF DUP3 GT ISZERO PUSH2 0xA3E JUMPI PUSH2 0xA3D PUSH2 0xBC7 JUMP JUMPDEST JUMPDEST PUSH2 0xA47 DUP3 PUSH2 0xC0A JUMP JUMPDEST SWAP1 POP PUSH1 0x20 DUP2 ADD SWAP1 POP SWAP2 SWAP1 POP JUMP JUMPDEST PUSH1 0x0 DUP2 SWAP1 POP PUSH1 0x20 DUP3 ADD SWAP1 POP SWAP2 SWAP1 POP JUMP JUMPDEST PUSH1 0x0 DUP2 MLOAD SWAP1 POP SWAP2 SWAP1 POP JUMP JUMPDEST PUSH1 0x0 DUP2 MLOAD SWAP1 POP SWAP2 SWAP1 POP JUMP JUMPDEST PUSH1 0x0 PUSH1 0x20 DUP3 ADD SWAP1 POP SWAP2 SWAP1 POP JUMP JUMPDEST PUSH1 0x0 DUP3 DUP3 MSTORE PUSH1 0x20 DUP3 ADD SWAP1 POP SWAP3 SWAP2 POP POP JUMP JUMPDEST PUSH1 0x0 DUP3 DUP3 MSTORE PUSH1 0x20 DUP3 ADD SWAP1 POP SWAP3 SWAP2 POP POP JUMP JUMPDEST PUSH1 0x0 DUP3 DUP3 MSTORE PUSH1 0x20 DUP3 ADD SWAP1 POP SWAP3 SWAP2 POP POP JUMP JUMPDEST PUSH1 0x0 DUP2 SWAP1 POP SWAP2 SWAP1 POP JUMP JUMPDEST DUP3 DUP2 DUP4 CALLDATACOPY PUSH1 0x0 DUP4 DUP4 ADD MSTORE POP POP POP JUMP JUMPDEST PUSH1 0x0 JUMPDEST DUP4 DUP2 LT ISZERO PUSH2 0xAF1 JUMPI DUP1 DUP3 ADD MLOAD DUP2 DUP5 ADD MSTORE PUSH1 0x20 DUP2 ADD SWAP1 POP PUSH2 0xAD6 JUMP JUMPDEST DUP4 DUP2 GT ISZERO PUSH2 0xB00 JUMPI PUSH1 0x0 DUP5 DUP5 ADD MSTORE JUMPDEST POP POP POP POP JUMP JUMPDEST PUSH1 0x0 PUSH1 0x2 DUP3 DIV SWAP1 POP PUSH1 0x1 DUP3 AND DUP1 PUSH2 0xB1E JUMPI PUSH1 0x7F DUP3 AND SWAP2 POP JUMPDEST PUSH1 0x20 DUP3 LT DUP2 EQ ISZERO PUSH2 0xB32 JUMPI PUSH2 0xB31 PUSH2 0xB69 JUMP JUMPDEST JUMPDEST POP SWAP2 SWAP1 POP JUMP JUMPDEST PUSH2 0xB41 DUP3 PUSH2 0xC0A JUMP JUMPDEST DUP2 ADD DUP2 DUP2 LT PUSH8 0xFFFFFFFFFFFFFFFF DUP3 GT OR ISZERO PUSH2 0xB60 JUMPI PUSH2 0xB5F PUSH2 0xBC7 JUMP JUMPDEST JUMPDEST DUP1 PUSH1 0x40 MSTORE POP POP POP JUMP JUMPDEST PUSH32 0x4E487B7100000000000000000000000000000000000000000000000000000000 PUSH1 0x0 MSTORE PUSH1 0x22 PUSH1 0x4 MSTORE PUSH1 0x24 PUSH1 0x0 REVERT JUMPDEST PUSH32 0x4E487B7100000000000000000000000000000000000000000000000000000000 PUSH1 0x0 MSTORE PUSH1 0x32 PUSH1 0x4 MSTORE PUSH1 0x24 PUSH1 0x0 REVERT JUMPDEST PUSH32 0x4E487B7100000000000000000000000000000000000000000000000000000000 PUSH1 0x0 MSTORE PUSH1 0x41 PUSH1 0x4 MSTORE PUSH1 0x24 PUSH1 0x0 REVERT JUMPDEST PUSH1 0x0 DUP1 REVERT JUMPDEST PUSH1 0x0 DUP1 REVERT JUMPDEST PUSH1 0x0 DUP1 REVERT JUMPDEST PUSH1 0x0 DUP1 REVERT JUMPDEST PUSH1 0x0 PUSH1 0x1F NOT PUSH1 0x1F DUP4 ADD AND SWAP1 POP SWAP2 SWAP1 POP JUMP JUMPDEST PUSH2 0xC24 DUP2 PUSH2 0xABA JUMP JUMPDEST DUP2 EQ PUSH2 0xC2F JUMPI PUSH1 0x0 DUP1 REVERT JUMPDEST POP JUMP INVALID LOG2 PUSH5 0x6970667358 0x22 SLT KECCAK256 0x5F 0xCC 0xEF PUSH3 0x433B5D REVERT PUSH22 0x250A758EF75DE758FCBD17830C083D941ECCB66998FE 0x27 PUSH5 0x736F6C6343 STOP ADDMOD SMOD STOP CALLER "
				},
				"gasEstimates": {
					"creation": {
						"codeDepositCost": "635200",
						"executionCost": "670",
						"totalCost": "635870"
					},
					"external": {
						"addTodo(uint256,string)": "infinite",
						"showTodo()": "infinite",
						"todos(uint256)": "infinite",
						"updateTodo(uint256)": "infinite"
					}
				},
				"methodIdentifiers": {
					"addTodo(uint256,string)": "c1da2020",
					"showTodo()": "82e76b88",
					"todos(uint256)": "bc8bc2b4",
					"updateTodo(uint256)": "61a41c08"
				}
			},
			"storageLayout": {
				"storage": [
					{
						"astId": 16,
						"contract": "todomain.sol:TodoMain",
						"label": "todos",
						"offset": 0,
						"slot": "0",
						"type": "t_array(t_struct(TodoObj)6_storage)dyn_storage"
					},
					{
						"astId": 22,
						"contract": "todomain.sol:TodoMain",
						"label": "todoMap",
						"offset": 0,
						"slot": "1",
						"type": "t_mapping(t_address,t_array(t_struct(TodoObj)6_storage)dyn_storage)"
					}
				],
				"types": {
					"t_address": {
						"encoding": "inplace",
						"label": "address",
						"numberOfBytes": "20"
					},
					"t_array(t_struct(TodoObj)6_storage)dyn_storage": {
						"base": "t_struct(TodoObj)6_storage",
						"encoding": "dynamic_array",
						"label": "struct TodoMain.TodoObj[]",
						"numberOfBytes": "32"
					},
					"t_mapping(t_address,t_array(t_struct(TodoObj)6_storage)dyn_storage)": {
						"encoding": "mapping",
						"key": "t_address",
						"label": "mapping(address => struct TodoMain.TodoObj[])",
						"numberOfBytes": "32",
						"value": "t_array(t_struct(TodoObj)6_storage)dyn_storage"
					},
					"t_string_storage": {
						"encoding": "bytes",
						"label": "string",
						"numberOfBytes": "32"
					},
					"t_struct(TodoObj)6_storage": {
						"encoding": "inplace",
						"label": "struct TodoMain.TodoObj",
						"members": [
							{
								"astId": 3,
								"contract": "todomain.sol:TodoMain",
								"label": "id",
								"offset": 0,
								"slot": "0",
								"type": "t_uint256"
							},
							{
								"astId": 5,
								"contract": "todomain.sol:TodoMain",
								"label": "todoName",
								"offset": 0,
								"slot": "1",
								"type": "t_string_storage"
							}
						],
						"numberOfBytes": "64"
					},
					"t_uint256": {
						"encoding": "inplace",
						"label": "uint256",
						"numberOfBytes": "32"
					}
				}
			},
			"userdoc": {
				"kind": "user",
				"methods": {},
				"version": 1
			}
		}
	}
}