{
	"Todo.sol": {
		"Todo": {
			"abi": [
				{
					"inputs": [
						{
							"internalType": "uint256",
							"name": "_id",
							"type": "uint256"
						},
						{
							"internalType": "string",
							"name": "todo",
							"type": "string"
						}
					],
					"name": "addTodo",
					"outputs": [],
					"stateMutability": "nonpayable",
					"type": "function"
				},
				{
					"inputs": [
						{
							"internalType": "uint256",
							"name": "_id_",
							"type": "uint256"
						}
					],
					"name": "dltTodo",
					"outputs": [],
					"stateMutability": "nonpayable",
					"type": "function"
				},
				{
					"inputs": [],
					"name": "resetAll",
					"outputs": [],
					"stateMutability": "nonpayable",
					"type": "function"
				},
				{
					"inputs": [],
					"name": "showTodos",
					"outputs": [
						{
							"components": [
								{
									"internalType": "uint256",
									"name": "id",
									"type": "uint256"
								},
								{
									"internalType": "string",
									"name": "todoText",
									"type": "string"
								}
							],
							"internalType": "struct Todo.todoObj[]",
							"name": "",
							"type": "tuple[]"
						}
					],
					"stateMutability": "view",
					"type": "function"
				},
				{
					"inputs": [
						{
							"internalType": "uint256",
							"name": "id_",
							"type": "uint256"
						},
						{
							"internalType": "string",
							"name": "new_todoText",
							"type": "string"
						}
					],
					"name": "updateTodos",
					"outputs": [],
					"stateMutability": "nonpayable",
					"type": "function"
				}
			],
			"devdoc": {
				"kind": "dev",
				"methods": {},
				"version": 1
			},
			"evm": {
				"assembly": "    /* \"Todo.sol\":66:969  contract Todo{\r... */\n  mstore(0x40, 0x80)\n  callvalue\n  dup1\n  iszero\n  tag_1\n  jumpi\n  0x00\n  dup1\n  revert\ntag_1:\n  pop\n  dataSize(sub_0)\n  dup1\n  dataOffset(sub_0)\n  0x00\n  codecopy\n  0x00\n  return\nstop\n\nsub_0: assembly {\n        /* \"Todo.sol\":66:969  contract Todo{\r... */\n      mstore(0x40, 0x80)\n      callvalue\n      dup1\n      iszero\n      tag_1\n      jumpi\n      0x00\n      dup1\n      revert\n    tag_1:\n      pop\n      jumpi(tag_2, lt(calldatasize, 0x04))\n      shr(0xe0, calldataload(0x00))\n      dup1\n      0x600060eb\n      eq\n      tag_3\n      jumpi\n      dup1\n      0x67e8b7f7\n      eq\n      tag_4\n      jumpi\n      dup1\n      0xa3dad43e\n      eq\n      tag_5\n      jumpi\n      dup1\n      0xc1da2020\n      eq\n      tag_6\n      jumpi\n      dup1\n      0xe103aef5\n      eq\n      tag_7\n      jumpi\n    tag_2:\n      0x00\n      dup1\n      revert\n        /* \"Todo.sol\":571:660  function showTodos() public view returns(todoObj[] memory){\r... */\n    tag_3:\n      tag_8\n      tag_9\n      jump\t// in\n    tag_8:\n      mload(0x40)\n      tag_10\n      swap2\n      swap1\n      tag_11\n      jump\t// in\n    tag_10:\n      mload(0x40)\n      dup1\n      swap2\n      sub\n      swap1\n      return\n        /* \"Todo.sol\":670:901  function updateTodos(uint id_,string memory new_todoText) public {\r... */\n    tag_4:\n      tag_12\n      0x04\n      dup1\n      calldatasize\n      sub\n      dup2\n      add\n      swap1\n      tag_13\n      swap2\n      swap1\n      tag_14\n      jump\t// in\n    tag_13:\n      tag_15\n      jump\t// in\n    tag_12:\n      stop\n        /* \"Todo.sol\":378:561  function dltTodo(uint _id_) public{\r... */\n    tag_5:\n      tag_16\n      0x04\n      dup1\n      calldatasize\n      sub\n      dup2\n      add\n      swap1\n      tag_17\n      swap2\n      swap1\n      tag_18\n      jump\t// in\n    tag_17:\n      tag_19\n      jump\t// in\n    tag_16:\n      stop\n        /* \"Todo.sol\":230:370  function addTodo(uint _id,string memory todo) public {\r... */\n    tag_6:\n      tag_20\n      0x04\n      dup1\n      calldatasize\n      sub\n      dup2\n      add\n      swap1\n      tag_21\n      swap2\n      swap1\n      tag_14\n      jump\t// in\n    tag_21:\n      tag_22\n      jump\t// in\n    tag_20:\n      stop\n        /* \"Todo.sol\":907:964  function resetAll() public{\r... */\n    tag_7:\n      tag_23\n      tag_24\n      jump\t// in\n    tag_23:\n      stop\n        /* \"Todo.sol\":571:660  function showTodos() public view returns(todoObj[] memory){\r... */\n    tag_9:\n        /* \"Todo.sol\":612:628  todoObj[] memory */\n      0x60\n        /* \"Todo.sol\":647:652  todos */\n      0x00\n        /* \"Todo.sol\":640:652  return todos */\n      dup1\n      sload\n      dup1\n      0x20\n      mul\n      0x20\n      add\n      mload(0x40)\n      swap1\n      dup2\n      add\n      0x40\n      mstore\n      dup1\n      swap3\n      swap2\n      swap1\n      dup2\n      dup2\n      mstore\n      0x20\n      add\n      0x00\n      swap1\n    tag_26:\n      dup3\n      dup3\n      lt\n      iszero\n      tag_27\n      jumpi\n      dup4\n      dup3\n      swap1\n      0x00\n      mstore\n      keccak256(0x00, 0x20)\n      swap1\n      0x02\n      mul\n      add\n      mload(0x40)\n      dup1\n      0x40\n      add\n      0x40\n      mstore\n      swap1\n      dup2\n      0x00\n      dup3\n      add\n      sload\n      dup2\n      mstore\n      0x20\n      add\n      0x01\n      dup3\n      add\n      dup1\n      sload\n      tag_29\n      swap1\n      tag_30\n      jump\t// in\n    tag_29:\n      dup1\n      0x1f\n      add\n      0x20\n      dup1\n      swap2\n      div\n      mul\n      0x20\n      add\n      mload(0x40)\n      swap1\n      dup2\n      add\n      0x40\n      mstore\n      dup1\n      swap3\n      swap2\n      swap1\n      dup2\n      dup2\n      mstore\n      0x20\n      add\n      dup3\n      dup1\n      sload\n      tag_31\n      swap1\n      tag_30\n      jump\t// in\n    tag_31:\n      dup1\n      iszero\n      tag_32\n      jumpi\n      dup1\n      0x1f\n      lt\n      tag_33\n      jumpi\n      0x0100\n      dup1\n      dup4\n      sload\n      div\n      mul\n      dup4\n      mstore\n      swap2\n      0x20\n      add\n      swap2\n      jump(tag_32)\n    tag_33:\n      dup3\n      add\n      swap2\n      swap1\n      0x00\n      mstore\n      keccak256(0x00, 0x20)\n      swap1\n    tag_34:\n      dup2\n      sload\n      dup2\n      mstore\n      swap1\n      0x01\n      add\n      swap1\n      0x20\n      add\n      dup1\n      dup4\n      gt\n      tag_34\n      jumpi\n      dup3\n      swap1\n      sub\n      0x1f\n      and\n      dup3\n      add\n      swap2\n    tag_32:\n      pop\n      pop\n      pop\n      pop\n      pop\n      dup2\n      mstore\n      pop\n      pop\n      dup2\n      mstore\n      0x20\n      add\n      swap1\n      0x01\n      add\n      swap1\n      jump(tag_26)\n    tag_27:\n      pop\n      pop\n      pop\n      pop\n      swap1\n      pop\n        /* \"Todo.sol\":571:660  function showTodos() public view returns(todoObj[] memory){\r... */\n      swap1\n      jump\t// out\n        /* \"Todo.sol\":670:901  function updateTodos(uint id_,string memory new_todoText) public {\r... */\n    tag_15:\n        /* \"Todo.sol\":750:756  uint i */\n      0x00\n        /* \"Todo.sol\":746:894  for(uint i =0;i<todos.length;i++){\r... */\n    tag_36:\n        /* \"Todo.sol\":762:767  todos */\n      0x00\n        /* \"Todo.sol\":762:774  todos.length */\n      dup1\n      sload\n      swap1\n      pop\n        /* \"Todo.sol\":760:761  i */\n      dup2\n        /* \"Todo.sol\":760:774  i<todos.length */\n      lt\n        /* \"Todo.sol\":746:894  for(uint i =0;i<todos.length;i++){\r... */\n      iszero\n      tag_37\n      jumpi\n        /* \"Todo.sol\":812:815  id_ */\n      dup3\n        /* \"Todo.sol\":797:802  todos */\n      0x00\n        /* \"Todo.sol\":803:804  i */\n      dup3\n        /* \"Todo.sol\":797:805  todos[i] */\n      dup2\n      sload\n      dup2\n      lt\n      tag_39\n      jumpi\n      tag_40\n      tag_41\n      jump\t// in\n    tag_40:\n    tag_39:\n      swap1\n      0x00\n      mstore\n      keccak256(0x00, 0x20)\n      swap1\n      0x02\n      mul\n      add\n        /* \"Todo.sol\":797:808  todos[i].id */\n      0x00\n      add\n      sload\n        /* \"Todo.sol\":797:815  todos[i].id == id_ */\n      eq\n        /* \"Todo.sol\":794:883  if(todos[i].id == id_){\r... */\n      iszero\n      tag_43\n      jumpi\n        /* \"Todo.sol\":855:867  new_todoText */\n      dup2\n        /* \"Todo.sol\":835:840  todos */\n      0x00\n        /* \"Todo.sol\":841:842  i */\n      dup3\n        /* \"Todo.sol\":835:843  todos[i] */\n      dup2\n      sload\n      dup2\n      lt\n      tag_44\n      jumpi\n      tag_45\n      tag_41\n      jump\t// in\n    tag_45:\n    tag_44:\n      swap1\n      0x00\n      mstore\n      keccak256(0x00, 0x20)\n      swap1\n      0x02\n      mul\n      add\n        /* \"Todo.sol\":835:852  todos[i].todoText */\n      0x01\n      add\n        /* \"Todo.sol\":835:867  todos[i].todoText = new_todoText */\n      swap1\n      dup1\n      mload\n      swap1\n      0x20\n      add\n      swap1\n      tag_47\n      swap3\n      swap2\n      swap1\n      tag_48\n      jump\t// in\n    tag_47:\n      pop\n        /* \"Todo.sol\":794:883  if(todos[i].id == id_){\r... */\n    tag_43:\n        /* \"Todo.sol\":775:778  i++ */\n      dup1\n      dup1\n      tag_49\n      swap1\n      tag_50\n      jump\t// in\n    tag_49:\n      swap2\n      pop\n      pop\n        /* \"Todo.sol\":746:894  for(uint i =0;i<todos.length;i++){\r... */\n      jump(tag_36)\n    tag_37:\n      pop\n        /* \"Todo.sol\":670:901  function updateTodos(uint id_,string memory new_todoText) public {\r... */\n      pop\n      pop\n      jump\t// out\n        /* \"Todo.sol\":378:561  function dltTodo(uint _id_) public{\r... */\n    tag_19:\n        /* \"Todo.sol\":427:433  uint i */\n      0x00\n        /* \"Todo.sol\":423:554  for(uint i=0;i<todos.length;i++){\r... */\n    tag_52:\n        /* \"Todo.sol\":438:443  todos */\n      0x00\n        /* \"Todo.sol\":438:450  todos.length */\n      dup1\n      sload\n      swap1\n      pop\n        /* \"Todo.sol\":436:437  i */\n      dup2\n        /* \"Todo.sol\":436:450  i<todos.length */\n      lt\n        /* \"Todo.sol\":423:554  for(uint i=0;i<todos.length;i++){\r... */\n      iszero\n      tag_53\n      jumpi\n        /* \"Todo.sol\":488:492  _id_ */\n      dup2\n        /* \"Todo.sol\":473:478  todos */\n      0x00\n        /* \"Todo.sol\":479:480  i */\n      dup3\n        /* \"Todo.sol\":473:481  todos[i] */\n      dup2\n      sload\n      dup2\n      lt\n      tag_55\n      jumpi\n      tag_56\n      tag_41\n      jump\t// in\n    tag_56:\n    tag_55:\n      swap1\n      0x00\n      mstore\n      keccak256(0x00, 0x20)\n      swap1\n      0x02\n      mul\n      add\n        /* \"Todo.sol\":473:484  todos[i].id */\n      0x00\n      add\n      sload\n        /* \"Todo.sol\":473:492  todos[i].id == _id_ */\n      eq\n        /* \"Todo.sol\":470:543  if(todos[i].id == _id_){\r... */\n      iszero\n      tag_58\n      jumpi\n        /* \"Todo.sol\":519:524  todos */\n      0x00\n        /* \"Todo.sol\":525:526  i */\n      dup2\n        /* \"Todo.sol\":519:527  todos[i] */\n      dup2\n      sload\n      dup2\n      lt\n      tag_59\n      jumpi\n      tag_60\n      tag_41\n      jump\t// in\n    tag_60:\n    tag_59:\n      swap1\n      0x00\n      mstore\n      keccak256(0x00, 0x20)\n      swap1\n      0x02\n      mul\n      add\n      0x00\n        /* \"Todo.sol\":512:527  delete todos[i] */\n      dup1\n      dup3\n      add\n      0x00\n      swap1\n      sstore\n      0x01\n      dup3\n      add\n      0x00\n      tag_62\n      swap2\n      swap1\n      tag_63\n      jump\t// in\n    tag_62:\n      pop\n      pop\n        /* \"Todo.sol\":470:543  if(todos[i].id == _id_){\r... */\n    tag_58:\n        /* \"Todo.sol\":451:454  i++ */\n      dup1\n      dup1\n      tag_64\n      swap1\n      tag_50\n      jump\t// in\n    tag_64:\n      swap2\n      pop\n      pop\n        /* \"Todo.sol\":423:554  for(uint i=0;i<todos.length;i++){\r... */\n      jump(tag_52)\n    tag_53:\n      pop\n        /* \"Todo.sol\":378:561  function dltTodo(uint _id_) public{\r... */\n      pop\n      jump\t// out\n        /* \"Todo.sol\":230:370  function addTodo(uint _id,string memory todo) public {\r... */\n    tag_22:\n        /* \"Todo.sol\":294:299  todos */\n      0x00\n        /* \"Todo.sol\":305:322  todoObj(_id,todo) */\n      mload(0x40)\n      dup1\n      0x40\n      add\n      0x40\n      mstore\n      dup1\n        /* \"Todo.sol\":313:316  _id */\n      dup5\n        /* \"Todo.sol\":305:322  todoObj(_id,todo) */\n      dup2\n      mstore\n      0x20\n      add\n        /* \"Todo.sol\":317:321  todo */\n      dup4\n        /* \"Todo.sol\":305:322  todoObj(_id,todo) */\n      dup2\n      mstore\n      pop\n        /* \"Todo.sol\":294:323  todos.push(todoObj(_id,todo)) */\n      swap1\n      dup1\n      0x01\n      dup2\n      sload\n      add\n      dup1\n      dup3\n      sstore\n      dup1\n      swap2\n      pop\n      pop\n      0x01\n      swap1\n      sub\n      swap1\n      0x00\n      mstore\n      keccak256(0x00, 0x20)\n      swap1\n      0x02\n      mul\n      add\n      0x00\n      swap1\n      swap2\n      swap1\n      swap2\n      swap1\n      swap2\n      pop\n      0x00\n      dup3\n      add\n      mload\n      dup2\n      0x00\n      add\n      sstore\n      0x20\n      dup3\n      add\n      mload\n      dup2\n      0x01\n      add\n      swap1\n      dup1\n      mload\n      swap1\n      0x20\n      add\n      swap1\n      tag_67\n      swap3\n      swap2\n      swap1\n      tag_48\n      jump\t// in\n    tag_67:\n      pop\n      pop\n      pop\n        /* \"Todo.sol\":357:362  todos */\n      0x00\n        /* \"Todo.sol\":334:342  todosMap */\n      0x01\n        /* \"Todo.sol\":334:354  todosMap[msg.sender] */\n      0x00\n        /* \"Todo.sol\":343:353  msg.sender */\n      caller\n        /* \"Todo.sol\":334:354  todosMap[msg.sender] */\n      0xffffffffffffffffffffffffffffffffffffffff\n      and\n      0xffffffffffffffffffffffffffffffffffffffff\n      and\n      dup2\n      mstore\n      0x20\n      add\n      swap1\n      dup2\n      mstore\n      0x20\n      add\n      0x00\n      keccak256\n        /* \"Todo.sol\":334:362  todosMap[msg.sender] = todos */\n      swap1\n      dup1\n      sload\n      tag_68\n      swap3\n      swap2\n      swap1\n      tag_69\n      jump\t// in\n    tag_68:\n      pop\n        /* \"Todo.sol\":230:370  function addTodo(uint _id,string memory todo) public {\r... */\n      pop\n      pop\n      jump\t// out\n        /* \"Todo.sol\":907:964  function resetAll() public{\r... */\n    tag_24:\n        /* \"Todo.sol\":951:956  todos */\n      0x00\n      dup1\n        /* \"Todo.sol\":944:956  delete todos */\n      tag_71\n      swap2\n      swap1\n      tag_72\n      jump\t// in\n    tag_71:\n        /* \"Todo.sol\":907:964  function resetAll() public{\r... */\n      jump\t// out\n    tag_48:\n      dup3\n      dup1\n      sload\n      tag_73\n      swap1\n      tag_30\n      jump\t// in\n    tag_73:\n      swap1\n      0x00\n      mstore\n      keccak256(0x00, 0x20)\n      swap1\n      0x1f\n      add\n      0x20\n      swap1\n      div\n      dup2\n      add\n      swap3\n      dup3\n      tag_75\n      jumpi\n      0x00\n      dup6\n      sstore\n      jump(tag_74)\n    tag_75:\n      dup3\n      0x1f\n      lt\n      tag_76\n      jumpi\n      dup1\n      mload\n      not(0xff)\n      and\n      dup4\n      dup1\n      add\n      or\n      dup6\n      sstore\n      jump(tag_74)\n    tag_76:\n      dup3\n      dup1\n      add\n      0x01\n      add\n      dup6\n      sstore\n      dup3\n      iszero\n      tag_74\n      jumpi\n      swap2\n      dup3\n      add\n    tag_77:\n      dup3\n      dup2\n      gt\n      iszero\n      tag_78\n      jumpi\n      dup3\n      mload\n      dup3\n      sstore\n      swap2\n      0x20\n      add\n      swap2\n      swap1\n      0x01\n      add\n      swap1\n      jump(tag_77)\n    tag_78:\n    tag_74:\n      pop\n      swap1\n      pop\n      tag_79\n      swap2\n      swap1\n      tag_80\n      jump\t// in\n    tag_79:\n      pop\n      swap1\n      jump\t// out\n    tag_63:\n      pop\n      dup1\n      sload\n      tag_81\n      swap1\n      tag_30\n      jump\t// in\n    tag_81:\n      0x00\n      dup3\n      sstore\n      dup1\n      0x1f\n      lt\n      tag_83\n      jumpi\n      pop\n      jump(tag_82)\n    tag_83:\n      0x1f\n      add\n      0x20\n      swap1\n      div\n      swap1\n      0x00\n      mstore\n      keccak256(0x00, 0x20)\n      swap1\n      dup2\n      add\n      swap1\n      tag_84\n      swap2\n      swap1\n      tag_80\n      jump\t// in\n    tag_84:\n    tag_82:\n      pop\n      jump\t// out\n    tag_69:\n      dup3\n      dup1\n      sload\n      dup3\n      dup3\n      sstore\n      swap1\n      0x00\n      mstore\n      keccak256(0x00, 0x20)\n      swap1\n      0x02\n      mul\n      dup2\n      add\n      swap3\n      dup3\n      iszero\n      tag_85\n      jumpi\n      0x00\n      mstore\n      keccak256(0x00, 0x20)\n      swap2\n      0x02\n      mul\n      dup3\n      add\n    tag_86:\n      dup3\n      dup2\n      gt\n      iszero\n      tag_87\n      jumpi\n      dup3\n      dup3\n      0x00\n      dup3\n      add\n      sload\n      dup2\n      0x00\n      add\n      sstore\n      0x01\n      dup3\n      add\n      dup2\n      0x01\n      add\n      swap1\n      dup1\n      sload\n      tag_88\n      swap1\n      tag_30\n      jump\t// in\n    tag_88:\n      tag_89\n      swap3\n      swap2\n      swap1\n      tag_90\n      jump\t// in\n    tag_89:\n      pop\n      pop\n      pop\n      swap2\n      0x02\n      add\n      swap2\n      swap1\n      0x02\n      add\n      swap1\n      jump(tag_86)\n    tag_87:\n    tag_85:\n      pop\n      swap1\n      pop\n      tag_91\n      swap2\n      swap1\n      tag_92\n      jump\t// in\n    tag_91:\n      pop\n      swap1\n      jump\t// out\n    tag_72:\n      pop\n      dup1\n      sload\n      0x00\n      dup3\n      sstore\n      0x02\n      mul\n      swap1\n      0x00\n      mstore\n      keccak256(0x00, 0x20)\n      swap1\n      dup2\n      add\n      swap1\n      tag_94\n      swap2\n      swap1\n      tag_92\n      jump\t// in\n    tag_94:\n      pop\n      jump\t// out\n    tag_80:\n    tag_95:\n      dup1\n      dup3\n      gt\n      iszero\n      tag_96\n      jumpi\n      0x00\n      dup2\n      0x00\n      swap1\n      sstore\n      pop\n      0x01\n      add\n      jump(tag_95)\n    tag_96:\n      pop\n      swap1\n      jump\t// out\n    tag_90:\n      dup3\n      dup1\n      sload\n      tag_97\n      swap1\n      tag_30\n      jump\t// in\n    tag_97:\n      swap1\n      0x00\n      mstore\n      keccak256(0x00, 0x20)\n      swap1\n      0x1f\n      add\n      0x20\n      swap1\n      div\n      dup2\n      add\n      swap3\n      dup3\n      tag_99\n      jumpi\n      0x00\n      dup6\n      sstore\n      jump(tag_98)\n    tag_99:\n      dup3\n      0x1f\n      lt\n      tag_100\n      jumpi\n      dup1\n      sload\n      dup6\n      sstore\n      jump(tag_98)\n    tag_100:\n      dup3\n      dup1\n      add\n      0x01\n      add\n      dup6\n      sstore\n      dup3\n      iszero\n      tag_98\n      jumpi\n      0x00\n      mstore\n      keccak256(0x00, 0x20)\n      swap2\n      0x1f\n      add\n      0x20\n      swap1\n      div\n      dup3\n      add\n    tag_101:\n      dup3\n      dup2\n      gt\n      iszero\n      tag_102\n      jumpi\n      dup3\n      sload\n      dup3\n      sstore\n      swap2\n      0x01\n      add\n      swap2\n      swap1\n      0x01\n      add\n      swap1\n      jump(tag_101)\n    tag_102:\n    tag_98:\n      pop\n      swap1\n      pop\n      tag_103\n      swap2\n      swap1\n      tag_80\n      jump\t// in\n    tag_103:\n      pop\n      swap1\n      jump\t// out\n    tag_92:\n    tag_104:\n      dup1\n      dup3\n      gt\n      iszero\n      tag_105\n      jumpi\n      0x00\n      dup1\n      dup3\n      add\n      0x00\n      swap1\n      sstore\n      0x01\n      dup3\n      add\n      0x00\n      tag_106\n      swap2\n      swap1\n      tag_63\n      jump\t// in\n    tag_106:\n      pop\n      0x02\n      add\n      jump(tag_104)\n    tag_105:\n      pop\n      swap1\n      jump\t// out\n        /* \"#utility.yul\":7:419   */\n    tag_108:\n        /* \"#utility.yul\":85:90   */\n      0x00\n        /* \"#utility.yul\":110:176   */\n      tag_110\n        /* \"#utility.yul\":126:175   */\n      tag_111\n        /* \"#utility.yul\":168:174   */\n      dup5\n        /* \"#utility.yul\":126:175   */\n      tag_112\n      jump\t// in\n    tag_111:\n        /* \"#utility.yul\":110:176   */\n      tag_113\n      jump\t// in\n    tag_110:\n        /* \"#utility.yul\":101:176   */\n      swap1\n      pop\n        /* \"#utility.yul\":199:205   */\n      dup3\n        /* \"#utility.yul\":192:197   */\n      dup2\n        /* \"#utility.yul\":185:206   */\n      mstore\n        /* \"#utility.yul\":237:241   */\n      0x20\n        /* \"#utility.yul\":230:235   */\n      dup2\n        /* \"#utility.yul\":226:242   */\n      add\n        /* \"#utility.yul\":275:278   */\n      dup5\n        /* \"#utility.yul\":266:272   */\n      dup5\n        /* \"#utility.yul\":261:264   */\n      dup5\n        /* \"#utility.yul\":257:273   */\n      add\n        /* \"#utility.yul\":254:279   */\n      gt\n        /* \"#utility.yul\":251:363   */\n      iszero\n      tag_114\n      jumpi\n        /* \"#utility.yul\":282:361   */\n      tag_115\n      tag_116\n      jump\t// in\n    tag_115:\n        /* \"#utility.yul\":251:363   */\n    tag_114:\n        /* \"#utility.yul\":372:413   */\n      tag_117\n        /* \"#utility.yul\":406:412   */\n      dup5\n        /* \"#utility.yul\":401:404   */\n      dup3\n        /* \"#utility.yul\":396:399   */\n      dup6\n        /* \"#utility.yul\":372:413   */\n      tag_118\n      jump\t// in\n    tag_117:\n        /* \"#utility.yul\":91:419   */\n      pop\n        /* \"#utility.yul\":7:419   */\n      swap4\n      swap3\n      pop\n      pop\n      pop\n      jump\t// out\n        /* \"#utility.yul\":439:779   */\n    tag_119:\n        /* \"#utility.yul\":495:500   */\n      0x00\n        /* \"#utility.yul\":544:547   */\n      dup3\n        /* \"#utility.yul\":537:541   */\n      0x1f\n        /* \"#utility.yul\":529:535   */\n      dup4\n        /* \"#utility.yul\":525:542   */\n      add\n        /* \"#utility.yul\":521:548   */\n      slt\n        /* \"#utility.yul\":511:633   */\n      tag_121\n      jumpi\n        /* \"#utility.yul\":552:631   */\n      tag_122\n      tag_123\n      jump\t// in\n    tag_122:\n        /* \"#utility.yul\":511:633   */\n    tag_121:\n        /* \"#utility.yul\":669:675   */\n      dup2\n        /* \"#utility.yul\":656:676   */\n      calldataload\n        /* \"#utility.yul\":694:773   */\n      tag_124\n        /* \"#utility.yul\":769:772   */\n      dup5\n        /* \"#utility.yul\":761:767   */\n      dup3\n        /* \"#utility.yul\":754:758   */\n      0x20\n        /* \"#utility.yul\":746:752   */\n      dup7\n        /* \"#utility.yul\":742:759   */\n      add\n        /* \"#utility.yul\":694:773   */\n      tag_108\n      jump\t// in\n    tag_124:\n        /* \"#utility.yul\":685:773   */\n      swap2\n      pop\n        /* \"#utility.yul\":501:779   */\n      pop\n        /* \"#utility.yul\":439:779   */\n      swap3\n      swap2\n      pop\n      pop\n      jump\t// out\n        /* \"#utility.yul\":785:924   */\n    tag_125:\n        /* \"#utility.yul\":831:836   */\n      0x00\n        /* \"#utility.yul\":869:875   */\n      dup2\n        /* \"#utility.yul\":856:876   */\n      calldataload\n        /* \"#utility.yul\":847:876   */\n      swap1\n      pop\n        /* \"#utility.yul\":885:918   */\n      tag_127\n        /* \"#utility.yul\":912:917   */\n      dup2\n        /* \"#utility.yul\":885:918   */\n      tag_128\n      jump\t// in\n    tag_127:\n        /* \"#utility.yul\":785:924   */\n      swap3\n      swap2\n      pop\n      pop\n      jump\t// out\n        /* \"#utility.yul\":930:1259   */\n    tag_18:\n        /* \"#utility.yul\":989:995   */\n      0x00\n        /* \"#utility.yul\":1038:1040   */\n      0x20\n        /* \"#utility.yul\":1026:1035   */\n      dup3\n        /* \"#utility.yul\":1017:1024   */\n      dup5\n        /* \"#utility.yul\":1013:1036   */\n      sub\n        /* \"#utility.yul\":1009:1041   */\n      slt\n        /* \"#utility.yul\":1006:1125   */\n      iszero\n      tag_130\n      jumpi\n        /* \"#utility.yul\":1044:1123   */\n      tag_131\n      tag_132\n      jump\t// in\n    tag_131:\n        /* \"#utility.yul\":1006:1125   */\n    tag_130:\n        /* \"#utility.yul\":1164:1165   */\n      0x00\n        /* \"#utility.yul\":1189:1242   */\n      tag_133\n        /* \"#utility.yul\":1234:1241   */\n      dup5\n        /* \"#utility.yul\":1225:1231   */\n      dup3\n        /* \"#utility.yul\":1214:1223   */\n      dup6\n        /* \"#utility.yul\":1210:1232   */\n      add\n        /* \"#utility.yul\":1189:1242   */\n      tag_125\n      jump\t// in\n    tag_133:\n        /* \"#utility.yul\":1179:1242   */\n      swap2\n      pop\n        /* \"#utility.yul\":1135:1252   */\n      pop\n        /* \"#utility.yul\":930:1259   */\n      swap3\n      swap2\n      pop\n      pop\n      jump\t// out\n        /* \"#utility.yul\":1265:1919   */\n    tag_14:\n        /* \"#utility.yul\":1343:1349   */\n      0x00\n        /* \"#utility.yul\":1351:1357   */\n      dup1\n        /* \"#utility.yul\":1400:1402   */\n      0x40\n        /* \"#utility.yul\":1388:1397   */\n      dup4\n        /* \"#utility.yul\":1379:1386   */\n      dup6\n        /* \"#utility.yul\":1375:1398   */\n      sub\n        /* \"#utility.yul\":1371:1403   */\n      slt\n        /* \"#utility.yul\":1368:1487   */\n      iszero\n      tag_135\n      jumpi\n        /* \"#utility.yul\":1406:1485   */\n      tag_136\n      tag_132\n      jump\t// in\n    tag_136:\n        /* \"#utility.yul\":1368:1487   */\n    tag_135:\n        /* \"#utility.yul\":1526:1527   */\n      0x00\n        /* \"#utility.yul\":1551:1604   */\n      tag_137\n        /* \"#utility.yul\":1596:1603   */\n      dup6\n        /* \"#utility.yul\":1587:1593   */\n      dup3\n        /* \"#utility.yul\":1576:1585   */\n      dup7\n        /* \"#utility.yul\":1572:1594   */\n      add\n        /* \"#utility.yul\":1551:1604   */\n      tag_125\n      jump\t// in\n    tag_137:\n        /* \"#utility.yul\":1541:1604   */\n      swap3\n      pop\n        /* \"#utility.yul\":1497:1614   */\n      pop\n        /* \"#utility.yul\":1681:1683   */\n      0x20\n        /* \"#utility.yul\":1670:1679   */\n      dup4\n        /* \"#utility.yul\":1666:1684   */\n      add\n        /* \"#utility.yul\":1653:1685   */\n      calldataload\n        /* \"#utility.yul\":1712:1730   */\n      0xffffffffffffffff\n        /* \"#utility.yul\":1704:1710   */\n      dup2\n        /* \"#utility.yul\":1701:1731   */\n      gt\n        /* \"#utility.yul\":1698:1815   */\n      iszero\n      tag_138\n      jumpi\n        /* \"#utility.yul\":1734:1813   */\n      tag_139\n      tag_140\n      jump\t// in\n    tag_139:\n        /* \"#utility.yul\":1698:1815   */\n    tag_138:\n        /* \"#utility.yul\":1839:1902   */\n      tag_141\n        /* \"#utility.yul\":1894:1901   */\n      dup6\n        /* \"#utility.yul\":1885:1891   */\n      dup3\n        /* \"#utility.yul\":1874:1883   */\n      dup7\n        /* \"#utility.yul\":1870:1892   */\n      add\n        /* \"#utility.yul\":1839:1902   */\n      tag_119\n      jump\t// in\n    tag_141:\n        /* \"#utility.yul\":1829:1902   */\n      swap2\n      pop\n        /* \"#utility.yul\":1624:1912   */\n      pop\n        /* \"#utility.yul\":1265:1919   */\n      swap3\n      pop\n      swap3\n      swap1\n      pop\n      jump\t// out\n        /* \"#utility.yul\":1925:2169   */\n    tag_142:\n        /* \"#utility.yul\":2038:2048   */\n      0x00\n        /* \"#utility.yul\":2073:2163   */\n      tag_144\n        /* \"#utility.yul\":2159:2162   */\n      dup4\n        /* \"#utility.yul\":2151:2157   */\n      dup4\n        /* \"#utility.yul\":2073:2163   */\n      tag_145\n      jump\t// in\n    tag_144:\n        /* \"#utility.yul\":2059:2163   */\n      swap1\n      pop\n        /* \"#utility.yul\":1925:2169   */\n      swap3\n      swap2\n      pop\n      pop\n      jump\t// out\n        /* \"#utility.yul\":2229:3316   */\n    tag_146:\n        /* \"#utility.yul\":2392:2395   */\n      0x00\n        /* \"#utility.yul\":2421:2497   */\n      tag_148\n        /* \"#utility.yul\":2491:2496   */\n      dup3\n        /* \"#utility.yul\":2421:2497   */\n      tag_149\n      jump\t// in\n    tag_148:\n        /* \"#utility.yul\":2513:2621   */\n      tag_150\n        /* \"#utility.yul\":2614:2620   */\n      dup2\n        /* \"#utility.yul\":2609:2612   */\n      dup6\n        /* \"#utility.yul\":2513:2621   */\n      tag_151\n      jump\t// in\n    tag_150:\n        /* \"#utility.yul\":2506:2621   */\n      swap4\n      pop\n        /* \"#utility.yul\":2647:2650   */\n      dup4\n        /* \"#utility.yul\":2692:2696   */\n      0x20\n        /* \"#utility.yul\":2684:2690   */\n      dup3\n        /* \"#utility.yul\":2680:2697   */\n      mul\n        /* \"#utility.yul\":2675:2678   */\n      dup6\n        /* \"#utility.yul\":2671:2698   */\n      add\n        /* \"#utility.yul\":2722:2800   */\n      tag_152\n        /* \"#utility.yul\":2794:2799   */\n      dup6\n        /* \"#utility.yul\":2722:2800   */\n      tag_153\n      jump\t// in\n    tag_152:\n        /* \"#utility.yul\":2823:2830   */\n      dup1\n        /* \"#utility.yul\":2854:2855   */\n      0x00\n        /* \"#utility.yul\":2839:3271   */\n    tag_154:\n        /* \"#utility.yul\":2864:2870   */\n      dup6\n        /* \"#utility.yul\":2861:2862   */\n      dup2\n        /* \"#utility.yul\":2858:2871   */\n      lt\n        /* \"#utility.yul\":2839:3271   */\n      iszero\n      tag_156\n      jumpi\n        /* \"#utility.yul\":2935:2944   */\n      dup5\n        /* \"#utility.yul\":2929:2933   */\n      dup5\n        /* \"#utility.yul\":2925:2945   */\n      sub\n        /* \"#utility.yul\":2920:2923   */\n      dup10\n        /* \"#utility.yul\":2913:2946   */\n      mstore\n        /* \"#utility.yul\":2986:2992   */\n      dup2\n        /* \"#utility.yul\":2980:2993   */\n      mload\n        /* \"#utility.yul\":3014:3122   */\n      tag_157\n        /* \"#utility.yul\":3117:3121   */\n      dup6\n        /* \"#utility.yul\":3102:3115   */\n      dup3\n        /* \"#utility.yul\":3014:3122   */\n      tag_142\n      jump\t// in\n    tag_157:\n        /* \"#utility.yul\":3006:3122   */\n      swap5\n      pop\n        /* \"#utility.yul\":3145:3227   */\n      tag_158\n        /* \"#utility.yul\":3220:3226   */\n      dup4\n        /* \"#utility.yul\":3145:3227   */\n      tag_159\n      jump\t// in\n    tag_158:\n        /* \"#utility.yul\":3135:3227   */\n      swap3\n      pop\n        /* \"#utility.yul\":3256:3260   */\n      0x20\n        /* \"#utility.yul\":3251:3254   */\n      dup11\n        /* \"#utility.yul\":3247:3261   */\n      add\n        /* \"#utility.yul\":3240:3261   */\n      swap10\n      pop\n        /* \"#utility.yul\":2899:3271   */\n      pop\n        /* \"#utility.yul\":2886:2887   */\n      0x01\n        /* \"#utility.yul\":2883:2884   */\n      dup2\n        /* \"#utility.yul\":2879:2888   */\n      add\n        /* \"#utility.yul\":2874:2888   */\n      swap1\n      pop\n        /* \"#utility.yul\":2839:3271   */\n      jump(tag_154)\n    tag_156:\n        /* \"#utility.yul\":2843:2857   */\n      pop\n        /* \"#utility.yul\":3287:3291   */\n      dup3\n        /* \"#utility.yul\":3280:3291   */\n      swap8\n      pop\n        /* \"#utility.yul\":3307:3310   */\n      dup8\n        /* \"#utility.yul\":3300:3310   */\n      swap6\n      pop\n        /* \"#utility.yul\":2397:3316   */\n      pop\n      pop\n      pop\n      pop\n      pop\n        /* \"#utility.yul\":2229:3316   */\n      swap3\n      swap2\n      pop\n      pop\n      jump\t// out\n        /* \"#utility.yul\":3322:3666   */\n    tag_160:\n        /* \"#utility.yul\":3400:3403   */\n      0x00\n        /* \"#utility.yul\":3428:3467   */\n      tag_162\n        /* \"#utility.yul\":3461:3466   */\n      dup3\n        /* \"#utility.yul\":3428:3467   */\n      tag_163\n      jump\t// in\n    tag_162:\n        /* \"#utility.yul\":3483:3544   */\n      tag_164\n        /* \"#utility.yul\":3537:3543   */\n      dup2\n        /* \"#utility.yul\":3532:3535   */\n      dup6\n        /* \"#utility.yul\":3483:3544   */\n      tag_165\n      jump\t// in\n    tag_164:\n        /* \"#utility.yul\":3476:3544   */\n      swap4\n      pop\n        /* \"#utility.yul\":3553:3605   */\n      tag_166\n        /* \"#utility.yul\":3598:3604   */\n      dup2\n        /* \"#utility.yul\":3593:3596   */\n      dup6\n        /* \"#utility.yul\":3586:3590   */\n      0x20\n        /* \"#utility.yul\":3579:3584   */\n      dup7\n        /* \"#utility.yul\":3575:3591   */\n      add\n        /* \"#utility.yul\":3553:3605   */\n      tag_167\n      jump\t// in\n    tag_166:\n        /* \"#utility.yul\":3630:3659   */\n      tag_168\n        /* \"#utility.yul\":3652:3658   */\n      dup2\n        /* \"#utility.yul\":3630:3659   */\n      tag_169\n      jump\t// in\n    tag_168:\n        /* \"#utility.yul\":3625:3628   */\n      dup5\n        /* \"#utility.yul\":3621:3660   */\n      add\n        /* \"#utility.yul\":3614:3660   */\n      swap2\n      pop\n        /* \"#utility.yul\":3404:3666   */\n      pop\n        /* \"#utility.yul\":3322:3666   */\n      swap3\n      swap2\n      pop\n      pop\n      jump\t// out\n        /* \"#utility.yul\":3722:4314   */\n    tag_145:\n        /* \"#utility.yul\":3825:3828   */\n      0x00\n        /* \"#utility.yul\":3861:3865   */\n      0x40\n        /* \"#utility.yul\":3856:3859   */\n      dup4\n        /* \"#utility.yul\":3852:3866   */\n      add\n        /* \"#utility.yul\":3946:3950   */\n      0x00\n        /* \"#utility.yul\":3939:3944   */\n      dup4\n        /* \"#utility.yul\":3935:3951   */\n      add\n        /* \"#utility.yul\":3929:3952   */\n      mload\n        /* \"#utility.yul\":3965:4028   */\n      tag_171\n        /* \"#utility.yul\":4022:4026   */\n      0x00\n        /* \"#utility.yul\":4017:4020   */\n      dup7\n        /* \"#utility.yul\":4013:4027   */\n      add\n        /* \"#utility.yul\":3999:4011   */\n      dup3\n        /* \"#utility.yul\":3965:4028   */\n      tag_172\n      jump\t// in\n    tag_171:\n        /* \"#utility.yul\":3876:4038   */\n      pop\n        /* \"#utility.yul\":4124:4128   */\n      0x20\n        /* \"#utility.yul\":4117:4122   */\n      dup4\n        /* \"#utility.yul\":4113:4129   */\n      add\n        /* \"#utility.yul\":4107:4130   */\n      mload\n        /* \"#utility.yul\":4177:4180   */\n      dup5\n        /* \"#utility.yul\":4171:4175   */\n      dup3\n        /* \"#utility.yul\":4167:4181   */\n      sub\n        /* \"#utility.yul\":4160:4164   */\n      0x20\n        /* \"#utility.yul\":4155:4158   */\n      dup7\n        /* \"#utility.yul\":4151:4165   */\n      add\n        /* \"#utility.yul\":4144:4182   */\n      mstore\n        /* \"#utility.yul\":4203:4276   */\n      tag_173\n        /* \"#utility.yul\":4271:4275   */\n      dup3\n        /* \"#utility.yul\":4257:4269   */\n      dup3\n        /* \"#utility.yul\":4203:4276   */\n      tag_160\n      jump\t// in\n    tag_173:\n        /* \"#utility.yul\":4195:4276   */\n      swap2\n      pop\n        /* \"#utility.yul\":4048:4287   */\n      pop\n        /* \"#utility.yul\":4304:4308   */\n      dup1\n        /* \"#utility.yul\":4297:4308   */\n      swap2\n      pop\n        /* \"#utility.yul\":3830:4314   */\n      pop\n        /* \"#utility.yul\":3722:4314   */\n      swap3\n      swap2\n      pop\n      pop\n      jump\t// out\n        /* \"#utility.yul\":4320:4428   */\n    tag_172:\n        /* \"#utility.yul\":4397:4421   */\n      tag_175\n        /* \"#utility.yul\":4415:4420   */\n      dup2\n        /* \"#utility.yul\":4397:4421   */\n      tag_176\n      jump\t// in\n    tag_175:\n        /* \"#utility.yul\":4392:4395   */\n      dup3\n        /* \"#utility.yul\":4385:4422   */\n      mstore\n        /* \"#utility.yul\":4320:4428   */\n      pop\n      pop\n      jump\t// out\n        /* \"#utility.yul\":4434:4895   */\n    tag_11:\n        /* \"#utility.yul\":4621:4625   */\n      0x00\n        /* \"#utility.yul\":4659:4661   */\n      0x20\n        /* \"#utility.yul\":4648:4657   */\n      dup3\n        /* \"#utility.yul\":4644:4662   */\n      add\n        /* \"#utility.yul\":4636:4662   */\n      swap1\n      pop\n        /* \"#utility.yul\":4708:4717   */\n      dup2\n        /* \"#utility.yul\":4702:4706   */\n      dup2\n        /* \"#utility.yul\":4698:4718   */\n      sub\n        /* \"#utility.yul\":4694:4695   */\n      0x00\n        /* \"#utility.yul\":4683:4692   */\n      dup4\n        /* \"#utility.yul\":4679:4696   */\n      add\n        /* \"#utility.yul\":4672:4719   */\n      mstore\n        /* \"#utility.yul\":4736:4888   */\n      tag_178\n        /* \"#utility.yul\":4883:4887   */\n      dup2\n        /* \"#utility.yul\":4874:4880   */\n      dup5\n        /* \"#utility.yul\":4736:4888   */\n      tag_146\n      jump\t// in\n    tag_178:\n        /* \"#utility.yul\":4728:4888   */\n      swap1\n      pop\n        /* \"#utility.yul\":4434:4895   */\n      swap3\n      swap2\n      pop\n      pop\n      jump\t// out\n        /* \"#utility.yul\":4901:5030   */\n    tag_113:\n        /* \"#utility.yul\":4935:4941   */\n      0x00\n        /* \"#utility.yul\":4962:4982   */\n      tag_180\n      tag_181\n      jump\t// in\n    tag_180:\n        /* \"#utility.yul\":4952:4982   */\n      swap1\n      pop\n        /* \"#utility.yul\":4991:5024   */\n      tag_182\n        /* \"#utility.yul\":5019:5023   */\n      dup3\n        /* \"#utility.yul\":5011:5017   */\n      dup3\n        /* \"#utility.yul\":4991:5024   */\n      tag_183\n      jump\t// in\n    tag_182:\n        /* \"#utility.yul\":4901:5030   */\n      swap2\n      swap1\n      pop\n      jump\t// out\n        /* \"#utility.yul\":5036:5111   */\n    tag_181:\n        /* \"#utility.yul\":5069:5075   */\n      0x00\n        /* \"#utility.yul\":5102:5104   */\n      0x40\n        /* \"#utility.yul\":5096:5105   */\n      mload\n        /* \"#utility.yul\":5086:5105   */\n      swap1\n      pop\n        /* \"#utility.yul\":5036:5111   */\n      swap1\n      jump\t// out\n        /* \"#utility.yul\":5117:5425   */\n    tag_112:\n        /* \"#utility.yul\":5179:5183   */\n      0x00\n        /* \"#utility.yul\":5269:5287   */\n      0xffffffffffffffff\n        /* \"#utility.yul\":5261:5267   */\n      dup3\n        /* \"#utility.yul\":5258:5288   */\n      gt\n        /* \"#utility.yul\":5255:5311   */\n      iszero\n      tag_186\n      jumpi\n        /* \"#utility.yul\":5291:5309   */\n      tag_187\n      tag_188\n      jump\t// in\n    tag_187:\n        /* \"#utility.yul\":5255:5311   */\n    tag_186:\n        /* \"#utility.yul\":5329:5358   */\n      tag_189\n        /* \"#utility.yul\":5351:5357   */\n      dup3\n        /* \"#utility.yul\":5329:5358   */\n      tag_169\n      jump\t// in\n    tag_189:\n        /* \"#utility.yul\":5321:5358   */\n      swap1\n      pop\n        /* \"#utility.yul\":5413:5417   */\n      0x20\n        /* \"#utility.yul\":5407:5411   */\n      dup2\n        /* \"#utility.yul\":5403:5418   */\n      add\n        /* \"#utility.yul\":5395:5418   */\n      swap1\n      pop\n        /* \"#utility.yul\":5117:5425   */\n      swap2\n      swap1\n      pop\n      jump\t// out\n        /* \"#utility.yul\":5431:5585   */\n    tag_153:\n        /* \"#utility.yul\":5520:5524   */\n      0x00\n        /* \"#utility.yul\":5543:5546   */\n      dup2\n        /* \"#utility.yul\":5535:5546   */\n      swap1\n      pop\n        /* \"#utility.yul\":5573:5577   */\n      0x20\n        /* \"#utility.yul\":5568:5571   */\n      dup3\n        /* \"#utility.yul\":5564:5578   */\n      add\n        /* \"#utility.yul\":5556:5578   */\n      swap1\n      pop\n        /* \"#utility.yul\":5431:5585   */\n      swap2\n      swap1\n      pop\n      jump\t// out\n        /* \"#utility.yul\":5591:5727   */\n    tag_149:\n        /* \"#utility.yul\":5680:5686   */\n      0x00\n        /* \"#utility.yul\":5714:5719   */\n      dup2\n        /* \"#utility.yul\":5708:5720   */\n      mload\n        /* \"#utility.yul\":5698:5720   */\n      swap1\n      pop\n        /* \"#utility.yul\":5591:5727   */\n      swap2\n      swap1\n      pop\n      jump\t// out\n        /* \"#utility.yul\":5733:5832   */\n    tag_163:\n        /* \"#utility.yul\":5785:5791   */\n      0x00\n        /* \"#utility.yul\":5819:5824   */\n      dup2\n        /* \"#utility.yul\":5813:5825   */\n      mload\n        /* \"#utility.yul\":5803:5825   */\n      swap1\n      pop\n        /* \"#utility.yul\":5733:5832   */\n      swap2\n      swap1\n      pop\n      jump\t// out\n        /* \"#utility.yul\":5838:5973   */\n    tag_159:\n        /* \"#utility.yul\":5930:5934   */\n      0x00\n        /* \"#utility.yul\":5962:5966   */\n      0x20\n        /* \"#utility.yul\":5957:5960   */\n      dup3\n        /* \"#utility.yul\":5953:5967   */\n      add\n        /* \"#utility.yul\":5945:5967   */\n      swap1\n      pop\n        /* \"#utility.yul\":5838:5973   */\n      swap2\n      swap1\n      pop\n      jump\t// out\n        /* \"#utility.yul\":5979:6185   */\n    tag_151:\n        /* \"#utility.yul\":6100:6111   */\n      0x00\n        /* \"#utility.yul\":6134:6140   */\n      dup3\n        /* \"#utility.yul\":6129:6132   */\n      dup3\n        /* \"#utility.yul\":6122:6141   */\n      mstore\n        /* \"#utility.yul\":6174:6178   */\n      0x20\n        /* \"#utility.yul\":6169:6172   */\n      dup3\n        /* \"#utility.yul\":6165:6179   */\n      add\n        /* \"#utility.yul\":6150:6179   */\n      swap1\n      pop\n        /* \"#utility.yul\":5979:6185   */\n      swap3\n      swap2\n      pop\n      pop\n      jump\t// out\n        /* \"#utility.yul\":6191:6350   */\n    tag_165:\n        /* \"#utility.yul\":6265:6276   */\n      0x00\n        /* \"#utility.yul\":6299:6305   */\n      dup3\n        /* \"#utility.yul\":6294:6297   */\n      dup3\n        /* \"#utility.yul\":6287:6306   */\n      mstore\n        /* \"#utility.yul\":6339:6343   */\n      0x20\n        /* \"#utility.yul\":6334:6337   */\n      dup3\n        /* \"#utility.yul\":6330:6344   */\n      add\n        /* \"#utility.yul\":6315:6344   */\n      swap1\n      pop\n        /* \"#utility.yul\":6191:6350   */\n      swap3\n      swap2\n      pop\n      pop\n      jump\t// out\n        /* \"#utility.yul\":6356:6433   */\n    tag_176:\n        /* \"#utility.yul\":6393:6400   */\n      0x00\n        /* \"#utility.yul\":6422:6427   */\n      dup2\n        /* \"#utility.yul\":6411:6427   */\n      swap1\n      pop\n        /* \"#utility.yul\":6356:6433   */\n      swap2\n      swap1\n      pop\n      jump\t// out\n        /* \"#utility.yul\":6439:6593   */\n    tag_118:\n        /* \"#utility.yul\":6523:6529   */\n      dup3\n        /* \"#utility.yul\":6518:6521   */\n      dup2\n        /* \"#utility.yul\":6513:6516   */\n      dup4\n        /* \"#utility.yul\":6500:6530   */\n      calldatacopy\n        /* \"#utility.yul\":6585:6586   */\n      0x00\n        /* \"#utility.yul\":6576:6582   */\n      dup4\n        /* \"#utility.yul\":6571:6574   */\n      dup4\n        /* \"#utility.yul\":6567:6583   */\n      add\n        /* \"#utility.yul\":6560:6587   */\n      mstore\n        /* \"#utility.yul\":6439:6593   */\n      pop\n      pop\n      pop\n      jump\t// out\n        /* \"#utility.yul\":6599:6906   */\n    tag_167:\n        /* \"#utility.yul\":6667:6668   */\n      0x00\n        /* \"#utility.yul\":6677:6790   */\n    tag_199:\n        /* \"#utility.yul\":6691:6697   */\n      dup4\n        /* \"#utility.yul\":6688:6689   */\n      dup2\n        /* \"#utility.yul\":6685:6698   */\n      lt\n        /* \"#utility.yul\":6677:6790   */\n      iszero\n      tag_201\n      jumpi\n        /* \"#utility.yul\":6776:6777   */\n      dup1\n        /* \"#utility.yul\":6771:6774   */\n      dup3\n        /* \"#utility.yul\":6767:6778   */\n      add\n        /* \"#utility.yul\":6761:6779   */\n      mload\n        /* \"#utility.yul\":6757:6758   */\n      dup2\n        /* \"#utility.yul\":6752:6755   */\n      dup5\n        /* \"#utility.yul\":6748:6759   */\n      add\n        /* \"#utility.yul\":6741:6780   */\n      mstore\n        /* \"#utility.yul\":6713:6715   */\n      0x20\n        /* \"#utility.yul\":6710:6711   */\n      dup2\n        /* \"#utility.yul\":6706:6716   */\n      add\n        /* \"#utility.yul\":6701:6716   */\n      swap1\n      pop\n        /* \"#utility.yul\":6677:6790   */\n      jump(tag_199)\n    tag_201:\n        /* \"#utility.yul\":6808:6814   */\n      dup4\n        /* \"#utility.yul\":6805:6806   */\n      dup2\n        /* \"#utility.yul\":6802:6815   */\n      gt\n        /* \"#utility.yul\":6799:6900   */\n      iszero\n      tag_202\n      jumpi\n        /* \"#utility.yul\":6888:6889   */\n      0x00\n        /* \"#utility.yul\":6879:6885   */\n      dup5\n        /* \"#utility.yul\":6874:6877   */\n      dup5\n        /* \"#utility.yul\":6870:6886   */\n      add\n        /* \"#utility.yul\":6863:6890   */\n      mstore\n        /* \"#utility.yul\":6799:6900   */\n    tag_202:\n        /* \"#utility.yul\":6648:6906   */\n      pop\n        /* \"#utility.yul\":6599:6906   */\n      pop\n      pop\n      pop\n      jump\t// out\n        /* \"#utility.yul\":6912:7232   */\n    tag_30:\n        /* \"#utility.yul\":6956:6962   */\n      0x00\n        /* \"#utility.yul\":6993:6994   */\n      0x02\n        /* \"#utility.yul\":6987:6991   */\n      dup3\n        /* \"#utility.yul\":6983:6995   */\n      div\n        /* \"#utility.yul\":6973:6995   */\n      swap1\n      pop\n        /* \"#utility.yul\":7040:7041   */\n      0x01\n        /* \"#utility.yul\":7034:7038   */\n      dup3\n        /* \"#utility.yul\":7030:7042   */\n      and\n        /* \"#utility.yul\":7061:7079   */\n      dup1\n        /* \"#utility.yul\":7051:7132   */\n      tag_204\n      jumpi\n        /* \"#utility.yul\":7117:7121   */\n      0x7f\n        /* \"#utility.yul\":7109:7115   */\n      dup3\n        /* \"#utility.yul\":7105:7122   */\n      and\n        /* \"#utility.yul\":7095:7122   */\n      swap2\n      pop\n        /* \"#utility.yul\":7051:7132   */\n    tag_204:\n        /* \"#utility.yul\":7179:7181   */\n      0x20\n        /* \"#utility.yul\":7171:7177   */\n      dup3\n        /* \"#utility.yul\":7168:7182   */\n      lt\n        /* \"#utility.yul\":7148:7166   */\n      dup2\n        /* \"#utility.yul\":7145:7183   */\n      eq\n        /* \"#utility.yul\":7142:7226   */\n      iszero\n      tag_205\n      jumpi\n        /* \"#utility.yul\":7198:7216   */\n      tag_206\n      tag_207\n      jump\t// in\n    tag_206:\n        /* \"#utility.yul\":7142:7226   */\n    tag_205:\n        /* \"#utility.yul\":6963:7232   */\n      pop\n        /* \"#utility.yul\":6912:7232   */\n      swap2\n      swap1\n      pop\n      jump\t// out\n        /* \"#utility.yul\":7238:7519   */\n    tag_183:\n        /* \"#utility.yul\":7321:7348   */\n      tag_209\n        /* \"#utility.yul\":7343:7347   */\n      dup3\n        /* \"#utility.yul\":7321:7348   */\n      tag_169\n      jump\t// in\n    tag_209:\n        /* \"#utility.yul\":7313:7319   */\n      dup2\n        /* \"#utility.yul\":7309:7349   */\n      add\n        /* \"#utility.yul\":7451:7457   */\n      dup2\n        /* \"#utility.yul\":7439:7449   */\n      dup2\n        /* \"#utility.yul\":7436:7458   */\n      lt\n        /* \"#utility.yul\":7415:7433   */\n      0xffffffffffffffff\n        /* \"#utility.yul\":7403:7413   */\n      dup3\n        /* \"#utility.yul\":7400:7434   */\n      gt\n        /* \"#utility.yul\":7397:7459   */\n      or\n        /* \"#utility.yul\":7394:7482   */\n      iszero\n      tag_210\n      jumpi\n        /* \"#utility.yul\":7462:7480   */\n      tag_211\n      tag_188\n      jump\t// in\n    tag_211:\n        /* \"#utility.yul\":7394:7482   */\n    tag_210:\n        /* \"#utility.yul\":7502:7512   */\n      dup1\n        /* \"#utility.yul\":7498:7500   */\n      0x40\n        /* \"#utility.yul\":7491:7513   */\n      mstore\n        /* \"#utility.yul\":7281:7519   */\n      pop\n        /* \"#utility.yul\":7238:7519   */\n      pop\n      pop\n      jump\t// out\n        /* \"#utility.yul\":7525:7758   */\n    tag_50:\n        /* \"#utility.yul\":7564:7567   */\n      0x00\n        /* \"#utility.yul\":7587:7611   */\n      tag_213\n        /* \"#utility.yul\":7605:7610   */\n      dup3\n        /* \"#utility.yul\":7587:7611   */\n      tag_176\n      jump\t// in\n    tag_213:\n        /* \"#utility.yul\":7578:7611   */\n      swap2\n      pop\n        /* \"#utility.yul\":7633:7699   */\n      0xffffffffffffffffffffffffffffffffffffffffffffffffffffffffffffffff\n        /* \"#utility.yul\":7626:7631   */\n      dup3\n        /* \"#utility.yul\":7623:7700   */\n      eq\n        /* \"#utility.yul\":7620:7723   */\n      iszero\n      tag_214\n      jumpi\n        /* \"#utility.yul\":7703:7721   */\n      tag_215\n      tag_216\n      jump\t// in\n    tag_215:\n        /* \"#utility.yul\":7620:7723   */\n    tag_214:\n        /* \"#utility.yul\":7750:7751   */\n      0x01\n        /* \"#utility.yul\":7743:7748   */\n      dup3\n        /* \"#utility.yul\":7739:7752   */\n      add\n        /* \"#utility.yul\":7732:7752   */\n      swap1\n      pop\n        /* \"#utility.yul\":7525:7758   */\n      swap2\n      swap1\n      pop\n      jump\t// out\n        /* \"#utility.yul\":7764:7944   */\n    tag_216:\n        /* \"#utility.yul\":7812:7889   */\n      0x4e487b7100000000000000000000000000000000000000000000000000000000\n        /* \"#utility.yul\":7809:7810   */\n      0x00\n        /* \"#utility.yul\":7802:7890   */\n      mstore\n        /* \"#utility.yul\":7909:7913   */\n      0x11\n        /* \"#utility.yul\":7906:7907   */\n      0x04\n        /* \"#utility.yul\":7899:7914   */\n      mstore\n        /* \"#utility.yul\":7933:7937   */\n      0x24\n        /* \"#utility.yul\":7930:7931   */\n      0x00\n        /* \"#utility.yul\":7923:7938   */\n      revert\n        /* \"#utility.yul\":7950:8130   */\n    tag_207:\n        /* \"#utility.yul\":7998:8075   */\n      0x4e487b7100000000000000000000000000000000000000000000000000000000\n        /* \"#utility.yul\":7995:7996   */\n      0x00\n        /* \"#utility.yul\":7988:8076   */\n      mstore\n        /* \"#utility.yul\":8095:8099   */\n      0x22\n        /* \"#utility.yul\":8092:8093   */\n      0x04\n        /* \"#utility.yul\":8085:8100   */\n      mstore\n        /* \"#utility.yul\":8119:8123   */\n      0x24\n        /* \"#utility.yul\":8116:8117   */\n      0x00\n        /* \"#utility.yul\":8109:8124   */\n      revert\n        /* \"#utility.yul\":8136:8316   */\n    tag_41:\n        /* \"#utility.yul\":8184:8261   */\n      0x4e487b7100000000000000000000000000000000000000000000000000000000\n        /* \"#utility.yul\":8181:8182   */\n      0x00\n        /* \"#utility.yul\":8174:8262   */\n      mstore\n        /* \"#utility.yul\":8281:8285   */\n      0x32\n        /* \"#utility.yul\":8278:8279   */\n      0x04\n        /* \"#utility.yul\":8271:8286   */\n      mstore\n        /* \"#utility.yul\":8305:8309   */\n      0x24\n        /* \"#utility.yul\":8302:8303   */\n      0x00\n        /* \"#utility.yul\":8295:8310   */\n      revert\n        /* \"#utility.yul\":8322:8502   */\n    tag_188:\n        /* \"#utility.yul\":8370:8447   */\n      0x4e487b7100000000000000000000000000000000000000000000000000000000\n        /* \"#utility.yul\":8367:8368   */\n      0x00\n        /* \"#utility.yul\":8360:8448   */\n      mstore\n        /* \"#utility.yul\":8467:8471   */\n      0x41\n        /* \"#utility.yul\":8464:8465   */\n      0x04\n        /* \"#utility.yul\":8457:8472   */\n      mstore\n        /* \"#utility.yul\":8491:8495   */\n      0x24\n        /* \"#utility.yul\":8488:8489   */\n      0x00\n        /* \"#utility.yul\":8481:8496   */\n      revert\n        /* \"#utility.yul\":8508:8625   */\n    tag_123:\n        /* \"#utility.yul\":8617:8618   */\n      0x00\n        /* \"#utility.yul\":8614:8615   */\n      dup1\n        /* \"#utility.yul\":8607:8619   */\n      revert\n        /* \"#utility.yul\":8631:8748   */\n    tag_116:\n        /* \"#utility.yul\":8740:8741   */\n      0x00\n        /* \"#utility.yul\":8737:8738   */\n      dup1\n        /* \"#utility.yul\":8730:8742   */\n      revert\n        /* \"#utility.yul\":8754:8871   */\n    tag_140:\n        /* \"#utility.yul\":8863:8864   */\n      0x00\n        /* \"#utility.yul\":8860:8861   */\n      dup1\n        /* \"#utility.yul\":8853:8865   */\n      revert\n        /* \"#utility.yul\":8877:8994   */\n    tag_132:\n        /* \"#utility.yul\":8986:8987   */\n      0x00\n        /* \"#utility.yul\":8983:8984   */\n      dup1\n        /* \"#utility.yul\":8976:8988   */\n      revert\n        /* \"#utility.yul\":9000:9102   */\n    tag_169:\n        /* \"#utility.yul\":9041:9047   */\n      0x00\n        /* \"#utility.yul\":9092:9094   */\n      0x1f\n        /* \"#utility.yul\":9088:9095   */\n      not\n        /* \"#utility.yul\":9083:9085   */\n      0x1f\n        /* \"#utility.yul\":9076:9081   */\n      dup4\n        /* \"#utility.yul\":9072:9086   */\n      add\n        /* \"#utility.yul\":9068:9096   */\n      and\n        /* \"#utility.yul\":9058:9096   */\n      swap1\n      pop\n        /* \"#utility.yul\":9000:9102   */\n      swap2\n      swap1\n      pop\n      jump\t// out\n        /* \"#utility.yul\":9108:9230   */\n    tag_128:\n        /* \"#utility.yul\":9181:9205   */\n      tag_227\n        /* \"#utility.yul\":9199:9204   */\n      dup2\n        /* \"#utility.yul\":9181:9205   */\n      tag_176\n      jump\t// in\n    tag_227:\n        /* \"#utility.yul\":9174:9179   */\n      dup2\n        /* \"#utility.yul\":9171:9206   */\n      eq\n        /* \"#utility.yul\":9161:9224   */\n      tag_228\n      jumpi\n        /* \"#utility.yul\":9220:9221   */\n      0x00\n        /* \"#utility.yul\":9217:9218   */\n      dup1\n        /* \"#utility.yul\":9210:9222   */\n      revert\n        /* \"#utility.yul\":9161:9224   */\n    tag_228:\n        /* \"#utility.yul\":9108:9230   */\n      pop\n      jump\t// out\n\n    auxdata: 0xa2646970667358221220d0573feaebf0c673955eb6a9571e649d1ef9fbace604b60bcc2a02332efd3cbe64736f6c63430008070033\n}\n",
				"bytecode": {
					"linkReferences": {},
					"object": "608060405234801561001057600080fd5b50610b15806100206000396000f3fe608060405234801561001057600080fd5b50600436106100575760003560e01c8063600060eb1461005c57806367e8b7f71461007a578063a3dad43e14610096578063c1da2020146100b2578063e103aef5146100ce575b600080fd5b6100646100d8565b6040516100719190610822565b60405180910390f35b610094600480360381019061008f91906106b8565b6101d3565b005b6100b060048036038101906100ab919061068b565b610263565b005b6100cc60048036038101906100c791906106b8565b6102f5565b005b6100d66103b2565b005b60606000805480602002602001604051908101604052809291908181526020016000905b828210156101ca5783829060005260206000209060020201604051806040016040529081600082015481526020016001820180546101399061093b565b80601f01602080910402602001604051908101604052809291908181526020018280546101659061093b565b80156101b25780601f10610187576101008083540402835291602001916101b2565b820191906000526020600020905b81548152906001019060200180831161019557829003601f168201915b505050505081525050815260200190600101906100fc565b50505050905090565b60005b60008054905081101561025e5782600082815481106101f8576101f7610a45565b5b906000526020600020906002020160000154141561024b57816000828154811061022557610224610a45565b5b906000526020600020906002020160010190805190602001906102499291906103c1565b505b80806102569061099e565b9150506101d6565b505050565b60005b6000805490508110156102f157816000828154811061028857610287610a45565b5b90600052602060002090600202016000015414156102de57600081815481106102b4576102b3610a45565b5b90600052602060002090600202016000808201600090556001820160006102db9190610447565b50505b80806102e99061099e565b915050610266565b5050565b6000604051806040016040528084815260200183815250908060018154018082558091505060019003906000526020600020906002020160009091909190915060008201518160000155602082015181600101908051906020019061035b9291906103c1565b5050506000600160003373ffffffffffffffffffffffffffffffffffffffff1673ffffffffffffffffffffffffffffffffffffffff1681526020019081526020016000209080546103ad929190610487565b505050565b6000806103bf9190610509565b565b8280546103cd9061093b565b90600052602060002090601f0160209004810192826103ef5760008555610436565b82601f1061040857805160ff1916838001178555610436565b82800160010185558215610436579182015b8281111561043557825182559160200191906001019061041a565b5b509050610443919061052d565b5090565b5080546104539061093b565b6000825580601f106104655750610484565b601f016020900490600052602060002090810190610483919061052d565b5b50565b8280548282559060005260206000209060020281019282156104f85760005260206000209160020282015b828111156104f75782826000820154816000015560018201816001019080546104da9061093b565b6104e592919061054a565b505050916002019190600201906104b2565b5b50905061050591906105d7565b5090565b508054600082556002029060005260206000209081019061052a91906105d7565b50565b5b8082111561054657600081600090555060010161052e565b5090565b8280546105569061093b565b90600052602060002090601f01602090048101928261057857600085556105c6565b82601f1061058957805485556105c6565b828001600101855582156105c657600052602060002091601f016020900482015b828111156105c55782548255916001019190600101906105aa565b5b5090506105d3919061052d565b5090565b5b80821115610602576000808201600090556001820160006105f99190610447565b506002016105d8565b5090565b600061061961061484610869565b610844565b90508281526020810184848401111561063557610634610aa8565b5b6106408482856108f9565b509392505050565b600082601f83011261065d5761065c610aa3565b5b813561066d848260208601610606565b91505092915050565b60008135905061068581610ac8565b92915050565b6000602082840312156106a1576106a0610ab2565b5b60006106af84828501610676565b91505092915050565b600080604083850312156106cf576106ce610ab2565b5b60006106dd85828601610676565b925050602083013567ffffffffffffffff8111156106fe576106fd610aad565b5b61070a85828601610648565b9150509250929050565b600061072083836107d6565b905092915050565b6000610733826108aa565b61073d81856108cd565b93508360208202850161074f8561089a565b8060005b8581101561078b578484038952815161076c8582610714565b9450610777836108c0565b925060208a01995050600181019050610753565b50829750879550505050505092915050565b60006107a8826108b5565b6107b281856108de565b93506107c2818560208601610908565b6107cb81610ab7565b840191505092915050565b60006040830160008301516107ee6000860182610813565b5060208301518482036020860152610806828261079d565b9150508091505092915050565b61081c816108ef565b82525050565b6000602082019050818103600083015261083c8184610728565b905092915050565b600061084e61085f565b905061085a828261096d565b919050565b6000604051905090565b600067ffffffffffffffff82111561088457610883610a74565b5b61088d82610ab7565b9050602081019050919050565b6000819050602082019050919050565b600081519050919050565b600081519050919050565b6000602082019050919050565b600082825260208201905092915050565b600082825260208201905092915050565b6000819050919050565b82818337600083830152505050565b60005b8381101561092657808201518184015260208101905061090b565b83811115610935576000848401525b50505050565b6000600282049050600182168061095357607f821691505b6020821081141561096757610966610a16565b5b50919050565b61097682610ab7565b810181811067ffffffffffffffff8211171561099557610994610a74565b5b80604052505050565b60006109a9826108ef565b91507fffffffffffffffffffffffffffffffffffffffffffffffffffffffffffffffff8214156109dc576109db6109e7565b5b600182019050919050565b7f4e487b7100000000000000000000000000000000000000000000000000000000600052601160045260246000fd5b7f4e487b7100000000000000000000000000000000000000000000000000000000600052602260045260246000fd5b7f4e487b7100000000000000000000000000000000000000000000000000000000600052603260045260246000fd5b7f4e487b7100000000000000000000000000000000000000000000000000000000600052604160045260246000fd5b600080fd5b600080fd5b600080fd5b600080fd5b6000601f19601f8301169050919050565b610ad1816108ef565b8114610adc57600080fd5b5056fea2646970667358221220d0573feaebf0c673955eb6a9571e649d1ef9fbace604b60bcc2a02332efd3cbe64736f6c63430008070033",
					"opcodes": "PUSH1 0x80 PUSH1 0x40 MSTORE CALLVALUE DUP1 ISZERO PUSH2 0x10 JUMPI PUSH1 0x0 DUP1 REVERT JUMPDEST POP PUSH2 0xB15 DUP1 PUSH2 0x20 PUSH1 0x0 CODECOPY PUSH1 0x0 RETURN INVALID PUSH1 0x80 PUSH1 0x40 MSTORE CALLVALUE DUP1 ISZERO PUSH2 0x10 JUMPI PUSH1 0x0 DUP1 REVERT JUMPDEST POP PUSH1 0x4 CALLDATASIZE LT PUSH2 0x57 JUMPI PUSH1 0x0 CALLDATALOAD PUSH1 0xE0 SHR DUP1 PUSH4 0x600060EB EQ PUSH2 0x5C JUMPI DUP1 PUSH4 0x67E8B7F7 EQ PUSH2 0x7A JUMPI DUP1 PUSH4 0xA3DAD43E EQ PUSH2 0x96 JUMPI DUP1 PUSH4 0xC1DA2020 EQ PUSH2 0xB2 JUMPI DUP1 PUSH4 0xE103AEF5 EQ PUSH2 0xCE JUMPI JUMPDEST PUSH1 0x0 DUP1 REVERT JUMPDEST PUSH2 0x64 PUSH2 0xD8 JUMP JUMPDEST PUSH1 0x40 MLOAD PUSH2 0x71 SWAP2 SWAP1 PUSH2 0x822 JUMP JUMPDEST PUSH1 0x40 MLOAD DUP1 SWAP2 SUB SWAP1 RETURN JUMPDEST PUSH2 0x94 PUSH1 0x4 DUP1 CALLDATASIZE SUB DUP2 ADD SWAP1 PUSH2 0x8F SWAP2 SWAP1 PUSH2 0x6B8 JUMP JUMPDEST PUSH2 0x1D3 JUMP JUMPDEST STOP JUMPDEST PUSH2 0xB0 PUSH1 0x4 DUP1 CALLDATASIZE SUB DUP2 ADD SWAP1 PUSH2 0xAB SWAP2 SWAP1 PUSH2 0x68B JUMP JUMPDEST PUSH2 0x263 JUMP JUMPDEST STOP JUMPDEST PUSH2 0xCC PUSH1 0x4 DUP1 CALLDATASIZE SUB DUP2 ADD SWAP1 PUSH2 0xC7 SWAP2 SWAP1 PUSH2 0x6B8 JUMP JUMPDEST PUSH2 0x2F5 JUMP JUMPDEST STOP JUMPDEST PUSH2 0xD6 PUSH2 0x3B2 JUMP JUMPDEST STOP JUMPDEST PUSH1 0x60 PUSH1 0x0 DUP1 SLOAD DUP1 PUSH1 0x20 MUL PUSH1 0x20 ADD PUSH1 0x40 MLOAD SWAP1 DUP2 ADD PUSH1 0x40 MSTORE DUP1 SWAP3 SWAP2 SWAP1 DUP2 DUP2 MSTORE PUSH1 0x20 ADD PUSH1 0x0 SWAP1 JUMPDEST DUP3 DUP3 LT ISZERO PUSH2 0x1CA JUMPI DUP4 DUP3 SWAP1 PUSH1 0x0 MSTORE PUSH1 0x20 PUSH1 0x0 KECCAK256 SWAP1 PUSH1 0x2 MUL ADD PUSH1 0x40 MLOAD DUP1 PUSH1 0x40 ADD PUSH1 0x40 MSTORE SWAP1 DUP2 PUSH1 0x0 DUP3 ADD SLOAD DUP2 MSTORE PUSH1 0x20 ADD PUSH1 0x1 DUP3 ADD DUP1 SLOAD PUSH2 0x139 SWAP1 PUSH2 0x93B JUMP JUMPDEST DUP1 PUSH1 0x1F ADD PUSH1 0x20 DUP1 SWAP2 DIV MUL PUSH1 0x20 ADD PUSH1 0x40 MLOAD SWAP1 DUP2 ADD PUSH1 0x40 MSTORE DUP1 SWAP3 SWAP2 SWAP1 DUP2 DUP2 MSTORE PUSH1 0x20 ADD DUP3 DUP1 SLOAD PUSH2 0x165 SWAP1 PUSH2 0x93B JUMP JUMPDEST DUP1 ISZERO PUSH2 0x1B2 JUMPI DUP1 PUSH1 0x1F LT PUSH2 0x187 JUMPI PUSH2 0x100 DUP1 DUP4 SLOAD DIV MUL DUP4 MSTORE SWAP2 PUSH1 0x20 ADD SWAP2 PUSH2 0x1B2 JUMP JUMPDEST DUP3 ADD SWAP2 SWAP1 PUSH1 0x0 MSTORE PUSH1 0x20 PUSH1 0x0 KECCAK256 SWAP1 JUMPDEST DUP2 SLOAD DUP2 MSTORE SWAP1 PUSH1 0x1 ADD SWAP1 PUSH1 0x20 ADD DUP1 DUP4 GT PUSH2 0x195 JUMPI DUP3 SWAP1 SUB PUSH1 0x1F AND DUP3 ADD SWAP2 JUMPDEST POP POP POP POP POP DUP2 MSTORE POP POP DUP2 MSTORE PUSH1 0x20 ADD SWAP1 PUSH1 0x1 ADD SWAP1 PUSH2 0xFC JUMP JUMPDEST POP POP POP POP SWAP1 POP SWAP1 JUMP JUMPDEST PUSH1 0x0 JUMPDEST PUSH1 0x0 DUP1 SLOAD SWAP1 POP DUP2 LT ISZERO PUSH2 0x25E JUMPI DUP3 PUSH1 0x0 DUP3 DUP2 SLOAD DUP2 LT PUSH2 0x1F8 JUMPI PUSH2 0x1F7 PUSH2 0xA45 JUMP JUMPDEST JUMPDEST SWAP1 PUSH1 0x0 MSTORE PUSH1 0x20 PUSH1 0x0 KECCAK256 SWAP1 PUSH1 0x2 MUL ADD PUSH1 0x0 ADD SLOAD EQ ISZERO PUSH2 0x24B JUMPI DUP2 PUSH1 0x0 DUP3 DUP2 SLOAD DUP2 LT PUSH2 0x225 JUMPI PUSH2 0x224 PUSH2 0xA45 JUMP JUMPDEST JUMPDEST SWAP1 PUSH1 0x0 MSTORE PUSH1 0x20 PUSH1 0x0 KECCAK256 SWAP1 PUSH1 0x2 MUL ADD PUSH1 0x1 ADD SWAP1 DUP1 MLOAD SWAP1 PUSH1 0x20 ADD SWAP1 PUSH2 0x249 SWAP3 SWAP2 SWAP1 PUSH2 0x3C1 JUMP JUMPDEST POP JUMPDEST DUP1 DUP1 PUSH2 0x256 SWAP1 PUSH2 0x99E JUMP JUMPDEST SWAP2 POP POP PUSH2 0x1D6 JUMP JUMPDEST POP POP POP JUMP JUMPDEST PUSH1 0x0 JUMPDEST PUSH1 0x0 DUP1 SLOAD SWAP1 POP DUP2 LT ISZERO PUSH2 0x2F1 JUMPI DUP2 PUSH1 0x0 DUP3 DUP2 SLOAD DUP2 LT PUSH2 0x288 JUMPI PUSH2 0x287 PUSH2 0xA45 JUMP JUMPDEST JUMPDEST SWAP1 PUSH1 0x0 MSTORE PUSH1 0x20 PUSH1 0x0 KECCAK256 SWAP1 PUSH1 0x2 MUL ADD PUSH1 0x0 ADD SLOAD EQ ISZERO PUSH2 0x2DE JUMPI PUSH1 0x0 DUP2 DUP2 SLOAD DUP2 LT PUSH2 0x2B4 JUMPI PUSH2 0x2B3 PUSH2 0xA45 JUMP JUMPDEST JUMPDEST SWAP1 PUSH1 0x0 MSTORE PUSH1 0x20 PUSH1 0x0 KECCAK256 SWAP1 PUSH1 0x2 MUL ADD PUSH1 0x0 DUP1 DUP3 ADD PUSH1 0x0 SWAP1 SSTORE PUSH1 0x1 DUP3 ADD PUSH1 0x0 PUSH2 0x2DB SWAP2 SWAP1 PUSH2 0x447 JUMP JUMPDEST POP POP JUMPDEST DUP1 DUP1 PUSH2 0x2E9 SWAP1 PUSH2 0x99E JUMP JUMPDEST SWAP2 POP POP PUSH2 0x266 JUMP JUMPDEST POP POP JUMP JUMPDEST PUSH1 0x0 PUSH1 0x40 MLOAD DUP1 PUSH1 0x40 ADD PUSH1 0x40 MSTORE DUP1 DUP5 DUP2 MSTORE PUSH1 0x20 ADD DUP4 DUP2 MSTORE POP SWAP1 DUP1 PUSH1 0x1 DUP2 SLOAD ADD DUP1 DUP3 SSTORE DUP1 SWAP2 POP POP PUSH1 0x1 SWAP1 SUB SWAP1 PUSH1 0x0 MSTORE PUSH1 0x20 PUSH1 0x0 KECCAK256 SWAP1 PUSH1 0x2 MUL ADD PUSH1 0x0 SWAP1 SWAP2 SWAP1 SWAP2 SWAP1 SWAP2 POP PUSH1 0x0 DUP3 ADD MLOAD DUP2 PUSH1 0x0 ADD SSTORE PUSH1 0x20 DUP3 ADD MLOAD DUP2 PUSH1 0x1 ADD SWAP1 DUP1 MLOAD SWAP1 PUSH1 0x20 ADD SWAP1 PUSH2 0x35B SWAP3 SWAP2 SWAP1 PUSH2 0x3C1 JUMP JUMPDEST POP POP POP PUSH1 0x0 PUSH1 0x1 PUSH1 0x0 CALLER PUSH20 0xFFFFFFFFFFFFFFFFFFFFFFFFFFFFFFFFFFFFFFFF AND PUSH20 0xFFFFFFFFFFFFFFFFFFFFFFFFFFFFFFFFFFFFFFFF AND DUP2 MSTORE PUSH1 0x20 ADD SWAP1 DUP2 MSTORE PUSH1 0x20 ADD PUSH1 0x0 KECCAK256 SWAP1 DUP1 SLOAD PUSH2 0x3AD SWAP3 SWAP2 SWAP1 PUSH2 0x487 JUMP JUMPDEST POP POP POP JUMP JUMPDEST PUSH1 0x0 DUP1 PUSH2 0x3BF SWAP2 SWAP1 PUSH2 0x509 JUMP JUMPDEST JUMP JUMPDEST DUP3 DUP1 SLOAD PUSH2 0x3CD SWAP1 PUSH2 0x93B JUMP JUMPDEST SWAP1 PUSH1 0x0 MSTORE PUSH1 0x20 PUSH1 0x0 KECCAK256 SWAP1 PUSH1 0x1F ADD PUSH1 0x20 SWAP1 DIV DUP2 ADD SWAP3 DUP3 PUSH2 0x3EF JUMPI PUSH1 0x0 DUP6 SSTORE PUSH2 0x436 JUMP JUMPDEST DUP3 PUSH1 0x1F LT PUSH2 0x408 JUMPI DUP1 MLOAD PUSH1 0xFF NOT AND DUP4 DUP1 ADD OR DUP6 SSTORE PUSH2 0x436 JUMP JUMPDEST DUP3 DUP1 ADD PUSH1 0x1 ADD DUP6 SSTORE DUP3 ISZERO PUSH2 0x436 JUMPI SWAP2 DUP3 ADD JUMPDEST DUP3 DUP2 GT ISZERO PUSH2 0x435 JUMPI DUP3 MLOAD DUP3 SSTORE SWAP2 PUSH1 0x20 ADD SWAP2 SWAP1 PUSH1 0x1 ADD SWAP1 PUSH2 0x41A JUMP JUMPDEST JUMPDEST POP SWAP1 POP PUSH2 0x443 SWAP2 SWAP1 PUSH2 0x52D JUMP JUMPDEST POP SWAP1 JUMP JUMPDEST POP DUP1 SLOAD PUSH2 0x453 SWAP1 PUSH2 0x93B JUMP JUMPDEST PUSH1 0x0 DUP3 SSTORE DUP1 PUSH1 0x1F LT PUSH2 0x465 JUMPI POP PUSH2 0x484 JUMP JUMPDEST PUSH1 0x1F ADD PUSH1 0x20 SWAP1 DIV SWAP1 PUSH1 0x0 MSTORE PUSH1 0x20 PUSH1 0x0 KECCAK256 SWAP1 DUP2 ADD SWAP1 PUSH2 0x483 SWAP2 SWAP1 PUSH2 0x52D JUMP JUMPDEST JUMPDEST POP JUMP JUMPDEST DUP3 DUP1 SLOAD DUP3 DUP3 SSTORE SWAP1 PUSH1 0x0 MSTORE PUSH1 0x20 PUSH1 0x0 KECCAK256 SWAP1 PUSH1 0x2 MUL DUP2 ADD SWAP3 DUP3 ISZERO PUSH2 0x4F8 JUMPI PUSH1 0x0 MSTORE PUSH1 0x20 PUSH1 0x0 KECCAK256 SWAP2 PUSH1 0x2 MUL DUP3 ADD JUMPDEST DUP3 DUP2 GT ISZERO PUSH2 0x4F7 JUMPI DUP3 DUP3 PUSH1 0x0 DUP3 ADD SLOAD DUP2 PUSH1 0x0 ADD SSTORE PUSH1 0x1 DUP3 ADD DUP2 PUSH1 0x1 ADD SWAP1 DUP1 SLOAD PUSH2 0x4DA SWAP1 PUSH2 0x93B JUMP JUMPDEST PUSH2 0x4E5 SWAP3 SWAP2 SWAP1 PUSH2 0x54A JUMP JUMPDEST POP POP POP SWAP2 PUSH1 0x2 ADD SWAP2 SWAP1 PUSH1 0x2 ADD SWAP1 PUSH2 0x4B2 JUMP JUMPDEST JUMPDEST POP SWAP1 POP PUSH2 0x505 SWAP2 SWAP1 PUSH2 0x5D7 JUMP JUMPDEST POP SWAP1 JUMP JUMPDEST POP DUP1 SLOAD PUSH1 0x0 DUP3 SSTORE PUSH1 0x2 MUL SWAP1 PUSH1 0x0 MSTORE PUSH1 0x20 PUSH1 0x0 KECCAK256 SWAP1 DUP2 ADD SWAP1 PUSH2 0x52A SWAP2 SWAP1 PUSH2 0x5D7 JUMP JUMPDEST POP JUMP JUMPDEST JUMPDEST DUP1 DUP3 GT ISZERO PUSH2 0x546 JUMPI PUSH1 0x0 DUP2 PUSH1 0x0 SWAP1 SSTORE POP PUSH1 0x1 ADD PUSH2 0x52E JUMP JUMPDEST POP SWAP1 JUMP JUMPDEST DUP3 DUP1 SLOAD PUSH2 0x556 SWAP1 PUSH2 0x93B JUMP JUMPDEST SWAP1 PUSH1 0x0 MSTORE PUSH1 0x20 PUSH1 0x0 KECCAK256 SWAP1 PUSH1 0x1F ADD PUSH1 0x20 SWAP1 DIV DUP2 ADD SWAP3 DUP3 PUSH2 0x578 JUMPI PUSH1 0x0 DUP6 SSTORE PUSH2 0x5C6 JUMP JUMPDEST DUP3 PUSH1 0x1F LT PUSH2 0x589 JUMPI DUP1 SLOAD DUP6 SSTORE PUSH2 0x5C6 JUMP JUMPDEST DUP3 DUP1 ADD PUSH1 0x1 ADD DUP6 SSTORE DUP3 ISZERO PUSH2 0x5C6 JUMPI PUSH1 0x0 MSTORE PUSH1 0x20 PUSH1 0x0 KECCAK256 SWAP2 PUSH1 0x1F ADD PUSH1 0x20 SWAP1 DIV DUP3 ADD JUMPDEST DUP3 DUP2 GT ISZERO PUSH2 0x5C5 JUMPI DUP3 SLOAD DUP3 SSTORE SWAP2 PUSH1 0x1 ADD SWAP2 SWAP1 PUSH1 0x1 ADD SWAP1 PUSH2 0x5AA JUMP JUMPDEST JUMPDEST POP SWAP1 POP PUSH2 0x5D3 SWAP2 SWAP1 PUSH2 0x52D JUMP JUMPDEST POP SWAP1 JUMP JUMPDEST JUMPDEST DUP1 DUP3 GT ISZERO PUSH2 0x602 JUMPI PUSH1 0x0 DUP1 DUP3 ADD PUSH1 0x0 SWAP1 SSTORE PUSH1 0x1 DUP3 ADD PUSH1 0x0 PUSH2 0x5F9 SWAP2 SWAP1 PUSH2 0x447 JUMP JUMPDEST POP PUSH1 0x2 ADD PUSH2 0x5D8 JUMP JUMPDEST POP SWAP1 JUMP JUMPDEST PUSH1 0x0 PUSH2 0x619 PUSH2 0x614 DUP5 PUSH2 0x869 JUMP JUMPDEST PUSH2 0x844 JUMP JUMPDEST SWAP1 POP DUP3 DUP2 MSTORE PUSH1 0x20 DUP2 ADD DUP5 DUP5 DUP5 ADD GT ISZERO PUSH2 0x635 JUMPI PUSH2 0x634 PUSH2 0xAA8 JUMP JUMPDEST JUMPDEST PUSH2 0x640 DUP5 DUP3 DUP6 PUSH2 0x8F9 JUMP JUMPDEST POP SWAP4 SWAP3 POP POP POP JUMP JUMPDEST PUSH1 0x0 DUP3 PUSH1 0x1F DUP4 ADD SLT PUSH2 0x65D JUMPI PUSH2 0x65C PUSH2 0xAA3 JUMP JUMPDEST JUMPDEST DUP2 CALLDATALOAD PUSH2 0x66D DUP5 DUP3 PUSH1 0x20 DUP7 ADD PUSH2 0x606 JUMP JUMPDEST SWAP2 POP POP SWAP3 SWAP2 POP POP JUMP JUMPDEST PUSH1 0x0 DUP2 CALLDATALOAD SWAP1 POP PUSH2 0x685 DUP2 PUSH2 0xAC8 JUMP JUMPDEST SWAP3 SWAP2 POP POP JUMP JUMPDEST PUSH1 0x0 PUSH1 0x20 DUP3 DUP5 SUB SLT ISZERO PUSH2 0x6A1 JUMPI PUSH2 0x6A0 PUSH2 0xAB2 JUMP JUMPDEST JUMPDEST PUSH1 0x0 PUSH2 0x6AF DUP5 DUP3 DUP6 ADD PUSH2 0x676 JUMP JUMPDEST SWAP2 POP POP SWAP3 SWAP2 POP POP JUMP JUMPDEST PUSH1 0x0 DUP1 PUSH1 0x40 DUP4 DUP6 SUB SLT ISZERO PUSH2 0x6CF JUMPI PUSH2 0x6CE PUSH2 0xAB2 JUMP JUMPDEST JUMPDEST PUSH1 0x0 PUSH2 0x6DD DUP6 DUP3 DUP7 ADD PUSH2 0x676 JUMP JUMPDEST SWAP3 POP POP PUSH1 0x20 DUP4 ADD CALLDATALOAD PUSH8 0xFFFFFFFFFFFFFFFF DUP2 GT ISZERO PUSH2 0x6FE JUMPI PUSH2 0x6FD PUSH2 0xAAD JUMP JUMPDEST JUMPDEST PUSH2 0x70A DUP6 DUP3 DUP7 ADD PUSH2 0x648 JUMP JUMPDEST SWAP2 POP POP SWAP3 POP SWAP3 SWAP1 POP JUMP JUMPDEST PUSH1 0x0 PUSH2 0x720 DUP4 DUP4 PUSH2 0x7D6 JUMP JUMPDEST SWAP1 POP SWAP3 SWAP2 POP POP JUMP JUMPDEST PUSH1 0x0 PUSH2 0x733 DUP3 PUSH2 0x8AA JUMP JUMPDEST PUSH2 0x73D DUP2 DUP6 PUSH2 0x8CD JUMP JUMPDEST SWAP4 POP DUP4 PUSH1 0x20 DUP3 MUL DUP6 ADD PUSH2 0x74F DUP6 PUSH2 0x89A JUMP JUMPDEST DUP1 PUSH1 0x0 JUMPDEST DUP6 DUP2 LT ISZERO PUSH2 0x78B JUMPI DUP5 DUP5 SUB DUP10 MSTORE DUP2 MLOAD PUSH2 0x76C DUP6 DUP3 PUSH2 0x714 JUMP JUMPDEST SWAP5 POP PUSH2 0x777 DUP4 PUSH2 0x8C0 JUMP JUMPDEST SWAP3 POP PUSH1 0x20 DUP11 ADD SWAP10 POP POP PUSH1 0x1 DUP2 ADD SWAP1 POP PUSH2 0x753 JUMP JUMPDEST POP DUP3 SWAP8 POP DUP8 SWAP6 POP POP POP POP POP POP SWAP3 SWAP2 POP POP JUMP JUMPDEST PUSH1 0x0 PUSH2 0x7A8 DUP3 PUSH2 0x8B5 JUMP JUMPDEST PUSH2 0x7B2 DUP2 DUP6 PUSH2 0x8DE JUMP JUMPDEST SWAP4 POP PUSH2 0x7C2 DUP2 DUP6 PUSH1 0x20 DUP7 ADD PUSH2 0x908 JUMP JUMPDEST PUSH2 0x7CB DUP2 PUSH2 0xAB7 JUMP JUMPDEST DUP5 ADD SWAP2 POP POP SWAP3 SWAP2 POP POP JUMP JUMPDEST PUSH1 0x0 PUSH1 0x40 DUP4 ADD PUSH1 0x0 DUP4 ADD MLOAD PUSH2 0x7EE PUSH1 0x0 DUP7 ADD DUP3 PUSH2 0x813 JUMP JUMPDEST POP PUSH1 0x20 DUP4 ADD MLOAD DUP5 DUP3 SUB PUSH1 0x20 DUP7 ADD MSTORE PUSH2 0x806 DUP3 DUP3 PUSH2 0x79D JUMP JUMPDEST SWAP2 POP POP DUP1 SWAP2 POP POP SWAP3 SWAP2 POP POP JUMP JUMPDEST PUSH2 0x81C DUP2 PUSH2 0x8EF JUMP JUMPDEST DUP3 MSTORE POP POP JUMP JUMPDEST PUSH1 0x0 PUSH1 0x20 DUP3 ADD SWAP1 POP DUP2 DUP2 SUB PUSH1 0x0 DUP4 ADD MSTORE PUSH2 0x83C DUP2 DUP5 PUSH2 0x728 JUMP JUMPDEST SWAP1 POP SWAP3 SWAP2 POP POP JUMP JUMPDEST PUSH1 0x0 PUSH2 0x84E PUSH2 0x85F JUMP JUMPDEST SWAP1 POP PUSH2 0x85A DUP3 DUP3 PUSH2 0x96D JUMP JUMPDEST SWAP2 SWAP1 POP JUMP JUMPDEST PUSH1 0x0 PUSH1 0x40 MLOAD SWAP1 POP SWAP1 JUMP JUMPDEST PUSH1 0x0 PUSH8 0xFFFFFFFFFFFFFFFF DUP3 GT ISZERO PUSH2 0x884 JUMPI PUSH2 0x883 PUSH2 0xA74 JUMP JUMPDEST JUMPDEST PUSH2 0x88D DUP3 PUSH2 0xAB7 JUMP JUMPDEST SWAP1 POP PUSH1 0x20 DUP2 ADD SWAP1 POP SWAP2 SWAP1 POP JUMP JUMPDEST PUSH1 0x0 DUP2 SWAP1 POP PUSH1 0x20 DUP3 ADD SWAP1 POP SWAP2 SWAP1 POP JUMP JUMPDEST PUSH1 0x0 DUP2 MLOAD SWAP1 POP SWAP2 SWAP1 POP JUMP JUMPDEST PUSH1 0x0 DUP2 MLOAD SWAP1 POP SWAP2 SWAP1 POP JUMP JUMPDEST PUSH1 0x0 PUSH1 0x20 DUP3 ADD SWAP1 POP SWAP2 SWAP1 POP JUMP JUMPDEST PUSH1 0x0 DUP3 DUP3 MSTORE PUSH1 0x20 DUP3 ADD SWAP1 POP SWAP3 SWAP2 POP POP JUMP JUMPDEST PUSH1 0x0 DUP3 DUP3 MSTORE PUSH1 0x20 DUP3 ADD SWAP1 POP SWAP3 SWAP2 POP POP JUMP JUMPDEST PUSH1 0x0 DUP2 SWAP1 POP SWAP2 SWAP1 POP JUMP JUMPDEST DUP3 DUP2 DUP4 CALLDATACOPY PUSH1 0x0 DUP4 DUP4 ADD MSTORE POP POP POP JUMP JUMPDEST PUSH1 0x0 JUMPDEST DUP4 DUP2 LT ISZERO PUSH2 0x926 JUMPI DUP1 DUP3 ADD MLOAD DUP2 DUP5 ADD MSTORE PUSH1 0x20 DUP2 ADD SWAP1 POP PUSH2 0x90B JUMP JUMPDEST DUP4 DUP2 GT ISZERO PUSH2 0x935 JUMPI PUSH1 0x0 DUP5 DUP5 ADD MSTORE JUMPDEST POP POP POP POP JUMP JUMPDEST PUSH1 0x0 PUSH1 0x2 DUP3 DIV SWAP1 POP PUSH1 0x1 DUP3 AND DUP1 PUSH2 0x953 JUMPI PUSH1 0x7F DUP3 AND SWAP2 POP JUMPDEST PUSH1 0x20 DUP3 LT DUP2 EQ ISZERO PUSH2 0x967 JUMPI PUSH2 0x966 PUSH2 0xA16 JUMP JUMPDEST JUMPDEST POP SWAP2 SWAP1 POP JUMP JUMPDEST PUSH2 0x976 DUP3 PUSH2 0xAB7 JUMP JUMPDEST DUP2 ADD DUP2 DUP2 LT PUSH8 0xFFFFFFFFFFFFFFFF DUP3 GT OR ISZERO PUSH2 0x995 JUMPI PUSH2 0x994 PUSH2 0xA74 JUMP JUMPDEST JUMPDEST DUP1 PUSH1 0x40 MSTORE POP POP POP JUMP JUMPDEST PUSH1 0x0 PUSH2 0x9A9 DUP3 PUSH2 0x8EF JUMP JUMPDEST SWAP2 POP PUSH32 0xFFFFFFFFFFFFFFFFFFFFFFFFFFFFFFFFFFFFFFFFFFFFFFFFFFFFFFFFFFFFFFFF DUP3 EQ ISZERO PUSH2 0x9DC JUMPI PUSH2 0x9DB PUSH2 0x9E7 JUMP JUMPDEST JUMPDEST PUSH1 0x1 DUP3 ADD SWAP1 POP SWAP2 SWAP1 POP JUMP JUMPDEST PUSH32 0x4E487B7100000000000000000000000000000000000000000000000000000000 PUSH1 0x0 MSTORE PUSH1 0x11 PUSH1 0x4 MSTORE PUSH1 0x24 PUSH1 0x0 REVERT JUMPDEST PUSH32 0x4E487B7100000000000000000000000000000000000000000000000000000000 PUSH1 0x0 MSTORE PUSH1 0x22 PUSH1 0x4 MSTORE PUSH1 0x24 PUSH1 0x0 REVERT JUMPDEST PUSH32 0x4E487B7100000000000000000000000000000000000000000000000000000000 PUSH1 0x0 MSTORE PUSH1 0x32 PUSH1 0x4 MSTORE PUSH1 0x24 PUSH1 0x0 REVERT JUMPDEST PUSH32 0x4E487B7100000000000000000000000000000000000000000000000000000000 PUSH1 0x0 MSTORE PUSH1 0x41 PUSH1 0x4 MSTORE PUSH1 0x24 PUSH1 0x0 REVERT JUMPDEST PUSH1 0x0 DUP1 REVERT JUMPDEST PUSH1 0x0 DUP1 REVERT JUMPDEST PUSH1 0x0 DUP1 REVERT JUMPDEST PUSH1 0x0 DUP1 REVERT JUMPDEST PUSH1 0x0 PUSH1 0x1F NOT PUSH1 0x1F DUP4 ADD AND SWAP1 POP SWAP2 SWAP1 POP JUMP JUMPDEST PUSH2 0xAD1 DUP2 PUSH2 0x8EF JUMP JUMPDEST DUP2 EQ PUSH2 0xADC JUMPI PUSH1 0x0 DUP1 REVERT JUMPDEST POP JUMP INVALID LOG2 PUSH5 0x6970667358 0x22 SLT KECCAK256 0xD0 JUMPI EXTCODEHASH 0xEA 0xEB CREATE 0xC6 PUSH20 0x955EB6A9571E649D1EF9FBACE604B60BCC2A0233 0x2E REVERT EXTCODECOPY 0xBE PUSH5 0x736F6C6343 STOP ADDMOD SMOD STOP CALLER "
				},
				"gasEstimates": {
					"creation": {
						"codeDepositCost": "567400",
						"executionCost": "600",
						"totalCost": "568000"
					},
					"external": {
						"addTodo(uint256,string)": "infinite",
						"dltTodo(uint256)": "infinite",
						"resetAll()": "infinite",
						"showTodos()": "infinite",
						"updateTodos(uint256,string)": "infinite"
					}
				},
				"methodIdentifiers": {
					"addTodo(uint256,string)": "c1da2020",
					"dltTodo(uint256)": "a3dad43e",
					"resetAll()": "e103aef5",
					"showTodos()": "600060eb",
					"updateTodos(uint256,string)": "67e8b7f7"
				}
			},
			"storageLayout": {
				"storage": [
					{
						"astId": 10,
						"contract": "Todo.sol:Todo",
						"label": "todos",
						"offset": 0,
						"slot": "0",
						"type": "t_array(t_struct(todoObj)6_storage)dyn_storage"
					},
					{
						"astId": 16,
						"contract": "Todo.sol:Todo",
						"label": "todosMap",
						"offset": 0,
						"slot": "1",
						"type": "t_mapping(t_address,t_array(t_struct(todoObj)6_storage)dyn_storage)"
					}
				],
				"types": {
					"t_address": {
						"encoding": "inplace",
						"label": "address",
						"numberOfBytes": "20"
					},
					"t_array(t_struct(todoObj)6_storage)dyn_storage": {
						"base": "t_struct(todoObj)6_storage",
						"encoding": "dynamic_array",
						"label": "struct Todo.todoObj[]",
						"numberOfBytes": "32"
					},
					"t_mapping(t_address,t_array(t_struct(todoObj)6_storage)dyn_storage)": {
						"encoding": "mapping",
						"key": "t_address",
						"label": "mapping(address => struct Todo.todoObj[])",
						"numberOfBytes": "32",
						"value": "t_array(t_struct(todoObj)6_storage)dyn_storage"
					},
					"t_string_storage": {
						"encoding": "bytes",
						"label": "string",
						"numberOfBytes": "32"
					},
					"t_struct(todoObj)6_storage": {
						"encoding": "inplace",
						"label": "struct Todo.todoObj",
						"members": [
							{
								"astId": 3,
								"contract": "Todo.sol:Todo",
								"label": "id",
								"offset": 0,
								"slot": "0",
								"type": "t_uint256"
							},
							{
								"astId": 5,
								"contract": "Todo.sol:Todo",
								"label": "todoText",
								"offset": 0,
								"slot": "1",
								"type": "t_string_storage"
							}
						],
						"numberOfBytes": "64"
					},
					"t_uint256": {
						"encoding": "inplace",
						"label": "uint256",
						"numberOfBytes": "32"
					}
				}
			},
			"userdoc": {
				"kind": "user",
				"methods": {},
				"version": 1
			}
		}
	}
}