{
	"conditions.sol": {
		"Conditions": {
			"abi": [
				{
					"inputs": [
						{
							"internalType": "int256",
							"name": "a",
							"type": "int256"
						}
					],
					"name": "check",
					"outputs": [
						{
							"internalType": "string",
							"name": "",
							"type": "string"
						}
					],
					"stateMutability": "pure",
					"type": "function"
				}
			],
			"devdoc": {
				"kind": "dev",
				"methods": {},
				"version": 1
			},
			"evm": {
				"assembly": "    /* \"conditions.sol\":66:405  contract Conditions{\r... */\n  mstore(0x40, 0x80)\n  callvalue\n  dup1\n  iszero\n  tag_1\n  jumpi\n  0x00\n  dup1\n  revert\ntag_1:\n  pop\n  dataSize(sub_0)\n  dup1\n  dataOffset(sub_0)\n  0x00\n  codecopy\n  0x00\n  return\nstop\n\nsub_0: assembly {\n        /* \"conditions.sol\":66:405  contract Conditions{\r... */\n      mstore(0x40, 0x80)\n      callvalue\n      dup1\n      iszero\n      tag_1\n      jumpi\n      0x00\n      dup1\n      revert\n    tag_1:\n      pop\n      jumpi(tag_2, lt(calldatasize, 0x04))\n      shr(0xe0, calldataload(0x00))\n      dup1\n      0x9943d669\n      eq\n      tag_3\n      jumpi\n    tag_2:\n      0x00\n      dup1\n      revert\n        /* \"conditions.sol\":94:402  function check(int a) public pure returns(string memory){\r... */\n    tag_3:\n      tag_4\n      0x04\n      dup1\n      calldatasize\n      sub\n      dup2\n      add\n      swap1\n      tag_5\n      swap2\n      swap1\n      tag_6\n      jump\t// in\n    tag_5:\n      tag_7\n      jump\t// in\n    tag_4:\n      mload(0x40)\n      tag_8\n      swap2\n      swap1\n      tag_9\n      jump\t// in\n    tag_8:\n      mload(0x40)\n      dup1\n      swap2\n      sub\n      swap1\n      return\n    tag_7:\n        /* \"conditions.sol\":136:149  string memory */\n      0x60\n        /* \"conditions.sol\":161:180  string memory value */\n      dup1\n        /* \"conditions.sol\":197:198  0 */\n      0x00\n        /* \"conditions.sol\":194:195  a */\n      dup4\n        /* \"conditions.sol\":194:198  a==0 */\n      eq\n        /* \"conditions.sol\":191:372  if(a==0){\r... */\n      iszero\n      tag_11\n      jumpi\n        /* \"conditions.sol\":214:237  value = \"Value is zero\" */\n      mload(0x40)\n      dup1\n      0x40\n      add\n      0x40\n      mstore\n      dup1\n      0x0d\n      dup2\n      mstore\n      0x20\n      add\n      0x56616c7565206973207a65726f00000000000000000000000000000000000000\n      dup2\n      mstore\n      pop\n      swap1\n      pop\n        /* \"conditions.sol\":191:372  if(a==0){\r... */\n      jump(tag_12)\n    tag_11:\n        /* \"conditions.sol\":260:261  1 */\n      0x01\n        /* \"conditions.sol\":257:258  a */\n      dup4\n        /* \"conditions.sol\":257:261  a==1 */\n      eq\n        /* \"conditions.sol\":254:372  if(a==1){\r... */\n      iszero\n      tag_13\n      jumpi\n        /* \"conditions.sol\":277:299  value = \"Value is One\" */\n      mload(0x40)\n      dup1\n      0x40\n      add\n      0x40\n      mstore\n      dup1\n      0x0c\n      dup2\n      mstore\n      0x20\n      add\n      0x56616c7565206973204f6e650000000000000000000000000000000000000000\n      dup2\n      mstore\n      pop\n      swap1\n      pop\n        /* \"conditions.sol\":254:372  if(a==1){\r... */\n      jump(tag_14)\n    tag_13:\n        /* \"conditions.sol\":330:360  value = \"Nigther Zero nor One\" */\n      mload(0x40)\n      dup1\n      0x40\n      add\n      0x40\n      mstore\n      dup1\n      0x14\n      dup2\n      mstore\n      0x20\n      add\n      0x4e696774686572205a65726f206e6f72204f6e65000000000000000000000000\n      dup2\n      mstore\n      pop\n      swap1\n      pop\n        /* \"conditions.sol\":254:372  if(a==1){\r... */\n    tag_14:\n        /* \"conditions.sol\":191:372  if(a==0){\r... */\n    tag_12:\n        /* \"conditions.sol\":389:394  value */\n      dup1\n        /* \"conditions.sol\":382:394  return value */\n      swap2\n      pop\n      pop\n        /* \"conditions.sol\":94:402  function check(int a) public pure returns(string memory){\r... */\n      swap2\n      swap1\n      pop\n      jump\t// out\n        /* \"#utility.yul\":7:144   */\n    tag_16:\n        /* \"#utility.yul\":52:57   */\n      0x00\n        /* \"#utility.yul\":90:96   */\n      dup2\n        /* \"#utility.yul\":77:97   */\n      calldataload\n        /* \"#utility.yul\":68:97   */\n      swap1\n      pop\n        /* \"#utility.yul\":106:138   */\n      tag_18\n        /* \"#utility.yul\":132:137   */\n      dup2\n        /* \"#utility.yul\":106:138   */\n      tag_19\n      jump\t// in\n    tag_18:\n        /* \"#utility.yul\":7:144   */\n      swap3\n      swap2\n      pop\n      pop\n      jump\t// out\n        /* \"#utility.yul\":150:477   */\n    tag_6:\n        /* \"#utility.yul\":208:214   */\n      0x00\n        /* \"#utility.yul\":257:259   */\n      0x20\n        /* \"#utility.yul\":245:254   */\n      dup3\n        /* \"#utility.yul\":236:243   */\n      dup5\n        /* \"#utility.yul\":232:255   */\n      sub\n        /* \"#utility.yul\":228:260   */\n      slt\n        /* \"#utility.yul\":225:344   */\n      iszero\n      tag_21\n      jumpi\n        /* \"#utility.yul\":263:342   */\n      tag_22\n      tag_23\n      jump\t// in\n    tag_22:\n        /* \"#utility.yul\":225:344   */\n    tag_21:\n        /* \"#utility.yul\":383:384   */\n      0x00\n        /* \"#utility.yul\":408:460   */\n      tag_24\n        /* \"#utility.yul\":452:459   */\n      dup5\n        /* \"#utility.yul\":443:449   */\n      dup3\n        /* \"#utility.yul\":432:441   */\n      dup6\n        /* \"#utility.yul\":428:450   */\n      add\n        /* \"#utility.yul\":408:460   */\n      tag_16\n      jump\t// in\n    tag_24:\n        /* \"#utility.yul\":398:460   */\n      swap2\n      pop\n        /* \"#utility.yul\":354:470   */\n      pop\n        /* \"#utility.yul\":150:477   */\n      swap3\n      swap2\n      pop\n      pop\n      jump\t// out\n        /* \"#utility.yul\":483:847   */\n    tag_25:\n        /* \"#utility.yul\":571:574   */\n      0x00\n        /* \"#utility.yul\":599:638   */\n      tag_27\n        /* \"#utility.yul\":632:637   */\n      dup3\n        /* \"#utility.yul\":599:638   */\n      tag_28\n      jump\t// in\n    tag_27:\n        /* \"#utility.yul\":654:725   */\n      tag_29\n        /* \"#utility.yul\":718:724   */\n      dup2\n        /* \"#utility.yul\":713:716   */\n      dup6\n        /* \"#utility.yul\":654:725   */\n      tag_30\n      jump\t// in\n    tag_29:\n        /* \"#utility.yul\":647:725   */\n      swap4\n      pop\n        /* \"#utility.yul\":734:786   */\n      tag_31\n        /* \"#utility.yul\":779:785   */\n      dup2\n        /* \"#utility.yul\":774:777   */\n      dup6\n        /* \"#utility.yul\":767:771   */\n      0x20\n        /* \"#utility.yul\":760:765   */\n      dup7\n        /* \"#utility.yul\":756:772   */\n      add\n        /* \"#utility.yul\":734:786   */\n      tag_32\n      jump\t// in\n    tag_31:\n        /* \"#utility.yul\":811:840   */\n      tag_33\n        /* \"#utility.yul\":833:839   */\n      dup2\n        /* \"#utility.yul\":811:840   */\n      tag_34\n      jump\t// in\n    tag_33:\n        /* \"#utility.yul\":806:809   */\n      dup5\n        /* \"#utility.yul\":802:841   */\n      add\n        /* \"#utility.yul\":795:841   */\n      swap2\n      pop\n        /* \"#utility.yul\":575:847   */\n      pop\n        /* \"#utility.yul\":483:847   */\n      swap3\n      swap2\n      pop\n      pop\n      jump\t// out\n        /* \"#utility.yul\":853:1166   */\n    tag_9:\n        /* \"#utility.yul\":966:970   */\n      0x00\n        /* \"#utility.yul\":1004:1006   */\n      0x20\n        /* \"#utility.yul\":993:1002   */\n      dup3\n        /* \"#utility.yul\":989:1007   */\n      add\n        /* \"#utility.yul\":981:1007   */\n      swap1\n      pop\n        /* \"#utility.yul\":1053:1062   */\n      dup2\n        /* \"#utility.yul\":1047:1051   */\n      dup2\n        /* \"#utility.yul\":1043:1063   */\n      sub\n        /* \"#utility.yul\":1039:1040   */\n      0x00\n        /* \"#utility.yul\":1028:1037   */\n      dup4\n        /* \"#utility.yul\":1024:1041   */\n      add\n        /* \"#utility.yul\":1017:1064   */\n      mstore\n        /* \"#utility.yul\":1081:1159   */\n      tag_36\n        /* \"#utility.yul\":1154:1158   */\n      dup2\n        /* \"#utility.yul\":1145:1151   */\n      dup5\n        /* \"#utility.yul\":1081:1159   */\n      tag_25\n      jump\t// in\n    tag_36:\n        /* \"#utility.yul\":1073:1159   */\n      swap1\n      pop\n        /* \"#utility.yul\":853:1166   */\n      swap3\n      swap2\n      pop\n      pop\n      jump\t// out\n        /* \"#utility.yul\":1253:1352   */\n    tag_28:\n        /* \"#utility.yul\":1305:1311   */\n      0x00\n        /* \"#utility.yul\":1339:1344   */\n      dup2\n        /* \"#utility.yul\":1333:1345   */\n      mload\n        /* \"#utility.yul\":1323:1345   */\n      swap1\n      pop\n        /* \"#utility.yul\":1253:1352   */\n      swap2\n      swap1\n      pop\n      jump\t// out\n        /* \"#utility.yul\":1358:1527   */\n    tag_30:\n        /* \"#utility.yul\":1442:1453   */\n      0x00\n        /* \"#utility.yul\":1476:1482   */\n      dup3\n        /* \"#utility.yul\":1471:1474   */\n      dup3\n        /* \"#utility.yul\":1464:1483   */\n      mstore\n        /* \"#utility.yul\":1516:1520   */\n      0x20\n        /* \"#utility.yul\":1511:1514   */\n      dup3\n        /* \"#utility.yul\":1507:1521   */\n      add\n        /* \"#utility.yul\":1492:1521   */\n      swap1\n      pop\n        /* \"#utility.yul\":1358:1527   */\n      swap3\n      swap2\n      pop\n      pop\n      jump\t// out\n        /* \"#utility.yul\":1533:1609   */\n    tag_41:\n        /* \"#utility.yul\":1569:1576   */\n      0x00\n        /* \"#utility.yul\":1598:1603   */\n      dup2\n        /* \"#utility.yul\":1587:1603   */\n      swap1\n      pop\n        /* \"#utility.yul\":1533:1609   */\n      swap2\n      swap1\n      pop\n      jump\t// out\n        /* \"#utility.yul\":1615:1922   */\n    tag_32:\n        /* \"#utility.yul\":1683:1684   */\n      0x00\n        /* \"#utility.yul\":1693:1806   */\n    tag_44:\n        /* \"#utility.yul\":1707:1713   */\n      dup4\n        /* \"#utility.yul\":1704:1705   */\n      dup2\n        /* \"#utility.yul\":1701:1714   */\n      lt\n        /* \"#utility.yul\":1693:1806   */\n      iszero\n      tag_46\n      jumpi\n        /* \"#utility.yul\":1792:1793   */\n      dup1\n        /* \"#utility.yul\":1787:1790   */\n      dup3\n        /* \"#utility.yul\":1783:1794   */\n      add\n        /* \"#utility.yul\":1777:1795   */\n      mload\n        /* \"#utility.yul\":1773:1774   */\n      dup2\n        /* \"#utility.yul\":1768:1771   */\n      dup5\n        /* \"#utility.yul\":1764:1775   */\n      add\n        /* \"#utility.yul\":1757:1796   */\n      mstore\n        /* \"#utility.yul\":1729:1731   */\n      0x20\n        /* \"#utility.yul\":1726:1727   */\n      dup2\n        /* \"#utility.yul\":1722:1732   */\n      add\n        /* \"#utility.yul\":1717:1732   */\n      swap1\n      pop\n        /* \"#utility.yul\":1693:1806   */\n      jump(tag_44)\n    tag_46:\n        /* \"#utility.yul\":1824:1830   */\n      dup4\n        /* \"#utility.yul\":1821:1822   */\n      dup2\n        /* \"#utility.yul\":1818:1831   */\n      gt\n        /* \"#utility.yul\":1815:1916   */\n      iszero\n      tag_47\n      jumpi\n        /* \"#utility.yul\":1904:1905   */\n      0x00\n        /* \"#utility.yul\":1895:1901   */\n      dup5\n        /* \"#utility.yul\":1890:1893   */\n      dup5\n        /* \"#utility.yul\":1886:1902   */\n      add\n        /* \"#utility.yul\":1879:1906   */\n      mstore\n        /* \"#utility.yul\":1815:1916   */\n    tag_47:\n        /* \"#utility.yul\":1664:1922   */\n      pop\n        /* \"#utility.yul\":1615:1922   */\n      pop\n      pop\n      pop\n      jump\t// out\n        /* \"#utility.yul\":2051:2168   */\n    tag_23:\n        /* \"#utility.yul\":2160:2161   */\n      0x00\n        /* \"#utility.yul\":2157:2158   */\n      dup1\n        /* \"#utility.yul\":2150:2162   */\n      revert\n        /* \"#utility.yul\":2174:2276   */\n    tag_34:\n        /* \"#utility.yul\":2215:2221   */\n      0x00\n        /* \"#utility.yul\":2266:2268   */\n      0x1f\n        /* \"#utility.yul\":2262:2269   */\n      not\n        /* \"#utility.yul\":2257:2259   */\n      0x1f\n        /* \"#utility.yul\":2250:2255   */\n      dup4\n        /* \"#utility.yul\":2246:2260   */\n      add\n        /* \"#utility.yul\":2242:2270   */\n      and\n        /* \"#utility.yul\":2232:2270   */\n      swap1\n      pop\n        /* \"#utility.yul\":2174:2276   */\n      swap2\n      swap1\n      pop\n      jump\t// out\n        /* \"#utility.yul\":2282:2402   */\n    tag_19:\n        /* \"#utility.yul\":2354:2377   */\n      tag_53\n        /* \"#utility.yul\":2371:2376   */\n      dup2\n        /* \"#utility.yul\":2354:2377   */\n      tag_41\n      jump\t// in\n    tag_53:\n        /* \"#utility.yul\":2347:2352   */\n      dup2\n        /* \"#utility.yul\":2344:2378   */\n      eq\n        /* \"#utility.yul\":2334:2396   */\n      tag_54\n      jumpi\n        /* \"#utility.yul\":2392:2393   */\n      0x00\n        /* \"#utility.yul\":2389:2390   */\n      dup1\n        /* \"#utility.yul\":2382:2394   */\n      revert\n        /* \"#utility.yul\":2334:2396   */\n    tag_54:\n        /* \"#utility.yul\":2282:2402   */\n      pop\n      jump\t// out\n\n    auxdata: 0xa26469706673582212209547b172b7cf15c6c8f4af75b5d14ad7489404d3ccadfc82b0bf3d3b9e2f876964736f6c63430008070033\n}\n",
				"bytecode": {
					"linkReferences": {},
					"object": "608060405234801561001057600080fd5b5061028b806100206000396000f3fe608060405234801561001057600080fd5b506004361061002b5760003560e01c80639943d66914610030575b600080fd5b61004a60048036038101906100459190610147565b610060565b60405161005791906101ad565b60405180910390f35b60608060008314156100a9576040518060400160405280600d81526020017f56616c7565206973207a65726f000000000000000000000000000000000000008152509050610129565b60018314156100ef576040518060400160405280600c81526020017f56616c7565206973204f6e6500000000000000000000000000000000000000008152509050610128565b6040518060400160405280601481526020017f4e696774686572205a65726f206e6f72204f6e6500000000000000000000000081525090505b5b80915050919050565b6000813590506101418161023e565b92915050565b60006020828403121561015d5761015c610228565b5b600061016b84828501610132565b91505092915050565b600061017f826101cf565b61018981856101da565b93506101998185602086016101f5565b6101a28161022d565b840191505092915050565b600060208201905081810360008301526101c78184610174565b905092915050565b600081519050919050565b600082825260208201905092915050565b6000819050919050565b60005b838110156102135780820151818401526020810190506101f8565b83811115610222576000848401525b50505050565b600080fd5b6000601f19601f8301169050919050565b610247816101eb565b811461025257600080fd5b5056fea26469706673582212209547b172b7cf15c6c8f4af75b5d14ad7489404d3ccadfc82b0bf3d3b9e2f876964736f6c63430008070033",
					"opcodes": "PUSH1 0x80 PUSH1 0x40 MSTORE CALLVALUE DUP1 ISZERO PUSH2 0x10 JUMPI PUSH1 0x0 DUP1 REVERT JUMPDEST POP PUSH2 0x28B DUP1 PUSH2 0x20 PUSH1 0x0 CODECOPY PUSH1 0x0 RETURN INVALID PUSH1 0x80 PUSH1 0x40 MSTORE CALLVALUE DUP1 ISZERO PUSH2 0x10 JUMPI PUSH1 0x0 DUP1 REVERT JUMPDEST POP PUSH1 0x4 CALLDATASIZE LT PUSH2 0x2B JUMPI PUSH1 0x0 CALLDATALOAD PUSH1 0xE0 SHR DUP1 PUSH4 0x9943D669 EQ PUSH2 0x30 JUMPI JUMPDEST PUSH1 0x0 DUP1 REVERT JUMPDEST PUSH2 0x4A PUSH1 0x4 DUP1 CALLDATASIZE SUB DUP2 ADD SWAP1 PUSH2 0x45 SWAP2 SWAP1 PUSH2 0x147 JUMP JUMPDEST PUSH2 0x60 JUMP JUMPDEST PUSH1 0x40 MLOAD PUSH2 0x57 SWAP2 SWAP1 PUSH2 0x1AD JUMP JUMPDEST PUSH1 0x40 MLOAD DUP1 SWAP2 SUB SWAP1 RETURN JUMPDEST PUSH1 0x60 DUP1 PUSH1 0x0 DUP4 EQ ISZERO PUSH2 0xA9 JUMPI PUSH1 0x40 MLOAD DUP1 PUSH1 0x40 ADD PUSH1 0x40 MSTORE DUP1 PUSH1 0xD DUP2 MSTORE PUSH1 0x20 ADD PUSH32 0x56616C7565206973207A65726F00000000000000000000000000000000000000 DUP2 MSTORE POP SWAP1 POP PUSH2 0x129 JUMP JUMPDEST PUSH1 0x1 DUP4 EQ ISZERO PUSH2 0xEF JUMPI PUSH1 0x40 MLOAD DUP1 PUSH1 0x40 ADD PUSH1 0x40 MSTORE DUP1 PUSH1 0xC DUP2 MSTORE PUSH1 0x20 ADD PUSH32 0x56616C7565206973204F6E650000000000000000000000000000000000000000 DUP2 MSTORE POP SWAP1 POP PUSH2 0x128 JUMP JUMPDEST PUSH1 0x40 MLOAD DUP1 PUSH1 0x40 ADD PUSH1 0x40 MSTORE DUP1 PUSH1 0x14 DUP2 MSTORE PUSH1 0x20 ADD PUSH32 0x4E696774686572205A65726F206E6F72204F6E65000000000000000000000000 DUP2 MSTORE POP SWAP1 POP JUMPDEST JUMPDEST DUP1 SWAP2 POP POP SWAP2 SWAP1 POP JUMP JUMPDEST PUSH1 0x0 DUP2 CALLDATALOAD SWAP1 POP PUSH2 0x141 DUP2 PUSH2 0x23E JUMP JUMPDEST SWAP3 SWAP2 POP POP JUMP JUMPDEST PUSH1 0x0 PUSH1 0x20 DUP3 DUP5 SUB SLT ISZERO PUSH2 0x15D JUMPI PUSH2 0x15C PUSH2 0x228 JUMP JUMPDEST JUMPDEST PUSH1 0x0 PUSH2 0x16B DUP5 DUP3 DUP6 ADD PUSH2 0x132 JUMP JUMPDEST SWAP2 POP POP SWAP3 SWAP2 POP POP JUMP JUMPDEST PUSH1 0x0 PUSH2 0x17F DUP3 PUSH2 0x1CF JUMP JUMPDEST PUSH2 0x189 DUP2 DUP6 PUSH2 0x1DA JUMP JUMPDEST SWAP4 POP PUSH2 0x199 DUP2 DUP6 PUSH1 0x20 DUP7 ADD PUSH2 0x1F5 JUMP JUMPDEST PUSH2 0x1A2 DUP2 PUSH2 0x22D JUMP JUMPDEST DUP5 ADD SWAP2 POP POP SWAP3 SWAP2 POP POP JUMP JUMPDEST PUSH1 0x0 PUSH1 0x20 DUP3 ADD SWAP1 POP DUP2 DUP2 SUB PUSH1 0x0 DUP4 ADD MSTORE PUSH2 0x1C7 DUP2 DUP5 PUSH2 0x174 JUMP JUMPDEST SWAP1 POP SWAP3 SWAP2 POP POP JUMP JUMPDEST PUSH1 0x0 DUP2 MLOAD SWAP1 POP SWAP2 SWAP1 POP JUMP JUMPDEST PUSH1 0x0 DUP3 DUP3 MSTORE PUSH1 0x20 DUP3 ADD SWAP1 POP SWAP3 SWAP2 POP POP JUMP JUMPDEST PUSH1 0x0 DUP2 SWAP1 POP SWAP2 SWAP1 POP JUMP JUMPDEST PUSH1 0x0 JUMPDEST DUP4 DUP2 LT ISZERO PUSH2 0x213 JUMPI DUP1 DUP3 ADD MLOAD DUP2 DUP5 ADD MSTORE PUSH1 0x20 DUP2 ADD SWAP1 POP PUSH2 0x1F8 JUMP JUMPDEST DUP4 DUP2 GT ISZERO PUSH2 0x222 JUMPI PUSH1 0x0 DUP5 DUP5 ADD MSTORE JUMPDEST POP POP POP POP JUMP JUMPDEST PUSH1 0x0 DUP1 REVERT JUMPDEST PUSH1 0x0 PUSH1 0x1F NOT PUSH1 0x1F DUP4 ADD AND SWAP1 POP SWAP2 SWAP1 POP JUMP JUMPDEST PUSH2 0x247 DUP2 PUSH2 0x1EB JUMP JUMPDEST DUP2 EQ PUSH2 0x252 JUMPI PUSH1 0x0 DUP1 REVERT JUMPDEST POP JUMP INVALID LOG2 PUSH5 0x6970667358 0x22 SLT KECCAK256 SWAP6 SELFBALANCE 0xB1 PUSH19 0xB7CF15C6C8F4AF75B5D14AD7489404D3CCADFC DUP3 0xB0 0xBF RETURNDATASIZE EXTCODESIZE SWAP15 0x2F DUP8 PUSH10 0x64736F6C634300080700 CALLER "
				},
				"gasEstimates": {
					"creation": {
						"codeDepositCost": "130200",
						"executionCost": "177",
						"totalCost": "130377"
					},
					"external": {
						"check(int256)": "infinite"
					}
				},
				"methodIdentifiers": {
					"check(int256)": "9943d669"
				}
			},
			"storageLayout": {
				"storage": [],
				"types": null
			},
			"userdoc": {
				"kind": "user",
				"methods": {},
				"version": 1
			}
		}
	}
}