{
	"loops.sol": {
		"Loops": {
			"abi": [
				{
					"inputs": [
						{
							"internalType": "uint256",
							"name": "",
							"type": "uint256"
						}
					],
					"name": "arr",
					"outputs": [
						{
							"internalType": "uint256",
							"name": "",
							"type": "uint256"
						}
					],
					"stateMutability": "view",
					"type": "function"
				},
				{
					"inputs": [],
					"name": "count",
					"outputs": [
						{
							"internalType": "uint256",
							"name": "",
							"type": "uint256"
						}
					],
					"stateMutability": "view",
					"type": "function"
				},
				{
					"inputs": [],
					"name": "runLoops",
					"outputs": [],
					"stateMutability": "nonpayable",
					"type": "function"
				}
			],
			"devdoc": {
				"kind": "dev",
				"methods": {},
				"version": 1
			},
			"evm": {
				"assembly": "    /* \"loops.sol\":66:373  contract Loops{\r... */\n  mstore(0x40, 0x80)\n  callvalue\n  dup1\n  iszero\n  tag_1\n  jumpi\n  0x00\n  dup1\n  revert\ntag_1:\n  pop\n  dataSize(sub_0)\n  dup1\n  dataOffset(sub_0)\n  0x00\n  codecopy\n  0x00\n  return\nstop\n\nsub_0: assembly {\n        /* \"loops.sol\":66:373  contract Loops{\r... */\n      mstore(0x40, 0x80)\n      callvalue\n      dup1\n      iszero\n      tag_1\n      jumpi\n      0x00\n      dup1\n      revert\n    tag_1:\n      pop\n      jumpi(tag_2, lt(calldatasize, 0x04))\n      shr(0xe0, calldataload(0x00))\n      dup1\n      0x06661abd\n      eq\n      tag_3\n      jumpi\n      dup1\n      0x71e5ee5f\n      eq\n      tag_4\n      jumpi\n      dup1\n      0xacf0ab5f\n      eq\n      tag_5\n      jumpi\n    tag_2:\n      0x00\n      dup1\n      revert\n        /* \"loops.sol\":113:130  uint public count */\n    tag_3:\n      tag_6\n      tag_7\n      jump\t// in\n    tag_6:\n      mload(0x40)\n      tag_8\n      swap2\n      swap1\n      tag_9\n      jump\t// in\n    tag_8:\n      mload(0x40)\n      dup1\n      swap2\n      sub\n      swap1\n      return\n        /* \"loops.sol\":87:105  uint[3] public arr */\n    tag_4:\n      tag_10\n      0x04\n      dup1\n      calldatasize\n      sub\n      dup2\n      add\n      swap1\n      tag_11\n      swap2\n      swap1\n      tag_12\n      jump\t// in\n    tag_11:\n      tag_13\n      jump\t// in\n    tag_10:\n      mload(0x40)\n      tag_14\n      swap2\n      swap1\n      tag_9\n      jump\t// in\n    tag_14:\n      mload(0x40)\n      dup1\n      swap2\n      sub\n      swap1\n      return\n        /* \"loops.sol\":139:360  function runLoops() public {\r... */\n    tag_5:\n      tag_15\n      tag_16\n      jump\t// in\n    tag_15:\n      stop\n        /* \"loops.sol\":113:130  uint public count */\n    tag_7:\n      sload(0x03)\n      dup2\n      jump\t// out\n        /* \"loops.sol\":87:105  uint[3] public arr */\n    tag_13:\n      0x00\n      dup2\n      0x03\n      dup2\n      lt\n      tag_17\n      jumpi\n      0x00\n      dup1\n      revert\n    tag_17:\n      add\n      0x00\n      swap2\n      pop\n      swap1\n      pop\n      sload\n      dup2\n      jump\t// out\n        /* \"loops.sol\":139:360  function runLoops() public {\r... */\n    tag_16:\n        /* \"loops.sol\":298:353  do{\r... */\n    tag_20:\n        /* \"loops.sol\":320:325  count */\n      sload(0x03)\n        /* \"loops.sol\":307:310  arr */\n      0x00\n        /* \"loops.sol\":311:316  count */\n      sload(0x03)\n        /* \"loops.sol\":307:317  arr[count] */\n      0x03\n      dup2\n      lt\n      tag_23\n      jumpi\n      tag_24\n      tag_25\n      jump\t// in\n    tag_24:\n    tag_23:\n      add\n        /* \"loops.sol\":307:325  arr[count] = count */\n      dup2\n      swap1\n      sstore\n      pop\n        /* \"loops.sol\":341:351  arr.length */\n      0x03\n        /* \"loops.sol\":335:340  count */\n      dup1\n      sload\n        /* \"loops.sol\":335:351  count<arr.length */\n      lt\n        /* \"loops.sol\":298:353  do{\r... */\n      tag_20\n      jumpi\n        /* \"loops.sol\":139:360  function runLoops() public {\r... */\n      jump\t// out\n        /* \"#utility.yul\":7:146   */\n    tag_28:\n        /* \"#utility.yul\":53:58   */\n      0x00\n        /* \"#utility.yul\":91:97   */\n      dup2\n        /* \"#utility.yul\":78:98   */\n      calldataload\n        /* \"#utility.yul\":69:98   */\n      swap1\n      pop\n        /* \"#utility.yul\":107:140   */\n      tag_30\n        /* \"#utility.yul\":134:139   */\n      dup2\n        /* \"#utility.yul\":107:140   */\n      tag_31\n      jump\t// in\n    tag_30:\n        /* \"#utility.yul\":7:146   */\n      swap3\n      swap2\n      pop\n      pop\n      jump\t// out\n        /* \"#utility.yul\":152:481   */\n    tag_12:\n        /* \"#utility.yul\":211:217   */\n      0x00\n        /* \"#utility.yul\":260:262   */\n      0x20\n        /* \"#utility.yul\":248:257   */\n      dup3\n        /* \"#utility.yul\":239:246   */\n      dup5\n        /* \"#utility.yul\":235:258   */\n      sub\n        /* \"#utility.yul\":231:263   */\n      slt\n        /* \"#utility.yul\":228:347   */\n      iszero\n      tag_33\n      jumpi\n        /* \"#utility.yul\":266:345   */\n      tag_34\n      tag_35\n      jump\t// in\n    tag_34:\n        /* \"#utility.yul\":228:347   */\n    tag_33:\n        /* \"#utility.yul\":386:387   */\n      0x00\n        /* \"#utility.yul\":411:464   */\n      tag_36\n        /* \"#utility.yul\":456:463   */\n      dup5\n        /* \"#utility.yul\":447:453   */\n      dup3\n        /* \"#utility.yul\":436:445   */\n      dup6\n        /* \"#utility.yul\":432:454   */\n      add\n        /* \"#utility.yul\":411:464   */\n      tag_28\n      jump\t// in\n    tag_36:\n        /* \"#utility.yul\":401:464   */\n      swap2\n      pop\n        /* \"#utility.yul\":357:474   */\n      pop\n        /* \"#utility.yul\":152:481   */\n      swap3\n      swap2\n      pop\n      pop\n      jump\t// out\n        /* \"#utility.yul\":487:605   */\n    tag_37:\n        /* \"#utility.yul\":574:598   */\n      tag_39\n        /* \"#utility.yul\":592:597   */\n      dup2\n        /* \"#utility.yul\":574:598   */\n      tag_40\n      jump\t// in\n    tag_39:\n        /* \"#utility.yul\":569:572   */\n      dup3\n        /* \"#utility.yul\":562:599   */\n      mstore\n        /* \"#utility.yul\":487:605   */\n      pop\n      pop\n      jump\t// out\n        /* \"#utility.yul\":611:833   */\n    tag_9:\n        /* \"#utility.yul\":704:708   */\n      0x00\n        /* \"#utility.yul\":742:744   */\n      0x20\n        /* \"#utility.yul\":731:740   */\n      dup3\n        /* \"#utility.yul\":727:745   */\n      add\n        /* \"#utility.yul\":719:745   */\n      swap1\n      pop\n        /* \"#utility.yul\":755:826   */\n      tag_42\n        /* \"#utility.yul\":823:824   */\n      0x00\n        /* \"#utility.yul\":812:821   */\n      dup4\n        /* \"#utility.yul\":808:825   */\n      add\n        /* \"#utility.yul\":799:805   */\n      dup5\n        /* \"#utility.yul\":755:826   */\n      tag_37\n      jump\t// in\n    tag_42:\n        /* \"#utility.yul\":611:833   */\n      swap3\n      swap2\n      pop\n      pop\n      jump\t// out\n        /* \"#utility.yul\":920:997   */\n    tag_40:\n        /* \"#utility.yul\":957:964   */\n      0x00\n        /* \"#utility.yul\":986:991   */\n      dup2\n        /* \"#utility.yul\":975:991   */\n      swap1\n      pop\n        /* \"#utility.yul\":920:997   */\n      swap2\n      swap1\n      pop\n      jump\t// out\n        /* \"#utility.yul\":1003:1183   */\n    tag_25:\n        /* \"#utility.yul\":1051:1128   */\n      0x4e487b7100000000000000000000000000000000000000000000000000000000\n        /* \"#utility.yul\":1048:1049   */\n      0x00\n        /* \"#utility.yul\":1041:1129   */\n      mstore\n        /* \"#utility.yul\":1148:1152   */\n      0x32\n        /* \"#utility.yul\":1145:1146   */\n      0x04\n        /* \"#utility.yul\":1138:1153   */\n      mstore\n        /* \"#utility.yul\":1172:1176   */\n      0x24\n        /* \"#utility.yul\":1169:1170   */\n      0x00\n        /* \"#utility.yul\":1162:1177   */\n      revert\n        /* \"#utility.yul\":1312:1429   */\n    tag_35:\n        /* \"#utility.yul\":1421:1422   */\n      0x00\n        /* \"#utility.yul\":1418:1419   */\n      dup1\n        /* \"#utility.yul\":1411:1423   */\n      revert\n        /* \"#utility.yul\":1435:1557   */\n    tag_31:\n        /* \"#utility.yul\":1508:1532   */\n      tag_51\n        /* \"#utility.yul\":1526:1531   */\n      dup2\n        /* \"#utility.yul\":1508:1532   */\n      tag_40\n      jump\t// in\n    tag_51:\n        /* \"#utility.yul\":1501:1506   */\n      dup2\n        /* \"#utility.yul\":1498:1533   */\n      eq\n        /* \"#utility.yul\":1488:1551   */\n      tag_52\n      jumpi\n        /* \"#utility.yul\":1547:1548   */\n      0x00\n        /* \"#utility.yul\":1544:1545   */\n      dup1\n        /* \"#utility.yul\":1537:1549   */\n      revert\n        /* \"#utility.yul\":1488:1551   */\n    tag_52:\n        /* \"#utility.yul\":1435:1557   */\n      pop\n      jump\t// out\n\n    auxdata: 0xa26469706673582212200729e212f850868812a8fcbb90d2a5c5901647ca8b495e0f23fd461e580c542364736f6c63430008070033\n}\n",
				"bytecode": {
					"linkReferences": {},
					"object": "608060405234801561001057600080fd5b506101e0806100206000396000f3fe608060405234801561001057600080fd5b50600436106100415760003560e01c806306661abd1461004657806371e5ee5f14610064578063acf0ab5f14610094575b600080fd5b61004e61009e565b60405161005b919061013a565b60405180910390f35b61007e600480360381019061007991906100fe565b6100a4565b60405161008b919061013a565b60405180910390f35b61009c6100bf565b005b60035481565b600081600381106100b457600080fd5b016000915090505481565b5b6003546000600354600381106100d9576100d861015f565b5b018190555060038054106100c057565b6000813590506100f881610193565b92915050565b6000602082840312156101145761011361018e565b5b6000610122848285016100e9565b91505092915050565b61013481610155565b82525050565b600060208201905061014f600083018461012b565b92915050565b6000819050919050565b7f4e487b7100000000000000000000000000000000000000000000000000000000600052603260045260246000fd5b600080fd5b61019c81610155565b81146101a757600080fd5b5056fea26469706673582212200729e212f850868812a8fcbb90d2a5c5901647ca8b495e0f23fd461e580c542364736f6c63430008070033",
					"opcodes": "PUSH1 0x80 PUSH1 0x40 MSTORE CALLVALUE DUP1 ISZERO PUSH2 0x10 JUMPI PUSH1 0x0 DUP1 REVERT JUMPDEST POP PUSH2 0x1E0 DUP1 PUSH2 0x20 PUSH1 0x0 CODECOPY PUSH1 0x0 RETURN INVALID PUSH1 0x80 PUSH1 0x40 MSTORE CALLVALUE DUP1 ISZERO PUSH2 0x10 JUMPI PUSH1 0x0 DUP1 REVERT JUMPDEST POP PUSH1 0x4 CALLDATASIZE LT PUSH2 0x41 JUMPI PUSH1 0x0 CALLDATALOAD PUSH1 0xE0 SHR DUP1 PUSH4 0x6661ABD EQ PUSH2 0x46 JUMPI DUP1 PUSH4 0x71E5EE5F EQ PUSH2 0x64 JUMPI DUP1 PUSH4 0xACF0AB5F EQ PUSH2 0x94 JUMPI JUMPDEST PUSH1 0x0 DUP1 REVERT JUMPDEST PUSH2 0x4E PUSH2 0x9E JUMP JUMPDEST PUSH1 0x40 MLOAD PUSH2 0x5B SWAP2 SWAP1 PUSH2 0x13A JUMP JUMPDEST PUSH1 0x40 MLOAD DUP1 SWAP2 SUB SWAP1 RETURN JUMPDEST PUSH2 0x7E PUSH1 0x4 DUP1 CALLDATASIZE SUB DUP2 ADD SWAP1 PUSH2 0x79 SWAP2 SWAP1 PUSH2 0xFE JUMP JUMPDEST PUSH2 0xA4 JUMP JUMPDEST PUSH1 0x40 MLOAD PUSH2 0x8B SWAP2 SWAP1 PUSH2 0x13A JUMP JUMPDEST PUSH1 0x40 MLOAD DUP1 SWAP2 SUB SWAP1 RETURN JUMPDEST PUSH2 0x9C PUSH2 0xBF JUMP JUMPDEST STOP JUMPDEST PUSH1 0x3 SLOAD DUP2 JUMP JUMPDEST PUSH1 0x0 DUP2 PUSH1 0x3 DUP2 LT PUSH2 0xB4 JUMPI PUSH1 0x0 DUP1 REVERT JUMPDEST ADD PUSH1 0x0 SWAP2 POP SWAP1 POP SLOAD DUP2 JUMP JUMPDEST JUMPDEST PUSH1 0x3 SLOAD PUSH1 0x0 PUSH1 0x3 SLOAD PUSH1 0x3 DUP2 LT PUSH2 0xD9 JUMPI PUSH2 0xD8 PUSH2 0x15F JUMP JUMPDEST JUMPDEST ADD DUP2 SWAP1 SSTORE POP PUSH1 0x3 DUP1 SLOAD LT PUSH2 0xC0 JUMPI JUMP JUMPDEST PUSH1 0x0 DUP2 CALLDATALOAD SWAP1 POP PUSH2 0xF8 DUP2 PUSH2 0x193 JUMP JUMPDEST SWAP3 SWAP2 POP POP JUMP JUMPDEST PUSH1 0x0 PUSH1 0x20 DUP3 DUP5 SUB SLT ISZERO PUSH2 0x114 JUMPI PUSH2 0x113 PUSH2 0x18E JUMP JUMPDEST JUMPDEST PUSH1 0x0 PUSH2 0x122 DUP5 DUP3 DUP6 ADD PUSH2 0xE9 JUMP JUMPDEST SWAP2 POP POP SWAP3 SWAP2 POP POP JUMP JUMPDEST PUSH2 0x134 DUP2 PUSH2 0x155 JUMP JUMPDEST DUP3 MSTORE POP POP JUMP JUMPDEST PUSH1 0x0 PUSH1 0x20 DUP3 ADD SWAP1 POP PUSH2 0x14F PUSH1 0x0 DUP4 ADD DUP5 PUSH2 0x12B JUMP JUMPDEST SWAP3 SWAP2 POP POP JUMP JUMPDEST PUSH1 0x0 DUP2 SWAP1 POP SWAP2 SWAP1 POP JUMP JUMPDEST PUSH32 0x4E487B7100000000000000000000000000000000000000000000000000000000 PUSH1 0x0 MSTORE PUSH1 0x32 PUSH1 0x4 MSTORE PUSH1 0x24 PUSH1 0x0 REVERT JUMPDEST PUSH1 0x0 DUP1 REVERT JUMPDEST PUSH2 0x19C DUP2 PUSH2 0x155 JUMP JUMPDEST DUP2 EQ PUSH2 0x1A7 JUMPI PUSH1 0x0 DUP1 REVERT JUMPDEST POP JUMP INVALID LOG2 PUSH5 0x6970667358 0x22 SLT KECCAK256 SMOD 0x29 0xE2 SLT 0xF8 POP DUP7 DUP9 SLT 0xA8 0xFC 0xBB SWAP1 0xD2 0xA5 0xC5 SWAP1 AND SELFBALANCE 0xCA DUP12 0x49 0x5E 0xF 0x23 REVERT CHAINID 0x1E PC 0xC SLOAD 0x23 PUSH5 0x736F6C6343 STOP ADDMOD SMOD STOP CALLER "
				},
				"gasEstimates": {
					"creation": {
						"codeDepositCost": "96000",
						"executionCost": "141",
						"totalCost": "96141"
					},
					"external": {
						"arr(uint256)": "infinite",
						"count()": "2407",
						"runLoops()": "infinite"
					}
				},
				"methodIdentifiers": {
					"arr(uint256)": "71e5ee5f",
					"count()": "06661abd",
					"runLoops()": "acf0ab5f"
				}
			},
			"storageLayout": {
				"storage": [
					{
						"astId": 5,
						"contract": "loops.sol:Loops",
						"label": "arr",
						"offset": 0,
						"slot": "0",
						"type": "t_array(t_uint256)3_storage"
					},
					{
						"astId": 7,
						"contract": "loops.sol:Loops",
						"label": "count",
						"offset": 0,
						"slot": "3",
						"type": "t_uint256"
					}
				],
				"types": {
					"t_array(t_uint256)3_storage": {
						"base": "t_uint256",
						"encoding": "inplace",
						"label": "uint256[3]",
						"numberOfBytes": "96"
					},
					"t_uint256": {
						"encoding": "inplace",
						"label": "uint256",
						"numberOfBytes": "32"
					}
				}
			},
			"userdoc": {
				"kind": "user",
				"methods": {},
				"version": 1
			}
		}
	}
}