{
	"Todo.sol": {
		"Todo": {
			"abi": [
				{
					"inputs": [
						{
							"internalType": "uint256",
							"name": "_id",
							"type": "uint256"
						},
						{
							"internalType": "string",
							"name": "todo",
							"type": "string"
						}
					],
					"name": "addTodo",
					"outputs": [],
					"stateMutability": "nonpayable",
					"type": "function"
				},
				{
					"inputs": [],
					"name": "showTodo",
					"outputs": [
						{
							"components": [
								{
									"internalType": "uint256",
									"name": "id",
									"type": "uint256"
								},
								{
									"internalType": "string",
									"name": "todoText",
									"type": "string"
								}
							],
							"internalType": "struct Todo.todoObj[]",
							"name": "",
							"type": "tuple[]"
						}
					],
					"stateMutability": "view",
					"type": "function"
				},
				{
					"inputs": [
						{
							"internalType": "uint256",
							"name": "",
							"type": "uint256"
						}
					],
					"name": "todos",
					"outputs": [
						{
							"internalType": "uint256",
							"name": "id",
							"type": "uint256"
						},
						{
							"internalType": "string",
							"name": "todoText",
							"type": "string"
						}
					],
					"stateMutability": "view",
					"type": "function"
				}
			],
			"devdoc": {
				"kind": "dev",
				"methods": {},
				"version": 1
			},
			"evm": {
				"assembly": "    /* \"Todo.sol\":66:524  contract Todo{\r... */\n  mstore(0x40, 0x80)\n  callvalue\n  dup1\n  iszero\n  tag_1\n  jumpi\n  0x00\n  dup1\n  revert\ntag_1:\n  pop\n  dataSize(sub_0)\n  dup1\n  dataOffset(sub_0)\n  0x00\n  codecopy\n  0x00\n  return\nstop\n\nsub_0: assembly {\n        /* \"Todo.sol\":66:524  contract Todo{\r... */\n      mstore(0x40, 0x80)\n      callvalue\n      dup1\n      iszero\n      tag_1\n      jumpi\n      0x00\n      dup1\n      revert\n    tag_1:\n      pop\n      jumpi(tag_2, lt(calldatasize, 0x04))\n      shr(0xe0, calldataload(0x00))\n      dup1\n      0x82e76b88\n      eq\n      tag_3\n      jumpi\n      dup1\n      0xbc8bc2b4\n      eq\n      tag_4\n      jumpi\n      dup1\n      0xc1da2020\n      eq\n      tag_5\n      jumpi\n    tag_2:\n      0x00\n      dup1\n      revert\n        /* \"Todo.sol\":433:521  function showTodo() public view returns(todoObj[] memory){\r... */\n    tag_3:\n      tag_6\n      tag_7\n      jump\t// in\n    tag_6:\n      mload(0x40)\n      tag_8\n      swap2\n      swap1\n      tag_9\n      jump\t// in\n    tag_8:\n      mload(0x40)\n      dup1\n      swap2\n      sub\n      swap1\n      return\n        /* \"Todo.sol\":161:183  todoObj[] public todos */\n    tag_4:\n      tag_10\n      0x04\n      dup1\n      calldatasize\n      sub\n      dup2\n      add\n      swap1\n      tag_11\n      swap2\n      swap1\n      tag_12\n      jump\t// in\n    tag_11:\n      tag_13\n      jump\t// in\n    tag_10:\n      mload(0x40)\n      tag_14\n      swap3\n      swap2\n      swap1\n      tag_15\n      jump\t// in\n    tag_14:\n      mload(0x40)\n      dup1\n      swap2\n      sub\n      swap1\n      return\n        /* \"Todo.sol\":237:338  function addTodo(uint _id,string memory todo) public {\r... */\n    tag_5:\n      tag_16\n      0x04\n      dup1\n      calldatasize\n      sub\n      dup2\n      add\n      swap1\n      tag_17\n      swap2\n      swap1\n      tag_18\n      jump\t// in\n    tag_17:\n      tag_19\n      jump\t// in\n    tag_16:\n      stop\n        /* \"Todo.sol\":433:521  function showTodo() public view returns(todoObj[] memory){\r... */\n    tag_7:\n        /* \"Todo.sol\":473:489  todoObj[] memory */\n      0x60\n        /* \"Todo.sol\":508:513  todos */\n      0x00\n        /* \"Todo.sol\":501:513  return todos */\n      dup1\n      sload\n      dup1\n      0x20\n      mul\n      0x20\n      add\n      mload(0x40)\n      swap1\n      dup2\n      add\n      0x40\n      mstore\n      dup1\n      swap3\n      swap2\n      swap1\n      dup2\n      dup2\n      mstore\n      0x20\n      add\n      0x00\n      swap1\n    tag_21:\n      dup3\n      dup3\n      lt\n      iszero\n      tag_22\n      jumpi\n      dup4\n      dup3\n      swap1\n      0x00\n      mstore\n      keccak256(0x00, 0x20)\n      swap1\n      0x02\n      mul\n      add\n      mload(0x40)\n      dup1\n      0x40\n      add\n      0x40\n      mstore\n      swap1\n      dup2\n      0x00\n      dup3\n      add\n      sload\n      dup2\n      mstore\n      0x20\n      add\n      0x01\n      dup3\n      add\n      dup1\n      sload\n      tag_24\n      swap1\n      tag_25\n      jump\t// in\n    tag_24:\n      dup1\n      0x1f\n      add\n      0x20\n      dup1\n      swap2\n      div\n      mul\n      0x20\n      add\n      mload(0x40)\n      swap1\n      dup2\n      add\n      0x40\n      mstore\n      dup1\n      swap3\n      swap2\n      swap1\n      dup2\n      dup2\n      mstore\n      0x20\n      add\n      dup3\n      dup1\n      sload\n      tag_26\n      swap1\n      tag_25\n      jump\t// in\n    tag_26:\n      dup1\n      iszero\n      tag_27\n      jumpi\n      dup1\n      0x1f\n      lt\n      tag_28\n      jumpi\n      0x0100\n      dup1\n      dup4\n      sload\n      div\n      mul\n      dup4\n      mstore\n      swap2\n      0x20\n      add\n      swap2\n      jump(tag_27)\n    tag_28:\n      dup3\n      add\n      swap2\n      swap1\n      0x00\n      mstore\n      keccak256(0x00, 0x20)\n      swap1\n    tag_29:\n      dup2\n      sload\n      dup2\n      mstore\n      swap1\n      0x01\n      add\n      swap1\n      0x20\n      add\n      dup1\n      dup4\n      gt\n      tag_29\n      jumpi\n      dup3\n      swap1\n      sub\n      0x1f\n      and\n      dup3\n      add\n      swap2\n    tag_27:\n      pop\n      pop\n      pop\n      pop\n      pop\n      dup2\n      mstore\n      pop\n      pop\n      dup2\n      mstore\n      0x20\n      add\n      swap1\n      0x01\n      add\n      swap1\n      jump(tag_21)\n    tag_22:\n      pop\n      pop\n      pop\n      pop\n      swap1\n      pop\n        /* \"Todo.sol\":433:521  function showTodo() public view returns(todoObj[] memory){\r... */\n      swap1\n      jump\t// out\n        /* \"Todo.sol\":161:183  todoObj[] public todos */\n    tag_13:\n      0x00\n      dup2\n      dup2\n      sload\n      dup2\n      lt\n      tag_30\n      jumpi\n      0x00\n      dup1\n      revert\n    tag_30:\n      swap1\n      0x00\n      mstore\n      keccak256(0x00, 0x20)\n      swap1\n      0x02\n      mul\n      add\n      0x00\n      swap2\n      pop\n      swap1\n      pop\n      dup1\n      0x00\n      add\n      sload\n      swap1\n      dup1\n      0x01\n      add\n      dup1\n      sload\n      tag_32\n      swap1\n      tag_25\n      jump\t// in\n    tag_32:\n      dup1\n      0x1f\n      add\n      0x20\n      dup1\n      swap2\n      div\n      mul\n      0x20\n      add\n      mload(0x40)\n      swap1\n      dup2\n      add\n      0x40\n      mstore\n      dup1\n      swap3\n      swap2\n      swap1\n      dup2\n      dup2\n      mstore\n      0x20\n      add\n      dup3\n      dup1\n      sload\n      tag_33\n      swap1\n      tag_25\n      jump\t// in\n    tag_33:\n      dup1\n      iszero\n      tag_34\n      jumpi\n      dup1\n      0x1f\n      lt\n      tag_35\n      jumpi\n      0x0100\n      dup1\n      dup4\n      sload\n      div\n      mul\n      dup4\n      mstore\n      swap2\n      0x20\n      add\n      swap2\n      jump(tag_34)\n    tag_35:\n      dup3\n      add\n      swap2\n      swap1\n      0x00\n      mstore\n      keccak256(0x00, 0x20)\n      swap1\n    tag_36:\n      dup2\n      sload\n      dup2\n      mstore\n      swap1\n      0x01\n      add\n      swap1\n      0x20\n      add\n      dup1\n      dup4\n      gt\n      tag_36\n      jumpi\n      dup3\n      swap1\n      sub\n      0x1f\n      and\n      dup3\n      add\n      swap2\n    tag_34:\n      pop\n      pop\n      pop\n      pop\n      pop\n      swap1\n      pop\n      dup3\n      jump\t// out\n        /* \"Todo.sol\":237:338  function addTodo(uint _id,string memory todo) public {\r... */\n    tag_19:\n        /* \"Todo.sol\":301:306  todos */\n      0x00\n        /* \"Todo.sol\":312:329  todoObj(_id,todo) */\n      mload(0x40)\n      dup1\n      0x40\n      add\n      0x40\n      mstore\n      dup1\n        /* \"Todo.sol\":320:323  _id */\n      dup5\n        /* \"Todo.sol\":312:329  todoObj(_id,todo) */\n      dup2\n      mstore\n      0x20\n      add\n        /* \"Todo.sol\":324:328  todo */\n      dup4\n        /* \"Todo.sol\":312:329  todoObj(_id,todo) */\n      dup2\n      mstore\n      pop\n        /* \"Todo.sol\":301:330  todos.push(todoObj(_id,todo)) */\n      swap1\n      dup1\n      0x01\n      dup2\n      sload\n      add\n      dup1\n      dup3\n      sstore\n      dup1\n      swap2\n      pop\n      pop\n      0x01\n      swap1\n      sub\n      swap1\n      0x00\n      mstore\n      keccak256(0x00, 0x20)\n      swap1\n      0x02\n      mul\n      add\n      0x00\n      swap1\n      swap2\n      swap1\n      swap2\n      swap1\n      swap2\n      pop\n      0x00\n      dup3\n      add\n      mload\n      dup2\n      0x00\n      add\n      sstore\n      0x20\n      dup3\n      add\n      mload\n      dup2\n      0x01\n      add\n      swap1\n      dup1\n      mload\n      swap1\n      0x20\n      add\n      swap1\n      tag_39\n      swap3\n      swap2\n      swap1\n      tag_40\n      jump\t// in\n    tag_39:\n      pop\n      pop\n      pop\n        /* \"Todo.sol\":237:338  function addTodo(uint _id,string memory todo) public {\r... */\n      pop\n      pop\n      jump\t// out\n    tag_40:\n      dup3\n      dup1\n      sload\n      tag_41\n      swap1\n      tag_25\n      jump\t// in\n    tag_41:\n      swap1\n      0x00\n      mstore\n      keccak256(0x00, 0x20)\n      swap1\n      0x1f\n      add\n      0x20\n      swap1\n      div\n      dup2\n      add\n      swap3\n      dup3\n      tag_43\n      jumpi\n      0x00\n      dup6\n      sstore\n      jump(tag_42)\n    tag_43:\n      dup3\n      0x1f\n      lt\n      tag_44\n      jumpi\n      dup1\n      mload\n      not(0xff)\n      and\n      dup4\n      dup1\n      add\n      or\n      dup6\n      sstore\n      jump(tag_42)\n    tag_44:\n      dup3\n      dup1\n      add\n      0x01\n      add\n      dup6\n      sstore\n      dup3\n      iszero\n      tag_42\n      jumpi\n      swap2\n      dup3\n      add\n    tag_45:\n      dup3\n      dup2\n      gt\n      iszero\n      tag_46\n      jumpi\n      dup3\n      mload\n      dup3\n      sstore\n      swap2\n      0x20\n      add\n      swap2\n      swap1\n      0x01\n      add\n      swap1\n      jump(tag_45)\n    tag_46:\n    tag_42:\n      pop\n      swap1\n      pop\n      tag_47\n      swap2\n      swap1\n      tag_48\n      jump\t// in\n    tag_47:\n      pop\n      swap1\n      jump\t// out\n    tag_48:\n    tag_49:\n      dup1\n      dup3\n      gt\n      iszero\n      tag_50\n      jumpi\n      0x00\n      dup2\n      0x00\n      swap1\n      sstore\n      pop\n      0x01\n      add\n      jump(tag_49)\n    tag_50:\n      pop\n      swap1\n      jump\t// out\n        /* \"#utility.yul\":7:419   */\n    tag_52:\n        /* \"#utility.yul\":85:90   */\n      0x00\n        /* \"#utility.yul\":110:176   */\n      tag_54\n        /* \"#utility.yul\":126:175   */\n      tag_55\n        /* \"#utility.yul\":168:174   */\n      dup5\n        /* \"#utility.yul\":126:175   */\n      tag_56\n      jump\t// in\n    tag_55:\n        /* \"#utility.yul\":110:176   */\n      tag_57\n      jump\t// in\n    tag_54:\n        /* \"#utility.yul\":101:176   */\n      swap1\n      pop\n        /* \"#utility.yul\":199:205   */\n      dup3\n        /* \"#utility.yul\":192:197   */\n      dup2\n        /* \"#utility.yul\":185:206   */\n      mstore\n        /* \"#utility.yul\":237:241   */\n      0x20\n        /* \"#utility.yul\":230:235   */\n      dup2\n        /* \"#utility.yul\":226:242   */\n      add\n        /* \"#utility.yul\":275:278   */\n      dup5\n        /* \"#utility.yul\":266:272   */\n      dup5\n        /* \"#utility.yul\":261:264   */\n      dup5\n        /* \"#utility.yul\":257:273   */\n      add\n        /* \"#utility.yul\":254:279   */\n      gt\n        /* \"#utility.yul\":251:363   */\n      iszero\n      tag_58\n      jumpi\n        /* \"#utility.yul\":282:361   */\n      tag_59\n      tag_60\n      jump\t// in\n    tag_59:\n        /* \"#utility.yul\":251:363   */\n    tag_58:\n        /* \"#utility.yul\":372:413   */\n      tag_61\n        /* \"#utility.yul\":406:412   */\n      dup5\n        /* \"#utility.yul\":401:404   */\n      dup3\n        /* \"#utility.yul\":396:399   */\n      dup6\n        /* \"#utility.yul\":372:413   */\n      tag_62\n      jump\t// in\n    tag_61:\n        /* \"#utility.yul\":91:419   */\n      pop\n        /* \"#utility.yul\":7:419   */\n      swap4\n      swap3\n      pop\n      pop\n      pop\n      jump\t// out\n        /* \"#utility.yul\":439:779   */\n    tag_63:\n        /* \"#utility.yul\":495:500   */\n      0x00\n        /* \"#utility.yul\":544:547   */\n      dup3\n        /* \"#utility.yul\":537:541   */\n      0x1f\n        /* \"#utility.yul\":529:535   */\n      dup4\n        /* \"#utility.yul\":525:542   */\n      add\n        /* \"#utility.yul\":521:548   */\n      slt\n        /* \"#utility.yul\":511:633   */\n      tag_65\n      jumpi\n        /* \"#utility.yul\":552:631   */\n      tag_66\n      tag_67\n      jump\t// in\n    tag_66:\n        /* \"#utility.yul\":511:633   */\n    tag_65:\n        /* \"#utility.yul\":669:675   */\n      dup2\n        /* \"#utility.yul\":656:676   */\n      calldataload\n        /* \"#utility.yul\":694:773   */\n      tag_68\n        /* \"#utility.yul\":769:772   */\n      dup5\n        /* \"#utility.yul\":761:767   */\n      dup3\n        /* \"#utility.yul\":754:758   */\n      0x20\n        /* \"#utility.yul\":746:752   */\n      dup7\n        /* \"#utility.yul\":742:759   */\n      add\n        /* \"#utility.yul\":694:773   */\n      tag_52\n      jump\t// in\n    tag_68:\n        /* \"#utility.yul\":685:773   */\n      swap2\n      pop\n        /* \"#utility.yul\":501:779   */\n      pop\n        /* \"#utility.yul\":439:779   */\n      swap3\n      swap2\n      pop\n      pop\n      jump\t// out\n        /* \"#utility.yul\":785:924   */\n    tag_69:\n        /* \"#utility.yul\":831:836   */\n      0x00\n        /* \"#utility.yul\":869:875   */\n      dup2\n        /* \"#utility.yul\":856:876   */\n      calldataload\n        /* \"#utility.yul\":847:876   */\n      swap1\n      pop\n        /* \"#utility.yul\":885:918   */\n      tag_71\n        /* \"#utility.yul\":912:917   */\n      dup2\n        /* \"#utility.yul\":885:918   */\n      tag_72\n      jump\t// in\n    tag_71:\n        /* \"#utility.yul\":785:924   */\n      swap3\n      swap2\n      pop\n      pop\n      jump\t// out\n        /* \"#utility.yul\":930:1259   */\n    tag_12:\n        /* \"#utility.yul\":989:995   */\n      0x00\n        /* \"#utility.yul\":1038:1040   */\n      0x20\n        /* \"#utility.yul\":1026:1035   */\n      dup3\n        /* \"#utility.yul\":1017:1024   */\n      dup5\n        /* \"#utility.yul\":1013:1036   */\n      sub\n        /* \"#utility.yul\":1009:1041   */\n      slt\n        /* \"#utility.yul\":1006:1125   */\n      iszero\n      tag_74\n      jumpi\n        /* \"#utility.yul\":1044:1123   */\n      tag_75\n      tag_76\n      jump\t// in\n    tag_75:\n        /* \"#utility.yul\":1006:1125   */\n    tag_74:\n        /* \"#utility.yul\":1164:1165   */\n      0x00\n        /* \"#utility.yul\":1189:1242   */\n      tag_77\n        /* \"#utility.yul\":1234:1241   */\n      dup5\n        /* \"#utility.yul\":1225:1231   */\n      dup3\n        /* \"#utility.yul\":1214:1223   */\n      dup6\n        /* \"#utility.yul\":1210:1232   */\n      add\n        /* \"#utility.yul\":1189:1242   */\n      tag_69\n      jump\t// in\n    tag_77:\n        /* \"#utility.yul\":1179:1242   */\n      swap2\n      pop\n        /* \"#utility.yul\":1135:1252   */\n      pop\n        /* \"#utility.yul\":930:1259   */\n      swap3\n      swap2\n      pop\n      pop\n      jump\t// out\n        /* \"#utility.yul\":1265:1919   */\n    tag_18:\n        /* \"#utility.yul\":1343:1349   */\n      0x00\n        /* \"#utility.yul\":1351:1357   */\n      dup1\n        /* \"#utility.yul\":1400:1402   */\n      0x40\n        /* \"#utility.yul\":1388:1397   */\n      dup4\n        /* \"#utility.yul\":1379:1386   */\n      dup6\n        /* \"#utility.yul\":1375:1398   */\n      sub\n        /* \"#utility.yul\":1371:1403   */\n      slt\n        /* \"#utility.yul\":1368:1487   */\n      iszero\n      tag_79\n      jumpi\n        /* \"#utility.yul\":1406:1485   */\n      tag_80\n      tag_76\n      jump\t// in\n    tag_80:\n        /* \"#utility.yul\":1368:1487   */\n    tag_79:\n        /* \"#utility.yul\":1526:1527   */\n      0x00\n        /* \"#utility.yul\":1551:1604   */\n      tag_81\n        /* \"#utility.yul\":1596:1603   */\n      dup6\n        /* \"#utility.yul\":1587:1593   */\n      dup3\n        /* \"#utility.yul\":1576:1585   */\n      dup7\n        /* \"#utility.yul\":1572:1594   */\n      add\n        /* \"#utility.yul\":1551:1604   */\n      tag_69\n      jump\t// in\n    tag_81:\n        /* \"#utility.yul\":1541:1604   */\n      swap3\n      pop\n        /* \"#utility.yul\":1497:1614   */\n      pop\n        /* \"#utility.yul\":1681:1683   */\n      0x20\n        /* \"#utility.yul\":1670:1679   */\n      dup4\n        /* \"#utility.yul\":1666:1684   */\n      add\n        /* \"#utility.yul\":1653:1685   */\n      calldataload\n        /* \"#utility.yul\":1712:1730   */\n      0xffffffffffffffff\n        /* \"#utility.yul\":1704:1710   */\n      dup2\n        /* \"#utility.yul\":1701:1731   */\n      gt\n        /* \"#utility.yul\":1698:1815   */\n      iszero\n      tag_82\n      jumpi\n        /* \"#utility.yul\":1734:1813   */\n      tag_83\n      tag_84\n      jump\t// in\n    tag_83:\n        /* \"#utility.yul\":1698:1815   */\n    tag_82:\n        /* \"#utility.yul\":1839:1902   */\n      tag_85\n        /* \"#utility.yul\":1894:1901   */\n      dup6\n        /* \"#utility.yul\":1885:1891   */\n      dup3\n        /* \"#utility.yul\":1874:1883   */\n      dup7\n        /* \"#utility.yul\":1870:1892   */\n      add\n        /* \"#utility.yul\":1839:1902   */\n      tag_63\n      jump\t// in\n    tag_85:\n        /* \"#utility.yul\":1829:1902   */\n      swap2\n      pop\n        /* \"#utility.yul\":1624:1912   */\n      pop\n        /* \"#utility.yul\":1265:1919   */\n      swap3\n      pop\n      swap3\n      swap1\n      pop\n      jump\t// out\n        /* \"#utility.yul\":1925:2169   */\n    tag_86:\n        /* \"#utility.yul\":2038:2048   */\n      0x00\n        /* \"#utility.yul\":2073:2163   */\n      tag_88\n        /* \"#utility.yul\":2159:2162   */\n      dup4\n        /* \"#utility.yul\":2151:2157   */\n      dup4\n        /* \"#utility.yul\":2073:2163   */\n      tag_89\n      jump\t// in\n    tag_88:\n        /* \"#utility.yul\":2059:2163   */\n      swap1\n      pop\n        /* \"#utility.yul\":1925:2169   */\n      swap3\n      swap2\n      pop\n      pop\n      jump\t// out\n        /* \"#utility.yul\":2229:3316   */\n    tag_90:\n        /* \"#utility.yul\":2392:2395   */\n      0x00\n        /* \"#utility.yul\":2421:2497   */\n      tag_92\n        /* \"#utility.yul\":2491:2496   */\n      dup3\n        /* \"#utility.yul\":2421:2497   */\n      tag_93\n      jump\t// in\n    tag_92:\n        /* \"#utility.yul\":2513:2621   */\n      tag_94\n        /* \"#utility.yul\":2614:2620   */\n      dup2\n        /* \"#utility.yul\":2609:2612   */\n      dup6\n        /* \"#utility.yul\":2513:2621   */\n      tag_95\n      jump\t// in\n    tag_94:\n        /* \"#utility.yul\":2506:2621   */\n      swap4\n      pop\n        /* \"#utility.yul\":2647:2650   */\n      dup4\n        /* \"#utility.yul\":2692:2696   */\n      0x20\n        /* \"#utility.yul\":2684:2690   */\n      dup3\n        /* \"#utility.yul\":2680:2697   */\n      mul\n        /* \"#utility.yul\":2675:2678   */\n      dup6\n        /* \"#utility.yul\":2671:2698   */\n      add\n        /* \"#utility.yul\":2722:2800   */\n      tag_96\n        /* \"#utility.yul\":2794:2799   */\n      dup6\n        /* \"#utility.yul\":2722:2800   */\n      tag_97\n      jump\t// in\n    tag_96:\n        /* \"#utility.yul\":2823:2830   */\n      dup1\n        /* \"#utility.yul\":2854:2855   */\n      0x00\n        /* \"#utility.yul\":2839:3271   */\n    tag_98:\n        /* \"#utility.yul\":2864:2870   */\n      dup6\n        /* \"#utility.yul\":2861:2862   */\n      dup2\n        /* \"#utility.yul\":2858:2871   */\n      lt\n        /* \"#utility.yul\":2839:3271   */\n      iszero\n      tag_100\n      jumpi\n        /* \"#utility.yul\":2935:2944   */\n      dup5\n        /* \"#utility.yul\":2929:2933   */\n      dup5\n        /* \"#utility.yul\":2925:2945   */\n      sub\n        /* \"#utility.yul\":2920:2923   */\n      dup10\n        /* \"#utility.yul\":2913:2946   */\n      mstore\n        /* \"#utility.yul\":2986:2992   */\n      dup2\n        /* \"#utility.yul\":2980:2993   */\n      mload\n        /* \"#utility.yul\":3014:3122   */\n      tag_101\n        /* \"#utility.yul\":3117:3121   */\n      dup6\n        /* \"#utility.yul\":3102:3115   */\n      dup3\n        /* \"#utility.yul\":3014:3122   */\n      tag_86\n      jump\t// in\n    tag_101:\n        /* \"#utility.yul\":3006:3122   */\n      swap5\n      pop\n        /* \"#utility.yul\":3145:3227   */\n      tag_102\n        /* \"#utility.yul\":3220:3226   */\n      dup4\n        /* \"#utility.yul\":3145:3227   */\n      tag_103\n      jump\t// in\n    tag_102:\n        /* \"#utility.yul\":3135:3227   */\n      swap3\n      pop\n        /* \"#utility.yul\":3256:3260   */\n      0x20\n        /* \"#utility.yul\":3251:3254   */\n      dup11\n        /* \"#utility.yul\":3247:3261   */\n      add\n        /* \"#utility.yul\":3240:3261   */\n      swap10\n      pop\n        /* \"#utility.yul\":2899:3271   */\n      pop\n        /* \"#utility.yul\":2886:2887   */\n      0x01\n        /* \"#utility.yul\":2883:2884   */\n      dup2\n        /* \"#utility.yul\":2879:2888   */\n      add\n        /* \"#utility.yul\":2874:2888   */\n      swap1\n      pop\n        /* \"#utility.yul\":2839:3271   */\n      jump(tag_98)\n    tag_100:\n        /* \"#utility.yul\":2843:2857   */\n      pop\n        /* \"#utility.yul\":3287:3291   */\n      dup3\n        /* \"#utility.yul\":3280:3291   */\n      swap8\n      pop\n        /* \"#utility.yul\":3307:3310   */\n      dup8\n        /* \"#utility.yul\":3300:3310   */\n      swap6\n      pop\n        /* \"#utility.yul\":2397:3316   */\n      pop\n      pop\n      pop\n      pop\n      pop\n        /* \"#utility.yul\":2229:3316   */\n      swap3\n      swap2\n      pop\n      pop\n      jump\t// out\n        /* \"#utility.yul\":3322:3666   */\n    tag_104:\n        /* \"#utility.yul\":3400:3403   */\n      0x00\n        /* \"#utility.yul\":3428:3467   */\n      tag_106\n        /* \"#utility.yul\":3461:3466   */\n      dup3\n        /* \"#utility.yul\":3428:3467   */\n      tag_107\n      jump\t// in\n    tag_106:\n        /* \"#utility.yul\":3483:3544   */\n      tag_108\n        /* \"#utility.yul\":3537:3543   */\n      dup2\n        /* \"#utility.yul\":3532:3535   */\n      dup6\n        /* \"#utility.yul\":3483:3544   */\n      tag_109\n      jump\t// in\n    tag_108:\n        /* \"#utility.yul\":3476:3544   */\n      swap4\n      pop\n        /* \"#utility.yul\":3553:3605   */\n      tag_110\n        /* \"#utility.yul\":3598:3604   */\n      dup2\n        /* \"#utility.yul\":3593:3596   */\n      dup6\n        /* \"#utility.yul\":3586:3590   */\n      0x20\n        /* \"#utility.yul\":3579:3584   */\n      dup7\n        /* \"#utility.yul\":3575:3591   */\n      add\n        /* \"#utility.yul\":3553:3605   */\n      tag_111\n      jump\t// in\n    tag_110:\n        /* \"#utility.yul\":3630:3659   */\n      tag_112\n        /* \"#utility.yul\":3652:3658   */\n      dup2\n        /* \"#utility.yul\":3630:3659   */\n      tag_113\n      jump\t// in\n    tag_112:\n        /* \"#utility.yul\":3625:3628   */\n      dup5\n        /* \"#utility.yul\":3621:3660   */\n      add\n        /* \"#utility.yul\":3614:3660   */\n      swap2\n      pop\n        /* \"#utility.yul\":3404:3666   */\n      pop\n        /* \"#utility.yul\":3322:3666   */\n      swap3\n      swap2\n      pop\n      pop\n      jump\t// out\n        /* \"#utility.yul\":3672:4036   */\n    tag_114:\n        /* \"#utility.yul\":3760:3763   */\n      0x00\n        /* \"#utility.yul\":3788:3827   */\n      tag_116\n        /* \"#utility.yul\":3821:3826   */\n      dup3\n        /* \"#utility.yul\":3788:3827   */\n      tag_107\n      jump\t// in\n    tag_116:\n        /* \"#utility.yul\":3843:3914   */\n      tag_117\n        /* \"#utility.yul\":3907:3913   */\n      dup2\n        /* \"#utility.yul\":3902:3905   */\n      dup6\n        /* \"#utility.yul\":3843:3914   */\n      tag_118\n      jump\t// in\n    tag_117:\n        /* \"#utility.yul\":3836:3914   */\n      swap4\n      pop\n        /* \"#utility.yul\":3923:3975   */\n      tag_119\n        /* \"#utility.yul\":3968:3974   */\n      dup2\n        /* \"#utility.yul\":3963:3966   */\n      dup6\n        /* \"#utility.yul\":3956:3960   */\n      0x20\n        /* \"#utility.yul\":3949:3954   */\n      dup7\n        /* \"#utility.yul\":3945:3961   */\n      add\n        /* \"#utility.yul\":3923:3975   */\n      tag_111\n      jump\t// in\n    tag_119:\n        /* \"#utility.yul\":4000:4029   */\n      tag_120\n        /* \"#utility.yul\":4022:4028   */\n      dup2\n        /* \"#utility.yul\":4000:4029   */\n      tag_113\n      jump\t// in\n    tag_120:\n        /* \"#utility.yul\":3995:3998   */\n      dup5\n        /* \"#utility.yul\":3991:4030   */\n      add\n        /* \"#utility.yul\":3984:4030   */\n      swap2\n      pop\n        /* \"#utility.yul\":3764:4036   */\n      pop\n        /* \"#utility.yul\":3672:4036   */\n      swap3\n      swap2\n      pop\n      pop\n      jump\t// out\n        /* \"#utility.yul\":4092:4684   */\n    tag_89:\n        /* \"#utility.yul\":4195:4198   */\n      0x00\n        /* \"#utility.yul\":4231:4235   */\n      0x40\n        /* \"#utility.yul\":4226:4229   */\n      dup4\n        /* \"#utility.yul\":4222:4236   */\n      add\n        /* \"#utility.yul\":4316:4320   */\n      0x00\n        /* \"#utility.yul\":4309:4314   */\n      dup4\n        /* \"#utility.yul\":4305:4321   */\n      add\n        /* \"#utility.yul\":4299:4322   */\n      mload\n        /* \"#utility.yul\":4335:4398   */\n      tag_122\n        /* \"#utility.yul\":4392:4396   */\n      0x00\n        /* \"#utility.yul\":4387:4390   */\n      dup7\n        /* \"#utility.yul\":4383:4397   */\n      add\n        /* \"#utility.yul\":4369:4381   */\n      dup3\n        /* \"#utility.yul\":4335:4398   */\n      tag_123\n      jump\t// in\n    tag_122:\n        /* \"#utility.yul\":4246:4408   */\n      pop\n        /* \"#utility.yul\":4494:4498   */\n      0x20\n        /* \"#utility.yul\":4487:4492   */\n      dup4\n        /* \"#utility.yul\":4483:4499   */\n      add\n        /* \"#utility.yul\":4477:4500   */\n      mload\n        /* \"#utility.yul\":4547:4550   */\n      dup5\n        /* \"#utility.yul\":4541:4545   */\n      dup3\n        /* \"#utility.yul\":4537:4551   */\n      sub\n        /* \"#utility.yul\":4530:4534   */\n      0x20\n        /* \"#utility.yul\":4525:4528   */\n      dup7\n        /* \"#utility.yul\":4521:4535   */\n      add\n        /* \"#utility.yul\":4514:4552   */\n      mstore\n        /* \"#utility.yul\":4573:4646   */\n      tag_124\n        /* \"#utility.yul\":4641:4645   */\n      dup3\n        /* \"#utility.yul\":4627:4639   */\n      dup3\n        /* \"#utility.yul\":4573:4646   */\n      tag_104\n      jump\t// in\n    tag_124:\n        /* \"#utility.yul\":4565:4646   */\n      swap2\n      pop\n        /* \"#utility.yul\":4418:4657   */\n      pop\n        /* \"#utility.yul\":4674:4678   */\n      dup1\n        /* \"#utility.yul\":4667:4678   */\n      swap2\n      pop\n        /* \"#utility.yul\":4200:4684   */\n      pop\n        /* \"#utility.yul\":4092:4684   */\n      swap3\n      swap2\n      pop\n      pop\n      jump\t// out\n        /* \"#utility.yul\":4690:4798   */\n    tag_123:\n        /* \"#utility.yul\":4767:4791   */\n      tag_126\n        /* \"#utility.yul\":4785:4790   */\n      dup2\n        /* \"#utility.yul\":4767:4791   */\n      tag_127\n      jump\t// in\n    tag_126:\n        /* \"#utility.yul\":4762:4765   */\n      dup3\n        /* \"#utility.yul\":4755:4792   */\n      mstore\n        /* \"#utility.yul\":4690:4798   */\n      pop\n      pop\n      jump\t// out\n        /* \"#utility.yul\":4804:4922   */\n    tag_128:\n        /* \"#utility.yul\":4891:4915   */\n      tag_130\n        /* \"#utility.yul\":4909:4914   */\n      dup2\n        /* \"#utility.yul\":4891:4915   */\n      tag_127\n      jump\t// in\n    tag_130:\n        /* \"#utility.yul\":4886:4889   */\n      dup3\n        /* \"#utility.yul\":4879:4916   */\n      mstore\n        /* \"#utility.yul\":4804:4922   */\n      pop\n      pop\n      jump\t// out\n        /* \"#utility.yul\":4928:5389   */\n    tag_9:\n        /* \"#utility.yul\":5115:5119   */\n      0x00\n        /* \"#utility.yul\":5153:5155   */\n      0x20\n        /* \"#utility.yul\":5142:5151   */\n      dup3\n        /* \"#utility.yul\":5138:5156   */\n      add\n        /* \"#utility.yul\":5130:5156   */\n      swap1\n      pop\n        /* \"#utility.yul\":5202:5211   */\n      dup2\n        /* \"#utility.yul\":5196:5200   */\n      dup2\n        /* \"#utility.yul\":5192:5212   */\n      sub\n        /* \"#utility.yul\":5188:5189   */\n      0x00\n        /* \"#utility.yul\":5177:5186   */\n      dup4\n        /* \"#utility.yul\":5173:5190   */\n      add\n        /* \"#utility.yul\":5166:5213   */\n      mstore\n        /* \"#utility.yul\":5230:5382   */\n      tag_132\n        /* \"#utility.yul\":5377:5381   */\n      dup2\n        /* \"#utility.yul\":5368:5374   */\n      dup5\n        /* \"#utility.yul\":5230:5382   */\n      tag_90\n      jump\t// in\n    tag_132:\n        /* \"#utility.yul\":5222:5382   */\n      swap1\n      pop\n        /* \"#utility.yul\":4928:5389   */\n      swap3\n      swap2\n      pop\n      pop\n      jump\t// out\n        /* \"#utility.yul\":5395:5818   */\n    tag_15:\n        /* \"#utility.yul\":5536:5540   */\n      0x00\n        /* \"#utility.yul\":5574:5576   */\n      0x40\n        /* \"#utility.yul\":5563:5572   */\n      dup3\n        /* \"#utility.yul\":5559:5577   */\n      add\n        /* \"#utility.yul\":5551:5577   */\n      swap1\n      pop\n        /* \"#utility.yul\":5587:5658   */\n      tag_134\n        /* \"#utility.yul\":5655:5656   */\n      0x00\n        /* \"#utility.yul\":5644:5653   */\n      dup4\n        /* \"#utility.yul\":5640:5657   */\n      add\n        /* \"#utility.yul\":5631:5637   */\n      dup6\n        /* \"#utility.yul\":5587:5658   */\n      tag_128\n      jump\t// in\n    tag_134:\n        /* \"#utility.yul\":5705:5714   */\n      dup2\n        /* \"#utility.yul\":5699:5703   */\n      dup2\n        /* \"#utility.yul\":5695:5715   */\n      sub\n        /* \"#utility.yul\":5690:5692   */\n      0x20\n        /* \"#utility.yul\":5679:5688   */\n      dup4\n        /* \"#utility.yul\":5675:5693   */\n      add\n        /* \"#utility.yul\":5668:5716   */\n      mstore\n        /* \"#utility.yul\":5733:5811   */\n      tag_135\n        /* \"#utility.yul\":5806:5810   */\n      dup2\n        /* \"#utility.yul\":5797:5803   */\n      dup5\n        /* \"#utility.yul\":5733:5811   */\n      tag_114\n      jump\t// in\n    tag_135:\n        /* \"#utility.yul\":5725:5811   */\n      swap1\n      pop\n        /* \"#utility.yul\":5395:5818   */\n      swap4\n      swap3\n      pop\n      pop\n      pop\n      jump\t// out\n        /* \"#utility.yul\":5824:5953   */\n    tag_57:\n        /* \"#utility.yul\":5858:5864   */\n      0x00\n        /* \"#utility.yul\":5885:5905   */\n      tag_137\n      tag_138\n      jump\t// in\n    tag_137:\n        /* \"#utility.yul\":5875:5905   */\n      swap1\n      pop\n        /* \"#utility.yul\":5914:5947   */\n      tag_139\n        /* \"#utility.yul\":5942:5946   */\n      dup3\n        /* \"#utility.yul\":5934:5940   */\n      dup3\n        /* \"#utility.yul\":5914:5947   */\n      tag_140\n      jump\t// in\n    tag_139:\n        /* \"#utility.yul\":5824:5953   */\n      swap2\n      swap1\n      pop\n      jump\t// out\n        /* \"#utility.yul\":5959:6034   */\n    tag_138:\n        /* \"#utility.yul\":5992:5998   */\n      0x00\n        /* \"#utility.yul\":6025:6027   */\n      0x40\n        /* \"#utility.yul\":6019:6028   */\n      mload\n        /* \"#utility.yul\":6009:6028   */\n      swap1\n      pop\n        /* \"#utility.yul\":5959:6034   */\n      swap1\n      jump\t// out\n        /* \"#utility.yul\":6040:6348   */\n    tag_56:\n        /* \"#utility.yul\":6102:6106   */\n      0x00\n        /* \"#utility.yul\":6192:6210   */\n      0xffffffffffffffff\n        /* \"#utility.yul\":6184:6190   */\n      dup3\n        /* \"#utility.yul\":6181:6211   */\n      gt\n        /* \"#utility.yul\":6178:6234   */\n      iszero\n      tag_143\n      jumpi\n        /* \"#utility.yul\":6214:6232   */\n      tag_144\n      tag_145\n      jump\t// in\n    tag_144:\n        /* \"#utility.yul\":6178:6234   */\n    tag_143:\n        /* \"#utility.yul\":6252:6281   */\n      tag_146\n        /* \"#utility.yul\":6274:6280   */\n      dup3\n        /* \"#utility.yul\":6252:6281   */\n      tag_113\n      jump\t// in\n    tag_146:\n        /* \"#utility.yul\":6244:6281   */\n      swap1\n      pop\n        /* \"#utility.yul\":6336:6340   */\n      0x20\n        /* \"#utility.yul\":6330:6334   */\n      dup2\n        /* \"#utility.yul\":6326:6341   */\n      add\n        /* \"#utility.yul\":6318:6341   */\n      swap1\n      pop\n        /* \"#utility.yul\":6040:6348   */\n      swap2\n      swap1\n      pop\n      jump\t// out\n        /* \"#utility.yul\":6354:6508   */\n    tag_97:\n        /* \"#utility.yul\":6443:6447   */\n      0x00\n        /* \"#utility.yul\":6466:6469   */\n      dup2\n        /* \"#utility.yul\":6458:6469   */\n      swap1\n      pop\n        /* \"#utility.yul\":6496:6500   */\n      0x20\n        /* \"#utility.yul\":6491:6494   */\n      dup3\n        /* \"#utility.yul\":6487:6501   */\n      add\n        /* \"#utility.yul\":6479:6501   */\n      swap1\n      pop\n        /* \"#utility.yul\":6354:6508   */\n      swap2\n      swap1\n      pop\n      jump\t// out\n        /* \"#utility.yul\":6514:6650   */\n    tag_93:\n        /* \"#utility.yul\":6603:6609   */\n      0x00\n        /* \"#utility.yul\":6637:6642   */\n      dup2\n        /* \"#utility.yul\":6631:6643   */\n      mload\n        /* \"#utility.yul\":6621:6643   */\n      swap1\n      pop\n        /* \"#utility.yul\":6514:6650   */\n      swap2\n      swap1\n      pop\n      jump\t// out\n        /* \"#utility.yul\":6656:6755   */\n    tag_107:\n        /* \"#utility.yul\":6708:6714   */\n      0x00\n        /* \"#utility.yul\":6742:6747   */\n      dup2\n        /* \"#utility.yul\":6736:6748   */\n      mload\n        /* \"#utility.yul\":6726:6748   */\n      swap1\n      pop\n        /* \"#utility.yul\":6656:6755   */\n      swap2\n      swap1\n      pop\n      jump\t// out\n        /* \"#utility.yul\":6761:6896   */\n    tag_103:\n        /* \"#utility.yul\":6853:6857   */\n      0x00\n        /* \"#utility.yul\":6885:6889   */\n      0x20\n        /* \"#utility.yul\":6880:6883   */\n      dup3\n        /* \"#utility.yul\":6876:6890   */\n      add\n        /* \"#utility.yul\":6868:6890   */\n      swap1\n      pop\n        /* \"#utility.yul\":6761:6896   */\n      swap2\n      swap1\n      pop\n      jump\t// out\n        /* \"#utility.yul\":6902:7108   */\n    tag_95:\n        /* \"#utility.yul\":7023:7034   */\n      0x00\n        /* \"#utility.yul\":7057:7063   */\n      dup3\n        /* \"#utility.yul\":7052:7055   */\n      dup3\n        /* \"#utility.yul\":7045:7064   */\n      mstore\n        /* \"#utility.yul\":7097:7101   */\n      0x20\n        /* \"#utility.yul\":7092:7095   */\n      dup3\n        /* \"#utility.yul\":7088:7102   */\n      add\n        /* \"#utility.yul\":7073:7102   */\n      swap1\n      pop\n        /* \"#utility.yul\":6902:7108   */\n      swap3\n      swap2\n      pop\n      pop\n      jump\t// out\n        /* \"#utility.yul\":7114:7273   */\n    tag_109:\n        /* \"#utility.yul\":7188:7199   */\n      0x00\n        /* \"#utility.yul\":7222:7228   */\n      dup3\n        /* \"#utility.yul\":7217:7220   */\n      dup3\n        /* \"#utility.yul\":7210:7229   */\n      mstore\n        /* \"#utility.yul\":7262:7266   */\n      0x20\n        /* \"#utility.yul\":7257:7260   */\n      dup3\n        /* \"#utility.yul\":7253:7267   */\n      add\n        /* \"#utility.yul\":7238:7267   */\n      swap1\n      pop\n        /* \"#utility.yul\":7114:7273   */\n      swap3\n      swap2\n      pop\n      pop\n      jump\t// out\n        /* \"#utility.yul\":7279:7448   */\n    tag_118:\n        /* \"#utility.yul\":7363:7374   */\n      0x00\n        /* \"#utility.yul\":7397:7403   */\n      dup3\n        /* \"#utility.yul\":7392:7395   */\n      dup3\n        /* \"#utility.yul\":7385:7404   */\n      mstore\n        /* \"#utility.yul\":7437:7441   */\n      0x20\n        /* \"#utility.yul\":7432:7435   */\n      dup3\n        /* \"#utility.yul\":7428:7442   */\n      add\n        /* \"#utility.yul\":7413:7442   */\n      swap1\n      pop\n        /* \"#utility.yul\":7279:7448   */\n      swap3\n      swap2\n      pop\n      pop\n      jump\t// out\n        /* \"#utility.yul\":7454:7531   */\n    tag_127:\n        /* \"#utility.yul\":7491:7498   */\n      0x00\n        /* \"#utility.yul\":7520:7525   */\n      dup2\n        /* \"#utility.yul\":7509:7525   */\n      swap1\n      pop\n        /* \"#utility.yul\":7454:7531   */\n      swap2\n      swap1\n      pop\n      jump\t// out\n        /* \"#utility.yul\":7537:7691   */\n    tag_62:\n        /* \"#utility.yul\":7621:7627   */\n      dup3\n        /* \"#utility.yul\":7616:7619   */\n      dup2\n        /* \"#utility.yul\":7611:7614   */\n      dup4\n        /* \"#utility.yul\":7598:7628   */\n      calldatacopy\n        /* \"#utility.yul\":7683:7684   */\n      0x00\n        /* \"#utility.yul\":7674:7680   */\n      dup4\n        /* \"#utility.yul\":7669:7672   */\n      dup4\n        /* \"#utility.yul\":7665:7681   */\n      add\n        /* \"#utility.yul\":7658:7685   */\n      mstore\n        /* \"#utility.yul\":7537:7691   */\n      pop\n      pop\n      pop\n      jump\t// out\n        /* \"#utility.yul\":7697:8004   */\n    tag_111:\n        /* \"#utility.yul\":7765:7766   */\n      0x00\n        /* \"#utility.yul\":7775:7888   */\n    tag_157:\n        /* \"#utility.yul\":7789:7795   */\n      dup4\n        /* \"#utility.yul\":7786:7787   */\n      dup2\n        /* \"#utility.yul\":7783:7796   */\n      lt\n        /* \"#utility.yul\":7775:7888   */\n      iszero\n      tag_159\n      jumpi\n        /* \"#utility.yul\":7874:7875   */\n      dup1\n        /* \"#utility.yul\":7869:7872   */\n      dup3\n        /* \"#utility.yul\":7865:7876   */\n      add\n        /* \"#utility.yul\":7859:7877   */\n      mload\n        /* \"#utility.yul\":7855:7856   */\n      dup2\n        /* \"#utility.yul\":7850:7853   */\n      dup5\n        /* \"#utility.yul\":7846:7857   */\n      add\n        /* \"#utility.yul\":7839:7878   */\n      mstore\n        /* \"#utility.yul\":7811:7813   */\n      0x20\n        /* \"#utility.yul\":7808:7809   */\n      dup2\n        /* \"#utility.yul\":7804:7814   */\n      add\n        /* \"#utility.yul\":7799:7814   */\n      swap1\n      pop\n        /* \"#utility.yul\":7775:7888   */\n      jump(tag_157)\n    tag_159:\n        /* \"#utility.yul\":7906:7912   */\n      dup4\n        /* \"#utility.yul\":7903:7904   */\n      dup2\n        /* \"#utility.yul\":7900:7913   */\n      gt\n        /* \"#utility.yul\":7897:7998   */\n      iszero\n      tag_160\n      jumpi\n        /* \"#utility.yul\":7986:7987   */\n      0x00\n        /* \"#utility.yul\":7977:7983   */\n      dup5\n        /* \"#utility.yul\":7972:7975   */\n      dup5\n        /* \"#utility.yul\":7968:7984   */\n      add\n        /* \"#utility.yul\":7961:7988   */\n      mstore\n        /* \"#utility.yul\":7897:7998   */\n    tag_160:\n        /* \"#utility.yul\":7746:8004   */\n      pop\n        /* \"#utility.yul\":7697:8004   */\n      pop\n      pop\n      pop\n      jump\t// out\n        /* \"#utility.yul\":8010:8330   */\n    tag_25:\n        /* \"#utility.yul\":8054:8060   */\n      0x00\n        /* \"#utility.yul\":8091:8092   */\n      0x02\n        /* \"#utility.yul\":8085:8089   */\n      dup3\n        /* \"#utility.yul\":8081:8093   */\n      div\n        /* \"#utility.yul\":8071:8093   */\n      swap1\n      pop\n        /* \"#utility.yul\":8138:8139   */\n      0x01\n        /* \"#utility.yul\":8132:8136   */\n      dup3\n        /* \"#utility.yul\":8128:8140   */\n      and\n        /* \"#utility.yul\":8159:8177   */\n      dup1\n        /* \"#utility.yul\":8149:8230   */\n      tag_162\n      jumpi\n        /* \"#utility.yul\":8215:8219   */\n      0x7f\n        /* \"#utility.yul\":8207:8213   */\n      dup3\n        /* \"#utility.yul\":8203:8220   */\n      and\n        /* \"#utility.yul\":8193:8220   */\n      swap2\n      pop\n        /* \"#utility.yul\":8149:8230   */\n    tag_162:\n        /* \"#utility.yul\":8277:8279   */\n      0x20\n        /* \"#utility.yul\":8269:8275   */\n      dup3\n        /* \"#utility.yul\":8266:8280   */\n      lt\n        /* \"#utility.yul\":8246:8264   */\n      dup2\n        /* \"#utility.yul\":8243:8281   */\n      eq\n        /* \"#utility.yul\":8240:8324   */\n      iszero\n      tag_163\n      jumpi\n        /* \"#utility.yul\":8296:8314   */\n      tag_164\n      tag_165\n      jump\t// in\n    tag_164:\n        /* \"#utility.yul\":8240:8324   */\n    tag_163:\n        /* \"#utility.yul\":8061:8330   */\n      pop\n        /* \"#utility.yul\":8010:8330   */\n      swap2\n      swap1\n      pop\n      jump\t// out\n        /* \"#utility.yul\":8336:8617   */\n    tag_140:\n        /* \"#utility.yul\":8419:8446   */\n      tag_167\n        /* \"#utility.yul\":8441:8445   */\n      dup3\n        /* \"#utility.yul\":8419:8446   */\n      tag_113\n      jump\t// in\n    tag_167:\n        /* \"#utility.yul\":8411:8417   */\n      dup2\n        /* \"#utility.yul\":8407:8447   */\n      add\n        /* \"#utility.yul\":8549:8555   */\n      dup2\n        /* \"#utility.yul\":8537:8547   */\n      dup2\n        /* \"#utility.yul\":8534:8556   */\n      lt\n        /* \"#utility.yul\":8513:8531   */\n      0xffffffffffffffff\n        /* \"#utility.yul\":8501:8511   */\n      dup3\n        /* \"#utility.yul\":8498:8532   */\n      gt\n        /* \"#utility.yul\":8495:8557   */\n      or\n        /* \"#utility.yul\":8492:8580   */\n      iszero\n      tag_168\n      jumpi\n        /* \"#utility.yul\":8560:8578   */\n      tag_169\n      tag_145\n      jump\t// in\n    tag_169:\n        /* \"#utility.yul\":8492:8580   */\n    tag_168:\n        /* \"#utility.yul\":8600:8610   */\n      dup1\n        /* \"#utility.yul\":8596:8598   */\n      0x40\n        /* \"#utility.yul\":8589:8611   */\n      mstore\n        /* \"#utility.yul\":8379:8617   */\n      pop\n        /* \"#utility.yul\":8336:8617   */\n      pop\n      pop\n      jump\t// out\n        /* \"#utility.yul\":8623:8803   */\n    tag_165:\n        /* \"#utility.yul\":8671:8748   */\n      0x4e487b7100000000000000000000000000000000000000000000000000000000\n        /* \"#utility.yul\":8668:8669   */\n      0x00\n        /* \"#utility.yul\":8661:8749   */\n      mstore\n        /* \"#utility.yul\":8768:8772   */\n      0x22\n        /* \"#utility.yul\":8765:8766   */\n      0x04\n        /* \"#utility.yul\":8758:8773   */\n      mstore\n        /* \"#utility.yul\":8792:8796   */\n      0x24\n        /* \"#utility.yul\":8789:8790   */\n      0x00\n        /* \"#utility.yul\":8782:8797   */\n      revert\n        /* \"#utility.yul\":8809:8989   */\n    tag_145:\n        /* \"#utility.yul\":8857:8934   */\n      0x4e487b7100000000000000000000000000000000000000000000000000000000\n        /* \"#utility.yul\":8854:8855   */\n      0x00\n        /* \"#utility.yul\":8847:8935   */\n      mstore\n        /* \"#utility.yul\":8954:8958   */\n      0x41\n        /* \"#utility.yul\":8951:8952   */\n      0x04\n        /* \"#utility.yul\":8944:8959   */\n      mstore\n        /* \"#utility.yul\":8978:8982   */\n      0x24\n        /* \"#utility.yul\":8975:8976   */\n      0x00\n        /* \"#utility.yul\":8968:8983   */\n      revert\n        /* \"#utility.yul\":8995:9112   */\n    tag_67:\n        /* \"#utility.yul\":9104:9105   */\n      0x00\n        /* \"#utility.yul\":9101:9102   */\n      dup1\n        /* \"#utility.yul\":9094:9106   */\n      revert\n        /* \"#utility.yul\":9118:9235   */\n    tag_60:\n        /* \"#utility.yul\":9227:9228   */\n      0x00\n        /* \"#utility.yul\":9224:9225   */\n      dup1\n        /* \"#utility.yul\":9217:9229   */\n      revert\n        /* \"#utility.yul\":9241:9358   */\n    tag_84:\n        /* \"#utility.yul\":9350:9351   */\n      0x00\n        /* \"#utility.yul\":9347:9348   */\n      dup1\n        /* \"#utility.yul\":9340:9352   */\n      revert\n        /* \"#utility.yul\":9364:9481   */\n    tag_76:\n        /* \"#utility.yul\":9473:9474   */\n      0x00\n        /* \"#utility.yul\":9470:9471   */\n      dup1\n        /* \"#utility.yul\":9463:9475   */\n      revert\n        /* \"#utility.yul\":9487:9589   */\n    tag_113:\n        /* \"#utility.yul\":9528:9534   */\n      0x00\n        /* \"#utility.yul\":9579:9581   */\n      0x1f\n        /* \"#utility.yul\":9575:9582   */\n      not\n        /* \"#utility.yul\":9570:9572   */\n      0x1f\n        /* \"#utility.yul\":9563:9568   */\n      dup4\n        /* \"#utility.yul\":9559:9573   */\n      add\n        /* \"#utility.yul\":9555:9583   */\n      and\n        /* \"#utility.yul\":9545:9583   */\n      swap1\n      pop\n        /* \"#utility.yul\":9487:9589   */\n      swap2\n      swap1\n      pop\n      jump\t// out\n        /* \"#utility.yul\":9595:9717   */\n    tag_72:\n        /* \"#utility.yul\":9668:9692   */\n      tag_178\n        /* \"#utility.yul\":9686:9691   */\n      dup2\n        /* \"#utility.yul\":9668:9692   */\n      tag_127\n      jump\t// in\n    tag_178:\n        /* \"#utility.yul\":9661:9666   */\n      dup2\n        /* \"#utility.yul\":9658:9693   */\n      eq\n        /* \"#utility.yul\":9648:9711   */\n      tag_179\n      jumpi\n        /* \"#utility.yul\":9707:9708   */\n      0x00\n        /* \"#utility.yul\":9704:9705   */\n      dup1\n        /* \"#utility.yul\":9697:9709   */\n      revert\n        /* \"#utility.yul\":9648:9711   */\n    tag_179:\n        /* \"#utility.yul\":9595:9717   */\n      pop\n      jump\t// out\n\n    auxdata: 0xa2646970667358221220ed5a525b56e2072c2ed2a2f542f714b4313f0c5e3b6ce1ffd15c96833e8f18b664736f6c63430008070033\n}\n",
				"bytecode": {
					"linkReferences": {},
					"object": "608060405234801561001057600080fd5b50610869806100206000396000f3fe608060405234801561001057600080fd5b50600436106100415760003560e01c806382e76b8814610046578063bc8bc2b414610064578063c1da202014610095575b600080fd5b61004e6100b1565b60405161005b91906105dc565b60405180910390f35b61007e600480360381019061007991906103fd565b6101ac565b60405161008c9291906105fe565b60405180910390f35b6100af60048036038101906100aa919061042a565b610268565b005b60606000805480602002602001604051908101604052809291908181526020016000905b828210156101a357838290600052602060002090600202016040518060400160405290816000820154815260200160018201805461011290610736565b80601f016020809104026020016040519081016040528092919081815260200182805461013e90610736565b801561018b5780601f106101605761010080835404028352916020019161018b565b820191906000526020600020905b81548152906001019060200180831161016e57829003601f168201915b505050505081525050815260200190600101906100d5565b50505050905090565b600081815481106101bc57600080fd5b90600052602060002090600202016000915090508060000154908060010180546101e590610736565b80601f016020809104026020016040519081016040528092919081815260200182805461021190610736565b801561025e5780601f106102335761010080835404028352916020019161025e565b820191906000526020600020905b81548152906001019060200180831161024157829003601f168201915b5050505050905082565b600060405180604001604052808481526020018381525090806001815401808255809150506001900390600052602060002090600202016000909190919091506000820151816000015560208201518160010190805190602001906102ce9291906102d5565b5050505050565b8280546102e190610736565b90600052602060002090601f016020900481019282610303576000855561034a565b82601f1061031c57805160ff191683800117855561034a565b8280016001018555821561034a579182015b8281111561034957825182559160200191906001019061032e565b5b509050610357919061035b565b5090565b5b8082111561037457600081600090555060010161035c565b5090565b600061038b61038684610653565b61062e565b9050828152602081018484840111156103a7576103a66107fc565b5b6103b28482856106f4565b509392505050565b600082601f8301126103cf576103ce6107f7565b5b81356103df848260208601610378565b91505092915050565b6000813590506103f78161081c565b92915050565b60006020828403121561041357610412610806565b5b6000610421848285016103e8565b91505092915050565b6000806040838503121561044157610440610806565b5b600061044f858286016103e8565b925050602083013567ffffffffffffffff8111156104705761046f610801565b5b61047c858286016103ba565b9150509250929050565b60006104928383610581565b905092915050565b60006104a582610694565b6104af81856106b7565b9350836020820285016104c185610684565b8060005b858110156104fd57848403895281516104de8582610486565b94506104e9836106aa565b925060208a019950506001810190506104c5565b50829750879550505050505092915050565b600061051a8261069f565b61052481856106c8565b9350610534818560208601610703565b61053d8161080b565b840191505092915050565b60006105538261069f565b61055d81856106d9565b935061056d818560208601610703565b6105768161080b565b840191505092915050565b600060408301600083015161059960008601826105be565b50602083015184820360208601526105b1828261050f565b9150508091505092915050565b6105c7816106ea565b82525050565b6105d6816106ea565b82525050565b600060208201905081810360008301526105f6818461049a565b905092915050565b600060408201905061061360008301856105cd565b81810360208301526106258184610548565b90509392505050565b6000610638610649565b90506106448282610768565b919050565b6000604051905090565b600067ffffffffffffffff82111561066e5761066d6107c8565b5b6106778261080b565b9050602081019050919050565b6000819050602082019050919050565b600081519050919050565b600081519050919050565b6000602082019050919050565b600082825260208201905092915050565b600082825260208201905092915050565b600082825260208201905092915050565b6000819050919050565b82818337600083830152505050565b60005b83811015610721578082015181840152602081019050610706565b83811115610730576000848401525b50505050565b6000600282049050600182168061074e57607f821691505b6020821081141561076257610761610799565b5b50919050565b6107718261080b565b810181811067ffffffffffffffff821117156107905761078f6107c8565b5b80604052505050565b7f4e487b7100000000000000000000000000000000000000000000000000000000600052602260045260246000fd5b7f4e487b7100000000000000000000000000000000000000000000000000000000600052604160045260246000fd5b600080fd5b600080fd5b600080fd5b600080fd5b6000601f19601f8301169050919050565b610825816106ea565b811461083057600080fd5b5056fea2646970667358221220ed5a525b56e2072c2ed2a2f542f714b4313f0c5e3b6ce1ffd15c96833e8f18b664736f6c63430008070033",
					"opcodes": "PUSH1 0x80 PUSH1 0x40 MSTORE CALLVALUE DUP1 ISZERO PUSH2 0x10 JUMPI PUSH1 0x0 DUP1 REVERT JUMPDEST POP PUSH2 0x869 DUP1 PUSH2 0x20 PUSH1 0x0 CODECOPY PUSH1 0x0 RETURN INVALID PUSH1 0x80 PUSH1 0x40 MSTORE CALLVALUE DUP1 ISZERO PUSH2 0x10 JUMPI PUSH1 0x0 DUP1 REVERT JUMPDEST POP PUSH1 0x4 CALLDATASIZE LT PUSH2 0x41 JUMPI PUSH1 0x0 CALLDATALOAD PUSH1 0xE0 SHR DUP1 PUSH4 0x82E76B88 EQ PUSH2 0x46 JUMPI DUP1 PUSH4 0xBC8BC2B4 EQ PUSH2 0x64 JUMPI DUP1 PUSH4 0xC1DA2020 EQ PUSH2 0x95 JUMPI JUMPDEST PUSH1 0x0 DUP1 REVERT JUMPDEST PUSH2 0x4E PUSH2 0xB1 JUMP JUMPDEST PUSH1 0x40 MLOAD PUSH2 0x5B SWAP2 SWAP1 PUSH2 0x5DC JUMP JUMPDEST PUSH1 0x40 MLOAD DUP1 SWAP2 SUB SWAP1 RETURN JUMPDEST PUSH2 0x7E PUSH1 0x4 DUP1 CALLDATASIZE SUB DUP2 ADD SWAP1 PUSH2 0x79 SWAP2 SWAP1 PUSH2 0x3FD JUMP JUMPDEST PUSH2 0x1AC JUMP JUMPDEST PUSH1 0x40 MLOAD PUSH2 0x8C SWAP3 SWAP2 SWAP1 PUSH2 0x5FE JUMP JUMPDEST PUSH1 0x40 MLOAD DUP1 SWAP2 SUB SWAP1 RETURN JUMPDEST PUSH2 0xAF PUSH1 0x4 DUP1 CALLDATASIZE SUB DUP2 ADD SWAP1 PUSH2 0xAA SWAP2 SWAP1 PUSH2 0x42A JUMP JUMPDEST PUSH2 0x268 JUMP JUMPDEST STOP JUMPDEST PUSH1 0x60 PUSH1 0x0 DUP1 SLOAD DUP1 PUSH1 0x20 MUL PUSH1 0x20 ADD PUSH1 0x40 MLOAD SWAP1 DUP2 ADD PUSH1 0x40 MSTORE DUP1 SWAP3 SWAP2 SWAP1 DUP2 DUP2 MSTORE PUSH1 0x20 ADD PUSH1 0x0 SWAP1 JUMPDEST DUP3 DUP3 LT ISZERO PUSH2 0x1A3 JUMPI DUP4 DUP3 SWAP1 PUSH1 0x0 MSTORE PUSH1 0x20 PUSH1 0x0 KECCAK256 SWAP1 PUSH1 0x2 MUL ADD PUSH1 0x40 MLOAD DUP1 PUSH1 0x40 ADD PUSH1 0x40 MSTORE SWAP1 DUP2 PUSH1 0x0 DUP3 ADD SLOAD DUP2 MSTORE PUSH1 0x20 ADD PUSH1 0x1 DUP3 ADD DUP1 SLOAD PUSH2 0x112 SWAP1 PUSH2 0x736 JUMP JUMPDEST DUP1 PUSH1 0x1F ADD PUSH1 0x20 DUP1 SWAP2 DIV MUL PUSH1 0x20 ADD PUSH1 0x40 MLOAD SWAP1 DUP2 ADD PUSH1 0x40 MSTORE DUP1 SWAP3 SWAP2 SWAP1 DUP2 DUP2 MSTORE PUSH1 0x20 ADD DUP3 DUP1 SLOAD PUSH2 0x13E SWAP1 PUSH2 0x736 JUMP JUMPDEST DUP1 ISZERO PUSH2 0x18B JUMPI DUP1 PUSH1 0x1F LT PUSH2 0x160 JUMPI PUSH2 0x100 DUP1 DUP4 SLOAD DIV MUL DUP4 MSTORE SWAP2 PUSH1 0x20 ADD SWAP2 PUSH2 0x18B JUMP JUMPDEST DUP3 ADD SWAP2 SWAP1 PUSH1 0x0 MSTORE PUSH1 0x20 PUSH1 0x0 KECCAK256 SWAP1 JUMPDEST DUP2 SLOAD DUP2 MSTORE SWAP1 PUSH1 0x1 ADD SWAP1 PUSH1 0x20 ADD DUP1 DUP4 GT PUSH2 0x16E JUMPI DUP3 SWAP1 SUB PUSH1 0x1F AND DUP3 ADD SWAP2 JUMPDEST POP POP POP POP POP DUP2 MSTORE POP POP DUP2 MSTORE PUSH1 0x20 ADD SWAP1 PUSH1 0x1 ADD SWAP1 PUSH2 0xD5 JUMP JUMPDEST POP POP POP POP SWAP1 POP SWAP1 JUMP JUMPDEST PUSH1 0x0 DUP2 DUP2 SLOAD DUP2 LT PUSH2 0x1BC JUMPI PUSH1 0x0 DUP1 REVERT JUMPDEST SWAP1 PUSH1 0x0 MSTORE PUSH1 0x20 PUSH1 0x0 KECCAK256 SWAP1 PUSH1 0x2 MUL ADD PUSH1 0x0 SWAP2 POP SWAP1 POP DUP1 PUSH1 0x0 ADD SLOAD SWAP1 DUP1 PUSH1 0x1 ADD DUP1 SLOAD PUSH2 0x1E5 SWAP1 PUSH2 0x736 JUMP JUMPDEST DUP1 PUSH1 0x1F ADD PUSH1 0x20 DUP1 SWAP2 DIV MUL PUSH1 0x20 ADD PUSH1 0x40 MLOAD SWAP1 DUP2 ADD PUSH1 0x40 MSTORE DUP1 SWAP3 SWAP2 SWAP1 DUP2 DUP2 MSTORE PUSH1 0x20 ADD DUP3 DUP1 SLOAD PUSH2 0x211 SWAP1 PUSH2 0x736 JUMP JUMPDEST DUP1 ISZERO PUSH2 0x25E JUMPI DUP1 PUSH1 0x1F LT PUSH2 0x233 JUMPI PUSH2 0x100 DUP1 DUP4 SLOAD DIV MUL DUP4 MSTORE SWAP2 PUSH1 0x20 ADD SWAP2 PUSH2 0x25E JUMP JUMPDEST DUP3 ADD SWAP2 SWAP1 PUSH1 0x0 MSTORE PUSH1 0x20 PUSH1 0x0 KECCAK256 SWAP1 JUMPDEST DUP2 SLOAD DUP2 MSTORE SWAP1 PUSH1 0x1 ADD SWAP1 PUSH1 0x20 ADD DUP1 DUP4 GT PUSH2 0x241 JUMPI DUP3 SWAP1 SUB PUSH1 0x1F AND DUP3 ADD SWAP2 JUMPDEST POP POP POP POP POP SWAP1 POP DUP3 JUMP JUMPDEST PUSH1 0x0 PUSH1 0x40 MLOAD DUP1 PUSH1 0x40 ADD PUSH1 0x40 MSTORE DUP1 DUP5 DUP2 MSTORE PUSH1 0x20 ADD DUP4 DUP2 MSTORE POP SWAP1 DUP1 PUSH1 0x1 DUP2 SLOAD ADD DUP1 DUP3 SSTORE DUP1 SWAP2 POP POP PUSH1 0x1 SWAP1 SUB SWAP1 PUSH1 0x0 MSTORE PUSH1 0x20 PUSH1 0x0 KECCAK256 SWAP1 PUSH1 0x2 MUL ADD PUSH1 0x0 SWAP1 SWAP2 SWAP1 SWAP2 SWAP1 SWAP2 POP PUSH1 0x0 DUP3 ADD MLOAD DUP2 PUSH1 0x0 ADD SSTORE PUSH1 0x20 DUP3 ADD MLOAD DUP2 PUSH1 0x1 ADD SWAP1 DUP1 MLOAD SWAP1 PUSH1 0x20 ADD SWAP1 PUSH2 0x2CE SWAP3 SWAP2 SWAP1 PUSH2 0x2D5 JUMP JUMPDEST POP POP POP POP POP JUMP JUMPDEST DUP3 DUP1 SLOAD PUSH2 0x2E1 SWAP1 PUSH2 0x736 JUMP JUMPDEST SWAP1 PUSH1 0x0 MSTORE PUSH1 0x20 PUSH1 0x0 KECCAK256 SWAP1 PUSH1 0x1F ADD PUSH1 0x20 SWAP1 DIV DUP2 ADD SWAP3 DUP3 PUSH2 0x303 JUMPI PUSH1 0x0 DUP6 SSTORE PUSH2 0x34A JUMP JUMPDEST DUP3 PUSH1 0x1F LT PUSH2 0x31C JUMPI DUP1 MLOAD PUSH1 0xFF NOT AND DUP4 DUP1 ADD OR DUP6 SSTORE PUSH2 0x34A JUMP JUMPDEST DUP3 DUP1 ADD PUSH1 0x1 ADD DUP6 SSTORE DUP3 ISZERO PUSH2 0x34A JUMPI SWAP2 DUP3 ADD JUMPDEST DUP3 DUP2 GT ISZERO PUSH2 0x349 JUMPI DUP3 MLOAD DUP3 SSTORE SWAP2 PUSH1 0x20 ADD SWAP2 SWAP1 PUSH1 0x1 ADD SWAP1 PUSH2 0x32E JUMP JUMPDEST JUMPDEST POP SWAP1 POP PUSH2 0x357 SWAP2 SWAP1 PUSH2 0x35B JUMP JUMPDEST POP SWAP1 JUMP JUMPDEST JUMPDEST DUP1 DUP3 GT ISZERO PUSH2 0x374 JUMPI PUSH1 0x0 DUP2 PUSH1 0x0 SWAP1 SSTORE POP PUSH1 0x1 ADD PUSH2 0x35C JUMP JUMPDEST POP SWAP1 JUMP JUMPDEST PUSH1 0x0 PUSH2 0x38B PUSH2 0x386 DUP5 PUSH2 0x653 JUMP JUMPDEST PUSH2 0x62E JUMP JUMPDEST SWAP1 POP DUP3 DUP2 MSTORE PUSH1 0x20 DUP2 ADD DUP5 DUP5 DUP5 ADD GT ISZERO PUSH2 0x3A7 JUMPI PUSH2 0x3A6 PUSH2 0x7FC JUMP JUMPDEST JUMPDEST PUSH2 0x3B2 DUP5 DUP3 DUP6 PUSH2 0x6F4 JUMP JUMPDEST POP SWAP4 SWAP3 POP POP POP JUMP JUMPDEST PUSH1 0x0 DUP3 PUSH1 0x1F DUP4 ADD SLT PUSH2 0x3CF JUMPI PUSH2 0x3CE PUSH2 0x7F7 JUMP JUMPDEST JUMPDEST DUP2 CALLDATALOAD PUSH2 0x3DF DUP5 DUP3 PUSH1 0x20 DUP7 ADD PUSH2 0x378 JUMP JUMPDEST SWAP2 POP POP SWAP3 SWAP2 POP POP JUMP JUMPDEST PUSH1 0x0 DUP2 CALLDATALOAD SWAP1 POP PUSH2 0x3F7 DUP2 PUSH2 0x81C JUMP JUMPDEST SWAP3 SWAP2 POP POP JUMP JUMPDEST PUSH1 0x0 PUSH1 0x20 DUP3 DUP5 SUB SLT ISZERO PUSH2 0x413 JUMPI PUSH2 0x412 PUSH2 0x806 JUMP JUMPDEST JUMPDEST PUSH1 0x0 PUSH2 0x421 DUP5 DUP3 DUP6 ADD PUSH2 0x3E8 JUMP JUMPDEST SWAP2 POP POP SWAP3 SWAP2 POP POP JUMP JUMPDEST PUSH1 0x0 DUP1 PUSH1 0x40 DUP4 DUP6 SUB SLT ISZERO PUSH2 0x441 JUMPI PUSH2 0x440 PUSH2 0x806 JUMP JUMPDEST JUMPDEST PUSH1 0x0 PUSH2 0x44F DUP6 DUP3 DUP7 ADD PUSH2 0x3E8 JUMP JUMPDEST SWAP3 POP POP PUSH1 0x20 DUP4 ADD CALLDATALOAD PUSH8 0xFFFFFFFFFFFFFFFF DUP2 GT ISZERO PUSH2 0x470 JUMPI PUSH2 0x46F PUSH2 0x801 JUMP JUMPDEST JUMPDEST PUSH2 0x47C DUP6 DUP3 DUP7 ADD PUSH2 0x3BA JUMP JUMPDEST SWAP2 POP POP SWAP3 POP SWAP3 SWAP1 POP JUMP JUMPDEST PUSH1 0x0 PUSH2 0x492 DUP4 DUP4 PUSH2 0x581 JUMP JUMPDEST SWAP1 POP SWAP3 SWAP2 POP POP JUMP JUMPDEST PUSH1 0x0 PUSH2 0x4A5 DUP3 PUSH2 0x694 JUMP JUMPDEST PUSH2 0x4AF DUP2 DUP6 PUSH2 0x6B7 JUMP JUMPDEST SWAP4 POP DUP4 PUSH1 0x20 DUP3 MUL DUP6 ADD PUSH2 0x4C1 DUP6 PUSH2 0x684 JUMP JUMPDEST DUP1 PUSH1 0x0 JUMPDEST DUP6 DUP2 LT ISZERO PUSH2 0x4FD JUMPI DUP5 DUP5 SUB DUP10 MSTORE DUP2 MLOAD PUSH2 0x4DE DUP6 DUP3 PUSH2 0x486 JUMP JUMPDEST SWAP5 POP PUSH2 0x4E9 DUP4 PUSH2 0x6AA JUMP JUMPDEST SWAP3 POP PUSH1 0x20 DUP11 ADD SWAP10 POP POP PUSH1 0x1 DUP2 ADD SWAP1 POP PUSH2 0x4C5 JUMP JUMPDEST POP DUP3 SWAP8 POP DUP8 SWAP6 POP POP POP POP POP POP SWAP3 SWAP2 POP POP JUMP JUMPDEST PUSH1 0x0 PUSH2 0x51A DUP3 PUSH2 0x69F JUMP JUMPDEST PUSH2 0x524 DUP2 DUP6 PUSH2 0x6C8 JUMP JUMPDEST SWAP4 POP PUSH2 0x534 DUP2 DUP6 PUSH1 0x20 DUP7 ADD PUSH2 0x703 JUMP JUMPDEST PUSH2 0x53D DUP2 PUSH2 0x80B JUMP JUMPDEST DUP5 ADD SWAP2 POP POP SWAP3 SWAP2 POP POP JUMP JUMPDEST PUSH1 0x0 PUSH2 0x553 DUP3 PUSH2 0x69F JUMP JUMPDEST PUSH2 0x55D DUP2 DUP6 PUSH2 0x6D9 JUMP JUMPDEST SWAP4 POP PUSH2 0x56D DUP2 DUP6 PUSH1 0x20 DUP7 ADD PUSH2 0x703 JUMP JUMPDEST PUSH2 0x576 DUP2 PUSH2 0x80B JUMP JUMPDEST DUP5 ADD SWAP2 POP POP SWAP3 SWAP2 POP POP JUMP JUMPDEST PUSH1 0x0 PUSH1 0x40 DUP4 ADD PUSH1 0x0 DUP4 ADD MLOAD PUSH2 0x599 PUSH1 0x0 DUP7 ADD DUP3 PUSH2 0x5BE JUMP JUMPDEST POP PUSH1 0x20 DUP4 ADD MLOAD DUP5 DUP3 SUB PUSH1 0x20 DUP7 ADD MSTORE PUSH2 0x5B1 DUP3 DUP3 PUSH2 0x50F JUMP JUMPDEST SWAP2 POP POP DUP1 SWAP2 POP POP SWAP3 SWAP2 POP POP JUMP JUMPDEST PUSH2 0x5C7 DUP2 PUSH2 0x6EA JUMP JUMPDEST DUP3 MSTORE POP POP JUMP JUMPDEST PUSH2 0x5D6 DUP2 PUSH2 0x6EA JUMP JUMPDEST DUP3 MSTORE POP POP JUMP JUMPDEST PUSH1 0x0 PUSH1 0x20 DUP3 ADD SWAP1 POP DUP2 DUP2 SUB PUSH1 0x0 DUP4 ADD MSTORE PUSH2 0x5F6 DUP2 DUP5 PUSH2 0x49A JUMP JUMPDEST SWAP1 POP SWAP3 SWAP2 POP POP JUMP JUMPDEST PUSH1 0x0 PUSH1 0x40 DUP3 ADD SWAP1 POP PUSH2 0x613 PUSH1 0x0 DUP4 ADD DUP6 PUSH2 0x5CD JUMP JUMPDEST DUP2 DUP2 SUB PUSH1 0x20 DUP4 ADD MSTORE PUSH2 0x625 DUP2 DUP5 PUSH2 0x548 JUMP JUMPDEST SWAP1 POP SWAP4 SWAP3 POP POP POP JUMP JUMPDEST PUSH1 0x0 PUSH2 0x638 PUSH2 0x649 JUMP JUMPDEST SWAP1 POP PUSH2 0x644 DUP3 DUP3 PUSH2 0x768 JUMP JUMPDEST SWAP2 SWAP1 POP JUMP JUMPDEST PUSH1 0x0 PUSH1 0x40 MLOAD SWAP1 POP SWAP1 JUMP JUMPDEST PUSH1 0x0 PUSH8 0xFFFFFFFFFFFFFFFF DUP3 GT ISZERO PUSH2 0x66E JUMPI PUSH2 0x66D PUSH2 0x7C8 JUMP JUMPDEST JUMPDEST PUSH2 0x677 DUP3 PUSH2 0x80B JUMP JUMPDEST SWAP1 POP PUSH1 0x20 DUP2 ADD SWAP1 POP SWAP2 SWAP1 POP JUMP JUMPDEST PUSH1 0x0 DUP2 SWAP1 POP PUSH1 0x20 DUP3 ADD SWAP1 POP SWAP2 SWAP1 POP JUMP JUMPDEST PUSH1 0x0 DUP2 MLOAD SWAP1 POP SWAP2 SWAP1 POP JUMP JUMPDEST PUSH1 0x0 DUP2 MLOAD SWAP1 POP SWAP2 SWAP1 POP JUMP JUMPDEST PUSH1 0x0 PUSH1 0x20 DUP3 ADD SWAP1 POP SWAP2 SWAP1 POP JUMP JUMPDEST PUSH1 0x0 DUP3 DUP3 MSTORE PUSH1 0x20 DUP3 ADD SWAP1 POP SWAP3 SWAP2 POP POP JUMP JUMPDEST PUSH1 0x0 DUP3 DUP3 MSTORE PUSH1 0x20 DUP3 ADD SWAP1 POP SWAP3 SWAP2 POP POP JUMP JUMPDEST PUSH1 0x0 DUP3 DUP3 MSTORE PUSH1 0x20 DUP3 ADD SWAP1 POP SWAP3 SWAP2 POP POP JUMP JUMPDEST PUSH1 0x0 DUP2 SWAP1 POP SWAP2 SWAP1 POP JUMP JUMPDEST DUP3 DUP2 DUP4 CALLDATACOPY PUSH1 0x0 DUP4 DUP4 ADD MSTORE POP POP POP JUMP JUMPDEST PUSH1 0x0 JUMPDEST DUP4 DUP2 LT ISZERO PUSH2 0x721 JUMPI DUP1 DUP3 ADD MLOAD DUP2 DUP5 ADD MSTORE PUSH1 0x20 DUP2 ADD SWAP1 POP PUSH2 0x706 JUMP JUMPDEST DUP4 DUP2 GT ISZERO PUSH2 0x730 JUMPI PUSH1 0x0 DUP5 DUP5 ADD MSTORE JUMPDEST POP POP POP POP JUMP JUMPDEST PUSH1 0x0 PUSH1 0x2 DUP3 DIV SWAP1 POP PUSH1 0x1 DUP3 AND DUP1 PUSH2 0x74E JUMPI PUSH1 0x7F DUP3 AND SWAP2 POP JUMPDEST PUSH1 0x20 DUP3 LT DUP2 EQ ISZERO PUSH2 0x762 JUMPI PUSH2 0x761 PUSH2 0x799 JUMP JUMPDEST JUMPDEST POP SWAP2 SWAP1 POP JUMP JUMPDEST PUSH2 0x771 DUP3 PUSH2 0x80B JUMP JUMPDEST DUP2 ADD DUP2 DUP2 LT PUSH8 0xFFFFFFFFFFFFFFFF DUP3 GT OR ISZERO PUSH2 0x790 JUMPI PUSH2 0x78F PUSH2 0x7C8 JUMP JUMPDEST JUMPDEST DUP1 PUSH1 0x40 MSTORE POP POP POP JUMP JUMPDEST PUSH32 0x4E487B7100000000000000000000000000000000000000000000000000000000 PUSH1 0x0 MSTORE PUSH1 0x22 PUSH1 0x4 MSTORE PUSH1 0x24 PUSH1 0x0 REVERT JUMPDEST PUSH32 0x4E487B7100000000000000000000000000000000000000000000000000000000 PUSH1 0x0 MSTORE PUSH1 0x41 PUSH1 0x4 MSTORE PUSH1 0x24 PUSH1 0x0 REVERT JUMPDEST PUSH1 0x0 DUP1 REVERT JUMPDEST PUSH1 0x0 DUP1 REVERT JUMPDEST PUSH1 0x0 DUP1 REVERT JUMPDEST PUSH1 0x0 DUP1 REVERT JUMPDEST PUSH1 0x0 PUSH1 0x1F NOT PUSH1 0x1F DUP4 ADD AND SWAP1 POP SWAP2 SWAP1 POP JUMP JUMPDEST PUSH2 0x825 DUP2 PUSH2 0x6EA JUMP JUMPDEST DUP2 EQ PUSH2 0x830 JUMPI PUSH1 0x0 DUP1 REVERT JUMPDEST POP JUMP INVALID LOG2 PUSH5 0x6970667358 0x22 SLT KECCAK256 0xED GAS MSTORE JUMPDEST JUMP 0xE2 SMOD 0x2C 0x2E 0xD2 LOG2 CREATE2 TIMESTAMP 0xF7 EQ 0xB4 BALANCE EXTCODEHASH 0xC 0x5E EXTCODESIZE PUSH13 0xE1FFD15C96833E8F18B664736F PUSH13 0x63430008070033000000000000 "
				},
				"gasEstimates": {
					"creation": {
						"codeDepositCost": "430600",
						"executionCost": "468",
						"totalCost": "431068"
					},
					"external": {
						"addTodo(uint256,string)": "infinite",
						"showTodo()": "infinite",
						"todos(uint256)": "infinite"
					}
				},
				"methodIdentifiers": {
					"addTodo(uint256,string)": "c1da2020",
					"showTodo()": "82e76b88",
					"todos(uint256)": "bc8bc2b4"
				}
			},
			"storageLayout": {
				"storage": [
					{
						"astId": 10,
						"contract": "Todo.sol:Todo",
						"label": "todos",
						"offset": 0,
						"slot": "0",
						"type": "t_array(t_struct(todoObj)6_storage)dyn_storage"
					},
					{
						"astId": 16,
						"contract": "Todo.sol:Todo",
						"label": "todosMap",
						"offset": 0,
						"slot": "1",
						"type": "t_mapping(t_address,t_array(t_struct(todoObj)6_storage)dyn_storage)"
					}
				],
				"types": {
					"t_address": {
						"encoding": "inplace",
						"label": "address",
						"numberOfBytes": "20"
					},
					"t_array(t_struct(todoObj)6_storage)dyn_storage": {
						"base": "t_struct(todoObj)6_storage",
						"encoding": "dynamic_array",
						"label": "struct Todo.todoObj[]",
						"numberOfBytes": "32"
					},
					"t_mapping(t_address,t_array(t_struct(todoObj)6_storage)dyn_storage)": {
						"encoding": "mapping",
						"key": "t_address",
						"label": "mapping(address => struct Todo.todoObj[])",
						"numberOfBytes": "32",
						"value": "t_array(t_struct(todoObj)6_storage)dyn_storage"
					},
					"t_string_storage": {
						"encoding": "bytes",
						"label": "string",
						"numberOfBytes": "32"
					},
					"t_struct(todoObj)6_storage": {
						"encoding": "inplace",
						"label": "struct Todo.todoObj",
						"members": [
							{
								"astId": 3,
								"contract": "Todo.sol:Todo",
								"label": "id",
								"offset": 0,
								"slot": "0",
								"type": "t_uint256"
							},
							{
								"astId": 5,
								"contract": "Todo.sol:Todo",
								"label": "todoText",
								"offset": 0,
								"slot": "1",
								"type": "t_string_storage"
							}
						],
						"numberOfBytes": "64"
					},
					"t_uint256": {
						"encoding": "inplace",
						"label": "uint256",
						"numberOfBytes": "32"
					}
				}
			},
			"userdoc": {
				"kind": "user",
				"methods": {},
				"version": 1
			}
		}
	}
}