{
	"Todo.sol": {
		"Todo": {
			"abi": [
				{
					"inputs": [
						{
							"internalType": "string",
							"name": "todo",
							"type": "string"
						}
					],
					"name": "addTodo",
					"outputs": [],
					"stateMutability": "nonpayable",
					"type": "function"
				},
				{
					"inputs": [],
					"name": "resetTodo",
					"outputs": [],
					"stateMutability": "nonpayable",
					"type": "function"
				},
				{
					"inputs": [],
					"name": "showTodo",
					"outputs": [
						{
							"internalType": "string[]",
							"name": "",
							"type": "string[]"
						}
					],
					"stateMutability": "view",
					"type": "function"
				}
			],
			"devdoc": {
				"kind": "dev",
				"methods": {},
				"version": 1
			},
			"evm": {
				"assembly": "    /* \"Todo.sol\":66:363  contract Todo{\r... */\n  mstore(0x40, 0x80)\n  callvalue\n  dup1\n  iszero\n  tag_1\n  jumpi\n  0x00\n  dup1\n  revert\ntag_1:\n  pop\n  dataSize(sub_0)\n  dup1\n  dataOffset(sub_0)\n  0x00\n  codecopy\n  0x00\n  return\nstop\n\nsub_0: assembly {\n        /* \"Todo.sol\":66:363  contract Todo{\r... */\n      mstore(0x40, 0x80)\n      callvalue\n      dup1\n      iszero\n      tag_1\n      jumpi\n      0x00\n      dup1\n      revert\n    tag_1:\n      pop\n      jumpi(tag_2, lt(calldatasize, 0x04))\n      shr(0xe0, calldataload(0x00))\n      dup1\n      0x82e76b88\n      eq\n      tag_3\n      jumpi\n      dup1\n      0x95ffebf5\n      eq\n      tag_4\n      jumpi\n      dup1\n      0xcbed9e07\n      eq\n      tag_5\n      jumpi\n    tag_2:\n      0x00\n      dup1\n      revert\n        /* \"Todo.sol\":273:360  function showTodo() public view returns(string[] memory){\r... */\n    tag_3:\n      tag_6\n      tag_7\n      jump\t// in\n    tag_6:\n      mload(0x40)\n      tag_8\n      swap2\n      swap1\n      tag_9\n      jump\t// in\n    tag_8:\n      mload(0x40)\n      dup1\n      swap2\n      sub\n      swap1\n      return\n        /* \"Todo.sol\":109:188  function addTodo(string memory todo) public {\r... */\n    tag_4:\n      tag_10\n      0x04\n      dup1\n      calldatasize\n      sub\n      dup2\n      add\n      swap1\n      tag_11\n      swap2\n      swap1\n      tag_12\n      jump\t// in\n    tag_11:\n      tag_13\n      jump\t// in\n    tag_10:\n      stop\n        /* \"Todo.sol\":196:265  function resetTodo() public{\r... */\n    tag_5:\n      tag_14\n      tag_15\n      jump\t// in\n    tag_14:\n      stop\n        /* \"Todo.sol\":273:360  function showTodo() public view returns(string[] memory){\r... */\n    tag_7:\n        /* \"Todo.sol\":313:328  string[] memory */\n      0x60\n        /* \"Todo.sol\":347:352  todos */\n      0x00\n        /* \"Todo.sol\":340:352  return todos */\n      dup1\n      sload\n      dup1\n      0x20\n      mul\n      0x20\n      add\n      mload(0x40)\n      swap1\n      dup2\n      add\n      0x40\n      mstore\n      dup1\n      swap3\n      swap2\n      swap1\n      dup2\n      dup2\n      mstore\n      0x20\n      add\n      0x00\n      swap1\n    tag_17:\n      dup3\n      dup3\n      lt\n      iszero\n      tag_18\n      jumpi\n      dup4\n      dup3\n      swap1\n      0x00\n      mstore\n      keccak256(0x00, 0x20)\n      add\n      dup1\n      sload\n      tag_20\n      swap1\n      tag_21\n      jump\t// in\n    tag_20:\n      dup1\n      0x1f\n      add\n      0x20\n      dup1\n      swap2\n      div\n      mul\n      0x20\n      add\n      mload(0x40)\n      swap1\n      dup2\n      add\n      0x40\n      mstore\n      dup1\n      swap3\n      swap2\n      swap1\n      dup2\n      dup2\n      mstore\n      0x20\n      add\n      dup3\n      dup1\n      sload\n      tag_22\n      swap1\n      tag_21\n      jump\t// in\n    tag_22:\n      dup1\n      iszero\n      tag_23\n      jumpi\n      dup1\n      0x1f\n      lt\n      tag_24\n      jumpi\n      0x0100\n      dup1\n      dup4\n      sload\n      div\n      mul\n      dup4\n      mstore\n      swap2\n      0x20\n      add\n      swap2\n      jump(tag_23)\n    tag_24:\n      dup3\n      add\n      swap2\n      swap1\n      0x00\n      mstore\n      keccak256(0x00, 0x20)\n      swap1\n    tag_25:\n      dup2\n      sload\n      dup2\n      mstore\n      swap1\n      0x01\n      add\n      swap1\n      0x20\n      add\n      dup1\n      dup4\n      gt\n      tag_25\n      jumpi\n      dup3\n      swap1\n      sub\n      0x1f\n      and\n      dup3\n      add\n      swap2\n    tag_23:\n      pop\n      pop\n      pop\n      pop\n      pop\n      dup2\n      mstore\n      0x20\n      add\n      swap1\n      0x01\n      add\n      swap1\n      jump(tag_17)\n    tag_18:\n      pop\n      pop\n      pop\n      pop\n      swap1\n      pop\n        /* \"Todo.sol\":273:360  function showTodo() public view returns(string[] memory){\r... */\n      swap1\n      jump\t// out\n        /* \"Todo.sol\":109:188  function addTodo(string memory todo) public {\r... */\n    tag_13:\n        /* \"Todo.sol\":164:169  todos */\n      0x00\n        /* \"Todo.sol\":175:179  todo */\n      dup2\n        /* \"Todo.sol\":164:180  todos.push(todo) */\n      swap1\n      dup1\n      0x01\n      dup2\n      sload\n      add\n      dup1\n      dup3\n      sstore\n      dup1\n      swap2\n      pop\n      pop\n      0x01\n      swap1\n      sub\n      swap1\n      0x00\n      mstore\n      keccak256(0x00, 0x20)\n      add\n      0x00\n      swap1\n      swap2\n      swap1\n      swap2\n      swap1\n      swap2\n      pop\n      swap1\n      dup1\n      mload\n      swap1\n      0x20\n      add\n      swap1\n      tag_28\n      swap3\n      swap2\n      swap1\n      tag_29\n      jump\t// in\n    tag_28:\n      pop\n        /* \"Todo.sol\":109:188  function addTodo(string memory todo) public {\r... */\n      pop\n      jump\t// out\n        /* \"Todo.sol\":196:265  function resetTodo() public{\r... */\n    tag_15:\n        /* \"Todo.sol\":255:256  0 */\n      0x00\n        /* \"Todo.sol\":242:257  new string[](0) */\n      0xffffffffffffffff\n      dup2\n      gt\n      iszero\n      tag_31\n      jumpi\n      tag_32\n      tag_33\n      jump\t// in\n    tag_32:\n    tag_31:\n      mload(0x40)\n      swap1\n      dup1\n      dup3\n      mstore\n      dup1\n      0x20\n      mul\n      0x20\n      add\n      dup3\n      add\n      0x40\n      mstore\n      dup1\n      iszero\n      tag_34\n      jumpi\n      dup2\n      0x20\n      add\n    tag_35:\n      0x60\n      dup2\n      mstore\n      0x20\n      add\n      swap1\n      0x01\n      swap1\n      sub\n      swap1\n      dup2\n      tag_35\n      jumpi\n      swap1\n      pop\n    tag_34:\n      pop\n        /* \"Todo.sol\":234:239  todos */\n      0x00\n        /* \"Todo.sol\":234:257  todos = new string[](0) */\n      swap1\n      dup1\n      mload\n      swap1\n      0x20\n      add\n      swap1\n      tag_36\n      swap3\n      swap2\n      swap1\n      tag_37\n      jump\t// in\n    tag_36:\n      pop\n        /* \"Todo.sol\":196:265  function resetTodo() public{\r... */\n      jump\t// out\n    tag_29:\n      dup3\n      dup1\n      sload\n      tag_38\n      swap1\n      tag_21\n      jump\t// in\n    tag_38:\n      swap1\n      0x00\n      mstore\n      keccak256(0x00, 0x20)\n      swap1\n      0x1f\n      add\n      0x20\n      swap1\n      div\n      dup2\n      add\n      swap3\n      dup3\n      tag_40\n      jumpi\n      0x00\n      dup6\n      sstore\n      jump(tag_39)\n    tag_40:\n      dup3\n      0x1f\n      lt\n      tag_41\n      jumpi\n      dup1\n      mload\n      not(0xff)\n      and\n      dup4\n      dup1\n      add\n      or\n      dup6\n      sstore\n      jump(tag_39)\n    tag_41:\n      dup3\n      dup1\n      add\n      0x01\n      add\n      dup6\n      sstore\n      dup3\n      iszero\n      tag_39\n      jumpi\n      swap2\n      dup3\n      add\n    tag_42:\n      dup3\n      dup2\n      gt\n      iszero\n      tag_43\n      jumpi\n      dup3\n      mload\n      dup3\n      sstore\n      swap2\n      0x20\n      add\n      swap2\n      swap1\n      0x01\n      add\n      swap1\n      jump(tag_42)\n    tag_43:\n    tag_39:\n      pop\n      swap1\n      pop\n      tag_44\n      swap2\n      swap1\n      tag_45\n      jump\t// in\n    tag_44:\n      pop\n      swap1\n      jump\t// out\n    tag_37:\n      dup3\n      dup1\n      sload\n      dup3\n      dup3\n      sstore\n      swap1\n      0x00\n      mstore\n      keccak256(0x00, 0x20)\n      swap1\n      dup2\n      add\n      swap3\n      dup3\n      iszero\n      tag_46\n      jumpi\n      swap2\n      0x20\n      mul\n      dup3\n      add\n    tag_47:\n      dup3\n      dup2\n      gt\n      iszero\n      tag_48\n      jumpi\n      dup3\n      mload\n      dup3\n      swap1\n      dup1\n      mload\n      swap1\n      0x20\n      add\n      swap1\n      tag_49\n      swap3\n      swap2\n      swap1\n      tag_29\n      jump\t// in\n    tag_49:\n      pop\n      swap2\n      0x20\n      add\n      swap2\n      swap1\n      0x01\n      add\n      swap1\n      jump(tag_47)\n    tag_48:\n    tag_46:\n      pop\n      swap1\n      pop\n      tag_50\n      swap2\n      swap1\n      tag_51\n      jump\t// in\n    tag_50:\n      pop\n      swap1\n      jump\t// out\n    tag_45:\n    tag_52:\n      dup1\n      dup3\n      gt\n      iszero\n      tag_53\n      jumpi\n      0x00\n      dup2\n      0x00\n      swap1\n      sstore\n      pop\n      0x01\n      add\n      jump(tag_52)\n    tag_53:\n      pop\n      swap1\n      jump\t// out\n    tag_51:\n    tag_54:\n      dup1\n      dup3\n      gt\n      iszero\n      tag_55\n      jumpi\n      0x00\n      dup2\n      dup2\n      tag_56\n      swap2\n      swap1\n      tag_57\n      jump\t// in\n    tag_56:\n      pop\n      0x01\n      add\n      jump(tag_54)\n    tag_55:\n      pop\n      swap1\n      jump\t// out\n    tag_57:\n      pop\n      dup1\n      sload\n      tag_58\n      swap1\n      tag_21\n      jump\t// in\n    tag_58:\n      0x00\n      dup3\n      sstore\n      dup1\n      0x1f\n      lt\n      tag_60\n      jumpi\n      pop\n      jump(tag_59)\n    tag_60:\n      0x1f\n      add\n      0x20\n      swap1\n      div\n      swap1\n      0x00\n      mstore\n      keccak256(0x00, 0x20)\n      swap1\n      dup2\n      add\n      swap1\n      tag_61\n      swap2\n      swap1\n      tag_45\n      jump\t// in\n    tag_61:\n    tag_59:\n      pop\n      jump\t// out\n        /* \"#utility.yul\":7:419   */\n    tag_63:\n        /* \"#utility.yul\":85:90   */\n      0x00\n        /* \"#utility.yul\":110:176   */\n      tag_65\n        /* \"#utility.yul\":126:175   */\n      tag_66\n        /* \"#utility.yul\":168:174   */\n      dup5\n        /* \"#utility.yul\":126:175   */\n      tag_67\n      jump\t// in\n    tag_66:\n        /* \"#utility.yul\":110:176   */\n      tag_68\n      jump\t// in\n    tag_65:\n        /* \"#utility.yul\":101:176   */\n      swap1\n      pop\n        /* \"#utility.yul\":199:205   */\n      dup3\n        /* \"#utility.yul\":192:197   */\n      dup2\n        /* \"#utility.yul\":185:206   */\n      mstore\n        /* \"#utility.yul\":237:241   */\n      0x20\n        /* \"#utility.yul\":230:235   */\n      dup2\n        /* \"#utility.yul\":226:242   */\n      add\n        /* \"#utility.yul\":275:278   */\n      dup5\n        /* \"#utility.yul\":266:272   */\n      dup5\n        /* \"#utility.yul\":261:264   */\n      dup5\n        /* \"#utility.yul\":257:273   */\n      add\n        /* \"#utility.yul\":254:279   */\n      gt\n        /* \"#utility.yul\":251:363   */\n      iszero\n      tag_69\n      jumpi\n        /* \"#utility.yul\":282:361   */\n      tag_70\n      tag_71\n      jump\t// in\n    tag_70:\n        /* \"#utility.yul\":251:363   */\n    tag_69:\n        /* \"#utility.yul\":372:413   */\n      tag_72\n        /* \"#utility.yul\":406:412   */\n      dup5\n        /* \"#utility.yul\":401:404   */\n      dup3\n        /* \"#utility.yul\":396:399   */\n      dup6\n        /* \"#utility.yul\":372:413   */\n      tag_73\n      jump\t// in\n    tag_72:\n        /* \"#utility.yul\":91:419   */\n      pop\n        /* \"#utility.yul\":7:419   */\n      swap4\n      swap3\n      pop\n      pop\n      pop\n      jump\t// out\n        /* \"#utility.yul\":439:779   */\n    tag_74:\n        /* \"#utility.yul\":495:500   */\n      0x00\n        /* \"#utility.yul\":544:547   */\n      dup3\n        /* \"#utility.yul\":537:541   */\n      0x1f\n        /* \"#utility.yul\":529:535   */\n      dup4\n        /* \"#utility.yul\":525:542   */\n      add\n        /* \"#utility.yul\":521:548   */\n      slt\n        /* \"#utility.yul\":511:633   */\n      tag_76\n      jumpi\n        /* \"#utility.yul\":552:631   */\n      tag_77\n      tag_78\n      jump\t// in\n    tag_77:\n        /* \"#utility.yul\":511:633   */\n    tag_76:\n        /* \"#utility.yul\":669:675   */\n      dup2\n        /* \"#utility.yul\":656:676   */\n      calldataload\n        /* \"#utility.yul\":694:773   */\n      tag_79\n        /* \"#utility.yul\":769:772   */\n      dup5\n        /* \"#utility.yul\":761:767   */\n      dup3\n        /* \"#utility.yul\":754:758   */\n      0x20\n        /* \"#utility.yul\":746:752   */\n      dup7\n        /* \"#utility.yul\":742:759   */\n      add\n        /* \"#utility.yul\":694:773   */\n      tag_63\n      jump\t// in\n    tag_79:\n        /* \"#utility.yul\":685:773   */\n      swap2\n      pop\n        /* \"#utility.yul\":501:779   */\n      pop\n        /* \"#utility.yul\":439:779   */\n      swap3\n      swap2\n      pop\n      pop\n      jump\t// out\n        /* \"#utility.yul\":785:1294   */\n    tag_12:\n        /* \"#utility.yul\":854:860   */\n      0x00\n        /* \"#utility.yul\":903:905   */\n      0x20\n        /* \"#utility.yul\":891:900   */\n      dup3\n        /* \"#utility.yul\":882:889   */\n      dup5\n        /* \"#utility.yul\":878:901   */\n      sub\n        /* \"#utility.yul\":874:906   */\n      slt\n        /* \"#utility.yul\":871:990   */\n      iszero\n      tag_81\n      jumpi\n        /* \"#utility.yul\":909:988   */\n      tag_82\n      tag_83\n      jump\t// in\n    tag_82:\n        /* \"#utility.yul\":871:990   */\n    tag_81:\n        /* \"#utility.yul\":1057:1058   */\n      0x00\n        /* \"#utility.yul\":1046:1055   */\n      dup3\n        /* \"#utility.yul\":1042:1059   */\n      add\n        /* \"#utility.yul\":1029:1060   */\n      calldataload\n        /* \"#utility.yul\":1087:1105   */\n      0xffffffffffffffff\n        /* \"#utility.yul\":1079:1085   */\n      dup2\n        /* \"#utility.yul\":1076:1106   */\n      gt\n        /* \"#utility.yul\":1073:1190   */\n      iszero\n      tag_84\n      jumpi\n        /* \"#utility.yul\":1109:1188   */\n      tag_85\n      tag_86\n      jump\t// in\n    tag_85:\n        /* \"#utility.yul\":1073:1190   */\n    tag_84:\n        /* \"#utility.yul\":1214:1277   */\n      tag_87\n        /* \"#utility.yul\":1269:1276   */\n      dup5\n        /* \"#utility.yul\":1260:1266   */\n      dup3\n        /* \"#utility.yul\":1249:1258   */\n      dup6\n        /* \"#utility.yul\":1245:1267   */\n      add\n        /* \"#utility.yul\":1214:1277   */\n      tag_74\n      jump\t// in\n    tag_87:\n        /* \"#utility.yul\":1204:1277   */\n      swap2\n      pop\n        /* \"#utility.yul\":1000:1287   */\n      pop\n        /* \"#utility.yul\":785:1294   */\n      swap3\n      swap2\n      pop\n      pop\n      jump\t// out\n        /* \"#utility.yul\":1300:1496   */\n    tag_88:\n        /* \"#utility.yul\":1389:1399   */\n      0x00\n        /* \"#utility.yul\":1424:1490   */\n      tag_90\n        /* \"#utility.yul\":1486:1489   */\n      dup4\n        /* \"#utility.yul\":1478:1484   */\n      dup4\n        /* \"#utility.yul\":1424:1490   */\n      tag_91\n      jump\t// in\n    tag_90:\n        /* \"#utility.yul\":1410:1490   */\n      swap1\n      pop\n        /* \"#utility.yul\":1300:1496   */\n      swap3\n      swap2\n      pop\n      pop\n      jump\t// out\n        /* \"#utility.yul\":1530:2521   */\n    tag_92:\n        /* \"#utility.yul\":1669:1672   */\n      0x00\n        /* \"#utility.yul\":1698:1762   */\n      tag_94\n        /* \"#utility.yul\":1756:1761   */\n      dup3\n        /* \"#utility.yul\":1698:1762   */\n      tag_95\n      jump\t// in\n    tag_94:\n        /* \"#utility.yul\":1778:1874   */\n      tag_96\n        /* \"#utility.yul\":1867:1873   */\n      dup2\n        /* \"#utility.yul\":1862:1865   */\n      dup6\n        /* \"#utility.yul\":1778:1874   */\n      tag_97\n      jump\t// in\n    tag_96:\n        /* \"#utility.yul\":1771:1874   */\n      swap4\n      pop\n        /* \"#utility.yul\":1900:1903   */\n      dup4\n        /* \"#utility.yul\":1945:1949   */\n      0x20\n        /* \"#utility.yul\":1937:1943   */\n      dup3\n        /* \"#utility.yul\":1933:1950   */\n      mul\n        /* \"#utility.yul\":1928:1931   */\n      dup6\n        /* \"#utility.yul\":1924:1951   */\n      add\n        /* \"#utility.yul\":1975:2041   */\n      tag_98\n        /* \"#utility.yul\":2035:2040   */\n      dup6\n        /* \"#utility.yul\":1975:2041   */\n      tag_99\n      jump\t// in\n    tag_98:\n        /* \"#utility.yul\":2064:2071   */\n      dup1\n        /* \"#utility.yul\":2095:2096   */\n      0x00\n        /* \"#utility.yul\":2080:2476   */\n    tag_100:\n        /* \"#utility.yul\":2105:2111   */\n      dup6\n        /* \"#utility.yul\":2102:2103   */\n      dup2\n        /* \"#utility.yul\":2099:2112   */\n      lt\n        /* \"#utility.yul\":2080:2476   */\n      iszero\n      tag_102\n      jumpi\n        /* \"#utility.yul\":2176:2185   */\n      dup5\n        /* \"#utility.yul\":2170:2174   */\n      dup5\n        /* \"#utility.yul\":2166:2186   */\n      sub\n        /* \"#utility.yul\":2161:2164   */\n      dup10\n        /* \"#utility.yul\":2154:2187   */\n      mstore\n        /* \"#utility.yul\":2227:2233   */\n      dup2\n        /* \"#utility.yul\":2221:2234   */\n      mload\n        /* \"#utility.yul\":2255:2339   */\n      tag_103\n        /* \"#utility.yul\":2334:2338   */\n      dup6\n        /* \"#utility.yul\":2319:2332   */\n      dup3\n        /* \"#utility.yul\":2255:2339   */\n      tag_88\n      jump\t// in\n    tag_103:\n        /* \"#utility.yul\":2247:2339   */\n      swap5\n      pop\n        /* \"#utility.yul\":2362:2432   */\n      tag_104\n        /* \"#utility.yul\":2425:2431   */\n      dup4\n        /* \"#utility.yul\":2362:2432   */\n      tag_105\n      jump\t// in\n    tag_104:\n        /* \"#utility.yul\":2352:2432   */\n      swap3\n      pop\n        /* \"#utility.yul\":2461:2465   */\n      0x20\n        /* \"#utility.yul\":2456:2459   */\n      dup11\n        /* \"#utility.yul\":2452:2466   */\n      add\n        /* \"#utility.yul\":2445:2466   */\n      swap10\n      pop\n        /* \"#utility.yul\":2140:2476   */\n      pop\n        /* \"#utility.yul\":2127:2128   */\n      0x01\n        /* \"#utility.yul\":2124:2125   */\n      dup2\n        /* \"#utility.yul\":2120:2129   */\n      add\n        /* \"#utility.yul\":2115:2129   */\n      swap1\n      pop\n        /* \"#utility.yul\":2080:2476   */\n      jump(tag_100)\n    tag_102:\n        /* \"#utility.yul\":2084:2098   */\n      pop\n        /* \"#utility.yul\":2492:2496   */\n      dup3\n        /* \"#utility.yul\":2485:2496   */\n      swap8\n      pop\n        /* \"#utility.yul\":2512:2515   */\n      dup8\n        /* \"#utility.yul\":2505:2515   */\n      swap6\n      pop\n        /* \"#utility.yul\":1674:2521   */\n      pop\n      pop\n      pop\n      pop\n      pop\n        /* \"#utility.yul\":1530:2521   */\n      swap3\n      swap2\n      pop\n      pop\n      jump\t// out\n        /* \"#utility.yul\":2527:2871   */\n    tag_91:\n        /* \"#utility.yul\":2605:2608   */\n      0x00\n        /* \"#utility.yul\":2633:2672   */\n      tag_107\n        /* \"#utility.yul\":2666:2671   */\n      dup3\n        /* \"#utility.yul\":2633:2672   */\n      tag_108\n      jump\t// in\n    tag_107:\n        /* \"#utility.yul\":2688:2749   */\n      tag_109\n        /* \"#utility.yul\":2742:2748   */\n      dup2\n        /* \"#utility.yul\":2737:2740   */\n      dup6\n        /* \"#utility.yul\":2688:2749   */\n      tag_110\n      jump\t// in\n    tag_109:\n        /* \"#utility.yul\":2681:2749   */\n      swap4\n      pop\n        /* \"#utility.yul\":2758:2810   */\n      tag_111\n        /* \"#utility.yul\":2803:2809   */\n      dup2\n        /* \"#utility.yul\":2798:2801   */\n      dup6\n        /* \"#utility.yul\":2791:2795   */\n      0x20\n        /* \"#utility.yul\":2784:2789   */\n      dup7\n        /* \"#utility.yul\":2780:2796   */\n      add\n        /* \"#utility.yul\":2758:2810   */\n      tag_112\n      jump\t// in\n    tag_111:\n        /* \"#utility.yul\":2835:2864   */\n      tag_113\n        /* \"#utility.yul\":2857:2863   */\n      dup2\n        /* \"#utility.yul\":2835:2864   */\n      tag_114\n      jump\t// in\n    tag_113:\n        /* \"#utility.yul\":2830:2833   */\n      dup5\n        /* \"#utility.yul\":2826:2865   */\n      add\n        /* \"#utility.yul\":2819:2865   */\n      swap2\n      pop\n        /* \"#utility.yul\":2609:2871   */\n      pop\n        /* \"#utility.yul\":2527:2871   */\n      swap3\n      swap2\n      pop\n      pop\n      jump\t// out\n        /* \"#utility.yul\":2877:3290   */\n    tag_9:\n        /* \"#utility.yul\":3040:3044   */\n      0x00\n        /* \"#utility.yul\":3078:3080   */\n      0x20\n        /* \"#utility.yul\":3067:3076   */\n      dup3\n        /* \"#utility.yul\":3063:3081   */\n      add\n        /* \"#utility.yul\":3055:3081   */\n      swap1\n      pop\n        /* \"#utility.yul\":3127:3136   */\n      dup2\n        /* \"#utility.yul\":3121:3125   */\n      dup2\n        /* \"#utility.yul\":3117:3137   */\n      sub\n        /* \"#utility.yul\":3113:3114   */\n      0x00\n        /* \"#utility.yul\":3102:3111   */\n      dup4\n        /* \"#utility.yul\":3098:3115   */\n      add\n        /* \"#utility.yul\":3091:3138   */\n      mstore\n        /* \"#utility.yul\":3155:3283   */\n      tag_116\n        /* \"#utility.yul\":3278:3282   */\n      dup2\n        /* \"#utility.yul\":3269:3275   */\n      dup5\n        /* \"#utility.yul\":3155:3283   */\n      tag_92\n      jump\t// in\n    tag_116:\n        /* \"#utility.yul\":3147:3283   */\n      swap1\n      pop\n        /* \"#utility.yul\":2877:3290   */\n      swap3\n      swap2\n      pop\n      pop\n      jump\t// out\n        /* \"#utility.yul\":3296:3425   */\n    tag_68:\n        /* \"#utility.yul\":3330:3336   */\n      0x00\n        /* \"#utility.yul\":3357:3377   */\n      tag_118\n      tag_119\n      jump\t// in\n    tag_118:\n        /* \"#utility.yul\":3347:3377   */\n      swap1\n      pop\n        /* \"#utility.yul\":3386:3419   */\n      tag_120\n        /* \"#utility.yul\":3414:3418   */\n      dup3\n        /* \"#utility.yul\":3406:3412   */\n      dup3\n        /* \"#utility.yul\":3386:3419   */\n      tag_121\n      jump\t// in\n    tag_120:\n        /* \"#utility.yul\":3296:3425   */\n      swap2\n      swap1\n      pop\n      jump\t// out\n        /* \"#utility.yul\":3431:3506   */\n    tag_119:\n        /* \"#utility.yul\":3464:3470   */\n      0x00\n        /* \"#utility.yul\":3497:3499   */\n      0x40\n        /* \"#utility.yul\":3491:3500   */\n      mload\n        /* \"#utility.yul\":3481:3500   */\n      swap1\n      pop\n        /* \"#utility.yul\":3431:3506   */\n      swap1\n      jump\t// out\n        /* \"#utility.yul\":3512:3820   */\n    tag_67:\n        /* \"#utility.yul\":3574:3578   */\n      0x00\n        /* \"#utility.yul\":3664:3682   */\n      0xffffffffffffffff\n        /* \"#utility.yul\":3656:3662   */\n      dup3\n        /* \"#utility.yul\":3653:3683   */\n      gt\n        /* \"#utility.yul\":3650:3706   */\n      iszero\n      tag_124\n      jumpi\n        /* \"#utility.yul\":3686:3704   */\n      tag_125\n      tag_33\n      jump\t// in\n    tag_125:\n        /* \"#utility.yul\":3650:3706   */\n    tag_124:\n        /* \"#utility.yul\":3724:3753   */\n      tag_126\n        /* \"#utility.yul\":3746:3752   */\n      dup3\n        /* \"#utility.yul\":3724:3753   */\n      tag_114\n      jump\t// in\n    tag_126:\n        /* \"#utility.yul\":3716:3753   */\n      swap1\n      pop\n        /* \"#utility.yul\":3808:3812   */\n      0x20\n        /* \"#utility.yul\":3802:3806   */\n      dup2\n        /* \"#utility.yul\":3798:3813   */\n      add\n        /* \"#utility.yul\":3790:3813   */\n      swap1\n      pop\n        /* \"#utility.yul\":3512:3820   */\n      swap2\n      swap1\n      pop\n      jump\t// out\n        /* \"#utility.yul\":3826:3968   */\n    tag_99:\n        /* \"#utility.yul\":3903:3907   */\n      0x00\n        /* \"#utility.yul\":3926:3929   */\n      dup2\n        /* \"#utility.yul\":3918:3929   */\n      swap1\n      pop\n        /* \"#utility.yul\":3956:3960   */\n      0x20\n        /* \"#utility.yul\":3951:3954   */\n      dup3\n        /* \"#utility.yul\":3947:3961   */\n      add\n        /* \"#utility.yul\":3939:3961   */\n      swap1\n      pop\n        /* \"#utility.yul\":3826:3968   */\n      swap2\n      swap1\n      pop\n      jump\t// out\n        /* \"#utility.yul\":3974:4098   */\n    tag_95:\n        /* \"#utility.yul\":4051:4057   */\n      0x00\n        /* \"#utility.yul\":4085:4090   */\n      dup2\n        /* \"#utility.yul\":4079:4091   */\n      mload\n        /* \"#utility.yul\":4069:4091   */\n      swap1\n      pop\n        /* \"#utility.yul\":3974:4098   */\n      swap2\n      swap1\n      pop\n      jump\t// out\n        /* \"#utility.yul\":4104:4203   */\n    tag_108:\n        /* \"#utility.yul\":4156:4162   */\n      0x00\n        /* \"#utility.yul\":4190:4195   */\n      dup2\n        /* \"#utility.yul\":4184:4196   */\n      mload\n        /* \"#utility.yul\":4174:4196   */\n      swap1\n      pop\n        /* \"#utility.yul\":4104:4203   */\n      swap2\n      swap1\n      pop\n      jump\t// out\n        /* \"#utility.yul\":4209:4332   */\n    tag_105:\n        /* \"#utility.yul\":4289:4293   */\n      0x00\n        /* \"#utility.yul\":4321:4325   */\n      0x20\n        /* \"#utility.yul\":4316:4319   */\n      dup3\n        /* \"#utility.yul\":4312:4326   */\n      add\n        /* \"#utility.yul\":4304:4326   */\n      swap1\n      pop\n        /* \"#utility.yul\":4209:4332   */\n      swap2\n      swap1\n      pop\n      jump\t// out\n        /* \"#utility.yul\":4338:4532   */\n    tag_97:\n        /* \"#utility.yul\":4447:4458   */\n      0x00\n        /* \"#utility.yul\":4481:4487   */\n      dup3\n        /* \"#utility.yul\":4476:4479   */\n      dup3\n        /* \"#utility.yul\":4469:4488   */\n      mstore\n        /* \"#utility.yul\":4521:4525   */\n      0x20\n        /* \"#utility.yul\":4516:4519   */\n      dup3\n        /* \"#utility.yul\":4512:4526   */\n      add\n        /* \"#utility.yul\":4497:4526   */\n      swap1\n      pop\n        /* \"#utility.yul\":4338:4532   */\n      swap3\n      swap2\n      pop\n      pop\n      jump\t// out\n        /* \"#utility.yul\":4538:4697   */\n    tag_110:\n        /* \"#utility.yul\":4612:4623   */\n      0x00\n        /* \"#utility.yul\":4646:4652   */\n      dup3\n        /* \"#utility.yul\":4641:4644   */\n      dup3\n        /* \"#utility.yul\":4634:4653   */\n      mstore\n        /* \"#utility.yul\":4686:4690   */\n      0x20\n        /* \"#utility.yul\":4681:4684   */\n      dup3\n        /* \"#utility.yul\":4677:4691   */\n      add\n        /* \"#utility.yul\":4662:4691   */\n      swap1\n      pop\n        /* \"#utility.yul\":4538:4697   */\n      swap3\n      swap2\n      pop\n      pop\n      jump\t// out\n        /* \"#utility.yul\":4703:4857   */\n    tag_73:\n        /* \"#utility.yul\":4787:4793   */\n      dup3\n        /* \"#utility.yul\":4782:4785   */\n      dup2\n        /* \"#utility.yul\":4777:4780   */\n      dup4\n        /* \"#utility.yul\":4764:4794   */\n      calldatacopy\n        /* \"#utility.yul\":4849:4850   */\n      0x00\n        /* \"#utility.yul\":4840:4846   */\n      dup4\n        /* \"#utility.yul\":4835:4838   */\n      dup4\n        /* \"#utility.yul\":4831:4847   */\n      add\n        /* \"#utility.yul\":4824:4851   */\n      mstore\n        /* \"#utility.yul\":4703:4857   */\n      pop\n      pop\n      pop\n      jump\t// out\n        /* \"#utility.yul\":4863:5170   */\n    tag_112:\n        /* \"#utility.yul\":4931:4932   */\n      0x00\n        /* \"#utility.yul\":4941:5054   */\n    tag_135:\n        /* \"#utility.yul\":4955:4961   */\n      dup4\n        /* \"#utility.yul\":4952:4953   */\n      dup2\n        /* \"#utility.yul\":4949:4962   */\n      lt\n        /* \"#utility.yul\":4941:5054   */\n      iszero\n      tag_137\n      jumpi\n        /* \"#utility.yul\":5040:5041   */\n      dup1\n        /* \"#utility.yul\":5035:5038   */\n      dup3\n        /* \"#utility.yul\":5031:5042   */\n      add\n        /* \"#utility.yul\":5025:5043   */\n      mload\n        /* \"#utility.yul\":5021:5022   */\n      dup2\n        /* \"#utility.yul\":5016:5019   */\n      dup5\n        /* \"#utility.yul\":5012:5023   */\n      add\n        /* \"#utility.yul\":5005:5044   */\n      mstore\n        /* \"#utility.yul\":4977:4979   */\n      0x20\n        /* \"#utility.yul\":4974:4975   */\n      dup2\n        /* \"#utility.yul\":4970:4980   */\n      add\n        /* \"#utility.yul\":4965:4980   */\n      swap1\n      pop\n        /* \"#utility.yul\":4941:5054   */\n      jump(tag_135)\n    tag_137:\n        /* \"#utility.yul\":5072:5078   */\n      dup4\n        /* \"#utility.yul\":5069:5070   */\n      dup2\n        /* \"#utility.yul\":5066:5079   */\n      gt\n        /* \"#utility.yul\":5063:5164   */\n      iszero\n      tag_138\n      jumpi\n        /* \"#utility.yul\":5152:5153   */\n      0x00\n        /* \"#utility.yul\":5143:5149   */\n      dup5\n        /* \"#utility.yul\":5138:5141   */\n      dup5\n        /* \"#utility.yul\":5134:5150   */\n      add\n        /* \"#utility.yul\":5127:5154   */\n      mstore\n        /* \"#utility.yul\":5063:5164   */\n    tag_138:\n        /* \"#utility.yul\":4912:5170   */\n      pop\n        /* \"#utility.yul\":4863:5170   */\n      pop\n      pop\n      pop\n      jump\t// out\n        /* \"#utility.yul\":5176:5496   */\n    tag_21:\n        /* \"#utility.yul\":5220:5226   */\n      0x00\n        /* \"#utility.yul\":5257:5258   */\n      0x02\n        /* \"#utility.yul\":5251:5255   */\n      dup3\n        /* \"#utility.yul\":5247:5259   */\n      div\n        /* \"#utility.yul\":5237:5259   */\n      swap1\n      pop\n        /* \"#utility.yul\":5304:5305   */\n      0x01\n        /* \"#utility.yul\":5298:5302   */\n      dup3\n        /* \"#utility.yul\":5294:5306   */\n      and\n        /* \"#utility.yul\":5325:5343   */\n      dup1\n        /* \"#utility.yul\":5315:5396   */\n      tag_140\n      jumpi\n        /* \"#utility.yul\":5381:5385   */\n      0x7f\n        /* \"#utility.yul\":5373:5379   */\n      dup3\n        /* \"#utility.yul\":5369:5386   */\n      and\n        /* \"#utility.yul\":5359:5386   */\n      swap2\n      pop\n        /* \"#utility.yul\":5315:5396   */\n    tag_140:\n        /* \"#utility.yul\":5443:5445   */\n      0x20\n        /* \"#utility.yul\":5435:5441   */\n      dup3\n        /* \"#utility.yul\":5432:5446   */\n      lt\n        /* \"#utility.yul\":5412:5430   */\n      dup2\n        /* \"#utility.yul\":5409:5447   */\n      eq\n        /* \"#utility.yul\":5406:5490   */\n      iszero\n      tag_141\n      jumpi\n        /* \"#utility.yul\":5462:5480   */\n      tag_142\n      tag_143\n      jump\t// in\n    tag_142:\n        /* \"#utility.yul\":5406:5490   */\n    tag_141:\n        /* \"#utility.yul\":5227:5496   */\n      pop\n        /* \"#utility.yul\":5176:5496   */\n      swap2\n      swap1\n      pop\n      jump\t// out\n        /* \"#utility.yul\":5502:5783   */\n    tag_121:\n        /* \"#utility.yul\":5585:5612   */\n      tag_145\n        /* \"#utility.yul\":5607:5611   */\n      dup3\n        /* \"#utility.yul\":5585:5612   */\n      tag_114\n      jump\t// in\n    tag_145:\n        /* \"#utility.yul\":5577:5583   */\n      dup2\n        /* \"#utility.yul\":5573:5613   */\n      add\n        /* \"#utility.yul\":5715:5721   */\n      dup2\n        /* \"#utility.yul\":5703:5713   */\n      dup2\n        /* \"#utility.yul\":5700:5722   */\n      lt\n        /* \"#utility.yul\":5679:5697   */\n      0xffffffffffffffff\n        /* \"#utility.yul\":5667:5677   */\n      dup3\n        /* \"#utility.yul\":5664:5698   */\n      gt\n        /* \"#utility.yul\":5661:5723   */\n      or\n        /* \"#utility.yul\":5658:5746   */\n      iszero\n      tag_146\n      jumpi\n        /* \"#utility.yul\":5726:5744   */\n      tag_147\n      tag_33\n      jump\t// in\n    tag_147:\n        /* \"#utility.yul\":5658:5746   */\n    tag_146:\n        /* \"#utility.yul\":5766:5776   */\n      dup1\n        /* \"#utility.yul\":5762:5764   */\n      0x40\n        /* \"#utility.yul\":5755:5777   */\n      mstore\n        /* \"#utility.yul\":5545:5783   */\n      pop\n        /* \"#utility.yul\":5502:5783   */\n      pop\n      pop\n      jump\t// out\n        /* \"#utility.yul\":5789:5969   */\n    tag_143:\n        /* \"#utility.yul\":5837:5914   */\n      0x4e487b7100000000000000000000000000000000000000000000000000000000\n        /* \"#utility.yul\":5834:5835   */\n      0x00\n        /* \"#utility.yul\":5827:5915   */\n      mstore\n        /* \"#utility.yul\":5934:5938   */\n      0x22\n        /* \"#utility.yul\":5931:5932   */\n      0x04\n        /* \"#utility.yul\":5924:5939   */\n      mstore\n        /* \"#utility.yul\":5958:5962   */\n      0x24\n        /* \"#utility.yul\":5955:5956   */\n      0x00\n        /* \"#utility.yul\":5948:5963   */\n      revert\n        /* \"#utility.yul\":5975:6155   */\n    tag_33:\n        /* \"#utility.yul\":6023:6100   */\n      0x4e487b7100000000000000000000000000000000000000000000000000000000\n        /* \"#utility.yul\":6020:6021   */\n      0x00\n        /* \"#utility.yul\":6013:6101   */\n      mstore\n        /* \"#utility.yul\":6120:6124   */\n      0x41\n        /* \"#utility.yul\":6117:6118   */\n      0x04\n        /* \"#utility.yul\":6110:6125   */\n      mstore\n        /* \"#utility.yul\":6144:6148   */\n      0x24\n        /* \"#utility.yul\":6141:6142   */\n      0x00\n        /* \"#utility.yul\":6134:6149   */\n      revert\n        /* \"#utility.yul\":6161:6278   */\n    tag_78:\n        /* \"#utility.yul\":6270:6271   */\n      0x00\n        /* \"#utility.yul\":6267:6268   */\n      dup1\n        /* \"#utility.yul\":6260:6272   */\n      revert\n        /* \"#utility.yul\":6284:6401   */\n    tag_71:\n        /* \"#utility.yul\":6393:6394   */\n      0x00\n        /* \"#utility.yul\":6390:6391   */\n      dup1\n        /* \"#utility.yul\":6383:6395   */\n      revert\n        /* \"#utility.yul\":6407:6524   */\n    tag_86:\n        /* \"#utility.yul\":6516:6517   */\n      0x00\n        /* \"#utility.yul\":6513:6514   */\n      dup1\n        /* \"#utility.yul\":6506:6518   */\n      revert\n        /* \"#utility.yul\":6530:6647   */\n    tag_83:\n        /* \"#utility.yul\":6639:6640   */\n      0x00\n        /* \"#utility.yul\":6636:6637   */\n      dup1\n        /* \"#utility.yul\":6629:6641   */\n      revert\n        /* \"#utility.yul\":6653:6755   */\n    tag_114:\n        /* \"#utility.yul\":6694:6700   */\n      0x00\n        /* \"#utility.yul\":6745:6747   */\n      0x1f\n        /* \"#utility.yul\":6741:6748   */\n      not\n        /* \"#utility.yul\":6736:6738   */\n      0x1f\n        /* \"#utility.yul\":6729:6734   */\n      dup4\n        /* \"#utility.yul\":6725:6739   */\n      add\n        /* \"#utility.yul\":6721:6749   */\n      and\n        /* \"#utility.yul\":6711:6749   */\n      swap1\n      pop\n        /* \"#utility.yul\":6653:6755   */\n      swap2\n      swap1\n      pop\n      jump\t// out\n\n    auxdata: 0xa26469706673582212200bdf49e4c2520bed84e80a2f3b199ba84fc3f51a375e8826a8f724ec712eaf7f64736f6c63430008070033\n}\n",
				"bytecode": {
					"linkReferences": {},
					"object": "608060405234801561001057600080fd5b50610716806100206000396000f3fe608060405234801561001057600080fd5b50600436106100415760003560e01c806382e76b881461004657806395ffebf514610064578063cbed9e0714610080575b600080fd5b61004e61008a565b60405161005b91906104eb565b60405180910390f35b61007e600480360381019061007991906103e0565b610163565b005b6100886101a2565b005b60606000805480602002602001604051908101604052809291908181526020016000905b8282101561015a5783829060005260206000200180546100cd906105fa565b80601f01602080910402602001604051908101604052809291908181526020018280546100f9906105fa565b80156101465780601f1061011b57610100808354040283529160200191610146565b820191906000526020600020905b81548152906001019060200180831161012957829003601f168201915b5050505050815260200190600101906100ae565b50505050905090565b60008190806001815401808255809150506001900390600052602060002001600090919091909150908051906020019061019e929190610209565b5050565b600067ffffffffffffffff8111156101bd576101bc61068c565b5b6040519080825280602002602001820160405280156101f057816020015b60608152602001906001900390816101db5790505b506000908051906020019061020692919061028f565b50565b828054610215906105fa565b90600052602060002090601f016020900481019282610237576000855561027e565b82601f1061025057805160ff191683800117855561027e565b8280016001018555821561027e579182015b8281111561027d578251825591602001919060010190610262565b5b50905061028b91906102ef565b5090565b8280548282559060005260206000209081019282156102de579160200282015b828111156102dd5782518290805190602001906102cd929190610209565b50916020019190600101906102af565b5b5090506102eb919061030c565b5090565b5b808211156103085760008160009055506001016102f0565b5090565b5b8082111561032c57600081816103239190610330565b5060010161030d565b5090565b50805461033c906105fa565b6000825580601f1061034e575061036d565b601f01602090049060005260206000209081019061036c91906102ef565b5b50565b600061038361037e84610532565b61050d565b90508281526020810184848401111561039f5761039e6106c0565b5b6103aa8482856105b8565b509392505050565b600082601f8301126103c7576103c66106bb565b5b81356103d7848260208601610370565b91505092915050565b6000602082840312156103f6576103f56106ca565b5b600082013567ffffffffffffffff811115610414576104136106c5565b5b610420848285016103b2565b91505092915050565b600061043583836104b2565b905092915050565b600061044882610573565b6104528185610596565b93508360208202850161046485610563565b8060005b858110156104a057848403895281516104818582610429565b945061048c83610589565b925060208a01995050600181019050610468565b50829750879550505050505092915050565b60006104bd8261057e565b6104c781856105a7565b93506104d78185602086016105c7565b6104e0816106cf565b840191505092915050565b60006020820190508181036000830152610505818461043d565b905092915050565b6000610517610528565b9050610523828261062c565b919050565b6000604051905090565b600067ffffffffffffffff82111561054d5761054c61068c565b5b610556826106cf565b9050602081019050919050565b6000819050602082019050919050565b600081519050919050565b600081519050919050565b6000602082019050919050565b600082825260208201905092915050565b600082825260208201905092915050565b82818337600083830152505050565b60005b838110156105e55780820151818401526020810190506105ca565b838111156105f4576000848401525b50505050565b6000600282049050600182168061061257607f821691505b602082108114156106265761062561065d565b5b50919050565b610635826106cf565b810181811067ffffffffffffffff821117156106545761065361068c565b5b80604052505050565b7f4e487b7100000000000000000000000000000000000000000000000000000000600052602260045260246000fd5b7f4e487b7100000000000000000000000000000000000000000000000000000000600052604160045260246000fd5b600080fd5b600080fd5b600080fd5b600080fd5b6000601f19601f830116905091905056fea26469706673582212200bdf49e4c2520bed84e80a2f3b199ba84fc3f51a375e8826a8f724ec712eaf7f64736f6c63430008070033",
					"opcodes": "PUSH1 0x80 PUSH1 0x40 MSTORE CALLVALUE DUP1 ISZERO PUSH2 0x10 JUMPI PUSH1 0x0 DUP1 REVERT JUMPDEST POP PUSH2 0x716 DUP1 PUSH2 0x20 PUSH1 0x0 CODECOPY PUSH1 0x0 RETURN INVALID PUSH1 0x80 PUSH1 0x40 MSTORE CALLVALUE DUP1 ISZERO PUSH2 0x10 JUMPI PUSH1 0x0 DUP1 REVERT JUMPDEST POP PUSH1 0x4 CALLDATASIZE LT PUSH2 0x41 JUMPI PUSH1 0x0 CALLDATALOAD PUSH1 0xE0 SHR DUP1 PUSH4 0x82E76B88 EQ PUSH2 0x46 JUMPI DUP1 PUSH4 0x95FFEBF5 EQ PUSH2 0x64 JUMPI DUP1 PUSH4 0xCBED9E07 EQ PUSH2 0x80 JUMPI JUMPDEST PUSH1 0x0 DUP1 REVERT JUMPDEST PUSH2 0x4E PUSH2 0x8A JUMP JUMPDEST PUSH1 0x40 MLOAD PUSH2 0x5B SWAP2 SWAP1 PUSH2 0x4EB JUMP JUMPDEST PUSH1 0x40 MLOAD DUP1 SWAP2 SUB SWAP1 RETURN JUMPDEST PUSH2 0x7E PUSH1 0x4 DUP1 CALLDATASIZE SUB DUP2 ADD SWAP1 PUSH2 0x79 SWAP2 SWAP1 PUSH2 0x3E0 JUMP JUMPDEST PUSH2 0x163 JUMP JUMPDEST STOP JUMPDEST PUSH2 0x88 PUSH2 0x1A2 JUMP JUMPDEST STOP JUMPDEST PUSH1 0x60 PUSH1 0x0 DUP1 SLOAD DUP1 PUSH1 0x20 MUL PUSH1 0x20 ADD PUSH1 0x40 MLOAD SWAP1 DUP2 ADD PUSH1 0x40 MSTORE DUP1 SWAP3 SWAP2 SWAP1 DUP2 DUP2 MSTORE PUSH1 0x20 ADD PUSH1 0x0 SWAP1 JUMPDEST DUP3 DUP3 LT ISZERO PUSH2 0x15A JUMPI DUP4 DUP3 SWAP1 PUSH1 0x0 MSTORE PUSH1 0x20 PUSH1 0x0 KECCAK256 ADD DUP1 SLOAD PUSH2 0xCD SWAP1 PUSH2 0x5FA JUMP JUMPDEST DUP1 PUSH1 0x1F ADD PUSH1 0x20 DUP1 SWAP2 DIV MUL PUSH1 0x20 ADD PUSH1 0x40 MLOAD SWAP1 DUP2 ADD PUSH1 0x40 MSTORE DUP1 SWAP3 SWAP2 SWAP1 DUP2 DUP2 MSTORE PUSH1 0x20 ADD DUP3 DUP1 SLOAD PUSH2 0xF9 SWAP1 PUSH2 0x5FA JUMP JUMPDEST DUP1 ISZERO PUSH2 0x146 JUMPI DUP1 PUSH1 0x1F LT PUSH2 0x11B JUMPI PUSH2 0x100 DUP1 DUP4 SLOAD DIV MUL DUP4 MSTORE SWAP2 PUSH1 0x20 ADD SWAP2 PUSH2 0x146 JUMP JUMPDEST DUP3 ADD SWAP2 SWAP1 PUSH1 0x0 MSTORE PUSH1 0x20 PUSH1 0x0 KECCAK256 SWAP1 JUMPDEST DUP2 SLOAD DUP2 MSTORE SWAP1 PUSH1 0x1 ADD SWAP1 PUSH1 0x20 ADD DUP1 DUP4 GT PUSH2 0x129 JUMPI DUP3 SWAP1 SUB PUSH1 0x1F AND DUP3 ADD SWAP2 JUMPDEST POP POP POP POP POP DUP2 MSTORE PUSH1 0x20 ADD SWAP1 PUSH1 0x1 ADD SWAP1 PUSH2 0xAE JUMP JUMPDEST POP POP POP POP SWAP1 POP SWAP1 JUMP JUMPDEST PUSH1 0x0 DUP2 SWAP1 DUP1 PUSH1 0x1 DUP2 SLOAD ADD DUP1 DUP3 SSTORE DUP1 SWAP2 POP POP PUSH1 0x1 SWAP1 SUB SWAP1 PUSH1 0x0 MSTORE PUSH1 0x20 PUSH1 0x0 KECCAK256 ADD PUSH1 0x0 SWAP1 SWAP2 SWAP1 SWAP2 SWAP1 SWAP2 POP SWAP1 DUP1 MLOAD SWAP1 PUSH1 0x20 ADD SWAP1 PUSH2 0x19E SWAP3 SWAP2 SWAP1 PUSH2 0x209 JUMP JUMPDEST POP POP JUMP JUMPDEST PUSH1 0x0 PUSH8 0xFFFFFFFFFFFFFFFF DUP2 GT ISZERO PUSH2 0x1BD JUMPI PUSH2 0x1BC PUSH2 0x68C JUMP JUMPDEST JUMPDEST PUSH1 0x40 MLOAD SWAP1 DUP1 DUP3 MSTORE DUP1 PUSH1 0x20 MUL PUSH1 0x20 ADD DUP3 ADD PUSH1 0x40 MSTORE DUP1 ISZERO PUSH2 0x1F0 JUMPI DUP2 PUSH1 0x20 ADD JUMPDEST PUSH1 0x60 DUP2 MSTORE PUSH1 0x20 ADD SWAP1 PUSH1 0x1 SWAP1 SUB SWAP1 DUP2 PUSH2 0x1DB JUMPI SWAP1 POP JUMPDEST POP PUSH1 0x0 SWAP1 DUP1 MLOAD SWAP1 PUSH1 0x20 ADD SWAP1 PUSH2 0x206 SWAP3 SWAP2 SWAP1 PUSH2 0x28F JUMP JUMPDEST POP JUMP JUMPDEST DUP3 DUP1 SLOAD PUSH2 0x215 SWAP1 PUSH2 0x5FA JUMP JUMPDEST SWAP1 PUSH1 0x0 MSTORE PUSH1 0x20 PUSH1 0x0 KECCAK256 SWAP1 PUSH1 0x1F ADD PUSH1 0x20 SWAP1 DIV DUP2 ADD SWAP3 DUP3 PUSH2 0x237 JUMPI PUSH1 0x0 DUP6 SSTORE PUSH2 0x27E JUMP JUMPDEST DUP3 PUSH1 0x1F LT PUSH2 0x250 JUMPI DUP1 MLOAD PUSH1 0xFF NOT AND DUP4 DUP1 ADD OR DUP6 SSTORE PUSH2 0x27E JUMP JUMPDEST DUP3 DUP1 ADD PUSH1 0x1 ADD DUP6 SSTORE DUP3 ISZERO PUSH2 0x27E JUMPI SWAP2 DUP3 ADD JUMPDEST DUP3 DUP2 GT ISZERO PUSH2 0x27D JUMPI DUP3 MLOAD DUP3 SSTORE SWAP2 PUSH1 0x20 ADD SWAP2 SWAP1 PUSH1 0x1 ADD SWAP1 PUSH2 0x262 JUMP JUMPDEST JUMPDEST POP SWAP1 POP PUSH2 0x28B SWAP2 SWAP1 PUSH2 0x2EF JUMP JUMPDEST POP SWAP1 JUMP JUMPDEST DUP3 DUP1 SLOAD DUP3 DUP3 SSTORE SWAP1 PUSH1 0x0 MSTORE PUSH1 0x20 PUSH1 0x0 KECCAK256 SWAP1 DUP2 ADD SWAP3 DUP3 ISZERO PUSH2 0x2DE JUMPI SWAP2 PUSH1 0x20 MUL DUP3 ADD JUMPDEST DUP3 DUP2 GT ISZERO PUSH2 0x2DD JUMPI DUP3 MLOAD DUP3 SWAP1 DUP1 MLOAD SWAP1 PUSH1 0x20 ADD SWAP1 PUSH2 0x2CD SWAP3 SWAP2 SWAP1 PUSH2 0x209 JUMP JUMPDEST POP SWAP2 PUSH1 0x20 ADD SWAP2 SWAP1 PUSH1 0x1 ADD SWAP1 PUSH2 0x2AF JUMP JUMPDEST JUMPDEST POP SWAP1 POP PUSH2 0x2EB SWAP2 SWAP1 PUSH2 0x30C JUMP JUMPDEST POP SWAP1 JUMP JUMPDEST JUMPDEST DUP1 DUP3 GT ISZERO PUSH2 0x308 JUMPI PUSH1 0x0 DUP2 PUSH1 0x0 SWAP1 SSTORE POP PUSH1 0x1 ADD PUSH2 0x2F0 JUMP JUMPDEST POP SWAP1 JUMP JUMPDEST JUMPDEST DUP1 DUP3 GT ISZERO PUSH2 0x32C JUMPI PUSH1 0x0 DUP2 DUP2 PUSH2 0x323 SWAP2 SWAP1 PUSH2 0x330 JUMP JUMPDEST POP PUSH1 0x1 ADD PUSH2 0x30D JUMP JUMPDEST POP SWAP1 JUMP JUMPDEST POP DUP1 SLOAD PUSH2 0x33C SWAP1 PUSH2 0x5FA JUMP JUMPDEST PUSH1 0x0 DUP3 SSTORE DUP1 PUSH1 0x1F LT PUSH2 0x34E JUMPI POP PUSH2 0x36D JUMP JUMPDEST PUSH1 0x1F ADD PUSH1 0x20 SWAP1 DIV SWAP1 PUSH1 0x0 MSTORE PUSH1 0x20 PUSH1 0x0 KECCAK256 SWAP1 DUP2 ADD SWAP1 PUSH2 0x36C SWAP2 SWAP1 PUSH2 0x2EF JUMP JUMPDEST JUMPDEST POP JUMP JUMPDEST PUSH1 0x0 PUSH2 0x383 PUSH2 0x37E DUP5 PUSH2 0x532 JUMP JUMPDEST PUSH2 0x50D JUMP JUMPDEST SWAP1 POP DUP3 DUP2 MSTORE PUSH1 0x20 DUP2 ADD DUP5 DUP5 DUP5 ADD GT ISZERO PUSH2 0x39F JUMPI PUSH2 0x39E PUSH2 0x6C0 JUMP JUMPDEST JUMPDEST PUSH2 0x3AA DUP5 DUP3 DUP6 PUSH2 0x5B8 JUMP JUMPDEST POP SWAP4 SWAP3 POP POP POP JUMP JUMPDEST PUSH1 0x0 DUP3 PUSH1 0x1F DUP4 ADD SLT PUSH2 0x3C7 JUMPI PUSH2 0x3C6 PUSH2 0x6BB JUMP JUMPDEST JUMPDEST DUP2 CALLDATALOAD PUSH2 0x3D7 DUP5 DUP3 PUSH1 0x20 DUP7 ADD PUSH2 0x370 JUMP JUMPDEST SWAP2 POP POP SWAP3 SWAP2 POP POP JUMP JUMPDEST PUSH1 0x0 PUSH1 0x20 DUP3 DUP5 SUB SLT ISZERO PUSH2 0x3F6 JUMPI PUSH2 0x3F5 PUSH2 0x6CA JUMP JUMPDEST JUMPDEST PUSH1 0x0 DUP3 ADD CALLDATALOAD PUSH8 0xFFFFFFFFFFFFFFFF DUP2 GT ISZERO PUSH2 0x414 JUMPI PUSH2 0x413 PUSH2 0x6C5 JUMP JUMPDEST JUMPDEST PUSH2 0x420 DUP5 DUP3 DUP6 ADD PUSH2 0x3B2 JUMP JUMPDEST SWAP2 POP POP SWAP3 SWAP2 POP POP JUMP JUMPDEST PUSH1 0x0 PUSH2 0x435 DUP4 DUP4 PUSH2 0x4B2 JUMP JUMPDEST SWAP1 POP SWAP3 SWAP2 POP POP JUMP JUMPDEST PUSH1 0x0 PUSH2 0x448 DUP3 PUSH2 0x573 JUMP JUMPDEST PUSH2 0x452 DUP2 DUP6 PUSH2 0x596 JUMP JUMPDEST SWAP4 POP DUP4 PUSH1 0x20 DUP3 MUL DUP6 ADD PUSH2 0x464 DUP6 PUSH2 0x563 JUMP JUMPDEST DUP1 PUSH1 0x0 JUMPDEST DUP6 DUP2 LT ISZERO PUSH2 0x4A0 JUMPI DUP5 DUP5 SUB DUP10 MSTORE DUP2 MLOAD PUSH2 0x481 DUP6 DUP3 PUSH2 0x429 JUMP JUMPDEST SWAP5 POP PUSH2 0x48C DUP4 PUSH2 0x589 JUMP JUMPDEST SWAP3 POP PUSH1 0x20 DUP11 ADD SWAP10 POP POP PUSH1 0x1 DUP2 ADD SWAP1 POP PUSH2 0x468 JUMP JUMPDEST POP DUP3 SWAP8 POP DUP8 SWAP6 POP POP POP POP POP POP SWAP3 SWAP2 POP POP JUMP JUMPDEST PUSH1 0x0 PUSH2 0x4BD DUP3 PUSH2 0x57E JUMP JUMPDEST PUSH2 0x4C7 DUP2 DUP6 PUSH2 0x5A7 JUMP JUMPDEST SWAP4 POP PUSH2 0x4D7 DUP2 DUP6 PUSH1 0x20 DUP7 ADD PUSH2 0x5C7 JUMP JUMPDEST PUSH2 0x4E0 DUP2 PUSH2 0x6CF JUMP JUMPDEST DUP5 ADD SWAP2 POP POP SWAP3 SWAP2 POP POP JUMP JUMPDEST PUSH1 0x0 PUSH1 0x20 DUP3 ADD SWAP1 POP DUP2 DUP2 SUB PUSH1 0x0 DUP4 ADD MSTORE PUSH2 0x505 DUP2 DUP5 PUSH2 0x43D JUMP JUMPDEST SWAP1 POP SWAP3 SWAP2 POP POP JUMP JUMPDEST PUSH1 0x0 PUSH2 0x517 PUSH2 0x528 JUMP JUMPDEST SWAP1 POP PUSH2 0x523 DUP3 DUP3 PUSH2 0x62C JUMP JUMPDEST SWAP2 SWAP1 POP JUMP JUMPDEST PUSH1 0x0 PUSH1 0x40 MLOAD SWAP1 POP SWAP1 JUMP JUMPDEST PUSH1 0x0 PUSH8 0xFFFFFFFFFFFFFFFF DUP3 GT ISZERO PUSH2 0x54D JUMPI PUSH2 0x54C PUSH2 0x68C JUMP JUMPDEST JUMPDEST PUSH2 0x556 DUP3 PUSH2 0x6CF JUMP JUMPDEST SWAP1 POP PUSH1 0x20 DUP2 ADD SWAP1 POP SWAP2 SWAP1 POP JUMP JUMPDEST PUSH1 0x0 DUP2 SWAP1 POP PUSH1 0x20 DUP3 ADD SWAP1 POP SWAP2 SWAP1 POP JUMP JUMPDEST PUSH1 0x0 DUP2 MLOAD SWAP1 POP SWAP2 SWAP1 POP JUMP JUMPDEST PUSH1 0x0 DUP2 MLOAD SWAP1 POP SWAP2 SWAP1 POP JUMP JUMPDEST PUSH1 0x0 PUSH1 0x20 DUP3 ADD SWAP1 POP SWAP2 SWAP1 POP JUMP JUMPDEST PUSH1 0x0 DUP3 DUP3 MSTORE PUSH1 0x20 DUP3 ADD SWAP1 POP SWAP3 SWAP2 POP POP JUMP JUMPDEST PUSH1 0x0 DUP3 DUP3 MSTORE PUSH1 0x20 DUP3 ADD SWAP1 POP SWAP3 SWAP2 POP POP JUMP JUMPDEST DUP3 DUP2 DUP4 CALLDATACOPY PUSH1 0x0 DUP4 DUP4 ADD MSTORE POP POP POP JUMP JUMPDEST PUSH1 0x0 JUMPDEST DUP4 DUP2 LT ISZERO PUSH2 0x5E5 JUMPI DUP1 DUP3 ADD MLOAD DUP2 DUP5 ADD MSTORE PUSH1 0x20 DUP2 ADD SWAP1 POP PUSH2 0x5CA JUMP JUMPDEST DUP4 DUP2 GT ISZERO PUSH2 0x5F4 JUMPI PUSH1 0x0 DUP5 DUP5 ADD MSTORE JUMPDEST POP POP POP POP JUMP JUMPDEST PUSH1 0x0 PUSH1 0x2 DUP3 DIV SWAP1 POP PUSH1 0x1 DUP3 AND DUP1 PUSH2 0x612 JUMPI PUSH1 0x7F DUP3 AND SWAP2 POP JUMPDEST PUSH1 0x20 DUP3 LT DUP2 EQ ISZERO PUSH2 0x626 JUMPI PUSH2 0x625 PUSH2 0x65D JUMP JUMPDEST JUMPDEST POP SWAP2 SWAP1 POP JUMP JUMPDEST PUSH2 0x635 DUP3 PUSH2 0x6CF JUMP JUMPDEST DUP2 ADD DUP2 DUP2 LT PUSH8 0xFFFFFFFFFFFFFFFF DUP3 GT OR ISZERO PUSH2 0x654 JUMPI PUSH2 0x653 PUSH2 0x68C JUMP JUMPDEST JUMPDEST DUP1 PUSH1 0x40 MSTORE POP POP POP JUMP JUMPDEST PUSH32 0x4E487B7100000000000000000000000000000000000000000000000000000000 PUSH1 0x0 MSTORE PUSH1 0x22 PUSH1 0x4 MSTORE PUSH1 0x24 PUSH1 0x0 REVERT JUMPDEST PUSH32 0x4E487B7100000000000000000000000000000000000000000000000000000000 PUSH1 0x0 MSTORE PUSH1 0x41 PUSH1 0x4 MSTORE PUSH1 0x24 PUSH1 0x0 REVERT JUMPDEST PUSH1 0x0 DUP1 REVERT JUMPDEST PUSH1 0x0 DUP1 REVERT JUMPDEST PUSH1 0x0 DUP1 REVERT JUMPDEST PUSH1 0x0 DUP1 REVERT JUMPDEST PUSH1 0x0 PUSH1 0x1F NOT PUSH1 0x1F DUP4 ADD AND SWAP1 POP SWAP2 SWAP1 POP JUMP INVALID LOG2 PUSH5 0x6970667358 0x22 SLT KECCAK256 SIGNEXTEND 0xDF 0x49 0xE4 0xC2 MSTORE SIGNEXTEND 0xED DUP5 0xE8 EXP 0x2F EXTCODESIZE NOT SWAP12 0xA8 0x4F 0xC3 CREATE2 BYTE CALLDATACOPY 0x5E DUP9 0x26 0xA8 0xF7 0x24 0xEC PUSH18 0x2EAF7F64736F6C6343000807003300000000 "
				},
				"gasEstimates": {
					"creation": {
						"codeDepositCost": "362800",
						"executionCost": "399",
						"totalCost": "363199"
					},
					"external": {
						"addTodo(string)": "infinite",
						"resetTodo()": "infinite",
						"showTodo()": "infinite"
					}
				},
				"methodIdentifiers": {
					"addTodo(string)": "95ffebf5",
					"resetTodo()": "cbed9e07",
					"showTodo()": "82e76b88"
				}
			},
			"storageLayout": {
				"storage": [
					{
						"astId": 4,
						"contract": "Todo.sol:Todo",
						"label": "todos",
						"offset": 0,
						"slot": "0",
						"type": "t_array(t_string_storage)dyn_storage"
					}
				],
				"types": {
					"t_array(t_string_storage)dyn_storage": {
						"base": "t_string_storage",
						"encoding": "dynamic_array",
						"label": "string[]",
						"numberOfBytes": "32"
					},
					"t_string_storage": {
						"encoding": "bytes",
						"label": "string",
						"numberOfBytes": "32"
					}
				}
			},
			"userdoc": {
				"kind": "user",
				"methods": {},
				"version": 1
			}
		}
	}
}