{
	"transictions.sol": {
		"Pay": {
			"abi": [
				{
					"inputs": [],
					"name": "getBalance",
					"outputs": [
						{
							"internalType": "uint256",
							"name": "",
							"type": "uint256"
						}
					],
					"stateMutability": "view",
					"type": "function"
				},
				{
					"inputs": [],
					"name": "knowGas",
					"outputs": [
						{
							"internalType": "uint256",
							"name": "",
							"type": "uint256"
						}
					],
					"stateMutability": "view",
					"type": "function"
				},
				{
					"inputs": [],
					"name": "payEther",
					"outputs": [],
					"stateMutability": "payable",
					"type": "function"
				},
				{
					"inputs": [],
					"name": "transferEther",
					"outputs": [],
					"stateMutability": "nonpayable",
					"type": "function"
				}
			],
			"devdoc": {
				"kind": "dev",
				"methods": {},
				"version": 1
			},
			"evm": {
				"assembly": "    /* \"transictions.sol\":66:486  contract Pay{\r... */\n  mstore(0x40, 0x80)\n    /* \"transictions.sol\":118:160  0x4f11D3f969874b38611ECc207175411cA7Def32A */\n  0x4f11d3f969874b38611ecc207175411ca7def32a\n    /* \"transictions.sol\":87:161  address payable user = payable(0x4f11D3f969874b38611ECc207175411cA7Def32A) */\n  0x00\n  dup1\n  0x0100\n  exp\n  dup2\n  sload\n  dup2\n  0xffffffffffffffffffffffffffffffffffffffff\n  mul\n  not\n  and\n  swap1\n  dup4\n  0xffffffffffffffffffffffffffffffffffffffff\n  and\n  mul\n  or\n  swap1\n  sstore\n  pop\n    /* \"transictions.sol\":66:486  contract Pay{\r... */\n  callvalue\n  dup1\n  iszero\n  tag_1\n  jumpi\n  0x00\n  dup1\n  revert\ntag_1:\n  pop\n  dataSize(sub_0)\n  dup1\n  dataOffset(sub_0)\n  0x00\n  codecopy\n  0x00\n  return\nstop\n\nsub_0: assembly {\n        /* \"transictions.sol\":66:486  contract Pay{\r... */\n      mstore(0x40, 0x80)\n      jumpi(tag_1, lt(calldatasize, 0x04))\n      shr(0xe0, calldataload(0x00))\n      dup1\n      0x12065fe0\n      eq\n      tag_2\n      jumpi\n      dup1\n      0x7e4903c9\n      eq\n      tag_3\n      jumpi\n      dup1\n      0xc9b25f0f\n      eq\n      tag_4\n      jumpi\n      dup1\n      0xf7474d00\n      eq\n      tag_5\n      jumpi\n    tag_1:\n      0x00\n      dup1\n      revert\n        /* \"transictions.sol\":220:314  function getBalance() public view returns(uint){\r... */\n    tag_2:\n      callvalue\n      dup1\n      iszero\n      tag_6\n      jumpi\n      0x00\n      dup1\n      revert\n    tag_6:\n      pop\n      tag_7\n      tag_8\n      jump\t// in\n    tag_7:\n      mload(0x40)\n      tag_9\n      swap2\n      swap1\n      tag_10\n      jump\t// in\n    tag_9:\n      mload(0x40)\n      dup1\n      swap2\n      sub\n      swap1\n      return\n        /* \"transictions.sol\":402:483  function knowGas() public view returns(uint){\r... */\n    tag_3:\n      callvalue\n      dup1\n      iszero\n      tag_11\n      jumpi\n      0x00\n      dup1\n      revert\n    tag_11:\n      pop\n      tag_12\n      tag_13\n      jump\t// in\n    tag_12:\n      mload(0x40)\n      tag_14\n      swap2\n      swap1\n      tag_10\n      jump\t// in\n    tag_14:\n      mload(0x40)\n      dup1\n      swap2\n      sub\n      swap1\n      return\n        /* \"transictions.sol\":322:394  function transferEther() public{\r... */\n    tag_4:\n      callvalue\n      dup1\n      iszero\n      tag_15\n      jumpi\n      0x00\n      dup1\n      revert\n    tag_15:\n      pop\n      tag_16\n      tag_17\n      jump\t// in\n    tag_16:\n      stop\n        /* \"transictions.sol\":168:212  function payEther() public payable{\r... */\n    tag_5:\n      tag_18\n      tag_19\n      jump\t// in\n    tag_18:\n      stop\n        /* \"transictions.sol\":220:314  function getBalance() public view returns(uint){\r... */\n    tag_8:\n        /* \"transictions.sol\":262:266  uint */\n      0x00\n        /* \"transictions.sol\":285:306  address(this).balance */\n      selfbalance\n        /* \"transictions.sol\":278:306  return address(this).balance */\n      swap1\n      pop\n        /* \"transictions.sol\":220:314  function getBalance() public view returns(uint){\r... */\n      swap1\n      jump\t// out\n        /* \"transictions.sol\":402:483  function knowGas() public view returns(uint){\r... */\n    tag_13:\n        /* \"transictions.sol\":441:445  uint */\n      0x00\n        /* \"transictions.sol\":464:475  tx.gasprice */\n      gasprice\n        /* \"transictions.sol\":457:475  return tx.gasprice */\n      swap1\n      pop\n        /* \"transictions.sol\":402:483  function knowGas() public view returns(uint){\r... */\n      swap1\n      jump\t// out\n        /* \"transictions.sol\":322:394  function transferEther() public{\r... */\n    tag_17:\n        /* \"transictions.sol\":364:368  user */\n      0x00\n      dup1\n      sload\n      swap1\n      0x0100\n      exp\n      swap1\n      div\n      0xffffffffffffffffffffffffffffffffffffffff\n      and\n        /* \"transictions.sol\":364:377  user.transfer */\n      0xffffffffffffffffffffffffffffffffffffffff\n      and\n        /* \"transictions.sol\":364:386  user.transfer(1 ether) */\n      0x08fc\n        /* \"transictions.sol\":378:385  1 ether */\n      0x0de0b6b3a7640000\n        /* \"transictions.sol\":364:386  user.transfer(1 ether) */\n      swap1\n      dup2\n      iszero\n      mul\n      swap1\n      mload(0x40)\n      0x00\n      mload(0x40)\n      dup1\n      dup4\n      sub\n      dup2\n      dup6\n      dup9\n      dup9\n      call\n      swap4\n      pop\n      pop\n      pop\n      pop\n      iszero\n      dup1\n      iszero\n      tag_24\n      jumpi\n      returndatasize\n      0x00\n      dup1\n      returndatacopy\n      revert(0x00, returndatasize)\n    tag_24:\n      pop\n        /* \"transictions.sol\":322:394  function transferEther() public{\r... */\n      jump\t// out\n        /* \"transictions.sol\":168:212  function payEther() public payable{\r... */\n    tag_19:\n      jump\t// out\n        /* \"#utility.yul\":7:125   */\n    tag_27:\n        /* \"#utility.yul\":94:118   */\n      tag_29\n        /* \"#utility.yul\":112:117   */\n      dup2\n        /* \"#utility.yul\":94:118   */\n      tag_30\n      jump\t// in\n    tag_29:\n        /* \"#utility.yul\":89:92   */\n      dup3\n        /* \"#utility.yul\":82:119   */\n      mstore\n        /* \"#utility.yul\":7:125   */\n      pop\n      pop\n      jump\t// out\n        /* \"#utility.yul\":131:353   */\n    tag_10:\n        /* \"#utility.yul\":224:228   */\n      0x00\n        /* \"#utility.yul\":262:264   */\n      0x20\n        /* \"#utility.yul\":251:260   */\n      dup3\n        /* \"#utility.yul\":247:265   */\n      add\n        /* \"#utility.yul\":239:265   */\n      swap1\n      pop\n        /* \"#utility.yul\":275:346   */\n      tag_32\n        /* \"#utility.yul\":343:344   */\n      0x00\n        /* \"#utility.yul\":332:341   */\n      dup4\n        /* \"#utility.yul\":328:345   */\n      add\n        /* \"#utility.yul\":319:325   */\n      dup5\n        /* \"#utility.yul\":275:346   */\n      tag_27\n      jump\t// in\n    tag_32:\n        /* \"#utility.yul\":131:353   */\n      swap3\n      swap2\n      pop\n      pop\n      jump\t// out\n        /* \"#utility.yul\":359:436   */\n    tag_30:\n        /* \"#utility.yul\":396:403   */\n      0x00\n        /* \"#utility.yul\":425:430   */\n      dup2\n        /* \"#utility.yul\":414:430   */\n      swap1\n      pop\n        /* \"#utility.yul\":359:436   */\n      swap2\n      swap1\n      pop\n      jump\t// out\n\n    auxdata: 0xa26469706673582212209985f55e4c290ef23a4623298aae75782cc92074a2c372bfc962cc2d85bd020064736f6c63430008070033\n}\n",
				"bytecode": {
					"linkReferences": {},
					"object": "6080604052734f11d3f969874b38611ecc207175411ca7def32a6000806101000a81548173ffffffffffffffffffffffffffffffffffffffff021916908373ffffffffffffffffffffffffffffffffffffffff16021790555034801561006457600080fd5b506101a8806100746000396000f3fe60806040526004361061003f5760003560e01c806312065fe0146100445780637e4903c91461006f578063c9b25f0f1461009a578063f7474d00146100b1575b600080fd5b34801561005057600080fd5b506100596100bb565b604051610066919061014d565b60405180910390f35b34801561007b57600080fd5b506100846100c3565b604051610091919061014d565b60405180910390f35b3480156100a657600080fd5b506100af6100cb565b005b6100b961013c565b005b600047905090565b60003a905090565b60008054906101000a900473ffffffffffffffffffffffffffffffffffffffff1673ffffffffffffffffffffffffffffffffffffffff166108fc670de0b6b3a76400009081150290604051600060405180830381858888f19350505050158015610139573d6000803e3d6000fd5b50565b565b61014781610168565b82525050565b6000602082019050610162600083018461013e565b92915050565b600081905091905056fea26469706673582212209985f55e4c290ef23a4623298aae75782cc92074a2c372bfc962cc2d85bd020064736f6c63430008070033",
					"opcodes": "PUSH1 0x80 PUSH1 0x40 MSTORE PUSH20 0x4F11D3F969874B38611ECC207175411CA7DEF32A PUSH1 0x0 DUP1 PUSH2 0x100 EXP DUP2 SLOAD DUP2 PUSH20 0xFFFFFFFFFFFFFFFFFFFFFFFFFFFFFFFFFFFFFFFF MUL NOT AND SWAP1 DUP4 PUSH20 0xFFFFFFFFFFFFFFFFFFFFFFFFFFFFFFFFFFFFFFFF AND MUL OR SWAP1 SSTORE POP CALLVALUE DUP1 ISZERO PUSH2 0x64 JUMPI PUSH1 0x0 DUP1 REVERT JUMPDEST POP PUSH2 0x1A8 DUP1 PUSH2 0x74 PUSH1 0x0 CODECOPY PUSH1 0x0 RETURN INVALID PUSH1 0x80 PUSH1 0x40 MSTORE PUSH1 0x4 CALLDATASIZE LT PUSH2 0x3F JUMPI PUSH1 0x0 CALLDATALOAD PUSH1 0xE0 SHR DUP1 PUSH4 0x12065FE0 EQ PUSH2 0x44 JUMPI DUP1 PUSH4 0x7E4903C9 EQ PUSH2 0x6F JUMPI DUP1 PUSH4 0xC9B25F0F EQ PUSH2 0x9A JUMPI DUP1 PUSH4 0xF7474D00 EQ PUSH2 0xB1 JUMPI JUMPDEST PUSH1 0x0 DUP1 REVERT JUMPDEST CALLVALUE DUP1 ISZERO PUSH2 0x50 JUMPI PUSH1 0x0 DUP1 REVERT JUMPDEST POP PUSH2 0x59 PUSH2 0xBB JUMP JUMPDEST PUSH1 0x40 MLOAD PUSH2 0x66 SWAP2 SWAP1 PUSH2 0x14D JUMP JUMPDEST PUSH1 0x40 MLOAD DUP1 SWAP2 SUB SWAP1 RETURN JUMPDEST CALLVALUE DUP1 ISZERO PUSH2 0x7B JUMPI PUSH1 0x0 DUP1 REVERT JUMPDEST POP PUSH2 0x84 PUSH2 0xC3 JUMP JUMPDEST PUSH1 0x40 MLOAD PUSH2 0x91 SWAP2 SWAP1 PUSH2 0x14D JUMP JUMPDEST PUSH1 0x40 MLOAD DUP1 SWAP2 SUB SWAP1 RETURN JUMPDEST CALLVALUE DUP1 ISZERO PUSH2 0xA6 JUMPI PUSH1 0x0 DUP1 REVERT JUMPDEST POP PUSH2 0xAF PUSH2 0xCB JUMP JUMPDEST STOP JUMPDEST PUSH2 0xB9 PUSH2 0x13C JUMP JUMPDEST STOP JUMPDEST PUSH1 0x0 SELFBALANCE SWAP1 POP SWAP1 JUMP JUMPDEST PUSH1 0x0 GASPRICE SWAP1 POP SWAP1 JUMP JUMPDEST PUSH1 0x0 DUP1 SLOAD SWAP1 PUSH2 0x100 EXP SWAP1 DIV PUSH20 0xFFFFFFFFFFFFFFFFFFFFFFFFFFFFFFFFFFFFFFFF AND PUSH20 0xFFFFFFFFFFFFFFFFFFFFFFFFFFFFFFFFFFFFFFFF AND PUSH2 0x8FC PUSH8 0xDE0B6B3A7640000 SWAP1 DUP2 ISZERO MUL SWAP1 PUSH1 0x40 MLOAD PUSH1 0x0 PUSH1 0x40 MLOAD DUP1 DUP4 SUB DUP2 DUP6 DUP9 DUP9 CALL SWAP4 POP POP POP POP ISZERO DUP1 ISZERO PUSH2 0x139 JUMPI RETURNDATASIZE PUSH1 0x0 DUP1 RETURNDATACOPY RETURNDATASIZE PUSH1 0x0 REVERT JUMPDEST POP JUMP JUMPDEST JUMP JUMPDEST PUSH2 0x147 DUP2 PUSH2 0x168 JUMP JUMPDEST DUP3 MSTORE POP POP JUMP JUMPDEST PUSH1 0x0 PUSH1 0x20 DUP3 ADD SWAP1 POP PUSH2 0x162 PUSH1 0x0 DUP4 ADD DUP5 PUSH2 0x13E JUMP JUMPDEST SWAP3 SWAP2 POP POP JUMP JUMPDEST PUSH1 0x0 DUP2 SWAP1 POP SWAP2 SWAP1 POP JUMP INVALID LOG2 PUSH5 0x6970667358 0x22 SLT KECCAK256 SWAP10 DUP6 CREATE2 0x5E 0x4C 0x29 0xE CALLCODE GASPRICE CHAINID 0x23 0x29 DUP11 0xAE PUSH22 0x782CC92074A2C372BFC962CC2D85BD020064736F6C63 NUMBER STOP ADDMOD SMOD STOP CALLER "
				},
				"gasEstimates": {
					"creation": {
						"codeDepositCost": "84800",
						"executionCost": "24402",
						"totalCost": "109202"
					},
					"external": {
						"getBalance()": "317",
						"knowGas()": "336",
						"payEther()": "164",
						"transferEther()": "infinite"
					}
				},
				"methodIdentifiers": {
					"getBalance()": "12065fe0",
					"knowGas()": "7e4903c9",
					"payEther()": "f7474d00",
					"transferEther()": "c9b25f0f"
				}
			},
			"storageLayout": {
				"storage": [
					{
						"astId": 7,
						"contract": "transictions.sol:Pay",
						"label": "user",
						"offset": 0,
						"slot": "0",
						"type": "t_address_payable"
					}
				],
				"types": {
					"t_address_payable": {
						"encoding": "inplace",
						"label": "address payable",
						"numberOfBytes": "20"
					}
				}
			},
			"userdoc": {
				"kind": "user",
				"methods": {},
				"version": 1
			}
		}
	}
}