{
	"transictions.sol": {
		"Pay": {
			"abi": [
				{
					"inputs": [],
					"name": "getBalance",
					"outputs": [
						{
							"internalType": "uint256",
							"name": "",
							"type": "uint256"
						}
					],
					"stateMutability": "view",
					"type": "function"
				},
				{
					"inputs": [],
					"name": "payEther",
					"outputs": [],
					"stateMutability": "payable",
					"type": "function"
				},
				{
					"inputs": [],
					"name": "transferEther",
					"outputs": [],
					"stateMutability": "nonpayable",
					"type": "function"
				},
				{
					"inputs": [],
					"name": "user",
					"outputs": [
						{
							"internalType": "address payable",
							"name": "",
							"type": "address"
						}
					],
					"stateMutability": "view",
					"type": "function"
				}
			],
			"devdoc": {
				"kind": "dev",
				"methods": {},
				"version": 1
			},
			"evm": {
				"assembly": "    /* \"transictions.sol\":66:404  contract Pay{\r... */\n  mstore(0x40, 0x80)\n    /* \"transictions.sol\":125:167  0xAb8483F64d9C6d1EcF9b849Ae677dD3315835cb2 */\n  0xab8483f64d9c6d1ecf9b849ae677dd3315835cb2\n    /* \"transictions.sol\":87:168  address payable public user = payable(0xAb8483F64d9C6d1EcF9b849Ae677dD3315835cb2) */\n  0x00\n  dup1\n  0x0100\n  exp\n  dup2\n  sload\n  dup2\n  0xffffffffffffffffffffffffffffffffffffffff\n  mul\n  not\n  and\n  swap1\n  dup4\n  0xffffffffffffffffffffffffffffffffffffffff\n  and\n  mul\n  or\n  swap1\n  sstore\n  pop\n    /* \"transictions.sol\":66:404  contract Pay{\r... */\n  callvalue\n  dup1\n  iszero\n  tag_1\n  jumpi\n  0x00\n  dup1\n  revert\ntag_1:\n  pop\n  dataSize(sub_0)\n  dup1\n  dataOffset(sub_0)\n  0x00\n  codecopy\n  0x00\n  return\nstop\n\nsub_0: assembly {\n        /* \"transictions.sol\":66:404  contract Pay{\r... */\n      mstore(0x40, 0x80)\n      jumpi(tag_1, lt(calldatasize, 0x04))\n      shr(0xe0, calldataload(0x00))\n      dup1\n      0x12065fe0\n      eq\n      tag_2\n      jumpi\n      dup1\n      0x4f8632ba\n      eq\n      tag_3\n      jumpi\n      dup1\n      0xc9b25f0f\n      eq\n      tag_4\n      jumpi\n      dup1\n      0xf7474d00\n      eq\n      tag_5\n      jumpi\n    tag_1:\n      0x00\n      dup1\n      revert\n        /* \"transictions.sol\":227:321  function getBalance() public view returns(uint){\r... */\n    tag_2:\n      callvalue\n      dup1\n      iszero\n      tag_6\n      jumpi\n      0x00\n      dup1\n      revert\n    tag_6:\n      pop\n      tag_7\n      tag_8\n      jump\t// in\n    tag_7:\n      mload(0x40)\n      tag_9\n      swap2\n      swap1\n      tag_10\n      jump\t// in\n    tag_9:\n      mload(0x40)\n      dup1\n      swap2\n      sub\n      swap1\n      return\n        /* \"transictions.sol\":87:168  address payable public user = payable(0xAb8483F64d9C6d1EcF9b849Ae677dD3315835cb2) */\n    tag_3:\n      callvalue\n      dup1\n      iszero\n      tag_11\n      jumpi\n      0x00\n      dup1\n      revert\n    tag_11:\n      pop\n      tag_12\n      tag_13\n      jump\t// in\n    tag_12:\n      mload(0x40)\n      tag_14\n      swap2\n      swap1\n      tag_15\n      jump\t// in\n    tag_14:\n      mload(0x40)\n      dup1\n      swap2\n      sub\n      swap1\n      return\n        /* \"transictions.sol\":329:401  function transferEther() public{\r... */\n    tag_4:\n      callvalue\n      dup1\n      iszero\n      tag_16\n      jumpi\n      0x00\n      dup1\n      revert\n    tag_16:\n      pop\n      tag_17\n      tag_18\n      jump\t// in\n    tag_17:\n      stop\n        /* \"transictions.sol\":175:219  function payEther() public payable{\r... */\n    tag_5:\n      tag_19\n      tag_20\n      jump\t// in\n    tag_19:\n      stop\n        /* \"transictions.sol\":227:321  function getBalance() public view returns(uint){\r... */\n    tag_8:\n        /* \"transictions.sol\":269:273  uint */\n      0x00\n        /* \"transictions.sol\":292:313  address(this).balance */\n      selfbalance\n        /* \"transictions.sol\":285:313  return address(this).balance */\n      swap1\n      pop\n        /* \"transictions.sol\":227:321  function getBalance() public view returns(uint){\r... */\n      swap1\n      jump\t// out\n        /* \"transictions.sol\":87:168  address payable public user = payable(0xAb8483F64d9C6d1EcF9b849Ae677dD3315835cb2) */\n    tag_13:\n      0x00\n      dup1\n      sload\n      swap1\n      0x0100\n      exp\n      swap1\n      div\n      0xffffffffffffffffffffffffffffffffffffffff\n      and\n      dup2\n      jump\t// out\n        /* \"transictions.sol\":329:401  function transferEther() public{\r... */\n    tag_18:\n        /* \"transictions.sol\":371:375  user */\n      0x00\n      dup1\n      sload\n      swap1\n      0x0100\n      exp\n      swap1\n      div\n      0xffffffffffffffffffffffffffffffffffffffff\n      and\n        /* \"transictions.sol\":371:384  user.transfer */\n      0xffffffffffffffffffffffffffffffffffffffff\n      and\n        /* \"transictions.sol\":371:393  user.transfer(1 ether) */\n      0x08fc\n        /* \"transictions.sol\":385:392  1 ether */\n      0x0de0b6b3a7640000\n        /* \"transictions.sol\":371:393  user.transfer(1 ether) */\n      swap1\n      dup2\n      iszero\n      mul\n      swap1\n      mload(0x40)\n      0x00\n      mload(0x40)\n      dup1\n      dup4\n      sub\n      dup2\n      dup6\n      dup9\n      dup9\n      call\n      swap4\n      pop\n      pop\n      pop\n      pop\n      iszero\n      dup1\n      iszero\n      tag_24\n      jumpi\n      returndatasize\n      0x00\n      dup1\n      returndatacopy\n      revert(0x00, returndatasize)\n    tag_24:\n      pop\n        /* \"transictions.sol\":329:401  function transferEther() public{\r... */\n      jump\t// out\n        /* \"transictions.sol\":175:219  function payEther() public payable{\r... */\n    tag_20:\n      jump\t// out\n        /* \"#utility.yul\":7:149   */\n    tag_27:\n        /* \"#utility.yul\":110:142   */\n      tag_29\n        /* \"#utility.yul\":136:141   */\n      dup2\n        /* \"#utility.yul\":110:142   */\n      tag_30\n      jump\t// in\n    tag_29:\n        /* \"#utility.yul\":105:108   */\n      dup3\n        /* \"#utility.yul\":98:143   */\n      mstore\n        /* \"#utility.yul\":7:149   */\n      pop\n      pop\n      jump\t// out\n        /* \"#utility.yul\":155:273   */\n    tag_31:\n        /* \"#utility.yul\":242:266   */\n      tag_33\n        /* \"#utility.yul\":260:265   */\n      dup2\n        /* \"#utility.yul\":242:266   */\n      tag_34\n      jump\t// in\n    tag_33:\n        /* \"#utility.yul\":237:240   */\n      dup3\n        /* \"#utility.yul\":230:267   */\n      mstore\n        /* \"#utility.yul\":155:273   */\n      pop\n      pop\n      jump\t// out\n        /* \"#utility.yul\":279:533   */\n    tag_15:\n        /* \"#utility.yul\":388:392   */\n      0x00\n        /* \"#utility.yul\":426:428   */\n      0x20\n        /* \"#utility.yul\":415:424   */\n      dup3\n        /* \"#utility.yul\":411:429   */\n      add\n        /* \"#utility.yul\":403:429   */\n      swap1\n      pop\n        /* \"#utility.yul\":439:526   */\n      tag_36\n        /* \"#utility.yul\":523:524   */\n      0x00\n        /* \"#utility.yul\":512:521   */\n      dup4\n        /* \"#utility.yul\":508:525   */\n      add\n        /* \"#utility.yul\":499:505   */\n      dup5\n        /* \"#utility.yul\":439:526   */\n      tag_27\n      jump\t// in\n    tag_36:\n        /* \"#utility.yul\":279:533   */\n      swap3\n      swap2\n      pop\n      pop\n      jump\t// out\n        /* \"#utility.yul\":539:761   */\n    tag_10:\n        /* \"#utility.yul\":632:636   */\n      0x00\n        /* \"#utility.yul\":670:672   */\n      0x20\n        /* \"#utility.yul\":659:668   */\n      dup3\n        /* \"#utility.yul\":655:673   */\n      add\n        /* \"#utility.yul\":647:673   */\n      swap1\n      pop\n        /* \"#utility.yul\":683:754   */\n      tag_38\n        /* \"#utility.yul\":751:752   */\n      0x00\n        /* \"#utility.yul\":740:749   */\n      dup4\n        /* \"#utility.yul\":736:753   */\n      add\n        /* \"#utility.yul\":727:733   */\n      dup5\n        /* \"#utility.yul\":683:754   */\n      tag_31\n      jump\t// in\n    tag_38:\n        /* \"#utility.yul\":539:761   */\n      swap3\n      swap2\n      pop\n      pop\n      jump\t// out\n        /* \"#utility.yul\":767:871   */\n    tag_30:\n        /* \"#utility.yul\":812:819   */\n      0x00\n        /* \"#utility.yul\":841:865   */\n      tag_40\n        /* \"#utility.yul\":859:864   */\n      dup3\n        /* \"#utility.yul\":841:865   */\n      tag_41\n      jump\t// in\n    tag_40:\n        /* \"#utility.yul\":830:865   */\n      swap1\n      pop\n        /* \"#utility.yul\":767:871   */\n      swap2\n      swap1\n      pop\n      jump\t// out\n        /* \"#utility.yul\":877:1003   */\n    tag_41:\n        /* \"#utility.yul\":914:921   */\n      0x00\n        /* \"#utility.yul\":954:996   */\n      0xffffffffffffffffffffffffffffffffffffffff\n        /* \"#utility.yul\":947:952   */\n      dup3\n        /* \"#utility.yul\":943:997   */\n      and\n        /* \"#utility.yul\":932:997   */\n      swap1\n      pop\n        /* \"#utility.yul\":877:1003   */\n      swap2\n      swap1\n      pop\n      jump\t// out\n        /* \"#utility.yul\":1009:1086   */\n    tag_34:\n        /* \"#utility.yul\":1046:1053   */\n      0x00\n        /* \"#utility.yul\":1075:1080   */\n      dup2\n        /* \"#utility.yul\":1064:1080   */\n      swap1\n      pop\n        /* \"#utility.yul\":1009:1086   */\n      swap2\n      swap1\n      pop\n      jump\t// out\n\n    auxdata: 0xa2646970667358221220869b34f8e8fe3b9c84aed6cf0445ba27c30b2ee6a8a1f2b9ccb808b167bbe83d64736f6c63430008070033\n}\n",
				"bytecode": {
					"linkReferences": {},
					"object": "608060405273ab8483f64d9c6d1ecf9b849ae677dd3315835cb26000806101000a81548173ffffffffffffffffffffffffffffffffffffffff021916908373ffffffffffffffffffffffffffffffffffffffff16021790555034801561006457600080fd5b50610220806100746000396000f3fe60806040526004361061003f5760003560e01c806312065fe0146100445780634f8632ba1461006f578063c9b25f0f1461009a578063f7474d00146100b1575b600080fd5b34801561005057600080fd5b506100596100bb565b6040516100669190610193565b60405180910390f35b34801561007b57600080fd5b506100846100c3565b6040516100919190610178565b60405180910390f35b3480156100a657600080fd5b506100af6100e7565b005b6100b9610158565b005b600047905090565b60008054906101000a900473ffffffffffffffffffffffffffffffffffffffff1681565b60008054906101000a900473ffffffffffffffffffffffffffffffffffffffff1673ffffffffffffffffffffffffffffffffffffffff166108fc670de0b6b3a76400009081150290604051600060405180830381858888f19350505050158015610155573d6000803e3d6000fd5b50565b565b610163816101ae565b82525050565b610172816101e0565b82525050565b600060208201905061018d600083018461015a565b92915050565b60006020820190506101a86000830184610169565b92915050565b60006101b9826101c0565b9050919050565b600073ffffffffffffffffffffffffffffffffffffffff82169050919050565b600081905091905056fea2646970667358221220869b34f8e8fe3b9c84aed6cf0445ba27c30b2ee6a8a1f2b9ccb808b167bbe83d64736f6c63430008070033",
					"opcodes": "PUSH1 0x80 PUSH1 0x40 MSTORE PUSH20 0xAB8483F64D9C6D1ECF9B849AE677DD3315835CB2 PUSH1 0x0 DUP1 PUSH2 0x100 EXP DUP2 SLOAD DUP2 PUSH20 0xFFFFFFFFFFFFFFFFFFFFFFFFFFFFFFFFFFFFFFFF MUL NOT AND SWAP1 DUP4 PUSH20 0xFFFFFFFFFFFFFFFFFFFFFFFFFFFFFFFFFFFFFFFF AND MUL OR SWAP1 SSTORE POP CALLVALUE DUP1 ISZERO PUSH2 0x64 JUMPI PUSH1 0x0 DUP1 REVERT JUMPDEST POP PUSH2 0x220 DUP1 PUSH2 0x74 PUSH1 0x0 CODECOPY PUSH1 0x0 RETURN INVALID PUSH1 0x80 PUSH1 0x40 MSTORE PUSH1 0x4 CALLDATASIZE LT PUSH2 0x3F JUMPI PUSH1 0x0 CALLDATALOAD PUSH1 0xE0 SHR DUP1 PUSH4 0x12065FE0 EQ PUSH2 0x44 JUMPI DUP1 PUSH4 0x4F8632BA EQ PUSH2 0x6F JUMPI DUP1 PUSH4 0xC9B25F0F EQ PUSH2 0x9A JUMPI DUP1 PUSH4 0xF7474D00 EQ PUSH2 0xB1 JUMPI JUMPDEST PUSH1 0x0 DUP1 REVERT JUMPDEST CALLVALUE DUP1 ISZERO PUSH2 0x50 JUMPI PUSH1 0x0 DUP1 REVERT JUMPDEST POP PUSH2 0x59 PUSH2 0xBB JUMP JUMPDEST PUSH1 0x40 MLOAD PUSH2 0x66 SWAP2 SWAP1 PUSH2 0x193 JUMP JUMPDEST PUSH1 0x40 MLOAD DUP1 SWAP2 SUB SWAP1 RETURN JUMPDEST CALLVALUE DUP1 ISZERO PUSH2 0x7B JUMPI PUSH1 0x0 DUP1 REVERT JUMPDEST POP PUSH2 0x84 PUSH2 0xC3 JUMP JUMPDEST PUSH1 0x40 MLOAD PUSH2 0x91 SWAP2 SWAP1 PUSH2 0x178 JUMP JUMPDEST PUSH1 0x40 MLOAD DUP1 SWAP2 SUB SWAP1 RETURN JUMPDEST CALLVALUE DUP1 ISZERO PUSH2 0xA6 JUMPI PUSH1 0x0 DUP1 REVERT JUMPDEST POP PUSH2 0xAF PUSH2 0xE7 JUMP JUMPDEST STOP JUMPDEST PUSH2 0xB9 PUSH2 0x158 JUMP JUMPDEST STOP JUMPDEST PUSH1 0x0 SELFBALANCE SWAP1 POP SWAP1 JUMP JUMPDEST PUSH1 0x0 DUP1 SLOAD SWAP1 PUSH2 0x100 EXP SWAP1 DIV PUSH20 0xFFFFFFFFFFFFFFFFFFFFFFFFFFFFFFFFFFFFFFFF AND DUP2 JUMP JUMPDEST PUSH1 0x0 DUP1 SLOAD SWAP1 PUSH2 0x100 EXP SWAP1 DIV PUSH20 0xFFFFFFFFFFFFFFFFFFFFFFFFFFFFFFFFFFFFFFFF AND PUSH20 0xFFFFFFFFFFFFFFFFFFFFFFFFFFFFFFFFFFFFFFFF AND PUSH2 0x8FC PUSH8 0xDE0B6B3A7640000 SWAP1 DUP2 ISZERO MUL SWAP1 PUSH1 0x40 MLOAD PUSH1 0x0 PUSH1 0x40 MLOAD DUP1 DUP4 SUB DUP2 DUP6 DUP9 DUP9 CALL SWAP4 POP POP POP POP ISZERO DUP1 ISZERO PUSH2 0x155 JUMPI RETURNDATASIZE PUSH1 0x0 DUP1 RETURNDATACOPY RETURNDATASIZE PUSH1 0x0 REVERT JUMPDEST POP JUMP JUMPDEST JUMP JUMPDEST PUSH2 0x163 DUP2 PUSH2 0x1AE JUMP JUMPDEST DUP3 MSTORE POP POP JUMP JUMPDEST PUSH2 0x172 DUP2 PUSH2 0x1E0 JUMP JUMPDEST DUP3 MSTORE POP POP JUMP JUMPDEST PUSH1 0x0 PUSH1 0x20 DUP3 ADD SWAP1 POP PUSH2 0x18D PUSH1 0x0 DUP4 ADD DUP5 PUSH2 0x15A JUMP JUMPDEST SWAP3 SWAP2 POP POP JUMP JUMPDEST PUSH1 0x0 PUSH1 0x20 DUP3 ADD SWAP1 POP PUSH2 0x1A8 PUSH1 0x0 DUP4 ADD DUP5 PUSH2 0x169 JUMP JUMPDEST SWAP3 SWAP2 POP POP JUMP JUMPDEST PUSH1 0x0 PUSH2 0x1B9 DUP3 PUSH2 0x1C0 JUMP JUMPDEST SWAP1 POP SWAP2 SWAP1 POP JUMP JUMPDEST PUSH1 0x0 PUSH20 0xFFFFFFFFFFFFFFFFFFFFFFFFFFFFFFFFFFFFFFFF DUP3 AND SWAP1 POP SWAP2 SWAP1 POP JUMP JUMPDEST PUSH1 0x0 DUP2 SWAP1 POP SWAP2 SWAP1 POP JUMP INVALID LOG2 PUSH5 0x6970667358 0x22 SLT KECCAK256 DUP7 SWAP12 CALLVALUE 0xF8 0xE8 INVALID EXTCODESIZE SWAP13 DUP5 0xAE 0xD6 0xCF DIV GASLIMIT 0xBA 0x27 0xC3 SIGNEXTEND 0x2E 0xE6 0xA8 LOG1 CALLCODE 0xB9 0xCC 0xB8 ADDMOD 0xB1 PUSH8 0xBBE83D64736F6C63 NUMBER STOP ADDMOD SMOD STOP CALLER "
				},
				"gasEstimates": {
					"creation": {
						"codeDepositCost": "108800",
						"executionCost": "24420",
						"totalCost": "133220"
					},
					"external": {
						"getBalance()": "317",
						"payEther()": "164",
						"transferEther()": "infinite",
						"user()": "2511"
					}
				},
				"methodIdentifiers": {
					"getBalance()": "12065fe0",
					"payEther()": "f7474d00",
					"transferEther()": "c9b25f0f",
					"user()": "4f8632ba"
				}
			},
			"storageLayout": {
				"storage": [
					{
						"astId": 7,
						"contract": "transictions.sol:Pay",
						"label": "user",
						"offset": 0,
						"slot": "0",
						"type": "t_address_payable"
					}
				],
				"types": {
					"t_address_payable": {
						"encoding": "inplace",
						"label": "address payable",
						"numberOfBytes": "20"
					}
				}
			},
			"userdoc": {
				"kind": "user",
				"methods": {},
				"version": 1
			}
		}
	}
}