{
	"data": {
		"bytecode": {
			"linkReferences": {},
			"object": "6080604052607f6000806101000a81548160ff021916908360000b60ff16021790555034801561002e57600080fd5b5060c08061003d6000396000f3fe6080604052348015600f57600080fd5b506004361060275760003560e01c8062f9c45114602c575b600080fd5b60326046565b604051603d91906064565b60405180910390f35b60008054906101000a900460000b81565b605e81607d565b82525050565b6000602082019050607760008301846057565b92915050565b60008160000b905091905056fea26469706673582212202aa51e4794391fc55a5d1a57ae8b86e887e85c3be77494c848fae42b6f777aab64736f6c63430008070033",
			"opcodes": "PUSH1 0x80 PUSH1 0x40 MSTORE PUSH1 0x7F PUSH1 0x0 DUP1 PUSH2 0x100 EXP DUP2 SLOAD DUP2 PUSH1 0xFF MUL NOT AND SWAP1 DUP4 PUSH1 0x0 SIGNEXTEND PUSH1 0xFF AND MUL OR SWAP1 SSTORE POP CALLVALUE DUP1 ISZERO PUSH2 0x2E JUMPI PUSH1 0x0 DUP1 REVERT JUMPDEST POP PUSH1 0xC0 DUP1 PUSH2 0x3D PUSH1 0x0 CODECOPY PUSH1 0x0 RETURN INVALID PUSH1 0x80 PUSH1 0x40 MSTORE CALLVALUE DUP1 ISZERO PUSH1 0xF JUMPI PUSH1 0x0 DUP1 REVERT JUMPDEST POP PUSH1 0x4 CALLDATASIZE LT PUSH1 0x27 JUMPI PUSH1 0x0 CALLDATALOAD PUSH1 0xE0 SHR DUP1 PUSH3 0xF9C451 EQ PUSH1 0x2C JUMPI JUMPDEST PUSH1 0x0 DUP1 REVERT JUMPDEST PUSH1 0x32 PUSH1 0x46 JUMP JUMPDEST PUSH1 0x40 MLOAD PUSH1 0x3D SWAP2 SWAP1 PUSH1 0x64 JUMP JUMPDEST PUSH1 0x40 MLOAD DUP1 SWAP2 SUB SWAP1 RETURN JUMPDEST PUSH1 0x0 DUP1 SLOAD SWAP1 PUSH2 0x100 EXP SWAP1 DIV PUSH1 0x0 SIGNEXTEND DUP2 JUMP JUMPDEST PUSH1 0x5E DUP2 PUSH1 0x7D JUMP JUMPDEST DUP3 MSTORE POP POP JUMP JUMPDEST PUSH1 0x0 PUSH1 0x20 DUP3 ADD SWAP1 POP PUSH1 0x77 PUSH1 0x0 DUP4 ADD DUP5 PUSH1 0x57 JUMP JUMPDEST SWAP3 SWAP2 POP POP JUMP JUMPDEST PUSH1 0x0 DUP2 PUSH1 0x0 SIGNEXTEND SWAP1 POP SWAP2 SWAP1 POP JUMP INVALID LOG2 PUSH5 0x6970667358 0x22 SLT KECCAK256 0x2A 0xA5 0x1E SELFBALANCE SWAP5 CODECOPY 0x1F 0xC5 GAS 0x5D BYTE JUMPI 0xAE DUP12 DUP7 0xE8 DUP8 0xE8 0x5C EXTCODESIZE 0xE7 PUSH21 0x94C848FAE42B6F777AAB64736F6C63430008070033 "
		},
		"gasEstimates": {
			"creation": {
				"codeDepositCost": "38400",
				"executionCost": "24362",
				"totalCost": "62762"
			},
			"external": {
				"nmbr()": "2450"
			}
		},
		"methodIdentifiers": {
			"nmbr()": "00f9c451"
		}
	},
	"abi": [
		{
			"inputs": [],
			"name": "nmbr",
			"outputs": [
				{
					"internalType": "int8",
					"name": "",
					"type": "int8"
				}
			],
			"stateMutability": "view",
			"type": "function"
		}
	]
}