{
	"data": {
		"bytecode": {
			"linkReferences": {},
			"object": "608060405234801561001057600080fd5b5060f68061001f6000396000f3fe6080604052348015600f57600080fd5b506004361060285760003560e01c80631865c57d14602d575b600080fd5b60336047565b604051603e9190609d565b60405180910390f35b6000806040518060400160405280600481526020017f41686164000000000000000000000000000000000000000000000000000000008152509050600060159050809250505090565b60978160b6565b82525050565b600060208201905060b060008301846090565b92915050565b600081905091905056fea2646970667358221220f811d3c6eed99cf83f7e47f1e321865933ed2de7a218d8cea52f848fb8a6f12c64736f6c63430008070033",
			"opcodes": "PUSH1 0x80 PUSH1 0x40 MSTORE CALLVALUE DUP1 ISZERO PUSH2 0x10 JUMPI PUSH1 0x0 DUP1 REVERT JUMPDEST POP PUSH1 0xF6 DUP1 PUSH2 0x1F PUSH1 0x0 CODECOPY PUSH1 0x0 RETURN INVALID PUSH1 0x80 PUSH1 0x40 MSTORE CALLVALUE DUP1 ISZERO PUSH1 0xF JUMPI PUSH1 0x0 DUP1 REVERT JUMPDEST POP PUSH1 0x4 CALLDATASIZE LT PUSH1 0x28 JUMPI PUSH1 0x0 CALLDATALOAD PUSH1 0xE0 SHR DUP1 PUSH4 0x1865C57D EQ PUSH1 0x2D JUMPI JUMPDEST PUSH1 0x0 DUP1 REVERT JUMPDEST PUSH1 0x33 PUSH1 0x47 JUMP JUMPDEST PUSH1 0x40 MLOAD PUSH1 0x3E SWAP2 SWAP1 PUSH1 0x9D JUMP JUMPDEST PUSH1 0x40 MLOAD DUP1 SWAP2 SUB SWAP1 RETURN JUMPDEST PUSH1 0x0 DUP1 PUSH1 0x40 MLOAD DUP1 PUSH1 0x40 ADD PUSH1 0x40 MSTORE DUP1 PUSH1 0x4 DUP2 MSTORE PUSH1 0x20 ADD PUSH32 0x4168616400000000000000000000000000000000000000000000000000000000 DUP2 MSTORE POP SWAP1 POP PUSH1 0x0 PUSH1 0x15 SWAP1 POP DUP1 SWAP3 POP POP POP SWAP1 JUMP JUMPDEST PUSH1 0x97 DUP2 PUSH1 0xB6 JUMP JUMPDEST DUP3 MSTORE POP POP JUMP JUMPDEST PUSH1 0x0 PUSH1 0x20 DUP3 ADD SWAP1 POP PUSH1 0xB0 PUSH1 0x0 DUP4 ADD DUP5 PUSH1 0x90 JUMP JUMPDEST SWAP3 SWAP2 POP POP JUMP JUMPDEST PUSH1 0x0 DUP2 SWAP1 POP SWAP2 SWAP1 POP JUMP INVALID LOG2 PUSH5 0x6970667358 0x22 SLT KECCAK256 0xF8 GT 0xD3 0xC6 0xEE 0xD9 SWAP13 0xF8 EXTCODEHASH PUSH31 0x47F1E321865933ED2DE7A218D8CEA52F848FB8A6F12C64736F6C6343000807 STOP CALLER "
		},
		"gasEstimates": {
			"creation": {
				"codeDepositCost": "49200",
				"executionCost": "99",
				"totalCost": "49299"
			},
			"external": {
				"getState()": "394"
			}
		},
		"methodIdentifiers": {
			"getState()": "1865c57d"
		}
	},
	"abi": [
		{
			"inputs": [],
			"name": "getState",
			"outputs": [
				{
					"internalType": "uint256",
					"name": "",
					"type": "uint256"
				}
			],
			"stateMutability": "pure",
			"type": "function"
		}
	]
}